:020000040800F2
:1000000000500020C13600088139000885390008F9
:10001000893900088D39000891390008E139000854
:10002000E1390008E1390008E1390008E139000848
:10003000E1390008E1390008E1390008C13D000854
:10004000E1390008E1390008E139000829360008E3
:10005000E1390008E1390008E1390008E139000818
:10006000E1390008E1390008E1390008E139000808
:10007000E1390008E1390008E1390008E1390008F8
:10008000E1390008E1390008393A0008E13900088F
:10009000E1390008E1390008E1390008E1390008D8
:1000A000694000088D400008B1400008E9400008A0
:1000B0003D410008AD4100081D420008E13900083B
:1000C000E1390008E1390008E1390008E1390008A8
:1000D000E1390008A1430008F5430008494400083D
:1000E000E139000871360008E139000810B5054C07
:1000F000237833B9044B13B10448AFF300800123D4
:10010000237010BDA81100200000000010DC0008C2
:1001100008B5064B1BB106480649AFF300800648F8
:10012000036813B1054B03B1984708BD00000000F8
:1001300010DC0008AC110020A81100200000000015
:100140000148112103F0C4B9C4110020064B1A68FC
:1001500001321A601A681D2A04D900221A60034B62
:1001600001221A70704700BFC8110020CC11002076
:1001700010B5094C0949204604F023FB2046012113
:10018000074A04F03DFB2046002104F011FB204605
:10019000BDE8104004F0F6BAA413002040420F005E
:1001A0004D01000810B5054C204604F0F3FA204636
:1001B0000021BDE8104004F0FBBA00BFA4130020EA
:1001C00013B5026802AB03F8011D546A19460122F7
:1001D000A04702B010BD07B503680DF107019B6A87
:1001E0000122984701280CBF9DF807004FF0FF300F
:1001F00003B05DF804FB4FF0FF30704708B50369AA
:10020000186803689B69984708BD036810B5DB68E8
:100210000446984708B9207F10BD012010BD08B5DD
:1002200003681B6B9847003018BF012008BD10B54C
:100230000446283004F080FC04F11C0004F07CFC2F
:1002400004F1100004F078FC204610BDF0B585B034
:100250000C460646194901A81746194D04F0AEFC94
:1002600001A8102104F086FC217901A804F044FDC6
:10027000294601A804F024FD617901A804F03CFDA1
:10028000294601A804F01CFDA17901A804F034FD61
:10029000294601A804F014FDE17901A804F02CFD21
:1002A000336801991B6A3A4630469847044601A8CC
:1002B00004F042FC204605B0F0BD00BF5DFB000825
:1002C0002FF0000810B5044620680368DB689847E3
:1002D00010B904F063FFF7E7206803681B699847CB
:1002E0002C28F1D1012010BD2DE9F04F054687B033
:1002F0008A46104640211E461446129F04F03AFCDE
:100300008F4BD3F800B0002004F048FF2868036842
:10031000DB689847002840F3E480286803681B697D
:100320009847011EF2DD2046C9B204F0D8FC16B988
:10033000109BA3B910E0314603A804F03FFC20460F
:1003400003A904F06DFD814603A804F0F5FBB9F1A3
:10035000000FEDD00120EFE0119B9BB910E0109948
:1003600003A804F02BFC204603A904F059FD8146A4
:1003700003A804F0E1FBB9F1000FEDD00220DBE0AF
:10038000A7B910E0119903A804F018FC204603A9AE
:1003900004F046FD814603A804F0CEFBB9F1000F3E
:1003A000EED00320C8E0139B0BBB10E0394603A836
:1003B00004F004FC204603A904F032FD814603A8A2
:1003C00004F0BAFBB9F1000FEDD00420B4E05D49B0
:1003D00003A804F0F3FB204603A904F021FD8146A5
:1003E00003A804F0A9FBB9F1000F11D139E013996A
:1003F00003A804F0E3FB204603A904F011FD8146A5
:1004000003A804F099FBB9F1000FE0D0052093E0B8
:10041000684629682C2204F067FB684604F035FE24
:100420000128814615D129680A2203A804F05CFB43
:1004300003A804F02AFE804603A804F07DFB2046B2
:10044000414904F010FC05EB88035B6883F81D90BC
:1004500003E02046694604F02EFC684604F06CFB7D
:1004600054E73A4903A804F0A9FB204603A904F085
:10047000D7FC804603A804F05FFBB8F1000F3FF4FF
:1004800045AF334903A804F099FBA26803A9083AD1
:10049000204604F001FD804608F1020803A804F09C
:1004A0004BFB42462C21204604F0E8FC4246034622
:1004B000214603A804F014FD03A804F0E6FD8046DD
:1004C00003A804F039FBB8F1000F3FF41FAF05EBB0
:1004D00088035B68204683F81C901B4904F0C3FB2B
:1004E00014E7174B1B68CBEB03035345FFF40BAF2B
:1004F000204604F0A0FDA368CBB12146684604F075
:10050000A0FB1449144804F0FEF92021124804F01D
:10051000F5F9694603A804F094FB03A90E4804F01A
:100520000DFA03A804F008FB684604F005FB20461A
:10053000054904F098FB0020C0B207B0BDE8F08F79
:10054000F41300205FEE00085DFB00086CEE00086D
:100550005BFB000875EE00080C130020F0B589B0B5
:100560001C4607460E4605A80B49154604F026FB17
:1005700000940E9C314601940F9C05AA0294109C95
:100580002B4603943846FFF7AFFE044605A804F057
:10059000D3FA204609B0F0BD5DFB0008F0B5044673
:1005A00085B00E46006821491F46154604F0ABF998
:1005B00020681F4904F0A7F90A223946206804F090
:1005C0005EFA20682C2104F099F92068194904F09A
:1005D0009AF92068184904F096F93146206804F029
:1005E00092F92068154904F08EF90A2229462068FC
:1005F00004F02EFA1249206804F085F92068036897
:100600009B699847002004F0C9FD0E4B20460093DB
:100610000023019302930C490C4A0D4BFFF79EFFF8
:10062000431E5842584105B0F0BD00BF84EE00089B
:1006300087EE000892EE000817F2000897EE000817
:100640005BFB0008B6EE0008F82401009AEE0008F3
:10065000A7EE000870B5044600200E46154604F0CB
:100660009DFD0023C4F8A430C4F8A03020693146B1
:100670002A46237DFFF792FF003018BF0120207724
:1006800070BD7FB5089C0E460194099C15460093E9
:1006900002944FF47A7132462B46FFF75FFF04B0A5
:1006A00070BD08B500210F2004F062FD40F2DC505F
:1006B00004F074FDBDE808400F20012104F058BD8E
:1006C00070B504460D4600680C49164604F01BF947
:1006D0002946206804F017F931460A22206804F000
:1006E000CEF92068064904F00EF9206803689B697A
:1006F0009847BDE87040002004F050BD84EE00082B
:100700005BFB000813B50446002004F047FD206998
:10071000227D0749FFF7D4FF00232377009301933D
:1007200020690449044AFFF7ACFF02B010BD00BFC6
:10073000C8EE000851EE0008A7F5000810B5044601
:100740000748FFF762FD48B9E3783BB1E07005491F
:10075000054804F0FDF80248FFF7D4FF10BD00BFC4
:10076000D8110020D3EE00080C130020F0B50F467E
:1007700087B00025044626493A46FFF7A1FF0095B9
:10078000019520462349244A2B46FFF77AFF01288A
:100790001AD12046FFF796FD2046FFF793FD21680A
:1007A0000A2203A804F0A0F903A804F06EFC064690
:1007B00003A804F0C1F90095019520461749164A8F
:1007C0002B46FFF75EFFFEB904EB87033A4620464F
:1007D00013495E68FFF774FF124B0025009312491E
:1007E000124A134B01952046FFF74BFF2B46074655
:1007F0000095019520460949074AFFF742FF7B1EF5
:100800005F425F4137772E46304607B0F0BD00BFEC
:1008100012EF000861EE0008A7F5000851EE00088D
:100820001FEF00084DEF00082BEF000838EF00081D
:1008300042EF00087FB50546002405EB84035E689F
:1008400046B1737F33B1002373772846E1B2FFF7D7
:100850008DFFF0820134052CEFD128680368DB6836
:10086000984748B1002200920192029228460A213C
:100870001346FFF773FEF0E704B070BDD0F8802098
:10088000D0F88430D01A48BF8030704738B504465D
:10089000002004F083FC237F04F120058BB128465F
:1008A000FFF7ECFF68B90A4BA26919688A1AB2F51A
:1008B000FA7F03D91B6801226277A3612069FFF7E1
:1008C000B9FF2846FFF7DAFFE38A184438BD00BFB6
:1008D000F413002038B504460D460068094904F0B9
:1008E00012F82946206804F00EF82068064904F042
:1008F0000AF8206803689B699847BDE838400020E3
:1009000004F04CBC84EE00085BFB00082DE9FF41BD
:10091000134B05461F680E469846D8F80030002451
:10092000DB1BB34217D228460E49FFF7D3FF0094D2
:10093000019402942846C8210B4A0C4BFFF70EFE87
:100940000446012C4FF0640002D104F027FC02E0C1
:1009500004F024FCE1E7204604B0BDE8F08100BFCC
:10096000F41300205DFB000851EE0008A7F5000815
:100970001F4B2DE9F3411F6805460E469846D8F8EF
:100980000030DB1BB3422CD2002428461949FFF764
:10099000A1FF0094019428461749184A2346FFF7FF
:1009A00070FE012804D04FF47A7004F0F7FBE6E7FC
:1009B000134B14498DE81800134A144B2846FFF7CF
:1009C00060FE009406460194284611490B4A2346CE
:1009D000FFF757FE012E06D003D3032E01D80220C5
:1009E00002E0002000E0304602B0BDE8F08100BF28
:1009F000F413002058EF00085FEF0008A7F5000887
:100A00007EEF000868EF00086EEF000876EF000840
:100A100051EE00087FB542F210710546FFF776FFF0
:100A200058B3002428462149FFF754FF009401944D
:100A30000294284642F210711D4A1E4BFFF78EFDAC
:100A400001281AD128461C49FFF744FF009401945D
:100A50000294284642F21071154A164BFFF77EFDAC
:100A600001280AD140F6B83004F098FB284642F23B
:100A70001071FFF74BFF064608B9002612E0284622
:100A80000E49FFF727FF0094019428460849094AB8
:100A90002346FFF7F6FD0128EFD1284642F21071F8
:100AA000FFF766FF304604B070BD00BF8BEF000853
:100AB00051EE0008A7F5000893EF00089DEF00082D
:100AC000F7B5154F154E002405461549FFF702FFEF
:100AD000324623463946009401942846FFF7D1FD5B
:100AE00028461049FFF7F6FE324623463946009461
:100AF00001942846FFF7C5FD28460B49FFF7EAFE9B
:100B0000009401942846394632462346FFF7B9FD42
:100B1000012003B0F0BD00BF51EE0008A7F50008AA
:100B2000A3EF0008AEEF0008BEEF00081FB54FF4BA
:100B3000165104461B4803F0F1FD1B48FFF7B1FDB9
:100B400040F6B83004F02AFB1849194803F00AFFB0
:100B50001848FFF75FFF17481749FFF7BBFE002350
:100B600000930193029313484FF47A71134A144B84
:100B7000FFF7F4FC012803D00D48124903F0E8FE0A
:100B80004FF4FA6004F00AFB0A48FFF799FF4FF4AC
:100B90007A7004F003FB0023A37063702370E3708A
:100BA00004B010BD3C13002098120020CDEF0008C7
:100BB0000C13002080120020E3EF000851EE000823
:100BC000A7F50008EEEF000870B5174986B00024BD
:100BD0000546FFF77FFE0094019428461349144A06
:100BE0002346FFF74EFD01281BD12846FFF76AFB7D
:100BF0002846FFF767FB29682C2203A803F074FF3F
:100C000003A804F042FA86B203A803F095FF00940B
:100C1000019428460749064A2346FFF732FD30462D
:100C200000E0204606B070BDFDEF000802F00008AD
:100C3000A7F5000851EE000808B50248FFF7C4FF09
:100C400008BD00BF8012002070B5164986B0002490
:100C50000546FFF73FFE0094019428461249134AC7
:100C60002346FFF70EFD012818BF042017D12846A0
:100C7000FFF728FB29680A2203A803F035FF03A821
:100C800004F003FA064603A803F056FF009401940B
:100C900028460749054A2346FFF7F3FCF0B206B0A1
:100CA00070BD00BF0AF0000811F00008A7F50008A9
:100CB00051EE00082DE9F0414478054654BB174831
:100CC000174903F025FE174B1F689846D8F80020F7
:100CD0004EF65F23D21B9A420BD81348FFF7B4FF9E
:100CE00000F0FB06012E0FD04FF47A7004F056FA94
:100CF000ECE70E49094803F02BFE42F2107004F0B5
:100D00004DFA00236B7005E06E700448084903F04B
:100D10001FFE34462046BDE8F08100BF0C130020C2
:100D20001AF00008F41300208012002031F00008AF
:100D30004EF000081FB50A490446FFF7CBFD00231B
:100D400000930193029320464EF66021054A064B1C
:100D5000FFF704FC431E5842584104B010BD00BFC9
:100D60007BF0000851EE0008A7F5000830B53049C7
:100D700085B000240546FFF7ADFD00940194284698
:100D80002C492D4A2346FFF77CFC012801D0012085
:100D90004BE028462949FFF79DFD274A234628496D
:100DA000009401942846FFF76CFC28462549FFF77C
:100DB00091FD00940194029428462349234A1E4B36
:100DC000FFF7CCFB012802D0214822492AE01C4A27
:100DD000194B4FF47A710094019402942846FFF75E
:100DE000BDFB28461C49FFF775FD00940194284679
:100DF0001A49114A2346FFF744FC012802D014483F
:100E000017490FE028461749FFF764FD0094019445
:100E100028461549084A2346FFF733FC0128B6D077
:100E20000B48124903F094FD204605B030BD00BFC9
:100E30000AF0000811F00008A7F5000884F0000887
:100E400051EE0008A0F00008084C0100ABF00008CB
:100E50000C130020B5F00008D5F00008E2F00008FF
:100E6000F3F000080CF1000819F100082AF100085D
:100E700038B5437804468BB183787BB90848FFF7CF
:100E800075FF054607482DB1074903F061FD0123B1
:100E9000A37038BD054903F05BFDA57038BD00BFE8
:100EA000801200200C13002053F1000890F100087C
:100EB00070B5144986B000240546FFF70BFD009479
:100EC000019428461049114A2346FFF7DAFB01280E
:100ED00018BF632014D129682C2203A803F004FE54
:100EE00003A804F0D2F8064603A803F025FE0094F8
:100EF000019428460649054A2346FFF7C2FB3046BF
:100F000006B070BDCFF10008D4F10008A7F50008C5
:100F100051EE000870B5002486B00D46064608461E
:100F20001549FFF7D7FC0094019428461349144A49
:100F30002346FFF7A6FB012804D03046114903F0F1
:100F40003DFE16E003A829680A2203F0CDFD0E49F4
:100F50000B4A2346009401942846FFF792FB03A80E
:100F600004F069F8304603A903F0D7FD03A803F0A5
:100F7000E3FD304606B070BDDCF100085BFB000805
:100F8000A7F500085DFB000851EE0008F8B504461F
:100F90000D4600680E4916461F4603F0B4FC29466C
:100FA000206803F0B0FC3146206803F0ACFC394601
:100FB000206803F0A3FC2068064903F0A4FC206825
:100FC00003689B699847BDE8F840002004F0E6B844
:100FD00084EE00085BFB00082DE9F04304468FB067
:100FE0000025904689461F46FFF7A4FE20469B49F0
:100FF000FFF770FC9A499B4A2B46009501952046C5
:10100000FFF73FFB204698494A462223FFF7BEFFE1
:101010000095019520469249924A2B46FFF731FBF5
:10102000B8F1000F0DD02046904942462223FFF729
:10103000ADFF00950195204689498A4A2B46FFF766
:1010400020FB6FB120468A493A462223FFF79EFFD4
:1010500000230093019320468149824AFFF711FB48
:10106000804E0025204683494A462223FFF78EFF03
:1010700032462B467A49009501952046FFF701FB41
:1010800020467D49FFF726FC754A33464EF660211F
:101090000095019502952046FFF760FA20467749B2
:1010A000FFF718FC6E4A3346754900950195029585
:1010B0002046FFF753FA20467249FFF70BFC0095D4
:1010C00001950295204647F23051654A3346FFF7B5
:1010D00045FA012801D00025BCE020466A49FFF707
:1010E000F9FB00950195029520464EF660215C4A79
:1010F0003346FFF733FA0128EDD120466349FFF765
:10110000E9FB009501952046554932462B46FFF7ED
:10111000B8FA0128DFD120465D49FFF7DBFB0095D7
:10112000019520464E4932462B46FFF7AAFA012880
:10113000D1D120465749FFF7CDFB009501952046B8
:10114000474932462B46FFF79CFA0128C3D1524942
:10115000206803F0D8FB5149206803F0D4FB4946CE
:10116000206803F0D0FB4E49206803F0CCFB4146D9
:10117000206803F0C8FB4A49206803F0C4FB3946E5
:10118000206803F0C0FB4749206803F0BCFB4649D8
:10119000206803F0B8FB206803689B6998472846DD
:1011A00003F0FCFF00950195029520464EF6602164
:1011B0002B4A3346FFF7D2F901288CD120463B4910
:1011C000FFF788FB00950195029520464EF66021B9
:1011D000234A3346FFF7C2F901287FF47CAF20464B
:1011E0003349FFF777FB334905A803F0E7FC009686
:1011F000019502950395204642F2107105AA184BFD
:10120000FFF772F8012813D008A8274903F0D6FC8D
:101210000BA8284903F0D2FC05A808A90BAA03F0E3
:1012200085FE0BA803F088FC08A803F085FC0EE0FF
:1012300020462149FFF74EFB2B460095019520469D
:1012400007493246FFF71DFA431E5D425D4105A87E
:1012500003F072FC28460FB0BDE8F08384F000086C
:1012600051EE0008A7F50008E1F10008F4F10008CC
:1012700008F200081BF200082DF2000838F20008FE
:10128000084C0100A0F0000843F200084CF20008EE
:1012900056F2000862F2000884EE00086EF20008C0
:1012A00017F2000891F600085BFB000876F20008D0
:1012B0007DF200085DFB000887F2000838B504786D
:1012C000054614BB4378FBB11149124803F020FBDB
:1012D0001149104803F017FB10480F49104A114BF1
:1012E000FFF77AFE04460B4844B90F4903F030FB80
:1012F00042F2107003F052FF2C7006E00B4903F02D
:1013000027FB01232B7000E00124204638BD00BFDD
:10131000A4F200080C130020AFF500088012002092
:1013200050EE0008A6F50008B3F20008D0F200085D
:101330002DE9F04104460E46006812491F469046CA
:10134000069D03F0E0FA3146206803F0DCFA4146DE
:101350000A22206803F093FB3946206803F0CEFA96
:1013600029460A22206803F093FB2068064903F00F
:10137000CAFA206803689B699847BDE8F0410020DD
:1013800003F00CBF84EE00085BFB0008F0B587B0EB
:101390000025044600920F4616461C491A462C2387
:1013A000FFF7C6FF0095019520461949194A2B46BB
:1013B000FFF767F9012802D04FF0FF3422E02068E0
:1013C0003946036832469B689847206803689B69E2
:1013D00098470095019520460F490E4A2B46FFF786
:1013E00050F90128E8D12046FEF76CFF216803A8D8
:1013F0000A2203F079FB03A803F047FE044603A882
:1014000003F09AFB204607B0F0BD00BFF0F20008E1
:101410005EF40008A7F50008FAF2000870B504466B
:1014200000200E46154603F0B9FE2069FFF702FAC8
:10143000206931462A46237DFFF7A8FF70BD0000D2
:1014400070B58D680E460135284604F0EFFF04465E
:101450000023304621462A4603F0F8FC21462A465E
:101460000348FFF7DBFF204604F0E8FF012070BDD2
:10147000D81100202DE9F04186B0002504460091E6
:101480002C232F491646FFF753FF00950195204660
:101490002C492D4A2B46FFF7F4F801284BD1204662
:1014A000FEF710FF2046FEF70DFF21682C2203A84F
:1014B00003F01AFB03A803F0E8FD074603A803F0B6
:1014C0003BFB04EB860603A821680A22D6F80480B9
:1014D00003F00AFB03A803F0D8FDA8F8160003A840
:1014E00003F02AFBBD421ED020680368DB689847E2
:1014F00010B903F053FEF7E7206803681B699847AB
:1015000073685FFA80FED3F8A010D3F8A4004A1CD9
:1015100002F07F02824204D0194481F820E0C3F82F
:10152000A0200135DEE70023009301932046074900
:10153000054AFFF7A6F8284606B0BDE8F08100BFCF
:1015400009F3000861EE0008A7F5000851EE000855
:101550002DE9F74F044600208946019203F01EFE54
:101560002069FFF767F90025019B9D4245D2019B49
:1015700004F1200B5846C5EB0308FFF77FF94045FF
:1015800038BF8046B8F1000F24D04746CA465846B7
:10159000FFF774F910B9C1444544E5E7D4F8A43025
:1015A000C3F18006B742B8BF3E468642A8BF064692
:1015B0000BEB030150463246009305F017FA009BEF
:1015C000BF1B03EB060C0CF07F02C4F8A420B2444E
:1015D000E1D0DCE72069FFF72DF9E38A6BB1D4F89D
:1015E000A420D4F8A0302069D11A0029D8BF8031B6
:1015F0000139227DFFF73EFFB6E7284603B0BDE87C
:10160000F08F000073B50024254D264E2346224658
:1016100021460094244803F031F9314605F11000C9
:101620002C706C70AC70EC706C60AC60EC6003F0B3
:10163000C5FA314605F11C0003F0C0FA314605F148
:10164000280005F1340603F0B9FA2146304610228D
:1016500005F0A8FA154A05F1480392E80300144A78
:1016600083E80300284613496E6403F0B9FE124A6A
:10167000124B4FF47A711360114B996011495C6001
:1016800019600121C3F8A440C3F8A0401A6119757C
:10169000DC829C611C775C77936002B070BD00BFF8
:1016A000981200205DFB0008D011002048EE0008D1
:1016B000080000202F020008801200203C130020A8
:1016C000D811002010EE00082DE9F043C5788FB046
:1016D0000446002D40F0A781694908A803F06EFA7E
:1016E00008A90BA803F0ADFA66490BA803F055FB57
:1016F0000146654803F0FAF80BA803F01DFA08A8A4
:1017000003F01AFA61485F4941F27072FEF7A2FFD6
:10171000B0B95F495C4803F01BF942F2107003F066
:101720003DFD6368E57001330A2B01D863607AE1FF
:101730006560657025705748FFF7FCFAA57072E187
:101740005549514803F004F9524E0123E3705349BF
:1017500065604D4803F0FCF83046FFF7A9FB50499F
:10176000E06008A803F02AFA08A90BA803F069FAB8
:10177000E1680BA803F023FB0146434803F0DEF8C1
:101780000BA803F0D9F908A803F0D6F904F1100862
:101790000BA83146FFF7BEFB0BA9404603F05BFAEE
:1017A0000BA803F0C9F93F490BA803F007FA41461B
:1017B0000BA803F0E5FA0146334803F0BFF80BA885
:1017C00003F0BAF930463849FFF784F800950195DF
:1017D00030463649364A2B46FEF753FF012804F1BE
:1017E0001C0704D008A8334903F0E8F916E00BA859
:1017F00031680A2203F078F92F492D4A2B460095CB
:1018000001953046FEF73DFF0BA803F014FC08A835
:101810000BA903F082F90BA803F08EF908A938464A
:1018200003F019FA08A803F087F924490BA803F07C
:10183000C5F939460BA803F0A3FA0146124803F094
:101840007DF80BA803F078F9A37804F12806002BA3
:101850006CD0DFF84090002548461949FFF73AF868
:1018600000950195029548461649174A104BFEF718
:1018700075FE01282AD008A80E4903F09FF93DE023
:1018800016F3000856EE00080C130020D8110020B3
:101890002CF30008801200204DF300086DF30008BF
:1018A000D7F1000882F3000888F300088FF30008DE
:1018B000A7F500085DFB000851EE000899F3000849
:1018C000A2F30008084C0100ACF300080BA8D9F8FB
:1018D00000100A2203F008F95549564A2B46009594
:1018E00001954846FEF7CDFE0BA803F0A4FB08A81F
:1018F0000BA903F012F90BA803F01EF908A9304652
:1019000003F0A9F908A803F017F94B490BA803F055
:1019100055F931460BA803F033FA0146474803F066
:101920000DF80BA803F008F90023A37044494348BD
:1019300003F00EF805A800F097FC424A0BA805A991
:1019400000F0A4FDE1680BA800F084FD0BA800F0F6
:1019500061FC3D4A0BA805A900F098FD41460BA883
:1019600000F090FD0BA800F055FC384A0BA805A923
:1019700000F08CFD39460BA800F084FD0BA800F0A8
:1019800049FC334A0BA805A900F080FD31460BA89D
:1019900000F078FD0BA800F03DFC2E49274802F02E
:1019A000B2FF0BA805A900F079FC0BA9234802F0AF
:1019B000E3FF0BA800F02EFC05AA08A8264900F0BA
:1019C0000AFC26490BA803F0F9F808A90BA803F0B4
:1019D000D7F90146194802F0B1FF0BA803F0ACF8A3
:1019E00008A90BA803F02DF90BA92046FFF728FD45
:1019F0000BA803F0A1F8404603F01DFB384603F0A6
:101A00001AFB304603F017FB15490C4802F0A0FF03
:101A100014490A4802F09CFF08A803F08DF805A8B5
:101A200000F0F8FB012528460FB0BDE8F08300BFA9
:101A300051EE0008A7F50008B5F300080C130020CC
:101A4000BEF30008D0F10008C6F300088AF30008CE
:101A5000CBF30008CFF30008F0120020E2F30008F7
:101A6000FEF300085DFB00082DE9F0417A4F92B0CB
:101A700004467A483D68FEF7C8FB002800F035822E
:101A80003B685B1BB3F5FA6F80F02F8274490CA89A
:101A900003F094F80CA90FA803F0D3F86E4B0FA82D
:101AA0001968491B03F09FF96E4903F076F9014666
:101AB0006D4802F043FF0FA803F03EF80CA803F0B6
:101AC0003BF8FA2003F06AFB6448FEF7DFFE0028CB
:101AD000CFD00A226846614903F006F863490FA88F
:101AE00003F06CF869460FA803F04AF901465E4816
:101AF00002F024FF0FA803F01FF868465C4903F0CA
:101B00007CF9002840F0EA8103A85A496A4600F0AF
:101B10005BFB0FA8574903AA00F064FB0FA85649C6
:101B200003F06BF905460FA803F006F855B15349C9
:101B30004D4802F00DFF03A800F06CFB684602F070
:101B4000FBFFD2E14E490FA803F038F803AA0CA816
:101B5000484900F047FB0CA90FA803F011F9014612
:101B6000414802F0EBFE0CA802F0E6FF0FA802F0DD
:101B7000E3FF03A8434900F0C1FBF8B1414A03A9C0
:101B80000FA8A56000F082FC0FA800F075FB3E498D
:101B90000144354802F0DCFE0FA800F03BFB03A92E
:101BA000384A0FA800F072FC0FA800F06EFB0FA8D7
:101BB00000F030FB2C48354902F0CAFE03A8344936
:101BC00000F09CFB002800F0DC803249264802F03F
:101BD0009AFE03A92E4A0FA800F058FC0FA800F0A7
:101BE00054FB60640FA800F015FB0025636C5B5D7F
:101BF000312B07D125B1012D16D1042000210AE097
:101C000003200BE0302B0BD11DB1012D0CD1042092
:101C100004E00320012103F0ABFA05E02946FAE7CE
:101C200011481D4902F094FE0A20013503F0B6FA6E
:101C3000102DDBD104F134082A464046302104F04F
:101C4000B1FF2646002596F8480003F07BFA28BB32
:101C5000631931222AE000BFF4130020D8110020BC
:101C6000F7F400080FF500080C1300201DF400081D
:101C70005DFB0008F012002022F400082CF400089C
:101C800060F4000879F400087EF4000893F400087A
:101C9000B4F40008BCF40008D2F4000896F8480038
:101CA00003F050FA012803D16319302283F834205D
:101CB0000135022D06F10406C5D106A800F0D4FABC
:101CC00004F110050FA88A49FFF724F90FA9284647
:101CD00002F0C1FF0FA802F02FFF864A0FA806A945
:101CE00000F0D4FB29460FA800F0CCFB0FA800F0B1
:101CF00091FA2946804802F021FE414609A802F0E7
:101D00005DFF7E4A0FA806A900F0C0FB09A90FA835
:101D100000F0B8FB0FA800F07DFA09A9764802F0A0
:101D20000DFE7749744802F0EEFD0FA806A900F0F9
:101D3000B5FA0FA9704802F01FFE0FA800F06AFA6A
:101D400006AA0CA86F4900F046FA6F496A4802F0EB
:101D5000DAFD0CA9684802F0F1FD0CA90FA802F009
:101D600070FF0FA92046FFF76BFB0FA802F0E4FEFF
:101D70000CA802F0E1FE09A802F0DEFE06A800F0C1
:101D800049FA03A8614900F0B9FA002800F0A380DD
:101D900003A95E4A0FA800F079FB0FA800F06CFAC7
:101DA00005460FA800F036FA03A8594900F0A6FA34
:101DB000002800F0908003A9554A0FA800F066FBA8
:101DC0000FA800F059FA06460FA800F023FA012EDA
:101DD0000ED1022D09D0FF2D03D0012D1AD10320E1
:101DE00004E00320002103F0C3F9042000210FE0E8
:101DF00086B9022D0AD0FF2D04D0012D0AD103206F
:101E0000294605E00320012103F0B2F90420012155
:101E100003F0AEF909A800F027FA04F110080FA8A2
:101E20003349FFF777F80FA9404602F014FF0FA8D7
:101E300002F082FE2F4A0FA809A900F027FB4146B5
:101E40000FA800F01FFB0FA800F0E4F92F4A0FA81D
:101E500009A900F01BFB29460FA800F0FBFA0FA808
:101E600000F0D8F92A4A0FA809A900F00FFB314663
:101E70000FA800F0EFFA0FA800F0CCF920491E4897
:101E800002F041FD0FA809A900F008FA0FA91A48AD
:101E900002F072FD0FA800F0BDF909AA0CA81949BB
:101EA00000F099F91849144802F02DFD0CA91248C8
:101EB00002F044FD0CA90FA802F0C3FE0FA92046B2
:101EC000FFF7BEFA0FA802F037FE0CA802F034FEAE
:101ED00009A800F09FF903A800F09CF9684603F0F8
:101EE000AAF8684602F028FEC3E512B0BDE8F0810A
:101EF00080120020C6F300080C130020B4F4000880
:101F0000D9F40008F0120020E2F30008EDF4000814
:101F1000F3F4000870B542498AB00446414802F023
:101F200017FD414B1A78002A73D0E278002A70D04E
:101F3000002604F1340501A81E7000F095F9314621
:101F40001022284604F02EFE384A07A801A900F006
:101F50009DFA04F1100107A800F094FA07A800F018
:101F600059F9334A07A801A900F090FA294607A8B1
:101F700000F07DFA07A800F04DF92E49294802F03B
:101F8000C2FC07A801A900F089F907A9254802F0B9
:101F9000F3FC07A800F03EF901AA04A8264900F0C6
:101FA0001AF926491F4802F0AEFC1E4804A902F0A7
:101FB000C5FC2348FEF729F950B104A907A802F08F
:101FC00040FE204807A9FFF73BFA07A802F0B4FD3E
:101FD0001D49144802F0BCFCA3681C490133A360EE
:101FE000104802F090FC0F48A1680A2202F059FD47
:101FF000A368092B07D9E2780023A3601AB1E37024
:102000000F48FEF77FFB04A802F096FD01A800F040
:1020100001F90F49034802F09BFC0AB070BD00BFF4
:1020200012F500080C130020CC110020C6F30008A4
:10203000B4F40008D9F40008F0120020E2F300081C
:10204000D81100209812002037F500086BF5000821
:1020500083F500080E4B10B51A680E4C22F0E062B2
:1020600042F000721A60204600F078F8204600F036
:1020700088F84FF41651084802F050FB0748FEF765
:1020800055FDFEF775F8BDE81040FEF78BB800BFB0
:1020900004000140EC1200200C13002098120020D4
:1020A00010B5254986B0254802F052FC2448FEF7B9
:1020B000C3FD244C24492060684602F07FFD694638
:1020C00003A802F0BEFD216803A802F082FE1F49AA
:1020D00002F063FE0146194802F030FC03A802F04A
:1020E0002BFD684602F028FD1548FEF7E3FD10B908
:1020F000124817490FE01248FFF7E0F810B90F48EF
:10210000144908E00E48FEF7B3FE0D48FFF7DCFA6D
:1021100020B90A48104902F01BFC0BE00848FFF701
:10212000A3FC0748FEF70AFB0548FFF7F3FE64200F
:1021300003F034F806B010BDB5F500080C1300200C
:1021400098120020E8120020BAF50008CBF500082C
:10215000CEF50008EEF500080EF6000808B50320DD
:10216000002102F0A1FF0420002102F09DFF0F20BA
:10217000002102F099FFBDE808400520002102F08F
:1021800093BF08B50520012102F0F2FF03200121D1
:1021900002F0EEFF0420012102F0EAFFBDE8084052
:1021A0000F20012102F0E4BF014B0360704700BF24
:1021B00040F6000810B5034B0446036002F072FFBE
:1021C000204610BD40F6000810B51146044600F048
:1021D000A5F8204610BD10B51146044600F0ACF835
:1021E000204610BD10B51146044600F0C3F8204645
:1021F00010BD00000348044B0449054A036003F086
:10220000EFB800BFF012002040F60008A921000836
:102210000800002038B5064B04460360406820B132
:10222000A56815B900F0D6FD6560204638BD00BF31
:1022300050F6000810B50446FFF7ECFF204602F008
:1022400031FF204610BD406838B50D4658B100F04A
:10225000DBFF04462146284602F055FB0546204692
:1022600001F0E2F8284638BD024A026000224260CE
:102270008260704750F6000810B50446406801F0CF
:10228000B6F808B16368586910BD10B504464068D7
:1022900001F0B4F808B16368186910BDB0B5044620
:1022A00000AF48680D4601F0B7F820B9124B6060E6
:1022B0002360A0601CE0686800F0A9FF83000A3377
:1022C00023F00703ADEB030D6B6801469A6868467F
:1022D00000238B4205DA156A40F823501268013357
:1022E000F7E701F047F8044B606023600023A36028
:1022F0002046BD46B0BD00BF50F6000838B50446C4
:1023000040680D4601F088F830B16068294600F059
:1023100086FF003018BF012038BD000010B504460C
:10232000086800F06DFF034B606023600023A3602A
:10233000204610BD50F6000830B5496885B0044607
:1023400011B902F03BFC11E0084600F05DFF0546C4
:10235000294601A802F032FC284601F065F8204623
:1023600001A902F0DAFB01A802F0E6FB204605B065
:1023700030BD000038B54D680446002D31D02846E8
:1023800001F021F800282CD1284601F023F810B1E3
:102390002046174927E0284601F023F810B12046CF
:1023A000144920E0284601F022F810B120461249D5
:1023B00019E0284601F022F810B120460F4912E03A
:1023C000284601F022F810B120460D490BE02846BE
:1023D00001F022F810B120460A4904E020460A49DB
:1023E00001E00A49204602F0E9FB204638BD00BF63
:1023F00060F6000868F600086DF6000874F600083C
:102400007BF6000881F6000888F6000822F4000830
:1024100038B5456804464160DDB18068A0B100F080
:10242000FBFF30B1A068296A6268BDE8384001F05E
:1024300029B8A06800F0E9FF58B1A0682946626891
:10244000BDE8384000F0EEBE2846BDE8384000F058
:10245000C1BC38BD10B50446084603F019F900F0B8
:1024600023FF01462046BDE81040FFF7D1BF10B55D
:102470000446084600F04CFF01462046BDE81040E7
:10248000FFF7C6BF0968FFF7F2BF000070B5054649
:1024900048680C46164600F0BFFF28B900F05EFF02
:1024A00001462046FFF7B4FF6068314600F0B7FEF2
:1024B00018B96068314600F0E3FE6368024A68605C
:1024C0002A60AB60284670BD50F600080448054BF2
:1024D00005490360054A00234360836002F080BF22
:1024E000F412002050F60008152200080800002011
:1024F00010B500221346815CA1F13004092C01D8EB
:10250000303B0AE0A1F14104052C01D8373B04E03F
:10251000A1F16104052C0AD8573B032A0B4402F1B0
:10252000010218BF1B01042AE5D1184610BD002086
:1025300010BD2DE9F0470B688A688146551C9E182E
:102540009A5C8846222A1D4440F0CA804C682F4677
:102550000022F91AA14280F0C3803978222909D0DB
:102560005C2905D10137F91AA14280F0B980013206
:102570000137EEE7C2F10102B81BD8F81030104461
:1025800098478246002800F0AB800446BD4280F0A8
:102590008B802B785C2B03D0237001350134F5E759
:1025A0007A1B002A40F390806B78662B19D00CD8E8
:1025B0002F2B17D002D8222B14D085E05C2B11D002
:1025C000622B40F0818008230CE0722B0ED003D8E0
:1025D0006E2B79D10A2305E0742B09D0752B09D015
:1025E00072E00C232370013402235BE00D23F9E732
:1025F0000923F7E7052A67DDA81CFFF779FFA0F597
:102600005C43B3F5806F06465ED3A0F55843B3F53F
:10261000806F1CD2AB1DFB1A052B55DDAB795C2BF3
:1026200052D1EB79752B4FD105F10800FFF760FF10
:10263000A0F55C43B3F5806F46D2C0F30900C6F342
:10264000090640EA862606F580360C2306E07F2838
:102650004FF006030BD9B0F5006F0BD3B6F5803FF2
:102660000BD3B6F5881F2FD2F021042207E00021FA
:10267000012204E0C021022201E0E0210322501ED9
:10268000C0B240B106F03F0C6CF07F0C04F800C003
:10269000B6090138F4E7012A14BF0E4306F07F069D
:1026A000267014441D4471E7002323701023C9F8D9
:1026B0000C30D8F80030C9F810A0FB1A0133C8F864
:1026C00008300120BDE8F087D8F81430504698470C
:1026D000D8F80030ED1AC8F808500020BDE8F0879F
:1026E000002DF5D1F9E710B590B102687AB14168D3
:1026F00083688B4202D38B4206D010BDD45C202C61
:10270000F9D801338360F3E7013B836010BD1046C5
:1027100010BD61B160B183680BB9816005E01A68D2
:102720000AB11346FBE719604B6001207047084669
:10273000704738B5044638B1006828B1A568284408
:1027400004F0C4FE2844A06038BD70B504460028DB
:102750003ED0006800283DD0636813B1A2689A4259
:1027600037D2002935DBA268561C0E449E4201D8A0
:10277000104470BD2369002B2BD1B6F1804F06D3D6
:10278000002EA8BF6FF0004602DA184670BD760032
:10279000236A23B1314698470546A0B904E0A369EE
:1027A00030469847054630B92068E3699847656028
:1027B0002560284670BDA2682168013204F016F930
:1027C000E36920689847A06884E86000284470BDE9
:1027D00070BD002070BD00002DE9F8430746084693
:1027E00011B90020BDE8F88317B13A4600250DE085
:1027F0000321FFF7AAFF0028F3D0384904F008FEB0
:1028000068E00D2B0DD80C2B06D30135904612F83D
:10281000013B002BF5D10CE0A3F10801022904D8FB
:10282000F3E7222BF1D05C2BEFD01F2B98BF05359F
:10283000ECE7C7EB0808A84408F10301FFF785FFA0
:1028400006460028CDD04FF02209013086F80090CE
:1028500045B946443946424604F0C8F886F8019026
:10286000B57037E0044617F8013B7BB31F2B06D940
:10287000222B04D05C2B02D02370204624E05C2362
:10288000237017F8012C601C0C2A12D007D8092AD3
:1028900013D00A2A0FD0082A12D162230EE0222A6E
:1028A00005D05C2A03D00D2A0AD1722306E062709B
:1028B0000AE0662302E06E2300E07423637003E005
:1028C000074904F0B7FB601D441CCCE746442222B4
:1028D0007270B3700120BDE8F88300BF90F6000865
:1028E00093F600082DE9F8430D4600284CD0002946
:1028F0003FD084685AB9254B1E680EE0216A002932
:102900003DD0284604F066FC002838D02468002C0E
:10291000F4D131E0206A18B92468002CFAD12BE0F8
:1029200085422CD000216B5CF21892F801C0425C09
:102930000CF0030CB7187F78BCF1010F07F0030708
:102940000CBF03F120099946012F0CBF02F12008AA
:102950009046C14503D10131002BE4D10FE0BCF119
:10296000010F08BF2033012F08BF20329342D3D17B
:1029700005E00846BDE8F8832046BDE8F883236AF1
:10298000002B14BF20460020BDE8F8830409002076
:1029900010B5034628209847044618B10021282284
:1029A00004F000F9204610BD2DE9F0410E468AB032
:1029B0000546002800F08081002900F07D81047B1D
:1029C000082C39D007DC022C2BD0042C15D0012C7C
:1029D00040F072811AE0202C00F08B8007DC102C74
:1029E00040F06A810069FFF7F7FE044665E1402C7C
:1029F00000F0C380802C69D05EE108460521FFF716
:102A0000A4FE002800F05881A04912E008460621E3
:102A1000FFF79BFE002800F04F819D4904F0F8FC71
:102A20004BE108460521FFF790FE002800F04481A5
:102A3000984904F0EDFC3DE1D0E906450022002371
:102A40002046294602F08AFE0022002303F0EEF819
:102A500003AF30B938468D4904F0DAFC4FF0040872
:102A60001FE08D4922462B46384604F0E3FA8B4995
:102A700080466A46384604F003FB012806D1DDE9AA
:102A8000000122462B4603F0D1F830B9384684497C
:102A900022462B4604F0CEFA8046B8F1190F00F218
:102AA0000B81304608F10101FFF74FFE002800F0CE
:102AB00003810023434503D0FA5CC2540133F9E794
:102AC0000022C254B2681344B360F3E000690028E6
:102AD00000F0F28004F0FAFC441C21463046FFF777
:102AE00034FE002800F0E8802969224603F07EFFCA
:102AF000E0E0846808460121FFF727FE002800F087
:102B0000DB805B230370B3680133B360F368013388
:102B1000F3603CB320463146FFF746FF002800F043
:102B2000CB803046FFF705FE2368CBB17369304692
:102B3000002B0CBF01250225691CFFF706FE0028AB
:102B400000F0BA802C23037073690BB9431C02E0B8
:102B50002022831C427000221A70B3681D44B560A5
:102B60002468D6E730460221FFF7EFFD002800F089
:102B7000A3805D230370447099E04B698468002B47
:102B80000CBF012502250846691CFFF7DEFD002861
:102B900000F092807B230370F3680133F360736964
:102BA0000BB10A234370B3681D44B5607369002CF0
:102BB00056D083B13046F168FFF7C7FD00287BD0BF
:102BC0000023F268934203D20922C2540133F8E78A
:102BD000B3681A44B260206A3146FFF7FDFD002851
:102BE0006AD03046FFF7A5FD73693046002B0CBF55
:102BF000012502252946FFF7A8FD00285CD03A23CD
:102C0000037073690BB109234370B36820461D44F8
:102C1000B5603146FFF7C8FE00284DD03046FFF7BB
:102C200088FD75692368003518BF0125002B18BF82
:102C300001353046691CFFF788FD00283CD0236829
:102C400013B12C2303700130736913B10A2303708D
:102C5000013000230370B36824681D44B560A5E704
:102C600013B1F168013100E002213046FFF76DFD3C
:102C700010B37369BBB10346F268191A013A914265
:102C800010D2092203F8012BF6E700BF68F600080E
:102C900099F600089FF60008A4F60008ABF60008B5
:102CA000AFF6000818467D23037000234370F368D5
:102CB000013BF360012400E0002420460AB0BDE897
:102CC000F08100BF70B5064668B104F0FFFB074B0A
:102CD000451C1B6828469847044628B131462A46B9
:102CE00003F084FE00E070BD204670BD0C000020A3
:102CF000F8B514460646F8B1F1B1EAB123B1D76888
:102D00000D4647F4007707E00846FFF7DBFF05466E
:102D100090B1E76827F40077E3689B0504D4206A44
:102D200010B1064B5B6898472562E7603046214644
:102D3000BDE8F840FFF7EDBC0020F8BD0C00002016
:102D4000F0B5234C8BB00D4624220021064601A885
:102D500003F028FF23684FF4807098474FF4807287
:102D6000034606950AAD01900292274694E80700B3
:102D700005E9070023B3304601A9FFF715FEF8B1B6
:102D800001A8FFF7D6FCA568039925B10198013188
:102D9000A847D0B914E02368481C9847064678B184
:102DA000039A029B01329A4228BF1A46019903F006
:102DB0001DFE039BF554019863689847304604E074
:102DC000019808B17B68984700200BB0F0BD00BFA8
:102DD0000C00002070B50446E4B1E3682668DA050B
:102DE00003D4A06808B1FFF7F5FFE3680A4D13F4B8
:102DF000807F03D1206908B16B689847E3689B0521
:102E000003D4206A08B16B68984720466B689847DE
:102E10003446E1E770BD00BF0C0000200000000058
:102E20002DE9F047074692B00E46002900F06E816A
:102E30000D68002D00F06C818C68D1F8048004F1DD
:102E40000409C1450AD82819A349042204F06EFBDD
:102E500020B90423FB60C6F808907DE004F1050A60
:102E6000C2450AD828199D49052204F05FFB20B904
:102E70000120F860C6F808A04DE1C1450CD828191A
:102E80009749042204F052FB30B902230120FB6071
:102E90007861C6F808903EE1444580F03B812B5DA7
:102EA0002919222B04D138463146FFF742FB32E183
:102EB0002D2B03D0A3F13002092A51D80022019210
:102EC000C4EB0804A2420DF1080813D08B5C392B27
:102ED00007D8302B09D22D2B07D02E2B05D02B2B2A
:102EE00002E0452B01D0652B04D108F802300132F5
:102EF0003F2AE7D112AB1A444FF0000A404601A91D
:102F000002F840AC05F0B0FDDDF804900446C14580
:102F10000D4623D06EA3D3E90023C7E9064502F08E
:102F2000A3FE10B16FF0004308E0204629460022BE
:102F30006C4B02F08FFE18B14FF000437B6104E050
:102F40002046294602F0A4FE78610823FB60B3689E
:102F5000C8EB09084344B3600120DCE05046DAE0E6
:102F60005B2B50D1F368B3F57A7F80F0D3800133C7
:102F7000F3602B5D5B2B40F0CD800134B4603046B4
:102F8000FFF7B1FBB368726893425BD23268D25CE0
:102F90005D2A2BD0013B4FF00008B36044463069F6
:102FA000FFF7F6FC054648B324B1C8F80000C0F8A6
:102FB000048000E00446B36830460133B360FFF795
:102FC00092FB28463146FFF72BFFD0B13046FFF782
:102FD0008AFBB3687268934213D23268D35C2C2B9D
:102FE00002D05D2B0DD102E0A846D8E70024F3689B
:102FF000013BF3602023FB60BC607FE0002C00F00D
:10300000898020467FE07B2B40F08480F368B3F515
:103010007A7F7FD20133F3602B5D7B2B7AD1013431
:10302000B4603046FFF75FFBB3687268934209D221
:103030003268D25C7D2A5AD0013B4FF00008B36061
:1030400045463AE0013BB36064E0002D3CD0C8F84F
:103050000000C0F80480B36830460133B360FFF766
:1030600042FB20463146FFF764FA00284AD030463A
:10307000FFF739FB23697268236200232361B36879
:1030800093423FD23268D25C3A2A3BD10133B360DB
:103090003046FFF728FB20463146FFF7C1FE0028E7
:1030A00030D03046FFF71FFBB3687268934229D2D5
:1030B0003268D35C2C2B17D1A0463069FFF768FC2F
:1030C00004460028C1D11CE00546C4E7AFF30080E8
:1030D0000000C0FFFFFFDF4168F6000899F6000816
:1030E0009FF600080000E0C17D2B0BD100E0002519
:1030F000F368013BF3604023FB60BD60B3680133BC
:1031000029E73DB12846FFF765FE03E0084602E0E7
:10311000284600E0002012B0BDE8F087AFF3008041
:103120002DE9F04389B004460E46914601A80021DE
:103130001C2203F037FD2F4B00271F605F6098466D
:10314000002C53D02046019404F0C0F92A4B0130E2
:10315000029093E8070008AB03E90700FFF718FCAB
:103160000546002831D0019878B1039B53B9029BE2
:10317000042B09D92149032204F0D8F920B90323EB
:10318000039301E0384600E001A8FFF7ACFA0146DE
:103190002846FFF745FEA8B1B9F1000F05D17EB171
:1031A000039B019A134433600AE001A8FFF79BFADE
:1031B000039B029A934205D2019AD35C13B9EEE7BE
:1031C000284614E02846FFF705FE039B029A934227
:1031D00003D30AB1531E00E013460EB1E218326069
:1031E000C8F80040C8F80430002000E0204609B0CC
:1031F000BDE8F083001300200C000020BFF600089B
:1032000000210A46FFF78CBF0021FFF799BD28B1C6
:103210008368002013B101301B68FBE7704701226F
:10322000FFF760BB10B5E8B1BAB1C1B18A4218D09E
:103230000B684C681360546003B15A60536803B163
:103240001A6083688B424FF0000308BF82600B60F6
:103250004B600846FFF7BEFD03E0104610BD084670
:1032600010BD012010BD000008B5044B1868FFF721
:103270008FFB08B10423C36008BD00BF0C00002011
:1032800070B505460E46FFF7EFFF04463146284667
:1032900022460023FFF72CFD054620461DB9FFF707
:1032A00099FD284670BD70BD174B70B5044618686F
:1032B0000D46FFF76DFB0646F0B10823C360C0E979
:1032C00006450FA3D3E900232046294602F0CCFC93
:1032D00010B16FF0004308E02046294600220B4B56
:1032E00002F0B8FC18B14FF00043736104E02046CF
:1032F000294602F0CDFC7061304670BDAFF300800E
:103300000000C0FFFFFFDF410C0000200000E0C113
:1033100038B50B4B05461868FFF73AFB044660B119
:103320001023C3602846FFF7CDFC054620612046E8
:1033300025B9FFF74FFD284638BD38BD38BD00BF61
:103340000C00002008B5044B1868FFF721FB08B1FA
:103350002023C36008BD00BF0C00002008B5044B4B
:103360001868FFF715FB08B14023C36008BD00BF14
:103370000C0000202DE9F843B1F10009804602DA83
:103380000020BDE8F8830028FAD0FFF7DBFF0646EF
:103390000028F5D000273D464D4511D258F82500AC
:1033A000FFF7B6FF044618B93046FFF713FDE7E70D
:1033B0000DB9B06001E03860476001352746EBE7A2
:1033C0003046BDE8F88320B1007BD0F1010038BF62
:1033D0000020704720B1C06810F0030018BF012022
:1033E000704718B1007B031F58425841704720B105
:1033F000007BB0F1080358425841704720B1007B70
:10340000B0F1100358425841704720B1007BB0F131
:10341000200358425841704720B1007BB0F140036F
:10342000584258417047000008B5024B5B68984706
:1034300008BD00BF0C000020F8B506460D461F462B
:103440001446DAB1E1B1D3689B0503D4106A08B120
:10345000FFF7EAFF2846FFF735FCE368206223F414
:103460000073E36029463A463046FFF73BFA2246AE
:1034700001463046FFF7D6FE0120F8BD1046F8BDE4
:103480000846F8BD0123FFF7D7BF122938B5054616
:10349000144608460BD0132910D0112916D100F07C
:1034A0006DF80CB120460FE047F6FF700CE000F01D
:1034B00065F8002CF6D149F63F4005E000F05EF8D3
:1034C000002CEFD14FF2234000F0E0F8284638BD41
:1034D00013B50022044601A8FFF7D7FF204602B02B
:1034E00010BD0000054B1B681B685B0103F18443A2
:1034F00094331A68002AFCD0704700BF18000020DF
:10350000054B1B681B685B0103F184438C331A680D
:10351000002AFCD0704700BF1800002008B5FFF754
:10352000E1FF054B00221B681B685B0103F184432C
:10353000C3F88C2008BD00BF1800002008B5FFF7B5
:10354000D1FF054B01221B681B685B0103F184431B
:10355000C3F8902008BD00BF1800002008B5FFF791
:10356000C1FF054B00221B681B685B0103F184430C
:10357000C3F8902008BD00BF1800002010B5044615
:1035800000F0C1FA00F0CCFA204A112C136A23F49F
:103590004073136213460BD005D8C4B1102C2AD146
:1035A0000023136227E0122C11D0132C1AD022E032
:1035B000174A00211160012142F8081C154A1268BF
:1035C00012F0FF0FFAD01A6A42F4807212E0124A27
:1035D00001211160114A1268002AFBD01A6A42F4D4
:1035E000007207E00E4A126812F0FF0FFAD01A6A52
:1035F00042F440721A620B4B01221A60FFF78EFFF1
:10360000FFF77EFFBDE81040FFF76CBF00100240DF
:10361000080442420404424280044242840442427A
:10362000440042423C044242F8B5104B1E683568E3
:103630002B686F681F4017F0010403D074680CB149
:10364000A0470124BA0704D5B36813B1984744F0E2
:1036500002047B0704D5F36813B1984744F00404CF
:103660006B6823EA04046C60F8BD00BF18000020FA
:1036700008B5044B1B681B691BB19847024B01221C
:103680001A6008BD18000020C482204210B504460C
:10369000FFF744FFFFF734FFFFF724FFFFF74EFF6C
:1036A000064B220C1B68A4B21B689A60DC60FFF713
:1036B00055FFBDE81040FFF715BF00BF1800002000
:1036C00001498D460149084700500020D1360008C5
:1036D00008B5124B124A1968914201D0002301E04B
:1036E000104B07E01048D4188442F9D2C858D05083
:1036F0000433F7E70D4A934203D2002243F8042B28
:10370000F8E702F061FE00200146024601F0C4FC29
:10371000074B0BB102F048FEFEE700BF7C0001083A
:1037200000000020A8110020A81100200014002093
:10373000A963000808B50D4B1A680AB90C4A1A604B
:103740001B680C4AD21A824204DB09494242591AC8
:10375000914206DA02F022FE0C2303604FF0FF30A4
:1037600008BD024A18441060184608BD081300201E
:1037700000140020083E0128FEE770470B4B10B5EF
:10378000196809220A230A4800F07EFF094B022229
:1037900019680948032300F077FFBDE81040074B84
:1037A000074819681A221B2300F06EBF3C01002055
:1037B0000C130020400100202413002044010020AD
:1037C0003C13002010B5044600F082F9034B20465C
:1037D0001978BDE8104000F017B900BF3400002090
:1037E000F8B50446056800F02BFB22680023510160
:1037F00001F184410B60802129600121A9622B61C4
:10380000EB606379696113B18B4203D02BE04FF415
:1038100000436B644FF6FF73D36200256E1CF7B252
:103820002046394600F016FBD0B1236848F6FF71F8
:1038300003F1340242F8251018336D1017F0010F10
:1038400053F8252014BF6FF0FF016FF47F4101EAA8
:10385000020214BF68214FF4D0410A4343F82520E7
:10386000042E3546DAD1216801224B01490103F1CA
:10387000844301F18441C3F880220A60F8BD00004E
:1038800038B5274B274C1A68022042F010021A6004
:1038900000F04CF90025002000F0DEF96560236897
:1038A000182023F40023236000F0E3F9102000F037
:1038B000E0F900F043F8A560102000F0CDF91020E9
:1038C00000F0F4F90028FAD000F039F8164800F0BA
:1038D000F9F9182000F0C0F9182000F0E7F90028E5
:1038E000FAD0022000F0A8F900214FF0006000F0AB
:1038F00085F90E4800F05CFA00F038F80C4B188897
:1039000000F0D4F80B4800F0D5F80B4800F084FA2A
:1039100000F02EF800F02DF8FFF72FFF38BD00BFA4
:103920000020024000100240380000203F19010032
:1039300036000020C5370008E1370008704708B599
:103940000020014600F00CFA01204FF4806100F0E5
:1039500007FA0021022000F003FA2D2000F010FAEF
:10396000BDE808400320002100F0FAB900F0E8B8F3
:10397000704700F025B900000000000000000000C2
:10398000012007E0022005E0032003E0042001E01D
:103990000520FFE70D4A0121116072B60C4A002193
:1039A0001160074902B4084902B486B005498E4641
:1039B000704700BFAFF30080AFF30080AFF300802B
:1039C00000000061F9FFFFFF4145000814ED00E031
:1039D00010E000E0AFF30080AFF30080AFF30080B1
:1039E000FEE710B50446007900F088F92079BDE8BB
:1039F000104000F09BB903689A6822F4602242F4F8
:103A00008012114399607047002370B51A461C4616
:103A1000072B4FEA430503DCEE1801FA06F63443A0
:103A20001D4401FA05F501330A2B42EA0502EFD1E4
:103A30000368DC601A6170BD38B5124D2A681368DE
:103A40001C68A10706D5196821F002011960936866
:103A500003B19847620708D52B681A681B6911687B
:103A600021F00401116003B19847E30708D52B68E2
:103A70001A68DB68116821F00101116003B19847F1
:103A800038BD00BF64000020036801225B0103F120
:103A9000844303F58673191F1A6018680028FCD147
:103AA00043F8042C0B68002BFCD17047014604201E
:103AB00000F056B9044B10B504461868A047034BF4
:103AC0001868A04710BD00BF6400002060000020FF
:103AD00010B50446FFF785FF20464FF46021FFF73D
:103AE0008AFF2368012103F1404308335A015B0137
:103AF00002F1844203F18443116520461960BDE858
:103B00001040FFF7C1BF08B5142000F0F7F80420FB
:103B100000F0F4F8BDE80840042000F007B9000008
:103B2000014B01221A60704720000E42034B1A68B5
:103B300022F0070210431860704700BF00200240C7
:103B400008B5074801F09DFB064801F09AFB0648BE
:103B500001F097FBBDE80840044801F092BB00BFAC
:103B60006800002070000020780000208000002005
:103B700070B501F00704A4000F25A5400368C8082C
:103B800053F82060092A26EA050514BF16460826C0
:103B900006FA04F4082A44EA050443F8204006D152
:103BA000012000FA01F1DA6822EA010106E0092A9F
:103BB00005D1012000FA01F1DA681143D96070BD26
:103BC00008B5032000F09AF8BDE80840032000F093
:103BD000ADB8000000284FEA011105DA064B00F0ED
:103BE0000F00C9B21954704700F16040C9B200F526
:103BF000614080F80013704714ED00E021F060414F
:103C000038B521F07F01084B0843986000241D4619
:103C100060B20F210134FFF7DDFF2B2CF8D1F02328
:103C200085F8233038BD00BF00ED00E0014B13F8EC
:103C300010007047A2F90008064B5A6822F00302F0
:103C400002435A6080005A6802F00C028242FAD1A4
:103C5000704700BF00100240030A0121C0B201FA00
:103C600000F003F1804303F504331A681043186031
:103C70007047030A0121C0B201FA00F003F180434A
:103C800003F504331A6822EA000018607047030A3B
:103C90000122C0B202FA00F003F1804303F50433BD
:103CA0001B6818420CBF002001207047030A022243
:103CB000C0B202FA00F003F1804303F504331B683D
:103CC0001840704738B54368044618201D68FFF750
:103CD000DEFF20B106488121064A00F03BFC064B7E
:103CE00021685A680D4322F4741215435D6038BD93
:103CF000F8F8000886F900080010024010B50446E4
:103D0000FFF794FF074B53F82020074B03EB4404C5
:103D1000637803EBC2039B0003F1844301221A6022
:103D200010BD00BF88000020A2F9000810B50446AD
:103D3000FFF77CFF084B53F82020084B03EB4404AB
:103D4000637803EBC2039B0003F1844301221A60F2
:103D500000221A6010BD00BF94000020A2F90008E4
:103D600010B5054B054C5A6854F8200022EA0002B1
:103D70001143596010BD00BF0010024000FA000856
:103D800010B50446FFF752FF074B53F82020074BAE
:103D900003EB4404637803EBC2039B0003F1844309
:103DA00000221A6010BD00BF9C000020A2F900088C
:103DB000024B072258601A60704700BF10E000E015
:103DC00008B5044B1A6801321A60034B1B6803B133
:103DD000984708BDF41300205413002011F0010F80
:103DE00070B542EA03030CBF0825002503FA05F568
:103DF000006801F1FF3400F11800C4F3400450F8EA
:103E0000241014BF6FF0FF066FF47F463140294342
:103E100040F8241070BD000010B504460448A047C7
:103E20000448A0470448A0470448A04710BD00BF6D
:103E3000F000002018010020A8000020CC00002085
:103E400010B504460079FFF759FF2079BDE810400E
:103E5000FFF76CBF38B54B1E032B0D46047905D90F
:103E60000E4840F203110E4A00F074FB1E2C10D9CC
:103E7000212C0ED0202C0ED9222C01D0252C04D19F
:103E8000022D8CBF0020012038BD6B1E58425841C6
:103E900038BD012038BD002038BD00BF14FA00082D
:103EA00067FA00088B1C40F823200368012203F105
:103EB00040430C3301EBC3039B0003F184431A60BE
:103EC000427903791ABBB3F11A02534253410729CD
:103ED00019D8DFE801F004090909090E0E13002BB7
:103EE00014BF19232C233BE0002B0CBF2E231B23D4
:103EF00036E0002B0CBF2D231A2331E0002B0CBF22
:103F00002B2318232CE01B4840F28F1122E01B3B8F
:103F10000C2B1CD8DFE803F0212307090B0D1B0F26
:103F20001113151719001E231AE0322318E0362347
:103F300016E0372314E0182312E0192310E01A23A7
:103F40000EE02B230CE02C230AE02D2308E0094887
:103F500040F2BF11084A00F0FDBA1C2300E01D2307
:103F60005909012203F01F0302FA03F3034A42F83E
:103F70002130704714FA0008BCEF000800E100E0AF
:103F80000368002203F140430C3301EBC3039B00A1
:103F900003F1844302311A6040F821207047000089
:103FA000F8B54E1EF3B2032B04460D46174604D94E
:103FB0002A48DA212A4A00F0CDFA6379022B04D18B
:103FC0002648DD21274A00F0C5FA6379022B43D049
:103FD000032F41D8DFE807F0021222352046294698
:103FE000FFF7CEFF236803F140432033DB0003EBF0
:103FF0008606B60006F18446002320E023680022EE
:1040000003F140430C3305EBC3039B0003F18443EE
:104010001A60204629466022082303E020462946EC
:1040200010220023FFF7DAFE236803F14043203318
:10403000DB0003EB8606B60006F1844601233360FD
:10404000F8BD23684FF2F1229A6103229A605B0166
:1040500003F1844301221A60F8BD00BF14FA00087E
:1040600088FA0008A4FA000810B5074B1C68E1683C
:1040700022690A40120606D55B6A23B19847236974
:1040800023F08003236110BDF000002010B5074B22
:104090001C68E16822690A40D20706D59B6823B1F3
:1040A0009847236923F00103236110BDF00000202D
:1040B000F8B50C4F3D68EB682E691E4016F04004C1
:1040C00003D03C6A0CB1A0474024B30604D5FB6979
:1040D00013B1984744F020042B6923EA04042C61AF
:1040E000F8BD00BFF0000020F8B5134F3E68F3683C
:1040F00035691D4015F0100403D0BC690CB1A04710
:104100001024290704D57B6913B1984744F00804AB
:104110006A0704D53B6913B1984744F00404AB0720
:1041200004D5FB6813B1984744F00204336923EACD
:1041300004043461F8BD00BFF0000020F8B51A4E49
:104140003768FB683D691D4015F0400403D0346AB0
:104150000CB1A0474024EB0604D5B36913B19847CE
:1041600044F01004280704D5736913B1984744F04C
:104170000804690704D5336913B1984744F004046F
:10418000AA0704D5F36813B1984744F00204EB077B
:1041900004D5B36813B1984744F001043B6923EA9E
:1041A00004043C61F8BD00BF18010020F8B51A4EA8
:1041B0003768FB683D691D4015F0400403D0346A40
:1041C0000CB1A0474024EB0604D5B36913B198475E
:1041D00044F01004280704D5736913B1984744F0DC
:1041E0000804690704D5336913B1984744F00404FF
:1041F000AA0704D5F36813B1984744F00204EB070B
:1042000004D5B36813B1984744F001043B6923EA2D
:1042100004043C61F8BD00BFA8000020F8B51A4EA8
:104220003768FB683D691D4015F0400403D0346ACF
:104230000CB1A0474024EB0604D5B36913B19847ED
:1042400044F01004280704D5736913B1984744F06B
:104250000804690704D5336913B1984744F004048E
:10426000AA0704D5F36813B1984744F00204EB079A
:1042700004D5B36813B1984744F001043B6923EABD
:1042800004043C61F8BD00BFCC00002081880268B6
:10429000034689B2505C99881A8989B292B29142D8
:1042A00017BF9A880022013292B2C0B29A8070473A
:1042B000C28838B5838892B29BB201329A420446D2
:1042C0000D461AD0C288038992B29BB29A4202D19B
:1042D00083889BB28BB14FF0FF30E288236892B2A3
:1042E0009D54E288238992B29BB29A4217BFE38819
:1042F000002301339BB2E38038BD2046FFF7C6FFA1
:10430000EBE770B51E460546084611460422059C9B
:10431000FFF72EFC9DF810100B223046FFF728FC0B
:104320002B6804F00F01DA6804F0300422F4F05234
:104330001204120C42EA4122DA601A6922F4405255
:104340001204120C42EA04241C6170BD70B50546CB
:1043500016460C4641B900F0A1F8044620B90E48B3
:10436000AE210E4A00F0F6F819235C43B600642330
:10437000B4FBF6F4B4FBF3F21201110903FB114490
:1043800024013234B4FBF3F303F00F0329681A431A
:1043900092B28A6070BD00BFBDFA000813FB00082E
:1043A00038B5114DEB68980607D52B68990604D5EA
:1043B00069680E48C9B2FFF77BFFEB680A4C1A0622
:1043C00011D523681B060ED509488288C38892B28E
:1043D0009BB29A4203D0FFF759FF606038BDE36893
:1043E00023F08003E36038BD0038014064130020EF
:1043F0005813002038B5114DEB68980607D52B6887
:10440000990604D569680E48C9B2FFF751FFEB68F9
:104410000A4C1A0611D523681B060ED50948828856
:10442000C38892B29BB29A4203D0FFF72FFF60601D
:1044300038BDE36823F08003E36038BD00440040EA
:10444000701300208813002038B5114DEB689806D2
:1044500007D52B68990604D569680E48C9B2FFF7DD
:1044600027FFEB680A4C1A0611D523681B060ED5E8
:1044700009488288C38892B29BB29A4203D0FFF760
:1044800005FF606038BDE36823F08003E36038BD5A
:10449000004800407C1300209413002008B590F8D9
:1044A0009002FFF7C3FB20B10128034818BF00208A
:1044B00008BD024808BD00BF00A24A040051250201
:1044C00013B504468DF8071020460DF107010122AF
:1044D00000F016FF0028F7D002B010BD38B5054631
:1044E0004C1E14F8011F19B12846FFF7E9FFF8E741
:1044F00038BD000008B5114B01211C68032220467D
:10450000FFF736FB002301211A469342206834BF8F
:1045100002254FF40035B2F5007F056103F1010378
:1045200003D0002A08BF012101E04FF0FF31B3F5AD
:10453000007F04BF52180023E7E700BFF4F800082B
:1045400008B5034B0BB1AFF3008062B6FFF7D2FFA3
:1045500000000000F8B5144B06460D4617460BB395
:10456000AFF3008011490446FFF7B8FF20463946F3
:10457000FFF7B4FF20460E49FFF7B0FF2046314653
:10458000FFF7ACFF20460B49FFF7A8FF204629465E
:1045900000F004FF20460A21FFF792FF20460D217C
:1045A000FFF78EFFFFF7CCFF000000001FFB0008A5
:1045B00035FB000836FB000803695B68D9889A88D8
:1045C00089B292B2D8888A1A998880B289B2884210
:1045D00003D2198989B201310A4492B282B1998811
:1045E0001A6889B2505C99881A8989B292B291424C
:1045F00017BF9A880022013292B2C0B29A807047E7
:104600004FF0FF30704703695B689988DA8889B298
:1046100092B2914205D09A881B6892B2985CC0B25F
:1046200070474FF0FF30704703699A689088D188CF
:1046300080B289B28842F9D11A6813685B06FCD54A
:10464000704713B504698DF8071020460DF1070176
:10465000012200F055FE0028F7D0012002B010BD65
:1046600003695B68D8889A8880B292B2D988801A28
:104670009A8889B292B2914203D21B899BB20133CC
:10468000184480B27047000030B5002545604FF4F3
:104690007A758560024D016105600275437530BD14
:1046A00068FB000803692DE9F74FDB68044699426F
:1046B0000F4692462CD890F81480174D4FEA0818F0
:1046C00008EB050690F8159070684FEA091909EB98
:1046D000050B717B10B10022FFF762FC206900F02E
:1046E000DBFD337B9BF80C2020698DE8080459F82A
:1046F000051058F80530FFF704FE206900213A46FE
:10470000FFF724FE206903B0BDE8F04F00F0EEBDD6
:1047100003B0BDE8F08F00BFC4F600080022FFF729
:10472000C1BF0000044B02791B789A4202D1034BAF
:104730001B681860704700BFB0130020B41300203E
:10474000002310B50446036072B6094B1931197085
:10475000084B18600848FFF75FFB62B6236823B96F
:1047600006484321064AFFF7F5FE204610BD00BF6C
:10477000B0130020B41300202547000888FB000870
:10478000DCFB0008036800221B685B0103F1844323
:104790001A607047036801221B685B0103F18443C0
:1047A0001A607047036801391B6889B299627047C3
:1047B00003681B68DA6A92B2914228BF11465962B7
:1047C000704738B5054639B9036801221B689962FC
:1047D000DA62D86A80B238BD48244C434FF6FF7184
:1047E000B4FBF1F1013189B204EB5104B4FBF1F4F3
:1047F000FFF7D8FF2B68A4B21B682046DC6238BDE7
:104800000068C9B2FFF74EBB08B501210848FFF7A1
:1048100097FF02210748FFF793FF03210648FFF7A0
:104820008FFFBDE8084005480421FFF789BF00BF9E
:10483000A0130020A4130020A8130020AC13002014
:104840002DE9F041002407460E4625463B1919790B
:104850000A22304600F013F92E218046304600F03F
:104860004DF801344044032C0544EFD13046F9792A
:104870000A2200F004F92844BDE8F08130B58371C4
:10488000034D9DF80C30056001714271C37130BD5C
:10489000F8FB0008044B054A1A6000221A715A718D
:1048A0009A71DA71704700BFB8130020F8FB000856
:1048B00070B505460E460024315D29B12A682846A8
:1048C000126890470134F7E7204670BDF8B50546F9
:1048D0000C4616468F18BC4206D02B6828461B682B
:1048E00014F8011B9847F6E73046F8BD10B502688A
:1048F0000B46946809689A68A04710BD08B503681C
:104900001B68984708BD08B503685B68984708BDF1
:10491000FFF7F9BF10B50A68044612680846214639
:10492000904710BD38B50D210546FFF7E7FF0A2176
:1049300004462846FFF7E2FF204438BD38B5044658
:10494000FFF7D4FF05462046FFF7ECFF284438BDAB
:1049500038B50446FFF7D7FF05462046FFF7E2FFCC
:10496000284438BD38B50446FFF7CDFF054620463C
:10497000FFF7D8FF284438BD38B50446FFF7CAFF13
:1049800005462046FFF7CEFF284438BD2DE9F04FFD
:1049900014461D4691B054EA050381469DF868B05F
:1049A00004D13021FFF7AAFF01202EE04FF00008CC
:1049B0005FFA8BF600272046294632463B4601F037
:1049C000DFF908F101080DF1000AC2440AF8012CD0
:1049D000204629463B46324601F0D2F904460D46B0
:1049E00054EA0503E4D1002408F1FF381DF808104B
:1049F0004846092994BF30313731C9B2FFF77EFFED
:104A00000444B8F1000FEFD1204611B0BDE8F08F9B
:104A10002DE9F041069F064614461D462FB903684E
:104A2000D1B21B689847BDE8F081002C75F10003F6
:104A300005DA2D21FFF762FF644265EB4505FFB201
:104A40000697304622462B46BDE8F041FFF79EBF51
:104A500007B5CB1700920A46FFF7DAFF03B05DF8FF
:104A600004FB70B5049921B90368D1B21B6898475B
:104A700070BDC9B20491BDE87040FFF787BF07B5AC
:104A800000230092CAB2FFF7ECFF03B05DF804FB0D
:104A900007B5002300920A46FFF7E3FF03B05DF875
:104AA00004FB38B50446FFF7F3FF05462046FFF741
:104AB00039FF284438BD000038B50A4B04461A684F
:104AC0001D46C2602268204613699847002807DA0D
:104AD000E2682B689B1AA2689342F3D34FF0FF3031
:104AE00038BD00BFF413002070B50D4609490446D7
:104AF000164600F063F82846FFF7DEFF014600295E
:104B0000204605DBB14203D0C9B200F0E8F8F2E775
:104B100070BD00BF5DFB000870470022026010B549
:104B20000C68426004604C68826044608C688460F9
:104B30000A604A608A6010BD10B50446006801F042
:104B40007DFC204610BD10B50446006808B101F098
:104B500075FC00232360A360636010BD38B5044674
:104B60000D460068013102F06BF810B184E82100B5
:104B7000012038BD036810B5044613B143688B4269
:104B800007D22046FFF7EAFF20B1A3680BB92268DD
:104B90001370012010BD70B50E461146044615462F
:104BA000FFF7E8FF18B92046FFF7CDFF04E0A56046
:104BB0002068314602F02CFC204670BD38B5002339
:104BC00004460360436083600D4639B1084602F035
:104BD0007DFC294602462046FFF7DDFF204638BD12
:104BE00038B5054600680C4678B1096859B10C4BD8
:104BF0004BB16A68A3689A4205D302F009FCA36826
:104C0000AB6000230AE001F019FC23682B606368A5
:104C10006B60A368AB60002323606360A36038BD52
:104C2000194B0008884210B50B46044607D00968A6
:104C300019B19A68FFF7AFFF01E0FFF784FF204644
:104C400010BD10B500230446036043608360FFF786
:104C5000E9FF204610BD884210B5044601D0FFF799
:104C6000BFFF204610BD38B505460C4641B1084689
:104C700002F02CFC214602462846FFF78CFF01E09B
:104C8000FFF761FF284638BD70B5044685680E46BB
:104C900009B9002070BD62B115442946FFF76AFFCB
:104CA0000028F6D02068A3683146184402F0B0FB13
:104CB000A560012070BD0B469A680968FFF7E4BF44
:104CC00038B505460C46084641B102F0FFFB2146C7
:104CD00002462846BDE83840FFF7D6BF38BD07B5C5
:104CE00000238DF80410012201A98DF80530FFF78B
:104CF000CBFF03B05DF804FB13B50A220446084657
:104D000001A900F091FA01A802F0E0FB01A9024616
:104D10002046FFF7B9FF02B010BD1FB504460A22B6
:104D20000846694600F080FA684602F0CFFB694603
:104D300002462046FFF7A8FF04B010BD1FB5044689
:104D40000A220846694600F09AFA684602F0BEFB5D
:104D5000694602462046FFF797FF04B010BD1FB515
:104D600004460A220846694600F060FA684602F0E6
:104D7000ADFB694602462046FFF786FF04B010BD32
:104D80000B4610B509689A680446FFF77DFF10B915
:104D90002046FFF7D8FE204610BD38B504460D4624
:104DA00041B1084602F092FB294602462046FFF731
:104DB0006BFF10B92046FFF7C6FE204638BD10B580
:104DC0000446FFF7AAFF10B92046FFF7BCFE2046B5
:104DD00010BD10B50446FFF7B1FF10B92046FFF72C
:104DE000B2FE204610BD10B50446FFF7B8FF10B95B
:104DF0002046FFF7A8FE204610BD826808B50B4686
:104E000012B919B9012008BD11B90368187802E078
:104E1000006802F0DFF9D0F1010038BF002008BDC2
:104E200008B582688B689A420CD3006868B109683B
:104E300051B1D31A184402F0CDF9D0F1010038BFB6
:104E4000002008BD002008BD084608BD38B50C4646
:104E50009AB191B181688B4202D30023237038BD8F
:104E6000C91A551E8D4228BF0D4601682A461944AD
:104E7000204602F0B5FB0023635538BD836810B5AA
:104E80009A4206D20468A01802F02AF908B1001B61
:104E900010BD4FF0FF3010BDF8B515468A680F46BB
:104EA000C2B18368B3B19A4214D806689D4228BF44
:104EB00003F1FF3530464FF0FF34731998420CD898
:104EC000396802F013FD40B1831BAB4298BF1C460A
:104ED0000130F2E74FF0FF30F8BD2046F8BD00008A
:104EE0009A422DE9F04107460D4614461E4601D967
:104EF0003446164638460C49FFF760FEAB689C42C4
:104F00000FD29E4228BF1E462B68002213F806804F
:104F10009A55296838462144FFF7A5FE2B6803F807
:104F200006803846BDE8F0815DFB00082DE9F74FAB
:104F3000D0F808A004460F461646BAF1000F77D005
:104F4000D1F808B0BBF1000F72D093680568CBEBC5
:104F50000308B8F1000F0DD12846396802F0C6FCED
:104F60000546002864D03168B26801F03FFDB3689F
:104F70001D44F1E702DB0B68D14622E0A946284632
:104F8000396802F0B3FC8246A0B1C5EB0A0B294692
:104F900048465A46D94401F029FD48463168B2686E
:104FA00001F024FDB368BD689944A36855444344A7
:104FB000A360E4E74846294603B0BDE8F04F02F09D
:104FC00027BA19462846019302F090FC019B18B1BC
:104FD00000EB0B05C144F4E7D14529D0636899453E
:104FE00004D920464946FFF7B9FD08B3A268013A43
:104FF000002A1DDB20463946FFF74EFF051E17DB52
:10500000BA682168A3682A44114401EB08009A1A7F
:1050100001F062FDA368226843440021A360D154DB
:105020002068B2682844316801F0E0FC6A1EDFE7BE
:1050300003B0BDE8F08F2DE9F0410668054616B3D0
:10504000876807B3B0464446207808F1010801F0AC
:10505000E3F90028F7D1013F3744387801F0DCF953
:1050600048B901373A1BB442AA6008D930462146F4
:1050700001F0BCFC03E0A742F3D3013FEDE72A684F
:10508000AB680021D154BDE8F081006808B101F09F
:1050900077B97047FEF7F4BB08B5FCF7DBFFFCF708
:1050A000FFFFFCE701F0CAB9222870B542D80829F1
:1050B00018D8DFE801F01E2105080B0E05111400B9
:1050C000002404221AE00024224617E000240922CA
:1050D00014E00024082211E001240B220EE0012438
:1050E0000F220BE014484C21144ABDE87040FFF732
:1050F00031BA0024032201E000240722104B0001F2
:105100001E18317B1858FEF733FD706890B1717B23
:1051100024B10122BDE87040FEF742BF03680139A7
:1051200003F140432033DB0003EB81039B0003F1D9
:1051300084431C6070BD00BF00FC0008BCEF000889
:10514000C4F6000822280ED8084B00011A18127B5A
:10515000012101FA02F21B581B689B681A420CBF1E
:105160000020012070470020704700BFC4F60008EF
:10517000222810D8084B00011A18127B1B58012056
:1051800000FA02F2D1F1010138BF0021090102FA4F
:1051900001F11B6819617047C4F60008054B70B532
:1051A0001C6806461D4600F007F82B681B1BB3421F
:1051B000F9D370BDF41300207047F0B58BB059B32C
:1051C000931E222B2AD80A2A2AD1002828DA404204
:1051D000012501AB1E4670B1B0FBF2F702FB1704CC
:1051E000092C3846D8BF303403F10107C8BF573403
:1051F0001C703B46EFE7B342EED01DB12D204A1C98
:10520000087000E00A46B34204D913F8010D02F811
:10521000010BF8E700231370084603E0002001E0CB
:105220000025D6E70BB0F0BDFFF7C7BF70B58AB059
:1052300001B3931E222B1FD801AB1D4670B1B0FBEA
:10524000F2F602FB1604092C3046D8BF303403F1C5
:105250000106C8BF57341C703346EFE7AB42EED0AF
:105260000A46AB4204D913F8010D02F8010BF8E726
:1052700000231370084600E000200AB070BDFFF75D
:10528000D5BF10B504460079FEF738FD2079BDE89A
:105290001040FEF74BBD0000436800227F2110B58F
:1052A0009A80DA80198100F1100119608368044640
:1052B0009A80DA8040F2FF121A8100F190021A609F
:1052C00090F89002FEF71AFD94F891325AB2002A33
:1052D00008DB012103F01F0301FA03F30249521115
:1052E00041F8223010BD00BF00E100E00368DA6839
:1052F00042F02C02DA60DA6842F40052DA60704759
:10530000F0B583680546046800209F88DE88BFB238
:10531000B6B2B74204D0E36823F08003E36027E02D
:1053200026683606F7D59042F5D00E5C01306660EF
:10533000EBE7DF889E88BFB2B6B20137B74211F8FB
:1053400000C01DD0DF881E89BFB2B6B2B74213D0ED
:10535000DF881E68BFB206F807C0DF881E89BFB2AB
:10536000B6B2B74218D0DE880136B6B2DE80013060
:105370009042AB68DDD303E09E88B6B2002EE7D141
:105380009A88DB8892B29BB29A4200D1F0BDE36862
:1053900043F08003E360F0BD0026E7E77FB50646F3
:1053A00000240A22B1FBF2F302FB1312013401AD17
:1053B0002819303200F8012C1946002BF1D114F1D4
:1053C000FF340BD32B5D8DF8033030460DF1030114
:1053D0000122FFF795FF0028F7D0F0E704B070BD79
:1053E00003460846194600F0CFBF00BF81F00041D8
:1053F00002E000BF83F0004330B54FEA41044FEABA
:10540000430594EA050F08BF90EA020F1FBF54EA54
:10541000000C55EA020C7FEA645C7FEA655C00F0F0
:10542000E2804FEA5454D4EB5555B8BF6D420CDDC1
:105430002C4480EA020281EA030382EA000083EA44
:10544000010180EA020281EA0303362D88BF30BDE4
:1054500011F0004F4FEA01314FF4801C4CEA11313A
:1054600002D0404261EB410113F0004F4FEA033399
:105470004CEA133302D0524263EB430394EA050F24
:1054800000F0A780A4F10104D5F1200E0DDB02FA93
:105490000EFC22FA05F2801841F1000103FA0EF227
:1054A000801843FA05F359410EE0A5F120050EF1ED
:1054B000200E012A03FA0EFC28BF4CF0020C43FA1E
:1054C00005F3C01851EBE37101F0004507D54FF02B
:1054D000000EDCF1000C7EEB00006EEB0101B1F57B
:1054E000801F1BD3B1F5001F0CD349085FEA3000C1
:1054F0004FEA3C0C04F101044FEA445212F5800FCC
:1055000080F09A80BCF1004F08BF5FEA500C50F168
:10551000000041EB045141EA050130BD5FEA4C0C4B
:10552000404141EB010111F4801FA4F10104E9D1D4
:1055300091F0000F04BF01460020B1FA81F308BFCB
:105540002033A3F10B03B3F120020CDA0C3208DD97
:1055500002F1140CC2F10C0201FA0CF021FA02F172
:105560000CE002F11402D8BFC2F1200C01FA02F1E2
:1055700020FA0CFCDCBF41EA0C019040E41AA2BF07
:1055800001EB0451294330BD6FEA04041F3C1CDACF
:105590000C340EDC04F11404C4F1200220FA04F0EF
:1055A00001FA02F340EA030021FA04F345EA030199
:1055B00030BDC4F10C04C4F1200220FA02F001FA5B
:1055C00004F340EA0300294630BD21FA04F02946DD
:1055D00030BD94F0000F83F4801306BF81F4801176
:1055E0000134013D4EE77FEA645C18BF7FEA655CE9
:1055F00029D094EA050F08BF90EA020F05D054EABB
:10560000000C04BF1946104630BD91EA030F1EBFBF
:105610000021002030BD5FEA545C05D140004941C3
:1056200028BF41F0004130BD14F580043CBF01F5B6
:10563000801130BD01F0004545F0FE4141F470019C
:105640004FF0000030BD7FEA645C1ABF1946104677
:105650007FEA655C1CBF0B46024650EA013406BF78
:1056600052EA033591EA030F41F4002130BD00BF37
:1056700090F0000F04BF0021704730B54FF48064F4
:1056800004F132044FF000054FF0000150E700BF75
:1056900090F0000F04BF0021704730B54FF48064D4
:1056A00004F1320410F0004548BF40424FF00001C1
:1056B0003EE700BF42004FEAE2014FEA31014FEA04
:1056C00002701FBF12F07F4393F07F4F81F0605153
:1056D000704792F0000F14BF93F07F4F704730B5C2
:1056E0004FF4607401F0004521F0004120E700BF55
:1056F00050EA010208BF704730B54FF000050AE0DC
:1057000050EA010208BF704730B511F0004502D5DC
:10571000404261EB41014FF4806404F132045FEADE
:10572000915C3FF4DCAE4FF003025FEADC0C18BF83
:1057300003325FEADC0C18BF033202EBDC02C2F179
:10574000200300FA03FC20FA02F001FA03FE40EA0B
:105750000E0021FA02F11444C1E600BF70B54FF00B
:10576000FF0C4CF4E06C1CEA11541DBF1CEA1355ED
:1057700094EA0C0F95EA0C0F00F0DEF82C4481EA55
:10578000030621EA4C5123EA4C5350EA013518BF75
:1057900052EA033541F4801143F4801338D0A0FB62
:1057A00002CE4FF00005E1FB02E506F00042E0FB0F
:1057B00003E54FF00006E1FB03569CF0000F18BF15
:1057C0004EF0010EA4F1FF04B6F5007F64F54074BD
:1057D00004D25FEA4E0E6D4146EB060642EAC62150
:1057E00041EA55514FEAC52040EA5E504FEACE2EBD
:1057F000B4F1FD0C88BFBCF5E06F1ED8BEF1004FC0
:1058000008BF5FEA500E50F1000041EB045170BD3B
:1058100006F0004646EA010140EA020081EA03017F
:10582000B4EB5C04C2BFD4EB0C0541EA045170BD7B
:1058300041F480114FF0000E013C00F3AB8014F1F5
:10584000360FDEBF002001F0004170BDC4F100043E
:10585000203C35DA0C341BDC04F11404C4F12005BF
:1058600000FA05F320FA04F001FA05F240EA02001A
:1058700001F0004221F0004110EBD37021FA04F650
:1058800042EB06015EEA430E08BF20EAD37070BD0A
:10589000C4F10C04C4F1200500FA04F320FA05F069
:1058A00001FA04F240EA020001F0004110EBD3706B
:1058B00041F100015EEA430E08BF20EAD37070BDDB
:1058C000C4F1200500FA05F24EEA020E20FA04F3B4
:1058D00001FA05F243EA020321FA04F001F0004163
:1058E00021FA04F220EA020000EBD3705EEA430ED4
:1058F00008BF20EAD37070BD94F0000F0FD101F003
:105900000046400041EB010111F4801F08BF013C3B
:10591000F7D041EA060195F0000F18BF704703F079
:105920000046520043EB030313F4801F08BF013D00
:10593000F7D043EA0603704794EA0C0F0CEA1355BC
:1059400018BF95EA0C0F0CD050EA410618BF52EA76
:105950004306D1D181EA030101F000414FF000007C
:1059600070BD50EA410606BF1046194652EA43068A
:1059700019D094EA0C0F02D150EA013613D195EAFE
:105980000C0F05D152EA03361CBF104619460AD146
:1059900081EA030101F0004141F0FE4141F4700150
:1059A0004FF0000070BD41F0FE4141F4780170BD40
:1059B00070B54FF0FF0C4CF4E06C1CEA11541DBFA5
:1059C0001CEA135594EA0C0F95EA0C0F00F0A7F8A7
:1059D000A4EB050481EA030E52EA03354FEA0131D4
:1059E00000F088804FEA03334FF0805545EA1313E7
:1059F00043EA12634FEA022245EA111545EA1065AF
:105A00004FEA00260EF000419D4208BF964244F145
:105A1000FD0404F5407402D25B084FEA3202B61A64
:105A200065EB03055B084FEA32024FF480104FF438
:105A3000002CB6EB020E75EB030E22BFB61A7546AC
:105A400040EA0C005B084FEA3202B6EB020E75EB3F
:105A5000030E22BFB61A754640EA5C005B084FEAA7
:105A60003202B6EB020E75EB030E22BFB61A754674
:105A700040EA9C005B084FEA3202B6EB020E75EB7F
:105A8000030E22BFB61A754640EADC0055EA060E40
:105A900018D04FEA051545EA16754FEA06164FEA83
:105AA000C30343EA52734FEAC2025FEA1C1CC0D12F
:105AB00011F4801F0BD141EA00014FF000004FF0BC
:105AC000004CB6E711F4801F04BF01430020B4F17D
:105AD000FD0C88BFBCF5E06F3FF6AFAEB5EB030C35
