:020000040800F2
:1000000000500020813500084138000845380008BC
:10001000493800084D38000851380008A138000858
:10002000A1380008A1380008A1380008A13800084C
:10003000A1380008A1380008A1380008453C000894
:10004000A1380008A1380008A1380008E9340008E8
:10005000A1380008A1380008A1380008A13800081C
:10006000A1380008A1380008A1380008A13800080C
:10007000A1380008A1380008A1380008A1380008FC
:10008000A1380008A1380008F9380008A138000894
:10009000A1380008A1380008A1380008A1380008DC
:1000A0006D3E0008913E0008B53E0008ED3E000898
:1000B000413F0008B13F000821400008A138000876
:1000C000A1380008A1380008A1380008A1380008AC
:1000D000A13800088D410008E141000835420008C0
:1000E000A138000831350008A138000810B5054CCA
:1000F000237833B9044B13B10448AFF300800123D4
:10010000237010BDA81100200000000080D8000856
:1001100008B5064B1BB106480649AFF300800648F8
:10012000036813B1054B03B1984708BD00000000F8
:1001300080D80008AC110020A811002000000000A9
:100140000148112103F024B9C4110020064B1A689C
:1001500001321A601A681D2A04D900221A60034B62
:1001600001221A70704700BFC8110020CC11002076
:1001700010B5094C0949204604F0C1F92046012177
:10018000074A04F0DBF92046002104F0AFF92046CD
:10019000BDE8104004F094B9A413002040420F00C1
:1001A0004D01000810B5054C204604F091F9204699
:1001B0000021BDE8104004F099B900BFA41300204D
:1001C00013B5026802AB03F8011D546A19460122F7
:1001D000A04702B010BD07B503680DF107019B6A87
:1001E0000122984701280CBF9DF807004FF0FF300F
:1001F00003B05DF804FB4FF0FF30704708B50369AA
:10020000186803689B69984708BD036810B5DB68E8
:100210000446984708B9207F10BD012010BD08B5DD
:1002200003681B6B9847003018BF012008BD10B54C
:100230000446283004F01EFB04F11C0004F01AFBF5
:1002400004F1100004F016FB204610BDF0B585B097
:100250000C460646194901A81746194D04F04CFBF7
:1002600001A8102104F024FB217901A804F0E2FB8D
:10027000294601A804F0C2FB617901A804F0DAFB69
:10028000294601A804F0BAFBA17901A804F0D2FB29
:10029000294601A804F0B2FBE17901A804F0CAFBE9
:1002A000336801991B6A3A4630469847044601A8CC
:1002B00004F0E0FA204605B0F0BD00BFE4EA000813
:1002C00060EC000810B5044620680368DB689847B6
:1002D00010B904F0BFFDF7E7206803681B69984771
:1002E0002C28F1D1012010BD2DE9F04F054687B033
:1002F0008A46104640211E461446129F04F0D8FA42
:100300008F4BD3F800B0002004F0A4FD28680368E8
:10031000DB689847002840F3E480286803681B697D
:100320009847011EF2DD2046C9B204F076FB16B9EB
:10033000109BA3B910E0314603A804F0DDFA204673
:1003400003A904F0D5FB814603A804F093FAB9F1A0
:10035000000FEDD00120EFE0119B9BB910E0109948
:1003600003A804F0C9FA204603A904F0C1FB8146A2
:1003700003A804F07FFAB9F1000FEDD00220DBE012
:10038000A7B910E0119903A804F0B6FA204603A912
:1003900004F0AEFB814603A804F06CFAB9F1000F3B
:1003A000EED00320C8E0139B0BBB10E0394603A836
:1003B00004F0A2FA204603A904F09AFB814603A8A0
:1003C00004F058FAB9F1000FEDD00420B4E05D4913
:1003D00003A804F091FA204603A904F089FB8146A2
:1003E00003A804F047FAB9F1000F11D139E01399CD
:1003F00003A804F081FA204603A904F079FB8146A2
:1004000003A804F037FAB9F1000FE0D0052093E01B
:10041000684629682C2204F005FA684604F09DFC21
:100420000128814615D129680A2203A804F0FAF9A7
:1004300003A804F092FC804603A804F01BFA2046AF
:10044000414904F0AEFA05EB88035B6883F81D9020
:1004500003E02046694604F0CCFA684604F00AFA44
:1004600054E73A4903A804F047FA204603A904F0E8
:100470003FFB804603A804F0FDF9B8F1000F3FF4FC
:1004800045AF334903A804F037FAA26803A9083A34
:10049000204604F069FB804608F1020803A804F036
:1004A000E9F942462C21204604F050FB424603461F
:1004B000214603A804F07CFB03A804F04EFC804610
:1004C00003A804F0D7F9B8F1000F3FF41FAF05EB14
:1004D00088035B68204683F81C901B4904F061FA8E
:1004E00014E7174B1B68CBEB03035345FFF40BAF2B
:1004F000204604F008FCA368CBB12146684604F00E
:100500003EFA1449144804F09CF82021124804F0E3
:1005100093F8694603A804F032FA03A90E4804F0E0
:10052000ABF803A804F0A6F9684604F0A3F9204646
:10053000054904F036FA0020C0B207B0BDE8F08FDC
:10054000F4130020CFEA0008E4EA0008DCEA00081F
:10055000E2EA0008E5EA00080C130020F0B589B0D3
:100560001C4607460E4605A80B49154604F0C4F97B
:1005700000940E9C314601940F9C05AA0294109C95
:100580002B4603943846FFF7AFFE044605A804F057
:1005900071F9204609B0F0BDE4EA0008F0B5044660
:1005A00085B00E46006821491F46154604F049F8FB
:1005B00020681F4904F045F80A223946206804F0F3
:1005C000FCF820682C2104F037F82068194904F061
:1005D00038F82068184904F034F83146206804F0EF
:1005E00030F82068154904F02CF80A2229462068C2
:1005F00004F0CCF81249206804F023F8206803685E
:100600009B699847002004F025FC0E4B2046009380
:100610000023019302930C490C4A0D4BFFF79EFFF8
:10062000431E5842584105B0F0BD00BFF4EA00082F
:10063000F7EA000802EB0008D7ED000807EB000816
:10064000E2EA000826EB0008F82401000AEB0008A3
:1006500017EB000870B5044600200E46154604F05E
:10066000F9FB0023C4F8A430C4F8A0302069314657
:100670002A46237DFFF792FF003018BF0120207724
:1006800070BD7FB5089C0E460194099C15460093E9
:1006900002944FF47A7132462B46FFF75FFF04B0A5
:1006A00070BD08B500210F2004F0BEFB40F2DC5005
:1006B00004F0D0FBBDE808400F20012104F0B4BBDA
:1006C00070B504460D4600680C49164603F0B9FFA4
:1006D0002946206803F0B5FF31460A22206804F05D
:1006E0006CF82068064903F0ACFF206803689B693A
:1006F0009847BDE87040002004F0ACBBF4EA000865
:10070000E2EA000813B50446002004F0A3FB2069C8
:10071000227D0749FFF7D4FF00232377009301933D
:1007200020690449044AFFF7ACFF02B010BD00BFC6
:1007300038EB0008C1EA000815F0000810B50446BF
:100740000548FFF762FD28B9E3781BB1E070024865
:10075000FFF7D8FF10BD00BFD8110020F0B50F463D
:1007600087B00025044626493A46FFF7A9FF0095C1
:10077000019520462349244A2B46FFF782FF012892
:100780001AD12046FFF79EFD2046FFF79BFD21680A
:100790000A2203A804F046F803A804F0DEFA06468D
:1007A00003A804F067F80095019520461749164AFA
:1007B0002B46FFF766FFFEB904EB87033A46204657
:1007C00013495E68FFF77CFF124B00250093124926
:1007D000124A134B01952046FFF753FF2B4607465D
:1007E0000095019520460949074AFFF74AFF7B1EFD
:1007F0005F425F4137772E46304607B0F0BD00BFFD
:1008000043EB0008D1EA000815F00008C1EA00082F
:1008100050EB00087EEB00085CEB000869EB000879
:1008200073EB00087FB50546002405EB84035E6882
:1008300046B1737F33B1002373772846E1B2FFF7E7
:100840008DFFF0820134052CEFD128680368DB6846
:10085000984748B1002200920192029228460A214C
:100860001346FFF77BFEF0E704B070BDD0F88020A0
:10087000D0F88430D01A48BF8030704738B504466D
:10088000002004F0E7FA237F04F120058BB128460D
:10089000FFF7ECFF68B90A4BA26919688A1AB2F52A
:1008A000FA7F03D91B6801226277A3612069FFF7F1
:1008B000B9FF2846FFF7DAFFE38A184438BD00BFC6
:1008C000F413002038B504460D460068094903F0CA
:1008D000B8FE2946206803F0B4FE2068064903F0FC
:1008E000B0FE206803689B699847BDE83840002047
:1008F00004F0B0BAF4EA0008E2EA00082DE9FF418A
:10090000134B05461F680E469846D8F80030002461
:10091000DB1BB34217D228460E49FFF7D3FF0094E2
:10092000019402942846C8210B4A0C4BFFF716FE8F
:100930000446012C4FF0640002D104F08BFA02E06F
:1009400004F088FAE1E7204604B0BDE8F08100BF7A
:10095000F4130020E4EA0008C1EA000815F00008DA
:100960001F4B2DE9F3411F6805460E469846D8F8FF
:100970000030DB1BB3422CD2002428461949FFF774
:10098000A1FF0094019428461749184A2346FFF70F
:1009900078FE012804D04FF47A7004F05BFAE6E7A1
:1009A000134B14498DE81800134A144B2846FFF7DF
:1009B00068FE009406460194284611490B4A2346D6
:1009C000FFF75FFE012E06D003D3032E01D80220CD
:1009D00002E0002000E0304602B0BDE8F08100BF38
:1009E000F413002089EB000890EB000815F00008D4
:1009F000AFEB000899EB00089FEB0008A7EB00089D
:100A0000C1EA00087FB542F210710546FFF776FF94
:100A100058B3002428462149FFF754FF009401945D
:100A20000294284642F210711D4A1E4BFFF796FDB4
:100A300001281AD128461C49FFF744FF009401946D
:100A40000294284642F21071154A164BFFF786FDB4
:100A500001280AD140F6B83004F0FCF9284642F2E9
:100A60001071FFF74BFF064608B9002612E0284632
:100A70000E49FFF727FF0094019428460849094AC8
:100A80002346FFF7FEFD0128EFD1284642F2107100
:100A9000FFF766FF304604B070BD00BFBCEB000836
:100AA000C1EA000815F00008C4EB0008CEEB00080E
:100AB000F7B5154F154E002405461549FFF702FFFF
:100AC000324623463946009401942846FFF7D9FD63
:100AD00028461049FFF7F6FE324623463946009471
:100AE00001942846FFF7CDFD28460B49FFF7EAFEA3
:100AF000009401942846394632462346FFF7C1FD4B
:100B0000012003B0F0BD00BFC1EA000815F00008E5
:100B1000D4EB0008DFEB0008EFEB00081FB54FF443
:100B2000165104461B4803F0A3FC1B48FFF7B9FD10
:100B300040F6B83004F08EF91849194803F0B0FDBA
:100B40001848FFF75FFF17481749FFF7BBFE002360
:100B500000930193029313484FF47A71134A144B94
:100B6000FFF7FCFC012803D00D48124903F08EFD6D
:100B70004FF4FA6004F06EF90A48FFF799FF4FF45A
:100B80007A7004F067F90023A37063702370E37038
:100B900004B010BD3C13002098120020FEEB0008AA
:100BA0000C1300208012002014EC0008C1EA000899
:100BB00015F000081FEC000870B5174986B0002436
:100BC0000546FFF77FFE0094019428461349144A16
:100BD0002346FFF756FD01281BD12846FFF772FB7D
:100BE0002846FFF76FFB29682C2203A803F01AFEA2
:100BF00003A804F0B2F886B203A803F03BFE009409
:100C0000019428460749064A2346FFF73AFD304635
:100C100000E0204606B070BD2EEC000833EC000862
:100C200015F00008C1EA000808B50248FFF7C4FF44
:100C300008BD00BF8012002070B5164986B00024A0
:100C40000546FFF73FFE0094019428461249134AD7
:100C50002346FFF716FD012818BF042017D12846A8
:100C6000FFF730FB29680A2203A803F0DBFD03A885
:100C700004F073F8064603A803F0FCFD0094019409
:100C800028460749054A2346FFF7FBFCF0B206B0A9
:100C900070BD00BF3BEC000842EC000815F00008F6
:100CA000C1EA00082DE9F0414478054654BB1748D5
:100CB000174903F0CBFC174B1F689846D8F8002063
:100CC0004EF65F23D21B9A420BD81348FFF7B4FFAE
:100CD00000F0FB06012E0FD04FF47A7004F0BAF842
:100CE000ECE70E49094803F0D1FC42F2107004F021
:100CF000B1F800236B7005E06E700448084903F0FA
:100D0000C5FC34462046BDE8F08100BF0C1300202E
:100D10004BEC0008F41300208012002062EC000865
:100D200068EC00081FB50A490446FFF7CBFD002315
:100D300000930193029320464EF66021054A064B2C
:100D4000FFF70CFC431E5842584104B010BD00BFD1
:100D50007EEC0008C1EA000815F0000830B5304903
:100D600085B000240546FFF7ADFD009401942846A8
:100D70002C492D4A2346FFF784FC012801D001208D
:100D80004BE028462949FFF79DFD274A234628497D
:100D9000009401942846FFF774FC28462549FFF784
:100DA00091FD00940194029428462349234A1E4B46
:100DB000FFF7D4FB012802D0214822492AE01C4A2F
:100DC000194B4FF47A710094019402942846FFF76E
:100DD000C5FB28461C49FFF775FD00940194284681
:100DE0001A49114A2346FFF74CFC012802D0144847
:100DF00017490FE028461749FFF764FD0094019456
:100E000028461549084A2346FFF73BFC0128B6D07F
:100E10000B48124903F03AFC204605B030BD00BF34
:100E20003BEC000842EC000815F0000887EC0008D5
:100E3000C1EA0008A3EC0008084C0100AEEC000871
:100E40000C130020B8EC0008D8EC0008E5EC000812
:100E5000F6EC00080FED00081CED00082DED000871
:100E6000F0B583788BB0044663B93048FFF776FF5E
:100E7000054610B10123A37004E02D482D4903F06D
:100E800005FCA570A378002B4DD0284E2A49284890
:100E900003F0FCFB002530462849FFF713FD0095C1
:100EA0000195029530462649264A274BFFF756FB07
:100EB000012804F1280704D004A8244903F01CFDEC
:100EC00016E007A831680A2203F0ACFC20491E4A4C
:100ED0002B46009501953046FFF7D3FB07A803F09A
:100EE00012FF04A807A903F0B6FC07A803F0C2FC90
:100EF00004A9384603F04DFD04A803F0BBFC1549D6
:100F000007A803F0F9FC394607A803F0B5FD12491C
:100F100003F0BFFD0146064803F0AEFB07A803F04F
:100F2000A9FC0023A3700BB0F0BD00BF801200200D
:100F30000C13002056ED000868ED000878ED00085D
:100F4000084C010082ED000815F00008E4EA0008F2
:100F5000C1EA00088BED0008E2EA000870B5144908
:100F600086B000240546FFF7ADFC009401942846A6
:100F70001049114A2346FFF784FB012818BF63205C
:100F800014D129682C2203A803F04CFC03A803F019
:100F9000E4FE064603A803F06DFC00940194284685
:100FA0000649054A2346FFF76CFB304606B070BD84
:100FB00094ED000899ED000815F00008C1EA00085A
:100FC000F8B504460D4600680E4916461F4603F064
:100FD00038FB2946206803F034FB3146206803F0D3
:100FE00030FB3946206803F027FB2068064903F0F0
:100FF00028FB206803689B699847BDE8F8400020FB
:1010000003F028BFF4EA0008E2EA00082DE9F04303
:1010100004468FB00025904689461F46FFF782FEA2
:1010200020469B49FFF74EFC9A499B4A2B46009568
:1010300001952046FFF725FB204698494A46222382
:10104000FFF7BEFF0095019520469249924A2B4634
:10105000FFF717FBB8F1000F0DD02046904942462C
:101060002223FFF7ADFF00950195204689498A4A62
:101070002B46FFF706FB6FB120468A493A462223EA
:10108000FFF79EFF00230093019320468149824A87
:10109000FFF7F7FA804E0025204683494A4622236F
:1010A000FFF78EFF32462B467A4900950195204680
:1010B000FFF7E7FA20467D49FFF704FC754A3346FF
:1010C0004EF660210095019502952046FFF746FAFD
:1010D00020467749FFF7F6FB6E4A3346754900957F
:1010E000019502952046FFF739FA20467249FFF72D
:1010F000E9FB009501950295204647F23051654A7B
:101100003346FFF72BFA012801D00025BCE020462A
:101110006A49FFF7D7FB00950195029520464EF6E8
:1011200060215C4A3346FFF719FA0128EDD12046C9
:101130006349FFF7C7FB00950195204655493246A4
:101140002B46FFF79EFA0128DFD120465D49FFF7C5
:10115000B9FB0095019520464E4932462B46FFF7D4
:1011600090FA0128D1D120465749FFF7ABFB0095F3
:1011700001952046474932462B46FFF782FA01285F
:10118000C3D15249206803F05CFA5149206803F04A
:1011900058FA4946206803F054FA4E49206803F093
:1011A00050FA4146206803F04CFA4A49206803F09F
:1011B00048FA3946206803F044FA4749206803F0AA
:1011C00040FA4649206803F03CFA206803689B69AE
:1011D0009847284603F03EFE00950195029520466B
:1011E0004EF660212B4A3346FFF7B8F901288CD11F
:1011F00020463B49FFF766FB009501950295204686
:101200004EF66021234A3346FFF7A8F901287FF400
:101210007CAF20463349FFF755FB334905A803F05F
:101220006BFB0096019502950395204642F21071E2
:1012300005AA184BFFF758F8012813D008A827492A
:1012400003F05AFB0BA8284903F056FB05A808A990
:101250000BAA03F0D3FC0BA803F00CFB08A803F0C7
:1012600009FB0EE020462149FFF72CFB2B46009599
:101270000195204607493246FFF703FA431E5D42B7
:101280005D4105A803F0F6FA28460FB0BDE8F083EB
:1012900087EC0008C1EA000815F00008A1ED00087D
:1012A000B4ED0008C8ED0008DBED0008EDED000826
:1012B000F8ED0008084C0100A3EC000803EE00085C
:1012C0000CEE000816EE000822EE0008F4EA000812
:1012D0002EEE0008D7ED0008F9F00008E2EA000859
:1012E00036EE00083DEE0008E4EA000847EE00088C
:1012F00038B50478054614BB4378FBB11149124850
:1013000003F0A4F91149104803F09BF910480F4964
:10131000104A114BFFF77AFE04460B4844B90F49B7
:1013200003F0B4F942F2107003F094FD2C7006E063
:101330000B4903F0ABF901232B7000E00124204698
:1013400038BD00BF64EE00080C1300201DF000083B
:1013500080120020C0EA000814F0000873EE0008B4
:1013600079EE00082DE9F04104460E460068124966
:101370001F469046069D03F064F93146206803F04D
:1013800060F941460A22206803F017FA39462068BE
:1013900003F052F929460A22206803F017FA206860
:1013A000064903F04EF9206803689B699847BDE839
:1013B000F041002003F04EBDF4EA0008E2EA000824
:1013C000F0B587B00025044600920F4616461C492A
:1013D0001A462C23FFF7C6FF0095019520461949B0
:1013E000194A2B46FFF74DF9012802D04FF0FF3480
:1013F00022E020683946036832469B689847206897
:1014000003689B6998470095019520460F490E4A4D
:101410002B46FFF736F90128E8D12046FEF752FFA8
:10142000216803A80A2203F0FDF903A803F095FC44
:10143000044603A803F01EFA204607B0F0BD00BF23
:1014400082EE000899F0000815F000088CEE000804
:1014500070B5044600200E46154603F0FBFC2069DB
:10146000FFF7E0F9206931462A46237DFFF7A8FF00
:1014700070BD000070B58D680E460135284604F039
:101480000FFE04460023304621462A4603F046FB61
:1014900021462A460348FFF7DBFF204604F008FEFA
:1014A000012070BDD81100202DE9F04186B0002543
:1014B000044600912C232F491646FFF753FF009551
:1014C000019520462C492D4A2B46FFF7DAF80128D2
:1014D0004BD12046FEF7F6FE2046FEF7F3FE2168CC
:1014E0002C2203A803F09EF903A803F036FC07465C
:1014F00003A803F0BFF904EB860603A821680A22BB
:10150000D6F8048003F08EF903A803F026FCA8F8AF
:10151000160003A803F0AEF9BD421ED02068036890
:10152000DB68984710B903F095FCF7E7206803687B
:101530001B69984773685FFA80FED3F8A010D3F850
:10154000A4004A1C02F07F02824204D0194481F8B0
:1015500020E0C3F8A0200135DEE7002300930193CB
:1015600020460749054AFFF78CF8284606B0BDE833
:10157000F08100BF9BEE0008D1EA000815F00008DA
:10158000C1EA00082DE9F74F044600208946019280
:1015900003F060FC2069FFF745F90025019B9D429F
:1015A00045D2019B04F1200B5846C5EB0308FFF719
:1015B0005DF9404538BF8046B8F1000F24D047465A
:1015C000CA465846FFF752F910B9C1444544E5E709
:1015D000D4F8A430C3F18006B742B8BF3E46864275
:1015E000A8BF06460BEB030150463246009305F0B8
:1015F00037F8009BBF1B03EB060C0CF07F02C4F80E
:10160000A420B244E1D0DCE72069FFF70BF9E38ABC
:101610006BB1D4F8A420D4F8A0302069D11A0029E5
:10162000D8BF80310139227DFFF73EFFB6E728465B
:1016300003B0BDE8F08F000073B50024234D244EA5
:101640002346224621460094224802F0B5FF314647
:1016500005F110006C60AC60EC6003F04DF93146B0
:1016600005F11C0003F048F9314605F1280005F1A9
:10167000340603F041F921463046102205F0CCF83B
:10168000154A05F1480392E80300144A83E8030071
:10169000284613496E6403F0DDFC124A124B4FF4E6
:1016A0007A711360114B996011495C6019600121D6
:1016B000C3F8A440C3F8A0401A611975DC829C618C
:1016C0001C775C77936002B070BD00BF9812002059
:1016D000E4EA0008D0110020B8EA00080800002061
:1016E0002F020008801200203C130020D811002097
:1016F00080EA00082DE9F041C57892B00446002D3B
:1017000040F03C819F49A04802F0A0FF9F499E48BD
:1017100002F097FF9E489D4941F27072FEF79AFFD2
:10172000B0B99C49984802F0B1FF42F2107003F042
:1017300091FB6368E57001330A2B01D863601DE1FA
:101740006560657025709448FFF7ECFAA57015E1A7
:101750009249914E8C4802F099FF0123E370656035
:10176000E5603046FFF7FAFB8D49E060864802F0FD
:101770008DFFE2688B490BA805F096FA0BA9824809
:1017800002F084FF30468849FFF79CF800950195E8
:1017900030468649864A2B46FEF773FF012804F13E
:1017A000100704D005A8834903F0A6F816E008A89E
:1017B00031680A2203F036F87F497D4A2B460095AE
:1017C00001953046FEF75DFF08A803F09CFA05A8D6
:1017D00008A903F040F808A803F04CF805A938461A
:1017E00003F0D7F805A803F045F8744908A803F0FA
:1017F00083F8394608A803F03FF90146624802F031
:101800003BFFDFF8948108A803F034F86C495E4888
:1018100002F03CFF002540466A49FFF753F8009567
:10182000019540466849624A2B46FEF72AFF012887
:1018300004F11C0604D005A85E4903F05DF817E02A
:1018400008A8D8F800100A2202F0ECFF5A49584ABA
:101850002B46009501954046FEF713FF08A803F0BC
:1018600052FA05A808A902F0F6FF08A803F002F84A
:1018700005A9304603F08DF805A802F0FBFF534997
:1018800008A803F039F8314608A803F0F5F8014636
:101890003D4802F0F1FE08A802F0ECFF02A800F0BB
:1018A00043FC4B4A08A802A900F050FDE16808A8D3
:1018B00000F030FD08A800F00DFC464A08A802A977
:1018C00000F044FD394608A800F03CFD08A800F0EF
:1018D00001FC414A08A802A900F038FD314608A8D9
:1018E00000F030FD08A800F0F5FB04F128053B4AA4
:1018F00008A802A900F02AFD294608A800F022FD48
:1019000008A800F0E7FB36491F4802F09AFE08A835
:1019100002A900F023FC08A91B4802F0CBFE08A88E
:1019200000F0D8FB02AA05A82E4900F0B4FB2E490E
:10193000154802F086FE05A9134802F09DFE05A990
:1019400008A803F01CF808A92046FFF793FD08A893
:1019500002F090FF384603F0D6F9304603F0D3F991
:10196000284603F0D0F94FF47A7003F073FA05A813
:1019700002F080FF02A800F0ADFB0125284612B05E
:10198000BDE8F081A8EE00080C130020C6EA0008AC
:10199000D811002062EC00088012002073ED0008CE
:1019A000BEEE0008D5EE0008DDEE0008E2EA000811
:1019B00015F00008E4EA0008C1EA0008E2EE0008B9
:1019C000D3EE0008E8EE0008EFEE0008F9EE00089C
:1019D00095ED000802EF0008EAEE000807EF0008A6
:1019E0000BEF0008F01200201EEF00082DE9F04177
:1019F0005E4F90B004465E483D68FEF706FC002846
:101A000000F0E0813B685D1B41F287339D4200F2AC
:101A1000D9815748FEF732FF0028ECD001A854497D
:101A20000A2202F0FFFE01A8524903F04EF80028F6
:101A300040F0C18104A8504901AA00F025FB04AA86
:101A40000DA84D4900F02EFB4C490DA803F03DF8C0
:101A500005460DA802F00EFF49484DB1494902F074
:101A600015FE04A800F036FB01A802F003FFA9E16F
:101A7000454902F0E6FD04AA0DA83F4900F012FB1B
:101A80000DA93F4802F0F8FD0DA802F0F3FE04A8EE
:101A90003E4900F093FBD8B13D49A560384802F0BB
:101AA000D0FD3A4A0DA804A900F050FC0DA9344815
:101AB00002F000FE0DA800F00DFB0DA804A9334AAA
:101AC00000F044FC0DA800F040FB0DA800F002FB64
:101AD00004A8304900F072FB002800F0CB802E49AA
:101AE000274802F0AEFD04A92A4A0DA800F02EFCFA
:101AF0000DA800F02AFB60640DA800F0EBFA0025A9
:101B0000636C5B5D312B07D125B1012D16D104200B
:101B100000210AE003200BE0302B0BD11DB1012D79
:101B20000CD1042004E00320012103F07DF905E03D
:101B30002946FAE71248194902F0A8FD0A200135A2
:101B400003F088F9102DDBD104F134082A46404611
:101B5000302104F061FE2646002596F8480003F087
:101B60004DF9E8B96319312222E000BFF4130020D7
:101B7000D8110020E4EA0008F01200203AEF000833
:101B80000C13002044EF00085AEF000873EF000820
:101B900078EF00088DEF000895EF0008ABEF000824
:101BA00096F8480003F02AF9012803D1631930227E
:101BB00083F834200135022D06F10406CDD10AA8A0
:101BC00000F0B2FA04F11005804A0DA80AA900F04D
:101BD000BDFB29460DA800F0B5FB0DA800F07AFA70
:101BE0007B4A0DA80AA900F0B1FB41460DA800F000
:101BF0009EFB0DA800F06EFA2946764802F03CFDE7
:101C0000616C744802F042FD7349724802F019FD9C
:101C10000DA80AA900F0A2FA0DA96E4802F04AFD2B
:101C20000DA800F057FA0AAA0DA86C4900F033FA83
:101C30006B49684802F005FD0DA9664802F01CFDDD
:101C40000F9E0136304604F02BFA054600230DA8FE
:101C50002946324602F062FF294632466148FFF7C4
:101C6000F7FB284604F024FA0DA802F003FE0AA8A8
:101C700000F030FA04A85C4900F0A0FA002800F057
:101C8000978004A9584A0DA800F060FB0DA800F049
:101C900053FA05460DA800F01DFA04A8534900F0B8
:101CA0008DFA002800F0848004A9504A0DA800F0A5
:101CB0004DFB0DA800F040FA06460DA800F00AFA08
:101CC000012E0ED1022D09D0FF2D03D0012D1AD1E6
:101CD000032004E00320002103F0A6F804200021E3
:101CE0000FE086B9022D0AD0FF2D04D0012D0AD1B4
:101CF0000320294605E00320012103F095F8042084
:101D0000012103F091F807A800F00EFA2F4A0DA860
:101D100007A900F01BFB04F110010DA800F012FB55
:101D20000DA800F0D7F9304A0DA807A900F00EFB66
:101D300029460DA800F0EEFA0DA800F0CBF92B4AC9
:101D40000DA807A900F002FB31460DA800F0E2FA49
:101D50000DA800F0BFF920491E4802F072FC0DA842
:101D600007A900F0FBF90DA91A4802F0A3FC0DA881
:101D700000F0B0F907AA0AA8184900F08CF9184930
:101D8000144802F05EFC0AA9124802F075FC0AA988
:101D90000DA802F0F4FD0DA92046FFF76BFB0DA87E
:101DA00002F068FD0AA802F065FD07A800F092F9AC
:101DB00004A800F08FF901A802F0A5FF01A802F025
:101DC00059FD18E610B0BDE8F08100BF02EF000831
:101DD0008DEF00080C130020B2EF0008F012002075
:101DE0001EEF0008D8110020C6EF0008CCEF000855
:101DF00070B540498AB004463F4802F047FC3F4B6B
:101E00001A78002A6FD0E278002A6CD0002604F1FC
:101E1000340501A81E7000F087F9314610222846CB
:101E200004F0FAFC364A07A801A900F08FFA04F181
:101E3000100107A800F086FA07A800F04BF9314A14
:101E400007A801A900F082FA294607A800F06FFA56
:101E500007A800F03FF92C49274802F0F2FB07A839
:101E600001A900F07BF907A9234802F023FC07A889
:101E700000F030F901AA04A8244900F00CF9244923
:101E80001D4802F0DEFB1C4804A902F0F5FB2148C6
:101E9000FEF7BBF950B104A907A802F070FD1E4877
:101EA00007A9FFF7E7FA07A802F0E4FCA3681B49BB
:101EB0000133A360104802F0C4FB0F48A1680A2256
:101EC00002F08DFCA368092B07D9E2780023A360F8
:101ED0001AB1E3700F48FEF715FC04A802F0CAFC23
:101EE00001A800F0F7F80E49034802F0CFFB0AB052
:101EF00070BD00BFD0EF00080C130020CC110020F3
:101F000002EF00088DEF0008B2EF0008F012002089
:101F10001EEF0008D811002098120020E6EF0008FC
:101F2000FEEF00080E4B10B51A680E4C22F0E0626E
:101F300042F000721A60204600F070F8204600F06F
:101F400080F84FF41651084802F092FA0748FEF75D
:101F5000E5FDFEF70DF9BDE81040FEF723B900BF1F
:101F600004000140EC1200200C1300209812002005
:101F700010B5224886B0FEF757FE214C214920605B
:101F8000684602F0B9FC694603A802F0F8FC216833
:101F900003A802F090FD1C4902F07BFD01461B489E
:101FA00002F06AFB03A802F065FC684602F062FCDE
:101FB0001248FEF777FE10B9144815490FE00F4894
:101FC000FFF796F910B91148124908E00B48FEF7DF
:101FD00047FF0A48FFF78EFB20B90C480E4902F074
:101FE00055FB08E00548FFF701FD0448FEF7A6FB96
:101FF0000248FFF7FDFE06B010BD00BF981200209A
:10200000E812002023F0000834F000080C13002030
:1020100037F0000857F0000877F0000808B50320F3
:10202000002102F0A9FE0420002102F0A5FE0F20ED
:10203000002102F0A1FEBDE808400520002102F0C9
:102040009BBE08B50520012102F0EEFE0320012110
:1020500002F0EAFE0420012102F0E6FEBDE808409D
:102060000F20012102F0E0BE014B0360704700BF6A
:10207000A8F0000810B5034B0446036002F07AFE96
:10208000204610BDA8F0000810B51146044600F027
:10209000A5F8204610BD10B51146044600F0ACF876
:1020A000204610BD10B51146044600F0C3F8204686
:1020B00010BD00000348044B0449054A036002F0C8
:1020C000C9BF00BFF0120020A8F000086920000876
:1020D0000800002038B5064B04460360406820B174
:1020E000A56815B900F0D6FD6560204638BD00BF73
:1020F000B8F0000810B50446FFF7ECFF204602F0E8
:1021000039FE204610BD406838B50D4658B100F084
:10211000DBFF04462146284602F093FA0546204696
:1021200001F0E2F8284638BD024A0260002242600F
:1021300082607047B8F0000810B50446406801F0AE
:10214000B6F808B16368586910BD10B50446406818
:1021500001F0B4F808B16368186910BDB0B5044661
:1021600000AF48680D4601F0B7F820B9124B606027
:102170002360A0601CE0686800F0A9FF83000A33B8
:1021800023F00703ADEB030D6B6801469A686846C0
:1021900000238B4205DA156A40F823501268013398
:1021A000F7E701F047F8044B606023600023A36069
:1021B0002046BD46B0BD00BFB8F0000838B50446A3
:1021C00040680D4601F088F830B16068294600F09B
:1021D00086FF003018BF012038BD000010B504464E
:1021E000086800F06DFF034B606023600023A3606C
:1021F000204610BDB8F0000830B5496885B00446E7
:1022000011B902F079FB11E0084600F05DFF0546C8
:10221000294601A802F070FB284601F065F8204627
:1022200001A902F018FB01A802F024FB204605B02A
:1022300030BD000038B54D680446002D31D0284629
:1022400001F021F800282CD1284601F023F810B124
:102250002046174927E0284601F023F810B1204610
:10226000144920E0284601F022F810B12046124916
:1022700019E0284601F022F810B120460F4912E07B
:10228000284601F022F810B120460D490BE02846FF
:1022900001F022F810B120460A4904E020460A491C
:1022A00001E00A49204602F027FB204638BD00BF66
:1022B000C8F00008D0F00008D5F00008DCF00008F5
:1022C000E3F00008E9F00008F0F000083AEF000839
:1022D00038B5456804464160DDB18068A0B100F0C2
:1022E000FBFF30B1A068296A6268BDE8384001F0A0
:1022F00029B8A06800F0E9FF58B1A06829466268D3
:10230000BDE8384000F0EEBE2846BDE8384000F099
:10231000C1BC38BD10B50446084602F0F3FF00F01A
:1023200023FF01462046BDE81040FFF7D1BF10B59E
:102330000446084600F04CFF01462046BDE8104028
:10234000FFF7C6BF0968FFF7F2BF000070B505468A
:1023500048680C46164600F0BFFF28B900F05EFF43
:1023600001462046FFF7B4FF6068314600F0B7FE33
:1023700018B96068314600F0E3FE6368024A68609D
:102380002A60AB60284670BDB8F000080448054BD1
:1023900005490360054A00234360836002F05ABE8A
:1023A000F4120020B8F00008D52000080800002032
:1023B00010B500221346815CA1F13004092C01D82C
:1023C000303B0AE0A1F14104052C01D8373B04E081
:1023D000A1F16104052C0AD8573B032A0B4402F1F2
:1023E000010218BF1B01042AE5D1184610BD0020C8
:1023F00010BD2DE9F0470B688A688146551C9E1870
:102400009A5C8846222A1D4440F0CA804C682F46B8
:102410000022F91AA14280F0C3803978222909D01C
:102420005C2905D10137F91AA14280F0B980013247
:102430000137EEE7C2F10102B81BD8F810301044A2
:1024400098478246002800F0AB800446BD4280F0E9
:102450008B802B785C2B03D0237001350134F5E79A
:102460007A1B002A40F390806B78662B19D00CD829
:102470002F2B17D002D8222B14D085E05C2B11D043
:10248000622B40F0818008230CE0722B0ED003D821
:102490006E2B79D10A2305E0742B09D0752B09D056
:1024A00072E00C232370013402235BE00D23F9E773
:1024B0000923F7E7052A67DDA81CFFF779FFA0F5D8
:1024C0005C43B3F5806F06465ED3A0F55843B3F581
:1024D000806F1CD2AB1DFB1A052B55DDAB795C2B35
:1024E00052D1EB79752B4FD105F10800FFF760FF52
:1024F000A0F55C43B3F5806F46D2C0F30900C6F384
:10250000090640EA862606F580360C2306E07F2879
:102510004FF006030BD9B0F5006F0BD3B6F5803F33
:102520000BD3B6F5881F2FD2F021042207E000213B
:10253000012204E0C021022201E0E0210322501E1A
:10254000C0B240B106F03F0C6CF07F0C04F800C044
:10255000B6090138F4E7012A14BF0E4306F07F06DE
:10256000267014441D4471E7002323701023C9F81A
:102570000C30D8F80030C9F810A0FB1A0133C8F8A5
:1025800008300120BDE8F087D8F81430504698474D
:10259000D8F80030ED1AC8F808500020BDE8F087E0
:1025A000002DF5D1F9E710B590B102687AB1416814
:1025B00083688B4202D38B4206D010BDD45C202CA2
:1025C000F9D801338360F3E7013B836010BD104607
:1025D00010BD61B160B183680BB9816005E01A6814
:1025E0000AB11346FBE719604B60012070470846AB
:1025F000704738B5044638B1006828B1A56828444A
:1026000004F09EFD2844A06038BD70B50446002843
:102610003ED0006800283DD0636813B1A2689A429A
:1026200037D2002935DBA268561C0E449E4201D8E1
:10263000104470BD2369002B2BD1B6F1804F06D317
:10264000002EA8BF6FF0004602DA184670BD760073
:10265000236A23B1314698470546A0B904E0A3692F
:1026600030469847054630B92068E3699847656069
:102670002560284670BDA2682168013203F0F0FF92
:10268000E36920689847A06884E86000284470BD2A
:1026900070BD002070BD00002DE9F84307460846D4
:1026A00011B90020BDE8F88317B13A4600250DE0C6
:1026B0000321FFF7AAFF0028F3D0384904F0E2FC19
:1026C00068E00D2B0DD80C2B06D30135904612F87F
:1026D000013B002BF5D10CE0A3F10801022904D83D
:1026E000F3E7222BF1D05C2BEFD01F2B98BF0535E1
:1026F000ECE7C7EB0808A84408F10301FFF785FFE2
:1027000006460028CDD04FF02209013086F800900F
:1027100045B946443946424603F0A2FF86F8019087
:10272000B57037E0044617F8013B7BB31F2B06D981
:10273000222B04D05C2B02D02370204624E05C23A3
:10274000237017F8012C601C0C2A12D007D8092A14
:1027500013D00A2A0FD0082A12D162230EE0222AAF
:1027600005D05C2A03D00D2A0AD1722306E06270DC
:102770000AE0662302E06E2300E07423637003E046
:10278000074904F091FA601D441CCCE7464422221C
:102790007270B3700120BDE8F88300BFF8F0000844
:1027A000FBF000082DE9F8430D4600284CD0002925
:1027B0003FD084685AB9254B1E680EE0216A002973
:1027C0003DD0284604F040FB002838D02468002C77
:1027D000F4D131E0206A18B92468002CFAD12BE03A
:1027E00085422CD000216B5CF21892F801C0425C4B
:1027F0000CF0030CB7187F78BCF1010F07F003074A
:102800000CBF03F120099946012F0CBF02F12008EB
:102810009046C14503D10131002BE4D10FE0BCF15A
:10282000010F08BF2033012F08BF20329342D3D1BC
:1028300005E00846BDE8F8832046BDE8F883236A32
:10284000002B14BF20460020BDE8F88304090020B7
:1028500010B5034628209847044618B100212822C5
:1028600003F0DAFF204610BD2DE9F0410E468AB094
:102870000546002800F08081002900F07D81047B5E
:10288000082C39D007DC022C2BD0042C15D0012CBD
:1028900040F072811AE0202C00F08B8007DC102CB5
:1028A00040F06A810069FFF7F7FE044665E1402CBD
:1028B00000F0C380802C69D05EE108460521FFF757
:1028C000A4FE002800F05881A04912E00846062125
:1028D000FFF79BFE002800F04F819D4904F0D2FBDA
:1028E0004BE108460521FFF790FE002800F04481E7
:1028F000984904F0C7FB3DE1D0E9064500220023DA
:102900002046294602F064FD0022002302F0C8FFA1
:1029100003AF30B938468D4904F0B4FB4FF00408DA
:102920001FE08D4922462B46384604F0BDF98B49FD
:1029300080466A46384604F0DDF9012806D1DDE913
:10294000000122462B4602F0ABFF30B938468449DD
:1029500022462B4604F0A8F98046B8F1190F00F280
:102960000B81304608F10101FFF74FFE002800F00F
:1029700003810023434503D0FA5CC2540133F9E7D5
:102980000022C254B2681344B360F3E00069002827
:1029900000F0F28004F0D4FB441C21463046FFF7DF
:1029A00034FE002800F0E8802969224603F058FE32
:1029B000E0E0846808460121FFF727FE002800F0C8
:1029C000DB805B230370B3680133B360F3680133CA
:1029D000F3603CB320463146FFF746FF002800F085
:1029E000CB803046FFF705FE2368CBB173693046D4
:1029F000002B0CBF01250225691CFFF706FE0028ED
:102A000000F0BA802C23037073690BB9431C02E0F9
:102A10002022831C427000221A70B3681D44B560E6
:102A20002468D6E730460221FFF7EFFD002800F0CA
:102A3000A3805D230370447099E04B698468002B88
:102A40000CBF012502250846691CFFF7DEFD0028A2
:102A500000F092807B230370F3680133F3607369A5
:102A60000BB10A234370B3681D44B5607369002C31
:102A700056D083B13046F168FFF7C7FD00287BD000
:102A80000023F268934203D20922C2540133F8E7CB
:102A9000B3681A44B260206A3146FFF7FDFD002892
:102AA0006AD03046FFF7A5FD73693046002B0CBF96
:102AB000012502252946FFF7A8FD00285CD03A230E
:102AC000037073690BB109234370B36820461D443A
:102AD000B5603146FFF7C8FE00284DD03046FFF7FD
:102AE00088FD75692368003518BF0125002B18BFC4
:102AF00001353046691CFFF788FD00283CD023686B
:102B000013B12C2303700130736913B10A230370CE
:102B1000013000230370B36824681D44B560A5E745
:102B200013B1F168013100E002213046FFF76DFD7D
:102B300010B37369BBB10346F268191A013A9142A6
:102B400010D2092203F8012BF6E700BFD0F00008ED
:102B500001F1000807F100080CF1000813F100086A
:102B600017F1000818467D23037000234370F368B3
:102B7000013BF360012400E0002420460AB0BDE8D8
:102B8000F08100BF70B5064668B104F0D9FA074B72
:102B9000451C1B6828469847044628B131462A46FA
:102BA00003F05EFD00E070BD204670BD0C0000200B
:102BB000F8B514460646F8B1F1B1EAB123B1D768C9
:102BC0000D4647F4007707E00846FFF7DBFF0546B0
:102BD00090B1E76827F40077E3689B0504D4206A86
:102BE00010B1064B5B6898472562E7603046214686
:102BF000BDE8F840FFF7EDBC0020F8BD0C00002058
:102C0000F0B5234C8BB00D4624220021064601A8C6
:102C100003F002FE23684FF4807098474FF48072EF
:102C2000034606950AAD01900292274694E80700F4
:102C300005E9070023B3304601A9FFF715FEF8B1F7
:102C400001A8FFF7D6FCA568039925B101980131C9
:102C5000A847D0B914E02368481C9847064678B1C5
:102C6000039A029B01329A4228BF1A46019903F047
:102C7000F7FC039BF554019863689847304604E0DD
:102C8000019808B17B68984700200BB0F0BD00BFE9
:102C90000C00002070B50446E4B1E3682668DA054C
:102CA00003D4A06808B1FFF7F5FFE3680A4D13F4F9
:102CB000807F03D1206908B16B689847E3689B0562
:102CC00003D4206A08B16B68984720466B68984720
:102CD0003446E1E770BD00BF0C000020000000009A
:102CE0002DE9F047074692B00E46002900F06E81AC
:102CF0000D68002D00F06C818C68D1F8048004F11F
:102D00000409C1450AD82819A349042204F048FA45
:102D100020B90423FB60C6F808907DE004F1050AA1
:102D2000C2450AD828199D49052204F039FA20B96C
:102D30000120F860C6F808A04DE1C1450CD828195B
:102D40009749042204F02CFA30B902230120FB60D9
:102D50007861C6F808903EE1444580F03B812B5DE8
:102D60002919222B04D138463146FFF742FB32E1C4
:102D70002D2B03D0A3F13002092A51D80022019251
:102D8000C4EB0804A2420DF1080813D08B5C392B68
:102D900007D8302B09D22D2B07D02E2B05D02B2B6B
:102DA00002E0452B01D0652B04D108F80230013236
:102DB0003F2AE7D112AB1A444FF0000A404601A95E
:102DC00002F840AC05F088FCDDF804900446C145EB
:102DD0000D4623D06EA3D3E90023C7E9064502F0D0
:102DE0007DFD10B16FF0004308E020462946002227
:102DF0006C4B02F069FD18B14FF000437B6104E0B9
:102E00002046294602F07EFD78610823FB60B36806
:102E1000C8EB09084344B3600120DCE05046DAE027
:102E20005B2B50D1F368B3F57A7F80F0D380013308
:102E3000F3602B5D5B2B40F0CD800134B4603046F5
:102E4000FFF7B1FBB368726893425BD23268D25C21
:102E50005D2A2BD0013B4FF00008B3604446306937
:102E6000FFF7F6FC054648B324B1C8F80000C0F8E7
:102E7000048000E00446B36830460133B360FFF7D6
:102E800092FB28463146FFF72BFFD0B13046FFF7C3
:102E90008AFBB3687268934213D23268D35C2C2BDE
:102EA00002D05D2B0DD102E0A846D8E70024F368DC
:102EB000013BF3602023FB60BC607FE0002C00F04E
:102EC000898020467FE07B2B40F08480F368B3F557
:102ED0007A7F7FD20133F3602B5D7B2B7AD1013473
:102EE000B4603046FFF75FFBB3687268934209D263
:102EF0003268D25C7D2A5AD0013B4FF00008B360A3
:102F000045463AE0013BB36064E0002D3CD0C8F890
:102F10000000C0F80480B36830460133B360FFF7A7
:102F200042FB20463146FFF764FA00284AD030467B
:102F3000FFF739FB23697268236200232361B368BA
:102F400093423FD23268D25C3A2A3BD10133B3601C
:102F50003046FFF728FB20463146FFF7C1FE002828
:102F600030D03046FFF71FFBB3687268934229D216
:102F70003268D35C2C2B17D1A0463069FFF768FC70
:102F800004460028C1D11CE00546C4E7AFF3008029
:102F90000000C0FFFFFFDF41D0F0000801F1000892
:102FA00007F100080000E0C17D2B0BD100E00025F7
:102FB000F368013BF3604023FB60BD60B3680133FD
:102FC00029E73DB12846FFF765FE03E0084602E029
:102FD000284600E0002012B0BDE8F087AFF3008083
:102FE0002DE9F04389B004460E46914601A8002120
:102FF0001C2203F011FC2F4B00271F605F609846D6
:10300000002C53D02046019404F09AF82A4B01304A
:10301000029093E8070008AB03E90700FFF718FCEC
:103020000546002831D0019878B1039B53B9029B23
:10303000042B09D92149032204F0B2F820B9032353
:10304000039301E0384600E001A8FFF7ACFA01461F
:103050002846FFF745FEA8B1B9F1000F05D17EB1B2
:10306000039B019A134433600AE001A8FFF79BFA1F
:10307000039B029A934205D2019AD35C13B9EEE7FF
:10308000284614E02846FFF705FE039B029A934268
:1030900003D30AB1531E00E013460EB1E2183260AA
:1030A000C8F80040C8F80430002000E0204609B00D
:1030B000BDE8F083001300200C00002027F1000879
:1030C00000210A46FFF78CBF0021FFF799BD28B108
:1030D0008368002013B101301B68FBE770470122B1
:1030E000FFF760BB10B5E8B1BAB1C1B18A4218D0E0
:1030F0000B684C681360546003B15A60536803B1A5
:103100001A6083688B424FF0000308BF82600B6037
:103110004B600846FFF7BEFD03E0104610BD0846B1
:1031200010BD012010BD000008B5044B1868FFF762
:103130008FFB08B10423C36008BD00BF0C00002052
:1031400070B505460E46FFF7EFFF044631462846A8
:1031500022460023FFF72CFD054620461DB9FFF748
:1031600099FD284670BD70BD174B70B504461868B0
:103170000D46FFF76DFB0646F0B10823C360C0E9BA
:1031800006450FA3D3E900232046294602F0A6FBFB
:1031900010B16FF0004308E02046294600220B4B97
:1031A00002F092FB18B14FF00043736104E0204637
:1031B000294602F0A7FB7061304670BDAFF3008076
:1031C0000000C0FFFFFFDF410C0000200000E0C155
:1031D00038B50B4B05461868FFF73AFB044660B15B
:1031E0001023C3602846FFF7CDFC0546206120462A
:1031F00025B9FFF74FFD284638BD38BD38BD00BFA3
:103200000C00002008B5044B1868FFF721FB08B13B
:103210002023C36008BD00BF0C00002008B5044B8C
:103220001868FFF715FB08B14023C36008BD00BF55
:103230000C0000202DE9F843B1F10009804602DAC4
:103240000020BDE8F8830028FAD0FFF7DBFF064630
:103250000028F5D000273D464D4511D258F82500ED
:10326000FFF7B6FF044618B93046FFF713FDE7E74E
:103270000DB9B06001E03860476001352746EBE7E3
:103280003046BDE8F88320B1007BD0F1010038BFA3
:103290000020704720B1C06810F0030018BF012063
:1032A000704718B1007B031F58425841704720B146
:1032B000007BB0F1080358425841704720B1007BB1
:1032C000B0F1100358425841704720B1007BB0F173
:1032D000200358425841704720B1007BB0F14003B1
:1032E000584258417047000008B5024B5B68984748
:1032F00008BD00BF0C000020F8B506460D461F466D
:103300001446DAB1E1B1D3689B0503D4106A08B161
:10331000FFF7EAFF2846FFF735FCE368206223F455
:103320000073E36029463A463046FFF73BFA2246EF
:1033300001463046FFF7D6FE0120F8BD1046F8BD25
:103340000846F8BD0123FFF7D7BF122938B5054657
:10335000144608460BD0132910D0112916D100F0BD
:103360006DF80CB120460FE047F6FF700CE000F05E
:1033700065F8002CF6D149F63F4005E000F05EF814
:10338000002CEFD14FF2234000F0E0F8284638BD82
:1033900013B50022044601A8FFF7D7FF204602B06C
:1033A00010BD0000054B1B681B685B0103F18443E3
:1033B00094331A68002AFCD0704700BF1800002020
:1033C000054B1B681B685B0103F184438C331A684F
:1033D000002AFCD0704700BF1800002008B5FFF796
:1033E000E1FF054B00221B681B685B0103F184436E
:1033F000C3F88C2008BD00BF1800002008B5FFF7F7
:10340000D1FF054B01221B681B685B0103F184435C
:10341000C3F8902008BD00BF1800002008B5FFF7D2
:10342000C1FF054B00221B681B685B0103F184434D
:10343000C3F8902008BD00BF1800002010B5044656
:1034400000F0C1FA00F0CCFA204A112C136A23F4E0
:103450004073136213460BD005D8C4B1102C2AD187
:103460000023136227E0122C11D0132C1AD022E073
:10347000174A00211160012142F8081C154A126800
:1034800012F0FF0FFAD01A6A42F4807212E0124A68
:1034900001211160114A1268002AFBD01A6A42F415
:1034A000007207E00E4A126812F0FF0FFAD01A6A93
:1034B00042F440721A620B4B01221A60FFF78EFF32
:1034C000FFF77EFFBDE81040FFF76CBF0010024021
:1034D00008044242040442428004424284044242BC
:1034E000440042423C044242F8B5104B1E68356825
:1034F0002B686F681F4017F0010403D074680CB18B
:10350000A0470124BA0704D5B36813B1984744F023
:1035100002047B0704D5F36813B1984744F0040410
:103520006B6823EA04046C60F8BD00BF180000203B
:1035300008B5044B1B681B691BB19847024B01225D
:103540001A6008BD18000020C482204210B504464D
:10355000FFF744FFFFF734FFFFF724FFFFF74EFFAD
:10356000064B220C1B68A4B21B689A60DC60FFF754
:1035700055FFBDE81040FFF715BF00BF1800002041
:1035800001498D4601490847005000209135000847
:1035900008B5124B124A1968914201D0002301E08C
:1035A000104B07E01048D4188442F9D2C858D050C4
:1035B0000433F7E70D4A934203D2002243F8042B69
:1035C000F8E702F03BFD00200146024601F0CCFB8B
:1035D000074B0BB102F022FDFEE700BF24F8000804
:1035E00000000020A8110020A811002000140020D5
:1035F0001D60000808B50D4B1A680AB90C4A1A601C
:103600001B680C4AD21A824204DB09494242591A09
:10361000914206DA02F0FCFC0C2303604FF0FF300D
:1036200008BD024A18441060184608BD081300205F
:1036300000140020783A0128FEE770470B4B10B5C4
:10364000196809220A230A4800F0C8FE094B022221
:1036500019680948032300F0C1FEBDE81040074B7C
:10366000074819681A221B2300F0B8BE3C0100204D
:103670000C130020400100202413002044010020EE
:103680003C13002010B5044600F082F9034B20469D
:103690001978BDE8104000F017B900BF34000020D1
:1036A000F8B50446056800F00DFB226800235101BF
:1036B00001F184410B60802129600121A9622B6105
:1036C000EB606379696113B18B4203D02BE04FF457
:1036D00000436B644FF6FF73D36200256E1CF7B294
:1036E0002046394600F0F8FAD0B1236848F6FF7159
:1036F00003F1340242F8251018336D1017F0010F52
:1037000053F8252014BF6FF0FF016FF47F4101EAE9
:10371000020214BF68214FF4D0410A4343F8252028
:10372000042E3546DAD1216801224B01490103F10B
:10373000844301F18441C3F880220A60F8BD00008F
:1037400038B5274B274C1A68022042F010021A6045
:1037500000F04CF90025002000F0DEF965602368D8
:10376000182023F40023236000F0E3F9102000F078
:10377000E0F900F043F8A560102000F0CDF910202A
:1037800000F0E5F90028FAD000F039F8164800F00A
:10379000EBF9182000F0C0F9182000F0D8F9002843
:1037A000FAD0022000F0A8F900214FF0006000F0EC
:1037B00085F90E4800F03EFA00F038F80C4B1888F6
:1037C00000F0D4F80B4800F0D5F80B4800F066FA8A
:1037D00000F02EF800F02DF8FFF72FFF38BD00BFE6
:1037E0000020024000100240380000203F19010074
:1037F0003600002085360008A1360008704708B55D
:103800000020014600F0EEF901204FF4806100F045
:10381000E9F90021022000F0E5F92D2000F0F2F98D
:10382000BDE808400320002100F0DCB900F0E8B852
:10383000704700F025B90000000000000000000003
:10384000012007E0022005E0032003E0042001E05E
:103850000520FFE70D4A0121116072B60C4A0021D4
:103860001160074902B4084902B486B005498E4682
:10387000704700BFAFF30080AFF30080AFF300806C
:1038800000000061F9FFFFFFF942000814ED00E0BD
:1038900010E000E0AFF30080AFF30080AFF30080F2
:1038A000FEE710B50446007900F06AF92079BDE81A
:1038B000104000F07DB903689A6822F4602242F457
:1038C0008012114399607047002370B51A461C4658
:1038D000072B4FEA430503DCEE1801FA06F63443E2
:1038E0001D4401FA05F501330A2B42EA0502EFD126
:1038F0000368DC601A6170BD38B5124D2A68136820
:103900001C68A10706D5196821F0020119609368A7
:1039100003B19847620708D52B681A681B691168BC
:1039200021F00401116003B19847E30708D52B6823
:103930001A68DB68116821F00101116003B1984732
:1039400038BD00BF64000020036801225B0103F161
:10395000844303F58673191F1A6018680028FCD188
:1039600043F8042C0B68002BFCD17047014604205F
:1039700000F038B9044B10B504461868A047034B53
:103980001868A04710BD00BF640000206000002040
:1039900010B50446FFF785FF20464FF46021FFF77E
:1039A0008AFF2368012103F1404308335A015B0178
:1039B00002F1844203F18443116520461960BDE899
:1039C0001040FFF7C1BF08B5142000F0D9F804205B
:1039D00000F0D6F8BDE80840042000F0E9B8000087
:1039E000014B01221A60704720000E42034B1A68F7
:1039F00022F0070210431860704700BF0020024009
:103A000008B5074801F099FA064801F096FA064809
:103A100001F093FABDE80840044801F08EBA00BFF7
:103A20006800002070000020780000208000002046
:103A300070B501F00704A4000F25A5400368C8086D
:103A400053F82060092A26EA050514BF1646082601
:103A500006FA04F4082A44EA050443F8204006D193
:103A6000012000FA01F1DA6822EA010106E0092AE0
:103A700005D1012000FA01F1DA681143D96070BD67
:103A800008B5032000F07CF8BDE80840032000F0F2
:103A90008FB8000000284FEA011105DA064B00F04C
:103AA0000F00C9B21954704700F16040C9B200F567
:103AB000614080F80013704714ED00E021F0604190
:103AC00038B521F07F01084B0843986000241D465B
:103AD00060B20F210134FFF7DDFF2B2CF8D1F0236A
:103AE00085F8233038BD00BF00ED00E0014B13F82E
:103AF0001000704760F30008064B5A6822F003027A
:103B000002435A6080005A6802F00C028242FAD1E5
:103B1000704700BF00100240030A0121C0B201FA41
:103B200000F003F1804303F504331A681043186072
:103B30007047030A0121C0B201FA00F003F180438B
:103B400003F504331A6822EA000018607047030A7C
:103B50000222C0B202FA00F003F1804303F50433FD
:103B60001B68184070470000044B05C8596812686C
:103B700021F4741102430A435A6070470010024056
:103B800010B50446FFF7B2FF074B53F82020074B50
:103B900003EB4404637803EBC2039B0003F184430B
:103BA00001221A6010BD00BF8800002060F30008E9
:103BB00010B50446FFF79AFF084B53F82020084B36
:103BC00003EB4404637803EBC2039B0003F18443DB
:103BD00001221A6000221A6010BD00BF940000206C
:103BE00060F3000810B5054B054C5A6854F82000E6
:103BF00022EA00021143596010BD00BF00100240CC
:103C0000BCF3000810B50446FFF770FF074B53F8EC
:103C10002020074B03EB4404637803EBC2039B00B3
:103C200003F1844300221A6010BD00BF9C000020F5
:103C300060F30008024B072258601A60704700BF0B
:103C400010E000E008B5044B1A6801321A60034B1B
:103C50001B6803B1984708BDF413002054130020DB
:103C600011F0010F70B542EA03030CBF08250025CF
:103C700003FA05F5006801F1FF3400F11800C4F300
:103C8000400450F8241014BF6FF0FF066FF47F4615
:103C90003140294340F8241070BD000010B504469F
:103CA0000448A0470448A0470448A0470448A04748
:103CB00010BD00BFF000002018010020A800002067
:103CC000CC00002010B504460079FFF759FF207999
:103CD000BDE81040FFF76CBF03791E2B10D9212BD4
:103CE0000ED0202B0ED9222B01D0252B04D1022956
:103CF0008CBF0020012070474B1E5842584170472E
:103D000001207047002070478B1C40F82320036877
:103D1000012203F140430C3301EBC3039B0003F189
:103D200084431A6042790379FAB9B3F11A02534213
:103D30005341072945D8DFE801F004090909090EB4
:103D40000E13002B0CBF2C23192331E0002B0CBFCA
:103D50002E231B232CE0002B0CBF2D231A2327E03E
:103D6000002B0CBF2B23182322E01B3B0C2B28D845
:103D7000DFE803F0071D090B0D0F271113151719A5
:103D80001B001C2314E01E2312E0322310E0362314
:103D90000EE037230CE018230AE0192308E01A2369
:103DA00006E02B2304E02C2302E02D2300E01D235A
:103DB0005909012203F01F0302FA03F3014A42F8F2
:103DC0002130704700E100E00368002203F1404326
:103DD0000C3301EBC3039B0003F1844302311A60EF
:103DE00040F82120704738B543790446022B0D4630
:103DF0003BD0032A39D8DFE802F002111F2DFFF76C
:103E0000E3FF2368013D03F140432033DB0003EB74
:103E100085039B0003F18443002225E00368002210
:103E200003F140430C3301EBC3039B0003F18443D4
:103E30001A606022082301E010220023FFF710FF20
:103E40002368013D03F140432033DB0003EB85038E
:103E50009B0006E003684FF2F1229A6103229A6008
:103E60005B0103F1844301221A6038BD10B5074B92
:103E70001C68E16822690A40120606D55B6A23B114
:103E80009847236923F08003236110BDF0000020D0
:103E900010B5074B1C68E16822690A40D20706D5B5
:103EA0009B6823B19847236923F00103236110BD68
:103EB000F0000020F8B50C4F3D68EB682E691E40FD
:103EC00016F0400403D03C6A0CB1A0474024B3066E
:103ED00004D5FB6913B1984744F020042B6923EA09
:103EE00004042C61F8BD00BFF0000020F8B5134FAA
:103EF0003E68F36835691D4015F0100403D0BC69B5
:103F00000CB1A0471024290704D57B6913B1984749
:103F100044F008046A0704D53B6913B1984744F09C
:103F20000404AB0704D5FB6813B1984744F00204BE
:103F3000336923EA04043461F8BD00BFF0000020B7
:103F4000F8B51A4E3768FB683D691D4015F040040E
:103F500003D0346A0CB1A0474024EB0604D5B36902
:103F600013B1984744F01004280704D5736913B1BE
:103F7000984744F00804690704D5336913B198479A
:103F800044F00404AA0704D5F36813B1984744F039
:103F90000204EB0704D5B36813B1984744F0010459
:103FA0003B6923EA04043C61F8BD00BF180100200E
:103FB000F8B51A4E3768FB683D691D4015F040049E
:103FC00003D0346A0CB1A0474024EB0604D5B36992
:103FD00013B1984744F01004280704D5736913B14E
:103FE000984744F00804690704D5336913B198472A
:103FF00044F00404AA0704D5F36813B1984744F0C9
:104000000204EB0704D5B36813B1984744F00104E8
:104010003B6923EA04043C61F8BD00BFA80000200E
:10402000F8B51A4E3768FB683D691D4015F040042D
:1040300003D0346A0CB1A0474024EB0604D5B36921
:1040400013B1984744F01004280704D5736913B1DD
:10405000984744F00804690704D5336913B19847B9
:1040600044F00404AA0704D5F36813B1984744F058
:104070000204EB0704D5B36813B1984744F0010478
:104080003B6923EA04043C61F8BD00BFCC0000207A
:1040900081880268034689B2505C99881A8989B27E
:1040A00092B2914217BF9A880022013292B2C0B2F6
:1040B0009A807047C28838B5838892B29BB2013229
:1040C0009A4204460D461AD0C288038992B29BB226
:1040D0009A4202D183889BB28BB14FF0FF30E288C5
:1040E000236892B29D54E288238992B29BB29A428D
:1040F00017BFE388002301339BB2E38038BD20461D
:10410000FFF7C6FFEBE770B51E46054608461146A9
:104110000422059CFFF78CFC9DF810100B22304602
:10412000FFF786FC2B6804F00F01DA6804F0300416
:1041300022F4F0521204120C42EA4122DA601A69A7
:1041400022F440521204120C42EA04241C6170BD95
:1041500038B50446154611B900F096F80146192302
:104160005943AD006423B1FBF5F1B1FBF3F2120149
:10417000100903FB101109013231B1FBF3F303F015
:104180000F0321681A4392B28A6038BD38B5114DC9
:10419000EB68980607D52B68990604D569680E4820
:1041A000C9B2FFF787FFEB680A4C1A0611D52368DE
:1041B0001B060ED509488288C38892B29BB29A42E8
:1041C00003D0FFF765FF606038BDE36823F080032C
:1041D000E36038BD0038014064130020581300200C
:1041E00038B5114DEB68980607D52B68990604D5AC
:1041F00069680E48C9B2FFF75DFFEB680A4C1A0602
:1042000011D523681B060ED509488288C38892B24F
:104210009BB29A4203D0FFF73BFF606038BDE36872
:1042200023F08003E36038BD004400407013002099
:104230008813002038B5114DEB68980607D52B6818
:10424000990604D569680E48C9B2FFF733FFEB68D9
:104250000A4C1A0611D523681B060ED50948828818
:10426000C38892B29BB29A4203D0FFF711FF6060FD
:1042700038BDE36823F08003E36038BD00480040A8
:104280007C1300209413002008B590F89002FFF7EB
:104290002DFC20B10128034818BF002008BD0248AA
:1042A00008BD00BF00A24A040051250208B5114B09
:1042B00001211C6803222046FFF7BAFB00230121DD
:1042C0001A469342206834BF02254FF40035B2F5F8
:1042D000007F056103F1010303D0002A08BF01211B
:1042E00001E04FF0FF31B3F5007F04BF5218002307
:1042F000E7E700BF5CF3000808B5034B0BB1AFF371
:10430000008062B6FFF7D2FF0000000003695B681F
:10431000D9889A8889B292B2D8888A1A998880B244
:1043200089B2884203D2198989B201310A4492B212
:1043300082B199881A6889B2505C99881A8989B2C1
:1043400092B2914217BF9A880022013292B2C0B253
:104350009A8070474FF0FF30704703695B68998817
:10436000DA8889B292B2914205D09A881B6892B2DB
:10437000985CC0B270474FF0FF30704703699A688D
:104380009088D18880B289B28842F9D11A681368BE
:104390005B06FCD5704713B504698DF807102046FD
:1043A0000DF10701012200F007FE0028F7D00120DF
:1043B00002B010BD03695B68D8889A8880B292B257
:1043C000D988801A9A8889B292B2914203D21B8905
:1043D0009BB20133184480B27047000030B500250D
:1043E00045604FF47A758560024D01610560027584
:1043F000437530BDD8F3000803692DE9F74FDB683A
:10440000044699420F4692462CD890F81480174DD6
:104410004FEA081808EB050690F8159070684FEA07
:10442000091909EB050B717B10B10022FFF7DBFCCA
:10443000206900F08DFD337B9BF80C2020698DE80E
:10444000080459F8051058F80530FFF75CFE20699C
:1044500000213A46FFF77CFE206903B0BDE8F04F2B
:1044600000F0A0BD03B0BDE8F08F00BF2CF1000844
:104470000022FFF7C1BF0000044B02791B789A426B
:1044800002D1034B1B681860704700BFB0130020B7
:10449000B4130020002310B50446036072B6054B28
:1044A00019311970044B18600448FFF7F7FB62B626
:1044B000204610BDB0130020B4130020794400083A
:1044C000036800221B685B0103F184431A60704794
:1044D000036801221B685B0103F184431A60704783
:1044E000036801391B6889B29962704703681B68C9
:1044F000DA6A92B2914228BF11465962704738B5C4
:10450000054639B9036801221B689962DA62D86AE4
:1045100080B238BD48244C434FF6FF71B4FBF1F133
:10452000013189B204EB5104B4FBF1F4FFF7D8FF79
:104530002B68A4B21B682046DC6238BD0068C9B293
:10454000FFF7E2BB08B501210848FFF7A3FF0221EE
:104550000748FFF79FFF03210648FFF79BFFBDE8D1
:10456000084005480421FFF795BF00BFA0130020B5
:10457000A4130020A8130020AC1300202DE9F04163
:10458000002407460E4625463B1919790A22304673
:1045900000F013F92E218046304600F04DF801342A
:1045A0004044032C0544EFD13046F9790A2200F04B
:1045B00004F92844BDE8F08130B58371034D9DF8BE
:1045C0000C30056001714271C37130BD00F4000808
:1045D000044B054A1A6000221A715A719A71DA71F5
:1045E000704700BFB813002000F4000870B50546FE
:1045F0000E460024315D29B12A682846126890478A
:104600000134F7E7204670BDF8B505460C4616465E
:104610008F18BC4206D02B6828461B6814F8011B73
:104620009847F6E73046F8BD10B502680B46946827
:1046300009689A68A04710BD08B503681B689847C9
:1046400008BD08B503685B68984708BDFFF7F9BF68
:1046500010B50A680446126808462146904710BD06
:1046600038B50D210546FFF7E7FF0A210446284625
:10467000FFF7E2FF204438BD38B50446FFF7D4FF0A
:1046800005462046FFF7ECFF284438BD38B5044600
:10469000FFF7D7FF05462046FFF7E2FF284438BD65
:1046A00038B50446FFF7CDFF05462046FFF7D8FF93
:1046B000284438BD38B50446FFF7CAFF05462046F2
:1046C000FFF7CEFF284438BD2DE9F04F14461D46B4
:1046D00091B054EA050381469DF868B004D13021B9
:1046E000FFF7AAFF01202EE04FF000085FFA8BF6DB
:1046F00000272046294632463B4601F07BF908F167
:1047000001080DF1000AC2440AF8012C204629468E
:104710003B46324601F06EF904460D4654EA050365
:10472000E4D1002408F1FF381DF808104846092993
:1047300094BF30313731C9B2FFF77EFF0444B8F17E
:10474000000FEFD1204611B0BDE8F08F2DE9F04108
:10475000069F064614461D462FB90368D1B21B6852
:104760009847BDE8F081002C75F1000305DA2D2192
:10477000FFF762FF644265EB4505FFB206973046DE
:1047800022462B46BDE8F041FFF79EBF07B5CB1789
:1047900000920A46FFF7DAFF03B05DF804FB70B53C
:1047A000049921B90368D1B21B68984770BDC9B29A
:1047B0000491BDE87040FFF787BF07B50023009262
:1047C000CAB2FFF7ECFF03B05DF804FB07B50023A6
:1047D00000920A46FFF7E3FF03B05DF804FB38B52B
:1047E0000446FFF7F3FF05462046FFF739FF28444C
:1047F00038BD000038B50A4B04461A681D46C26031
:104800002268204613699847002807DAE2682B6877
:104810009B1AA2689342F3D34FF0FF3038BD00BF1C
:10482000F413002070B50D4609490446164600F001
:1048300063F82846FFF7DEFF01460029204605DB26
:10484000B14203D0C9B200F0E8F8F2E770BD00BF92
:10485000E4EA000870470022026010B50C6842606C
:1048600004604C68826044608C6884600A604A60BE
:104870008A6010BD10B50446006801F019FC20469E
:1048800010BD10B50446006808B101F011FC00230A
:104890002360A360636010BD38B504460D46006810
:1048A000013102F007F810B184E82100012038BD81
:1048B000036810B5044613B143688B4207D2204603
:1048C000FFF7EAFF20B1A3680BB92268137001203B
:1048D00010BD70B50E46114604461546FFF7E8FFB9
:1048E00018B92046FFF7CDFF04E0A56020683146E7
:1048F00002F0C8FB204670BD38B5002304460360B3
:10490000436083600D4639B1084602F019FC294620
:1049100002462046FFF7DDFF204638BD38B5054684
:1049200000680C4678B1096859B10C4B4BB16A6804
:10493000A3689A4205D302F0A5FBA368AB600023ED
:104940000AE001F0B5FB23682B6063686B60A36825
:10495000AB60002323606360A36038BD5548000846
:10496000884210B50B46044607D0096819B19A6809
:10497000FFF7AFFF01E0FFF784FF204610BD10B541
:1049800000230446036043608360FFF7E9FF20468D
:1049900010BD884210B5044601D0FFF7BFFF204686
:1049A00010BD38B505460C4641B1084602F0C8FBBB
:1049B000214602462846FFF78CFF01E0FFF761FF22
:1049C000284638BD70B5044685680E4609B90020F2
:1049D00070BD62B115442946FFF76AFF0028F6D082
:1049E0002068A3683146184402F04CFBA560012002
:1049F00070BD0B469A680968FFF7E4BF38B50546F5
:104A00000C46084641B102F09BFB2146024628466F
:104A1000BDE83840FFF7D6BF38BD07B500238DF895
:104A20000410012201A98DF80530FFF7CBFF03B078
:104A30005DF804FB13B50A220446084601A900F0FC
:104A40004FFA01A802F07CFB01A902462046FFF7BD
:104A5000B9FF02B010BD1FB504460A2208466946D8
:104A600000F069FA684602F06BFB69460246204690
:104A7000FFF7A8FF04B010BD0B4610B509689A688F
:104A80000446FFF79FFF10B92046FFF7FAFE2046C5
:104A900010BD38B504460D4641B1084602F050FB42
:104AA000294602462046FFF78DFF10B92046FFF742
:104AB000E8FE204638BD10B50446FFF7CCFF10B91C
:104AC0002046FFF7DEFE204610BD826808B50B4683
:104AD00012B919B9012008BD11B90368187802E0AC
:104AE000006802F0B1F9D0F1010038BF002008BD24
:104AF00008B582688B689A420CD3006868B109686F
:104B000051B1D31A184402F09FF9D0F1010038BF17
:104B1000002008BD002008BD084608BD38B50C4679
:104B20009AB191B181688B4202D30023237038BDC2
:104B3000C91A551E8D4228BF0D4601682A461944E0
:104B4000204602F087FB0023635538BD836810B50B
:104B50009A4206D20468A01802F0FCF808B1001BC3
:104B600010BD4FF0FF3010BDF8B515468A680F46EE
:104B7000C2B18368B3B19A4214D806689D4228BF77
:104B800003F1FF3530464FF0FF34731998420CD8CB
:104B9000396802F0E5FC40B1831BAB4298BF1C466C
:104BA0000130F2E74FF0FF30F8BD2046F8BD0000BD
:104BB0009A422DE9F04107460D4614461E4601D99A
:104BC0003446164638460C49FFF796FEAB689C42C1
:104BD0000FD29E4228BF1E462B68002213F8068083
:104BE0009A55296838462144FFF7DBFE2B6803F805
:104BF00006803846BDE8F081E4EA00082DE9F74F69
:104C0000D0F808A004460F461646BAF1000F77D038
:104C1000D1F808B0BBF1000F72D093680568CBEBF8
:104C20000308B8F1000F0DD12846396802F098FC4E
:104C30000546002864D03168B26801F011FDB36800
:104C40001D44F1E702DB0B68D14622E0A946284665
:104C5000396802F085FC8246A0B1C5EB0A0B2946F3
:104C600048465A46D94401F0FBFC48463168B268D0
:104C700001F0F6FCB368BD689944A3685544434409
:104C8000A360E4E74846294603B0BDE8F04F02F0D0
:104C9000F9B919462846019302F062FC019B18B14C
:104CA00000EB0B05C144F4E7D14529D06368994571
:104CB00004D920464946FFF7EFFD08B3A268013A40
:104CC000002A1DDB20463946FFF74EFF051E17DB85
:104CD000BA682168A3682A44114401EB08009A1AB3
:104CE00001F034FDA368226843440021A360D1543D
:104CF0002068B2682844316801F0B2FC6A1EDFE720
:104D000003B0BDE8F08F2DE9F0410668054616B303
:104D1000876807B3B0464446207808F1010801F0DF
:104D2000B5F90028F7D1013F3744387801F0AEF9E2
:104D300048B901373A1BB442AA6008D93046214627
:104D400001F08EFC03E0A742F3D3013FEDE72A68B0
:104D5000AB680021D154BDE8F081006808B101F0D2
:104D600049B97047FEF7ECBC08B5FDF7DBF8FDF775
:104D7000FFF8FCE701F09CB9222870B53BD8082960
:104D800039D8DFE801F0051A080B0E1108141700D6
:104D90000024032213E00024042210E00024224611
:104DA0000DE0002409220AE00024082207E0012483
:104DB0000B2204E001240F2201E0002407220E4B05
:104DC00000011E18317B1858FEF732FE706890B152
:104DD000717B24B10122BDE87040FFF704B803687D
:104DE000013903F140432033DB0003EB81039B00D7
:104DF00003F184431C6070BD2CF1000822280ED8FA
:104E0000084B00011A18127B012101FA02F21B580B
:104E10001B689B681A420CBF0020012070470020CD
:104E2000704700BF2CF10008222810D8084B000161
:104E30001A18127B1B58012000FA02F2D1F101016D
:104E400038BF0021090102FA01F11B68196170479E
:104E50002CF10008054B70B51C6806461D4600F095
:104E600007F82B681B1BB342F9D370BDF413002065
:104E70007047F0B58BB059B3931E222B2AD80A2A5B
:104E80002AD1002828DA4042012501AB1E4670B124
:104E9000B0FBF2F702FB1704092C3846D8BF3034B8
:104EA00003F10107C8BF57341C703B46EFE7B3421C
:104EB000EED01DB12D204A1C087000E00A46B34216
:104EC00004D913F8010D02F8010BF8E70023137061
:104ED000084603E0002001E00025D6E70BB0F0BD56
:104EE000FFF7C7BF70B58AB001B3931E222B1FD83E
:104EF00001AB1D4670B1B0FBF2F602FB1604092CA3
:104F00003046D8BF303403F10106C8BF57341C7097
:104F10003346EFE7AB42EED00A46AB4204D913F872
:104F2000010D02F8010BF8E700231370084600E0BA
:104F300000200AB070BDFFF7D5BF10B50446007958
:104F4000FEF71EFE2079BDE81040FEF731BE0000DE
:104F5000436800227F2110B59A80DA80198100F120
:104F600010011960836804469A80DA8040F2FF12CB
:104F70001A8100F190021A6090F89002FEF700FE8C
:104F800094F891325AB2002A08DB012103F01F0382
:104F900001FA03F30249521141F8223010BD00BF5B
:104FA00000E100E00368DA6842F02C02DA60DA68B7
:104FB00042F40052DA607047F0B583680546046831
:104FC00000209F88DE88BFB2B6B2B74204D0E36843
:104FD00023F08003E36027E026683606F7D5904289
:104FE000F5D00E5C01306660EBE7DF889E88BFB2CB
:104FF000B6B20137B74211F800C01DD0DF881E8954
:10500000BFB2B6B2B74213D0DF881E68BFB206F88F
:1050100007C0DF881E89BFB2B6B2B74218D0DE889B
:105020000136B6B2DE8001309042AB68DDD303E0DA
:105030009E88B6B2002EE7D19A88DB8892B29BB2E6
:105040009A4200D1F0BDE36843F08003E360F0BD15
:105050000026E7E703460846194600F0CFBF00BF29
:1050600081F0004102E000BF83F0004330B54FEA19
:1050700041044FEA430594EA050F08BF90EA020F86
:105080001FBF54EA000C55EA020C7FEA645C7FEA19
:10509000655C00F0E2804FEA5454D4EB5555B8BF3C
:1050A0006D420CDD2C4480EA020281EA030382EAAD
:1050B000000083EA010180EA020281EA0303362D3F
:1050C00088BF30BD11F0004F4FEA01314FF4801C12
:1050D0004CEA113102D0404261EB410113F0004F24
:1050E0004FEA03334CEA133302D0524263EB4303DB
:1050F00094EA050F00F0A780A4F10104D5F1200E79
:105100000DDB02FA0EFC22FA05F2801841F10001D3
:1051100003FA0EF2801843FA05F359410EE0A5F1A7
:1051200020050EF1200E012A03FA0EFC28BF4CF0D8
:10513000020C43FA05F3C01851EBE37101F000458E
:1051400007D54FF0000EDCF1000C7EEB00006EEB9B
:105150000101B1F5801F1BD3B1F5001F0CD3490825
:105160005FEA30004FEA3C0C04F101044FEA44527C
:1051700012F5800F80F09A80BCF1004F08BF5FEA03
:10518000500C50F1000041EB045141EA050130BDE3
:105190005FEA4C0C404141EB010111F4801FA4F186
:1051A0000104E9D191F0000F04BF01460020B1FADB
:1051B00081F308BF2033A3F10B03B3F120020CDA13
:1051C0000C3208DD02F1140CC2F10C0201FA0CF0F1
:1051D00021FA02F10CE002F11402D8BFC2F1200C56
:1051E00001FA02F120FA0CFCDCBF41EA0C0190400C
:1051F000E41AA2BF01EB0451294330BD6FEA040455
:105200001F3C1CDA0C340EDC04F11404C4F120023F
:1052100020FA04F001FA02F340EA030021FA04F351
:1052200045EA030130BDC4F10C04C4F1200220FAA8
:1052300002F001FA04F340EA0300294630BD21FAE6
:1052400004F0294630BD94F0000F83F4801306BFAC
:1052500081F480110134013D4EE77FEA645C18BFA0
:105260007FEA655C29D094EA050F08BF90EA020F37
:1052700005D054EA000C04BF1946104630BD91EA2F
:10528000030F1EBF0021002030BD5FEA545C05D132
:105290004000494128BF41F0004130BD14F5800471
:1052A0003CBF01F5801130BD01F0004545F0FE41E5
:1052B00041F470014FF0000030BD7FEA645C1ABF1A
:1052C000194610467FEA655C1CBF0B46024650EA51
:1052D000013406BF52EA033591EA030F41F400217D
:1052E00030BD00BF90F0000F04BF0021704730B503
:1052F0004FF4806404F132044FF000054FF00001D8
:1053000050E700BF90F0000F04BF0021704730B598
:105310004FF4806404F1320410F0004548BF40426D
:105320004FF000013EE700BF42004FEAE2014FEAC2
:1053300031014FEA02701FBF12F07F4393F07F4F9D
:1053400081F06051704792F0000F14BF93F07F4FCF
:10535000704730B54FF4607401F0004521F0004112
:1053600020E700BF50EA010208BF704730B54FF098
:1053700000050AE050EA010208BF704730B511F09D
:10538000004502D5404261EB41014FF4806404F1D5
:1053900032045FEA915C3FF4DCAE4FF003025FEA57
:1053A000DC0C18BF03325FEADC0C18BF033202EBDF
:1053B000DC02C2F1200300FA03FC20FA02F001FA39
:1053C00003FE40EA0E0021FA02F11444C1E600BFD8
:1053D00070B54FF0FF0C4CF4E06C1CEA11541DBF8B
:1053E0001CEA135594EA0C0F95EA0C0F00F0DEF856
:1053F0002C4481EA030621EA4C5123EA4C5350EA3B
:10540000013518BF52EA033541F4801143F480138B
:1054100038D0A0FB02CE4FF00005E1FB02E506F01C
:105420000042E0FB03E54FF00006E1FB03569CF071
:10543000000F18BF4EF0010EA4F1FF04B6F5007F77
:1054400064F5407404D25FEA4E0E6D4146EB0606E9
:1054500042EAC62141EA55514FEAC52040EA5E5072
:105460004FEACE2EB4F1FD0C88BFBCF5E06F1ED81C
:10547000BEF1004F08BF5FEA500E50F1000041EB53
:10548000045170BD06F0004646EA010140EA020000
:1054900081EA0301B4EB5C04C2BFD4EB0C0541EA22
:1054A000045170BD41F480114FF0000E013C00F337
:1054B000AB8014F1360FDEBF002001F0004170BD5B
:1054C000C4F10004203C35DA0C341BDC04F1140474
:1054D000C4F1200500FA05F320FA04F001FA05F200
:1054E00040EA020001F0004221F0004110EBD370CD
:1054F00021FA04F642EB06015EEA430E08BF20EAF9
:10550000D37070BDC4F10C04C4F1200500FA04F39B
:1055100020FA05F001FA04F240EA020001F000412D
:1055200010EBD37041F100015EEA430E08BF20EAA0
:10553000D37070BDC4F1200500FA05F24EEA020EE8
:1055400020FA04F301FA05F243EA020321FA04F017
:1055500001F0004121FA04F220EA020000EBD370CE
:105560005EEA430E08BF20EAD37070BD94F0000FCE
:105570000FD101F00046400041EB010111F4801F02
:1055800008BF013CF7D041EA060195F0000F18BFB3
:10559000704703F00046520043EB030313F4801FEF
:1055A00008BF013DF7D043EA0603704794EA0C0FA9
:1055B0000CEA135518BF95EA0C0F0CD050EA4106BF
:1055C00018BF52EA4306D1D181EA030101F000413C
:1055D0004FF0000070BD50EA410606BF1046194664
:1055E00052EA430619D094EA0C0F02D150EA013670
:1055F00013D195EA0C0F05D152EA03361CBF1046B1
:1056000019460AD181EA030101F0004141F0FE414F
:1056100041F470014FF0000070BD41F0FE4141F4D3
:10562000780170BD70B54FF0FF0C4CF4E06C1CEAD3
:1056300011541DBF1CEA135594EA0C0F95EA0C0F88
:1056400000F0A7F8A4EB050481EA030E52EA033543
:105650004FEA013100F088804FEA03334FF0805564
:1056600045EA131343EA12634FEA022245EA111591
:1056700045EA10654FEA00260EF000419D4208BF42
:10568000964244F1FD0404F5407402D25B084FEAEF
:105690003202B61A65EB03055B084FEA32024FF49B
:1056A00080104FF4002CB6EB020E75EB030E22BFF8
:1056B000B61A754640EA0C005B084FEA3202B6EBB8
:1056C000020E75EB030E22BFB61A754640EA5C0067
:1056D0005B084FEA3202B6EB020E75EB030E22BFF7
:1056E000B61A754640EA9C005B084FEA3202B6EBF8
:1056F000020E75EB030E22BFB61A754640EADC00B7
:1057000055EA060E18D04FEA051545EA16754FEA18
:1057100006164FEAC30343EA52734FEAC2025FEA36
:105720001C1CC0D111F4801F0BD141EA00014FF0C5
:1057300000004FF0004CB6E711F4801F04BF014396
:105740000020B4F1FD0C88BFBCF5E06F3FF6AFAEB2
:10575000B5EB030C04BFB6EB020C5FEA500C50F142
:10576000000041EB045170BD0EF0004E4EEA1131C5
:1057700014EB5C04C2BFD4EB0C0541EA045170BDCC
:1057800041F480114FF0000E013C90E645EA060E10
:105790008DE60CEA135594EA0C0F08BF95EA0C0F3E
:1057A0003FF43BAF94EA0C0F0AD150EA01347FF486
:1057B00034AF95EA0C0F7FF425AF104619462CE75D
:1057C00095EA0C0F06D152EA03353FF4FDAE1046C0
:1057D000194622E750EA410618BF52EA43067FF411
:1057E000C5AE50EA41047FF40DAF52EA43057FF4A1
:1057F000EBAE12E74FF0FF3C06E000BF4FF0010CAC
:1058000002E000BF4FF0010C4DF804CD4FEA410C0F
:105810007FEA6C5C4FEA430C18BF7FEA6C5C1BD0DC
:1058200001B050EA410C0CBF52EA430C91EA030F5D
:1058300002BF90EA020F0020704710F1000F91EABA
:10584000030F58BF994208BF90422CBFD8176FEA88
:10585000E37040F0010070474FEA410C7FEA6C5C56
:1058600002D150EA013C07D14FEA430C7FEA6C5C5D
:10587000D6D152EA033CD3D05DF8040B704700BF89
:105880008446104662468C461946634600E000BFD7
:1058900001B5FFF7B7FF002848BF10F1000F01BDA9
:1058A0004DF808EDFFF7F4FF0CBF012000205DF874
:1058B00008FB00BF4DF808EDFFF7EAFF34BF0120F9
:1058C00000205DF808FB00BF4DF808EDFFF7E0FF92
:1058D00094BF012000205DF808FB00BF4DF808EDE3
:1058E000FFF7CEFF94BF012000205DF808FB00BF4A
:1058F0004DF808EDFFF7C4FF34BF012000205DF82C
:1059000008FB00BF4FEA410212F5001215D211D573
:105910006FF47873B3EB625212D94FEAC12343F0AC
:10592000004343EA505311F0004F23FA02F018BF2E
:10593000404270474FF00000704750EA013005D1F7
:1059400011F0004008BF6FF0004070474FF00000BA
:10595000704700BF4FEA4102B2F1E04324BFB3F504
:10596000001CDCF1FE5C0DD901F0004C4FEAC002D6
:105970004CEA5070B2F1004F40EB830008BF20F0BA
:105980000100704711F0804F21D113F13872BCBF74
:1059900001F00040704741F480114FEA5252C2F1C9
:1059A0001802C2F1200C10FA0CF320FA02F018BF12
:1059B00040F001004FEAC1234FEAD32303FA0CFC65
:1059C00040EA0C0023FA02F34FEA4303CCE77FEAF4
:1059D000625307D150EA01331EBF4FF0FE4040F43E
:1059E0004000704701F0004040F0FE4040F40000ED
:1059F000704700BF4BB942B9002908BF002802D048
:105A00004FF0FF31084600F03BB882B0EC462DE97C
:105A1000005000F01DF8DDF804E002B00CBC704747
:105A20002DE9704F089E14461D468046894600F0B9
:105A300049F804FB01F3A4FB00AB00FB05329344DF
:105A4000B8EB0A0869EB0B09C6E90089BDE8708F5D
:105A50002DE9704F089E14461D468046894600F089
:105A600081F900FB05F5A0FB04AB04FB0154A34442
:105A7000B8EB0A0869EB0B09C6E90089BDE8708F2D
:105A8000704700BF4A0011D212F5001211D20DD595
:105A90006FF47873B3EB62520ED44FEAC12343F034
:105AA000004343EA505323FA02F070474FF00000DE
:105AB000704750EA013002D14FF0FF3070474FF08D
:105AC0000000704700292DE9F00FC0F2A1800024EA
:105AD000002BC0F29880154606460F46002B3FD19A
