:020000040800F2
:1000000000500020093C0008C13E0008C53E000821
:10001000C93E0008CD3E0008D13E0008213F00083F
:10002000213F0008213F0008213F0008213F000830
:10003000213F0008213F0008213F00080D43000830
:10004000213F0008213F0008213F0008193B00081C
:10005000213F0008213F0008213F0008213F000800
:10006000213F0008213F0008213F0008213F0008F0
:10007000213F0008213F0008213F0008213F0008E0
:10008000213F0008213F0008793F0008213F000878
:10009000213F0008213F0008213F0008213F0008C0
:1000A000B5450008D9450008FD450008354600085B
:1000B00089460008F946000869470008213F000802
:1000C000213F0008213F0008213F0008213F000890
:1000D000213F0008ED480008414900089549000803
:1000E000213F0008613B0008213F000810B5054C86
:1000F000237833B9044B13B10448AFF300800123D4
:10010000237010BDA81100200000000048E1000885
:1001100008B5064B1BB106480649AFF300800648F8
:10012000036813B1054B03B1984708BD00000000F8
:1001300048E10008AC110020A811002000000000D8
:10014000012902D11C30C0B27047062984BF01F1D9
:10015000FF31C9B211F0010F14BF1E201F207047DC
:10016000444B2DE9F047B1FBF3F603FB16113C239A
:10017000B1FBF3F203FB1212054602704FF461600B
:10018000B1FBF0F200FB1211B1FBF3F36B704FF413
:10019000FA63AA70B6B2EB80EC884FF4C873B4FB74
:1001A000F3F803FB18481FFA88F8B8F1000F16D0CF
:1001B0006423B4FBF3F203FB12439BB2002B53D036
:1001C00014F0030140F26D130CBF4FF4B7721A46DE
:1001D00096420EDB002908BF4FF4B77304E0B6F572
:1001E000B77F06DB4FF4B773F61A0134B6B2EC8072
:1001F000D2E700236B716423B4FBF3F703FB1747CB
:10020000BFB2B8F1000F06D03FB114F0030F14BF16
:100210000020012002E0012000E0384695F805901A
:10022000C0B24946FFF78CFF864209F1010A15D397
:10023000B8F1000F06D03FB114F0030F14BF002037
:10024000012002E0012000E03846C0B24946FFF735
:1002500077FF301A86B285F805A0D2E701362E71F5
:1002600085F805A0BDE8F087B6F5B67FC1DD40F2A0
:100270006D13B9E780510100F8B5427887783C23C7
:1002800003FB072702780579467903FB0727013D21
:10029000013EEDB2F6B2044605714671013E731C93
:1002A000E38834D04FF4C872B3FBF2F102FB113291
:1002B00092B262B16422B3FBF2F002FB103080B262
:1002C00030B113F0030F14BF0020012000E0012023
:1002D000C0B2F1B2FFF734FF284485B2DEE74FF435
:1002E000C872B3FBF2F102FB113292B2AAB16422DE
:1002F000B3FBF2F102FB113292B28AB113F0030F99
:1003000040F26D1208BF4FF4B7721544ADB2013B15
:100310009BB2B3F5FA6FE2D205E04FF4B772F4E79F
:1003200040F26D12F1E7024800FB0570F8BD00BF16
:100330008051010038B50B784A7803EB8303514CA8
:1003400003EB830302EB8303E3808B780D46637139
:10035000CB784D4823710B79A3704B7963708B79FF
:100360004A49237004F075FDE1880A22464804F0EA
:100370001EFE4749444804F06CFD61790A22424858
:1003800004F036FE4349404804F063FD21790A2217
:100390003D4804F02DFE40493B4804F05AFDA17849
:1003A0000A22394804F024FE3C49374804F051FD44
:1003B00061780A22344804F01BFE3949324804F0BF
:1003C00048FD0A222178304804F012FE03F048FE6E
:1003D000642005F081F92046FFF74EFF01463148C1
:1003E00003F0F3FA642005F077F903F03FFE2D489F
:1003F00003F0EEFA01462046FFF7B2FEE1886423DF
:10040000B1FBF3F1C9B2284802F038F92870E2884C
:100410004FF47A73B2FBF3F103FB11212248C9B206
:1004200002F02CF9687061791F4802F027F9A87072
:1004300021791D4802F022F9A178E8701A4802F0EB
:100440001DF961782871184802F018F9217868714F
:10045000154802F013F90024A871295D10220A48FA
:1004600004F0BDFD01340848104904F0F2FC072CEB
:10047000F3D1054804F0FCFCBDE8384002480C49C3
:1004800004F00CBDC41100201413002040F3000838
:1004900047F300084FF3000855F300085CF3000829
:1004A00066F30008CD110020F51200203701010885
:1004B00070F300080148112103F07EBACD1100202D
:1004C000064B1A6801321A601A681D2A04D90022E4
:1004D0001A60034B01221A70704700BFD011002030
:1004E000D411002010B5094C0949204604F00FFC36
:1004F00020460121074A04F029FC2046002104F08F
:10050000FDFB2046BDE8104004F0E2BBAC13002028
:1005100040420F00C104000810B5054C204604F00D
:10052000DFFB20460021BDE8104004F0E7BB00BF20
:10053000AC13002013B5026802AB03F8011D546A26
:1005400019460122A04702B010BD07B503680DF19E
:1005500007019B6A0122984701280CBF9DF80700FC
:100560004FF0FF3003B05DF804FB4FF0FF307047F1
:1005700008B50369186803689B69984708BD036854
:1005800010B5DB680446984708B9207F10BD0120EC
:1005900010BD08B503681B6B9847003018BF0120D9
:1005A00008BD10B50446283004F076FD04F11C00A7
:1005B00004F072FD04F1100004F06EFD204610BD41
:1005C000F0B585B00C460646194901A81746194DE5
:1005D00004F0A4FD01A8102104F07CFD217901A8FC
:1005E00004F03AFE294601A804F01AFE617901A838
:1005F00004F032FE294601A804F012FEA17901A8F8
:1006000004F02AFE294601A804F00AFEE17901A8B7
:1006100004F022FE336801991B6A3A463046984737
:10062000044601A804F038FD204605B0F0BD00BF27
:100630005D0101080FF6000810B504462068036844
:10064000DB68984710B905F047F8F7E720680368BA
:100650001B6998472C28F1D1012010BD2DE9F04FDE
:10066000054687B08A46104640211E461446129F12
:1006700004F030FD8F4BD3F800B0002005F02CF8CB
:1006800028680368DB689847002840F3E4802868FE
:1006900003681B699847011EF2DD2046C9B204F0C9
:1006A000CEFD16B9109BA3B910E0314603A804F0A3
:1006B00035FD204603A904F052FE814603A804F04C
:1006C000EBFCB9F1000FEDD00120EFE0119B9BB9DD
:1006D00010E0109903A804F021FD204603A904F0BE
:1006E0003EFE814603A804F0D7FCB9F1000FEDD01F
:1006F0000220DBE0A7B910E0119903A804F00EFD79
:10070000204603A904F02BFE814603A804F0C4FC94
:10071000B9F1000FEED00320C8E0139B0BBB10E033
:10072000394603A804F0FAFC204603A904F017FE9A
:10073000814603A804F0B0FCB9F1000FEDD004200D
:10074000B4E05D4903A804F0E9FC204603A904F0E5
:1007500006FE814603A804F09FFCB9F1000F11D1F9
:1007600039E0139903A804F0D9FC204603A904F04A
:10077000F6FD814603A804F08FFCB9F1000FE0D02C
:10078000052093E0684629682C2204F05DFC684649
:1007900004F019FF0128814615D129680A2203A80F
:1007A00004F052FC03A804F00EFF804603A804F0F6
:1007B00073FC2046414904F006FD05EB88035B68A5
:1007C00083F81D9003E02046694604F024FD684646
:1007D00004F062FC54E73A4903A804F09FFC204669
:1007E00003A904F0BCFD804603A804F055FCB8F151
:1007F000000F3FF445AF334903A804F08FFCA26813
:1008000003A9083A204604F0E6FD804608F10208F4
:1008100003A804F041FC42462C21204604F0CDFD03
:1008200042460346214603A804F0F8FD03A804F05D
:10083000CAFE804603A804F02FFCB8F1000F3FF475
:100840001FAF05EB88035B68204683F81C901B49AB
:1008500004F0B9FC14E7174B1B68CBEB03035345BB
:10086000FFF40BAF204604F084FEA368CBB1214611
:10087000684604F096FC1449144804F0EAFA202172
:10088000124804F0E1FA694603A804F08AFC03A9BF
:100890000E4804F0F9FA03A804F0FEFB684604F0E1
:1008A000FBFB2046054904F08EFC0020C0B207B0D7
:1008B000BDE8F08FFC1300203FF400085D01010843
:1008C0004CF400085B01010855F4000814130020E3
:1008D000F0B589B01C4607460E4605A80B491546DB
:1008E00004F01CFC00940E9C314601940F9C05AA58
:1008F0000294109C2B4603943846FFF7AFFE044643
:1009000005A804F0C9FB204609B0F0BD5D0101084F
:10091000F0B5044685B00E46006821491F461546CD
:1009200004F097FA20681F4904F093FA0A22394626
:10093000206804F054FB20682C2104F085FA20681C
:10094000194904F086FA2068184904F082FA314601
:10095000206804F07EFA2068154904F07AFA0A2229
:100960002946206804F01AFB1249206804F071FA45
:10097000206803689B699847002004F0ADFE0E4B89
:10098000204600930023019302930C490C4A0D4B1F
:10099000FFF79EFF431E5842584105B0F0BD00BF0F
:1009A00064F4000867F4000872F40008F7F7000820
:1009B00077F400085B01010896F40008F8240100B0
:1009C0007AF4000887F4000870B5044600200E464B
:1009D000154604F081FE0023C4F8A430C4F8A0300A
:1009E000206931462A46237DFFF792FF003018BF69
:1009F0000120207770BD7FB5089C0E460194099CAC
:100A00001546009302944FF47A7132462B46FFF755
:100A10005FFF04B070BD08B500210F2004F046FE52
:100A200040F2DC5004F058FEBDE808400F200121E0
:100A300004F03CBE70B504460D4600680C491646ED
:100A400004F007FA2946206804F003FA31460A2226
:100A5000206804F0C4FA2068064904F0FAF9206816
:100A600003689B699847BDE87040002004F034BEDD
:100A700064F400085B01010813B50446002004F08B
:100A80002BFE2069227D0749FFF7D4FF002323773F
:100A90000093019320690449044AFFF7ACFF02B0B8
:100AA00010BD00BFA8F4000831F4000856FB000890
:100AB00010B504460948FFF762FD68B9E3785BB1F9
:100AC000E0700749074804F0E9F90648064904F0D0
:100AD000E5F90248FFF7D0FF10BD00BFE01100208C
:100AE0005D01010814130020B3F40008F0B50F46AF
:100AF00087B00025044626493A46FFF79BFF00953C
:100B0000019520462349244A2B46FFF774FF01280C
:100B10001AD12046FFF790FD2046FFF78DFD216892
:100B20000A2203A804F090FA03A804F04CFD06463C
:100B300003A804F0B1FA0095019520461749164A1A
:100B40002B46FFF758FFFEB904EB87033A462046D1
:100B500013495E68FFF76EFF124B002500931249A0
:100B6000124A134B01952046FFF745FF2B460746D7
:100B70000095019520460949074AFFF73CFF7B1E77
:100B80005F425F4137772E46304607B0F0BD00BF69
:100B9000F2F4000841F4000856FB000831F40008A4
:100BA000FFF400082DF500080BF5000818F5000803
:100BB00022F500087FB50546002405EB84035E6836
:100BC00046B1737F33B1002373772846E1B2FFF754
:100BD0008DFFF0820134052CEFD128680368DB68B3
:100BE000984748B1002200920192029228460A21B9
:100BF0001346FFF76DFEF0E704B070BDD0F880201B
:100C0000D0F88430D01A48BF8030704738B50446D9
:100C1000002004F061FD237F04F120058BB12846FC
:100C2000FFF7ECFF68B90A4BA26919688A1AB2F596
:100C3000FA7F03D91B6801226277A3612069FFF75D
:100C4000B9FF2846FFF7DAFFE38A184438BD00BF32
:100C5000FC13002038B504460D460068094904F02D
:100C6000F8F82946206804F0F4F82068064904F0F2
:100C7000F0F8206803689B699847BDE83840002079
:100C800004F02ABD64F400085B0101082DE9FF416E
:100C9000134B05461F680E469846D8F800300024CE
:100CA000DB1BB34217D228460E49FFF7D3FF00944F
:100CB000019402942846C8210B4A0C4BFFF708FE0A
:100CC0000446012C4FF0640002D104F005FD02E05F
:100CD00004F002FDE1E7204604B0BDE8F08100BF6A
:100CE000FC1300205D01010831F4000856FB0008E8
:100CF0001F4B2DE9F3411F6805460E469846D8F86C
:100D00000030DB1BB3422CD2002428461949FFF7E0
:100D1000A1FF0094019428461749184A2346FFF77B
:100D20006AFE012804D04FF47A7004F0D5FCE6E79F
:100D3000134B14498DE81800134A144B2846FFF74B
:100D40005AFE009406460194284611490B4A234650
:100D5000FFF751FE012E06D003D3032E01D8022047
:100D600002E0002000E0304602B0BDE8F08100BFA4
:100D7000FC13002038F500083FF5000856FB00087A
:100D80005EF5000848F500084EF5000856F5000825
:100D900031F400087FB542F210710546FFF776FF87
:100DA00058B3002428462149FFF754FF00940194CA
:100DB0000294284642F210711D4A1E4BFFF788FD2F
:100DC00001281AD128461C49FFF744FF00940194DA
:100DD0000294284642F21071154A164BFFF778FD2F
:100DE00001280AD140F6B83004F076FC284642F2D9
:100DF0001071FFF74BFF064608B9002612E028469F
:100E00000E49FFF727FF0094019428460849094A34
:100E10002346FFF7F0FD0128EFD1284642F210717A
:100E2000FFF766FF304604B070BD00BF6BF50008E9
:100E300031F4000856FB000873F500087DF5000842
:100E4000F7B5154F154E002405461549FFF702FF6B
:100E5000324623463946009401942846FFF7CBFDDD
:100E600028461049FFF7F6FE3246234639460094DD
:100E700001942846FFF7BFFD28460B49FFF7EAFE1D
:100E8000009401942846394632462346FFF7B3FDC5
:100E9000012003B0F0BD00BF31F4000856FB00088C
:100EA00083F500088EF500089EF500081FB54FF485
:100EB000165104461B4803F0D7FE1B48FFF7ABFD55
:100EC00040F6B83004F008FC1849194803F0F0FF68
:100ED0001848FFF75FFF17481749FFF7BBFE0023CD
:100EE00000930193029313484FF47A71134A144B01
:100EF000FFF7EEFC012803D00D48124903F0CEFFA6
:100F00004FF4FA6004F0E8FB0A48FFF799FF4FF44A
:100F10007A7004F0E1FB0023A37063702370E37028
:100F200004B010BD44130020A0120020ADF500084D
:100F30001413002088120020C3F5000831F40008C3
:100F400056FB0008CEF5000870B5174986B000249E
:100F50000546FFF77FFE0094019428461349144A82
:100F60002346FFF748FD01281BD12846FFF764FB05
:100F70002846FFF761FB29682C2203A804F064F8D7
:100F800003A804F020FB86B203A804F085F80094BF
:100F9000019428460749064A2346FFF72CFD3046B0
:100FA00000E0204606B070BDDDF50008E2F500085F
:100FB00056FB000831F4000808B50248FFF7C4FFEB
:100FC00008BD00BF8812002070B5164986B0002405
:100FD0000546FFF73FFE0094019428461249134A44
:100FE0002346FFF708FD012818BF042017D1284623
:100FF000FFF722FB29680A2203A804F025F803A8BA
:1010000004F0E1FA064603A804F046F800940194BF
:1010100028460749054A2346FFF7EDFCF0B206B023
:1010200070BD00BFEAF50008F1F5000856FB0008A6
:1010300031F400082DE9F0414478054674BB1949A4
:10104000194803F02BFF1848184903F007FF184B05
:101050001F689846D8F800204EF65F23D21B9A42AC
:101060000BD81448FFF7B0FF00F0FB06012E0FD09D
:101070004FF47A7004F030FBECE70F490A4803F0B4
:101080000DFF42F2107004F027FB00236B7005E0A7
:101090006E700548094903F001FF34462046BDE85B
:1010A000F08100BF5D01010814130020FAF500086B
:1010B000FC1300208812002011F600082EF600080C
:1010C0001FB50A490446FFF7C5FD002300930193AD
:1010D000029320464EF66021054A064BFFF7F8FBC7
:1010E000431E5842584104B010BD00BF5BF60008D3
:1010F00031F4000856FB000830B5304985B00024B3
:101100000546FFF7A7FD0094019428462C492D4A77
:101110002346FFF770FC012801D001204BE0284650
:101120002949FFF797FD274A23462849009401944F
:101130002846FFF760FC28462549FFF78BFD009401
:101140000194029428462349234A1E4BFFF7C0FB13
:10115000012802D0214822492AE01C4A194B4FF4A9
:101160007A710094019402942846FFF7B1FB284657
:101170001C49FFF76FFD0094019428461A49114A53
:101180002346FFF738FC012802D0144817490FE026
:1011900028461749FFF75EFD00940194284615493B
:1011A000084A2346FFF727FC0128B6D00B4812490E
:1011B00003F074FE204605B030BD00BFEAF500081C
:1011C000F1F5000856FB000864F6000831F4000849
:1011D00080F60008084C01008BF60008141300206C
:1011E00095F60008B5F60008C2F60008D3F6000828
:1011F000ECF60008F9F600080AF7000838B543785D
:101200000446ABB183789BB90A490B4803F046FE0C
:101210000A48FFF771FF054607482DB1084903F05A
:101220003DFE0123A37038BD064903F037FEA570CB
:1012300038BD00BF5D010108141300208812002092
:1012400033F7000870F7000870B5144986B0002421
:101250000546FFF7FFFC0094019428461049114A07
:101260002346FFF7C8FB012818BF632014D1296863
:101270002C2203A803F0E8FE03A804F0A4F9064614
:1012800003A803F009FF0094019428460649054A83
:101290002346FFF7B0FB304606B070BDAFF700083D
:1012A000B4F7000856FB000831F4000870B50024BC
:1012B00086B00D46064608461549FFF7CBFC00945C
:1012C000019428461349144A2346FFF794FB01284A
:1012D00004D03046114903F021FF16E003A8296825
:1012E0000A2203F0B1FE0E490B4A234600940194F2
:1012F0002846FFF780FB03A804F03BF9304603A91A
:1013000003F0BBFE03A803F0C7FE304606B070BD75
:10131000BCF700085B01010856FB00085D010108ED
:1013200031F40008F8B504460D4600680E4916462B
:101330001F4603F08EFD2946206803F08AFD3146E2
:10134000206803F086FD3946206803F07DFD2068A3
:10135000064903F07EFD206803689B699847BDE855
:10136000F840002004F0B8B964F400085B010108FB
:101370002DE9F04304468FB00025904689461F466C
:10138000FFF79EFE20469B49FFF764FC9A499B4A63
:101390002B46009501952046FFF72DFB20469849E6
:1013A0004A462223FFF7BEFF009501952046924949
:1013B000924A2B46FFF71FFBB8F1000F0DD02046D5
:1013C000904942462223FFF7ADFF00950195204644
:1013D00089498A4A2B46FFF70EFB6FB120468A499E
:1013E0003A462223FFF79EFF0023009301932046F5
:1013F0008149824AFFF7FFFA804E00252046834943
:101400004A462223FFF78EFF32462B467A49009543
:1014100001952046FFF7EFFA20467D49FFF71AFCB9
:10142000754A33464EF66021009501950295204697
:10143000FFF74EFA20467749FFF70CFC6E4A334619
:1014400075490095019502952046FFF741FA20461F
:101450007249FFF7FFFB009501950295204647F280
:101460003051654A3346FFF733FA012801D0002591
:10147000BCE020466A49FFF7EDFB00950195029517
:1014800020464EF660215C4A3346FFF721FA0128D8
:10149000EDD120466349FFF7DDFB0095019520461D
:1014A000554932462B46FFF7A6FA0128DFD12046E0
:1014B0005D49FFF7CFFB0095019520464E49324626
:1014C0002B46FFF798FA0128D1D120465749FFF75C
:1014D000C1FB009501952046474932462B46FFF750
:1014E0008AFA0128C3D15249206803F0B2FC51495D
:1014F000206803F0AEFC4946206803F0AAFC4E4980
:10150000206803F0A6FC4146206803F0A2FC4A498B
:10151000206803F09EFC3946206803F09AFC474996
:10152000206803F096FC4649206803F092FC20688E
:1015300003689B699847284604F0CEF8009501950A
:10154000029520464EF660212B4A3346FFF7C0F93C
:1015500001288CD120463B49FFF77CFB0095019583
:10156000029520464EF66021234A3346FFF7B0F934
:1015700001287FF47CAF20463349FFF76BFB3349EA
:1015800005A803F0CBFD0096019502950395204632
:1015900042F2107105AA184BFFF760F8012813D02A
:1015A00008A8274903F0BAFD0BA8284903F0B6FDA7
:1015B00005A808A90BAA03F057FF0BA803F06CFDC0
:1015C00008A803F069FD0EE020462149FFF742FB21
:1015D0002B4600950195204607493246FFF70BFA46
:1015E000431E5D425D4105A803F056FD28460FB03D
:1015F000BDE8F08364F6000831F4000856FB0008EB
:10160000C1F70008D4F70008E8F70008FBF7000866
:101610000DF8000818F80008084C010080F60008D2
:1016200023F800082CF8000836F8000842F80008F3
:1016300064F400084EF80008F7F7000891FC000871
:101640005B01010856F800085DF800085D0101081B
:1016500067F8000838B50478054634BB43781BB3F7
:101660001349144803F01AFC1349124803F0F6FB1F
:101670001249104803F0EDFB11481049114A124B72
:10168000FFF776FE04460B4844B9104903F006FC08
:1016900042F2107004F020F82C7006E00C4903F0C0
:1016A000FDFB01232B7000E00124204638BD00BF64
:1016B0005D0101081413002084F800085EFB000897
:1016C0008812002030F4000855FB000893F8000849
:1016D000B0F800082DE9F04104460E4600681249B2
:1016E0001F469046069D03F0B4FB3146206803F088
:1016F000B0FB41460A22206803F071FC394620689D
:1017000003F0A2FB29460A22206803F07BFC206834
:10171000064903F09EFB206803689B699847BDE873
:10172000F041002003F0D8BF64F400085B01010819
:10173000F0B587B00025044600920F4616461C49B6
:101740001A462C23FFF7C6FF00950195204619493C
:10175000194A2B46FFF74FF9012802D04FF0FF340A
:1017600022E020683946036832469B689847206823
:1017700003689B6998470095019520460F490E4ADA
:101780002B46FFF738F90128E8D12046FEF754FF31
:10179000216803A80A2203F057FC03A803F013FFF3
:1017A000044603A803F078FC204607B0F0BD00BF54
:1017B000D0F8000802FB000856FB0008DAF8000821
:1017C00070B5044600200E46154603F085FF2069DB
:1017D000FFF7F0F9206931462A46237DFFF7A8FF7D
:1017E00070BD000070B58D680E460135284605F0C5
:1017F000BBF804460023304621462A4603F0C5FDC7
:1018000021462A460348FFF7DBFF204605F0B4F8DF
:10181000012070BDE01100202DE9F04186B00025C7
:10182000044600912C232F491646FFF753FF0095DD
:10183000019520462C492D4A2B46FFF7DCF801285C
:101840004BD12046FEF7F8FE2046FEF7F5FE216854
:101850002C2203A803F0F8FB03A803F0B4FE07460C
:1018600003A803F019FC04EB860603A821680A22EA
:10187000D6F8048003F0E8FB03A803F0A4FEA8F860
:10188000160003A803F008FCBD421ED020680368C0
:10189000DB68984710B903F01FFFF7E7206803687B
:1018A0001B69984773685FFA80FED3F8A010D3F8DD
:1018B000A4004A1C02F07F02824204D0194481F83D
:1018C00020E0C3F8A0200135DEE700230093019358
:1018D00020460749054AFFF78EF8284606B0BDE8BE
:1018E000F08100BFE9F8000841F4000856FB000849
:1018F00031F400082DE9F74F044600208946019293
:1019000003F0EAFE2069FFF755F90025019B9D428F
:1019100045D2019B04F1200B5846C5EB0308FFF7A5
:101920006DF9404538BF8046B8F1000F24D04746D6
:10193000CA465846FFF762F910B9C1444544E5E785
:10194000D4F8A430C3F18006B742B8BF3E46864201
:10195000A8BF06460BEB030150463246009305F044
:10196000E3FA009BBF1B03EB060C0CF07F02C4F8EC
:10197000A420B244E1D0DCE72069FFF71BF9E38A39
:101980006BB1D4F8A420D4F8A0302069D11A002972
:10199000D8BF80310139227DFFF73EFFB6E72846E8
:1019A00003B0BDE8F08F000073B50024254D264E2E
:1019B0002346224621460094244803F005FA314686
:1019C00005F110002C706C70AC70EC706C60AC6049
:1019D000EC6003F0A3FB314605F11C0003F09EFB15
:1019E000314605F1280005F1340603F097FB214646
:1019F0003046102205F074FB154A05F1480392E8C1
:101A00000300144A83E80300284613496E6403F078
:101A100085FF124A124B4FF47A711360114B996093
:101A200011495C6019600121C3F8A440C3F8A040CB
:101A30001A611975DC829C611C775C77936002B037
:101A400070BD00BFA01200205D010108D811002068
:101A500028F4000808000020A305000888120020D0
:101A600044130020E0110020F0F300082DE9F043BA
:101A7000C5788FB00446002D40F0A7816B496C48B3
:101A800003F00CFA6B4908A803F048FB08A90BA85F
:101A900003F087FB68490BA803F01EFC014664486D
:101AA00003F0CAF90BA803F0F7FA08A803F0F4FA58
:101AB0006248614941F27072FEF786FFB0B9604931
:101AC0005B4803F0EBF942F2107003F005FE636827
:101AD000E57001330A2B01D8636076E165606570BB
:101AE00025705848FFF7ECFAA5706EE1564950484A
:101AF00003F0D4F9534E0123E370544965604C4818
:101B000003F0CCF93046FFF79FFB5149E06008A88D
:101B100003F004FB08A90BA803F043FBE1680BA842
:101B200003F0F6FB0146424803F0AEF90BA803F0C0
:101B3000B3FA08A803F0B0FA04F110080BA8314674
:101B4000FFF7B4FB0BA9404603F035FB0BA803F0ED
:101B5000A3FA40490BA803F0E1FA41460BA803F0B1
:101B6000AEFB0146324803F08FF90BA803F094FA5C
:101B700030463949FFF76EF80095019530463749F0
:101B8000374A2B46FEF737FF012804F11C0704D023
:101B900008A8264903F0C2FA16E00BA831680A2209
:101BA00003F052FA2F492E4A2B46009501953046F4
:101BB000FEF721FF0BA803F0DCFC08A80BA903F03B
:101BC0005CFA0BA803F068FA08A9384603F0F3FAA8
:101BD00008A803F061FA24490BA803F09FFA3946DC
:101BE0000BA803F06CFB0146114803F04DF90BA85C
:101BF00003F052FAA37804F12806002B6CD0DFF82A
:101C00004490002548461949FFF724F800950195AE
:101C1000029548461649174A114BFEF759FE01280E
:101C20002AD008A8014903F079FA3DE05D010108D6
:101C300014130020F6F8000836F40008E011002024
:101C40000CF90008881200202DF900084DF9000851
:101C5000B7F7000862F9000868F900086FF9000892
:101C600056FB000831F4000879F9000882F90008F1
:101C7000084C01008CF900080BA8D9F800100A22C2
:101C800003F0E2F95349544A2B4600950195484622
:101C9000FEF7B1FE0BA803F06CFC08A80BA903F03B
:101CA000ECF90BA803F0F8F908A9304603F083FA21
:101CB00008A803F0F1F949490BA803F02FFA3146BF
:101CC0000BA803F0FCFA0146454803F0DDF80BA829
:101CD00003F0E2F90023A3704249414803F0DEF823
:101CE00005A800F035FD404A0BA805A900F042FE0A
:101CF000E1680BA800F022FE0BA800F0FFFC3B4AB5
:101D00000BA805A900F036FE41460BA800F02EFEF8
:101D10000BA800F0F3FC364A0BA805A900F02AFE38
:101D200039460BA800F022FE0BA800F0E7FC314A70
:101D30000BA805A900F01EFE31460BA800F016FE08
:101D40000BA800F0DBFC2C49254803F082F80BA817
:101D500005A900F017FD0BA9214803F0B3F80BA863
:101D600000F0CCFC05AA08A8244900F0A8FC2449EE
:101D70000BA803F0D3F908A90BA803F0A0FA0146B9
:101D8000174803F081F80BA803F086F908A90BA8FF
:101D900003F007FA0BA92046FFF724FD0BA803F078
:101DA0007BF9404603F0E5FB384603F0E2FB3046A2
:101DB00003F0DFFB13490A4803F070F808A803F0AA
:101DC0006BF905A800F09AFC012528460FB0BDE884
:101DD000F08300BF31F4000856FB000895F90008B5
:101DE000141300209EF90008B0F70008A6F90008B7
:101DF0006AF90008ABF90008AFF90008F8120020F2
:101E0000C2F90008DEF900082DE9F041054690B05E
:101E10000C4608466C4903F08FFA002840F03C82DB
:101E2000224601A80DAC694900F042FC20466749F2
:101E300001AA00F04BFC2046654903F07DFA0646F6
:101E4000204603F029F926B16249634803F026F8D9
:101E50001FE26249204603F061F901AA0AA85B4922
:101E600000F034FC0AA9204603F029FA01465A483A
:101E700003F00AF80AA803F00FF9204603F00CF962
:101E800001A8574900F0AEFC002833D05549AE6098
:101E9000514802F0DEFF524A204601A900F06AFDD7
:101EA00021464D4803F00EF8204600F027FC01A91A
:101EB0004B4A204600F05EFD204600F05AFC0746E3
:101EC000204600F01BFC20463146072205F008F9A9
:101ED0003846427810F8023B303A303B03EB83033C
:101EE00002EB4303A3550136072EF2D13E482146AB
:101EF000FEF720FA01A83D4900F074FC002800F02C
:101F000018813B49344802F0A4FF384A204601A911
:101F100000F030FD2146304802F0D4FF204600F0AA
:101F2000EDFB01A9314A204600F024FD204600F0D7
:101F300020FC6864204600F0E1FB00266B6C9B5D92
:101F4000312B03D12B48F1B2002204E0302B05D114
:101F50002848F1B2012200F04DFB20E026491E483E
:101F600002F09CFF25490AA803F0D8F80AA92046E8
:101F700003F017F93146204603F0D4F9204903F065
:101F8000ABF96B6C995D03F0B9F90146124802F0A8
:101F90007BFF204603F080F80AA803F07DF80136A5
:101FA000022ECBD105F1340840463021102205F035
:101FB00097F82F46002697F8480003F061FB08BB0E
:101FC000AB19312226E000BF5D010108F8120020A4
:101FD000FDF9000807FA0008141300203FFA000872
:101FE00058FA00085DFA0008CC11002072FA0008C7
:101FF0007AFA0008F412002092FA000899FA000810
:10200000A3FA000897F8480003F03AFB012803D12F
:10201000AB19302283F834200136022E07F1040771
:10202000C9D104A800F094FB05F1100620469C4994
:10203000FFF73CF92146304603F0BDF8204603F097
:102040002BF8984A204604A900F094FC314620461B
:1020500000F08CFC204600F051FB93490AA803F0E5
:102060005DF80AA9204603F09CF83146204603F0AB
:1020700026F901468D4802F007FF204603F00CF8D0
:102080000AA803F009F8414607A803F047F8884A70
:10209000204604A900F06EFC07A9204600F066FC6B
:1020A000204600F02BFB83490AA803F037F80AA961
:1020B000204603F076F807A9204603F000F9014610
:1020C0007A4802F0E1FE204602F0E6FF0AA802F09C
:1020D000E3FF7949754802F0BCFE204604A900F0F0
:1020E00051FB2146714802F0EDFE204600F006FB50
:1020F00004AA0AA8714900F0E2FA71496B4802F09B
:10210000A8FE0AA9694802F0BFFE0AA9204603F00A
:1021100048F821462846FFF765FB204602F0BCFF41
:102120000AA802F0B9FF07A802F0B6FF04A800F061
:10213000E5FA01A8634900F055FB002800F0A980EA
:1021400001A9604A204600F015FC204600F008FB7B
:102150000646204600F0D2FA01A85B4900F042FB97
:10216000002800F0968001A9574A204600F002FCA2
:10217000204600F0F5FA0746204600F0BFFA012F8E
:1021800011D1022E0BD0FF2E04D0012E20D14F48AA
:1021900000211AE000214D480A4600F02BFA4B4876
:1021A0003946002212E09FB9022E0CD0FF2E05D036
:1021B000012E0DD145483946324607E0434839469D
:1021C000012200F017FA414801210A4600F012FAF4
:1021D00007A800F0BDFA05F1100820463049FFF7C6
:1021E00065F82146404602F0E6FF204602F054FF23
:1021F0002C4A204607A900F0BDFB4146204600F0CE
:10220000B5FB204600F07AFA2E4A204607A900F0D6
:10221000B1FB3146204600F091FB204600F06EFAFB
:10222000294A204607A900F0A5FB3946204600F0C0
:1022300085FB204600F062FA1F491C4802F009FEA7
:10224000204607A900F09EFA2146184802F03AFEFF
:10225000204600F053FA07AA0AA8184900F02FFAFE
:102260001749124802F0F5FD0AA9104802F00CFEC9
:102270000AA9204602F095FF21462846FFF7B2FA48
:10228000204602F009FF0AA802F006FF07A800F0A6
:1022900035FA01A800F032FA10B0BDE8F08100BFB5
:1022A00088120020A6F9000862F900081413002023
:1022B00072FA0008A6FA0008AFFA0008F812002027
:1022C000C2F90008C3FA0008C9FA0008F412002095
:1022D00030B5214B87B01C681D462048FEF74FF9EA
:1022E000002837D02B681B1BB3F5FA6F32D2FA20C7
:1022F00003F0F2F91948FEF789FC0028EDD00A2214
:102300006846164902F0A0FE1549164802F0C6FDBF
:102310001549144802F0C2FD03A8144902F0FEFE5C
:10232000694603A802F0CBFF01460E4802F0ACFD5F
:1023300003A802F0B1FE694603A802F032FF03A928
:102340000B48FFF761FD03A802F0A6FE684602F005
:10235000A3FEC2E707B030BDFC130020E01100204F
:102360005D01010814130020CDFA000804FB0008E9
:10237000A012002070B5474D8CB02B780446002B7E
:1023800000F08680C378002B00F0828042494348E9
:1023900002F084FD00264249404802F07FFD2E7085
:1023A000684604F1340500F0D3F93146102228467E
:1023B00004F096FE3B4A09A8694600F0DBFA04F1F6
:1023C000100109A800F0D2FA09A800F097F9364ADE
:1023D00009A8694600F0CEFA294609A800F0BBFA20
:1023E00009A800F08BF931492C4802F032FD09A808
:1023F000694600F0C7F909A9284802F063FD09A859
:1024000000F07CF96A4603A8294900F058F92949E7
:10241000224802F01EFD214803A902F035FD26489E
:10242000FEF7ADF850B103A909A802F0BAFE23489F
:1024300009A9FFF7D7F909A802F02EFEA3682049E1
:102440000133A36006A802F069FE06A909A802F0FC
:10245000A8FEA16809A802F065FF01460F4802F036
:1024600013FD09A802F018FE06A802F015FEA368E5
:10247000092B07D9E2780023A3601AB1E3700E4854
:10248000FEF7FAFA03A802F007FE684600F036F9F4
:102490000CB070BDD41100205D01010814130020A0
:1024A00009FB0008A6F9000872FA0008AFFA000854
:1024B000F8120020C2F90008E0110020A01200204C
:1024C0003DFB0008204B30B51A68204C22F0E0623A
:1024D00042F0007287B01A60204600F077F820467C
:1024E0001B4C1C4D00F0B2F84FF41651204602F080
:1024F000BBFB2846FEF7DAFCFDF7F4FFFEF70CF80D
:102500001549204602F0CAFC2846FEF755FD134D3A
:1025100013492860684602F001FE694603A802F0EC
:1025200040FE296803A802F0FDFE0E4902F0D4FE29
:102530000146204602F0A8FC03A802F0ADFD684663
:1025400002F0AAFD07B030BD04000140F4120020E3
:1025500014130020A012002064FB0008F0120020D9
:102560006CFB00087DFB000808B51348FEF762FD10
:1025700010B91248124905E00F48FFF76BF828B967
:102580000E481049BDE8084002F088BC0A48FEF732
:1025900035FE0948FFF76AFA10B908480A49F1E719
:1025A0000548FFF795FE0448FEF782FABDE80840AB
:1025B0000148FFF7DFBE00BFA01200201413002067
:1025C00080FB0008A0FB0008C0FB000808B5032042
:1025D000002103F007F80420002103F003F80F2086
:1025E000002102F0FFFFBDE808400520002102F0B5
:1025F000F9BF000010B5144611B101290AD013E04B
:102600000320114603F052F80A480CB10A490DE0C4
:102610000A490BE00420114603F048F805480CB1C4
:10262000074903E0074901E002480749BDE81040B7
:1026300002F034BC14130020E4FB0008F2FB000895
:1026400000FC00080EFC00081CFC000810B50A4C39
:102650000520012103F02AF8204600210122FFF77E
:10266000C9FF012120460A46FFF7C4FFBDE810401C
:102670000F20012103F01AB8F41200200A22B1FB46
:10268000F2F302FB131202EB0310C0B2704700001A
:10269000014B0360704700BF40FC000810B5034BBE
:1026A0000446036002F09CFF204610BD40FC000879
:1026B00010B51146044600F0A5F8204610BD10B52F
:1026C0001146044600F0ACF8204610BD10B5114686
:1026D000044600F0C3F8204610BD00000348044B38
:1026E0000449054A036003F019B900BFF81200203D
:1026F00040FC0008912600080800002038B5064B71
:1027000004460360406820B1A56815B900F0D6FD05
:102710006560204638BD00BF50FC000810B5044677
:10272000FFF7ECFF204602F05BFF204610BD40683B
:1027300038B50D4658B100F0DBFF04462146284667
:1027400002F087FB0546204601F0E2F8284638BD36
:10275000024A0260002242608260704750FC00081A
:1027600010B50446406801F0B6F808B163685869CE
:1027700010BD10B50446406801F0B4F808B16368B4
:10278000186910BDB0B5044600AF48680D4601F0A9
:10279000B7F820B9124B60602360A0601CE0686845
:1027A00000F0A9FF83000A3323F00703ADEB030D0C
:1027B0006B6801469A68684600238B4205DA156A01
:1027C00040F8235012680133F7E701F047F8044B53
:1027D000606023600023A3602046BD46B0BD00BFFB
:1027E00050FC000838B5044640680D4601F088F8F2
:1027F00030B16068294600F086FF003018BF012024
:1028000038BD000010B50446086800F06DFF034BAA
:10281000606023600023A360204610BD50FC0008C8
:1028200030B5496885B0044611B902F077FC11E073
:10283000084600F05DFF0546294601A802F06EFC3F
:10284000284601F065F8204601A902F016FC01A80F
:1028500002F022FC204605B030BD000038B54D68BE
:102860000446002D31D0284601F021F800282CD153
:10287000284601F023F810B12046174927E02846E2
:1028800001F023F810B12046144920E0284601F059
:1028900022F810B12046124919E0284601F022F82A
:1028A00010B120460F4912E0284601F022F810B17D
:1028B00020460D490BE0284601F022F810B12046D1
:1028C0000A4904E020460A4901E00A49204602F08C
:1028D00025FC204638BD00BF60FC000868FC0008ED
:1028E0006DFC000874FC00087BFC000881FC0008FB
:1028F00088FC0008FDF9000838B5456804464160C9
:10290000DDB18068A0B100F0FBFF30B1A068296A9A
:102910006268BDE8384001F029B8A06800F0E9FF1E
:1029200058B1A06829466268BDE8384000F0EEBEA4
:102930002846BDE8384000F0C1BC38BD10B504469B
:10294000084603F043F900F023FF01462046BDE8A6
:102950001040FFF7D1BF10B50446084600F04CFF09
:1029600001462046BDE81040FFF7C6BF0968FFF7E3
:10297000F2BF000070B5054648680C46164600F0E8
:10298000BFFF28B900F05EFF01462046FFF7B4FF05
:102990006068314600F0B7FE18B96068314600F053
:1029A000E3FE6368024A68602A60AB60284670BD37
:1029B00050FC00080448054B05490360054A002304
:1029C0004360836002F0AABFFC12002050FC0008A4
:1029D000FD2600080800002010B500221346815C87
:1029E000A1F13004092C01D8303B0AE0A1F14104E7
:1029F000052C01D8373B04E0A1F16104052C0AD86D
:102A0000573B032A0B4402F1010218BF1B01042AA1
:102A1000E5D1184610BD002010BD2DE9F0470B6828
:102A20008A688146551C9E189A5C8846222A1D4455
:102A300040F0CA804C682F460022F91AA14280F06B
:102A4000C3803978222909D05C2905D10137F91AC8
:102A5000A14280F0B98001320137EEE7C2F10102F4
:102A6000B81BD8F81030104498478246002800F070
:102A7000AB800446BD4280F08B802B785C2B03D06A
:102A8000237001350134F5E77A1B002A40F390806A
:102A90006B78662B19D00CD82F2B17D002D8222B8D
:102AA00014D085E05C2B11D0622B40F0818008238C
:102AB0000CE0722B0ED003D86E2B79D10A2305E0DF
:102AC000742B09D0752B09D072E00C2323700134CC
:102AD00002235BE00D23F9E70923F7E7052A67DD09
:102AE000A81CFFF779FFA0F55C43B3F5806F06469D
:102AF0005ED3A0F55843B3F5806F1CD2AB1DFB1A13
:102B0000052B55DDAB795C2B52D1EB79752B4FD171
:102B100005F10800FFF760FFA0F55C43B3F5806F97
:102B200046D2C0F30900C6F3090640EA862606F538
:102B300080360C2306E07F284FF006030BD9B0F552
:102B4000006F0BD3B6F5803F0BD3B6F5881F2FD29D
:102B5000F021042207E00021012204E0C02102222A
:102B600001E0E0210322501EC0B240B106F03F0C4C
:102B70006CF07F0C04F800C0B6090138F4E7012AB4
:102B800014BF0E4306F07F06267014441D4471E7FF
:102B9000002323701023C9F80C30D8F80030C9F88E
:102BA00010A0FB1A0133C8F808300120BDE8F087F7
:102BB000D8F8143050469847D8F80030ED1AC8F8C5
:102BC00008500020BDE8F087002DF5D1F9E710B5D9
:102BD00090B102687AB1416883688B4202D38B421C
:102BE00006D010BDD45C202CF9D801338360F3E704
:102BF000013B836010BD104610BD61B160B18368B8
:102C00000BB9816005E01A680AB11346FBE7196049
:102C10004B60012070470846704738B5044638B10C
:102C2000006828B1A568284404F0EEFE2844A0609E
:102C300038BD70B5044600283ED0006800283DD05D
:102C4000636813B1A2689A4237D2002935DBA268C3
:102C5000561C0E449E4201D8104470BD2369002BBF
:102C60002BD1B6F1804F06D3002EA8BF6FF00046DF
:102C700002DA184670BD7600236A23B131469847C0
:102C80000546A0B904E0A36930469847054630B927
:102C90002068E369984765602560284670BDA26892
:102CA0002168013204F040F9E36920689847A06880
:102CB00084E86000284470BD70BD002070BD000035
:102CC0002DE9F8430746084611B90020BDE8F8830E
:102CD00017B13A4600250DE00321FFF7AAFF0028AF
:102CE000F3D0384904F032FE68E00D2B0DD80C2BE0
:102CF00006D30135904612F8013B002BF5D10CE0CC
:102D0000A3F10801022904D8F3E7222BF1D05C2BB0
:102D1000EFD01F2B98BF0535ECE7C7EB0808A84498
:102D200008F10301FFF785FF06460028CDD04FF0DC
:102D30002209013086F8009045B94644394642469A
:102D400004F0F2F886F80190B57037E0044617F801
:102D5000013B7BB31F2B06D9222B04D05C2B02D066
:102D60002370204624E05C23237017F8012C601C9C
:102D70000C2A12D007D8092A13D00A2A0FD0082A01
:102D800012D162230EE0222A05D05C2A03D00D2A3C
:102D90000AD1722306E062700AE0662302E06E2325
:102DA00000E07423637003E0074904F0E1FB601D59
:102DB000441CCCE7464422227270B3700120BDE867
:102DC000F88300BF90FC000893FC00082DE9F8434D
:102DD0000D4600284CD000293FD084685AB9254BB5
:102DE0001E680EE0216A00293DD0284604F090FCC0
:102DF000002838D02468002CF4D131E0206A18B9BA
:102E00002468002CFAD12BE085422CD000216B5C89
:102E1000F21892F801C0425C0CF0030CB7187F78EE
:102E2000BCF1010F07F003070CBF03F1200999461D
:102E3000012F0CBF02F120089046C14503D101319A
:102E4000002BE4D10FE0BCF1010F08BF2033012FAC
:102E500008BF20329342D3D105E00846BDE8F8838D
:102E60002046BDE8F883236A002B14BF20460020CB
:102E7000BDE8F8830409002010B5034628209847D0
:102E8000044618B10021282204F02AF9204610BD7A
:102E90002DE9F0410E468AB00546002800F08081F9
:102EA000002900F07D81047B082C39D007DC022C3E
:102EB0002BD0042C15D0012C40F072811AE0202C6C
:102EC00000F08B8007DC102C40F06A810069FFF76E
:102ED000F7FE044665E1402C00F0C380802C69D0E9
:102EE0005EE108460521FFF7A4FE002800F05881A6
:102EF000A04912E008460621FFF79BFE002800F0DB
:102F00004F819D4904F022FD4BE108460521FFF762
:102F100090FE002800F04481984904F017FD3DE13F
:102F2000D0E90645002200232046294602F0B4FEDF
:102F30000022002303F018F903AF30B938468D4959
:102F400004F004FD4FF004081FE08D4922462B4693
:102F5000384604F00DFB8B4980466A46384604F03B
:102F60002DFB012806D1DDE9000122462B4603F0A6
:102F7000FBF830B93846844922462B4604F0F8FA6B
:102F80008046B8F1190F00F20B81304608F10101BB
:102F9000FFF74FFE002800F003810023434503D0D4
:102FA000FA5CC2540133F9E70022C254B2681344F8
:102FB000B360F3E00069002800F0F28004F024FD23
:102FC000441C21463046FFF734FE002800F0E8801C
:102FD0002969224603F0A8FFE0E084680846012141
:102FE000FFF727FE002800F0DB805B230370B36847
:102FF0000133B360F3680133F3603CB320463146DC
:10300000FFF746FF002800F0CB803046FFF705FEB3
:103010002368CBB173693046002B0CBF0125022514
:10302000691CFFF706FE002800F0BA802C2303700D
:1030300073690BB9431C02E02022831C42700022FA
:103040001A70B3681D44B5602468D6E73046022183
:10305000FFF7EFFD002800F0A3805D2303704470AC
:1030600099E04B698468002B0CBF012502250846B6
:10307000691CFFF7DEFD002800F092807B230370BF
:10308000F3680133F36073690BB10A234370B368CB
:103090001D44B5607369002C56D083B13046F16889
:1030A000FFF7C7FD00287BD00023F268934203D2CC
:1030B0000922C2540133F8E7B3681A44B260206AA7
:1030C0003146FFF7FDFD00286AD03046FFF7A5FD29
:1030D00073693046002B0CBF012502252946FFF7F6
:1030E000A8FD00285CD03A23037073690BB1092353
:1030F0004370B36820461D44B5603146FFF7C8FEF3
:1031000000284DD03046FFF788FD756923680035EB
:1031100018BF0125002B18BF01353046691CFFF789
:1031200088FD00283CD0236813B12C2303700130A4
:10313000736913B10A230370013000230370B3686D
:1031400024681D44B560A5E713B1F168013100E0C2
:1031500002213046FFF76DFD10B37369BBB1034622
:10316000F268191A013A914210D2092203F8012B90
:10317000F6E700BF68FC000899FC00089FFC000807
:10318000A4FC0008ABFC0008AFFC000818467D2337
:10319000037000234370F368013BF360012400E0F7
:1031A000002420460AB0BDE8F08100BF70B5064695
:1031B00068B104F029FC074B451C1B68284698475A
:1031C000044628B131462A4603F0AEFE00E070BD49
:1031D000204670BD0C000020F8B514460646F8B134
:1031E000F1B1EAB123B1D7680D4647F4007707E0A3
:1031F0000846FFF7DBFF054690B1E76827F4007744
:10320000E3689B0504D4206A10B1064B5B689847BD
:103210002562E76030462146BDE8F840FFF7EDBC87
:103220000020F8BD0C000020F0B5234C8BB00D46FB
:1032300024220021064601A803F052FF23684FF420
:10324000807098474FF48072034606950AAD01904E
:103250000292274694E8070005E9070023B33046A9
:1032600001A9FFF715FEF8B101A8FFF7D6FCA56884
:10327000039925B101980131A847D0B914E023681A
:10328000481C9847064678B1039A029B01329A423D
:1032900028BF1A46019903F047FE039BF554019895
:1032A00063689847304604E0019808B17B68984706
:1032B00000200BB0F0BD00BF0C00002070B504462C
:1032C000E4B1E3682668DA0503D4A06808B1FFF723
:1032D000F5FFE3680A4D13F4807F03D1206908B13C
:1032E0006B689847E3689B0503D4206A08B16B6854
:1032F000984720466B6898473446E1E770BD00BFA9
:103300000C000020000000002DE9F047074692B0B5
:103310000E46002900F06E810D68002D00F06C81D2
:103320008C68D1F8048004F10409C1450AD8281931
:10333000A349042204F098FB20B90423FB60C6F8DB
:1033400008907DE004F1050AC2450AD828199D4974
:10335000052204F089FB20B90120F860C6F808A016
:103360004DE1C1450CD828199749042204F07CFB93
:1033700030B902230120FB607861C6F808903EE175
:10338000444580F03B812B5D2919222B04D138461E
:103390003146FFF742FB32E12D2B03D0A3F130027F
:1033A000092A51D800220192C4EB0804A2420DF16F
:1033B000080813D08B5C392B07D8302B09D22D2B62
:1033C00007D02E2B05D02B2B02E0452B01D0652BEF
:1033D00004D108F8023001323F2AE7D112AB1A4477
:1033E0004FF0000A404601A902F840AC05F0D8FDB4
:1033F000DDF804900446C1450D4623D06EA3D3E901
:103400000023C7E9064502F0CDFE10B16FF000437E
:1034100008E02046294600226C4B02F0B9FE18B1A4
:103420004FF000437B6104E02046294602F0CEFEC7
:1034300078610823FB60B368C8EB09084344B360B4
:103440000120DCE05046DAE05B2B50D1F368B3F5A5
:103450007A7F80F0D3800133F3602B5D5B2B40F0EB
:10346000CD800134B4603046FFF7B1FBB3687268B9
:1034700093425BD23268D25C5D2A2BD0013B4FF085
:103480000008B36044463069FFF7F6FC054648B3D0
:1034900024B1C8F80000C0F8048000E00446B36816
:1034A00030460133B360FFF792FB28463146FFF701
:1034B0002BFFD0B13046FFF78AFBB36872689342A6
:1034C00013D23268D35C2C2B02D05D2B0DD102E0DD
:1034D000A846D8E70024F368013BF3602023FB6093
:1034E000BC607FE0002C00F0898020467FE07B2BD1
:1034F00040F08480F368B3F57A7F7FD20133F360C4
:103500002B5D7B2B7AD10134B4603046FFF75FFB33
:10351000B3687268934209D23268D25C7D2A5AD06D
:10352000013B4FF00008B36045463AE0013BB36011
:1035300064E0002D3CD0C8F80000C0F80480B368F7
:1035400030460133B360FFF742FB20463146FFF7B8
:1035500064FA00284AD03046FFF739FB23697268C5
:10356000236200232361B36893423FD23268D25C66
:103570003A2A3BD10133B3603046FFF728FB20469F
:103580003146FFF7C1FE002830D03046FFF71FFB61
:10359000B3687268934229D23268D35C2C2B17D15E
:1035A000A0463069FFF768FC04460028C1D11CE042
:1035B0000546C4E7AFF300800000C0FFFFFFDF4116
:1035C00068FC000899FC00089FFC00080000E0C1AE
:1035D0007D2B0BD100E00025F368013BF360402315
:1035E000FB60BD60B368013329E73DB12846FFF7B2
:1035F00065FE03E0084602E0284600E0002012B025
:10360000BDE8F087AFF300802DE9F04389B00446B0
:103610000E46914601A800211C2203F061FD2F4BAC
:1036200000271F605F609846002C53D0204601940D
:1036300004F0EAF92A4B0130029093E8070008AB46
:1036400003E90700FFF718FC0546002831D0019870
:1036500078B1039B53B9029B042B09D9214903225A
:1036600004F002FA20B90323039301E0384600E096
:1036700001A8FFF7ACFA01462846FFF745FEA8B1BE
:10368000B9F1000F05D17EB1039B019A1344336059
:103690000AE001A8FFF79BFA039B029A934205D226
:1036A000019AD35C13B9EEE7284614E02846FFF7E9
:1036B00005FE039B029A934203D30AB1531E00E016
:1036C00013460EB1E2183260C8F80040C8F8043062
:1036D000002000E0204609B0BDE8F0830813002078
:1036E0000C000020BFFC000800210A46FFF78CBF39
:1036F0000021FFF799BD28B18368002013B1013084
:103700001B68FBE770470122FFF760BB10B5E8B10B
:10371000BAB1C1B18A4218D00B684C6813605460CA
:1037200003B15A60536803B11A6083688B424FF04B
:10373000000308BF82600B604B600846FFF7BEFDC8
:1037400003E0104610BD084610BD012010BD00006A
:1037500008B5044B1868FFF78FFB08B10423C3605A
:1037600008BD00BF0C00002070B505460E46FFF7EF
:10377000EFFF04463146284622460023FFF72CFD82
:10378000054620461DB9FFF799FD284670BD70BD5E
:10379000174B70B5044618680D46FFF76DFB0646DB
:1037A000F0B10823C360C0E906450FA3D3E90023A5
:1037B0002046294602F0F6FC10B16FF0004308E005
:1037C0002046294600220B4B02F0E2FC18B14FF0D4
:1037D0000043736104E02046294602F0F7FC706163
:1037E000304670BDAFF300800000C0FFFFFFDF4137
:1037F0000C0000200000E0C138B50B4B05461868EE
:10380000FFF73AFB044660B11023C3602846FFF778
:10381000CDFC05462061204625B9FFF74FFD28461F
:1038200038BD38BD38BD00BF0C00002008B5044BC2
:103830001868FFF721FB08B12023C36008BD00BF53
:103840000C00002008B5044B1868FFF715FB08B101
:103850004023C36008BD00BF0C0000202DE9F843E1
:10386000B1F10009804602DA0020BDE8F8830028A3
:10387000FAD0FFF7DBFF06460028F5D000273D46CB
:103880004D4511D258F82500FFF7B6FF044618B988
:103890003046FFF713FDE7E70DB9B06001E038608F
:1038A000476001352746EBE73046BDE8F88320B195
:1038B000007BD0F1010038BF0020704720B1C06804
:1038C00010F0030018BF0120704718B1007B031FE0
:1038D00058425841704720B1007BB0F1080358426C
:1038E0005841704720B1007BB0F110035842584155
:1038F000704720B1007BB0F1200358425841704717
:1039000020B1007BB0F1400358425841704700009D
:1039100008B5024B5B68984708BD00BF0C0000204B
:10392000F8B506460D461F461446DAB1E1B1D36834
:103930009B0503D4106A08B1FFF7EAFF2846FFF79A
:1039400035FCE368206223F40073E36029463A46BD
:103950003046FFF73BFA224601463046FFF7D6FED7
:103960000120F8BD1046F8BD0846F8BD0123FFF759
:10397000D7BF122938B50546144608460BD013297F
:1039800010D0112916D100F071F80CB120460FE0CB
:1039900047F6FF700CE000F069F8002CF6D149F60C
:1039A0003F4005E000F062F8002CEFD14FF22340D9
:1039B00000F010F9284638BD13B50022044601A8CE
:1039C000FFF7D7FF204602B010BD084600F0E8B868
:1039D00000F0D4B8054B1B681B685B0103F18443FE
:1039E00094331A68002AFCD0704700BF18000020EA
:1039F000054B1B681B685B0103F184438C331A6819
:103A0000002AFCD0704700BF1800002008B5FFF75F
:103A1000E1FF054B00221B681B685B0103F1844337
:103A2000C3F88C2008BD00BF1800002008B5FFF7C0
:103A3000D1FF054B01221B681B685B0103F1844326
:103A4000C3F8902008BD00BF1800002008B5FFF79C
:103A5000C1FF054B00221B681B685B0103F1844317
:103A6000C3F8902008BD00BF1800002010B5044620
:103A700000F0E9FA00F0F4FA204A112C136A23F45A
:103A80004073136213460BD005D8C4B1102C2AD151
:103A90000023136227E0122C11D0132C1AD022E03D
:103AA000174A00211160012142F8081C154A1268CA
:103AB00012F0FF0FFAD01A6A42F4807212E0124A32
:103AC00001211160114A1268002AFBD01A6A42F4DF
:103AD000007207E00E4A126812F0FF0FFAD01A6A5D
:103AE00042F440721A620B4B01221A60FFF78EFFFC
:103AF000FFF77EFFBDE81040FFF76CBF00100240EB
:103B00000804424204044242800442428404424285
:103B1000440042423C044242F8B5104B1E683568EE
:103B20002B686F681F4017F0010403D074680CB154
:103B3000A0470124BA0704D5B36813B1984744F0ED
:103B400002047B0704D5F36813B1984744F00404DA
:103B50006B6823EA04046C60F8BD00BF1800002005
:103B600008B5044B1B681B691BB19847024B012227
:103B70001A6008BD18000020C482204208B5FFF773
:103B800045FFFFF735FFFFF725FF044B1B681B6858
:103B90009869DB699BB243EA004008BD1800002029
:103BA00010B50446FFF732FFFFF722FFFFF712FFC1
:103BB000FFF73CFF064B220C1B68A4B21B689A61FE
:103BC000DC61FFF743FFBDE81040FFF703BF00BF14
:103BD0001800002010B50446FFF718FFFFF708FF94
:103BE000FFF7F8FEFFF722FF064B220C1B68A4B27A
:103BF0001B689A60DC60FFF729FFBDE81040FFF703
:103C0000E9BE00BF1800002001498D460149084760
:103C100000500020193C000808B5124B124A1968E0
:103C2000914201D0002301E0104B07E01048D41866
:103C30008442F9D2C858D0500433F7E70D4A934272
:103C400003D2002243F8042BF8E702F05BFE0020C9
:103C50000146024601F0BEFC074B0BB102F042FEEA
:103C6000FEE700BF7C06010800000020A81100202C
:103C7000A811002008140020E568000808B50D4BC5
:103C80001A680AB90C4A1A601B680C4AD21A824296
:103C900004DB09494242591A914206DA02F01CFE3D
:103CA0000C2303604FF0FF3008BD024A1844106037
:103CB000184608BD101300200814002040430128B6
:103CC000FEE770470B4B10B5196809220A230A4812
:103CD00000F080FF094B022219680948032300F015
:103CE00079FFBDE81040074B074819681A221B23CB
:103CF00000F070BF3C0100201413002040010020A0
:103D00002C130020440100204413002010B5044669
:103D100000F07EF9034B20461978BDE8104000F012
:103D200013B900BF34000020F8B50446056800F060
:103D30002DFB22680023510101F184410B60802199
:103D400029600121A9622B61EB606379696113B17C
:103D50008B4203D02BE04FF400436B644FF6FF73AC
:103D6000D36200256E1CF7B22046394600F018FBDE
:103D7000D0B1236848F6FF7103F1340242F82510F0
:103D800018336D1017F0010F53F8252014BF6FF092
:103D9000FF016FF47F4101EA020214BF68214FF472
:103DA000D0410A4343F82520042E3546DAD1216854
:103DB00001224B01490103F1844301F18441C3F81D
:103DC00080220A60F8BD000038B5274B274C1A68DE
:103DD000022042F010021A6000F04EF90025002087
:103DE00000F0E0F965602368182023F400232360C5
:103DF00000F0E5F9102000F0E2F900F043F8A560CA
:103E0000102000F0CFF9102000F0F6F90028FAD0C9
:103E100000F039F8164800F0FBF9182000F0C2F95C
:103E2000182000F0E9F90028FAD0022000F0AAF9E1
:103E300000214FF0006000F087F90E4800F05EFAB4
:103E400000F038F80C4B188800F0D0F80B4800F060
:103E5000D1F80B4800F086FA00F02EF800F02DF8AB
:103E6000FFF72FFF38BD00BF0020024000100240C6
:103E7000380000203F190100360000200D3D0008E9
:103E8000293D0008704708B50020014600F00EFAF1
:103E900001204FF4806100F009FA0021022000F0B7
:103EA00005FA2D2000F012FABDE808400320002199
:103EB00000F0FCB900F0EAB8704700F027B9000044
:103EC000012007E0022005E0032003E0042001E0D8
:103ED0000520FFE70D4A0121116072B60C4A00214E
:103EE0001160074902B4084902B486B005498E46FC
:103EF000704700BFAFF30080AFF30080AFF30080E6
:103F000000000061F9FFFFFF8D4A000814ED00E09A
:103F100010E000E0AFF30080AFF30080AFF300806B
:103F2000FEE710B50446007900F08EF92079BDE86F
:103F3000104000F0A1B903689A6822F4602242F4AC
:103F40008012114399607047002370B51A461C46D1
:103F5000072B4FEA430503DCEE1801FA06F634435B
:103F60001D4401FA05F501330A2B42EA0502EFD19F
:103F70000368DC601A6170BD38B5124D2A68136899
:103F80001C68A10706D5196821F002011960936821
:103F900003B19847620708D52B681A681B69116836
:103FA00021F00401116003B19847E30708D52B689D
:103FB0001A68DB68116821F00101116003B19847AC
:103FC00038BD00BF64000020036801225B0103F1DB
:103FD000844303F58673191F1A6018680028FCD102
:103FE00043F8042C0B68002BFCD1704701460420D9
:103FF00000F05CB9044B10B504461868A047034BA9
:104000001868A04710BD00BF6400002060000020B9
:1040100010B50446FFF785FF20464FF46021FFF7F7
:104020008AFF2368012103F1404308335A015B01F1
:1040300002F1844203F18443116520461960BDE812
:104040001040FFF7C1BF08B5142000F0FDF80420B0
:1040500000F0FAF8BDE80840042000F00DB90000B7
:10406000014B01221A60704720000E42014B0022D2
:104070001A60704720000E42034B1A6822F00702B4
:1040800010431860704700BF0020024008B5074881
:1040900001F095FB064801F092FB064801F08FFB0A
:1040A000BDE80840044801F08ABB00BF680000205A
:1040B00070000020780000208000002070B501F022
:1040C0000704A4000F25A5400368C80853F8206022
:1040D000092A26EA050514BF1646082606FA04F43E
:1040E000082A44EA050443F8204006D1012000FADA
:1040F00001F1DA6822EA010106E0092A05D101206E
:1041000000FA01F1DA681143D96070BD08B50320E7
:1041100000F09AF8BDE80840032000F0ADB80000B8
:1041200000284FEA011105DA064B00F00F00C9B272
:104130001954704700F16040C9B200F5614080F841
:104140000013704714ED00E021F0604138B521F014
:104150007F01084B0843986000241D4660B20F2180
:104160000134FFF7DDFF2B2CF8D1F02385F8233045
:1041700038BD00BF00ED00E0014B13F810007047A0
:10418000A2FF0008064B5A6822F0030202435A605D
:1041900080005A6802F00C028242FAD1704700BFD8
:1041A00000100240030A0121C0B201FA00F003F13D
:1041B000804303F504331A68104318607047030AFC
:1041C0000121C0B201FA00F003F1804303F504338A
:1041D0001A6822EA000018607047030A0122C0B280
:1041E00002FA00F003F1804303F504331B68184220
:1041F0000CBF002001207047030A0222C0B202FA5D
:1042000000F003F1804303F504331B681840704746
:1042100038B54368044618201D68FFF7DEFF20B15B
:1042200006488121064A00F03BFC064B21685A688B
:104230000D4322F4741215435D6038BDF8FE00088A
:1042400086FF00080010024010B50446FFF794FFF7
:10425000074B53F82020074B03EB4404637803EB30
:10426000C2039B0003F1844301221A6010BD00BF0A
:1042700088000020A2FF000810B50446FFF77CFF6D
:10428000084B53F82020084B03EB4404637803EBFE
:10429000C2039B0003F1844301221A6000221A60CA
:1042A00010BD00BF94000020A2FF000810B5054B10
:1042B000054C5A6854F8200022EA00021143596064
:1042C00010BD00BF001002400000010810B50446F8
:1042D000FFF752FF074B53F82020074B03EB440432
:1042E000637803EBC2039B0003F1844300221A604E
:1042F00010BD00BF9C000020A2FF0008024B072257
:1043000058601A60704700BF10E000E008B5044B29
:104310001A6801321A60034B1B6803B1984708BD45
:10432000FC1300205C13002011F0010F70B542EA6D
:1043300003030CBF0825002503FA05F5006801F109
:10434000FF3400F11800C4F3400450F8241014BFE7
:104350006FF0FF066FF47F463140294340F8241088
:1043600070BD000010B504460448A0470448A047AB
:104370000448A0470448A04710BD00BFF00000203B
:1043800018010020A8000020CC00002010B5044631
:104390000079FFF759FF2079BDE81040FFF76CBFA7
:1043A00038B54B1E032B0D46047905D90E4840F253
:1043B00003110E4A00F074FB1E2C10D9212C0ED0D4
:1043C000202C0ED9222C01D0252C04D1022D8CBFFB
:1043D0000020012038BD6B1E5842584138BD0120D5
:1043E00038BD002038BD00BF140001086700010877
:1043F0008B1C40F823200368012203F140430C3357
:1044000001EBC3039B0003F184431A6042790379F3
:104410001ABBB3F11A0253425341072919D8DFE8F6
:1044200001F004090909090E0E13002B14BF19230A
:104430002C233BE0002B0CBF2E231B2336E0002B4C
:104440000CBF2D231A2331E0002B0CBF2B23182384
:104450002CE01B4840F28F1122E01B3B0C2B1CD898
:10446000DFE803F0212307090B0D1B0F11131517AC
:1044700019001E231AE0322318E0362316E03723F2
:1044800014E0182312E0192310E01A230EE02B2366
:104490000CE02C230AE02D2308E0094840F2BF116C
:1044A000084A00F0FDBA1C2300E01D23590901222F
:1044B00003F01F0302FA03F3034A42F82130704766
:1044C000140001089CF5000800E100E003680022E8
:1044D00003F140430C3301EBC3039B0003F184431E
:1044E00002311A6040F8212070470000F8B54E1ED6
:1044F000F3B2032B04460D46174604D92A48DA21A5
:104500002A4A00F0CDFA6379022B04D12648DD2136
:10451000274A00F0C5FA6379022B43D0032F41D814
:10452000DFE807F00212223520462946FFF7CEFFCA
:10453000236803F140432033DB0003EB8606B6001B
:1045400006F18446002320E02368002203F1404363
:104550000C3305EBC3039B0003F184431A60204630
:1045600029466022082303E0204629461022002322
:10457000FFF7DAFE236803F140432033DB0003EB4F
:104580008606B60006F1844601233360F8BD236831
:104590004FF2F1229A6103229A605B0103F1844396
:1045A00001221A60F8BD00BF14000108880001084C
:1045B000A400010810B5074B1C68E16822690A4095
:1045C000120606D55B6A23B19847236923F080035E
:1045D000236110BDF000002010B5074B1C68E16896
:1045E00022690A40D20706D59B6823B19847236900
:1045F00023F00103236110BDF0000020F8B50C4F3B
:104600003D68EB682E691E4016F0400403D03C6AFA
:104610000CB1A0474024B30604D5FB6913B19847F9
:1046200044F020042B6923EA04042C61F8BD00BF88
:10463000F0000020F8B5134F3E68F36835691D405F
:1046400015F0100403D0BC690CB1A0471024290751
:1046500004D57B6913B1984744F008046A0704D570
:104660003B6913B1984744F00404AB0704D5FB68D9
:1046700013B1984744F00204336923EA0404346117
:10468000F8BD00BFF0000020F8B51A4E3768FB688F
:104690003D691D4015F0400403D0346A0CB1A047B9
:1046A0004024EB0604D5B36913B1984744F01004D5
:1046B000280704D5736913B1984744F008046907C3
:1046C00004D5336913B1984744F00404AA0704D50C
:1046D000F36813B1984744F00204EB0704D5B368BC
:1046E00013B1984744F001043B6923EA04043C6198
:1046F000F8BD00BF18010020F8B51A4E3768FB68F6
:104700003D691D4015F0400403D0346A0CB1A04748
:104710004024EB0604D5B36913B1984744F0100464
:10472000280704D5736913B1984744F00804690752
:1047300004D5336913B1984744F00404AA0704D59B
:10474000F36813B1984744F00204EB0704D5B3684B
:1047500013B1984744F001043B6923EA04043C6127
:10476000F8BD00BFA8000020F8B51A4E3768FB68F6
:104770003D691D4015F0400403D0346A0CB1A047D8
:104780004024EB0604D5B36913B1984744F01004F4
:10479000280704D5736913B1984744F008046907E2
:1047A00004D5336913B1984744F00404AA0704D52B
:1047B000F36813B1984744F00204EB0704D5B368DB
:1047C00013B1984744F001043B6923EA04043C61B7
:1047D000F8BD00BFCC00002081880268034689B282
:1047E000505C99881A8989B292B2914217BF9A880F
:1047F0000022013292B2C0B29A807047C28838B5A6
:10480000838892B29BB201329A4204460D461AD076
:10481000C288038992B29BB29A4202D183889BB22A
:104820008BB14FF0FF30E288236892B29D54E2884A
:10483000238992B29BB29A4217BFE38800230133C7
:104840009BB2E38038BD2046FFF7C6FFEBE770B5AB
:104850001E460546084611460422059CFFF72EFC1D
:104860009DF810100B223046FFF728FC2B6804F04F
:104870000F01DA6804F0300422F4F0521204120C32
:1048800042EA4122DA601A6922F440521204120C00
:1048900042EA04241C6170BD70B5054616460C46FC
:1048A00041B900F0A1F8044620B90E48AE210E4AE5
:1048B00000F0F6F819235C43B6006423B4FBF6F469
:1048C000B4FBF3F21201110903FB11442401323449
:1048D000B4FBF3F303F00F0329681A4392B28A6022
:1048E00070BD00BFBD0001081301010838B5114DAE
:1048F000EB68980607D52B68990604D569680E48B9
:10490000C9B2FFF77BFFEB680A4C1A0611D5236882
:104910001B060ED509488288C38892B29BB29A4280
:1049200003D0FFF759FF606038BDE36823F08003D0
:10493000E36038BD003801406C1300206013002094
:1049400038B5114DEB68980607D52B68990604D544
:1049500069680E48C9B2FFF751FFEB680A4C1A06A6
:1049600011D523681B060ED509488288C38892B2E8
:104970009BB29A4203D0FFF72FFF606038BDE36817
:1049800023F08003E36038BD00440040781300202A
:104990009013002038B5114DEB68980607D52B68A9
:1049A000990604D569680E48C9B2FFF727FFEB687E
:1049B0000A4C1A0611D523681B060ED509488288B1
:1049C000C38892B29BB29A4203D0FFF705FF6060A2
:1049D00038BDE36823F08003E36038BD0048004041
:1049E000841300209C13002008B590F89002FFF774
:1049F000C3FB20B10128034818BF002008BD0248AE
:104A000008BD00BF00A24A040051250213B50446A8
:104A10008DF8071020460DF10701012200F00EFF6E
:104A20000028F7D002B010BD38B505464C1E14F86A
:104A3000011F19B12846FFF7E9FFF8E738BD00006C
:104A400008B5114B01211C6803222046FFF736FBF5
:104A5000002301211A469342206834BF02254FF4F7
:104A60000035B2F5007F056103F1010303D0002A90
:104A700008BF012101E04FF0FF31B3F5007F04BF13
:104A800052180023E7E700BFF4FE000808B5034B07
:104A90000BB1AFF3008062B6FFF7D2FF0000000059
:104AA000F8B5144B06460D4617460BB3AFF300801E
:104AB00011490446FFF7B8FF20463946FFF7B4FF17
:104AC00020460E49FFF7B0FF20463146FFF7ACFF06
:104AD00020460B49FFF7A8FF2046294600F0FCFEC0
:104AE00020460A21FFF792FF20460D21FFF78EFF97
:104AF000FFF7CCFF000000001F010108350101088D
:104B00003601010803695B68D9889A8889B292B234
:104B1000D8888A1A998880B289B2884203D21989C2
:104B200089B201310A4492B282B199881A6889B275
:104B3000505C99881A8989B292B2914217BF9A88BB
:104B40000022013292B2C0B29A8070474FF0FF301B
:104B5000704703695B689988DA8889B292B291429A
:104B600005D09A881B6892B2985CC0B270474FF02B
:104B7000FF30704703699A689088D18880B289B203
:104B80008842F9D11A6813685B06FCD5704713B5E3
:104B900004698DF8071020460DF10701012200F08D
:104BA0004DFE0028F7D0012002B010BD03695B68FC
:104BB000D8889A8880B292B2D988801A9A8889B2A5
:104BC00092B2914203D21B899BB20133184480B246
:104BD0007047000030B5002545604FF47A75856058
:104BE000024D016105600275437530BD6801010821
:104BF00003692DE9F74FDB68044699420F46924658
:104C00002CD890F81480174D4FEA081808EB0506C9
:104C100090F8159070684FEA091909EB050B717B44
:104C200010B10022FFF762FC206900F0D3FD337B56
:104C30009BF80C2020698DE8080459F8051058F8F5
:104C40000530FFF704FE206900213A46FFF724FEF5
:104C5000206903B0BDE8F04F00F0E6BD03B0BDE849
:104C6000F08F00BFC4FC00080022FFF7C1BF0000A6
:104C7000044B02791B789A4202D1034B1B681860DF
:104C8000704700BFB8130020BC130020002310B5EC
:104C90000446036072B6094B19311970084B18604D
:104CA0000848FFF75FFB62B6236823B90648432133
:104CB000064AFFF7F5FE204610BD00BFB8130020DE
:104CC000BC130020714C000888010108DC010108B8
:104CD000036800221B685B0103F184431A6070477C
:104CE000036801221B685B0103F184431A6070476B
:104CF000036801391B6889B29962704703681B68B1
:104D0000DA6A92B2914228BF11465962704738B5AB
:104D1000054639B9036801221B689962DA62D86ACC
:104D200080B238BD48244C434FF6FF71B4FBF1F11B
:104D3000013189B204EB5104B4FBF1F4FFF7D8FF61
:104D40002B68A4B21B682046DC6238BD0068C9B27B
:104D5000FFF74EBB08B501210848FFF797FF022176
:104D60000748FFF793FF03210648FFF78FFFBDE8D1
:104D7000084005480421FFF789BF00BFA8130020A1
:104D8000AC130020B0130020B41300202DE9F04133
:104D9000002407460E4625463B1919790A2230465B
:104DA00000F01DF92E218046304600F04DF8013408
:104DB0004044032C0544EFD13046F9790A2200F033
:104DC0000EF92844BDE8F08130B58371034D9DF89C
:104DD0000C30056001714271C37130BDF8010108EA
:104DE000044B054A1A6000221A715A719A71DA71DD
:104DF000704700BFC0130020F801010870B50546D8
:104E00000E460024315D29B12A6828461268904771
:104E10000134F7E7204670BDF8B505460C46164646
:104E20008F18BC4206D02B6828461B6814F8011B5B
:104E30009847F6E73046F8BD10B502680B4694680F
:104E400009689A68A04710BD08B503681B689847B1
:104E500008BD08B503685B68984708BDFFF7F9BF50
:104E600010B50A680446126808462146904710BDEE
:104E700038B50D210546FFF7E7FF0A21044628460D
:104E8000FFF7E2FF204438BD38B50446FFF7D4FFF2
:104E900005462046FFF7ECFF284438BD38B50446E8
:104EA000FFF7D7FF05462046FFF7E2FF284438BD4D
:104EB00038B50446FFF7CDFF05462046FFF7D8FF7B
:104EC000284438BD38B50446FFF7CAFF05462046DA
:104ED000FFF7CEFF284438BD2DE9F04F14461D469C
:104EE00091B054EA050381469DF868B004D13021A1
:104EF000FFF7AAFF01202EE04FF000085FFA8BF6C3
:104F000000272046294632463B4601F0D7F908F1F2
:104F100001080DF1000AC2440AF8012C2046294676
:104F20003B46324601F0CAF904460D4654EA0503F1
:104F3000E4D1002408F1FF381DF80810484609297B
:104F400094BF30313731C9B2FFF77EFF0444B8F166
:104F5000000FEFD1204611B0BDE8F08F2DE9F041F0
:104F6000069F064614461D462FB90368D1B21B683A
:104F70009847BDE8F081002C75F1000305DA2D217A
:104F8000FFF762FF644265EB4505FFB206973046C6
:104F900022462B46BDE8F041FFF79EBF07B5CB1771
:104FA00000920A46FFF7DAFF03B05DF804FB38B55C
:104FB0000446FFF7F3FF05462046FFF759FF284454
:104FC00038BD70B5049921B90368D1B21B68984700
:104FD00070BDC9B20491BDE87040FFF77DBF07B551
:104FE00000230092CAB2FFF7ECFF03B05DF804FBA8
:104FF00038B50446FFF7F3FF05462046FFF738FFB4
:10500000284438BD07B5002300920A46FFF7D9FFB0
:1050100003B05DF804FB000038B50A4B04461A687B
:105020001D46C2602268204613699847002807DAA7
:10503000E2682B689B1AA2689342F3D34FF0FF30CB
:1050400038BD00BFFC13002070B50D460949044669
:10505000164600F063F82846FFF7DEFF01460029F8
:10506000204605DBB14203D0C9B200F0E8F8F2E710
:1050700070BD00BF5D01010870470022026010B5DD
:105080000C68426004604C68826044608C68846094
:105090000A604A608A6010BD10B50446006801F0DD
:1050A0006BFC204610BD10B50446006808B101F045
:1050B00063FC00232360A360636010BD38B5044621
:1050C0000D460068013102F059F810B184E8210062
:1050D000012038BD036810B5044613B143688B4204
:1050E00007D22046FFF7EAFF20B1A3680BB9226878
:1050F0001370012010BD70B50E46114604461546CA
:10510000FFF7E8FF18B92046FFF7CDFF04E0A560E0
:105110002068314602F01AFC204670BD38B50023E5
:1051200004460360436083600D4639B1084602F0CF
:105130006BFC294602462046FFF7DDFF204638BDBE
:1051400038B5054600680C4678B1096859B10C4B72
:105150004BB16A68A3689A4205D302F0F7FBA368D3
:10516000AB6000230AE001F007FC23682B60636852
:105170006B60A368AB60002323606360A36038BDED
:1051800079500008884210B50B46044607D00968DC
:1051900019B19A68FFF7AFFF01E0FFF784FF2046DF
:1051A00010BD10B500230446036043608360FFF721
:1051B000E9FF204610BD884210B5044601D0FFF734
:1051C000BFFF204610BD38B505460C4641B1084624
:1051D00002F01AFC214602462846FFF78CFF01E048
:1051E000FFF761FF284638BD70B5044685680E4656
:1051F00009B9002070BD62B115442946FFF76AFF66
:105200000028F6D02068A3683146184402F09EFBBF
:10521000A560012070BD0B469A680968FFF7E4BFDE
:1052200038B505460C46084641B102F0EDFB214673
:1052300002462846BDE83840FFF7D6BF38BD07B55F
:1052400000238DF80410012201A98DF80530FFF725
:10525000CBFF03B05DF804FB13B50A2204460846F1
:1052600001A900F07FFA01A802F0CEFB01A90246D5
:105270002046FFF7B9FF02B010BD1FB504460A2251
:105280000846694600F06EFA684602F0BDFB6946C2
:1052900002462046FFF7A8FF04B010BD1FB5044624
:1052A0000A220846694600F088FA684602F0ACFB1C
:1052B000694602462046FFF797FF04B010BD0B4633
:1052C00010B509689A680446FFF78EFF10B92046AA
:1052D000FFF7E9FE204610BD38B504460D4641B142
:1052E000084602F091FB294602462046FFF77CFF64
:1052F00010B92046FFF7D7FE204638BD10B504464A
:10530000FFF79DFF10B92046FFF7CDFE204610BDE8
:1053100010B50446FFF7B1FF10B92046FFF7C3FEF2
:10532000204610BD10B50446FFF7B8FF10B920465F
:10533000FFF7B9FE204610BD826808B50B4612B9CA
:1053400019B9012008BD11B90368187802E0006896
:1053500002F0DEF9D0F1010038BF002008BD08B529
:1053600082688B689A420CD3006868B1096851B1B1
:10537000D31A184402F0CCF9D0F1010038BF002054
:1053800008BD002008BD084608BD38B50C469AB1D6
:1053900091B181688B4202D30023237038BDC91AB2
:1053A000551E8D4228BF0D4601682A4619442046E5
:1053B00002F0B4FB0023635538BD836810B59A42F0
:1053C00006D20468A01802F029F908B1001B10BD2C
:1053D0004FF0FF3010BDF8B515468A680F46C2B1D0
:1053E0008368B3B19A4214D806689D4228BF03F17E
:1053F000FF3530464FF0FF34731998420CD83968A6
:1054000002F012FD40B1831BAB4298BF1C46013035
:10541000F2E74FF0FF30F8BD2046F8BD9A422DE983
:10542000F04107460D4614461E4601D9344616463D
:1054300038460C49FFF772FEAB689C420FD29E4281
:1054400028BF1E462B68002213F806809A5529684B
:1054500038462144FFF7B7FE2B6803F8068038462C
:10546000BDE8F0815D0101082DE9F74FD0F808A0F3
:1054700004460F461646BAF1000F77D0D1F808B0AF
:10548000BBF1000F72D093680568CBEB0308B8F14D
:10549000000F0DD12846396802F0C6FC05460028E9
:1054A00064D03168B26801F03FFDB3681D44F1E794
:1054B00002DB0B68D14622E0A9462846396802F093
:1054C000B3FC8246A0B1C5EB0A0B294648465A46B2
:1054D000D94401F029FD48463168B26801F024FD45
:1054E000B368BD689944A36855444344A360E4E7A6
:1054F0004846294603B0BDE8F04F02F027BA1946E6
:105500002846019302F090FC019B18B100EB0B05BB
:10551000C144F4E7D14529D06368994504D92046B0
:105520004946FFF7CBFD08B3A268013A002A1DDB0C
:1055300020463946FFF74FFF051E17DBBA68216882
:10554000A3682A44114401EB08009A1A01F062FD95
:10555000A368226843440021A360D1542068B26844
:105560002844316801F0E0FC6A1EDFE703B0BDE8C3
:10557000F08F2DE9F0410668054616B3876807B33A
:10558000B0464446207808F1010801F0E3F900280C
:10559000F7D1013F3744387801F0DCF948B90137D9
:1055A0003A1BB442AA6008D93046214601F0BCFC3F
:1055B00003E0A742F3D3013FEDE72A68AB6800217F
:1055C000D154BDE8F081006808B101F077B97047A7
:1055D000FEF7FABB08B5FCF775FFFCF7C5FFFCE763
:1055E00001F0CAB9222870B542D8082918D8DFE8D6
:1055F00001F01E2105080B0E0511140000240422E1
:105600001AE00024224617E00024092214E00024B6
:10561000082211E001240B220EE001240F220BE0EE
:1056200014484C21144ABDE87040FFF739BA0024F1
:10563000032201E000240722104B00011E18317BD9
:105640001858FEF73BFD706890B1717B24B10122C0
:10565000BDE87040FEF74ABF0368013903F14043DB
:105660002033DB0003EB81039B0003F184431C60C8
:1056700070BD00BF000201089CF50008C4FC0008D2
:1056800022280ED8084B00011A18127B012101FABA
:1056900002F21B581B689B681A420CBF00200120B5
:1056A00070470020704700BFC4FC0008222810D8B3
:1056B000084B00011A18127B1B58012000FA02F255
:1056C000D1F1010138BF0021090102FA01F11B6883
:1056D00019617047C4FC0008054B70B51C6806468C
:1056E0001D4600F007F82B681B1BB342F9D370BDB1
:1056F000FC1300207047F0B58BB059B3931E222BDA
:105700002AD80A2A2AD1002828DA4042012501ABEA
:105710001E4670B1B0FBF2F702FB1704092C3846A5
:10572000D8BF303403F10107C8BF57341C703B4663
:10573000EFE7B342EED01DB12D204A1C087000E007
:105740000A46B34204D913F8010D02F8010BF8E739
:1057500000231370084603E0002001E00025D6E78F
:105760000BB0F0BDFFF7C7BF70B58AB001B3931E91
:10577000222B1FD801AB1D4670B1B0FBF2F602FB25
:105780001604092C3046D8BF303403F10106C8BFD7
:1057900057341C703346EFE7AB42EED00A46AB42BB
:1057A00004D913F8010D02F8010BF8E70023137078
:1057B000084600E000200AB070BDFFF7D5BF10B565
:1057C00004460079FEF740FD2079BDE81040FEF761
:1057D00053BD0000436800227F2110B59A80DA8013
:1057E000198100F110011960836804469A80DA80FB
:1057F00040F2FF121A8100F190021A6090F89002B4
:10580000FEF722FD94F891325AB2002A08DB0121FA
:1058100003F01F0301FA03F30249521141F8223049
:1058200010BD00BF00E100E00368DA6842F02C021E
:10583000DA60DA6842F40052DA607047F0B58368E3
:105840000546046800209F88DE88BFB2B6B2B74222
:1058500004D0E36823F08003E36027E0266836067F
:10586000F7D59042F5D00E5C01306660EBE7DF883B
:105870009E88BFB2B6B20137B74211F800C01DD042
:10588000DF881E89BFB2B6B2B74213D0DF881E6868
:10589000BFB206F807C0DF881E89BFB2B6B2B742F2
:1058A00018D0DE880136B6B2DE8001309042AB6897
:1058B000DDD303E09E88B6B2002EE7D19A88DB885C
:1058C00092B29BB29A4200D1F0BDE36843F08003EC
:1058D000E360F0BD0026E7E77FB5064600240A2214
:1058E000B1FBF2F302FB1312013401AD281930327F
:1058F00000F8012C1946002BF1D114F1FF340BD321
:105900002B5D8DF8033030460DF103010122FFF7C6
:1059100095FF0028F7D0F0E704B070BD03460846B5
:10592000194600F0CFBF00BF81F0004102E000BF88
:1059300083F0004330B54FEA41044FEA430594EA4F
:10594000050F08BF90EA020F1FBF54EA000C55EA8A
:10595000020C7FEA645C7FEA655C00F0E2804FEA5B
:105960005454D4EB5555B8BF6D420CDD2C4480EA3D
:10597000020281EA030382EA000083EA010180EA6D
:10598000020281EA0303362D88BF30BD11F0004FBB
:105990004FEA01314FF4801C4CEA113102D04042F1
:1059A00061EB410113F0004F4FEA03334CEA13332C
:1059B00002D0524263EB430394EA050F00F0A78044
:1059C000A4F10104D5F1200E0DDB02FA0EFC22FA3F
:1059D00005F2801841F1000103FA0EF2801843FA33
:1059E00005F359410EE0A5F120050EF1200E012A24
:1059F00003FA0EFC28BF4CF0020C43FA05F3C01862
:105A000051EBE37101F0004507D54FF0000EDCF1DA
:105A1000000C7EEB00006EEB0101B1F5801F1BD383
:105A2000B1F5001F0CD349085FEA30004FEA3C0C87
:105A300004F101044FEA445212F5800F80F09A807D
:105A4000BCF1004F08BF5FEA500C50F1000041EB81
:105A5000045141EA050130BD5FEA4C0C404141EB85
:105A6000010111F4801FA4F10104E9D191F0000FAC
:105A700004BF01460020B1FA81F308BF2033A3F12F
:105A80000B03B3F120020CDA0C3208DD02F1140C26
:105A9000C2F10C0201FA0CF021FA02F10CE002F161
:105AA0001402D8BFC2F1200C01FA02F120FA0CFC5A
:105AB000DCBF41EA0C019040E41AA2BF01EB0451A3
:105AC000294330BD6FEA04041F3C1CDA0C340EDCA1
:105AD00004F11404C4F1200220FA04F001FA02F3E4
