:020000040800F2
:10000000005000207D370008413A0008453A0008BA
:10001000493A00084D3A0008513A0008A13A000850
:10002000A13A0008A13A0008A13A0008A13A000844
:10003000A13A0008A13A0008A13A0008453E00088C
:10004000A13A0008A13A0008A13A00085936000870
:10005000A13A0008A13A0008A13A0008A13A000814
:10006000A13A0008A13A0008A13A0008A13A000804
:10007000A13A0008A13A0008A13A0008A13A0008F4
:10008000A13A0008A13A0008F93A0008A13A00088C
:10009000A13A0008A13A0008A13A0008A13A0008D4
:1000A0006D40000891400008B5400008ED40000890
:1000B00041410008B141000821420008A13A00086E
:1000C000A13A0008A13A0008A13A0008A13A0008A4
:1000D000A13A00088D430008E143000835440008B8
:1000E000A13A0008A1360008A13A000810B5054C55
:1000F000237833B9044B13B10448AFF300800123D4
:10010000237010BDB81100200000000078DA00084C
:1001100008B5064B1BB106480649AFF300800648F8
:10012000036813B1054B03B1984708BD00000000F8
:1001300078DA0008BC110020B8110020000000008F
:10014000012902D11C30C0B27047062984BF01F1D9
:10015000FF31C9B211F0010F14BF1E201F207047DC
:10016000F8B5427887783C2303FB072702780579A6
:10017000467903FB0727013D013EEDB2F6B2044686
:1001800005714671013E731CE38834D04FF4C87288
:10019000B3FBF2F102FB113292B262B16422B3FB03
:1001A000F2F002FB103080B230B113F0030F14BF35
:1001B0000020012000E00120C0B2F1B2FFF7C0FF33
:1001C000284485B2DEE74FF4C872B3FBF2F102FBBC
:1001D000113292B2AAB16422B3FBF2F102FB1132E6
:1001E00092B28AB113F0030F40F26D1208BF4FF4C0
:1001F000B7721544ADB2013B9BB2B3F5FA6FE2D2D0
:1002000005E04FF4B772F4E740F26D12F1E70248EF
:1002100000FB0570F8BD00BF8051010008B500214A
:100220000F2004F0FBFE40F2DC5004F00DFFBDE8AF
:1002300008400F20012104F0F1BE13B5026802ABA3
:1002400003F8011D546A19460122A04702B010BDEF
:1002500007B503680DF107019B6A01229847012841
:100260000CBF9DF807004FF0FF3003B05DF804FBB2
:100270004FF0FF30704708B50369186803689B6941
:10028000984708BD036810B5DB680446984708B96D
:10029000207F10BD012010BD08B503681B6B984777
:1002A000003018BF012008BD064B1A6801321D2A14
:1002B00001D81A60704700221A60034B01221A709D
:1002C000704700BF9C12002084120020F0B585B05A
:1002D0000C460646194901A81746194D04F006FCBC
:1002E00001A8102104F0DEFB217901A804F09CFC98
:1002F000294601A804F07CFC617901A804F094FC73
:10030000294601A804F074FCA17901A804F08CFC32
:10031000294601A804F06CFCE17901A804F084FCF2
:10032000336801991B6A3A4630469847044601A84B
:1003300004F09AFB204605B0F0BD00BFF8EC0008C1
:1003400058F0000808B5032003F066F9BDE808403E
:100350000148024904F094BAF0120020CFEC0008E2
:1003600010B5044620680368DB68984710B904F0AC
:100370006BFEF7E7206803681B6998472C28F1D1CA
:10038000012010BD2DE9F04F054687B08A46104682
:1003900040211E461446129F04F084FB8F4BD3F875
:1003A00000B0002004F050FE28680368DB6898471E
:1003B000002840F3E480286803681B699847011E01
:1003C000F2DD2046C9B204F022FC16B9109BA3B995
:1003D00010E0314603A804F089FB204603A904F08D
:1003E00081FC814603A804F03FFBB9F1000FEDD07A
:1003F0000120EFE0119B9BB910E0109903A804F0D5
:1004000075FB204603A904F06DFC814603A804F0A7
:100410002BFBB9F1000FEDD00220DBE0A7B910E013
:10042000119903A804F062FB204603A904F05AFCCA
:10043000814603A804F018FBB9F1000FEED00320A9
:10044000C8E0139B0BBB10E0394603A804F04EFB39
:10045000204603A904F046FC814603A804F004FBEF
:10046000B9F1000FEDD00420B4E05D4903A804F019
:100470003DFB204603A904F035FC814603A804F0A7
:10048000F3FAB9F1000F11D139E0139903A804F080
:100490002DFB204603A904F025FC814603A804F0A7
:1004A000E3FAB9F1000FE0D0052093E0684629682F
:1004B0002C2204F0B1FA684604F049FD0128814677
:1004C00015D129680A2203A804F0A6FA03A804F0AB
:1004D0003EFD804603A804F0C7FA2046414904F0D7
:1004E0005AFB05EB88035B6883F81D9003E0204608
:1004F000694604F078FB684604F0B6FA54E73A49D6
:1005000003A804F0F3FA204603A904F0EBFB8046AD
:1005100003A804F0A9FAB8F1000F3FF445AF33493E
:1005200003A804F0E3FAA26803A9083A204604F0FD
:1005300015FC804608F1020803A804F095FA42462B
:100540002C21204604F0FCFB42460346214603A82A
:1005500004F028FC03A804F0FAFC804603A804F089
:1005600083FAB8F1000F3FF41FAF05EB88035B6817
:10057000204683F81C901B4904F00DFB14E7174B31
:100580001B68CBEB03035345FFF40BAF204604F08D
:10059000B4FCA368CBB12146684604F0EAFA1449DA
:1005A000144804F048F92021124804F03FF9694644
:1005B00003A804F0DEFA03A90E4804F057F903A8D3
:1005C00004F052FA684604F04FFA2046054904F058
:1005D000E2FA0020C0B207B0BDE8F08FD8130020C7
:1005E000E3EC0008F8EC0008F0EC0008F6EC00087A
:1005F000F9EC0008F0120020F0B589B01C4607465F
:100600000E4605A80B49154604F070FA00940E9C9E
:10061000314601940F9C05AA0294109C2B4603942A
:100620003846FFF7AFFE044605A804F01DFA204641
:1006300009B0F0BDF8EC0008F0B5044685B00E46F0
:10064000006821491F46154604F0F5F820681F4947
:1006500004F0F1F80A223946206804F0A8F920686D
:100660002C2104F0E3F82068194904F0E4F820682C
:10067000184904F0E0F83146206804F0DCF82068FE
:10068000154904F0D8F80A222946206804F078F9C0
:100690001249206804F0CFF8206803689B699847E6
:1006A000002004F0D1FC0E4B204600930023019360
:1006B00002930C490C4A0D4BFFF79EFF431E584214
:1006C000584105B0F0BD00BF08ED00080BED000873
:1006D00016ED00087AEF00081BED0008F6EC0008A4
:1006E0003AED0008F82401001EED00082BED00088B
:1006F00070B5044600200E46154604F0A5FC002304
:10070000C4F8A430C4F8A030206931462A46237DBD
:10071000FFF792FF003018BF0120207770BD7FB532
:10072000089C0E460194099C1546009302944FF4D0
:100730007A7132462B46FFF75FFF04B070BD0000B0
:1007400070B504460D4600680C49164604F073F86F
:100750002946206804F06FF831460A22206804F028
:1007600026F92068064904F066F8206803689B694A
:100770009847BDE87040002004F066BC08ED000812
:10078000F6EC000813B50446002004F05DFC206977
:10079000227D0749FFF7D4FF0023237700930193BD
:1007A00020690449044AFFF7BAFF02B010BD00BF38
:1007B0004CED000813F20008B8EC0008F0B50F4645
:1007C00087B00025044626493A46FFF7B9FF009551
:1007D000019520462349244A2B46FFF7A0FF012814
:1007E0001AD12046FFF7BCFD2046FFF7B9FD21686E
:1007F0000A2203A804F010F903A804F0A8FB064697
:1008000003A804F031F90095019520461749164ACE
:100810002B46FFF784FFFEB904EB87033A462046D8
:1008200013495E68FFF78CFF124B002500931249B5
:10083000124A134B01952046FFF771FF2B460746DE
:100840000095019520460949074AFFF768FF7B1E7E
:100850005F425F4137772E46304607B0F0BD00BF9C
:1008600057ED0008E5EC0008B8EC000813F20008AA
:1008700064ED000892ED000870ED00087DED0008C1
:1008800087ED00087FB50546002405EB84035E680C
:1008900046B1737F33B1002373772846E1B2FFF787
:1008A0008DFFF0820134052CEFD128680368DB68E6
:1008B000984748B1002200920192029228460A21EC
:1008C0001346FFF799FEF0E704B070BDD0F8802022
:1008D000D0F88430D01A48BF8030704738B504460D
:1008E000002004F0B1FB237F04F120058BB12846E2
:1008F000FFF7ECFF68B90A4BA26919688A1AB2F5CA
:10090000FA7F03D91B6801226277A3612069FFF790
:10091000B9FF2846FFF7DAFFE38A184438BD00BF65
:10092000D813002038B504460D460068094903F085
:1009300082FF2946206803F07EFF2068064903F005
:100940007AFF206803689B699847BDE8384000201B
:1009500004F07ABB08ED0008F6EC00082DE9FF4131
:10096000134B05461F680E469846D8F80030002401
:10097000DB1BB34217D228460E49FFF7D3FF009482
:10098000019402942846C8210B4A0C4BFFF734FE11
:100990000446012C4FF0640002D104F055FB02E044
:1009A00004F052FBE1E7204604B0BDE8F08100BF4F
:1009B000D8130020F8EC000813F20008B8EC000887
:1009C0001F4B2DE9F3411F6805460E469846D8F89F
:1009D0000030DB1BB3422CD2002428461949FFF714
:1009E000A1FF0094019428461749184A2346FFF7AF
:1009F00096FE012804D04FF47A7004F025FBE6E758
:100A0000134B14498DE81800134A144B2846FFF77E
:100A100086FE009406460194284611490B4A234657
:100A2000FFF77DFE012E06D003D3032E01D802204E
:100A300002E0002000E0304602B0BDE8F08100BFD7
:100A4000D81300209DED0008A4ED0008B8EC0008C4
:100A5000C3ED0008ADED0008B3ED0008BBED0008E4
:100A600013F200087FB542F210710546FFF776FFDA
:100A700058B3002428462149FFF754FF00940194FD
:100A80000294284642F210711D4A1E4BFFF7B4FD36
:100A900001281AD128461C49FFF744FF009401940D
:100AA0000294284642F21071154A164BFFF7A4FD36
:100AB00001280AD140F6B83004F0C6FA284642F2BE
:100AC0001071FFF74BFF064608B9002612E02846D2
:100AD0000E49FFF727FF0094019428460849094A68
:100AE0002346FFF71CFE0128EFD1284642F2107181
:100AF000FFF766FF304604B070BD00BFD0ED0008C0
:100B000013F20008B8EC0008D8ED0008E2ED000888
:100B1000F7B5154F154E002405461549FFF702FF9E
:100B2000324623463946009401942846FFF7F7FDE4
:100B300028461049FFF7F6FE324623463946009410
:100B400001942846FFF7EBFD28460B49FFF7EAFE24
:100B5000009401942846394632462346FFF7DFFDCC
:100B6000012003B0F0BD00BF13F20008B8EC00088C
:100B7000E8ED0008F3ED000803EE00081FB5374B61
:100B800037481A6822F0E06242F000721A6001F001
:100B90009FFA334801F0AFFA32484FF4E13103F0E5
:100BA00067FD4FF41651304803F062FD2F48FFF700
:100BB00035FB40F6B83004F047FA2D49294803F0D8
:100BC00069FE2C48FFF74EFF2A482B49FFF7AAFE83
:100BD000002300930193029326484FF47A71274A29
:100BE000274BFFF709FD012803D01E48254903F0D4
:100BF00047FE4FF4FA6004F027FA1E48FFF788FF1B
:100C00004FF47A7004F020FA1F4A002313701F4A31
:100C10001F4813701F4A012113701F4A13700222CC
:100C200003F073FD1D491A4803F050FD01210A46E7
:100C3000174803F06EFD16480121194A03F078FDAC
:100C400072B6184802F008FC174900F13C0215483A
:100C500002F004FC62B605B05DF804FB040001403C
:100C6000D2120020F012002020130020D411002006
:100C700012EE0008B812002028EE000813F2000857
:100C8000B8EC000833EE0008B412002098120020DF
:100C900088130020D11200209012002040420F0043
:100CA000A9020008D01200204503000870B51749BA
:100CB00086B000240546FFF735FE009401942846CF
:100CC0001349144A2346FFF72AFD01281BD1284661
:100CD000FFF746FB2846FFF743FB29682C2203A8B1
:100CE00003F09AFE03A804F032F986B203A803F0D9
:100CF000BBFE0094019428460749064A2346FFF7A5
:100D00000EFD304600E0204606B070BD42EE000801
:100D100047EE0008B8EC000813F2000870B5164959
:100D200086B000240546FFF7FDFD00940194284697
:100D30001249134A2346FFF7F2FC012818BF04208A
:100D400017D12846FFF70CFB29680A2203A803F0F5
:100D500063FE03A804F0FBF8064603A803F084FE34
:100D60000094019428460749054A2346FFF7D7FC1B
:100D7000F0B206B070BD00BF4FEE000856EE00089E
:100D8000B8EC000813F2000830B5304985B00024F3
:100D90000546FFF7C7FD0094019428462C492D4ACB
:100DA0002346FFF7BCFC012801D001204BE0284678
:100DB0002949FFF7B7FD274A2346284900940194A3
:100DC0002846FFF7ACFC28462549FFF7ABFD009409
:100DD0000194029428462349234A1E4BFFF70CFC3A
:100DE000012802D0214822492AE01C4A194B4FF41D
:100DF0007A710094019402942846FFF7FDFB28467F
:100E00001C49FFF78FFD0094019428461A49114AA6
:100E10002346FFF784FC012802D0144817490FE04D
:100E200028461749FFF77EFD00940194284615498E
:100E3000084A2346FFF773FC0128B6D00B48124935
:100E400003F01EFD204605B030BD00BF4FEE000888
:100E500056EE0008B8EC00085FEE000813F2000838
:100E60007BEE0008084C010086EE0008F01200201E
:100E700090EE0008B0EE0008BDEE0008CEEE0008CF
:100E8000E7EE0008F4EE000805EF00081FB50A4978
:100E90000446FFF747FD0023009301930293204689
:100EA0004EF66021054A064BFFF7A6FB431E58424B
:100EB000584104B010BD00BF2EEF000813F2000827
:100EC000B8EC000870B5144986B000240546FFF759
:100ED00029FD0094019428461049114A2346FFF742
:100EE0001EFC012818BF632014D129682C2203A8F6
:100EF00003F092FD03A804F02AF8064603A803F0C5
:100F0000B3FD0094019428460649054A2346FFF79D
:100F100006FC304606B070BD37EF00083CEF000815
:100F2000B8EC000813F20008F8B504460D46006856
:100F30000E4916461F4603F07EFC2946206803F042
:100F40007AFC3146206803F076FC3946206803F0CD
:100F50006DFC2068064903F06EFC206803689B69FD
:100F60009847BDE8F840002004F06EB808ED00088E
:100F7000F6EC00082DE9F04304468FB000259046BA
:100F800089461F46FFF782FF20469B49FFF7CAFCB0
:100F90009A499B4A2B46009501952046FFF7BFFBD7
:100FA000204698494A462223FFF7BEFF0095019547
:100FB00020469249924A2B46FFF7B1FBB8F1000F49
:100FC0000DD02046904942462223FFF7ADFF009501
:100FD0000195204689498A4A2B46FFF7A0FB6FB14D
:100FE00020468A493A462223FFF79EFF00230093BA
:100FF000019320468149824AFFF791FB804E0025EC
:10100000204683494A462223FFF78EFF32462B466D
:101010007A49009501952046FFF781FB20467D49DE
:10102000FFF780FC754A33464EF660210095019526
:1010300002952046FFF7E0FA20467749FFF772FC59
:101040006E4A334675490095019502952046FFF793
:10105000D3FA20467249FFF765FC00950195029589
:10106000204647F23051654A3346FFF7C5FA01285A
:1010700001D00025BCE020466A49FFF753FC0095EB
:101080000195029520464EF660215C4A3346FFF7F3
:10109000B3FA0128EDD120466349FFF743FC0095E0
:1010A00001952046554932462B46FFF738FB01286B
:1010B000DFD120465D49FFF735FC009501952046BC
:1010C0004E4932462B46FFF72AFB0128D1D1204654
:1010D0005749FFF727FC00950195204647493246BE
:1010E0002B46FFF71CFB0128C3D15249206803F0AF
:1010F000A2FB5149206803F09EFB4946206803F09B
:101100009AFB4E49206803F096FB4146206803F0A5
:1011100092FB4A49206803F08EFB3946206803F0B1
:101120008AFB4749206803F086FB4649206803F0A4
:1011300082FB206803689B699847284603F084FF78
:1011400000950195029520464EF660212B4A3346C4
:10115000FFF752FA01288CD120463B49FFF7E2FB0A
:1011600000950195029520464EF66021234A3346AC
:10117000FFF742FA01287FF47CAF20463349FFF79E
:10118000D1FB334905A803F0B1FC00960195029507
:101190000395204642F2107105AA184BFFF7F2F8AA
:1011A000012813D008A8274903F0A0FC0BA8284960
:1011B00003F09CFC05A808A90BAA03F019FE0BA8D4
:1011C00003F052FC08A803F04FFC0EE02046214932
:1011D000FFF7A8FB2B4600950195204607493246AC
:1011E000FFF79DFA431E5D425D4105A803F03CFCFC
:1011F00028460FB0BDE8F0835FEE000813F2000848
:10120000B8EC000844EF000857EF00086BEF000847
:101210007EEF000890EF00089BEF0008084C0100EB
:101220007BEE0008A6EF0008AFEF0008B9EF00085A
:10123000C5EF000808ED0008D1EF00087AEF0008BC
:1012400079F20008F6EC0008D9EF0008E0EF00089A
:10125000F8EC0008EAEF00082DE9F04104460E46DC
:10126000006812491F469046069D03F0E4FA314695
:10127000206803F0E0FA41460A22206803F097FB59
:101280003946206803F0D2FA29460A22206803F082
:1012900097FB2068064903F0CEFA206803689B6933
:1012A0009847BDE8F041002003F0CEBE08ED0008ED
:1012B000F6EC0008F0B587B00025044600920F4612
:1012C00016461C491A462C23FFF7C6FF00950195C8
:1012D00020461949194A2B46FFF721FA012802D066
:1012E0004FF0FF3422E020683946036832469B689D
:1012F0009847206803689B699847009501952046A8
:101300000F490E4A2B46FFF70AFA0128E8D120467A
:10131000FFF726F8216803A80A2203F07DFB03A843
:1013200003F015FE044603A803F09EFB204607B019
:10133000F0BD00BF07F0000811F00008B8EC00088D
:1013400013F0000870B5044600200E46154603F061
:101350007BFE2069FFF796FA206931462A46237DF5
:10136000FFF7A8FF70BD000070B58568064601351F
:10137000284604F08FFF04460023304621462A46C3
:1013800003F0C6FC21462A460348FFF7DBFF204650
:1013900004F088FF012070BDDC1100202DE9F04130
:1013A00086B00025044600912C232F491646FFF7EE
:1013B00053FF0095019520462C492D4A2B46FFF7F7
:1013C000AEF901284BD12046FEF7CAFF2046FEF7B2
:1013D000C7FF21682C2203A803F01EFB03A803F01B
:1013E000B6FD074603A803F03FFB04EB860603A8FF
:1013F00021680A22D6F8048003F00EFB03A803F04C
:10140000A6FDA8F8160003A803F02EFBBD421ED0CF
:1014100020680368DB68984710B903F015FEF7E70A
:10142000206803681B69984773685FFA80FED3F8E9
:10143000A010D3F8A4004A1C02F07F02824204D01C
:10144000194481F820E0C3F8A0200135DEE700232D
:101450000093019320460749054AFFF760F92846A3
:1014600006B0BDE8F08100BF22F00008E5EC0008FE
:10147000B8EC000813F200082DE9F74F04460020ED
:101480008946019203F0E0FD2069FFF7FBF9002592
:10149000019B9D4245D2019B04F1200B5846C5EBB0
:1014A0000308FFF713FA404538BF8046B8F1000F34
:1014B00024D04746CA465846FFF708FA10B9C14437
:1014C0004544E5E7D4F8A430C3F18006B742B8BF7D
:1014D0003E468642A8BF06460BEB03015046324605
:1014E000009305F0B7F9009BBF1B03EB060C0CF053
:1014F0007F02C4F8A420B244E1D0DCE72069FFF702
:10150000C1F9E38A6BB1D4F8A420D4F8A0302069E3
:10151000D11A0029D8BF80310139227DFFF73EFF63
:10152000B6E7284603B0BDE8F08F000013B50024ED
:1015300021462246234600940F4803F037F90F4B0B
:101540000F4A10481A604FF47A7282600E4A446063
:1015500002600122C0F8A440C0F8A04003610275F7
:10156000C48284610477447798600848112102B0EE
:10157000BDE8104001F064BF88120020B8120020BE
:1015800020130020DC11002080EC0008D012002085
:101590002DE9F047A0B0984904A803F0A7FA9649AE
:1015A00007A803F0A3FA9548FFF780FB944C9549F0
:1015B000206016A803F09AFA16A919A803F0D9FA20
:1015C000216819A803F071FB8F4903F05CFB014609
:1015D0008E4803F023F98E4F19A803F045FA16A898
:1015E00003F042FA3B78F3B988488A4903F028F9B6
:1015F000894B1C681D462A684EF65F23121B9A42CF
:1016000000F242827D48FFF789FB00F0FB000128D1
:1016100004D04FF47A7003F017FDECE738707F497F
:101620007A4803F02DF97E4C2378A14603BB3B7822
:10163000F3B17C49754803F003F97B49734803F023
:10164000FAF86E487849794A794BFFF793FC0546DA
:101650006E4845B9774903F013F942F2107003F070
:10166000F3FC257007E2744903F00AF901232370A3
:10167000724E337863B96148FFF786FB044610B1B8
:101680000123337004E061486D4903F0F9F83470C8
:101690000AA8594903F02AFA3378002B4BD0574D4A
:1016A00068495A4803F0ECF8002428466649FFF7D9
:1016B00039F900940194029428466449644A654BC0
:1016C000FEF79AFF012804D016A84B4903F00EFA42
:1016D00016E019A829680A2203F09EF95E495D4ABE
:1016E0002346009401942846FFF719F819A803F03F
:1016F00004FC16A819A903F0A8F919A803F0B4F975
:1017000016A90AA803F03FFA16A803F0ADF9534949
:1017100019A803F0EBF90AA919A803F0A7FA504990
:1017200003F0B1FA0146394803F0A0F819A803F014
:101730009BF900233370DFF850A19AF80040002C89
:1017400040F085814749314803F07AF846492F48EF
:1017500003F071F8454B464843491A88FEF7C8FF25
:101760000546DFF828812948C5B9424903F088F8C1
:1017700042F2107003F068FCD8F800308AF800508C
:1017800001330A2B40F272811C48C8F800503D70AA
:1017900089F80050FFF77AFB357069E1174D36493B
:1017A00003F06EF8012328468AF80030C8F800409C
:1017B000FFF788FB31490646144803F061F83246CA
:1017C0002F4919A805F06AFB19A9104803F058F829
:1017D00028462C49FFF7A6F8009401942846204992
:1017E0001C4A2346FEF79BFF012851D013A802494B
:1017F00003F07CF963E000BFF8EC0008B8120020A9
:10180000A01200202FF0000840F00008F012002085
:101810009812002043F00008D8130020FCF10008C3
:10182000D11200205AF00008C9EC000818F2000894
:1018300012F2000869F000086FF00008B4120020EE
:1018400078F000088AF000089AF00008084C0100BF
:10185000A4F00008B8EC000813F20008ADF000088E
:10186000F6EC0008B6F00008C0EC00080C00002000
:10187000DC110020CCF0000895F00008D2F0000840
:10188000E9F00008F1F00008901200209412002006
:1018900016A829680A2203F0BFF89949994A2346F5
:1018A000009401942846FEF73AFF16A803F025FBA2
:1018B00013A816A903F0C9F816A803F0D5F813A9C0
:1018C00004A803F060F913A803F0CEF88E4916A817
:1018D00003F00CF904A916A803F0C8F901468B48D7
:1018E00002F0C4FF8A4D16A803F0BEF88949874864
:1018F00002F0C6FF002428468749FFF713F800943A
:101900000194284685497F4A2346FEF708FF0128AF
:1019100004D013A8824903F0E9F816E016A8296854
:101920000A2203F079F87649764A23460094019416
:101930002846FEF7F4FE16A803F0DFFA13A816A94E
:1019400003F083F816A803F08FF813A907A803F093
:101950001AF913A803F088F8724916A803F0C6F81C
:1019600007A916A803F082F90146684802F07EFF35
:1019700016A803F079F810A800F030FC6A4A16A8FF
:1019800010A900F03DFD314616A800F01DFD16A877
:1019900000F0FAFB654A16A810A900F031FD04A971
:1019A00016A800F029FD16A800F0EEFB604A16A864
:1019B00010A900F025FD07A916A800F01DFD16A826
:1019C00000F0E2FB5B4A16A810A900F019FD0AA975
:1019D00016A800F011FD16A800F0D6FB56494B489A
:1019E00002F029FF16A810A900F012FC16A947481A
:1019F00002F05AFF16A800F0C7FB10AA13A84F491F
:101A000000F0A3FB4E49414802F015FF13A93F48DF
:101A100002F02CFF13A916A803F0ABF816A8FFF7E5
:101A2000A3FC16A803F020F804A803F066FA07A8A0
:101A300003F063FA0AA803F060FA4FF47A7003F037
:101A400003FB13A803F010F810A800F09DFB3D4E17
:101A50003D483468FEF716FC002800F00D8333681B
:101A60001C1B41F287339C4219D905E3C8F80030AA
:101A70000AA802F0F9FF07A802F0F6FF04A802F096
:101A8000F3FF20B0BDE8F0873049204802F0F8FEAF
:101A900042F2107003F0D8FA00233B70EBE72A48BB
:101AA000FEF71CFF002800F071820DA826490A22CB
:101AB00002F0B2FF0DA81A4903F001F9002840F026
:101AC0005F8210A81D490DAA00F038FB10AA19A8C2
:101AD0001A4900F041FB1E4919A803F0F0F804462A
:101AE00019A802F0C1FF0948B4B31A4902F0C8FEB0
:101AF00010A800F049FB0DA802F0B6FFB8E700BF40
:101B000013F20008B8EC0008F6F00008F01200200C
:101B1000B8120020E7F00008FCF0000803F100080C
:101B2000F8EC00080DF1000838EF000816F1000885
:101B3000FEF000081BF100081FF10008D41200207D
:101B400032F10008D8130020DC110020CCF000088E
:101B50004EF1000858F10008724902F06CFE10AA1C
:101B600019A8714900F0F8FA19A9704802F07EFE30
:101B700019A802F079FF10A86D4900F079FB002840
:101B800075D06C4B6C4969481C6002F054FE684A81
:101B900019A810A900F034FC19A9644802F084FEC9
:101BA00019A800F0F1FA10A9614A19A800F028FC60
:101BB00019A800F024FB044619A800F0E5FA2378E0
:101BC000E578303BC3EB431103EB81036178A278E6
:101BD0003039303D01EB810105EBC30301EB81019D
:101BE000303A564803EB810102EB820201EB4202DC
:101BF000C28023796279303B303A03EB830302EBF6
:101C000043034371A379E279303B303A03EB83031A
:101C100002EB43030371237A627A303B303A03EBE1
:101C2000830302EB43038370A37AE27A303B303ABA
:101C300003EB830302EB43034370237B627B303B64
:101C4000303A03EB830302EB43030370FEF788FA99
:101C500001463B4801F0FDFB72B6394801F0FCFB40
:101C6000384900F13C02364801F0F8FB62B610A892
:101C7000354900F0FDFA002800F0CC8033492B48AC
:101C800002F0D9FD10A9304A19A800F0B9FB19A833
:101C900000F0B5FA2E4D0024286019A800F074FA5F
:101CA0002B681B5D312B07D124B1012C16D10420E8
:101CB00000210AE003200BE0302B0BD11CB1012CDA
:101CC0000CD1042004E00320012103F0A7F905E072
:101CD0002146FAE715481F4902F0D2FD0A200134D7
:101CE00003F0B2F9102CDBD11B4D302128462246DF
:101CF00004F08CFE032003F07BF930B1032003F0E5
:101D000077F9012803D1302300E031232B70042020
:101D100003F06EF910B3042003F06AF901281FD113
:101D200030231CE06EF10008D4120020F0120020D5
:101D300087F10008D81100208CF100081400002061
:101D4000D012002045030008A1F10008A9F1000805
:101D500010000020BFF10008A412002031236B7096
:101D600016A800F03BFA4C4A19A816A900F048FB47
:101D700004A919A800F040FB19A800F005FA474A89
:101D800019A816A900F03CFB454919A800F029FB49
:101D900019A800F0F9F904A9424802F067FD424B86
:101DA0004048196802F06CFD40493E4802F043FD8E
:101DB00019A816A900F02CFA19A93A4802F074FDE6
:101DC00019A800F0E1F916AA19A8394900F0BDF9DF
:101DD0003849344802F02FFD19A9324802F046FD77
:101DE0001B9D0135284604F055FA0446002319A826
:101DF00021462A4602F08CFF21462A462E48FFF74C
:101E0000A1FA204604F04EFA19A802F02DFE16A8F9
:101E100000F0BAF910A8294900F02AFA002800F0C9
:101E2000AC8010A9254A19A800F0EAFA19A800F018
:101E3000DDF9044619A800F0A7F910A8204900F020
:101E400017FA002800F0998010A91D4A19A800F07F
:101E5000D7FA19A800F0CAF9054619A800F094F9B4
:101E6000012D0ED1022C09D0FF2C03D0012C31D131
:101E7000032004E00320002103F0D0F80420002117
:101E800026E03DBB022C21D0FF2C1BD0012C21D100
:101E9000032021461CE000BF16F10008A1F1000854
:101EA000A4120020F012002010000020C6F100084B
:101EB000D412002032F10008DC110020DAF1000811
:101EC000E0F100080320012103F0A8F8042001211B
:101ED00003F0A4F813A800F081F96F4A19A813A918
:101EE00000F08EFA04A919A800F086FA19A800F0EB
:101EF0004BF96A4A19A813A900F082FA214619A8D9
:101F000000F062FA19A800F03FF9654A19A813A970
:101F100000F076FA294619A800F056FA19A800F040
:101F200033F96049604802F086FC19A813A900F053
:101F30006FF919A95C4802F0B7FC19A800F024F960
:101F400013AA16A8594900F000F95949564802F059
:101F500072FC16A9544802F089FC16A919A802F0CF
:101F600008FE19A8FFF700FA19A802F07DFD16A8CF
:101F700002F07AFD13A800F007F910A800F004F9A8
:101F80000DA802F0BAFF0DA802F06EFD494B1A78B9
:101F9000002A3FF45DAD484D2A78002A3FF458AD41
:101FA000002413A81C7000F019F9214610224348A0
:101FB00004F02CFD384A19A813A900F021FA04A94D
:101FC00019A800F019FA19A800F0DEF83C4A19A87F
:101FD00013A900F015FA394919A800F002FA19A856
:101FE00000F0D2F82F49304802F025FC19A813A9B7
:101FF00000F00EF919A92C4802F056FC19A800F0BF
:10200000C3F813AA16A8294900F09FF828492648C2
:1020100002F011FC244816A902F028FC2948FEF71A
:1020200031F948B116A919A802F0A3FD19A8FFF7C4
:102030009BF919A802F018FD234C244923681A487B
:102040000133236002F0F7FB174821680A2202F0EF
:10205000C0FC2368092B08D92A780023236022B109
:10206000154A18481370FEF78DFB16A802F0FCFC09
:1020700013A800F089F8EBE41248FEF703F90028F2
:102080007FF4F6AC0C4B1A78002A3FF4F1AC1870D0
:102090000C48FEF777FBEBE416F10008DAF10008D4
:1020A000E0F10008C6F10008F0120020D412002070
:1020B00032F100088412002090120020A4120020A7
:1020C000A1F10008DC110020D8110020E4F1000883
:1020D00008B50320002102F049FF0420002102F08E
:1020E00045FF0F20002102F041FFBDE80840052018
:1020F000002102F03BBF08B50520012102F08EFF50
:102100000320012102F08AFF0420012102F086FF52
:10211000BDE808400F20012102F080BF014B0360A1
:10212000704700BF28F2000810B5034B0446036057
:1021300002F01AFF204610BD28F2000810B5114623
:10214000044600F0A5F8204610BD10B5114604461F
:1021500000F0ACF8204610BD10B51146044600F062
:10216000C3F8204610BD00000348044B0449054A4B
:10217000036003F069B800BFD412002028F2000801
:102180001D2100080800002038B5064B04460360F6
:10219000406820B1A56815B900F0D6FD65602046FD
:1021A00038BD00BF38F2000810B50446FFF7ECFF59
:1021B000204602F0D9FE204610BD406838B50D46D5
:1021C00058B100F0D9FF04462146284602F033FBFF
:1021D0000546204601F0E0F8284638BD024A026074
:1021E000002242608260704738F2000810B5044651
:1021F000406801F0B4F808B16368586910BD10B5C3
:102200000446406801F0B2F808B16368186910BD6F
:10221000B0B5044600AF48680D4601F0B5F820B9E6
:10222000124B60602360A0601CE0686800F0A7FFAC
:1022300083000A3323F00703ADEB030D6B680146FF
:102240009A68684600238B4205DA156A40F82350E5
:1022500012680133F7E701F045F8044B6060236032
:102260000023A3602046BD46B0BD00BF38F2000881
:1022700038B5044640680D4601F086F830B1606814
:10228000294600F084FF003018BF012038BD00004F
:1022900010B50446086800F06BFF034B60602360D4
:1022A0000023A360204610BD38F2000830B549680D
:1022B00085B0044611B902F019FC11E0084600F09F
:1022C0005BFF0546294601A802F010FC284601F0F4
:1022D00063F8204601A902F0B8FB01A802F0C4FB94
:1022E000204605B030BD000038B54D680446002DCD
:1022F00031D0284601F01FF800282CD1284601F0E3
:1023000021F810B12046174927E0284601F021F8AE
:1023100010B12046144920E0284601F020F810B101
:102320002046124919E0284601F020F810B1204655
:102330000F4912E0284601F020F810B120460D495F
:102340000BE0284601F020F810B120460A4904E0CD
:1023500020460A4901E00A49204602F0C7FB204610
:1023600038BD00BF48F2000850F2000855F20008DE
:102370005CF2000863F2000869F2000870F20008DD
:102380004EF1000838B5456804464160DDB180680B
:10239000A0B100F0F9FF30B1A068296A6268BDE819
:1023A000384001F027B8A06800F0E7FF58B1A068F6
:1023B00029466268BDE8384000F0ECBE2846BDE81A
:1023C000384000F0C1BC38BD10B50446084603F0E3
:1023D00093F800F021FF01462046BDE81040FFF7CA
:1023E000D1BF10B50446084600F04AFF014620461A
:1023F000BDE81040FFF7C6BF0968FFF7F2BF000055
:1024000070B5054648680C46164600F0BDFF28B971
:1024100000F05CFF01462046FFF7B4FF60683146DC
:1024200000F0B5FE18B96068314600F0E1FE63685F
:10243000024A68602A60AB60284670BD38F2000826
:102440000448054B05490360054A00234360836047
:1024500002F0FABED812002038F2000889210008E4
:102460000800002010B500221346815CA1F1300461
:10247000092C01D8303B0AE0A1F14104052C01D818
:10248000373B04E0A1F16104052C0AD8573B032A2D
:102490000B4402F1010218BF1B01042AE5D11846C2
:1024A00010BD002010BD2DE9F0470B688A688146F9
:1024B000551C9E189A5C8846222A1D4440F0CA800A
:1024C0004C682F460022F91AA14280F0C380397867
:1024D000222909D05C2905D10137F91AA14280F0DF
:1024E000B98001320137EEE7C2F10102B81BD8F81A
:1024F0001030104498478246002800F0AB80044614
:10250000BD4280F08B802B785C2B03D0237001358B
:102510000134F5E77A1B002A40F390806B78662B34
:1025200019D00CD82F2B17D002D8222B14D085E02D
:102530005C2B11D0622B40F0818008230CE0722BC1
:102540000ED003D86E2B79D10A2305E0742B09D065
:10255000752B09D072E00C232370013402235BE059
:102560000D23F9E70923F7E7052A67DDA81CFFF724
:1025700079FFA0F55C43B3F5806F06465ED3A0F506
:102580005843B3F5806F1CD2AB1DFB1A052B55DDEC
:10259000AB795C2B52D1EB79752B4FD105F108004B
:1025A000FFF760FFA0F55C43B3F5806F46D2C0F340
:1025B0000900C6F3090640EA862606F580360C2394
:1025C00006E07F284FF006030BD9B0F5006F0BD360
:1025D000B6F5803F0BD3B6F5881F2FD2F021042229
:1025E00007E00021012204E0C021022201E0E021F5
:1025F0000322501EC0B240B106F03F0C6CF07F0CBD
:1026000004F800C0B6090138F4E7012A14BF0E43EC
:1026100006F07F06267014441D4471E700232370E2
:102620001023C9F80C30D8F80030C9F810A0FB1AF4
:102630000133C8F808300120BDE8F087D8F814301D
:1026400050469847D8F80030ED1AC8F808500020D6
:10265000BDE8F087002DF5D1F9E710B590B102681B
:102660007AB1416883688B4202D38B4206D010BD99
:10267000D45C202CF9D801338360F3E7013B8360FD
:1026800010BD104610BD61B160B183680BB98160A7
:1026900005E01A680AB11346FBE719604B60012098
:1026A00070470846704738B5044638B1006828B10D
:1026B000A568284404F03EFE2844A06038BD70B5EB
:1026C000044600283ED0006800283DD0636813B15E
:1026D000A2689A4237D2002935DBA268561C0E4404
:1026E0009E4201D8104470BD2369002B2BD1B6F156
:1026F000804F06D3002EA8BF6FF0004602DA1846BE
:1027000070BD7600236A23B1314698470546A0B9CB
:1027100004E0A36930469847054630B92068E3696C
:10272000984765602560284670BDA268216801321F
:1027300004F090F8E36920689847A06884E8600096
:10274000284470BD70BD002070BD00002DE9F84325
:102750000746084611B90020BDE8F88317B13A468C
:1027600000250DE00321FFF7AAFF0028F3D0384928
:1027700004F082FD68E00D2B0DD80C2B06D301353B
:10278000904612F8013B002BF5D10CE0A3F10801B3
:10279000022904D8F3E7222BF1D05C2BEFD01F2BBA
:1027A00098BF0535ECE7C7EB0808A84408F103011A
:1027B000FFF785FF06460028CDD04FF022090130F3
:1027C00086F8009045B946443946424604F042F83E
:1027D00086F80190B57037E0044617F8013B7BB3EB
:1027E0001F2B06D9222B04D05C2B02D0237020464D
:1027F00024E05C23237017F8012C601C0C2A12D0F3
:1028000007D8092A13D00A2A0FD0082A12D1622326
:102810000EE0222A05D05C2A03D00D2A0AD17223A9
:1028200006E062700AE0662302E06E2300E0742393
:10283000637003E0074904F031FB601D441CCCE7E2
:10284000464422227270B3700120BDE8F88300BFB5
:1028500078F200087BF200082DE9F8430D460028C5
:102860004CD000293FD084685AB9254B1E680EE031
:10287000216A00293DD0284604F0E0FB002838D02A
:102880002468002CF4D131E0206A18B92468002CA7
:10289000FAD12BE085422CD000216B5CF21892F823
:1028A00001C0425C0CF0030CB7187F78BCF1010F3B
:1028B00007F003070CBF03F120099946012F0CBF55
:1028C00002F120089046C14503D10131002BE4D12B
:1028D0000FE0BCF1010F08BF2033012F08BF2032E9
:1028E0009342D3D105E00846BDE8F8832046BDE811
:1028F000F883236A002B14BF20460020BDE8F8832C
:102900001409002010B5034628209847044618B142
:102910000021282204F07AF8204610BD2DE9F0416C
:102920000E468AB00546002800F08081002900F09C
:102930007D81047B082C39D007DC022C2BD0042CA1
:1029400015D0012C40F072811AE0202C00F08B8011
:1029500007DC102C40F06A810069FFF7F7FE04469F
:1029600065E1402C00F0C380802C69D05EE1084610
:102970000521FFF7A4FE002800F05881A04912E0CD
:1029800008460621FFF79BFE002800F04F819D4975
:1029900004F072FC4BE108460521FFF790FE002889
:1029A00000F04481984904F067FC3DE1D0E9064518
:1029B000002200232046294602F004FE00220023C4
:1029C00003F068F803AF30B938468D4904F054FC81
:1029D0004FF004081FE08D4922462B46384604F08C
:1029E0005DFA8B4980466A46384604F07DFA012834
:1029F00006D1DDE9000122462B4603F04BF830B941
:102A00003846844922462B4604F048FA8046B8F1FD
:102A1000190F00F20B81304608F10101FFF74FFE5C
:102A2000002800F003810023434503D0FA5CC25420
:102A30000133F9E70022C254B2681344B360F3E0F3
:102A40000069002800F0F28004F074FC441C214668
:102A50003046FFF734FE002800F0E880296922465E
:102A600003F0F8FEE0E0846808460121FFF727FE46
:102A7000002800F0DB805B230370B3680133B36090
:102A8000F3680133F3603CB320463146FFF746FF5D
:102A9000002800F0CB803046FFF705FE2368CBB15D
:102AA00073693046002B0CBF01250225691CFFF716
:102AB00006FE002800F0BA802C23037073690BB95E
:102AC000431C02E02022831C427000221A70B3686B
:102AD0001D44B5602468D6E730460221FFF7EFFDBC
:102AE000002800F0A3805D230370447099E04B69D7
:102AF0008468002B0CBF012502250846691CFFF7DE
:102B0000DEFD002800F092807B230370F368013320
:102B1000F36073690BB10A234370B3681D44B56059
:102B20007369002C56D083B13046F168FFF7C7FDBA
:102B300000287BD00023F268934203D20922C254BA
:102B40000133F8E7B3681A44B260206A3146FFF7F0
:102B5000FDFD00286AD03046FFF7A5FD73693046B9
:102B6000002B0CBF012502252946FFF7A8FD0028F0
:102B70005CD03A23037073690BB109234370B368C7
:102B800020461D44B5603146FFF7C8FE00284DD0F1
:102B90003046FFF788FD75692368003518BF0125A9
:102BA000002B18BF01353046691CFFF788FD00284F
:102BB0003CD0236813B12C2303700130736913B127
:102BC0000A230370013000230370B36824681D4496
:102BD000B560A5E713B1F168013100E0022130468C
:102BE000FFF76DFD10B37369BBB10346F268191AA4
:102BF000013A914210D2092203F8012BF6E700BFF7
:102C000050F2000881F2000887F200088CF20008F8
:102C100093F2000897F2000818467D230370002302
:102C20004370F368013BF360012400E00024204678
:102C30000AB0BDE8F08100BF70B5064668B104F087
:102C400079FB074B451C1B6828469847044628B16A
:102C500031462A4603F0FEFD00E070BD204670BDFF
:102C60001C000020F8B514460646F8B1F1B1EAB1EF
:102C700023B1D7680D4647F4007707E00846FFF711
:102C8000DBFF054690B1E76827F40077E3689B0512
:102C900004D4206A10B1064B5B6898472562E76050
:102CA00030462146BDE8F840FFF7EDBC0020F8BDF6
:102CB0001C000020F0B5234C8BB00D4624220021CF
:102CC000064601A803F0A2FE23684FF480709847DF
:102CD0004FF48072034606950AAD01900292274692
:102CE00094E8070005E9070023B3304601A9FFF780
:102CF00015FEF8B101A8FFF7D6FCA568039925B128
:102D000001980131A847D0B914E02368481C9847BE
:102D1000064678B1039A029B01329A4228BF1A46AE
:102D2000019903F097FD039BF55401986368984758
:102D3000304604E0019808B17B68984700200BB04A
:102D4000F0BD00BF1C00002070B50446E4B1E3688C
:102D50002668DA0503D4A06808B1FFF7F5FFE36839
:102D60000A4D13F4807F03D1206908B16B6898473E
:102D7000E3689B0503D4206A08B16B689847204636
:102D80006B6898473446E1E770BD00BF1C00002027
:102D90002DE9F047074692B00E46002900F06E81FB
:102DA0000D68002D00F06C818C68D1F8048004F16E
:102DB0000409C1450AD82819A349042204F0EAFAF3
:102DC00020B90423FB60C6F808907DE004F1050AF1
:102DD000C2450AD828199D49052204F0DBFA20B91A
:102DE0000120F860C6F808A04DE1C1450CD82819AB
:102DF0009749042204F0CEFA30B902230120FB6087
:102E00007861C6F808903EE1444580F03B812B5D37
:102E10002919222B04D138463146FFF744FB32E111
:102E20002D2B03D0A3F13002092A51D800220192A0
:102E3000C4EB0804A2420DF1080813D08B5C392BB7
:102E400007D8302B09D22D2B07D02E2B05D02B2BBA
:102E500002E0452B01D0652B04D108F80230013285
:102E60003F2AE7D112AB1A444FF0000A404601A9AD
:102E700002F840AC05F02CFDDDF804900446C14595
:102E80000D4623D06EA3D3E90023C7E9064502F01F
:102E90001FFE10B16FF0004308E0204629460022D3
:102EA0006C4B02F00BFE18B14FF000437B6104E065
:102EB0002046294602F020FE78610823FB60B368B3
:102EC000C8EB09084344B3600120DCE05046DAE077
:102ED0005B2B50D1F368B3F57A7F80F0D380013358
:102EE000F3602B5D5B2B40F0CD800134B460304645
:102EF000FFF7B3FBB368726893425BD23268D25C6F
:102F00005D2A2BD0013B4FF00008B3604446306986
:102F1000FFF7F8FC054648B324B1C8F80000C0F834
:102F2000048000E00446B36830460133B360FFF725
:102F300094FB28463146FFF72BFFD0B13046FFF710
:102F40008CFBB3687268934213D23268D35C2C2B2B
:102F500002D05D2B0DD102E0A846D8E70024F3682B
:102F6000013BF3602023FB60BC607FE0002C00F09D
:102F7000898020467FE07B2B40F08480F368B3F5A6
:102F80007A7F7FD20133F3602B5D7B2B7AD10134C2
:102F9000B4603046FFF761FBB3687268934209D2B0
:102FA0003268D25C7D2A5AD0013B4FF00008B360F2
:102FB00045463AE0013BB36064E0002D3CD0C8F8E0
:102FC0000000C0F80480B36830460133B360FFF7F7
:102FD00044FB20463146FFF766FA00284AD03046C7
:102FE000FFF73BFB23697268236200232361B36808
:102FF00093423FD23268D25C3A2A3BD10133B3606C
:103000003046FFF72AFB20463146FFF7C1FE002875
:1030100030D03046FFF721FBB3687268934229D263
:103020003268D35C2C2B17D1A0463069FFF76AFCBD
:1030300004460028C1D11CE00546C4E7AFF3008078
:103040000000C0FFFFFFDF4150F2000881F20008DE
:1030500087F200080000E0C17D2B0BD100E00025C5
:10306000F368013BF3604023FB60BD60B36801334C
:1030700029E73DB12846FFF767FE03E0084602E076
:10308000284600E0002012B0BDE8F087AFF30080D2
:103090002DE9F04389B004460E46914601A800216F
:1030A0001C2203F0B3FC2F4B00271F605F60984683
:1030B000002C53D02046019404F03CF92A4B0130F7
:1030C000029093E8070008AB03E90700FFF71AFC3A
:1030D0000546002831D0019878B1039B53B9029B73
:1030E000042B09D92149032204F054F920B9032300
:1030F000039301E0384600E001A8FFF7AEFA01466D
:103100002846FFF745FEA8B1B9F1000F05D17EB101
:10311000039B019A134433600AE001A8FFF79DFA6C
:10312000039B029A934205D2019AD35C13B9EEE74E
:10313000284614E02846FFF707FE039B029A9342B5
:1031400003D30AB1531E00E013460EB1E2183260F9
:10315000C8F80040C8F80430002000E0204609B05C
:10316000BDE8F083E41200201C000020A7F2000854
:1031700000210A46FFF78CBF0021FFF79BBD28B155
:103180008368002013B101301B68FBE77047012200
:10319000FFF762BB10B5E8B1BAB1C1B18A4218D02D
:1031A0000B684C681360546003B15A60536803B1F4
:1031B0001A6083688B424FF0000308BF82600B6087
:1031C0004B600846FFF7C0FD03E0104610BD0846FF
:1031D00010BD012010BD000008B5044B1868FFF7B2
:1031E00091FB08B10423C36008BD00BF1C00002090
:1031F00070B505460E46FFF7EFFF044631462846F8
:1032000022460023FFF72EFD054620461DB9FFF795
:103210009BFD284670BD70BD174B70B504461868FD
:103220000D46FFF76FFB0646F0B10823C360C0E907
:1032300006450FA3D3E900232046294602F048FCA7
:1032400010B16FF0004308E02046294600220B4BE6
:1032500002F034FC18B14FF00043736104E02046E3
:10326000294602F049FC7061304670BDAFF3008022
:103270000000C0FFFFFFDF411C0000200000E0C194
:1032800038B50B4B05461868FFF73CFB044660B1A8
:103290001023C3602846FFF7CFFC05462061204677
:1032A00025B9FFF751FD284638BD38BD38BD00BFF0
:1032B0001C00002008B5044B1868FFF723FB08B179
:1032C0002023C36008BD00BF1C00002008B5044BCC
:1032D0001868FFF717FB08B14023C36008BD00BFA3
:1032E0001C0000202DE9F843B1F10009804602DA04
:1032F0000020BDE8F8830028FAD0FFF7DBFF064680
:103300000028F5D000273D464D4511D258F825003C
:10331000FFF7B6FF044618B93046FFF715FDE7E79B
:103320000DB9B06001E03860476001352746EBE732
:103330003046BDE8F88320B1007BD0F1010038BFF2
:103340000020704720B1C06810F0030018BF0120B2
:10335000704718B1007B031F58425841704720B195
:10336000007BB0F1080358425841704720B1007B00
:10337000B0F1100358425841704720B1007BB0F1C2
:10338000200358425841704720B1007BB0F1400300
:10339000584258417047000008B5024B5B68984797
:1033A00008BD00BF1C000020F8B506460D461F46AC
:1033B0001446DAB1E1B1D3689B0503D4106A08B1B1
:1033C000FFF7EAFF2846FFF737FCE368206223F4A3
:1033D0000073E36029463A463046FFF73DFA22463D
:1033E00001463046FFF7D6FE0120F8BD1046F8BD75
:1033F0000846F8BD0123FFF7D7BF122938B50546A7
:10340000144608460BD0132910D0112916D100F00C
:103410007DF80CB120460FE047F6FF700CE000F09D
:1034200075F8002CF6D149F63F4005E000F06EF843
:10343000002CEFD14FF2234000F06CF9284638BD44
:1034400013B50022044601A8FFF7D7FF204602B0BB
:1034500010BD084600F044B900F030B910B5104670
:103460000C4600F071F921460320BDE8104000F041
:10347000A3B80000054B1B681B685B0103F1844384
:1034800094331A68002AFCD0704700BF280000203F
:10349000054B1B681B685B0103F184438C331A687E
:1034A000002AFCD0704700BF2800002008B5FFF7B5
:1034B000E1FF054B00221B681B685B0103F184439D
:1034C000C3F88C2008BD00BF2800002008B5FFF716
:1034D000D1FF054B01221B681B685B0103F184438C
:1034E000C3F8902008BD00BF2800002008B5FFF7F2
:1034F000C1FF054B00221B681B685B0103F184437D
:10350000C3F8902008BD00BF2800002010B5044675
:1035100000F059FB00F064FB204A112C136A23F4DD
:103520004073136213460BD005D8C4B1102C2AD1B6
:103530000023136227E0122C11D0132C1AD022E0A2
:10354000174A00211160012142F8081C154A12682F
:1035500012F0FF0FFAD01A6A42F4807212E0124A97
:1035600001211160114A1268002AFBD01A6A42F444
:10357000007207E00E4A126812F0FF0FFAD01A6AC2
:1035800042F440721A620B4B01221A60FFF78EFF61
:10359000FFF77EFFBDE81040FFF76CBF0010024050
:1035A00008044242040442428004424284044242EB
:1035B000440042423C04424238B5144D04462B6854
:1035C00003EB80035960FFF755FF032C09D1104A24
:1035D00001231360C2F800310E4B4FF400725A60A1
:1035E00038BD2B6801221B68944204EBC3034FEAE9
:1035F000830303F184431A6003D002D3022C00D06A
:1036000038BD044B08221A6038BD00BF28000020D6
:103610004480204200E100E010B50446FFF72AFF95
:10362000032C0B4B05D10B4900220A60C1F8002185
:1036300008E01A680021126804EBC202920002F14D
:10364000844211601B6803EB84040023636010BD97
:103650002800002044802042F8B5104B1E683568D1
:103660002B686F681F4017F0010403D074680CB119
:10367000A0470124BA0704D5B36813B1984744F0B2
:1036800002047B0704D5F36813B1984744F004049F
:103690006B6823EA04046C60F8BD00BF28000020BA
:1036A00008B5044B1B681B691BB19847024B0122EC
:1036B0001A6008BD28000020C482204208B5FFF728
:1036C000F5FEFFF7E5FEFFF7D5FE044B1B681B6810
:1036D0009869DB699BB243EA004008BD28000020DE
:1036E00010B50446FFF7E2FEFFF7D2FEFFF7C2FE79
:1036F000FFF7ECFE064B220C1B68A4B21B689A6114
:10370000DC61FFF7F3FEBDE81040FFF7B3BE00BF7A
:103710002800002010B50446FFF7C8FEFFF7B8FEEA
:10372000FFF7A8FEFFF7D2FE064B220C1B68A4B2DF
:103730001B689A60DC60FFF7D9FEBDE81040FFF718
:1037400099BE00BF2800002010B50446FFF7AEFE6A
:10375000FFF79EFEFFF78EFEFFF7B8FE064B220C2A
:103760001B68A4B21B681A625C62FFF7BFFEBDE86B
:103770001040FFF77FBE00BF2800002001498D46A2
:1037800001490847005000208D37000808B5124B4A
:10379000124A1968914201D0002301E0104B07E062
:1037A0001048D4188442F9D2C858D0500433F7E7EF
:1037B0000D4A934203D2002243F8042BF8E702F0AB
:1037C00037FD00200146024601F0C8FB074B0BB154
:1037D00002F01EFDFEE700BFA4F900080000002073
:1037E000B8110020B8110020E01300201162000879
:1037F00008B50D4B1A680AB90C4A1A601B680C4AC6
:10380000D21A824204DB09494242591A914206DA2D
:1038100002F0F8FC0C2303604FF0FF3008BD024AB1
:1038200018441060184608BDEC120020E013002078
:10383000783C0128FEE770470B4B10B51968092248
:103840000A230A4800F0CAFE094B022219680948F7
:10385000032300F0C3FEBDE81040074B074819687A
:103860001A221B2300F0BABE4C010020F0120020E7
:1038700050010020081300205401002020130020D4
:1038800010B5044600F084F9034B20461978BDE8D2
:10389000104000F019B900BF44000020F8B50446FC
:1038A000056800F00FFB22680023510101F18441FB
:1038B0000B60802129600121A9622B61EB60637993
:1038C000696113B18B4203D02BE04FF400436B646A
:1038D0004FF6FF73D36200256E1CF7B220463946BF
:1038E00000F0FAFAD0B1236848F6FF7103F1340210
:1038F00042F8251018336D1017F0010F53F82520EA
:1039000014BF6FF0FF016FF47F4101EA020214BFA0
:1039100068214FF4D0410A4343F82520042E354650
:10392000DAD1216801224B01490103F1844301F1FD
:103930008441C3F880220A60F8BD000038B5274BE7
:10394000274C1A68022042F010021A6000F04EF96B
:103950000025002000F0E0F965602368182023F4BA
:103960000023236000F0E5F9102000F0E2F900F0F8
:1039700043F8A560102000F0CFF9102000F0E7F91F
:103980000028FAD000F039F8164800F0EDF91820B8
:1039900000F0C2F9182000F0DAF90028FAD002206D
:1039A00000F0AAF900214FF0006000F087F90E48FE
:1039B00000F040FA00F038F80C4B188800F0D6F808
:1039C0000B4800F0D7F80B4800F068FA00F02EF82A
:1039D00000F02DF8FFF72FFF38BD00BF0020024098
:1039E00000100240480000203F190100460000205E
:1039F000813800089D380008704708B5002001464E
:103A000000F0F0F901204FF4806100F0EBF90021A3
:103A1000022000F0E7F92D2000F0F4F9BDE808409D
:103A20000320002100F0DEB900F0EAB8704700F092
:103A300027B90000000000000000000000000000A6
:103A4000012007E0022005E0032003E0042001E05C
:103A50000520FFE70D4A0121116072B60C4A0021D2
:103A60001160074902B4084902B486B005498E4680
:103A7000704700BFAFF30080AFF30080AFF300806A
:103A800000000061F9FFFFFFF944000814ED00E0B9
:103A900010E000E0AFF30080AFF30080AFF30080F0
:103AA000FEE710B50446007900F06AF92079BDE818
:103AB000104000F07DB903689A6822F4602242F455
:103AC0008012114399607047002370B51A461C4656
:103AD000072B4FEA430503DCEE1801FA06F63443E0
:103AE0001D4401FA05F501330A2B42EA0502EFD124
:103AF0000368DC601A6170BD38B5124D2A6813681E
:103B00001C68A10706D5196821F0020119609368A5
:103B100003B19847620708D52B681A681B691168BA
:103B200021F00401116003B19847E30708D52B6821
:103B30001A68DB68116821F00101116003B1984730
:103B400038BD00BF74000020036801225B0103F14F
:103B5000844303F58673191F1A6018680028FCD186
:103B600043F8042C0B68002BFCD17047014604205D
:103B700000F038B9044B10B504461868A047034B51
:103B80001868A04710BD00BF74000020700000201E
:103B900010B50446FFF785FF20464FF46021FFF77C
:103BA0008AFF2368012103F1404308335A015B0176
:103BB00002F1844203F18443116520461960BDE897
:103BC0001040FFF7C1BF08B5142000F0D9F8042059
:103BD00000F0D6F8BDE80840042000F0E9B8000085
:103BE000014B01221A60704720000E42034B1A68F5
:103BF00022F0070210431860704700BF0020024007
:103C000008B5074801F093FA064801F090FA064813
:103C100001F08DFABDE80840044801F088BA00BF01
:103C20007800002080000020880000209000002004
:103C300070B501F00704A4000F25A5400368C8086B
:103C400053F82060092A26EA050514BF16460826FF
:103C500006FA04F4082A44EA050443F8204006D191
:103C6000012000FA01F1DA6822EA010106E0092ADE
:103C700005D1012000FA01F1DA681143D96070BD65
:103C800008B5032000F07CF8BDE80840032000F0F0
:103C90008FB8000000284FEA011105DA064B00F04A
:103CA0000F00C9B21954704700F16040C9B200F565
:103CB000614080F80013704714ED00E021F060418E
:103CC00038B521F07F01084B0843986000241D4659
:103CD00060B20F210134FFF7DDFF2B2CF8D1F02368
:103CE00085F8233038BD00BF00ED00E0014B13F82C
:103CF00010007047E0F40008064B5A6822F00302F7
:103D000002435A6080005A6802F00C028242FAD1E3
:103D1000704700BF00100240030A0121C0B201FA3F
:103D200000F003F1804303F504331A681043186070
:103D30007047030A0121C0B201FA00F003F1804389
:103D400003F504331A6822EA000018607047030A7A
:103D50000222C0B202FA00F003F1804303F50433FB
:103D60001B68184070470000044B05C8596812686A
:103D700021F4741102430A435A6070470010024054
:103D800010B50446FFF7B2FF074B53F82020074B4E
:103D900003EB4404637803EBC2039B0003F1844309
:103DA00001221A6010BD00BF98000020E0F4000856
:103DB00010B50446FFF79AFF084B53F82020084B34
:103DC00003EB4404637803EBC2039B0003F18443D9
:103DD00001221A6000221A6010BD00BFA40000205A
:103DE000E0F4000810B5054B054C5A6854F8200063
:103DF00022EA00021143596010BD00BF00100240CA
:103E00003CF5000810B50446FFF770FF074B53F868
:103E10002020074B03EB4404637803EBC2039B00B1
:103E200003F1844300221A6010BD00BFAC000020E3
:103E3000E0F40008024B072258601A60704700BF88
:103E400010E000E008B5044B1A6801321A60034B19
:103E50001B6803B1984708BDD81300203813002011
:103E600011F0010F70B542EA03030CBF08250025CD
:103E700003FA05F5006801F1FF3400F11800C4F3FE
:103E8000400450F8241014BF6FF0FF066FF47F4613
:103E90003140294340F8241070BD000010B504469D
:103EA0000448A0470448A0470448A0470448A04746
:103EB00010BD00BF0001002028010020B800002034
:103EC000DC00002010B504460079FFF759FF207987
:103ED000BDE81040FFF76CBF03791E2B10D9212BD2
:103EE0000ED0202B0ED9222B01D0252B04D1022954
:103EF0008CBF0020012070474B1E5842584170472C
:103F000001207047002070478B1C40F82320036875
:103F1000012203F140430C3301EBC3039B0003F187
:103F200084431A6042790379FAB9B3F11A02534211
:103F30005341072945D8DFE801F004090909090EB2
:103F40000E13002B0CBF2C23192331E0002B0CBFC8
:103F50002E231B232CE0002B0CBF2D231A2327E03C
:103F6000002B0CBF2B23182322E01B3B0C2B28D843
:103F7000DFE803F0071D090B0D0F271113151719A3
:103F80001B001C2314E01E2312E0322310E0362312
:103F90000EE037230CE018230AE0192308E01A2367
:103FA00006E02B2304E02C2302E02D2300E01D2358
:103FB0005909012203F01F0302FA03F3014A42F8F0
:103FC0002130704700E100E00368002203F1404324
:103FD0000C3301EBC3039B0003F1844302311A60ED
:103FE00040F82120704738B543790446022B0D462E
:103FF0003BD0032A39D8DFE802F002111F2DFFF76A
:10400000E3FF2368013D03F140432033DB0003EB72
:1040100085039B0003F18443002225E0036800220E
:1040200003F140430C3301EBC3039B0003F18443D2
:104030001A606022082301E010220023FFF710FF1E
:104040002368013D03F140432033DB0003EB85038C
:104050009B0006E003684FF2F1229A6103229A6006
:104060005B0103F1844301221A6038BD10B5074B90
:104070001C68E16822690A40120606D55B6A23B112
:104080009847236923F08003236110BD00010020BD
:1040900010B5074B1C68E16822690A40D20706D5B3
:1040A0009B6823B19847236923F00103236110BD66
:1040B00000010020F8B50C4F3D68EB682E691E40EA
:1040C00016F0400403D03C6A0CB1A0474024B3066C
:1040D00004D5FB6913B1984744F020042B6923EA07
:1040E00004042C61F8BD00BF00010020F8B5134F97
:1040F0003E68F36835691D4015F0100403D0BC69B3
:104100000CB1A0471024290704D57B6913B1984747
:1041100044F008046A0704D53B6913B1984744F09A
:104120000404AB0704D5FB6813B1984744F00204BC
:10413000336923EA04043461F8BD00BF00010020A4
:10414000F8B51A4E3768FB683D691D4015F040040C
:1041500003D0346A0CB1A0474024EB0604D5B36900
:1041600013B1984744F01004280704D5736913B1BC
:10417000984744F00804690704D5336913B1984798
:1041800044F00404AA0704D5F36813B1984744F037
:104190000204EB0704D5B36813B1984744F0010457
:1041A0003B6923EA04043C61F8BD00BF28010020FC
:1041B000F8B51A4E3768FB683D691D4015F040049C
:1041C00003D0346A0CB1A0474024EB0604D5B36990
:1041D00013B1984744F01004280704D5736913B14C
:1041E000984744F00804690704D5336913B1984728
:1041F00044F00404AA0704D5F36813B1984744F0C7
:104200000204EB0704D5B36813B1984744F00104E6
:104210003B6923EA04043C61F8BD00BFB8000020FC
:10422000F8B51A4E3768FB683D691D4015F040042B
:1042300003D0346A0CB1A0474024EB0604D5B3691F
:1042400013B1984744F01004280704D5736913B1DB
:10425000984744F00804690704D5336913B19847B7
:1042600044F00404AA0704D5F36813B1984744F056
:104270000204EB0704D5B36813B1984744F0010476
:104280003B6923EA04043C61F8BD00BFDC00002068
:1042900081880268034689B2505C99881A8989B27C
:1042A00092B2914217BF9A880022013292B2C0B2F4
:1042B0009A807047C28838B5838892B29BB2013227
:1042C0009A4204460D461AD0C288038992B29BB224
:1042D0009A4202D183889BB28BB14FF0FF30E288C3
:1042E000236892B29D54E288238992B29BB29A428B
:1042F00017BFE388002301339BB2E38038BD20461B
:10430000FFF7C6FFEBE770B51E46054608461146A7
:104310000422059CFFF78CFC9DF810100B22304600
:10432000FFF786FC2B6804F00F01DA6804F0300414
:1043300022F4F0521204120C42EA4122DA601A69A5
:1043400022F440521204120C42EA04241C6170BD93
:1043500038B50446154611B900F096F80146192300
:104360005943AD006423B1FBF5F1B1FBF3F2120147
:10437000100903FB101109013231B1FBF3F303F013
:104380000F0321681A4392B28A6038BD38B5114DC7
:10439000EB68980607D52B68990604D569680E481E
:1043A000C9B2FFF787FFEB680A4C1A0611D52368DC
:1043B0001B060ED509488288C38892B29BB29A42E6
:1043C00003D0FFF765FF606038BDE36823F080032A
:1043D000E36038BD00380140481300203C13002042
:1043E00038B5114DEB68980607D52B68990604D5AA
:1043F00069680E48C9B2FFF75DFFEB680A4C1A0600
:1044000011D523681B060ED509488288C38892B24D
:104410009BB29A4203D0FFF73BFF606038BDE36870
:1044200023F08003E36038BD0044004054130020B3
:104430006C13002038B5114DEB68980607D52B6832
:10444000990604D569680E48C9B2FFF733FFEB68D7
:104450000A4C1A0611D523681B060ED50948828816
:10446000C38892B29BB29A4203D0FFF711FF6060FB
:1044700038BDE36823F08003E36038BD00480040A6
:10448000601300207813002008B590F89002FFF721
:104490002DFC20B10128034818BF002008BD0248A8
:1044A00008BD00BF00A24A040051250208B5114B07
:1044B00001211C6803222046FFF7BAFB00230121DB
:1044C0001A469342206834BF02254FF40035B2F5F6
:1044D000007F056103F1010303D0002A08BF012119
:1044E00001E04FF0FF31B3F5007F04BF5218002305
:1044F000E7E700BFDCF4000808B5034B0BB1AFF3EE
:10450000008062B6FFF7D2FF0000000003695B681D
:10451000D9889A8889B292B2D8888A1A998880B242
:1045200089B2884203D2198989B201310A4492B210
:1045300082B199881A6889B2505C99881A8989B2BF
:1045400092B2914217BF9A880022013292B2C0B251
:104550009A8070474FF0FF30704703695B68998815
:10456000DA8889B292B2914205D09A881B6892B2D9
:10457000985CC0B270474FF0FF30704703699A688B
:104580009088D18880B289B28842F9D11A681368BC
:104590005B06FCD5704713B504698DF807102046FB
:1045A0000DF10701012200F001FE0028F7D00120E3
:1045B00002B010BD03695B68D8889A8880B292B255
:1045C000D988801A9A8889B292B2914203D21B8903
:1045D0009BB20133184480B27047000030B500250B
:1045E00045604FF47A758560024D01610560027582
:1045F000437530BD58F5000803692DE9F74FDB68B6
:10460000044699420F4692462CD890F81480174DD4
:104610004FEA081808EB050690F8159070684FEA05
:10462000091909EB050B717B10B10022FFF7DBFCC8
:10463000206900F087FD337B9BF80C2020698DE812
:10464000080459F8051058F80530FFF75CFE20699A
:1046500000213A46FFF77CFE206903B0BDE8F04F29
:1046600000F09ABD03B0BDE8F08F00BFACF20008C7
:104670000022FFF7C1BF0000044B02791B789A4269
:1046800002D1034B1B681860704700BF94130020D1
:1046900098130020002310B50446036072B6054B42
:1046A00019311970044B18600448FFF7F7FB62B624
:1046B000204610BD9413002098130020794600086E
:1046C000036801391B6889B29962704738B505469D
:1046D00039B9036801221B689962DA62D86A80B22C
:1046E00038BD48244C434FF6FF71B4FBF1F1013162
:1046F00089B204EB5104B4FBF1F4FFF7E1FF2B683E
:10470000A4B21B682046DC6238BD0068C9B2FFF75E
:104710006ABC0368C9B21B6801F18041D86A0139DB
:1047200080B23433824228BF024643F821207047CA
:104730000068C9B2FFF7E8BB08B501210848FFF7D8
:10474000A9FF02210748FFF7A5FF03210648FFF74D
:10475000A1FFBDE8084005480421FFF79BBF00BF4B
:1047600084130020881300208C1300209013002055
:104770002DE9F041002407460E4625463B191979DC
:104780000A22304600F013F92E218046304600F010
:104790004DF801344044032C0544EFD13046F979FB
:1047A0000A2200F004F92844BDE8F08130B5837195
:1047B000034D9DF80C30056001714271C37130BD2D
:1047C00080F50008044B054A1A6000221A715A71DC
:1047D0009A71DA71704700BF9C13002080F50008C1
:1047E00070B505460E460024315D29B12A68284679
:1047F000126890470134F7E7204670BDF8B50546CA
:104800000C4616468F18BC4206D02B6828461B68FB
:1048100014F8011B9847F6E73046F8BD10B502685A
:104820000B46946809689A68A04710BD08B50368EC
:104830001B68984708BD08B503685B68984708BDC2
:10484000FFF7F9BF10B50A6804461268084621460A
:10485000904710BD38B50D210546FFF7E7FF0A2147
:1048600004462846FFF7E2FF204438BD38B5044629
:10487000FFF7D4FF05462046FFF7ECFF284438BD7C
:1048800038B50446FFF7D7FF05462046FFF7E2FF9D
:10489000284438BD38B50446FFF7CDFF054620460D
:1048A000FFF7D8FF284438BD38B50446FFF7CAFFE4
:1048B00005462046FFF7CEFF284438BD2DE9F04FCE
:1048C00014461D4691B054EA050381469DF868B030
:1048D00004D13021FFF7AAFF01202EE04FF000089D
:1048E0005FFA8BF600272046294632463B4601F008
:1048F0007BF908F101080DF1000AC2440AF8012C05
:10490000204629463B46324601F06EF904460D46E4
:1049100054EA0503E4D1002408F1FF381DF808101B
:104920004846092994BF30313731C9B2FFF77EFFBD
:104930000444B8F1000FEFD1204611B0BDE8F08F6C
:104940002DE9F041069F064614461D462FB903681F
:10495000D1B21B689847BDE8F081002C75F10003C7
:1049600005DA2D21FFF762FF644265EB4505FFB2D2
:104970000697304622462B46BDE8F041FFF79EBF22
:1049800007B5CB1700920A46FFF7DAFF03B05DF8D0
:1049900004FB70B5049921B90368D1B21B6898472C
:1049A00070BDC9B20491BDE87040FFF787BF07B57D
:1049B00000230092CAB2FFF7ECFF03B05DF804FBDE
:1049C00007B5002300920A46FFF7E3FF03B05DF846
:1049D00004FB38B50446FFF7F3FF05462046FFF712
:1049E00039FF284438BD000038B50A4B04461A6820
:1049F0001D46C2602268204613699847002807DADE
:104A0000E2682B689B1AA2689342F3D34FF0FF3001
:104A100038BD00BFD813002070B50D4609490446C3
:104A2000164600F063F82846FFF7DEFF014600292E
:104A3000204605DBB14203D0C9B200F0E8F8F2E746
:104A400070BD00BFF8EC000870470022026010B58E
:104A50000C68426004604C68826044608C688460CA
:104A60000A604A608A6010BD10B50446006801F013
:104A700019FC204610BD10B50446006808B101F0CD
:104A800011FC00232360A360636010BD38B50446A9
:104A90000D460068013102F007F810B184E82100EA
:104AA000012038BD036810B5044613B143688B423A
:104AB00007D22046FFF7EAFF20B1A3680BB92268AE
:104AC0001370012010BD70B50E4611460446154600
:104AD000FFF7E8FF18B92046FFF7CDFF04E0A56017
:104AE0002068314602F0C8FB204670BD38B500236F
:104AF00004460360436083600D4639B1084602F006
:104B000019FC294602462046FFF7DDFF204638BD46
:104B100038B5054600680C4678B1096859B10C4BA8
:104B20004BB16A68A3689A4205D302F0A5FBA3685B
:104B3000AB6000230AE001F0B5FB23682B606368DB
:104B40006B60A368AB60002323606360A36038BD23
:104B5000494A0008884210B50B46044607D0096848
:104B600019B19A68FFF7AFFF01E0FFF784FF204615
:104B700010BD10B500230446036043608360FFF757
:104B8000E9FF204610BD884210B5044601D0FFF76A
:104B9000BFFF204610BD38B505460C4641B108465A
:104BA00002F0C8FB214602462846FFF78CFF01E0D1
:104BB000FFF761FF284638BD70B5044685680E468C
:104BC00009B9002070BD62B115442946FFF76AFF9C
:104BD0000028F6D02068A3683146184402F04CFB48
:104BE000A560012070BD0B469A680968FFF7E4BF15
:104BF00038B505460C46084641B102F09BFB2146FC
:104C000002462846BDE83840FFF7D6BF38BD07B595
:104C100000238DF80410012201A98DF80530FFF75B
:104C2000CBFF03B05DF804FB13B50A220446084627
:104C300001A900F04FFA01A802F07CFB01A902468D
:104C40002046FFF7B9FF02B010BD1FB504460A2287
:104C50000846694600F069FA684602F06BFB69464F
:104C600002462046FFF7A8FF04B010BD0B4610B562
:104C700009689A680446FFF79FFF10B92046FFF7BE
:104C8000FAFE204610BD38B504460D4641B108462F
:104C900002F050FB294602462046FFF78DFF10B96F
:104CA0002046FFF7E8FE204638BD10B50446FFF762
:104CB000CCFF10B92046FFF7DEFE204610BD82680B
:104CC00008B50B4612B919B9012008BD11B903681E
:104CD000187802E0006802F0B1F9D0F1010038BFA5
:104CE000002008BD08B582688B689A420CD3006822
:104CF00068B1096851B1D31A184402F09FF9D0F194
:104D0000010038BF002008BD002008BD084608BDCE
:104D100038B50C469AB191B181688B4202D3002319
:104D2000237038BDC91A551E8D4228BF0D46016833
:104D30002A461944204602F087FB0023635538BDFC
:104D4000836810B59A4206D20468A01802F0FCF8F5
:104D500008B1001B10BD4FF0FF3010BDF8B515466F
:104D60008A680F46C2B18368B3B19A4214D8066804
:104D70009D4228BF03F1FF3530464FF0FF347319D1
:104D800098420CD8396802F0E5FC40B1831BAB4275
:104D900098BF1C460130F2E74FF0FF30F8BD2046C7
:104DA000F8BD00009A422DE9F04107460D46144631
:104DB0001E4601D93446164638460C49FFF796FE82
:104DC000AB689C420FD29E4228BF1E462B68002231
:104DD00013F806809A55296838462144FFF7DBFE10
:104DE0002B6803F806803846BDE8F081F8EC00082F
:104DF0002DE9F74FD0F808A004460F461646BAF141
:104E0000000F77D0D1F808B0BBF1000F72D09368D3
:104E10000568CBEB0308B8F1000F0DD128463968BF
:104E200002F098FC0546002864D03168B26801F0B1
:104E300011FDB3681D44F1E702DB0B68D14622E0A7
:104E4000A9462846396802F085FC8246A0B1C5EB28
:104E50000A0B294648465A46D94401F0FBFC48460D
:104E60003168B26801F0F6FCB368BD689944A36884
:104E700055444344A360E4E74846294603B0BDE8EF
:104E8000F04F02F0F9B919462846019302F062FC8E
:104E9000019B18B100EB0B05C144F4E7D14529D0C3
:104EA0006368994504D920464946FFF7EFFD08B3EA
:104EB000A268013A002A1DDB20463946FFF74EFF63
:104EC000051E17DBBA682168A3682A44114401EB68
:104ED00008009A1A01F034FDA368226843440021B7
:104EE000A360D1542068B2682844316801F0B2FC54
:104EF0006A1EDFE703B0BDE8F08F2DE9F0410668D8
:104F0000054616B3876807B3B0464446207808F1D3
:104F1000010801F0B5F90028F7D1013F374438788E
:104F200001F0AEF948B901373A1BB442AA6008D97A
:104F30003046214601F08EFC03E0A742F3D3013F47
:104F4000EDE72A68AB680021D154BDE8F081006824
:104F500008B101F049B97047FEF7F0BC08B5FBF79E
:104F60000DFEFCF715FBFCE701F09CB9222870B59B
:104F70003BD8082939D8DFE801F0051A080B0E11D3
:104F8000081417000024032213E00024042210E078
:104F9000002422460DE0002409220AE00024082211
:104FA00007E001240B2204E001240F2201E0002489
:104FB00007220E4B00011E18317B1858FEF738FEF1
:104FC000706890B1717B24B10122BDE87040FFF799
:104FD0000AB80368013903F140432033DB0003EBD7
:104FE00081039B0003F184431C6070BDACF2000898
:104FF00022280ED8084B00011A18127B012101FA51
:1050000002F21B581B689B681A420CBF002001204B
:1050100070470020704700BFACF20008222810D86B
:10502000084B00011A18127B1B58012000FA02F2EB
:10503000D1F1010138BF0021090102FA01F11B6819
:1050400019617047ACF20008054B70B51C68064644
:105050001D4600F007F82B681B1BB342F9D370BD47
:10506000D81300207047F0B58BB059B3931E222B94
:105070002AD80A2A2AD1002828DA4042012501AB81
:105080001E4670B1B0FBF2F702FB1704092C38463C
:10509000D8BF303403F10107C8BF57341C703B46FA
:1050A000EFE7B342EED01DB12D204A1C087000E09E
:1050B0000A46B34204D913F8010D02F8010BF8E7D0
:1050C00000231370084603E0002001E00025D6E726
:1050D0000BB0F0BDFFF7C7BF70B58AB001B3931E28
:1050E000222B1FD801AB1D4670B1B0FBF2F602FBBC
:1050F0001604092C3046D8BF303403F10106C8BF6E
:1051000057341C703346EFE7AB42EED00A46AB4251
:1051100004D913F8010D02F8010BF8E7002313700E
:10512000084600E000200AB070BDFFF7D5BF10B5FB
:1051300004460079FEF724FE2079BDE81040FEF712
:1051400037BE0000436800227F2110B59A80DA80C4
:10515000198100F110011960836804469A80DA8091
:1051600040F2FF121A8100F190021A6090F890024A
:10517000FEF706FE94F891325AB2002A08DB0121AC
:1051800003F01F0301FA03F30249521141F82230E0
:1051900010BD00BF00E100E00368DA6842F02C02B5
:1051A000DA60DA6842F40052DA607047F0B583687A
:1051B0000546046800209F88DE88BFB2B6B2B742B9
:1051C00004D0E36823F08003E36027E02668360616
:1051D000F7D59042F5D00E5C01306660EBE7DF88D2
:1051E0009E88BFB2B6B20137B74211F800C01DD0D9
:1051F000DF881E89BFB2B6B2B74213D0DF881E68FF
:10520000BFB206F807C0DF881E89BFB2B6B2B74288
:1052100018D0DE880136B6B2DE8001309042AB682D
:10522000DDD303E09E88B6B2002EE7D19A88DB88F2
:1052300092B29BB29A4200D1F0BDE36843F0800382
:10524000E360F0BD0026E7E703460846194600F094
:10525000CFBF00BF81F0004102E000BF83F00043F8
:1052600030B54FEA41044FEA430594EA050F08BF01
:1052700090EA020F1FBF54EA000C55EA020C7FEAC5
:10528000645C7FEA655C00F0E2804FEA5454D4EB42
:105290005555B8BF6D420CDD2C4480EA020281EA0C
:1052A000030382EA000083EA010180EA020281EA44
:1052B0000303362D88BF30BD11F0004F4FEA013196
:1052C0004FF4801C4CEA113102D0404261EB4101A5
:1052D00013F0004F4FEA03334CEA133302D052422B
:1052E00063EB430394EA050F00F0A780A4F10104E7
:1052F000D5F1200E0DDB02FA0EFC22FA05F2801821
:1053000041F1000103FA0EF2801843FA05F3594106
:105310000EE0A5F120050EF1200E012A03FA0EFC85
:1053200028BF4CF0020C43FA05F3C01851EBE371AF
:1053300001F0004507D54FF0000EDCF1000C7EEBCC
:1053400000006EEB0101B1F5801F1BD3B1F5001F0A
:105350000CD349085FEA30004FEA3C0C04F1010429
:105360004FEA445212F5800F80F09A80BCF1004F52
:1053700008BF5FEA500C50F1000041EB045141EAD4
:10538000050130BD5FEA4C0C404141EB010111F4D5
:10539000801FA4F10104E9D191F0000F04BF014680
:1053A0000020B1FA81F308BF2033A3F10B03B3F15E
:1053B00020020CDA0C3208DD02F1140CC2F10C02EE
:1053C00001FA0CF021FA02F10CE002F11402D8BF4C
:1053D000C2F1200C01FA02F120FA0CFCDCBF41EA18
:1053E0000C019040E41AA2BF01EB0451294330BDE7
:1053F0006FEA04041F3C1CDA0C340EDC04F11404C4
:10540000C4F1200220FA04F001FA02F340EA03009A
:1054100021FA04F345EA030130BDC4F10C04C4F1E0
:10542000200220FA02F001FA04F340EA03002946C0
:1054300030BD21FA04F0294630BD94F0000F83F40A
:10544000801306BF81F480110134013D4EE77FEAED
:10545000645C18BF7FEA655C29D094EA050F08BF39
:1054600090EA020F05D054EA000C04BF194610461A
:1054700030BD91EA030F1EBF0021002030BD5FEA5E
:10548000545C05D14000494128BF41F0004130BD86
:1054900014F580043CBF01F5801130BD01F00045DA
:1054A00045F0FE4141F470014FF0000030BD7FEA4D
:1054B000645C1ABF194610467FEA655C1CBF0B4648
:1054C000024650EA013406BF52EA033591EA030F5F
:1054D00041F4002130BD00BF90F0000F04BF002157
:1054E000704730B54FF4806404F132044FF000058A
:1054F0004FF0000150E700BF90F0000F04BF002103
:10550000704730B54FF4806404F1320410F0004568
:1055100048BF40424FF000013EE700BF42004FEA63
:10552000E2014FEA31014FEA02701FBF12F07F43E0
:1055300093F07F4F81F06051704792F0000F14BFDD
:1055400093F07F4F704730B54FF4607401F0004521
:1055500021F0004120E700BF50EA010208BF704778
:1055600030B54FF000050AE050EA010208BF70476D
:1055700030B511F0004502D5404261EB41014FF4D6
:10558000806404F132045FEA915C3FF4DCAE4FF0DA
:1055900003025FEADC0C18BF03325FEADC0C18BFC1
:1055A000033202EBDC02C2F1200300FA03FC20FA12
:1055B00002F001FA03FE40EA0E0021FA02F114445F
:1055C000C1E600BF70B54FF0FF0C4CF4E06C1CEA74
:1055D00011541DBF1CEA135594EA0C0F95EA0C0FE9
:1055E00000F0DEF82C4481EA030621EA4C5123EA5C
:1055F0004C5350EA013518BF52EA033541F480118B
:1056000043F4801338D0A0FB02CE4FF00005E1FB3D
:1056100002E506F00042E0FB03E54FF00006E1FB87
:1056200003569CF0000F18BF4EF0010EA4F1FF04CA
:10563000B6F5007F64F5407404D25FEA4E0E6D410A
:1056400046EB060642EAC62141EA55514FEAC5201B
:1056500040EA5E504FEACE2EB4F1FD0C88BFBCF597
:10566000E06F1ED8BEF1004F08BF5FEA500E50F148
:10567000000041EB045170BD06F0004646EA01010E
:1056800040EA020081EA0301B4EB5C04C2BFD4EB40
:105690000C0541EA045170BD41F480114FF0000E39
:1056A000013C00F3AB8014F1360FDEBF002001F0A7
:1056B000004170BDC4F10004203C35DA0C341BDC21
:1056C00004F11404C4F1200500FA05F320FA04F0F3
:1056D00001FA05F240EA020001F0004221F0004127
:1056E00010EBD37021FA04F642EB06015EEA430E9A
:1056F00008BF20EAD37070BDC4F10C04C4F12005CA
:1057000000FA04F320FA05F001FA04F240EA02007C
:1057100001F0004110EBD37041F100015EEA430E4D
:1057200008BF20EAD37070BDC4F1200500FA05F26D
:105730004EEA020E20FA04F301FA05F243EA0203EC
:1057400021FA04F001F0004121FA04F220EA0200FB
:1057500000EBD3705EEA430E08BF20EAD37070BD41
:1057600094F0000F0FD101F00046400041EB010121
:1057700011F4801F08BF013CF7D041EA060195F003
:10578000000F18BF704703F00046520043EB0303BD
:1057900013F4801F08BF013DF7D043EA06037047AA
:1057A00094EA0C0F0CEA135518BF95EA0C0F0CD0B5
:1057B00050EA410618BF52EA4306D1D181EA0301FB
:1057C00001F000414FF0000070BD50EA410606BFF5
:1057D0001046194652EA430619D094EA0C0F02D13A
:1057E00050EA013613D195EA0C0F05D152EA03367F
:1057F0001CBF104619460AD181EA030101F000419D
:1058000041F0FE4141F470014FF0000070BD41F0E5
:10581000FE4141F4780170BD70B54FF0FF0C4CF4BF
:10582000E06C1CEA11541DBF1CEA135594EA0C0FDE
:1058300095EA0C0F00F0A7F8A4EB050481EA030E2B
:1058400052EA03354FEA013100F088804FEA033312
:105850004FF0805545EA131343EA12634FEA0222E0
:1058600045EA111545EA10654FEA00260EF00041A1
:105870009D4208BF964244F1FD0404F5407402D2F3
:105880005B084FEA3202B61A65EB03055B084FEA84
:1058900032024FF480104FF4002CB6EB020E75EB81
:1058A000030E22BFB61A754640EA0C005B084FEAA9
:1058B0003202B6EB020E75EB030E22BFB61A754626
:1058C00040EA5C005B084FEA3202B6EB020E75EB71
:1058D000030E22BFB61A754640EA9C005B084FEAE9
:1058E0003202B6EB020E75EB030E22BFB61A7546F6
:1058F00040EADC0055EA060E18D04FEA051545EAE5
:1059000016754FEA06164FEAC30343EA52734FEA8D
:10591000C2025FEA1C1CC0D111F4801F0BD141EA06
:1059200000014FF000004FF0004CB6E711F4801F6B
:1059300004BF01430020B4F1FD0C88BFBCF5E06F4B
:105940003FF6AFAEB5EB030C04BFB6EB020C5FEA5B
:10595000500C50F1000041EB045170BD0EF0004EB0
:105960004EEA113114EB5C04C2BFD4EB0C0541EAE2
:10597000045170BD41F480114FF0000E013C90E6DF
:1059800045EA060E8DE60CEA135594EA0C0F08BFA3
:1059900095EA0C0F3FF43BAF94EA0C0F0AD150EAA2
:1059A00001347FF434AF95EA0C0F7FF425AF104635
:1059B00019462CE795EA0C0F06D152EA03353FF45D
:1059C000FDAE1046194622E750EA410618BF52EADA
:1059D00043067FF4C5AE50EA41047FF40DAF52EAAE
:1059E00043057FF4EBAE12E74FF0FF3C06E000BF4B
:1059F0004FF0010C02E000BF4FF0010C4DF804CD58
:105A00004FEA410C7FEA6C5C4FEA430C18BF7FEA17
:105A10006C5C1BD001B050EA410C0CBF52EA430C45
:105A200091EA030F02BF90EA020F0020704710F1C5
:105A3000000F91EA030F58BF994208BF90422CBF54
:105A4000D8176FEAE37040F0010070474FEA410C4D
:105A50007FEA6C5C02D150EA013C07D14FEA430C6B
:105A60007FEA6C5CD6D152EA033CD3D05DF8040BDC
:105A7000704700BF8446104662468C46194663460E
:105A800000E000BF01B5FFF7B7FF002848BF10F1E5
:105A9000000F01BD4DF808EDFFF7F4FF0CBF01202A
:105AA00000205DF808FB00BF4DF808EDFFF7EAFFA6
:105AB00034BF012000205DF808FB00BF4DF808ED61
:105AC000FFF7E0FF94BF012000205DF808FB00BF56
:105AD0004DF808EDFFF7CEFF94BF012000205DF8E0
