:020000040800F2
:100000000050002061360008213900082539000819
:10001000293900082D3900083139000881390008D4
:1000200081390008813900088139000881390008C8
:10003000813900088139000881390008613D0008D4
:10004000813900088139000881390008C935000864
:100050008139000881390008813900088139000898
:100060008139000881390008813900088139000888
:100070008139000881390008813900088139000878
:100080008139000881390008D93900088139000810
:100090008139000881390008813900088139000858
:1000A000094000082D400008514000088940000820
:1000B000DD4000084D410008BD41000881390008BD
:1000C0008139000881390008813900088139000828
:1000D000813900084143000895430008E9430008BE
:1000E00081390008113600088139000810B5054C27
:1000F000237833B9044B13B10448AFF300800123D4
:10010000237010BDA81100200000000078DB00085B
:1001100008B5064B1BB106480649AFF300800648F8
:10012000036813B1054B03B1984708BD00000000F8
:1001300078DB0008AC110020A811002000000000AE
:100140000148112103F094B9C4110020064B1A682C
:1001500001321A601A681D2A04D900221A60034B62
:1001600001221A70704700BFC8110020CC11002076
:1001700010B5094C0949204604F0F3FA2046012144
:10018000074A04F00DFB2046002104F0E1FA204666
:10019000BDE8104004F0C6BAA413002040420F008E
:1001A0004D01000810B5054C204604F0C3FA204666
:1001B0000021BDE8104004F0CBBA00BFA41300201A
:1001C00013B5026802AB03F8011D546A19460122F7
:1001D000A04702B010BD07B503680DF107019B6A87
:1001E0000122984701280CBF9DF807004FF0FF300F
:1001F00003B05DF804FB4FF0FF30704708B50369AA
:10020000186803689B69984708BD036810B5DB68E8
:100210000446984708B9207F10BD012010BD08B5DD
:1002200003681B6B9847003018BF012008BD10B54C
:100230000446283004F046FC04F11C0004F042FCA3
:1002400004F1100004F03EFC204610BDF0B585B06E
:100250000C460646194901A81746194D04F074FCCE
:1002600001A8102104F04CFC217901A804F00AFD3A
:10027000294601A804F0EAFC617901A804F002FD16
:10028000294601A804F0E2FCA17901A804F0FAFCD7
:10029000294601A804F0DAFCE17901A804F0F2FC97
:1002A000336801991B6A3A4630469847044601A8CC
:1002B00004F008FC204605B0F0BD00BFC5FA0008F8
:1002C0009EEF000810B5044620680368DB68984775
:1002D00010B904F017FFF7E7206803681B69984717
:1002E0002C28F1D1012010BD2DE9F04F054687B033
:1002F0008A46104640211E461446129F04F000FC18
:100300008F4BD3F800B0002004F0FCFE286803688F
:10031000DB689847002840F3E480286803681B697D
:100320009847011EF2DD2046C9B204F09EFC16B9C2
:10033000109BA3B910E0314603A804F005FC204649
:1003400003A904F022FD814603A804F0BBFBB9F128
:10035000000FEDD00120EFE0119B9BB910E0109948
:1003600003A804F0F1FB204603A904F00EFD81462A
:1003700003A804F0A7FBB9F1000FEDD00220DBE0E9
:10038000A7B910E0119903A804F0DEFB204603A9E9
:1003900004F0FBFC814603A804F094FBB9F1000FC4
:1003A000EED00320C8E0139B0BBB10E0394603A836
:1003B00004F0CAFB204603A904F0E7FC814603A829
:1003C00004F080FBB9F1000FEDD00420B4E05D49EA
:1003D00003A804F0B9FB204603A904F0D6FC81462B
:1003E00003A804F06FFBB9F1000F11D139E01399A4
:1003F00003A804F0A9FB204603A904F0C6FC81462B
:1004000003A804F05FFBB9F1000FE0D0052093E0F2
:10041000684629682C2204F02DFB684604F0E9FDAB
:100420000128814615D129680A2203A804F022FB7D
:1004300003A804F0DEFD804603A804F043FB204639
:10044000414904F0D6FB05EB88035B6883F81D90F7
:1004500003E02046694604F0F4FB684604F032FBF2
:1004600054E73A4903A804F06FFB204603A904F0BF
:100470008CFC804603A804F025FBB8F1000F3FF484
:1004800045AF334903A804F05FFBA26803A9083A0B
:10049000204604F0B6FC804608F1020803A804F0E8
:1004A00011FB42462C21204604F09DFC42460346A7
:1004B000214603A804F0C8FC03A804F09AFD804676
:1004C00003A804F0FFFAB8F1000F3FF41FAF05EBEB
:1004D00088035B68204683F81C901B4904F089FB65
:1004E00014E7174B1B68CBEB03035345FFF40BAF2B
:1004F000204604F054FDA368CBB12146684604F0C1
:1005000066FB1449144804F0CEF92021124804F087
:10051000C5F9694603A804F05AFB03A90E4804F084
:10052000DDF903A804F0CEFA684604F0CBFA2046C1
:10053000054904F05EFB0020C0B207B0BDE8F08FB3
:10054000F4130020CEED0008C5FA0008DBED00082A
:10055000C3FA0008E4ED00080C130020F0B589B0E0
:100560001C4607460E4605A80B49154604F0ECFA52
:1005700000940E9C314601940F9C05AA0294109C95
:100580002B4603943846FFF7AFFE044605A804F057
:1005900099FA204609B0F0BDC5FA0008F0B5044646
:1005A00085B00E46006821491F46154604F07BF9C8
:1005B00020681F4904F077F90A223946206804F0C0
:1005C0002EFA20682C2104F069F92068194904F0FA
:1005D0006AF92068184904F066F93146206804F089
:1005E00062F92068154904F05EF90A22294620685C
:1005F00004F0FEF91249206804F055F920680368F8
:100600009B699847002004F07DFD0E4B2046009327
:100610000023019302930C490C4A0D4BFFF79EFFF8
:10062000431E5842584105B0F0BD00BFF3ED00082D
:10063000F6ED000801EE000886F1000806EE00085D
:10064000C3FA000825EE0008F824010009EE0008AE
:1006500016EE000870B5044600200E46154604F05C
:1006600051FD0023C4F8A430C4F8A03020693146FD
:100670002A46237DFFF792FF003018BF0120207724
:1006800070BD7FB5089C0E460194099C15460093E9
:1006900002944FF47A7132462B46FFF75FFF04B0A5
:1006A00070BD08B500210F2004F016FD40F2DC50AB
:1006B00004F028FDBDE808400F20012104F00CBD26
:1006C00070B504460D4600680C49164604F0EBF878
:1006D0002946206804F0E7F831460A22206804F031
:1006E0009EF92068064904F0DEF8206803689B69DB
:1006F0009847BDE87040002004F004BDF3ED000809
:10070000C3FA000813B50446002004F0FBFC20697E
:10071000227D0749FFF7D4FF00232377009301933D
:1007200020690449044AFFF7ACFF02B010BD00BFC6
:1007300037EE0008B9ED0008D5F4000810B50446FE
:100740000948FFF762FD68B9E3785BB1E0700749DB
:10075000074804F0CDF80648064904F0C9F80248F5
:10076000FFF7D0FF10BD00BFD8110020C5FA000868
:100770000C13002042EE0008F0B50F4687B00025AC
:10078000044626493A46FFF79BFF0095019520460F
:100790002349244A2B46FFF774FF01281AD120462B
:1007A000FFF790FD2046FFF78DFD21680A2203A880
:1007B00004F060F903A804F01CFC064603A804F04A
:1007C00081F90095019520461749164A2B46FFF7F7
:1007D00058FFFEB904EB87033A46204613495E688A
:1007E000FFF76EFF124B002500931249124A134B7C
:1007F00001952046FFF745FF2B46074600950195DA
:1008000020460949074AFFF73CFF7B1E5F425F41D4
:1008100037772E46304607B0F0BD00BF81EE0008A6
:10082000D0ED0008D5F40008B9ED00088EEE000800
:10083000BCEE00089AEE0008A7EE0008B1EE000832
:100840007FB50546002405EB84035E6846B1737FDF
:1008500033B1002373772846E1B2FFF78DFFF082B2
:100860000134052CEFD128680368DB68984748B14C
:10087000002200920192029228460A211346FFF7B5
:100880006DFEF0E704B070BDD0F88020D0F8843061
:10089000D01A48BF8030704738B50446002004F0B5
:1008A00031FC237F04F120058BB12846FFF7ECFFD4
:1008B00068B90A4BA26919688A1AB2F5FA7F03D996
:1008C0001B6801226277A3612069FFF7B9FF284600
:1008D000FFF7DAFFE38A184438BD00BFF4130020A5
:1008E00038B504460D460068094903F0DCFF294687
:1008F000206803F0D8FF2068064903F0D4FF206881
:1009000003689B699847BDE83840002004F0FABBB3
:10091000F3ED0008C3FA00082DE9FF41134B05462B
:100920001F680E469846D8F800300024DB1BB342FF
:1009300017D228460E49FFF7D3FF00940194029482
:100940002846C8210B4A0C4BFFF708FE0446012C31
:100950004FF0640002D104F0D5FB02E004F0D2FBBA
:10096000E1E7204604B0BDE8F08100BFF4130020A9
:10097000C5FA0008B9ED0008D5F400081F4B2DE9B1
:10098000F3411F6805460E469846D8F80030DB1B39
:10099000B3422CD2002428461949FFF7A1FF009446
:1009A000019428461749184A2346FFF76AFE012892
:1009B00004D04FF47A7004F0A5FBE6E7134B14491A
:1009C0008DE81800134A144B2846FFF75AFE00948E
:1009D00006460194284611490B4A2346FFF751FE6B
:1009E000012E06D003D3032E01D8022002E00020FE
:1009F00000E0304602B0BDE8F08100BFF4130020F3
:100A0000C7EE0008CEEE0008D5F40008EDEE0008B1
:100A1000D7EE0008DDEE0008E5EE0008B9ED0008AD
:100A20007FB542F210710546FFF776FF58B30024F8
:100A300028462149FFF754FF009401940294284668
:100A400042F210711D4A1E4BFFF788FD01281AD192
:100A500028461C49FFF744FF00940194029428465D
:100A600042F21071154A164BFFF778FD01280AD1A2
:100A700040F6B83004F046FB284642F21071FFF70A
:100A80004BFF064608B9002612E028460E49FFF73C
:100A900027FF0094019428460849094A2346FFF796
:100AA000F0FD0128EFD1284642F21071FFF766FFF2
:100AB000304604B070BD00BFFAEE0008B9ED000882
:100AC000D5F4000802EF00080CEF0008F7B5154F49
:100AD000154E002405461549FFF702FF324623460E
:100AE0003946009401942846FFF7CBFD284610496B
:100AF000FFF7F6FE32462346394600940194284615
:100B0000FFF7BFFD28460B49FFF7EAFE009401946A
:100B10002846394632462346FFF7B3FD012003B08D
:100B2000F0BD00BFB9ED0008D5F4000812EF0008D1
:100B30001DEF00082DEF00081FB54FF416510446B5
:100B40001B4803F0BBFD1B48FFF7ABFD40F6B83078
:100B500004F0D8FA1849194803F0D4FE1848FFF7F2
:100B60005FFF17481749FFF7BBFE0023009301936F
:100B7000029313484FF47A71134A144BFFF7EEFCBB
:100B8000012803D00D48124903F0B2FE4FF4FA6079
:100B900004F0B8FA0A48FFF799FF4FF47A7004F0AE
:100BA000B1FA0023A37063702370E37004B010BD2A
:100BB0003C130020981200203CEF00080C1300208A
:100BC0008012002052EF0008B9ED0008D5F40008AB
:100BD0005DEF000870B5174986B000240546FFF7A1
:100BE0007FFE0094019428461349144A2346FFF7D8
:100BF00048FD01281BD12846FFF764FB2846FFF774
:100C000061FB29682C2203A803F034FF03A804F039
:100C1000F0F986B203A803F055FF0094019428462A
:100C20000749064A2346FFF72CFD304600E02046E0
:100C300006B070BD6CEF000871EF0008D5F4000835
:100C4000B9ED000808B50248FFF7C4FF08BD00BFB2
:100C50008012002070B5164986B000240546FFF7C3
:100C60003FFE0094019428461249134A2346FFF799
:100C700008FD012818BF042017D12846FFF722FBE2
:100C800029680A2203A803F0F5FE03A804F0B1F9CD
:100C9000064603A803F016FF00940194284607496E
:100CA000054A2346FFF7EDFCF0B206B070BD00BF69
:100CB00079EF000880EF0008D5F40008B9ED0008CE
:100CC0002DE9F0414478054674BB1949194803F0F1
:100CD0000FFE1848184903F0EBFD184B1F689846A3
:100CE000D8F800204EF65F23D21B9A420BD8144846
:100CF000FFF7B0FF00F0FB06012E0FD04FF47A7023
:100D000004F000FAECE70F490A4803F0F1FD42F263
:100D1000107004F0F7F900236B7005E06E70054861
:100D2000094903F0E5FD34462046BDE8F08100BFE7
:100D3000C5FA00080C13002089EF0008F413002006
:100D400080120020A0EF0008BDEF00081FB50A497F
:100D50000446FFF7C5FD002300930193029320464C
:100D60004EF66021054A064BFFF7F8FB431E58423A
:100D7000584104B010BD00BFEAEF0008B9ED00080B
:100D8000D5F4000830B5304985B000240546FFF79A
:100D9000A7FD0094019428462C492D4A2346FFF7CD
:100DA00070FC012801D001204BE028462949FFF7BB
:100DB00097FD274A23462849009401942846FFF7C7
:100DC00060FC28462549FFF78BFD009401940294AE
:100DD00028462349234A1E4BFFF7C0FB012802D0B7
:100DE000214822492AE01C4A194B4FF47A71009499
:100DF000019402942846FFF7B1FB28461C49FFF7EF
:100E00006FFD0094019428461A49114A2346FFF7C2
:100E100038FC012802D0144817490FE0284617492A
:100E2000FFF75EFD0094019428461549084A2346C1
:100E3000FFF727FC0128B6D00B48124903F058FDF4
:100E4000204605B030BD00BF79EF000880EF0008F4
:100E5000D5F40008F3EF0008B9ED00080FF0000822
:100E6000084C01001AF000080C13002024F00008C0
:100E700044F0000851F0000862F000087BF0000820
:100E800088F0000899F0000838B543780446ABB103
:100E900083789BB90A490B4803F02AFD0A48FFF7FB
:100EA00071FF054607482DB1084903F021FD0123D4
:100EB000A37038BD064903F01BFDA57038BD00BF07
:100EC000C5FA00080C13002080120020C2F00008B0
:100ED000FFF0000870B5144986B000240546FFF7FE
:100EE000FFFC0094019428461049114A2346FFF75D
:100EF000C8FB012818BF632014D129682C2203A83D
:100F000003F0B8FD03A804F074F8064603A803F044
:100F1000D9FD0094019428460649054A2346FFF767
:100F2000B0FB304606B070BD3EF1000843F100084A
:100F3000D5F40008B9ED000870B5002486B00D4660
:100F4000064608461549FFF7CBFC00940194284655
:100F50001349144A2346FFF794FB012804D0304676
:100F6000114903F0F1FD16E003A829680A2203F0F5
:100F700081FD0E490B4A2346009401942846FFF751
:100F800080FB03A804F00BF8304603A903F08BFDA7
:100F900003A803F097FD304606B070BD4BF1000882
:100FA000C3FA0008D5F40008C5FA0008B9ED000836
:100FB000F8B504460D4600680E4916461F4603F074
:100FC00072FC2946206803F06EFC3146206803F06D
:100FD0006AFC3946206803F061FC2068064903F08A
:100FE00062FC206803689B699847BDE8F8400020D0
:100FF00004F088B8F3ED0008C3FA00082DE9F043C7
:1010000004468FB00025904689461F46FFF79EFE96
:1010100020469B49FFF764FC9A499B4A2B46009562
:1010200001952046FFF72DFB204698494A4622238A
:10103000FFF7BEFF0095019520469249924A2B4644
:10104000FFF71FFBB8F1000F0DD020469049424634
:101050002223FFF7ADFF00950195204689498A4A72
:101060002B46FFF70EFB6FB120468A493A462223F2
:10107000FFF79EFF00230093019320468149824A97
:10108000FFF7FFFA804E0025204683494A46222377
:10109000FFF78EFF32462B467A4900950195204690
:1010A000FFF7EFFA20467D49FFF71AFC754A3346F1
:1010B0004EF660210095019502952046FFF74EFA05
:1010C00020467749FFF70CFC6E4A33467549009578
:1010D000019502952046FFF741FA20467249FFF735
:1010E000FFFB009501950295204647F23051654A75
:1010F0003346FFF733FA012801D00025BCE0204633
:101100006A49FFF7EDFB00950195029520464EF6E2
:1011100060215C4A3346FFF721FA0128EDD12046D1
:101120006349FFF7DDFB009501952046554932469E
:101130002B46FFF7A6FA0128DFD120465D49FFF7CD
:10114000CFFB0095019520464E4932462B46FFF7CE
:1011500098FA0128D1D120465749FFF7C1FB0095E5
:1011600001952046474932462B46FFF78AFA012867
:10117000C3D15249206803F096FB5149206803F01F
:1011800092FB4946206803F08EFB4E49206803F02D
:101190008AFB4146206803F086FB4A49206803F039
:1011A00082FB3946206803F07EFB4749206803F044
:1011B0007AFB4649206803F076FB206803689B6948
:1011C0009847284603F09EFF00950195029520461A
:1011D0004EF660212B4A3346FFF7C0F901288CD127
:1011E00020463B49FFF77CFB009501950295204680
:1011F0004EF66021234A3346FFF7B0F901287FF409
:101200007CAF20463349FFF76BFB334905A803F059
:101210009BFC0096019502950395204642F21071C1
:1012200005AA184BFFF760F8012813D008A8274932
:1012300003F08AFC0BA8284903F086FC05A808A93E
:101240000BAA03F027FE0BA803F03CFC08A803F050
:1012500039FC0EE020462149FFF742FB2B46009562
:101260000195204607493246FFF70BFA431E5D42BF
:101270005D4105A803F026FC28460FB0BDE8F083C9
:10128000F3EF0008B9ED0008D5F4000850F10008AC
:1012900063F1000877F100088AF100089CF100086A
:1012A000A7F10008084C01000FF00008B2F1000897
:1012B000BBF10008C5F10008D1F10008F3ED00080A
:1012C000DDF1000886F10008F9F50008C3FA00080E
:1012D000E5F10008ECF10008C5FA0008F6F1000895
:1012E00038B50478054634BB43781BB3134914481A
:1012F00003F0FEFA1349124803F0DAFA12491048D3
:1013000003F0D1FA11481049114A124BFFF776FE4B
:1013100004460B4844B9104903F0EAFA42F210704F
:1013200003F0F0FE2C7006E00C4903F0E1FA012313
:101330002B7000E00124204638BD00BFC5FA00082C
:101340000C13002013F20008DDF4000880120020C6
:10135000B8ED0008D4F4000822F200083FF20008BB
:101360002DE9F04104460E46006812491F4690469A
:10137000069D03F098FA3146206803F094FA41463E
:101380000A22206803F04BFB3946206803F086FAF6
:1013900029460A22206803F04BFB2068064903F027
:1013A00082FA206803689B699847BDE8F0410020F5
:1013B00003F0A8BEF3ED0008C3FA0008F0B587B04B
:1013C0000025044600920F4616461C491A462C2357
:1013D000FFF7C6FF0095019520461949194A2B468B
:1013E000FFF74FF9012802D04FF0FF3422E02068C8
:1013F0003946036832469B689847206803689B69B2
:1014000098470095019520460F490E4A2B46FFF755
:1014100038F90128E8D12046FEF754FF216803A8D7
:101420000A2203F027FB03A803F0E3FD044603A808
:1014300003F048FB204607B0F0BD00BF5FF2000894
:10144000FDF00008D5F4000869F2000870B5044604
:1014500000200E46154603F055FE2069FFF7F0F90F
:10146000206931462A46237DFFF7A8FF70BD0000A2
:1014700070B58D680E460135284604F08BFF044692
:101480000023304621462A4603F095FC21462A4691
:101490000348FFF7DBFF204604F084FF012070BD06
:1014A000D81100202DE9F04186B0002504460091B6
:1014B0002C232F491646FFF753FF00950195204630
:1014C0002C492D4A2B46FFF7DCF801284BD120464A
:1014D000FEF7F8FE2046FEF7F5FE21682C2203A851
:1014E00003F0C8FA03A803F084FD074603A803F03D
:1014F000E9FA04EB860603A821680A22D6F80480DC
:1015000003F0B8FA03A803F074FDA8F8160003A8C6
:1015100003F0D8FABD421ED020680368DB68984704
:1015200010B903F0EFFDF7E7206803681B699847DF
:1015300073685FFA80FED3F8A010D3F8A4004A1CA9
:1015400002F07F02824204D0194481F820E0C3F8FF
:10155000A0200135DEE700230093019320460749D0
:10156000054AFFF78EF8284606B0BDE8F08100BFB7
:1015700078F20008D0ED0008D5F40008B9ED0008B5
:101580002DE9F74F044600208946019203F0BAFD89
:101590002069FFF755F90025019B9D4245D2019B2B
:1015A00004F1200B5846C5EB0308FFF76DF94045E1
:1015B00038BF8046B8F1000F24D04746CA46584687
:1015C000FFF762F910B9C1444544E5E7D4F8A43007
:1015D000C3F18006B742B8BF3E468642A8BF064662
:1015E0000BEB030150463246009305F0B3F9009B24
:1015F000BF1B03EB060C0CF07F02C4F8A420B2441E
:10160000E1D0DCE72069FFF71BF9E38A6BB1D4F87E
:10161000A420D4F8A0302069D11A0029D8BF803185
:101620000139227DFFF73EFFB6E7284603B0BDE84B
:10163000F08F000073B50024254D264E2346224628
:1016400021460094244803F0E9F8314605F11000E2
:101650002C706C70AC70EC706C60AC60EC6003F083
:1016600073FA314605F11C0003F06EFA314605F1BC
:10167000280005F1340603F067FA214630461022AF
:1016800005F044FA154A05F1480392E80300144AAC
:1016900083E80300284613496E6403F055FE124A9E
:1016A000124B4FF47A711360114B996011495C60D1
:1016B00019600121C3F8A440C3F8A0401A6119754C
:1016C000DC829C611C775C77936002B070BD00BFC8
:1016D00098120020C5FA0008D0110020B0ED0008D3
:1016E000080000202F020008801200203C13002078
:1016F000D811002078ED00082DE9F043C5788FB0AF
:101700000446002D40F0A7816B496C4803F0F0F8C7
:101710006B4908A803F018FA08A90BA803F057FAB8
:1017200068490BA803F0EEFA0146644803F0AEF8EE
:101730000BA803F0C7F908A803F0C4F9624861498F
:1017400042F22832FEF786FFB0B960495B4803F0E9
:10175000CFF842F2107003F0D5FC6368E5700133F6
:101760000A2B01D8636076E1656065702570584882
:10177000FFF7ECFAA5706EE15649504803F0B8F84F
:10178000534E0123E370544965604C4803F0B0F8B0
:101790003046FFF79FFB5149E06008A803F0D4F9F9
:1017A00008A90BA803F013FAE1680BA803F0C6FA26
:1017B0000146424803F092F80BA803F083F908A809
:1017C00003F080F904F110080BA83146FFF7B4FBD1
:1017D0000BA9404603F005FA0BA803F073F9404942
:1017E0000BA803F0B1F941460BA803F07EFA0146BD
:1017F000324803F073F80BA803F064F93046394916
:10180000FFF76EF80095019530463749374A2B4669
:10181000FEF737FF012804F11C0704D008A8264969
:1018200003F092F916E00BA831680A2203F022F9BE
:101830002F492E4A2B46009501953046FEF721FF91
:101840000BA803F0ACFB08A80BA903F02CF90BA81C
:1018500003F038F908A9384603F0C3F908A803F0E3
:1018600031F924490BA803F06FF939460BA803F0AE
:101870003CFA0146114803F031F80BA803F022F9B5
:10188000A37804F12806002B6CD0DFF844900025E3
:1018900048461949FFF724F80095019502954846F6
:1018A0001649174A114BFEF759FE01282AD008A8FD
:1018B000014903F049F93DE0C5FA00080C13002086
:1018C00085F20008BEED0008D81100209BF2000848
:1018D00080120020BCF20008DCF2000846F100088B
:1018E000F1F20008F7F20008FEF20008D5F4000853
:1018F000B9ED000808F3000811F30008084C0100D6
:101900001BF300080BA8D9F800100A2203F0B2F864
:101910005349544A2B46009501954846FEF7B1FEBF
:101920000BA803F03CFB08A80BA903F0BCF80BA81C
:1019300003F0C8F808A9304603F053F908A803F0EB
:10194000C1F849490BA803F0FFF831460BA803F092
:10195000CCF90146454802F0C1FF0BA803F0B2F8EC
:101960000023A3704249414802F0C2FF05A800F0DD
:101970004DFC404A0BA805A900F05AFDE1680BA8F0
:1019800000F03AFD0BA800F017FC3B4A0BA805A994
:1019900000F04EFD41460BA800F046FD0BA800F0FC
:1019A0000BFC364A0BA805A900F042FD39460BA8EE
:1019B00000F03AFD0BA800F0FFFB314A0BA805A987
:1019C00000F036FD31460BA800F02EFD0BA800F00C
:1019D000F3FB2C49254802F066FF0BA805A900F08F
:1019E0002FFC0BA9214802F097FF0BA800F0E4FBA5
:1019F00005AA08A8244900F0C0FB24490BA803F05D
:101A0000A3F808A90BA803F070F90146174802F0E3
:101A100065FF0BA803F056F808A90BA803F0D7F848
:101A20000BA92046FFF724FD0BA803F04BF8404616
:101A300003F0B5FA384603F0B2FA304603F0AFFAD5
:101A400013490A4802F054FF08A803F03BF805A820
:101A500000F0B2FB012528460FB0BDE8F08300BFBF
:101A6000B9ED0008D5F4000824F300080C13002099
:101A70002DF300083FF1000835F30008F9F20008E3
:101A80003AF300083EF30008F012002051F300087A
:101A90006DF30008F0B5044691B00D4608465A496A
:101AA00003F060F9002840F015822A4601A8574942
:101AB00000F05CFB0DA8554901AA00F065FB0DA8DC
:101AC000534903F04FF905460DA802F0FBFF25B17D
:101AD0005049514802F00CFFF9E150490DA803F0BC
:101AE00033F801AA0AA8494900F04EFB0AA90DA83B
:101AF00003F0FBF80146484802F0F0FE0AA802F0A5
:101B0000E1FF0DA802F0DEFF01A8454900F0C8FB87
:101B100080B14449A560404802F0C5FE0DA801A966
:101B20003F4A00F085FC3C480DA902F0F5FE0DA8E7
:101B300000F042FB01A83C4900F0B2FB002800F095
:101B400016813A49344802F0AEFE374A0DA801A981
:101B500000F06EFC0DA9304802F0DEFE0DA800F08A
:101B60002BFB01A9304A0DA800F062FC0DA800F083
:101B70005EFB60640DA800F01FFB0025636C5B5DDD
:101B8000312B03D12A48E9B2002204E0302B05D1E1
:101B90002748E9B2012200F095FA20E025491E48C5
:101BA00002F0A6FE24490AA802F0CEFF0AA90DA859
:101BB00003F00DF829460DA803F0CAF81F4903F0F9
:101BC000A1F8636C595D03F0AFF80146124802F0CA
:101BD00085FE0DA802F076FF0AA802F073FF01351A
:101BE000022DCBD104F1340738463021102204F005
:101BF0008DFF2646002596F8480003F057FAF8B9FD
:101C00006319312224E000BFC5FA0008F012002059
:101C10008CF3000896F300080C130020CEF30008A4
:101C2000E7F30008ECF3000801F4000809F40008E9
:101C3000EC12002021F4000828F4000832F4000817
:101C400096F8480003F032FA012803D163193022D4
:101C500083F834200135022D06F10406CBD104A807
:101C600000F0D4FA04F110050DA89B49FFF764F9C0
:101C70000DA9284602F0B5FF0DA802F023FF974AF0
:101C80000DA804A900F0D4FB29460DA800F0CCFB58
:101C90000DA800F091FA92490AA802F055FF0AA98E
:101CA0000DA802F094FF29460DA803F01EF8014686
:101CB0008C4802F013FE0DA802F004FF0AA802F0FF
:101CC00001FF394607A802F03FFF87490AA802F042
:101CD0003BFF0AA90DA802F07AFF07A90DA803F09F
:101CE00004F801467F4802F0F9FD0DA802F0EAFE73
:101CF0000AA802F0E7FE7D4A0DA804A900F098FBAF
:101D000007A90DA800F090FB0DA800F055FA78493E
:101D1000744802F0C8FD0DA804A900F091FA0DA9BD
:101D2000704802F0F9FD0DA800F046FA04AA0AA8CE
:101D3000704900F022FA70496A4802F0B4FD0AA91D
:101D4000684802F0CBFD0AA90DA802F040FF0DA9DA
:101D50002046FFF78DFB0DA802F0B4FE0AA802F0A2
:101D6000B1FE07A802F0AEFE04A800F025FA01A813
:101D7000624900F095FA002800F0A98001A95F4AA5
:101D80000DA800F055FB0DA800F048FA05460DA877
:101D900000F012FA01A85A4900F082FA002800F077
:101DA000968001A9564A0DA800F042FB0DA800F04C
:101DB00035FA06460DA800F0FFF9012E11D1022DCB
:101DC0000BD0FF2D04D0012D20D14E4800211AE068
:101DD00000214C480A4600F075F94A483146002275
:101DE00012E09EB9022D0CD0FF2D05D0012D0DD192
:101DF000444831462A4607E042483146012200F075
:101E000061F9404801210A4600F05CF907A800F09A
:101E1000FDF904F110070DA82F49FFF78DF80DA962
:101E2000384602F0DEFE0DA802F04CFE2B4A0DA84B
:101E300007A900F0FDFA39460DA800F0F5FA0DA843
:101E400000F0BAF92D4A0DA807A900F0F1FA2946C9
:101E50000DA800F0D1FA0DA800F0AEF9284A0DA89F
:101E600007A900F0E5FA31460DA800F0C5FA0DA863
:101E700000F0A2F91E491B4802F015FD0DA807A9A4
:101E800000F0DEF90DA9174802F046FD0DA800F09C
:101E900093F907AA0AA8174900F06FF916491148E3
:101EA00002F001FD0AA90F4802F018FD0AA90DA8C9
:101EB00002F08DFE0DA92046FFF7DAFA0DA802F018
:101EC00001FE0AA802F0FEFD07A800F075F901A8BE
:101ED00000F072F911B0F0BD8012002035F3000857
:101EE000F1F200080C13002035F4000801F400089A
:101EF0003EF40008F012002051F3000852F40008EC
:101F000058F40008EC12002030B5204B87B01C6854
:101F10001D461F48FEF779F9002834D02B681B1B9B
:101F2000B3F5FA6F2FD21A48FEF7B6FC0028F0D0AE
:101F30000A226846164902F09DFD1649164802F02D
:101F4000D7FC1649144802F0D3FC03A8144902F048
:101F5000FBFD694603A802F0C8FE01460E4802F0E8
:101F6000BDFC03A802F0AEFD694603A802F02FFEF7
:101F700003A90C48FFF78EFD03A802F0A3FD6846F5
:101F800002F0A0FDC5E707B030BD00BFF41300208C
:101F9000D8110020C5FA00080C1300205CF40008DA
:101FA00083F40008981200201E4B30B51A681E4CAE
:101FB00022F0E06242F0007287B01A60204600F022
:101FC0006DF82046194C1A4D00F0A8F84FF4165140
:101FD000204602F073FB2846FEF7AEFDFEF7C8F878
:101FE000FEF7E0F82846FEF72DFE124D1249286054
:101FF000684602F0A9FD694603A802F0E8FD2968D9
:1020000003A802F0A5FE0D4902F07CFE0146204621
:1020100002F064FC03A802F055FD684602F052FD90
:1020200007B030BD04000140EC1200200C1300206A
:1020300098120020E8120020E3F40008F4F40008ED
:1020400008B51148FEF73CFE10B91048104905E0EC
:102050000D48FFF745F928B90C480E49BDE808407E
:1020600002F046BC0848FEF70FFF0748FFF744FBA5
:1020700010B906480849F1E70348FFF745FFBDE8F6
:1020800008400148FEF75ABB981200200C130020AC
:10209000F7F4000817F5000837F5000808B5032025
:1020A000002102F0B5FF0420002102F0B1FF0F2053
:1020B000002102F0ADFFBDE808400520002102F03C
:1020C000A7BF000010B5144611B101290AD013E0D2
:1020D0000320114603F000F80A480CB10A490DE04C
:1020E0000A490BE00420114602F0F6FF05480CB146
:1020F000074903E0074901E002480749BDE81040ED
:1021000002F0F6BB0C1300205BF5000866F5000832
:1021100070F500087BF5000885F5000810B50A4C3D
:102120000520012102F0D8FF204600210122FFF7FF
:10213000C9FF012120460A46FFF7C4FFBDE8104051
:102140000F20012102F0C8BFEC120020014B0360F8
:10215000704700BFA8F5000810B5034B04460360A4
:1021600002F054FF204610BDA8F5000810B5114636
:10217000044600F0A5F8204610BD10B511460446EF
:1021800000F0ACF8204610BD10B51146044600F032
:10219000C3F8204610BD00000348044B0449054A1B
:1021A000036003F0D1B800BFF0120020A8F50008CA
:1021B0004D2100080800002038B5064B0446036096
:1021C000406820B1A56815B900F0D6FD65602046CD
:1021D00038BD00BFB8F5000810B50446FFF7ECFFA6
:1021E000204602F013FF204610BD406838B50D466A
:1021F00058B100F0D9FF04462146284602F053FBAF
:102200000546204601F0E0F8284638BD024A026043
:102210000022426082607047B8F5000810B504469D
:10222000406801F0B4F808B16368586910BD10B592
:102230000446406801F0B2F808B16368186910BD3F
:10224000B0B5044600AF48680D4601F0B5F820B9B6
:10225000124B60602360A0601CE0686800F0A7FF7C
:1022600083000A3323F00703ADEB030D6B680146CF
:102270009A68684600238B4205DA156A40F82350B5
:1022800012680133F7E701F045F8044B6060236002
:102290000023A3602046BD46B0BD00BFB8F50008CE
:1022A00038B5044640680D4601F086F830B16068E4
:1022B000294600F084FF003018BF012038BD00001F
:1022C00010B50446086800F06BFF034B60602360A4
:1022D0000023A360204610BDB8F5000830B549685A
:1022E00085B0044611B902F02FFC11E0084600F059
:1022F0005BFF0546294601A802F026FC284601F0AE
:1023000063F8204601A902F0CEFB01A802F0DAFB37
:10231000204605B030BD000038B54D680446002D9C
:1023200031D0284601F01FF800282CD1284601F0B2
:1023300021F810B12046174927E0284601F021F87E
:1023400010B12046144920E0284601F020F810B1D1
:102350002046124919E0284601F020F810B1204625
:102360000F4912E0284601F020F810B120460D492F
:102370000BE0284601F020F810B120460A4904E09D
:1023800020460A4901E00A49204602F0DDFB2046CA
:1023900038BD00BFC8F50008D0F50008D5F5000825
:1023A000DCF50008E3F50008E9F50008F0F50008A1
:1023B0008CF3000838B5456804464160DDB180689B
:1023C000A0B100F0F9FF30B1A068296A6268BDE8E9
:1023D000384001F027B8A06800F0E7FF58B1A068C6
:1023E00029466268BDE8384000F0ECBE2846BDE8EA
:1023F000384000F0C1BC38BD10B50446084603F0B3
:10240000FBF800F021FF01462046BDE81040FFF731
:10241000D1BF10B50446084600F04AFF01462046E9
:10242000BDE81040FFF7C6BF0968FFF7F2BF000024
:1024300070B5054648680C46164600F0BDFF28B941
:1024400000F05CFF01462046FFF7B4FF60683146AC
:1024500000F0B5FE18B96068314600F0E1FE63682F
:10246000024A68602A60AB60284670BDB8F5000873
:102470000448054B05490360054A00234360836017
:1024800002F062BFF4120020B8F50008B92100087C
:102490000800002010B500221346815CA1F1300431
:1024A000092C01D8303B0AE0A1F14104052C01D8E8
:1024B000373B04E0A1F16104052C0AD8573B032AFD
:1024C0000B4402F1010218BF1B01042AE5D1184692
:1024D00010BD002010BD2DE9F0470B688A688146C9
:1024E000551C9E189A5C8846222A1D4440F0CA80DA
:1024F0004C682F460022F91AA14280F0C380397837
:10250000222909D05C2905D10137F91AA14280F0AE
:10251000B98001320137EEE7C2F10102B81BD8F8E9
:102520001030104498478246002800F0AB800446E3
:10253000BD4280F08B802B785C2B03D0237001355B
:102540000134F5E77A1B002A40F390806B78662B04
:1025500019D00CD82F2B17D002D8222B14D085E0FD
:102560005C2B11D0622B40F0818008230CE0722B91
:102570000ED003D86E2B79D10A2305E0742B09D035
:10258000752B09D072E00C232370013402235BE029
:102590000D23F9E70923F7E7052A67DDA81CFFF7F4
:1025A00079FFA0F55C43B3F5806F06465ED3A0F5D6
:1025B0005843B3F5806F1CD2AB1DFB1A052B55DDBC
:1025C000AB795C2B52D1EB79752B4FD105F108001B
:1025D000FFF760FFA0F55C43B3F5806F46D2C0F310
:1025E0000900C6F3090640EA862606F580360C2364
:1025F00006E07F284FF006030BD9B0F5006F0BD330
:10260000B6F5803F0BD3B6F5881F2FD2F0210422F8
:1026100007E00021012204E0C021022201E0E021C4
:102620000322501EC0B240B106F03F0C6CF07F0C8C
:1026300004F800C0B6090138F4E7012A14BF0E43BC
:1026400006F07F06267014441D4471E700232370B2
:102650001023C9F80C30D8F80030C9F810A0FB1AC4
:102660000133C8F808300120BDE8F087D8F81430ED
:1026700050469847D8F80030ED1AC8F808500020A6
:10268000BDE8F087002DF5D1F9E710B590B10268EB
:102690007AB1416883688B4202D38B4206D010BD69
:1026A000D45C202CF9D801338360F3E7013B8360CD
:1026B00010BD104610BD61B160B183680BB9816077
:1026C00005E01A680AB11346FBE719604B60012068
:1026D00070470846704738B5044638B1006828B1DD
:1026E000A568284404F0A6FE2844A06038BD70B553
:1026F000044600283ED0006800283DD0636813B12E
:10270000A2689A4237D2002935DBA268561C0E44D3
:102710009E4201D8104470BD2369002B2BD1B6F125
:10272000804F06D3002EA8BF6FF0004602DA18468D
:1027300070BD7600236A23B1314698470546A0B99B
:1027400004E0A36930469847054630B92068E3693C
:10275000984765602560284670BDA26821680132EF
:1027600004F0F8F8E36920689847A06884E86000FE
:10277000284470BD70BD002070BD00002DE9F843F5
:102780000746084611B90020BDE8F88317B13A465C
:1027900000250DE00321FFF7AAFF0028F3D03849F8
:1027A00004F0EAFD68E00D2B0DD80C2B06D30135A3
:1027B000904612F8013B002BF5D10CE0A3F1080183
:1027C000022904D8F3E7222BF1D05C2BEFD01F2B8A
:1027D00098BF0535ECE7C7EB0808A84408F10301EA
:1027E000FFF785FF06460028CDD04FF022090130C3
:1027F00086F8009045B946443946424604F0AAF8A6
:1028000086F80190B57037E0044617F8013B7BB3BA
:102810001F2B06D9222B04D05C2B02D0237020461C
:1028200024E05C23237017F8012C601C0C2A12D0C2
:1028300007D8092A13D00A2A0FD0082A12D16223F6
:102840000EE0222A05D05C2A03D00D2A0AD1722379
:1028500006E062700AE0662302E06E2300E0742363
:10286000637003E0074904F099FB601D441CCCE74A
:10287000464422227270B3700120BDE8F88300BF85
:10288000F8F50008FBF500082DE9F8430D4600288F
:102890004CD000293FD084685AB9254B1E680EE001
:1028A000216A00293DD0284604F048FC002838D091
:1028B0002468002CF4D131E0206A18B92468002C77
:1028C000FAD12BE085422CD000216B5CF21892F8F3
:1028D00001C0425C0CF0030CB7187F78BCF1010F0B
:1028E00007F003070CBF03F120099946012F0CBF25
:1028F00002F120089046C14503D10131002BE4D1FB
:102900000FE0BCF1010F08BF2033012F08BF2032B8
:102910009342D3D105E00846BDE8F8832046BDE8E0
:10292000F883236A002B14BF20460020BDE8F883FB
:102930000409002010B5034628209847044618B122
:102940000021282204F0E2F8204610BD2DE9F041D4
:102950000E468AB00546002800F08081002900F06C
:102960007D81047B082C39D007DC022C2BD0042C71
:1029700015D0012C40F072811AE0202C00F08B80E1
:1029800007DC102C40F06A810069FFF7F7FE04466F
:1029900065E1402C00F0C380802C69D05EE10846E0
:1029A0000521FFF7A4FE002800F05881A04912E09D
:1029B00008460621FFF79BFE002800F04F819D4945
:1029C00004F0DAFC4BE108460521FFF790FE0028F1
:1029D00000F04481984904F0CFFC3DE1D0E9064580
:1029E000002200232046294602F06CFE002200232C
:1029F00003F0D0F803AF30B938468D4904F0BCFC81
:102A00004FF004081FE08D4922462B46384604F05B
:102A1000C5FA8B4980466A46384604F0E5FA012833
:102A200006D1DDE9000122462B4603F0B3F830B9A8
:102A30003846844922462B4604F0B0FA8046B8F165
:102A4000190F00F20B81304608F10101FFF74FFE2C
:102A5000002800F003810023434503D0FA5CC254F0
:102A60000133F9E70022C254B2681344B360F3E0C3
:102A70000069002800F0F28004F0DCFC441C2146D0
:102A80003046FFF734FE002800F0E880296922462E
:102A900003F060FFE0E0846808460121FFF727FEAD
:102AA000002800F0DB805B230370B3680133B36060
:102AB000F3680133F3603CB320463146FFF746FF2D
:102AC000002800F0CB803046FFF705FE2368CBB12D
:102AD00073693046002B0CBF01250225691CFFF7E6
:102AE00006FE002800F0BA802C23037073690BB92E
:102AF000431C02E02022831C427000221A70B3683B
:102B00001D44B5602468D6E730460221FFF7EFFD8B
:102B1000002800F0A3805D230370447099E04B69A6
:102B20008468002B0CBF012502250846691CFFF7AD
:102B3000DEFD002800F092807B230370F3680133F0
:102B4000F36073690BB10A234370B3681D44B56029
:102B50007369002C56D083B13046F168FFF7C7FD8A
:102B600000287BD00023F268934203D20922C2548A
:102B70000133F8E7B3681A44B260206A3146FFF7C0
:102B8000FDFD00286AD03046FFF7A5FD7369304689
:102B9000002B0CBF012502252946FFF7A8FD0028C0
:102BA0005CD03A23037073690BB109234370B36897
:102BB00020461D44B5603146FFF7C8FE00284DD0C1
:102BC0003046FFF788FD75692368003518BF012579
:102BD000002B18BF01353046691CFFF788FD00281F
:102BE0003CD0236813B12C2303700130736913B1F7
:102BF0000A230370013000230370B36824681D4466
:102C0000B560A5E713B1F168013100E0022130465B
:102C1000FFF76DFD10B37369BBB10346F268191A73
:102C2000013A914210D2092203F8012BF6E700BFC6
:102C3000D0F5000801F6000807F600080CF60008B9
:102C400013F6000817F6000818467D2303700023CA
:102C50004370F368013BF360012400E00024204648
:102C60000AB0BDE8F08100BF70B5064668B104F057
:102C7000E1FB074B451C1B6828469847044628B1D2
:102C800031462A4603F066FE00E070BD204670BD66
:102C90000C000020F8B514460646F8B1F1B1EAB1CF
:102CA00023B1D7680D4647F4007707E00846FFF7E1
:102CB000DBFF054690B1E76827F40077E3689B05E2
:102CC00004D4206A10B1064B5B6898472562E76020
:102CD00030462146BDE8F840FFF7EDBC0020F8BDC6
:102CE0000C000020F0B5234C8BB00D4624220021AF
:102CF000064601A803F00AFF23684FF48070984746
:102D00004FF48072034606950AAD01900292274661
:102D100094E8070005E9070023B3304601A9FFF74F
:102D200015FEF8B101A8FFF7D6FCA568039925B1F7
:102D300001980131A847D0B914E02368481C98478E
:102D4000064678B1039A029B01329A4228BF1A467E
:102D5000019903F0FFFD039BF554019863689847C0
:102D6000304604E0019808B17B68984700200BB01A
:102D7000F0BD00BF0C00002070B50446E4B1E3686C
:102D80002668DA0503D4A06808B1FFF7F5FFE36809
:102D90000A4D13F4807F03D1206908B16B6898470E
:102DA000E3689B0503D4206A08B16B689847204606
:102DB0006B6898473446E1E770BD00BF0C00002007
:102DC0002DE9F047074692B00E46002900F06E81CB
:102DD0000D68002D00F06C818C68D1F8048004F13E
:102DE0000409C1450AD82819A349042204F052FB5A
:102DF00020B90423FB60C6F808907DE004F1050AC1
:102E0000C2450AD828199D49052204F043FB20B980
:102E10000120F860C6F808A04DE1C1450CD828197A
:102E20009749042204F036FB30B902230120FB60ED
:102E30007861C6F808903EE1444580F03B812B5D07
:102E40002919222B04D138463146FFF744FB32E1E1
:102E50002D2B03D0A3F13002092A51D80022019270
:102E6000C4EB0804A2420DF1080813D08B5C392B87
:102E700007D8302B09D22D2B07D02E2B05D02B2B8A
:102E800002E0452B01D0652B04D108F80230013255
:102E90003F2AE7D112AB1A444FF0000A404601A97D
:102EA00002F840AC05F094FDDDF804900446C145FD
:102EB0000D4623D06EA3D3E90023C7E9064502F0EF
:102EC00087FE10B16FF0004308E02046294600223B
:102ED0006C4B02F073FE18B14FF000437B6104E0CD
:102EE0002046294602F088FE78610823FB60B3681B
:102EF000C8EB09084344B3600120DCE05046DAE047
:102F00005B2B50D1F368B3F57A7F80F0D380013327
:102F1000F3602B5D5B2B40F0CD800134B460304614
:102F2000FFF7B3FBB368726893425BD23268D25C3E
:102F30005D2A2BD0013B4FF00008B3604446306956
:102F4000FFF7F8FC054648B324B1C8F80000C0F804
:102F5000048000E00446B36830460133B360FFF7F5
:102F600094FB28463146FFF72BFFD0B13046FFF7E0
:102F70008CFBB3687268934213D23268D35C2C2BFB
:102F800002D05D2B0DD102E0A846D8E70024F368FB
:102F9000013BF3602023FB60BC607FE0002C00F06D
:102FA000898020467FE07B2B40F08480F368B3F576
:102FB0007A7F7FD20133F3602B5D7B2B7AD1013492
:102FC000B4603046FFF761FBB3687268934209D280
:102FD0003268D25C7D2A5AD0013B4FF00008B360C2
:102FE00045463AE0013BB36064E0002D3CD0C8F8B0
:102FF0000000C0F80480B36830460133B360FFF7C7
:1030000044FB20463146FFF766FA00284AD0304696
:10301000FFF73BFB23697268236200232361B368D7
:1030200093423FD23268D25C3A2A3BD10133B3603B
:103030003046FFF72AFB20463146FFF7C1FE002845
:1030400030D03046FFF721FBB3687268934229D233
:103050003268D35C2C2B17D1A0463069FFF76AFC8D
:1030600004460028C1D11CE00546C4E7AFF3008048
:103070000000C0FFFFFFDF41D0F5000801F60008A7
:1030800007F600080000E0C17D2B0BD100E0002511
:10309000F368013BF3604023FB60BD60B36801331C
:1030A00029E73DB12846FFF767FE03E0084602E046
:1030B000284600E0002012B0BDE8F087AFF30080A2
:1030C0002DE9F04389B004460E46914601A800213F
:1030D0001C2203F01BFD2F4B00271F605F609846EA
:1030E000002C53D02046019404F0A4F92A4B01305F
:1030F000029093E8070008AB03E90700FFF71AFC0A
:103100000546002831D0019878B1039B53B9029B42
:10311000042B09D92149032204F0BCF920B9032367
:10312000039301E0384600E001A8FFF7AEFA01463C
:103130002846FFF745FEA8B1B9F1000F05D17EB1D1
:10314000039B019A134433600AE001A8FFF79DFA3C
:10315000039B029A934205D2019AD35C13B9EEE71E
:10316000284614E02846FFF707FE039B029A934285
:1031700003D30AB1531E00E013460EB1E2183260C9
:10318000C8F80040C8F80430002000E0204609B02C
:10319000BDE8F083001300200C00002027F6000893
:1031A00000210A46FFF78CBF0021FFF79BBD28B125
:1031B0008368002013B101301B68FBE770470122D0
:1031C000FFF762BB10B5E8B1BAB1C1B18A4218D0FD
:1031D0000B684C681360546003B15A60536803B1C4
:1031E0001A6083688B424FF0000308BF82600B6057
:1031F0004B600846FFF7C0FD03E0104610BD0846CF
:1032000010BD012010BD000008B5044B1868FFF781
:1032100091FB08B10423C36008BD00BF0C0000206F
:1032200070B505460E46FFF7EFFF044631462846C7
:1032300022460023FFF72EFD054620461DB9FFF765
:103240009BFD284670BD70BD174B70B504461868CD
:103250000D46FFF76FFB0646F0B10823C360C0E9D7
:1032600006450FA3D3E900232046294602F0B0FC0F
:1032700010B16FF0004308E02046294600220B4BB6
:1032800002F09CFC18B14FF00043736104E020464B
:10329000294602F0B1FC7061304670BDAFF300808A
:1032A0000000C0FFFFFFDF410C0000200000E0C174
:1032B00038B50B4B05461868FFF73CFB044660B178
:1032C0001023C3602846FFF7CFFC05462061204647
:1032D00025B9FFF751FD284638BD38BD38BD00BFC0
:1032E0000C00002008B5044B1868FFF723FB08B159
:1032F0002023C36008BD00BF0C00002008B5044BAC
:103300001868FFF717FB08B14023C36008BD00BF72
:103310000C0000202DE9F843B1F10009804602DAE3
:103320000020BDE8F8830028FAD0FFF7DBFF06464F
:103330000028F5D000273D464D4511D258F825000C
:10334000FFF7B6FF044618B93046FFF715FDE7E76B
:103350000DB9B06001E03860476001352746EBE702
:103360003046BDE8F88320B1007BD0F1010038BFC2
:103370000020704720B1C06810F0030018BF012082
:10338000704718B1007B031F58425841704720B165
:10339000007BB0F1080358425841704720B1007BD0
:1033A000B0F1100358425841704720B1007BB0F192
:1033B000200358425841704720B1007BB0F14003D0
:1033C000584258417047000008B5024B5B68984767
:1033D00008BD00BF0C000020F8B506460D461F468C
:1033E0001446DAB1E1B1D3689B0503D4106A08B181
:1033F000FFF7EAFF2846FFF737FCE368206223F473
:103400000073E36029463A463046FFF73DFA22460C
:1034100001463046FFF7D6FE0120F8BD1046F8BD44
:103420000846F8BD0123FFF7D7BF122938B5054676
:10343000144608460BD0132910D0112916D100F0DC
:103440006DF80CB120460FE047F6FF700CE000F07D
:1034500065F8002CF6D149F63F4005E000F05EF833
:10346000002CEFD14FF2234000F0E0F8284638BDA1
:1034700013B50022044601A8FFF7D7FF204602B08B
:1034800010BD0000054B1B681B685B0103F1844302
:1034900094331A68002AFCD0704700BF180000203F
:1034A000054B1B681B685B0103F184438C331A686E
:1034B000002AFCD0704700BF1800002008B5FFF7B5
:1034C000E1FF054B00221B681B685B0103F184438D
:1034D000C3F88C2008BD00BF1800002008B5FFF716
:1034E000D1FF054B01221B681B685B0103F184437C
:1034F000C3F8902008BD00BF1800002008B5FFF7F2
:10350000C1FF054B00221B681B685B0103F184436C
:10351000C3F8902008BD00BF1800002010B5044675
:1035200000F0C1FA00F0CCFA204A112C136A23F4FF
:103530004073136213460BD005D8C4B1102C2AD1A6
:103540000023136227E0122C11D0132C1AD022E092
:10355000174A00211160012142F8081C154A12681F
:1035600012F0FF0FFAD01A6A42F4807212E0124A87
:1035700001211160114A1268002AFBD01A6A42F434
:10358000007207E00E4A126812F0FF0FFAD01A6AB2
:1035900042F440721A620B4B01221A60FFF78EFF51
:1035A000FFF77EFFBDE81040FFF76CBF0010024040
:1035B00008044242040442428004424284044242DB
:1035C000440042423C044242F8B5104B1E68356844
:1035D0002B686F681F4017F0010403D074680CB1AA
:1035E000A0470124BA0704D5B36813B1984744F043
:1035F00002047B0704D5F36813B1984744F0040430
:103600006B6823EA04046C60F8BD00BF180000205A
:1036100008B5044B1B681B691BB19847024B01227C
:103620001A6008BD18000020C482204210B504466C
:10363000FFF744FFFFF734FFFFF724FFFFF74EFFCC
:10364000064B220C1B68A4B21B689A60DC60FFF773
:1036500055FFBDE81040FFF715BF00BF1800002060
:1036600001498D4601490847005000207136000885
:1036700008B5124B124A1968914201D0002301E0AB
:10368000104B07E01048D4188442F9D2C858D050E3
:103690000433F7E70D4A934203D2002243F8042B88
:1036A000F8E702F045FE00200146024601F0A8FCC2
:1036B000074B0BB102F02CFEFEE700BFE4FF000851
:1036C00000000020A8110020A811002000140020F4
:1036D0001163000808B50D4B1A680AB90C4A1A6044
:1036E0001B680C4AD21A824204DB09494242591A29
:1036F000914206DA02F006FE0C2303604FF0FF3021
:1037000008BD024A18441060184608BD081300207E
:1037100000140020703D0128FEE770470B4B10B5E8
:10372000196809220A230A4800F07EFF094B022289
:1037300019680948032300F077FFBDE81040074BE4
:10374000074819681A221B2300F06EBF3C010020B5
:103750000C1300204001002024130020440100200D
:103760003C13002010B5044600F082F9034B2046BC
:103770001978BDE8104000F017B900BF34000020F0
:10378000F8B50446056800F02BFB226800235101C0
:1037900001F184410B60802129600121A9622B6124
:1037A000EB606379696113B18B4203D02BE04FF476
:1037B00000436B644FF6FF73D36200256E1CF7B2B3
:1037C0002046394600F016FBD0B1236848F6FF7159
:1037D00003F1340242F8251018336D1017F0010F71
:1037E00053F8252014BF6FF0FF016FF47F4101EA09
:1037F000020214BF68214FF4D0410A4343F8252048
:10380000042E3546DAD1216801224B01490103F12A
:10381000844301F18441C3F880220A60F8BD0000AE
:1038200038B5274B274C1A68022042F010021A6064
:1038300000F04CF90025002000F0DEF965602368F7
:10384000182023F40023236000F0E3F9102000F097
:10385000E0F900F043F8A560102000F0CDF9102049
:1038600000F0F4F90028FAD000F039F8164800F01A
:10387000F9F9182000F0C0F9182000F0E7F9002845
:10388000FAD0022000F0A8F900214FF0006000F00B
:1038900085F90E4800F05CFA00F038F80C4B1888F7
:1038A00000F0D4F80B4800F0D5F80B4800F084FA8B
:1038B00000F02EF800F02DF8FFF72FFF38BD00BF05
:1038C0000020024000100240380000203F19010093
:1038D000360000206537000881370008704708B5BA
:1038E0000020014600F00CFA01204FF4806100F046
:1038F00007FA0021022000F003FA2D2000F010FA50
:10390000BDE808400320002100F0FAB900F0E8B853
:10391000704700F025B90000000000000000000022
:10392000012007E0022005E0032003E0042001E07D
:103930000520FFE70D4A0121116072B60C4A0021F3
:103940001160074902B4084902B486B005498E46A1
:10395000704700BFAFF30080AFF30080AFF300808B
:1039600000000061F9FFFFFFE144000814ED00E0F2
:1039700010E000E0AFF30080AFF30080AFF3008011
:10398000FEE710B50446007900F088F92079BDE81B
:10399000104000F09BB903689A6822F4602242F458
:1039A0008012114399607047002370B51A461C4677
:1039B000072B4FEA430503DCEE1801FA06F6344301
:1039C0001D4401FA05F501330A2B42EA0502EFD145
:1039D0000368DC601A6170BD38B5124D2A6813683F
:1039E0001C68A10706D5196821F0020119609368C7
:1039F00003B19847620708D52B681A681B691168DC
:103A000021F00401116003B19847E30708D52B6842
:103A10001A68DB68116821F00101116003B1984751
:103A200038BD00BF64000020036801225B0103F180
:103A3000844303F58673191F1A6018680028FCD1A7
:103A400043F8042C0B68002BFCD17047014604207E
:103A500000F056B9044B10B504461868A047034B54
:103A60001868A04710BD00BF64000020600000205F
:103A700010B50446FFF785FF20464FF46021FFF79D
:103A80008AFF2368012103F1404308335A015B0197
:103A900002F1844203F18443116520461960BDE8B8
:103AA0001040FFF7C1BF08B5142000F0F7F804205C
:103AB00000F0F4F8BDE80840042000F007B9000069
:103AC000014B01221A60704720000E42034B1A6816
:103AD00022F0070210431860704700BF0020024028
:103AE00008B5074801F081FB064801F07EFB064857
:103AF00001F07BFBBDE80840044801F076BB00BF45
:103B00006800002070000020780000208000002065
:103B100070B501F00704A4000F25A5400368C8088C
:103B200053F82060092A26EA050514BF1646082620
:103B300006FA04F4082A44EA050443F8204006D1B2
:103B4000012000FA01F1DA6822EA010106E0092AFF
:103B500005D1012000FA01F1DA681143D96070BD86
:103B600008B5032000F09AF8BDE80840032000F0F3
:103B7000ADB8000000284FEA011105DA064B00F04D
:103B80000F00C9B21954704700F16040C9B200F586
:103B9000614080F80013704714ED00E021F06041AF
:103BA00038B521F07F01084B0843986000241D467A
:103BB00060B20F210134FFF7DDFF2B2CF8D1F02389
:103BC00085F8233038BD00BF00ED00E0014B13F84D
:103BD000100070470AF90008064B5A6822F00302E9
:103BE00002435A6080005A6802F00C028242FAD105
:103BF000704700BF00100240030A0121C0B201FA61
:103C000000F003F1804303F504331A681043186091
:103C10007047030A0121C0B201FA00F003F18043AA
:103C200003F504331A6822EA000018607047030A9B
:103C30000122C0B202FA00F003F1804303F504331D
:103C40001B6818420CBF002001207047030A0222A3
:103C5000C0B202FA00F003F1804303F504331B689D
:103C60001840704738B54368044618201D68FFF7B0
:103C7000DEFF20B106488121064A00F03BFC064BDE
:103C800021685A680D4322F4741215435D6038BDF3
:103C900060F80008EEF800080010024010B5044675
:103CA000FFF794FF074B53F82020074B03EB440426
:103CB000637803EBC2039B0003F1844301221A6083
:103CC00010BD00BF880000200AF9000810B50446A6
:103CD000FFF77CFF084B53F82020084B03EB44040C
:103CE000637803EBC2039B0003F1844301221A6053
:103CF00000221A6010BD00BF940000200AF90008DD
:103D000010B5054B054C5A6854F8200022EA000211
:103D10001143596010BD00BF0010024068F900084F
:103D200010B50446FFF752FF074B53F82020074B0E
:103D300003EB4404637803EBC2039B0003F1844369
:103D400000221A6010BD00BF9C0000200AF9000884
:103D5000024B072258601A60704700BF10E000E075
:103D600008B5044B1A6801321A60034B1B6803B193
:103D7000984708BDF41300205413002011F0010FE0
:103D800070B542EA03030CBF0825002503FA05F5C8
:103D9000006801F1FF3400F11800C4F3400450F84A
:103DA000241014BF6FF0FF066FF47F4631402943A3
:103DB00040F8241070BD000010B504460448A04728
:103DC0000448A0470448A0470448A04710BD00BFCE
:103DD000F000002018010020A8000020CC000020E6
:103DE00010B504460079FFF759FF2079BDE810406F
:103DF000FFF76CBF38B54B1E032B0D46047905D970
:103E00000E4840F203110E4A00F074FB1E2C10D92C
:103E1000212C0ED0202C0ED9222C01D0252C04D1FF
:103E2000022D8CBF0020012038BD6B1E5842584126
:103E300038BD012038BD002038BD00BF7CF9000826
:103E4000CFF900088B1C40F823200368012203F1FE
:103E500040430C3301EBC3039B0003F184431A601E
:103E6000427903791ABBB3F11A025342534107292D
:103E700019D8DFE801F004090909090E0E13002B17
:103E800014BF19232C233BE0002B0CBF2E231B2334
:103E900036E0002B0CBF2D231A2331E0002B0CBF82
:103EA0002B2318232CE01B4840F28F1122E01B3BF0
:103EB0000C2B1CD8DFE803F0212307090B0D1B0F87
:103EC0001113151719001E231AE0322318E03623A8
:103ED00016E0372314E0182312E0192310E01A2308
:103EE0000EE02B230CE02C230AE02D2308E00948E8
:103EF00040F2BF11084A00F0FDBA1C2300E01D2368
:103F00005909012203F01F0302FA03F3034A42F89E
:103F1000213070477CF900082BEF000800E100E039
:103F20000368002203F140430C3301EBC3039B0001
:103F300003F1844302311A6040F8212070470000E9
:103F4000F8B54E1EF3B2032B04460D46174604D9AE
:103F50002A48DA212A4A00F0CDFA6379022B04D1EB
:103F60002648DD21274A00F0C5FA6379022B43D0A9
:103F7000032F41D8DFE807F00212223520462946F8
:103F8000FFF7CEFF236803F140432033DB0003EB50
:103F90008606B60006F18446002320E0236800224E
:103FA00003F140430C3305EBC3039B0003F184434F
:103FB0001A60204629466022082303E0204629464D
:103FC00010220023FFF7DAFE236803F14043203379
:103FD000DB0003EB8606B60006F18446012333605E
:103FE000F8BD23684FF2F1229A6103229A605B01C7
:103FF00003F1844301221A60F8BD00BF7CF9000878
:10400000F0F900080CFA000810B5074B1C68E168CD
:1040100022690A40120606D55B6A23B198472369D4
:1040200023F08003236110BDF000002010B5074B82
:104030001C68E16822690A40D20706D59B6823B153
:104040009847236923F00103236110BDF00000208D
:10405000F8B50C4F3D68EB682E691E4016F0400421
:1040600003D03C6A0CB1A0474024B30604D5FB69D9
:1040700013B1984744F020042B6923EA04042C610F
:10408000F8BD00BFF0000020F8B5134F3E68F3689C
:1040900035691D4015F0100403D0BC690CB1A04770
:1040A0001024290704D57B6913B1984744F008040C
:1040B0006A0704D53B6913B1984744F00404AB0781
:1040C00004D5FB6813B1984744F00204336923EA2E
:1040D00004043461F8BD00BFF0000020F8B51A4EAA
:1040E0003768FB683D691D4015F0400403D0346A11
:1040F0000CB1A0474024EB0604D5B36913B198472F
:1041000044F01004280704D5736913B1984744F0AC
:104110000804690704D5336913B1984744F00404CF
:10412000AA0704D5F36813B1984744F00204EB07DB
:1041300004D5B36813B1984744F001043B6923EAFE
:1041400004043C61F8BD00BF18010020F8B51A4E08
:104150003768FB683D691D4015F0400403D0346AA0
:104160000CB1A0474024EB0604D5B36913B19847BE
:1041700044F01004280704D5736913B1984744F03C
:104180000804690704D5336913B1984744F004045F
:10419000AA0704D5F36813B1984744F00204EB076B
:1041A00004D5B36813B1984744F001043B6923EA8E
:1041B00004043C61F8BD00BFA8000020F8B51A4E09
:1041C0003768FB683D691D4015F0400403D0346A30
:1041D0000CB1A0474024EB0604D5B36913B198474E
:1041E00044F01004280704D5736913B1984744F0CC
:1041F0000804690704D5336913B1984744F00404EF
:10420000AA0704D5F36813B1984744F00204EB07FA
:1042100004D5B36813B1984744F001043B6923EA1D
:1042200004043C61F8BD00BFCC0000208188026816
:10423000034689B2505C99881A8989B292B2914238
:1042400017BF9A880022013292B2C0B29A8070479A
:10425000C28838B5838892B29BB201329A42044632
:104260000D461AD0C288038992B29BB29A4202D1FB
:1042700083889BB28BB14FF0FF30E288236892B203
:104280009D54E288238992B29BB29A4217BFE38879
:10429000002301339BB2E38038BD2046FFF7C6FF01
:1042A000EBE770B51E460546084611460422059CFC
:1042B000FFF72EFC9DF810100B223046FFF728FC6C
:1042C0002B6804F00F01DA6804F0300422F4F05295
:1042D0001204120C42EA4122DA601A6922F44052B6
:1042E0001204120C42EA04241C6170BD70B505462C
:1042F00016460C4641B900F0A1F8044620B90E4814
:10430000AE210E4A00F0F6F819235C43B600642390
:10431000B4FBF6F4B4FBF3F21201110903FB1144F0
:1043200024013234B4FBF3F303F00F0329681A437A
:1043300092B28A6070BD00BF25FA00087BFA0008BF
:1043400038B5114DEB68980607D52B68990604D54A
:1043500069680E48C9B2FFF77BFFEB680A4C1A0682
:1043600011D523681B060ED509488288C38892B2EE
:104370009BB29A4203D0FFF759FF606038BDE368F3
:1043800023F08003E36038BD00380140641300204F
:104390005813002038B5114DEB68980607D52B68E7
:1043A000990604D569680E48C9B2FFF751FFEB685A
:1043B0000A4C1A0611D523681B060ED509488288B7
:1043C000C38892B29BB29A4203D0FFF72FFF60607E
:1043D00038BDE36823F08003E36038BD004400404B
:1043E000701300208813002038B5114DEB68980633
:1043F00007D52B68990604D569680E48C9B2FFF73E
:1044000027FFEB680A4C1A0611D523681B060ED548
:1044100009488288C38892B29BB29A4203D0FFF7C0
:1044200005FF606038BDE36823F08003E36038BDBA
:10443000004800407C1300209413002008B590F839
:104440009002FFF7C3FB20B10128034818BF0020EA
:1044500008BD024808BD00BF00A24A040051250261
:1044600013B504468DF8071020460DF1070101220F
:1044700000F0FAFE0028F7D002B010BD38B50546AE
:104480004C1E14F8011F19B12846FFF7E9FFF8E7A1
:1044900038BD000008B5114B01211C6803222046DD
:1044A000FFF736FB002301211A469342206834BFF0
:1044B00002254FF40035B2F5007F056103F10103D9
:1044C00003D0002A08BF012101E04FF0FF31B3F50E
:1044D000007F04BF52180023E7E700BF5CF8000824
:1044E00008B5034B0BB1AFF3008062B6FFF7D2FF04
:1044F00000000000F8B5144B06460D4617460BB3F6
:10450000AFF3008011490446FFF7B8FF2046394653
:10451000FFF7B4FF20460E49FFF7B0FF20463146B3
:10452000FFF7ACFF20460B49FFF7A8FF20462946BE
:1045300000F0E8FE20460A21FFF792FF20460D21F9
:10454000FFF78EFFFFF7CCFF0000000087FA00089E
:104550009DFA00089EFA000803695B68D9889A886A
:1045600089B292B2D8888A1A998880B289B2884270
:1045700003D2198989B201310A4492B282B1998871
:104580001A6889B2505C99881A8989B292B29142AC
:1045900017BF9A880022013292B2C0B29A80704747
:1045A0004FF0FF30704703695B689988DA8889B2F9
:1045B00092B2914205D09A881B6892B2985CC0B2C0
:1045C00070474FF0FF30704703699A689088D18830
:1045D00080B289B28842F9D11A6813685B06FCD5AB
:1045E000704713B504698DF8071020460DF10701D7
:1045F000012200F039FE0028F7D0012002B010BDE2
:1046000003695B68D8889A8880B292B2D988801A88
:104610009A8889B292B2914203D21B899BB201332C
:10462000184480B27047000030B5002545604FF453
:104630007A758560024D016105600275437530BD74
:10464000D0FA000803692DE9F74FDB680446994268
:104650000F4692462CD890F81480174D4FEA081850
:1046600008EB050690F8159070684FEA091909EBF8
:10467000050B717B10B10022FFF762FC206900F08E
:10468000BFFD337B9BF80C2020698DE8080459F8A6
:10469000051058F80530FFF704FE206900213A465E
:1046A000FFF724FE206903B0BDE8F04F00F0D2BD53
:1046B00003B0BDE8F08F00BF2CF600080022FFF722
:1046C000C1BF0000044B02791B789A4202D1034B10
:1046D0001B681860704700BFB0130020B41300209F
:1046E000002310B50446036072B6094B19311970E6
:1046F000084B18600848FFF75FFB62B6236823B9D0
:1047000006484321064AFFF7F5FE204610BD00BFCC
:10471000B0130020B4130020C5460008F0FA0008CA
:1047200044FB0008036800221B685B0103F184431B
:104730001A607047036801221B685B0103F1844320
:104740001A607047036801391B6889B29962704723
:1047500003681B68DA6A92B2914228BF1146596217
:10476000704738B5054639B9036801221B6899625C
:10477000DA62D86A80B238BD48244C434FF6FF71E4
:10478000B4FBF1F1013189B204EB5104B4FBF1F453
:10479000FFF7D8FF2B68A4B21B682046DC6238BD47
:1047A0000068C9B2FFF74EBB08B501210848FFF702
:1047B00097FF02210748FFF793FF03210648FFF701
:1047C0008FFFBDE8084005480421FFF789BF00BFFF
:1047D000A0130020A4130020A8130020AC13002075
:1047E0002DE9F041002407460E4625463B1919796C
:1047F0000A22304600F013F92E218046304600F0A0
:104800004DF801344044032C0544EFD13046F9798A
:104810000A2200F004F92844BDE8F08130B5837124
:10482000034D9DF80C30056001714271C37130BDBC
:1048300060FB0008044B054A1A6000221A715A7185
:104840009A71DA71704700BFB813002060FB00084E
:1048500070B505460E460024315D29B12A68284608
:10486000126890470134F7E7204670BDF8B5054659
:104870000C4616468F18BC4206D02B6828461B688B
:1048800014F8011B9847F6E73046F8BD10B50268EA
:104890000B46946809689A68A04710BD08B503687C
:1048A0001B68984708BD08B503685B68984708BD52
:1048B000FFF7F9BF10B50A6804461268084621469A
:1048C000904710BD38B50D210546FFF7E7FF0A21D7
:1048D00004462846FFF7E2FF204438BD38B50446B9
:1048E000FFF7D4FF05462046FFF7ECFF284438BD0C
:1048F00038B50446FFF7D7FF05462046FFF7E2FF2D
:10490000284438BD38B50446FFF7CDFF054620469C
:10491000FFF7D8FF284438BD38B50446FFF7CAFF73
:1049200005462046FFF7CEFF284438BD2DE9F04F5D
:1049300014461D4691B054EA050381469DF868B0BF
:1049400004D13021FFF7AAFF01202EE04FF000082C
:104950005FFA8BF600272046294632463B4601F097
:10496000C3F908F101080DF1000AC2440AF8012C4C
:10497000204629463B46324601F0B6F904460D462C
:1049800054EA0503E4D1002408F1FF381DF80810AB
:104990004846092994BF30313731C9B2FFF77EFF4D
:1049A0000444B8F1000FEFD1204611B0BDE8F08FFC
:1049B0002DE9F041069F064614461D462FB90368AF
:1049C000D1B21B689847BDE8F081002C75F1000357
:1049D00005DA2D21FFF762FF644265EB4505FFB262
:1049E0000697304622462B46BDE8F041FFF79EBFB2
:1049F00007B5CB1700920A46FFF7DAFF03B05DF860
:104A000004FB70B5049921B90368D1B21B689847BB
:104A100070BDC9B20491BDE87040FFF787BF07B50C
:104A200000230092CAB2FFF7ECFF03B05DF804FB6D
:104A300007B5002300920A46FFF7E3FF03B05DF8D5
:104A400004FB000038B50A4B04461A681D46C260D4
:104A50002268204613699847002807DAE2682B6825
:104A60009B1AA2689342F3D34FF0FF3038BD00BFCA
:104A7000F413002070B50D4609490446164600F0AF
:104A800063F82846FFF7DEFF01460029204605DBD4
:104A9000B14203D0C9B200F0E8F8F2E770BD00BF40
:104AA000C5FA000870470022026010B50C68426029
:104AB00004604C68826044608C6884600A604A606C
:104AC0008A6010BD10B50446006801F06BFC2046FA
:104AD00010BD10B50446006808B101F063FC002366
:104AE0002360A360636010BD38B504460D460068BE
:104AF000013102F059F810B184E82100012038BDDD
:104B0000036810B5044613B143688B4207D22046B0
:104B1000FFF7EAFF20B1A3680BB9226813700120E8
:104B200010BD70B50E46114604461546FFF7E8FF66
:104B300018B92046FFF7CDFF04E0A5602068314694
:104B400002F01AFC204670BD38B50023044603600D
:104B5000436083600D4639B1084602F06BFC29467C
:104B600002462046FFF7DDFF204638BD38B5054632
:104B700000680C4678B1096859B10C4B4BB16A68B2
:104B8000A3689A4205D302F0F7FBA368AB60002349
:104B90000AE001F007FC23682B6063686B60A36880
:104BA000AB60002323606360A36038BDA54A0008A2
:104BB000884210B50B46044607D0096819B19A68B7
:104BC000FFF7AFFF01E0FFF784FF204610BD10B5EF
:104BD00000230446036043608360FFF7E9FF20463B
:104BE00010BD884210B5044601D0FFF7BFFF204634
:104BF00010BD38B505460C4641B1084602F01AFC16
:104C0000214602462846FFF78CFF01E0FFF761FFCF
:104C1000284638BD70B5044685680E4609B900209F
:104C200070BD62B115442946FFF76AFF0028F6D02F
:104C30002068A3683146184402F09EFBA56001205D
:104C400070BD0B469A680968FFF7E4BF38B50546A2
:104C50000C46084641B102F0EDFB214602462846CB
:104C6000BDE83840FFF7D6BF38BD07B500238DF843
:104C70000410012201A98DF80530FFF7CBFF03B026
:104C80005DF804FB13B50A220446084601A900F0AA
:104C90007FFA01A802F0CEFB01A902462046FFF7E9
:104CA000B9FF02B010BD1FB504460A220846694686
:104CB00000F06EFA684602F0BDFB694602462046E7
:104CC000FFF7A8FF04B010BD1FB504460A2208462E
:104CD000694600F088FA684602F0ACFB6946024675
:104CE0002046FFF797FF04B010BD0B4610B50968CA
:104CF0009A680446FFF78EFF10B92046FFF7E9FED9
:104D0000204610BD38B504460D4641B1084602F0B4
:104D100091FB294602462046FFF77CFF10B920464A
:104D2000FFF7D7FE204638BD10B50446FFF79DFFBC
:104D300010B92046FFF7CDFE204610BD10B5044641
:104D4000FFF7B1FF10B92046FFF7C3FE204610BDA4
:104D500010B50446FFF7B8FF10B92046FFF7B9FEBB
:104D6000204610BD826808B50B4612B919B901205A
:104D700008BD11B90368187802E0006802F0DEF996
:104D8000D0F1010038BF002008BD08B582688B68EB
:104D90009A420CD3006868B1096851B1D31A18441B
:104DA00002F0CCF9D0F1010038BF002008BD00208E
:104DB00008BD084608BD38B50C469AB191B1816866
:104DC0008B4202D30023237038BDC91A551E8D4271
:104DD00028BF0D4601682A461944204602F0B4FB5C
:104DE0000023635538BD836810B59A4206D2046823
:104DF000A01802F029F908B1001B10BD4FF0FF30D8
:104E000010BDF8B515468A680F46C2B18368B3B1C4
:104E10009A4214D806689D4228BF03F1FF353046F8
:104E20004FF0FF34731998420CD8396802F012FD24
:104E300040B1831BAB4298BF1C460130F2E74FF0F4
:104E4000FF30F8BD2046F8BD9A422DE9F0410746F3
:104E50000D4614461E4601D93446164638460C49BE
:104E6000FFF772FEAB689C420FD29E4228BF1E46DF
:104E70002B68002213F806809A5529683846214489
:104E8000FFF7B7FE2B6803F806803846BDE8F081CF
:104E9000C5FA00082DE9F74FD0F808A004460F46E0
:104EA0001646BAF1000F77D0D1F808B0BBF1000F69
:104EB00072D093680568CBEB0308B8F1000F0DD1F1
:104EC0002846396802F0C6FC0546002864D03168DF
:104ED000B26801F03FFDB3681D44F1E702DB0B68E7
:104EE000D14622E0A9462846396802F0B3FC824642
:104EF000A0B1C5EB0A0B294648465A46D94401F0F1
:104F000029FD48463168B26801F024FDB368BD68E8
:104F10009944A36855444344A360E4E748462946BE
:104F200003B0BDE8F04F02F027BA194628460193B6
:104F300002F090FC019B18B100EB0B05C144F4E7B3
:104F4000D14529D06368994504D920464946FFF7E1
:104F5000CBFD08B3A268013A002A1DDB2046394682
:104F6000FFF74FFF051E17DBBA682168A3682A44C4
:104F7000114401EB08009A1A01F062FDA36822684F
:104F800043440021A360D1542068B26828443168AA
:104F900001F0E0FC6A1EDFE703B0BDE8F08F2DE909
:104FA000F0410668054616B3876807B3B046444625
:104FB000207808F1010801F0E3F90028F7D1013F5A
:104FC0003744387801F0DCF948B901373A1BB4426C
:104FD000AA6008D93046214601F0BCFC03E0A74294
:104FE000F3D3013FEDE72A68AB680021D154BDE857
:104FF000F081006808B101F077B97047FEF710BC86
:1050000008B5FCF7D1FFFDF71BF8FCE701F0CAB9C2
:10501000222870B542D8082918D8DFE801F01E21EF
:1050200005080B0E05111400002404221AE00024C8
:10503000224617E00024092214E00024082211E08F
:1050400001240B220EE001240F220BE014484C2116
:10505000144ABDE87040FFF74DBA0024032201E076
:1050600000240722104B00011E18317B1858FEF750
:105070004FFD706890B1717B24B10122BDE8704092
:10508000FEF75EBF0368013903F140432033DB00C4
:1050900003EB81039B0003F184431C6070BD00BFE0
:1050A00068FB00082BEF00082CF6000822280ED819
:1050B000084B00011A18127B012101FA02F21B5859
:1050C0001B689B681A420CBF00200120704700201B
:1050D000704700BF2CF60008222810D8084B0001AA
:1050E0001A18127B1B58012000FA02F2D1F10101BB
:1050F00038BF0021090102FA01F11B6819617047EC
:105100002CF60008054B70B51C6806461D4600F0DD
:1051100007F82B681B1BB342F9D370BDF4130020B2
:105120007047F0B58BB059B3931E222B2AD80A2AA8
:105130002AD1002828DA4042012501AB1E4670B171
:10514000B0FBF2F702FB1704092C3846D8BF303405
:1051500003F10107C8BF57341C703B46EFE7B34269
:10516000EED01DB12D204A1C087000E00A46B34263
:1051700004D913F8010D02F8010BF8E700231370AE
:10518000084603E0002001E00025D6E70BB0F0BDA3
:10519000FFF7C7BF70B58AB001B3931E222B1FD88B
:1051A00001AB1D4670B1B0FBF2F602FB1604092CF0
:1051B0003046D8BF303403F10106C8BF57341C70E5
:1051C0003346EFE7AB42EED00A46AB4204D913F8C0
:1051D000010D02F8010BF8E700231370084600E008
:1051E00000200AB070BDFFF7D5BF10B504460079A6
:1051F000FEF754FD2079BDE81040FEF767BD0000C2
:10520000436800227F2110B59A80DA80198100F16D
:1052100010011960836804469A80DA8040F2FF1218
:105220001A8100F190021A6090F89002FEF736FDA4
:1052300094F891325AB2002A08DB012103F01F03CF
:1052400001FA03F30249521141F8223010BD00BFA8
:1052500000E100E00368DA6842F02C02DA60DA6804
:1052600042F40052DA607047F0B58368054604687E
:1052700000209F88DE88BFB2B6B2B74204D0E36890
:1052800023F08003E36027E026683606F7D59042D6
:10529000F5D00E5C01306660EBE7DF889E88BFB218
:1052A000B6B20137B74211F800C01DD0DF881E89A1
:1052B000BFB2B6B2B74213D0DF881E68BFB206F8DD
:1052C00007C0DF881E89BFB2B6B2B74218D0DE88E9
:1052D0000136B6B2DE8001309042AB68DDD303E028
:1052E0009E88B6B2002EE7D19A88DB8892B29BB234
:1052F0009A4200D1F0BDE36843F08003E360F0BD63
:105300000026E7E77FB5064600240A22B1FBF2F348
:1053100002FB1312013401AD2819303200F8012CC0
:105320001946002BF1D114F1FF340BD32B5D8DF80E
:10533000033030460DF103010122FFF795FF0028ED
:10534000F7D0F0E704B070BD03460846194600F0F8
:10535000CFBF00BF81F0004102E000BF83F00043F7
:1053600030B54FEA41044FEA430594EA050F08BF00
:1053700090EA020F1FBF54EA000C55EA020C7FEAC4
:10538000645C7FEA655C00F0E2804FEA5454D4EB41
:105390005555B8BF6D420CDD2C4480EA020281EA0B
:1053A000030382EA000083EA010180EA020281EA43
:1053B0000303362D88BF30BD11F0004F4FEA013195
:1053C0004FF4801C4CEA113102D0404261EB4101A4
:1053D00013F0004F4FEA03334CEA133302D052422A
:1053E00063EB430394EA050F00F0A780A4F10104E6
:1053F000D5F1200E0DDB02FA0EFC22FA05F2801820
:1054000041F1000103FA0EF2801843FA05F3594105
:105410000EE0A5F120050EF1200E012A03FA0EFC84
:1054200028BF4CF0020C43FA05F3C01851EBE371AE
:1054300001F0004507D54FF0000EDCF1000C7EEBCB
:1054400000006EEB0101B1F5801F1BD3B1F5001F09
:105450000CD349085FEA30004FEA3C0C04F1010428
:105460004FEA445212F5800F80F09A80BCF1004F51
:1054700008BF5FEA500C50F1000041EB045141EAD3
:10548000050130BD5FEA4C0C404141EB010111F4D4
:10549000801FA4F10104E9D191F0000F04BF01467F
:1054A0000020B1FA81F308BF2033A3F10B03B3F15D
:1054B00020020CDA0C3208DD02F1140CC2F10C02ED
:1054C00001FA0CF021FA02F10CE002F11402D8BF4B
:1054D000C2F1200C01FA02F120FA0CFCDCBF41EA17
:1054E0000C019040E41AA2BF01EB0451294330BDE6
:1054F0006FEA04041F3C1CDA0C340EDC04F11404C3
:10550000C4F1200220FA04F001FA02F340EA030099
:1055100021FA04F345EA030130BDC4F10C04C4F1DF
:10552000200220FA02F001FA04F340EA03002946BF
:1055300030BD21FA04F0294630BD94F0000F83F409
:10554000801306BF81F480110134013D4EE77FEAEC
:10555000645C18BF7FEA655C29D094EA050F08BF38
:1055600090EA020F05D054EA000C04BF1946104619
:1055700030BD91EA030F1EBF0021002030BD5FEA5D
:10558000545C05D14000494128BF41F0004130BD85
:1055900014F580043CBF01F5801130BD01F00045D9
:1055A00045F0FE4141F470014FF0000030BD7FEA4C
:1055B000645C1ABF194610467FEA655C1CBF0B4647
:1055C000024650EA013406BF52EA033591EA030F5E
:1055D00041F4002130BD00BF90F0000F04BF002156
:1055E000704730B54FF4806404F132044FF0000589
:1055F0004FF0000150E700BF90F0000F04BF002102
:10560000704730B54FF4806404F1320410F0004567
:1056100048BF40424FF000013EE700BF42004FEA62
:10562000E2014FEA31014FEA02701FBF12F07F43DF
:1056300093F07F4F81F06051704792F0000F14BFDC
:1056400093F07F4F704730B54FF4607401F0004520
:1056500021F0004120E700BF50EA010208BF704777
:1056600030B54FF000050AE050EA010208BF70476C
:1056700030B511F0004502D5404261EB41014FF4D5
:10568000806404F132045FEA915C3FF4DCAE4FF0D9
:1056900003025FEADC0C18BF03325FEADC0C18BFC0
:1056A000033202EBDC02C2F1200300FA03FC20FA11
:1056B00002F001FA03FE40EA0E0021FA02F114445E
:1056C000C1E600BF70B54FF0FF0C4CF4E06C1CEA73
:1056D00011541DBF1CEA135594EA0C0F95EA0C0FE8
:1056E00000F0DEF82C4481EA030621EA4C5123EA5B
:1056F0004C5350EA013518BF52EA033541F480118A
:1057000043F4801338D0A0FB02CE4FF00005E1FB3C
:1057100002E506F00042E0FB03E54FF00006E1FB86
:1057200003569CF0000F18BF4EF0010EA4F1FF04C9
:10573000B6F5007F64F5407404D25FEA4E0E6D4109
:1057400046EB060642EAC62141EA55514FEAC5201A
:1057500040EA5E504FEACE2EB4F1FD0C88BFBCF596
:10576000E06F1ED8BEF1004F08BF5FEA500E50F147
:10577000000041EB045170BD06F0004646EA01010D
:1057800040EA020081EA0301B4EB5C04C2BFD4EB3F
:105790000C0541EA045170BD41F480114FF0000E38
:1057A000013C00F3AB8014F1360FDEBF002001F0A6
:1057B000004170BDC4F10004203C35DA0C341BDC20
:1057C00004F11404C4F1200500FA05F320FA04F0F2
:1057D00001FA05F240EA020001F0004221F0004126
:1057E00010EBD37021FA04F642EB06015EEA430E99
:1057F00008BF20EAD37070BDC4F10C04C4F12005C9
:1058000000FA04F320FA05F001FA04F240EA02007B
:1058100001F0004110EBD37041F100015EEA430E4C
:1058200008BF20EAD37070BDC4F1200500FA05F26C
:105830004EEA020E20FA04F301FA05F243EA0203EB
:1058400021FA04F001F0004121FA04F220EA0200FA
:1058500000EBD3705EEA430E08BF20EAD37070BD40
:1058600094F0000F0FD101F00046400041EB010120
:1058700011F4801F08BF013CF7D041EA060195F002
:10588000000F18BF704703F00046520043EB0303BC
:1058900013F4801F08BF013DF7D043EA06037047A9
:1058A00094EA0C0F0CEA135518BF95EA0C0F0CD0B4
:1058B00050EA410618BF52EA4306D1D181EA0301FA
:1058C00001F000414FF0000070BD50EA410606BFF4
:1058D0001046194652EA430619D094EA0C0F02D139
:1058E00050EA013613D195EA0C0F05D152EA03367E
:1058F0001CBF104619460AD181EA030101F000419C
:1059000041F0FE4141F470014FF0000070BD41F0E4
:10591000FE4141F4780170BD70B54FF0FF0C4CF4BE
:10592000E06C1CEA11541DBF1CEA135594EA0C0FDD
:1059300095EA0C0F00F0A7F8A4EB050481EA030E2A
:1059400052EA03354FEA013100F088804FEA033311
:105950004FF0805545EA131343EA12634FEA0222DF
:1059600045EA111545EA10654FEA00260EF00041A0
:105970009D4208BF964244F1FD0404F5407402D2F2
:105980005B084FEA3202B61A65EB03055B084FEA83
:1059900032024FF480104FF4002CB6EB020E75EB80
:1059A000030E22BFB61A754640EA0C005B084FEAA8
:1059B0003202B6EB020E75EB030E22BFB61A754625
:1059C00040EA5C005B084FEA3202B6EB020E75EB70
:1059D000030E22BFB61A754640EA9C005B084FEAE8
:1059E0003202B6EB020E75EB030E22BFB61A7546F5
:1059F00040EADC0055EA060E18D04FEA051545EAE4
:105A000016754FEA06164FEAC30343EA52734FEA8C
:105A1000C2025FEA1C1CC0D111F4801F0BD141EA05
:105A200000014FF000004FF0004CB6E711F4801F6A
:105A300004BF01430020B4F1FD0C88BFBCF5E06F4A
:105A40003FF6AFAEB5EB030C04BFB6EB020C5FEA5A
:105A5000500C50F1000041EB045170BD0EF0004EAF
:105A60004EEA113114EB5C04C2BFD4EB0C0541EAE1
:105A7000045170BD41F480114FF0000E013C90E6DE
:105A800045EA060E8DE60CEA135594EA0C0F08BFA2
:105A900095EA0C0F3FF43BAF94EA0C0F0AD150EAA1
:105AA00001347FF434AF95EA0C0F7FF425AF104634
:105AB00019462CE795EA0C0F06D152EA03353FF45C
:105AC000FDAE1046194622E750EA410618BF52EAD9
:105AD00043067FF4C5AE50EA41047FF40DAF52EAAD
