:020000040800F2
:1000000000500020714500083148000835480008BC
:10001000394800083D480008414800089148000858
:10002000914800089148000891480008914800084C
:10003000914800089148000891480008414C000888
:100040009148000891480008914800088144000840
:10005000914800089148000891480008914800081C
:10006000914800089148000891480008914800080C
:1000700091480008914800089148000891480008FC
:100080009148000891480008E94800089148000894
:1000900091480008914800089148000891480008DC
:1000A000694E00088D4E0008B14E0008E94E000868
:1000B0003D4F0008AD4F00081D5000089148000852
:1000C00091480008914800089148000891480008AC
:1000D0009148000889510008DD510008315200089C
:1000E00091480008C94400089148000810B5054C23
:1000F000237833B9044B13B10448AFF300800123D4
:10010000237010BDA81100200000000020E90008A5
:1001100008B5064B1BB106480649AFF300800648F8
:10012000036813B1054B03B1984708BD00000000F8
:1001300020E90008AC110020A811002000000000F8
:10014000012902D11C30C0B27047062984BF01F1D9
:10015000FF31C9B211F0010F14BF1E201F207047DC
:10016000444B2DE9F047B1FBF3F603FB16113C239A
:10017000B1FBF3F203FB1212054602704FF461600B
:10018000B1FBF0F200FB1211B1FBF3F36B704FF413
:10019000FA63AA70B6B2EB80EC884FF4C873B4FB74
:1001A000F3F803FB18481FFA88F8B8F1000F16D0CF
:1001B0006423B4FBF3F203FB12439BB2002B53D036
:1001C00014F0030140F26D130CBF4FF4B7721A46DE
:1001D00096420EDB002908BF4FF4B77304E0B6F572
:1001E000B77F06DB4FF4B773F61A0134B6B2EC8072
:1001F000D2E700236B716423B4FBF3F703FB1747CB
:10020000BFB2B8F1000F06D03FB114F0030F14BF16
:100210000020012002E0012000E0384695F805901A
:10022000C0B24946FFF78CFF864209F1010A15D397
:10023000B8F1000F06D03FB114F0030F14BF002037
:10024000012002E0012000E03846C0B24946FFF735
:1002500077FF301A86B285F805A0D2E701362E71F5
:1002600085F805A0BDE8F087B6F5B67FC1DD40F2A0
:100270006D13B9E780510100F8B5427887783C23C7
:1002800003FB072702780579467903FB0727013D21
:10029000013EEDB2F6B2044605714671013E731C93
:1002A000E38834D04FF4C872B3FBF2F102FB113291
:1002B00092B262B16422B3FBF2F002FB103080B262
:1002C00030B113F0030F14BF0020012000E0012023
:1002D000C0B2F1B2FFF734FF284485B2DEE74FF435
:1002E000C872B3FBF2F102FB113292B2AAB16422DE
:1002F000B3FBF2F102FB113292B28AB113F0030F99
:1003000040F26D1208BF4FF4B7721544ADB2013B15
:100310009BB2B3F5FA6FE2D205E04FF4B772F4E79F
:1003200040F26D12F1E7024800FB0570F8BD00BF16
:100330008051010002F00ABD38B50D46044602F0B6
:1003400020FD290A49006039204601F0FE0102F033
:10035000AFFD204602F085FDE9B2204602F0A8FD7F
:10036000204602F07EFD204602F00BFD2046A12132
:1003700002F09EFD204602F074FD0021204602F0AE
:10038000BEFD0546204602F04FFD204602F014FD5A
:10039000284638BD70B50D461646044602F0F1FCFD
:1003A000290A49006039204601F0FE0102F080FD73
:1003B000204602F056FDE9B2204602F079FD2046C3
:1003C00002F04FFD3146204602F072FD204602F059
:1003D00048FD204602F0F0FCBDE870400A2005F020
:1003E00081BD1520012105F067BD1520002105F014
:1003F00063BD10B500210446152005F005FD15204C
:10040000012105F059FD2046BDE81040FFF792BFDD
:1004100038B50C460546FFF7E8FF2846012122467D
:10042000FFF7B8FFFFF7DDFF28460121FFF784FF44
:10043000A042064804D1064905F026F9012038BD3E
:10044000044905F021F9002038BD00BFC813002081
:1004500018FB000842FB000838B50B784A7803EB1C
:1004600083034A4C03EB830302EB8303E3808B7823
:100470000D466371CB78464823710B79A3704B7995
:1004800063708B794349237005F0D9F8E1880A221B
:100490003F4805F082F940493D4805F0D0F86179C0
:1004A0000A223B4805F09AF93C49394805F0C7F85B
:1004B00021790A22364805F091F93949344805F086
:1004C000BEF8A1780A22324805F088F9354930484B
:1004D00005F0B5F861780A222D4805F07FF9324918
:1004E0002B4805F0ACF80A222178294805F076F966
:1004F00004F06EFA642005F0F5FC2046FFF7BCFE20
:1005000001462A4803F015FF642005F0EBFC04F0D7
:1005100065FA264803F010FF01462046FFF720FE4B
:10052000E2886423B2FBF3F32B70E2884FF47A7312
:10053000B2FBF3F103FB11236B706379AB7023798A
:10054000EB70A3782B7163786B7123780024AB7107
:10055000295D0A220E4805F038F901340C48144987
:1005600005F06DF8072CF3D11249094805F067F83A
:10057000074805F073F81049054805F085F8BDE80F
:10058000384003480D4905F07FB800BF66120020CF
:10059000C8130020C8FB0008CFFB0008D7FB0008E9
:1005A000DDFB0008E4FB0008EEFB00086F120020F2
:1005B0003E050108F8FB0008FEFB00082EFE0008BF
:1005C00038B51B480C4603F0B7FE1A4D01462846C5
:1005D000FFF7C6FDEA886423B2FBF3F32370EA88D1
:1005E0004FF47A73B2FBF3F103FB112363706B7961
:1005F000A3702B79E370AB7823716B7863712B78E0
:100600000025A371615D0A220B4805F0DEF8013573
:1006100009480A4905F013F8072DF3D1064808499F
:1006200005F00DF8BDE83840034805F017B800BFE5
:100630006F12002066120020C81300203E0501083A
:10064000F8FB000870B586B0154668460A221E46BB
:100650000C4605F0BFF9694603A805F098F9214951
:1006600003A805F041FA294605F05AFA1D4905F09C
:100670003BFA314605F054FA1B4905F035FA0146BC
:100680001A4804F0CFFF03A805F0FCF8684605F00F
:10069000F9F86422B4FBF2F302FB1344DBB2E4B2D8
:1006A000132B84BFA418E4B204EB94010722B1FB1E
:1006B000F2F3C3EBC303CB1A0D49294411F8011C13
:1006C0000E443344A1079BB204D1022D9CBF03F119
:1006D000FF339BB2B3FBF2F2C2EBC202981AC0B274
:1006E00006B070BD3500010875FC0008C813002075
:1006F000BCFB00080148112103F012BE6F1200205C
:10070000064B1A6801321A601A681D2A04D90022A1
:100710001A60034B01221A70704700BF701200204C
:100720007412002010B5094C0949204604F0E5FE7A
:1007300020460121074A04F0FFFE2046002104F074
:10074000D3FE2046BDE8104004F0B8BE601400207F
:1007500040420F000107000810B5054C204604F088
:10076000B5FE20460021BDE8104004F0BDBE00BF2C
:100770006014002010B58AB001A802F04BFC464A74
:1007800007A801A902F070FD444B07A8196802F000
:100790004FFD07A802F014FC414A07A801A902F086
:1007A00063FD07A83F4902F05BFD07A802F008FCC3
:1007B0003D4A07A801A902F057FD07A83B4902F0EE
:1007C0004FFD07A802F0FCFB394A07A801A902F077
:1007D0004BFD07A8374902F043FD07A802F0F0FBE4
:1007E000354A07A801A902F03FFD07A8022102F03F
:1007F0001FFD07A802F0E4FB304A07A801A902F098
:1008000033FD07A82E4902F02BFD07A802F0D8FB04
:100810002C4A07A801A902F027FD2B4C07A82B4959
:1008200002F01EFD07A802F0CBFB2046284904F089
:1008300006FF07A801A902F01FFC07A9204604F043
:1008400037FF07A802F0BCFB01AA04A8214902F067
:1008500098FB07A8204905F057F804A907A805F058
:1008600036F90146204604F005FF07A805F00AF80E
:1008700004A907A805F08BF807A9184801F092FE13
:1008800007A804F0FFFF04A804F0FCFF01A802F091
:1008900097FB0AB010BD00BFD601010890130020DD
:1008A000A6FC0008941200205502010898130020AD
:1008B000ABFC0008A0120020AFFC0008B5FC00084B
:1008C00054130020BBFC0008C8130020781300203C
:1008D000C1FC0008AC130020D4FC000884130020E5
:1008E00030B58BB001A80D46144602F093FB2A4A9E
:1008F00007A801A902F0B8FC07A8284902F0B0FC3B
:1009000007A802F05DFB264A07A801A902F0ACFC8B
:10091000294607A802F08CFC07A802F051FB214AE7
:1009200007A801A902F0A0FC214607A81E4C02F06E
:100930007FFC07A802F044FB20461C4904F07FFE20
:1009400007A801A902F098FB07A9204604F0B0FE11
:1009500007A802F035FB01AA04A8154902F011FB13
:100960002046144904F06BFE04A9204604F082FEE0
:1009700004A907A805F00BF807A90F4801F012FE1B
:1009800007A804F07FFF04A804F07CFF01A802F090
:1009900017FB0BB030BD00BFA6FC0008941200206E
:1009A000F0FC0008F6FC0008C8130020FAFC000860
:1009B000AC130020D4FC00088413002030B54C4850
:1009C0008DB03021102206F075FF0024494B13F83A
:1009D0002450284605F05AFA08B9312205E0284685
:1009E00005F054FA012802D13022414BE25401347F
:1009F000022CEBD1684602F00DFB3F4A09A869467C
:100A000002F032FC09A83D4902F02AFC09A802F0D4
:100A1000D7FA06A83A4904F077FF06A909A804F016
:100A2000B6FF09A8354905F052F80146354804F0EB
:100A300021FE09A804F026FF06A804F023FF03A85E
:100A40002B4904F061FF06A82F4904F05DFF06A9B9
:100A500009A804F09CFF03A909A805F038F801468D
:100A6000284804F007FE09A804F00CFF06A804F0CB
:100A700009FF264A09A8694602F0F6FB03A909A85E
:100A800002F0EEFB09A802F09BFA21491D4804F090
:100A9000D6FD09A8694602F0EFFA09A9194804F041
:100AA00007FE09A802F08CFA6A4606A8194902F066
:100AB00068FA1949134804F0C2FD06A9114804F068
:100AC000D9FD06A909A804F062FF09A9134801F09D
:100AD00069FD09A804F0D6FE06A804F0D3FE03A819
:100AE00004F0D0FE684602F06BFA0DB030BD00BFD6
:100AF00080120020FCFD0008A6FC000894120020D3
:100B00000EFD0008C813002014FD00081DFD00089C
:100B1000FAFC0008AC130020D4FC00088413002069
:100B200010B58AB001A802F075FA1E4A07A801A9FB
:100B300002F09AFB1C4C07A81C4902F091FB07A885
:100B400002F03EFA20461A4904F079FD07A801A9EF
:100B500002F092FA07A9204604F0AAFD07A802F0C5
:100B60002FFA01AA04A8134902F00BFA20461249F1
:100B700004F065FD04A9204604F07CFD04A907A843
:100B800004F005FF07A90D4801F00CFD07A804F0CB
:100B900079FE04A804F076FE01A802F011FA0AB06A
:100BA00010BD00BFA6FC0008C8130020941200204E
:100BB000FAFC0008AC130020D4FC000884130020C9
:100BC00000B5002389B000930193487811F8022BF7
:100BD0003038303A02EB820200EB42020DF803207B
:100BE0000133072BF1D169461A48FFF735FC6946F6
:100BF0001848FFF7E5FC9DF800309DF8012003EB55
:100C0000830303EB830302EB830189B29DF8022087
:100C10009DF803300F48FFF715FD0F498DF80700C9
:100C200002A804F071FE02A905A804F0B0FE9DF828
:100C3000071005A804F074FF0146084804F01AFDE7
:100C400005A804F01FFE02A804F01CFE09B05DF820
:100C500004FB00BF6E12002025FD0008C813002011
:100C6000012A38B50C46154611D102290BD0FF29AF
:100C700004D0012920D1144800211AE00021124893
:100C80000A4602F01FF810482946002212E09AB9DD
:100C900002290CD0FF2905D001290DD111460A489F
:100CA000224607E011460848012202F00BF80648E8
:100CB00001210A4602F006F821462A460348BDE80B
:100CC0003840FFF70DBE00BFA813002075120020AA
:100CD00030B50D4687B000242B5D312B03D11A4867
:100CE000E1B2002204E0302B05D11748E1B2012225
:100CF00001F0E8FF1FE01549154804F0C5FC15494F
:100D0000684604F001FE694603A804F040FE21464F
:100D100003A804F019FF104904F0E6FE295D04F071
:100D2000F5FE01460A4804F0A5FC03A804F0AAFD5C
:100D3000684604F0A7FD0134022CCDD10748FFF727
:100D40003DFE07B030BD00BFA81300202BFD0008FA
:100D5000C813002032FD00083CFD00087512002079
:100D600070B5A0B00C4606A8904904F0CDFD8F499F
:100D700009A804F0C9FD8D490CA804F0C5FD0FA811
:100D80008B49224602F0F6F88A4A0FA912A802F00F
:100D90006BFA894804F062FC8849874804F04FFCEC
:100DA00012A802F051F90A220146834804F0F5FC2A
:100DB000814804F053FC12A802F046F9052802DC31
:100DC0007F4D002405E07C487E4904F05DFC002452
:100DD000DAE012A802F038F9844280F0D48022468A
:100DE00015A812A902F060FA774A15A918A802F00E
:100DF0003BFA18A802F01FF9014606A804F0D9FD35
:100E000018A802F0DDF815A802F0DAF8089A002315
:100E10000132A5F1080606A8694604F0C8FE30466E
:100E2000694607F07DF9694915A804F06DFD15A91B
:100E300018A804F0ACFD214618A804F085FE64490A
:100E400004F052FE314604F04FFE01465A4804F0C9
:100E500011FC18A804F016FD15A804F013FD224695
:100E600015A812A902F020FA5A4A15A918A802F0EA
:100E7000FBF918A802F0DFF8014609A804F099FD73
:100E800018A802F09DF815A802F09AF80B9A002312
:100E9000013209A803A904F08AFE284603A907F035
:100EA0003FF94A4915A804F02FFD15A918A804F028
:100EB0006EFD214618A804F047FE474904F014FED1
:100EC000294604F011FE01463B4804F0D3FB18A864
:100ED00004F0D8FC15A804F0D5FC224615A812A9E8
:100EE00002F0E2F93D4A15A918A802F0BDF918A8C8
:100EF00002F0A1F801460CA804F05BFD18A802F06E
:100F00005FF815A802F05CF80E9A00230CA81BA944
:100F1000013204F04CFE224615A812A902F0C4F9D1
:100F20002E4A15A918A802F09FF918A802F083F814
:100F300005F108060146304607F0F2F818A802F05D
:100F40003FF815A802F03CF8204915A804F0DCFC95
:100F500015A918A804F01BFD214618A804F0F4FDFB
:100F60001F4904F0C1FD314604F0BEFD01461248A0
:100F700004F080FB18A804F085FC15A804F082FC9E
:100F80000134203525E7012412A802F019F80FA832
:100F900002F016F80CA804F075FC09A804F072FC25
:100FA00006A804F06FFC204620B070BD2EFE00089D
:100FB000AC1300203FFD0008C813002044FD0008CA
:100FC000CE11002067FD00087AFD000880FD0008B2
:100FD0008DFD000898FD00089CFD0008A5FD000897
:100FE000ACFD000813B5026802AB03F8011D546A9A
:100FF00019460122A04702B010BD07B503680DF1E4
:1010000007019B6A0122984701280CBF9DF8070041
:101010004FF0FF3003B05DF804FB4FF0FF30704736
:1010200008B50369186803689B69984708BD036899
:1010300010B5DB680446984708B9207F10BD012031
:1010400010BD08B503681B6B9847003018BF01201E
:1010500008BD0000F0B585B00C460646194901A848
:101060001746194D04F050FC01A8102104F028FC8B
:10107000217901A804F0F8FC294601A804F0D8FC65
:10108000617901A804F0F0FC294601A804F0D0FC25
:10109000A17901A804F0E8FC294601A804F0C8FCE5
:1010A000E17901A804F0E0FC336801991B6A3A4633
:1010B00030469847044601A804F0E4FB204605B0FA
:1010C000F0BD00BF2EFE00083500010810B5044633
:1010D00020680368DB68984710B904F003FFF7E75E
:1010E000206803681B6998472C28F1D1012010BDA6
:1010F0002DE9F04F054687B08A46104640211E462E
:101100001446129F04F0DCFB8F4BD3F800B0002094
:1011100004F0E8FE28680368DB689847002840F37D
:10112000E480286803681B699847011EF2DD2046A9
:10113000C9B204F08CFC16B9109BA3B910E031467B
:1011400003A804F0E1FB204603A904F01AFD814640
:1011500003A804F097FBB9F1000FEDD00120EFE0F8
:10116000119B9BB910E0109903A804F0CDFB204619
:1011700003A904F006FD814603A804F083FBB9F13E
:10118000000FEDD00220DBE0A7B910E0119903A811
:1011900004F0BAFB204603A904F0F3FC814603A83F
:1011A00004F070FBB9F1000FEED00320C8E0139BF0
:1011B0000BBB10E0394603A804F0A6FB204603A9A8
:1011C00004F0DFFC814603A804F05CFBB9F1000FDA
:1011D000EDD00420B4E05D4903A804F095FB20465F
:1011E00003A904F0CEFC814603A804F04BFBB9F13F
:1011F000000F11D139E0139903A804F085FB2046B4
:1012000003A904F0BEFC814603A804F03BFBB9F13E
:10121000000FE0D0052093E0684629682C2204F0F6
:1012200009FB684604F0E1FD0128814615D12968D3
:101230000A2203A804F0FEFA03A804F0D6FD8046B3
:1012400003A804F01FFB2046414904F0B2FB05EB64
:1012500088035B6883F81D9003E02046694604F02C
:10126000E2FB684604F00EFB54E73A4903A804F099
:101270004BFB204603A904F084FC804603A804F03D
:1012800001FBB8F1000F3FF445AF334903A804F068
:101290003BFBA26803A9083A204604F0AEFC804656
:1012A00008F1020803A804F0EDFA42462C2120467A
:1012B00004F095FC42460346214603A804F0C0FC16
:1012C00003A804F092FD804603A804F0DBFAB8F10D
:1012D000000F3FF41FAF05EB88035B68204683F8DF
:1012E0001C901B4904F065FB14E7174B1B68CBEB04
:1012F00003035345FFF40BAF204604F04CFDA368F5
:10130000CBB12146684604F042FB1449144804F06E
:1013100096F92021124804F08DF9694603A804F0DB
:1013200036FB03A90E4804F0A5F903A804F0AAFAB5
:10133000684604F0A7FA2046054904F03AFB00206D
:10134000C0B207B0BDE8F08FB014002019FE00084D
:101350002EFE000826FE00082CFE00082FFE0008C6
:10136000C8130020F0B589B01C4607460E4605A8F4
:101370000B49154604F0C8FA00940E9C31460194BE
:101380000F9C05AA0294109C2B4603943846FFF745
:10139000AFFE044605A804F075FA204609B0F0BD7A
:1013A0002EFE0008F0B5044685B00E4600682149BF
:1013B0001F46154604F043F920681F4904F03FF921
:1013C0000A223946206804F000FA20682C2104F033
:1013D00031F92068194904F032F92068184904F0FD
:1013E0002EF93146206804F02AF92068154904F0E6
:1013F00026F90A222946206804F0C6F91249206815
:1014000004F01DF9206803689B699847002004F0E8
:1014100069FD0E4B204600930023019302930C4973
:101420000C4A0D4BFFF79EFF431E5842584105B032
:10143000F0BD00BF3EFE000841FE00084CFE000863
:10144000E602010851FE00082CFE000870FE0008AC
:10145000F824010054FE000861FE000870B504463F
:1014600000200E46154604F03DFD0023C4F8A430CC
:10147000C4F8A030206931462A46237DFFF792FF49
:10148000003018BF0120207770BD7FB5089C0E4644
:101490000194099C1546009302944FF47A713246E8
:1014A0002B46FFF75FFF04B070BD08B500210F2089
:1014B00004F002FD40F2DC5004F014FDBDE80840E9
:1014C0000F20012104F0F8BC70B504460D460068F9
:1014D0000C49164604F0B3F82946206804F0AFF82A
:1014E00031460A22206804F070F92068064904F0A9
:1014F000A6F8206803689B699847BDE87040002003
:1015000004F0F0BC3EFE00082CFE000813B50446B3
:10151000002004F0E7FC2069227D0749FFF7D4FF93
:10152000002323770093019320690449044AFFF7BD
:10153000ACFF02B010BD00BF82FE000804FE000830
:101540004605010810B504460948FFF770FD68B963
:10155000E3785BB1E0700749074804F095F8064866
:10156000064904F091F80248FFF7D0FF10BD00BF14
:10157000AC1200202EFE0008C81300208DFE0008CB
:1015800030B5204D87B02B780446002B37D0C37878
:10159000002B34D01C491D4804F076F81B481C4928
:1015A00004F072F800231B482B70FFF740FD10B1C8
:1015B0001948FFF7B5FAA36818490133A3606846D4
:1015C00004F0A2F9694603A804F0E1F9A16803A8B0
:1015D00004F0BAFA01460D4804F04CF803A804F0F0
:1015E00051F9684604F04EF9A368092B07D9E2784F
:1015F0000023A3601AB1E3700648FFF787FF07B026
:1016000030BD00BF741200202EFE0008C813002059
:10161000CCFE0008AC1200207512002000FF00086C
:10162000F0B50F4687B00025044626493A46FFF735
:101630004BFF0095019520462349244A2B46FFF78E
:1016400024FF01281AD12046FFF740FD2046FFF76E
:101650003DFD21680A2203A804F0ECF803A804F079
:10166000C4FB064603A804F00DF900950195204639
:101670001749164A2B46FFF708FFFEB904EB87030C
:101680003A46204613495E68FFF71EFF124B0025BD
:1016900000931249124A134B01952046FFF7F5FEBD
:1016A0002B4607460095019520460949074AFFF752
:1016B000ECFE7B1E5F425F4137772E46304607B017
:1016C000F0BD00BF18FF00081BFE0008460501081A
:1016D00004FE000825FF000853FF000831FF000842
:1016E0003EFF000848FF00087FB50546002405EBD3
:1016F00084035E6846B1737F33B100237377284655
:10170000E1B2FFF78DFFF0820134052CEFD128689C
:101710000368DB68984748B1002200920192029268
:1017200028460A211346FFF71DFEF0E704B070BDFE
:10173000D0F88020D0F88430D01A48BF803070476D
:1017400038B50446002004F0CDFB237F04F12005CA
:101750008BB12846FFF7ECFF68B90A4BA2691968FC
:101760008A1AB2F5FA7F03D91B6801226277A36156
:101770002069FFF7B9FF2846FFF7DAFFE38A18442C
:1017800038BD00BFB014002038B504460D460068CF
:10179000094903F054FF2946206803F050FF2068F0
:1017A000064903F04CFF206803689B699847BDE831
:1017B0003840002004F096BB3EFE00082CFE0008D6
:1017C0002DE9FF41134B05461F680E469846D8F891
:1017D00000300024DB1BB34217D228460E49FFF726
:1017E000D3FF0094019402942846C8210B4A0C4B65
:1017F000FFF7B8FD0446012C4FF0640002D104F05D
:1018000071FB02E004F06EFBE1E7204604B0BDE8A6
:10181000F08100BFB01400202EFE000804FE000876
:10182000460501081F4B2DE9F3411F6805460E468A
:101830009846D8F80030DB1BB3422CD2002428464F
:101840001949FFF7A1FF0094019428461749184A47
:101850002346FFF71AFE012804D04FF47A7004F0F3
:1018600041FBE6E7134B14498DE81800134A144B6B
:101870002846FFF70AFE00940646019428461149BF
:101880000B4A2346FFF701FE012E06D003D3032E99
:1018900001D8022002E0002000E0304602B0BDE89E
:1018A000F08100BFB01400205EFF000865FF000853
:1018B0004605010884FF00086EFF000874FF000859
:1018C0007CFF000804FE00087FB542F21071054657
:1018D000FFF776FF58B3002428462149FFF754FF4D
:1018E000009401940294284642F210711D4A1E4B46
:1018F000FFF738FD01281AD128461C49FFF744FF9D
:10190000009401940294284642F21071154A164B35
:10191000FFF728FD01280AD140F6B83004F0E2FABA
:10192000284642F21071FFF74BFF064608B9002621
:1019300012E028460E49FFF727FF0094019428463D
:101940000849094A2346FFF7A0FD0128EFD12846A0
:1019500042F21071FFF766FF304604B070BD00BF61
:1019600091FF000804FE00084605010899FF0008E1
:10197000A3FF0008F7B5154F154E0024054615497D
:10198000FFF702FF32462346394600940194284669
:10199000FFF77BFD28461049FFF7F6FE3246234647
:1019A0003946009401942846FFF76FFD28460B49FD
:1019B000FFF7EAFE00940194284639463246234652
:1019C000FFF763FD012003B0F0BD00BF04FE000877
:1019D00046050108A9FF0008B4FF0008C4FF00087D
:1019E0001FB54FF4165104461B4803F03FFD1B483A
:1019F000FFF75BFD40F6B83004F074FA1849194857
:101A000003F04CFE1848FFF75FFF17481749FFF730
:101A1000BBFE002300930193029313484FF47A71A5
:101A2000134A144BFFF79EFC012803D00D481249BE
:101A300003F02AFE4FF4FA6004F054FA0A48FFF764
:101A400099FF4FF47A7004F04DFA0023A37063708D
:101A50002370E37004B010BDF8130020841300203D
:101A6000D3FF0008C813002060130020E9FF00081E
:101A700004FE000846050108F4FF000870B5174988
:101A800086B000240546FFF77FFE009401942846A7
:101A90001349144A2346FFF7F8FC01281BD12846B6
:101AA000FFF714FB2846FFF711FB29682C2203A837
:101AB00003F0C0FE03A804F098F986B203A803F06F
:101AC000E1FE0094019428460749064A2346FFF7A1
:101AD000DCFC304600E0204606B070BD0300010883
:101AE000080001084605010804FE000808B5024880
:101AF000FFF7C4FF08BD00BF6013002070B5164992
:101B000086B000240546FFF73FFE00940194284666
:101B10001249134A2346FFF7B8FC012818BF0420D6
:101B200017D12846FFF7D2FA29680A2203A803F042
:101B300081FE03A804F059F9064603A803F0A2FEAB
:101B40000094019428460749054A2346FFF79DFC67
:101B5000F0B206B070BD00BF100001081700010808
:101B60004605010804FE00082DE9F04144780546C9
:101B700074BB1949194803F087FD1848184903F048
:101B800063FD184B1F689846D8F800204EF65F2377
:101B9000D21B9A420BD81448FFF7B0FF00F0FB06A7
:101BA000012E0FD04FF47A7004F09CF9ECE70F4946
:101BB0000A4803F069FD42F2107004F093F9002323
:101BC0006B7005E06E700548094903F05DFD344611
:101BD0002046BDE8F08100BF2EFE0008C81300209B
:101BE00020000108B0140020601300203700010815
:101BF000540001081FB50A490446FFF7C5FD00233C
:101C000000930193029320464EF66021054A064B4D
:101C1000FFF7A8FB431E5842584104B010BD00BF57
:101C20008100010804FE00084605010830B530496E
:101C300085B000240546FFF7A7FD009401942846CF
:101C40002C492D4A2346FFF720FC012801D0012012
:101C50004BE028462949FFF797FD274A23462849A4
:101C6000009401942846FFF710FC28462549FFF709
:101C70008BFD00940194029428462349234A1E4B6D
:101C8000FFF770FB012802D0214822492AE01C4AB4
:101C9000194B4FF47A710094019402942846FFF78F
:101CA00061FB28461C49FFF76FFD0094019428460C
:101CB0001A49114A2346FFF7E8FB012802D01448CD
:101CC00017490FE028461749FFF75EFD009401947D
:101CD00028461549084A2346FFF7D7FB0128B6D006
:101CE0000B48124903F0D0FC204605B030BD00BFC0
:101CF0001000010817000108460501088A000108C4
:101D000004FE0008A6000108084C0100B10001080B
:101D1000C8130020BB000108DB000108E80001082F
:101D2000F9000108120101081F0101083001010832
:101D300038B543780446ABB183789BB90A490B4860
:101D400003F0A2FC0A48FFF771FF054607482DB1D2
:101D5000084903F099FC0123A37038BD064903F03C
:101D600093FCA57038BD00BF2EFE0008C8130020EC
:101D700060130020590101089601010870B514494B
:101D800086B000240546FFF7FFFC00940194284626
:101D90001049114A2346FFF778FB012818BF63203A
:101DA00014D129682C2203A803F044FD03A804F0F1
:101DB0001CF8064603A803F065FD0094019428462C
:101DC0000649054A2346FFF760FB304606B070BD62
:101DD000D5010108DA0101084605010804FE0008E2
:101DE000F0B5C4788BB00546002C40F03E81A04988
:101DF000A04803F049FCA04904A803F085FD04A90C
:101E000007A803F0C4FD9D4907A803F06DFE014635
:101E1000984803F007FC07A803F034FD04A803F07A
:101E200031FD9748954942F22832FFF717FBB0B9C8
:101E30009449904803F028FC42F2107004F052F8E4
:101E40006B68EC7001330A2B01D86B600DE16C609C
:101E50006C702C708C48FFF7CDFEAC7005E18B499F
:101E6000844803F011FC884E0123EB7088496C60B4
:101E7000804803F009FC3046FFF780FF854F864914
:101E8000386004A803F040FD04A907A803F07FFD13
:101E9000396807A803F04EFE0146764803F0EAFBD6
:101EA00007A803F0EFFC04A803F0ECFC30467B49E4
:101EB000FFF76AFC0094019430467949794A234639
:101EC000FFF7E3FA012804D004A8694903F01CFDD8
:101ED00016E007A831680A2203F0ACFC7249714A87
:101EE0002346009401943046FFF7CFFA07A803F089
:101EF00052FF04A807A903F0B6FC07A803F0C2FC30
:101F000004A96A4803F04DFD04A803F0BBFC68492E
:101F100007A803F0F9FC654907A803F0D8FD5A4E5D
:101F20000146544803F0A6FB07A803F0ABFC0024CD
:101F300030466049FFF728FC0094019430465E4922
:101F4000584A2346FFF7A1FA012804D004A84849BB
:101F500003F0DAFC16E007A831680A2203F06AFCF5
:101F60005149504A2346009401943046FFF78DFAB8
:101F700007A803F010FF04A807A903F074FC07A842
:101F800003F080FC04A94D4803F00BFD04A803F006
:101F900079FC4B4907A803F0B7FC484907A803F0B0
:101FA00096FD0146334803F065FB07A803F06AFC81
:101FB000AB78002B44D0344E002430464149FFF723
:101FC000E3FB00940194029430463F493F4A354B6D
:101FD000FFF7C8F9012804D004A8254903F094FCB0
:101FE00016E007A831680A2203F024FC2E492D4A86
:101FF0002346009401943046FFF747FA07A803F000
:10200000CAFE04A807A903F02EFC07A803F03AFCB7
:1020100004A92F4803F0C5FC04A803F033FC2D49A4
:1020200007A803F071FC2A4907A803F050FD0146F8
:10203000104803F01FFB07A803F024FC0023AB703B
:1020400025490C4803F020FB2448FEF793FB174872
:1020500003F0A1FE194803F09EFE1D4803F09BFE0D
:1020600004481F4903F010FB012420460BB0F0BDCB
:102070002EFE0008C8130020E201010809FE000836
:10208000AC120020F80101086013002019020108B9
:102090003902010890130020DD0101084E020108F9
:1020A0002CFE00084605010804FE000894120020DA
:1020B0000EFD0008530201085A020108981300207F
:1020C000640201086D020108084C01007702010852
:1020D000A012002080020108890201087512002068
:1020E00091020108F8B504460D4600680E491646EF
:1020F0001F4603F0A4FA2946206803F0A0FA3146EF
:10210000206803F09CFA3946206803F093FA2068AF
:10211000064903F094FA206803689B699847BDE874
:10212000F840002003F0DEBE3EFE00082CFE000852
:102130002DE9F04304468FB00025904689461F469E
:10214000FFF758FD20469B49FFF71EFB9A499B4A23
:102150002B46009501952046FFF797F920469849B0
:102160004A462223FFF7BEFF00950195204692497B
:10217000924A2B46FFF789F9B8F1000F0DD020469F
:10218000904942462223FFF7ADFF00950195204676
:1021900089498A4A2B46FFF778F96FB120468A4968
:1021A0003A462223FFF79EFF002300930193204627
:1021B0008149824AFFF769F9804E0025204683490C
:1021C0004A462223FFF78EFF32462B467A49009576
:1021D00001952046FFF759F920467D49FFF7D4FACB
:1021E000754A33464EF660210095019502952046CA
:1021F000FFF7B8F820467749FFF7C6FA6E4A33462C
:1022000075490095019502952046FFF7ABF82046E9
:102210007249FFF7B9FA009501950295204647F2F9
:102220003051654A3346FFF79DF8012801D000255B
:10223000BCE020466A49FFF7A7FA00950195029590
:1022400020464EF660215C4A3346FFF78BF80128A2
:10225000EDD120466349FFF797FA00950195204696
:10226000554932462B46FFF710F90128DFD12046A9
:102270005D49FFF789FA0095019520464E4932469F
:102280002B46FFF702F90128D1D120465749FFF725
:102290007BFA009501952046474932462B46FFF7C9
:1022A000F4F80128C3D15249206803F0C8F9514914
:1022B000206803F0C4F94946206803F0C0F94E498C
:1022C000206803F0BCF94146206803F0B8F94A4998
:1022D000206803F0B4F93946206803F0B0F94749A3
:1022E000206803F0ACF94649206803F0A8F920689B
:1022F00003689B699847284603F0F4FD0095019513
:10230000029520464EF660212B4A3346FFF72AF805
:1023100001288CD120463B49FFF736FA00950195FC
:10232000029520464EF66021234A3346FFF71AF8FD
:1023300001287FF47CAF20463349FFF725FA334963
:1023400005A803F0E1FA0096019502950395204651
:1023500042F2107105AA184BFEF7CAFE012813D0ED
:1023600008A8274903F0D0FA0BA8284903F0CCFAB3
:1023700005A808A90BAA03F089FC0BA803F082FAB0
:1023800008A803F07FFA0EE020462149FFF7FCF988
:102390002B4600950195204607493246FFF775F810
:1023A000431E5D425D4105A803F06CFA28460FB05C
:1023B000BDE8F0838A00010804FE00084605010814
:1023C000B0020108C3020108D7020108EA020108AD
:1023D000FC02010807030108084C0100A6000108DF
:1023E000120301081B03010825030108310301083A
:1023F0003EFE00083D030108E602010871060108DF
:102400002CFE0008450301084C0301082EFE0008BD
:102410005603010838B50478054634BB43781BB32E
:102420001349144803F030F91349124803F00CF92A
:102430001249104803F003F911481049114A124B90
:10244000FFF776FE04460B4844B9104903F01CF927
:1024500042F2107003F046FD2C7006E00C4903F0C8
:1024600013F901232B7000E00124204638BD00BF82
:102470002EFE0008C8130020730301084E05010852
:1024800060130020F8FD00084505010882030108DB
:102490009F0301082DE9F04104460E4600681249E9
:1024A0001F469046069D03F0CAF83146206803F0A7
:1024B000C6F841460A22206803F087F939462068A9
:1024C00003F0B8F829460A22206803F091F9206841
:1024D000064903F0B4F8206803689B699847BDE893
:1024E000F041002003F0FEBC3EFE00082CFE000878
:1024F000F0B587B00025044600920F4616461C49E9
:102500001A462C23FFF7C6FF00950195204619496E
:10251000194A2B46FEF7B9FF012802D04FF0FF34CD
:1025200022E020683946036832469B689847206855
:1025300003689B6998470095019520460F490E4A0C
:102540002B46FEF7A2FF0128E8D12046FEF7BEFD8C
:10255000216803A80A2203F06DF903A803F045FCE3
:10256000044603A803F08EF9204607B0F0BD00BF73
:10257000BF0301089401010846050108C9030108C9
:1025800070B5044600200E46154603F0ABFC2069EA
:10259000FFF7AAF8206931462A46237DFFF7A8FFF6
:1025A00070BD000070B58D680E460135284604F0F8
:1025B000C5FD04460023304621462A4603F0F7FABB
:1025C00021462A460348FFF7DBFF204604F0BEFD04
:1025D000012070BDAC1200202DE9F04186B000252D
:1025E000044600912C232F491646FFF753FF009510
:1025F000019520462C492D4A2B46FEF746FF01281F
:102600004BD12046FEF762FD2046FEF75FFD2168B4
:102610002C2203A803F00EF903A803F0E6FB0746FB
:1026200003A803F02FF904EB860603A821680A2209
:10263000D6F8048003F0FEF803A803F0D6FBA8F850
:10264000160003A803F01EF9BD421ED020680368DF
:10265000DB68984710B903F045FCF7E7206803688A
:102660001B69984773685FFA80FED3F8A010D3F80F
:10267000A4004A1C02F07F02824204D0194481F86F
:1026800020E0C3F8A0200135DEE70023009301938A
:1026900020460749054AFEF7F8FE284606B0BDE881
:1026A000F08100BFD80301081BFE000846050108A1
:1026B00004FE00082DE9F74F0446002089460192E8
:1026C00003F010FC2069FFF70FF80025019B9D42E5
:1026D00045D2019B04F1200B5846C5EB0308FFF7D8
:1026E00027F8404538BF8046B8F1000F24D0474650
:1026F000CA465846FFF71CF810B9C1444544E5E7FF
:10270000D4F8A430C3F18006B742B8BF3E46864233
:10271000A8BF06460BEB030150463246009304F077
:10272000EDFF009BBF1B03EB060C0CF07F02C4F80F
:10273000A420B244E1D0DCE72069FEF7D5FFE38AAC
:102740006BB1D4F8A420D4F8A0302069D11A0029A4
:10275000D8BF80310139227DFFF73EFFB6E728461A
:1027600003B0BDE8F08F0000F7B5002400942146C7
:1027700022462346284802F01DFF284B284A2948B4
:102780001A604FF47A728260274A284E284F0260FE
:10279000012203619860274D4460C0F8A440C0F84E
:1027A000A0400275C4828461047744773146224C8C
:1027B000384603F0A9F83846204F2246294603F050
:1027C00097FC3146384603F09FF838461C4F2246A6
:1027D000294603F08DFC314638461A4E03F094F832
:1027E00022462946384603F083FC3046164903F05A
:1027F0008BF83046154E2246294603F079FC3046C8
:10280000134903F081F830462946224603B0BDE85B
:10281000F04003F06DBC00BF781200206013002070
:10282000F8130020AC120020C0FD00082EFE0008A6
:1028300094120020855800080800002098130020FA
:10284000A012002054130020E50301087813002093
:10285000EC03010870B506468AB00D46084680496B
:1028600003F07CF9002840F0F88001A87D492A4651
:1028700000F080FB07A87B4901AA00F089FB07A8AC
:10288000794903F06BF9044607A802F0FBFF14B185
:1028900076487749DCE0774907A803F035F801AAC4
:1028A00004A8704900F074FB04A907A803F00FF90D
:1028B00001466E4802F0DEFE04A802F0E3FF07A81E
:1028C00002F0E0FF01A86C4900F006FC20B3B46000
:1028D0006349664802F0D8FE6849644802F0AFFEDA
:1028E000654A07A801A900F0BFFC07A95F4802F0EC
:1028F000DFFE07A800F064FB01A95F4A07A800F00B
:10290000B3FC07A800F097FB044607A800F058FBAB
:102910005B482146FEF754F901A85A4900F0DCFB58
:1029200020B301A8584900F0D7FB002800F092809E
:1029300001A9544A07A800F097FC07A800F072FB11
:10294000044607A800F03CFB01A94F4A07A800F085
:102950008BFC07A800F066FB054607A800F030FBDB
:10296000474821462A46FEF77BF973E001A847490C
:1029700000F0B2FB08B346493C4802F060FE434A0F
:1029800007A801A900F070FC07A9384802F090FEE2
:1029900007A800F015FB01A93C4A07A800F064FC59
:1029A00007A800F048FB3B4C206007A800F008FB9C
:1029B00033482168FEF78CF94CE001A8364900F055
:1029C0008BFB002842D001A9334A07A800F04CFC39
:1029D00007A800F027FB314C206007A800F0F0FAB0
:1029E0002F482178FDF714FD23682048012B04D0DF
:1029F000022B0FD083B92B492AE02B4902F044FE69
:102A0000294607A802F0C3FF1D4807A9FEF7A8F949
:102A100007A818E025491BE0254902F035FE2549A5
:102A200004A802F071FF04A907A802F0B0FF216812
:102A300007A803F07FF801460C4802F01BFE07A828
:102A400002F020FF04A802F01DFF03E007481A4926
:102A500002F01AFE01A800F0B3FA0AB070BD00BF80
:102A60002EFE0008AC130020F3030108C813002059
:102A7000FD030108350401084E0401085204010851
:102A800076120020F0FC0008F6FC00081DFD00088E
:102A90006604010890120020A40401089413002089
:102AA000C41100207E0401088E040108A904010855
:102AB000C3040108DD040108EC04010830B5234B10
:102AC00087B01C681D462248FEF7B1FA00283AD0AC
:102AD0002B681B1BB3F5FA6F35D21D48FEF730FE8D
:102AE0000028F0D00A226846194902F0A3FE1949CD
:102AF000194802F0C9FD1949174802F0C5FD03A89D
:102B0000174902F001FF694603A802F0E0FF1549EA
:102B100002F0EAFF0146104802F0ACFD03A802F003
:102B2000B1FE0D4802F028FC694603A802F02FFF11
:102B300003A90D48FFF78EFE03A802F0A3FE684626
:102B400002F0A0FEBFE707B030BD00BFB014002008
:102B5000AC1200202EFE0008C81300201905010841
:102B6000400501082DFE000884130020234B30B5DA
:102B70001A68234C22F0E06242F0007287B01A60BB
:102B8000204600F08BF820461E4C00F0C7F81E4D82
:102B90004FF4E131204602F069FC1C48FDF729FCA6
:102BA00001F009FF2846FEF71BFFFDF7BBFDFDF70F
:102BB000D3FD2846FEF79AFF154D16492860684652
:102BC00002F0A2FE694603A802F0E1FE296803A80C
:102BD00002F0BAFF104902F087FF0146204602F0DA
:102BE00049FD03A802F04EFE684602F04BFE0B487A
:102BF0000B4907B0BDE8304005F092BA040001402F
:102C0000A8130020C813002084130020C511002041
:102C1000A41300205405010865050108E6110020F1
:102C20006805010808B51748FEF79EFF10B9164859
:102C3000164905E01348FFF7EDFB28B9124814497F
:102C4000BDE8084002F020BD0E48FFF771F80D48BE
:102C5000FFF7C6F810B90C480E49F1E70948FFF72D
:102C60002DFF0848FEF76EFC0648FEF789FC064873
:102C7000094902F009FDBDE808404FF4FA7003F07D
:102C800031B900BF84130020C8130020710501086A
:102C900091050108B10501083300010808B50320BA
:102CA000002103F0B1F80420002103F0ADF80F205B
:102CB000002103F0A9F8BDE808400520002103F039
:102CC000A3B8000010B5144611B101290AD013E0D1
:102CD0000320114603F0F0F80A480CB10A490DE050
:102CE0000A490BE00420114603F0E6F805480CB150
:102CF000074903E0074901E002480749BDE81040E1
:102D000002F0C2BCC8130020D5050108E005010887
:102D1000EA050108F5050108FF05010810B50A4C90
:102D20000520012103F0C8F8204600210122FFF709
:102D3000C9FF012120460A46FFF7C4FFBDE8104045
:102D40000F20012103F0B8B8A813002008B5162001
:102D5000002103F059F81720002103F055F8162040
:102D6000012103F0A9F8BDE808401720012103F074
:102D7000A3B81720002103F047B81720042103F05F
:102D800043B808B5FFF7F5FF1720012103F094F8C9
:102D90000121162003F090F8052003F0B1F800217E
:102DA000172003F089F8062003F0AAF8BDE80840D0
:102DB0001620002103F080B808B5FFF7DAFF1620CF
:102DC000002103F079F81720002103F075F80121A4
:102DD000162003F071F8062003F092F81720012165
:102DE00003F06AF8BDE80840062003F089B810B582
:102DF00000210446162003F05FF82046FFF7B9FFD4
:102E00000021172003F058F8022003F079F801217F
:102E1000162003F051F8052003F072F8BDE81040C9
:102E20001620002103F048B810B5002104461620F2
:102E300003F042F82046FFF79CFF0121172003F022
:102E40003BF8022003F05CF80121162003F034F86F
:102E5000052003F055F8BDE810401620002103F0CE
:102E60002BB870B50646FFF788FF0121172003F045
:102E700023F8012003F044F81620012103F01CF888
:102E8000012003F03DF8FB25172002F0FFFF044668
:102E900040B1013D15F0FF05F6D13046FFF78CFF3C
:102EA000012070BD1620214603F006F8204670BDB3
:102EB00038B50C46FFF75DFF1620002102F0FCFF3D
:102EC000082524F07F0303F0FF01172003B101213F
:102ED00002F0F2FF0121162002F0EEFF022003F0C3
:102EE0000FF81620002102F0E7FF013D02206400E8
:102EF00003F006F815F0FF05E4B2E2D138BDF8B5ED
:102F000005460F46FFF739FF08260024002116204A
:102F100002F0D2FF022002F0F3FF1620012102F09E
:102F2000CBFF64001720E4B202F0B0FF08B1013417
:102F3000E4B20120013E02F0E3FF16F0FF06E5D106
:102F4000284617B9FFF770FF01E0FFF750FF204652
:102F5000F8BD0000014B0360704700BF2006010868
:102F600010B5034B0446036002F04CFF204610BD31
:102F70002006010810B51146044600F0BDF82046B1
:102F800010BD10B51146044600F0C4F8204610BD2F
:102F900010B51146044600F0DBF8204610BD0000D5
:102FA0000348044B0449054A036003F0A1B800BF7D
:102FB000AC13002020060108552F0008080000204F
:102FC00038B5064B04460360406820B1A56815B9C2
:102FD00000F020FE6560204638BD00BF30060108C5
:102FE00010B50446FFF7ECFF204602F00BFF204629
:102FF00010BD406838B50D4658B101F025F80446BB
:103000002146284602F01BFB0546204601F034F914
:10301000284638BD024A0260002242608260704742
:103020003006010810B50446406801F008F908B1FF
:103030006368586910BD10B50446406801F006F990
:1030400008B16368186910BD10B50446406801F006
:10305000FDF828B16368BDE81040186A05F0BEB8F5
:10306000606801F0FAF820B16068BDE8104000F037
:10307000EEBF4FF0FF3010BDB0B5044600AF48685A
:103080000D4601F0F1F820B9124B60602360A0609A
:103090001CE0686800F0DBFF83000A3323F00703BD
:1030A000ADEB030D6B6801469A68684600238B42BE
:1030B00005DA156A40F8235012680133F7E701F08A
:1030C00081F8044B606023600023A3602046BD4666
:1030D000B0BD00BF3006010838B5044640680D4653
:1030E00001F0C2F830B16068294600F0BEFF003040
:1030F00018BF012038BD000010B50446086800F074
:103100009FFF034B606023600023A360204610BD37
:103110003006010830B5496885B0044611B902F09F
:10312000F3FB11E0084600F08FFF0546294601A891
:1031300002F0EAFB284601F09FF8204601A902F0C0
:1031400092FB01A802F09EFB204605B030BD0000B6
:1031500038B54D680446002D31D0284601F05BF8A3
:1031600000282CD1284601F05DF810B120461749FF
:1031700027E0284601F05DF810B12046144920E010
:10318000284601F05CF810B12046124919E02846A3
:1031900001F05CF810B120460F4912E0284601F01A
:1031A0005CF810B120460D490BE0284601F05CF8B0
:1031B00010B120460A4904E020460A4901E00A49C4
:1031C000204602F0A1FB204638BD00BF40060108A2
:1031D000480601084D060108540601085B0601086F
:1031E0006106010868060108F303010838B545685F
:1031F00004464160DDB18068A0B101F035F830B11E
:10320000A068296A6268BDE8384001F063B8A06828
:1032100001F023F858B1A06829466268BDE838403B
:1032200000F028BF2846BDE8384000F0F3BC38BDA8
:1032300010B50446084603F0B3F800F05DFF014600
:103240002046BDE81040FFF7D1BF10B50446084640
:1032500000F086FF01462046BDE81040FFF7C6BFDC
:103260000968FFF7F2BF000070B5054648680C46D4
:10327000164600F0F9FF28B900F098FF01462046F5
:10328000FFF7B4FF6068314600F0EFFE18B96068E0
:10329000314600F01DFF6368024A68602A60AB6037
:1032A000284670BD30060108F8B5054648680C464A
:1032B000174600F0D2FF28B900F06CFF0146204607
:1032C000FFF794FF6068394600F0C9FE064660B912
:1032D000606800F0BCFE874207DB00F0EDFE0646AA
:1032E0003146606800F0C4FEF2E76368024AAB60F2
:1032F00085E844002846F8BD300601080448054B1F
:1033000005490360054A00234360836002F0F0BE74
:10331000B013002030060108C12F0008080000206B
:1033200010B500221346815CA1F13004092C01D8AC
:10333000303B0AE0A1F14104052C01D8373B04E001
:10334000A1F16104052C0AD8573B032A0B4402F172
:10335000010218BF1B01042AE5D1184610BD002048
:1033600010BD2DE9F0470B688A688146551C9E18F0
:103370009A5C8846222A1D4440F0CA804C682F4639
:103380000022F91AA14280F0C3803978222909D09D
:103390005C2905D10137F91AA14280F0B9800132C8
:1033A0000137EEE7C2F10102B81BD8F81030104423
:1033B00098478246002800F0AB800446BD4280F06A
:1033C0008B802B785C2B03D0237001350134F5E71B
:1033D0007A1B002A40F390806B78662B19D00CD8AA
:1033E0002F2B17D002D8222B14D085E05C2B11D0C4
:1033F000622B40F0818008230CE0722B0ED003D8A2
:103400006E2B79D10A2305E0742B09D0752B09D0D6
:1034100072E00C232370013402235BE00D23F9E7F3
:103420000923F7E7052A67DDA81CFFF779FFA0F558
:103430005C43B3F5806F06465ED3A0F55843B3F501
:10344000806F1CD2AB1DFB1A052B55DDAB795C2BB5
:1034500052D1EB79752B4FD105F10800FFF760FFD2
:10346000A0F55C43B3F5806F46D2C0F30900C6F304
:10347000090640EA862606F580360C2306E07F28FA
:103480004FF006030BD9B0F5006F0BD3B6F5803FB4
:103490000BD3B6F5881F2FD2F021042207E00021BC
:1034A000012204E0C021022201E0E0210322501E9B
:1034B000C0B240B106F03F0C6CF07F0C04F800C0C5
:1034C000B6090138F4E7012A14BF0E4306F07F065F
:1034D000267014441D4471E7002323701023C9F89B
:1034E0000C30D8F80030C9F810A0FB1A0133C8F826
:1034F00008300120BDE8F087D8F8143050469847CE
:10350000D8F80030ED1AC8F808500020BDE8F08760
:10351000002DF5D1F9E710B590B102687AB1416894
:1035200083688B4202D38B4206D010BDD45C202C22
:10353000F9D801338360F3E7013B836010BD104687
:1035400010BD28B1806818B111B101390068FAE7DF
:10355000704761B160B183680BB9816005E01A689A
:103560000AB11346FBE719604B600120704708461B
:10357000704738B5044638B1006828B1A5682844BA
:1035800004F02CFE2844A06038BD70B50446002825
:103590003ED0006800283DD0636813B1A2689A420B
:1035A00037D2002935DBA268561C0E449E4201D852
:1035B000104470BD2369002B2BD1B6F1804F06D388
:1035C000002EA8BF6FF0004602DA184670BD7600E4
:1035D000236A23B1314698470546A0B904E0A369A0
:1035E00030469847054630B92068E36998476560DA
:1035F0002560284670BDA2682168013204F07EF87B
:10360000E36920689847A06884E86000284470BD9A
:1036100070BD002070BD00002DE9F8430746084644
:1036200011B90020BDE8F88317B13A4600250DE036
:103630000321FFF7AAFF0028F3D0384904F070FDFA
:1036400068E00D2B0DD80C2B06D30135904612F8EF
:10365000013B002BF5D10CE0A3F10801022904D8AD
:10366000F3E7222BF1D05C2BEFD01F2B98BF053551
:10367000ECE7C7EB0808A84408F10301FFF785FF52
:1036800006460028CDD04FF02209013086F8009080
:1036900045B946443946424604F030F886F8019070
:1036A000B57037E0044617F8013B7BB31F2B06D9F2
:1036B000222B04D05C2B02D02370204624E05C2314
:1036C000237017F8012C601C0C2A12D007D8092A85
:1036D00013D00A2A0FD0082A12D162230EE0222A20
:1036E00005D05C2A03D00D2A0AD1722306E062704D
:1036F0000AE0662302E06E2300E07423637003E0B7
:10370000074904F01FFB601D441CCCE746442222FD
:103710007270B3700120BDE8F88300BF7006010825
:10372000730601082DE9F8430D4600284CD0002906
:103730003FD084685AB9254B1E680EE0216A0029E3
:103740003DD0284604F0CEFB002838D02468002C59
:10375000F4D131E0206A18B92468002CFAD12BE0AA
:1037600085422CD000216B5CF21892F801C0425CBB
:103770000CF0030CB7187F78BCF1010F07F00307BA
:103780000CBF03F120099946012F0CBF02F120085C
:103790009046C14503D10131002BE4D10FE0BCF1CB
:1037A000010F08BF2033012F08BF20329342D3D12D
:1037B00005E00846BDE8F8832046BDE8F883236AA3
:1037C000002B14BF20460020BDE8F8830409002028
:1037D00010B5034628209847044618B10021282236
:1037E00004F068F8204610BD2DE9F0410E468AB07D
:1037F0000546002800F08081002900F07D81047BCF
:10380000082C39D007DC022C2BD0042C15D0012C2D
:1038100040F072811AE0202C00F08B8007DC102C25
:1038200040F06A810069FFF7F7FE044665E1402C2D
:1038300000F0C380802C69D05EE108460521FFF7C7
:10384000A4FE002800F05881A04912E00846062195
:10385000FFF79BFE002800F04F819D4904F060FCBB
:103860004BE108460521FFF790FE002800F0448157
:10387000984904F055FC3DE1D0E9064500220023BB
:103880002046294602F0F2FD0022002303F056F8FC
:1038900003AF30B938468D4904F042FC4FF00408BC
:1038A0001FE08D4922462B46384604F04BFA8B49DF
:1038B00080466A46384604F06BFA012806D1DDE9F5
:1038C000000122462B4603F039F830B938468449C6
:1038D00022462B4604F036FA8046B8F1190F00F262
:1038E0000B81304608F10101FFF74FFE002800F080
:1038F00003810023434503D0FA5CC2540133F9E746
:103900000022C254B2681344B360F3E00069002897
:1039100000F0F28004F062FC441C21463046FFF7C0
:1039200034FE002800F0E8802969224603F0E6FE14
:10393000E0E0846808460121FFF727FE002800F038
:10394000DB805B230370B3680133B360F36801333A
:10395000F3603CB320463146FFF746FF002800F0F5
:10396000CB803046FFF705FE2368CBB17369304644
:10397000002B0CBF01250225691CFFF706FE00285D
:1039800000F0BA802C23037073690BB9431C02E06A
:103990002022831C427000221A70B3681D44B56057
:1039A0002468D6E730460221FFF7EFFD002800F03B
:1039B000A3805D230370447099E04B698468002BF9
:1039C0000CBF012502250846691CFFF7DEFD002813
:1039D00000F092807B230370F3680133F360736916
:1039E0000BB10A234370B3681D44B5607369002CA2
:1039F00056D083B13046F168FFF7C7FD00287BD071
:103A00000023F268934203D20922C2540133F8E73B
:103A1000B3681A44B260206A3146FFF7FDFD002802
:103A20006AD03046FFF7A5FD73693046002B0CBF06
:103A3000012502252946FFF7A8FD00285CD03A237E
:103A4000037073690BB109234370B36820461D44AA
:103A5000B5603146FFF7C8FE00284DD03046FFF76D
:103A600088FD75692368003518BF0125002B18BF34
:103A700001353046691CFFF788FD00283CD02368DB
:103A800013B12C2303700130736913B10A2303703F
:103A9000013000230370B36824681D44B560A5E7B6
:103AA00013B1F168013100E002213046FFF76DFDEE
:103AB00010B37369BBB10346F268191A013A914217
:103AC00010D2092203F8012BF6E700BF48060108CF
:103AD000790601087F060108840601088B060108A3
:103AE0008F06010818467D23037000234370F36896
:103AF000013BF360012400E0002420460AB0BDE849
:103B0000F08100BF70B5064668B104F067FB074B53
:103B1000451C1B6828469847044628B131462A466A
:103B200003F0ECFD00E070BD204670BD0C000020ED
:103B3000F8B514460646F8B1F1B1EAB123B1D76839
:103B40000D4647F4007707E00846FFF7DBFF054620
:103B500090B1E76827F40077E3689B0504D4206AF6
:103B600010B1064B5B6898472562E76030462146F6
:103B7000BDE8F840FFF7EDBC0020F8BD0C000020C8
:103B8000F0B5234C8BB00D4624220021064601A837
:103B900003F090FE23684FF4807098474FF48072D2
:103BA000034606950AAD01900292274694E8070065
:103BB00005E9070023B3304601A9FFF715FEF8B168
:103BC00001A8FFF7D6FCA568039925B1019801313A
:103BD000A847D0B914E02368481C9847064678B136
:103BE000039A029B01329A4228BF1A46019903F0B8
:103BF00085FD039BF554019863689847304604E0BF
:103C0000019808B17B68984700200BB0F0BD00BF59
:103C10000C00002070B50446E4B1E3682668DA05BC
:103C200003D4A06808B1FFF7F5FFE3680A4D13F469
:103C3000807F03D1206908B16B689847E3689B05D2
:103C400003D4206A08B16B68984720466B68984790
:103C50003446E1E770BD00BF0C000020000000000A
:103C60002DE9F047074692B00E46002900F06E811C
:103C70000D68002D00F06C818C68D1F8048004F18F
:103C80000409C1450AD82819A349042204F0D6FA28
:103C900020B90423FB60C6F808907DE004F1050A12
:103CA000C2450AD828199D49052204F0C7FA20B94F
:103CB0000120F860C6F808A04DE1C1450CD82819CC
:103CC0009749042204F0BAFA30B902230120FB60BC
:103CD0007861C6F808903EE1444580F03B812B5D59
:103CE0002919222B04D138463146FFF73AFB32E13D
:103CF0002D2B03D0A3F13002092A51D800220192C2
:103D0000C4EB0804A2420DF1080813D08B5C392BD8
:103D100007D8302B09D22D2B07D02E2B05D02B2BDB
:103D200002E0452B01D0652B04D108F802300132A6
:103D30003F2AE7D112AB1A444FF0000A404601A9CE
:103D400002F840AC05F018FDDDF804900446C145CA
:103D50000D4623D06EA3D3E90023C7E9064502F040
:103D60000BFE10B16FF0004308E020462946002208
:103D70006C4B02F0F7FD18B14FF000437B6104E09B
:103D80002046294602F00CFE78610823FB60B368E8
:103D9000C8EB09084344B3600120DCE05046DAE098
:103DA0005B2B50D1F368B3F57A7F80F0D380013379
:103DB000F3602B5D5B2B40F0CD800134B460304666
:103DC000FFF7A9FBB368726893425BD23268D25C9A
:103DD0005D2A2BD0013B4FF00008B36044463069A8
:103DE000FFF7F6FC054648B324B1C8F80000C0F858
:103DF000048000E00446B36830460133B360FFF747
:103E00008AFB28463146FFF72BFFD0B13046FFF73B
:103E100082FBB3687268934213D23268D35C2C2B56
:103E200002D05D2B0DD102E0A846D8E70024F3684C
:103E3000013BF3602023FB60BC607FE0002C00F0BE
:103E4000898020467FE07B2B40F08480F368B3F5C7
:103E50007A7F7FD20133F3602B5D7B2B7AD10134E3
:103E6000B4603046FFF757FBB3687268934209D2DB
:103E70003268D25C7D2A5AD0013B4FF00008B36013
:103E800045463AE0013BB36064E0002D3CD0C8F801
:103E90000000C0F80480B36830460133B360FFF718
:103EA0003AFB20463146FFF75CFA00284AD03046FC
:103EB000FFF731FB23697268236200232361B36833
:103EC00093423FD23268D25C3A2A3BD10133B3608D
:103ED0003046FFF720FB20463146FFF7C1FE0028A1
:103EE00030D03046FFF717FBB3687268934229D28F
:103EF0003268D35C2C2B17D1A0463069FFF768FCE1
:103F000004460028C1D11CE00546C4E7AFF3008099
:103F10000000C0FFFFFFDF414806010879060108E5
:103F20007F0601080000E0C17D2B0BD100E00025D9
:103F3000F368013BF3604023FB60BD60B36801336D
:103F400029E73DB12846FFF765FE03E0084602E099
:103F5000284600E0002012B0BDE8F087AFF30080F3
:103F60002DE9F04389B004460E46914601A8002190
:103F70001C2203F09FFC2F4B00271F605F609846B8
:103F8000002C53D02046019404F028F92A4B01302C
:103F9000029093E8070008AB03E90700FFF718FC5D
:103FA0000546002831D0019878B1039B53B9029B94
:103FB000042B09D92149032204F040F920B9032335
:103FC000039301E0384600E001A8FFF7A4FA014698
:103FD0002846FFF745FEA8B1B9F1000F05D17EB123
:103FE000039B019A134433600AE001A8FFF793FA98
:103FF000039B029A934205D2019AD35C13B9EEE770
:10400000284614E02846FFF705FE039B029A9342D8
:1040100003D30AB1531E00E013460EB1E21832601A
:10402000C8F80040C8F80430002000E0204609B07D
:10403000BDE8F083BC1300200C0000209F0601089F
:1040400000210A46FFF78CBF0021FFF799BD28B178
:104050008368002013B101301B68FBE7704700291B
:1040600001DBFFF76EBA002070470122FFF75ABB51
:10407000FFF76FBA10B5E8B1BAB1C1B18A4218D032
:104080000B684C681360546003B15A60536803B105
:104090001A6083688B424FF0000308BF82600B6098
:1040A0004B600846FFF7B6FD03E0104610BD08461A
:1040B00010BD012010BD000008B5044B1868FFF7C3
:1040C00087FB08B10423C36008BD00BF0C000020BB
:1040D00070B505460E46FFF7EFFF04463146284609
:1040E00022460023FFF724FD054620461DB9FFF7B1
:1040F00091FD284670BD70BD174B70B50446186819
:104100000D46FFF765FB0646F0B10823C360C0E922
:1041100006450FA3D3E900232046294602F02CFCD4
:1041200010B16FF0004308E02046294600220B4BF7
:1041300002F018FC18B14FF00043736104E0204610
:10414000294602F02DFC7061304670BDAFF300804F
:104150000000C0FFFFFFDF410C0000200000E0C1B5
:1041600038B50B4B05461868FFF732FB044660B1C3
:104170001023C3602846FFF7C5FC05462061204692
:1041800025B9FFF747FD284638BD38BD38BD00BF0B
:104190000C00002008B5044B1868FFF719FB08B1A4
:1041A0002023C36008BD00BF0C00002008B5044BED
:1041B0001868FFF70DFB08B14023C36008BD00BFBE
:1041C0000C0000202DE9F843B1F10009804602DA25
:1041D0000020BDE8F8830028FAD0FFF7DBFF064691
:1041E0000028F5D000273D464D4511D258F825004E
:1041F000FFF7B6FF044618B93046FFF70BFDE7E7B7
:104200000DB9B06001E03860476001352746EBE743
:104210003046BDE8F88320B1007BD0F1010038BF03
:104220000020704720B1C06810F0030018BF0120C3
:10423000704718B1007B031F58425841704720B1A6
:10424000007BB0F1080358425841704720B1007B11
:10425000B0F1100358425841704720B1007BB0F1D3
:10426000200358425841704720B1007BB0F1400311
:10427000584258417047000008B5024B5B689847A8
:1042800008BD00BF0C000020F8B506460D461F46CD
:104290001446DAB1E1B1D3689B0503D4106A08B1C2
:1042A000FFF7EAFF2846FFF72DFCE368206223F4BE
:1042B0000073E36029463A463046FFF733FA224658
:1042C00001463046FFF7D6FE0120F8BD1046F8BD86
:1042D0000846F8BD0123FFF7D7BF122938B50546B8
:1042E000144608460BD0132910D0112916D100F01E
:1042F00071F80CB120460FE047F6FF700CE000F0BB
:1043000069F8002CF6D149F63F4005E000F062F86C
:10431000002CEFD14FF2234000F010F9284638BDB1
:1043200013B50022044601A8FFF7D7FF204602B0CC
:1043300010BD084600F0E8B800F0D4B8054B1B6883
:104340001B685B0103F1844394331A68002AFCD094
:10435000704700BF18000020054B1B681B685B01FD
:1043600003F184438C331A68002AFCD0704700BFE5
:104370001800002008B5FFF7E1FF054B00221B687D
:104380001B685B0103F18443C3F88C2008BD00BFA8
:104390001800002008B5FFF7D1FF054B01221B686C
:1043A0001B685B0103F18443C3F8902008BD00BF84
:1043B0001800002008B5FFF7C1FF054B00221B685D
:1043C0001B685B0103F18443C3F8902008BD00BF64
:1043D0001800002010B5044600F0EDFA00F0F8FADD
:1043E000204A112C136A23F44073136213460BD036
:1043F00005D8C4B1102C2AD10023136227E0122C57
:1044000011D0132C1AD022E0174A0021116001218B
:1044100042F8081C154A126812F0FF0FFAD01A6A07
:1044200042F4807212E0124A01211160114A1268AE
:10443000002AFBD01A6A42F4007207E00E4A1268A2
:1044400012F0FF0FFAD01A6A42F440721A620B4B54
:1044500001221A60FFF78EFFFFF77EFFBDE81040D4
:10446000FFF76CBF001002400804424204044242BD
:104470008004424284044242440042423C0442429C
:10448000F8B5104B1E6835682B686F681F4017F031
:10449000010403D074680CB1A0470124BA0704D505
:1044A000B36813B1984744F002047B0704D5F3685E
:1044B00013B1984744F004046B6823EA04046C6069
:1044C000F8BD00BF1800002008B5044B1B681B692D
:1044D0001BB19847024B01221A6008BD180000204A
:1044E000C482204208B5FFF745FFFFF735FFFFF70D
:1044F00025FF044B1B681B689869DB699BB243EA84
:10450000004008BD1800002010B50446FFF732FF38
:10451000FFF722FFFFF712FFFFF73CFF064B220CCD
:104520001B68A4B21B689A61DC61FFF743FFBDE81A
:104530001040FFF703BF00BF1800002010B504466D
:10454000FFF718FFFFF708FFFFF7F8FEFFF722FF5E
:10455000064B220C1B68A4B21B689A60DC60FFF754
:1045600029FFBDE81040FFF7E9BE00BF180000209A
:1045700001498D4601490847005000208145000847
:1045800008B5124B124A1968914201D0002301E08C
:10459000104B07E01048D4188442F9D2C858D050C4
:1045A0000433F7E70D4A934203D2002243F8042B69
:1045B000F8E702F091FD00200146024601F01CFCE4
:1045C000074B0BB102F078FDFEE700BF9C0D010820
:1045D00000000020A8110020A8110020B81400201D
:1045E000B970000808B50D4B1A680AB90C4A1A6070
:1045F0001B680C4AD21A824204DB09494242591A0A
:10460000914206DA02F052FD0C2303604FF0FF30B6
:1046100008BD024A18441060184608BDC4130020A3
:10462000B8140020184B0128FEE770470B4B10B55B
:10463000196809220A230A4800F0CEFE094B02221B
:1046400019680948032300F0C7FEBDE81040074B76
:10465000074819681A221B2300F0BEBE3C01002047
:10466000C813002040010020E01300204401002076
:10467000F813002010B5044600F082F9034B2046E1
:104680001978BDE8104000F017B900BF34000020D1
:10469000F8B50446056800F013FB226800235101B9
:1046A00001F184410B60802129600121A9622B6105
:1046B000EB606379696113B18B4203D02BE04FF457
:1046C00000436B644FF6FF73D36200256E1CF7B294
:1046D0002046394600F0FEFAD0B1236848F6FF7153
:1046E00003F1340242F8251018336D1017F0010F52
:1046F00053F8252014BF6FF0FF016FF47F4101EAEA
:10470000020214BF68214FF4D0410A4343F8252028
:10471000042E3546DAD1216801224B01490103F10B
:10472000844301F18441C3F880220A60F8BD00008F
:1047300038B5274B274C1A68022042F010021A6045
:1047400000F052F90025002000F0E4F965602368CC
:10475000182023F40023236000F0E9F9102000F072
:10476000E6F900F043F8A560102000F0D3F910201E
:1047700000F0EBF90028FAD000F039F8164800F004
:10478000F1F9182000F0C6F9182000F0DEF9002831
:10479000FAD0022000F0AEF900214FF0006000F0E6
:1047A0008BF90E4800F044FA00F038F80C4B1888EA
:1047B00000F0D4F80B4800F0D5F80B4800F06CFA84
:1047C00000F02EF800F02DF8FFF72FFF38BD00BFE6
:1047D0000020024000100240380000203F19010074
:1047E000360000207546000891460008704708B55D
:1047F0000020014600F0F4F901204FF4806100F040
:10480000EFF90021022000F0EBF92D2000F0F8F97B
:10481000BDE808400320002100F0E2B900F0EEB846
:10482000704700F02BB900000000000000000000FD
:10483000012007E0022005E0032003E0042001E05E
:104840000520FFE70D4A0121116072B60C4A0021D4
:104850001160074902B4084902B486B005498E4682
:10486000704700BFAFF30080AFF30080AFF300806C
:1048700000000061F9FFFFFFF552000814ED00E0B1
:1048800010E000E0AFF30080AFF30080AFF30080F2
:10489000FEE710B50446007900F070F92079BDE814
:1048A000104000F083B903689A6822F4602242F451
:1048B0008012114399607047002370B51A461C4658
:1048C000072B4FEA430503DCEE1801FA06F63443E2
:1048D0001D4401FA05F501330A2B42EA0502EFD126
:1048E0000368DC601A6170BD38B5124D2A68136820
:1048F0001C68A10706D5196821F0020119609368A8
:1049000003B19847620708D52B681A681B691168BC
:1049100021F00401116003B19847E30708D52B6823
:104920001A68DB68116821F00101116003B1984732
:1049300038BD00BF64000020036801225B0103F161
:10494000844303F58673191F1A6018680028FCD188
:1049500043F8042C0B68002BFCD17047014604205F
:1049600000F03EB9044B10B504461868A047034B4D
:104970001868A04710BD00BF640000206000002040
:1049800010B50446FFF785FF20464FF46021FFF77E
:104990008AFF2368012103F1404308335A015B0178
:1049A00002F1844203F18443116520461960BDE899
:1049B0001040FFF7C1BF08B5142000F0DFF8042055
:1049C00000F0DCF8BDE80840042000F0EFB800007B
:1049D000014B01221A60704720000E42014B002259
:1049E0001A60704720000E42034B1A6822F007023B
:1049F00010431860704700BF0020024008B5074808
:104A000001F0EAFA064801F0E7FA064801F0E4FA94
:104A1000BDE80840044801F0DFBA00BF680000208C
:104A200070000020780000208000002070B501F0A8
:104A30000704A4000F25A5400368C80853F82060A8
:104A4000092A26EA050514BF1646082606FA04F4C4
:104A5000082A44EA050443F8204006D1012000FA60
:104A600001F1DA6822EA010106E0092A05D10120F4
:104A700000FA01F1DA681143D96070BD08B503206E
:104A800000F07CF8BDE80840032000F08FB800007B
:104A900000284FEA011105DA064B00F00F00C9B2F9
:104AA0001954704700F16040C9B200F5614080F8C8
:104AB0000013704714ED00E021F0604138B521F09B
:104AC0007F01084B0843986000241D4660B20F2107
:104AD0000134FFF7DDFF2B2CF8D1F02385F82330CC
:104AE00038BD00BF00ED00E0014B13F81000704727
:104AF000D8080108064B5A6822F0030202435A60A4
:104B000080005A6802F00C028242FAD1704700BF5E
:104B100000100240030A0121C0B201FA00F003F1C3
:104B2000804303F504331A68104318607047030A82
:104B30000121C0B201FA00F003F1804303F5043310
:104B40001A6822EA000018607047030A0222C0B205
:104B500002FA00F003F1804303F504331B681840A8
:104B600070470000044B05C85968126821F474119D
:104B700002430A435A6070470010024010B50446D1
:104B8000FFF7B2FF074B53F82020074B03EB440419
:104B9000637803EBC2039B0003F1844301221A6094
:104BA00010BD00BF88000020D808010810B50446D9
:104BB000FFF79AFF084B53F82020084B03EB4404FF
:104BC000637803EBC2039B0003F1844301221A6064
:104BD00000221A6010BD00BF94000020D808010810
:104BE00010B5054B054C5A6854F8200022EA000223
:104BF0001143596010BD00BF001002403409010884
:104C000010B50446FFF770FF074B53F82020074B01
:104C100003EB4404637803EBC2039B0003F184437A
:104C200000221A6010BD00BF9C000020D8080108B7
:104C3000024B072258601A60704700BF10E000E086
:104C400008B5044B1A6801321A60034B1B6803B1A4
:104C5000984708BDB01400201014002011F0010F77
:104C600070B542EA03030CBF0825002503FA05F5D9
:104C7000006801F1FF3400F11800C4F3400450F85B
:104C8000241014BF6FF0FF066FF47F4631402943B4
:104C900040F8241070BD000010B504460448A04739
:104CA0000448A0470448A0470448A04710BD00BFDF
:104CB000F000002018010020A8000020CC000020F7
:104CC00010B504460079FFF759FF2079BDE8104080
:104CD000FFF76CBF03791E2B10D9212B0ED0202B90
:104CE0000ED9222B01D0252B04D102298CBF002004
:104CF000012070474B1E58425841704701207047B1
:104D0000002070478B1C40F823200368012203F128
:104D100040430C3301EBC3039B0003F184431A604F
:104D200042790379FAB9B3F11A0253425341072980
:104D300045D8DFE801F004090909090E0E13002B1C
:104D40000CBF2C23192331E0002B0CBF2E231B2377
:104D50002CE0002B0CBF2D231A2327E0002B0CBFC7
:104D60002B23182322E01B3B0C2B28D8DFE803F071
:104D7000071D090B0D0F2711131517191B001C23F5
:104D800014E01E2312E0322310E036230EE0372316
:104D90000CE018230AE0192308E01A2306E02B236D
:104DA00004E02C2302E02D2300E01D2359090122F9
:104DB00003F01F0302FA03F3014A42F8213070475F
:104DC00000E100E00368002203F140430C3301EBF3
:104DD000C3039B0003F1844302311A6040F8212091
:104DE000704738B543790446022B0D463BD0032A61
:104DF00039D8DFE802F002111F2DFFF7E3FF236827
:104E0000013D03F140432033DB0003EB85039B00AE
:104E100003F18443002225E00368002203F14043AC
:104E20000C3301EBC3039B0003F184431A6060223F
:104E3000082301E010220023FFF710FF2368013D43
:104E400003F140432033DB0003EB85039B0006E0C6
:104E500003684FF2F1229A6103229A605B0103F129
:104E6000844301221A6038BD10B5074B1C68E16805
:104E700022690A40120606D55B6A23B19847236966
:104E800023F08003236110BDF000002010B5074B14
:104E90001C68E16822690A40D20706D59B6823B1E5
:104EA0009847236923F00103236110BDF00000201F
:104EB000F8B50C4F3D68EB682E691E4016F04004B3
:104EC00003D03C6A0CB1A0474024B30604D5FB696B
:104ED00013B1984744F020042B6923EA04042C61A1
:104EE000F8BD00BFF0000020F8B5134F3E68F3682E
:104EF00035691D4015F0100403D0BC690CB1A04702
:104F00001024290704D57B6913B1984744F008049D
:104F10006A0704D53B6913B1984744F00404AB0712
:104F200004D5FB6813B1984744F00204336923EABF
:104F300004043461F8BD00BFF0000020F8B51A4E3B
:104F40003768FB683D691D4015F0400403D0346AA2
:104F50000CB1A0474024EB0604D5B36913B19847C0
:104F600044F01004280704D5736913B1984744F03E
:104F70000804690704D5336913B1984744F0040461
:104F8000AA0704D5F36813B1984744F00204EB076D
:104F900004D5B36813B1984744F001043B6923EA90
:104FA00004043C61F8BD00BF18010020F8B51A4E9A
:104FB0003768FB683D691D4015F0400403D0346A32
:104FC0000CB1A0474024EB0604D5B36913B1984750
:104FD00044F01004280704D5736913B1984744F0CE
:104FE0000804690704D5336913B1984744F00404F1
:104FF000AA0704D5F36813B1984744F00204EB07FD
:1050000004D5B36813B1984744F001043B6923EA1F
:1050100004043C61F8BD00BFA8000020F8B51A4E9A
:105020003768FB683D691D4015F0400403D0346AC1
:105030000CB1A0474024EB0604D5B36913B19847DF
:1050400044F01004280704D5736913B1984744F05D
:105050000804690704D5336913B1984744F0040480
:10506000AA0704D5F36813B1984744F00204EB078C
:1050700004D5B36813B1984744F001043B6923EAAF
:1050800004043C61F8BD00BFCC00002081880268A8
:10509000034689B2505C99881A8989B292B29142CA
:1050A00017BF9A880022013292B2C0B29A8070472C
:1050B000C28838B5838892B29BB201329A420446C4
:1050C0000D461AD0C288038992B29BB29A4202D18D
:1050D00083889BB28BB14FF0FF30E288236892B295
:1050E0009D54E288238992B29BB29A4217BFE3880B
:1050F000002301339BB2E38038BD2046FFF7C6FF93
:10510000EBE770B51E460546084611460422059C8D
:10511000FFF78CFC9DF810100B223046FFF786FC41
:105120002B6804F00F01DA6804F0300422F4F05226
:105130001204120C42EA4122DA601A6922F4405247
:105140001204120C42EA04241C6170BD38B50446F6
:10515000154611B900F096F8014619235943AD00E0
:105160006423B1FBF5F1B1FBF3F21201100903FB6B
:10517000101109013231B1FBF3F303F00F03216881
:105180001A4392B28A6038BD38B5114DEB68980663
:1051900007D52B68990604D569680E48C9B2FFF790
:1051A00087FFEB680A4C1A0611D523681B060ED53B
:1051B00009488288C38892B29BB29A4203D0FFF713
:1051C00065FF606038BDE36823F08003E36038BDAD
:1051D00000380140201400201414002038B5114D6F
:1051E000EB68980607D52B68990604D569680E48C0
:1051F000C9B2FFF75DFFEB680A4C1A0611D52368A8
:105200001B060ED509488288C38892B29BB29A4287
:1052100003D0FFF73BFF606038BDE36823F08003F5
:10522000E36038BD004400402C14002044140020EA
:1052300038B5114DEB68980607D52B68990604D54B
:1052400069680E48C9B2FFF733FFEB680A4C1A06CB
:1052500011D523681B060ED509488288C38892B2EF
:105260009BB29A4203D0FFF711FF606038BDE3683C
:1052700023F08003E36038BD00480040381400206C
:105280005014002008B590F89002FFF72DFC20B1D3
:105290000128034818BF002008BD024808BD00BF10
:1052A00000A24A040051250208B5114B01211C68D7
:1052B00003222046FFF7BAFB002301211A4693423E
:1052C000206834BF02254FF40035B2F5007F056138
:1052D00003F1010303D0002A08BF012101E04FF0D0
:1052E000FF31B3F5007F04BF52180023E7E700BF8A
:1052F000D408010808B5034B0BB1AFF3008062B6C8
:10530000FFF7D2FF0000000003695B68D9889A8824
:1053100089B292B2D8888A1A998880B289B28842B2
:1053200003D2198989B201310A4492B282B19988B3
:105330001A6889B2505C99881A8989B292B29142EE
:1053400017BF9A880022013292B2C0B29A80704789
:105350004FF0FF30704703695B689988DA8889B23B
:1053600092B2914205D09A881B6892B2985CC0B202
:1053700070474FF0FF30704703699A689088D18872
:1053800080B289B28842F9D11A6813685B06FCD5ED
:10539000704713B504698DF8071020460DF1070119
:1053A000012200F057FE0028F7D0012002B010BD06
:1053B00003695B68D8889A8880B292B2D988801ACB
:1053C0009A8889B292B2914203D21B899BB201336F
:1053D000184480B27047000030B5002545604FF496
:1053E0007A758560024D016105600275437530BDB7
:1053F0005009010803692DE9F74FDB68044699421B
:105400000F4692462CD890F81480174D4FEA081892
:1054100008EB050690F8159070684FEA091909EB3A
:10542000050B717B10B10022FFF7DBFC206900F057
:10543000DDFD337B9BF80C2020698DE8080459F8CA
:10544000051058F80530FFF75CFE206900213A4648
:10545000FFF77CFE206903B0BDE8F04F00F0F0BD1F
:1054600003B0BDE8F08F00BFA40601080022FFF7DB
:10547000C1BF0000044B02791B789A4202D1034B52
:105480001B681860704700BF6C1400207014002067
:10549000002310B50446036072B6054B193119702C
:1054A000044B18600448FFF7F7FB62B6204610BDB6
:1054B0006C1400207014002075540008036800224A
:1054C0001B685B0103F184431A6070470368012283
:1054D0001B685B0103F184431A607047036801395C
:1054E0001B6889B29962704703681B68DA6A92B2D6
:1054F000914228BF11465962704738B5054639B9FF
:10550000036801221B689962DA62D86A80B238BDEA
:1055100048244C434FF6FF71B4FBF1F1013189B2DD
:1055200004EB5104B4FBF1F4FFF7D8FF2B68A4B2ED
:105530001B682046DC6238BD0068C9B2FFF7E2BBD9
:1055400008B501210848FFF7A3FF02210748FFF72C
:105550009FFF03210648FFF79BFFBDE80840054871
:105560000421FFF795BF00BF5C14002060140020E9
:1055700064140020681400202DE9F041002407463F
:105580000E4625463B1919790A22304600F01DF9CE
:105590002E218046304600F04DF801344044032C63
:1055A0000544EFD13046F9790A2200F00EF928447B
:1055B000BDE8F08130B58371034D9DF80C30056076
:1055C00001714271C37130BD78090108044B054A6D
:1055D0001A6000221A715A719A71DA71704700BF0D
:1055E000741400207809010870B505460E460024A1
:1055F000315D29B12A682846126890470134F7E7DF
:10560000204670BDF8B505460C4616468F18BC42BC
:1056100006D02B6828461B6814F8011B9847F6E74C
:105620003046F8BD10B502680B46946809689A6860
:10563000A04710BD08B503681B68984708BD08B5AA
:1056400003685B68984708BDFFF7F9BF10B50A68A3
:105650000446126808462146904710BD38B50D2112
:105660000546FFF7E7FF0A2104462846FFF7E2FF59
:10567000204438BD38B50446FFF7D4FF0546204620
:10568000FFF7ECFF284438BD38B50446FFF7D7FFD5
:1056900005462046FFF7E2FF284438BD38B50446EA
:1056A000FFF7CDFF05462046FFF7D8FF284438BD59
:1056B00038B50446FFF7CAFF05462046FFF7CEFF80
:1056C000284438BD2DE9F04F14461D4691B054EAE8
:1056D000050381469DF868B004D13021FFF7AAFF89
:1056E00001202EE04FF000085FFA8BF600272046DD
:1056F000294632463B4601F0CBF908F101080DF18D
:10570000000AC2440AF8012C204629463B4632468C
:1057100001F0BEF904460D4654EA0503E4D1002425
:1057200008F1FF381DF808104846092994BF3031A8
:105730003731C9B2FFF77EFF0444B8F1000FEFD153
:10574000204611B0BDE8F08F2DE9F041069F0646D6
:1057500014461D462FB90368D1B21B689847BDE8AF
:10576000F081002C75F1000305DA2D21FFF762FFAF
:10577000644265EB4505FFB20697304622462B464C
:10578000BDE8F041FFF79EBF07B5CB1700920A4670
:10579000FFF7DAFF03B05DF804FB38B50446FFF706
:1057A000F3FF05462046FFF759FF284438BD70B582
:1057B000049921B90368D1B21B68984770BDC9B27A
:1057C0000491BDE87040FFF77DBF07B5002300924C
:1057D000CAB2FFF7ECFF03B05DF804FB38B504462E
:1057E000FFF7F3FF05462046FFF738FF284438BD92
:1057F00007B5002300920A46FFF7D9FF03B05DF812
:1058000004FB000038B50A4B04461A681D46C26006
:105810002268204613699847002807DAE2682B6857
:105820009B1AA2689342F3D34FF0FF3038BD00BFFC
:10583000B014002070B50D4609490446164600F024
:1058400063F82846FFF7DEFF01460029204605DB06
:10585000B14203D0C9B200F0FAF8F2E770BD00BF60
:105860002EFE000870470022026010B50C684260EE
:1058700004604C68826044608C6884600A604A609E
:105880008A6010BD10B50446006801F05FFC204638
:1058900010BD10B50446006808B101F057FC0023A4
:1058A0002360A360636010BD38B504460D460068F0
:1058B000013102F04DF810B184E82100012038BD1B
:1058C000036810B5044613B143688B4207D22046E3
:1058D000FFF7EAFF20B1A3680BB92268137001201B
:1058E00010BD70B50E46114604461546FFF7E8FF99
:1058F00018B92046FFF7CDFF04E0A56020683146C7
:1059000002F00EFC204670BD38B50023044603604B
:10591000436083600D4639B1084602F05FFC2946BA
:1059200002462046FFF7DDFF204638BD38B5054664
:1059300000680C4678B1096859B10C4B4BB16A68E4
:10594000A3689A4205D302F0EBFBA368AB60002387
:105950000AE001F0FBFB23682B6063686B60A368BF
:10596000AB60002323606360A36038BD6558000806
:10597000884210B50B46044607D0096819B19A68E9
:10598000FFF7AFFF01E0FFF784FF204610BD10B521
:1059900000230446036043608360FFF7E9FF20466D
:1059A00010BD884210B5044601D0FFF7BFFF204666
:1059B00010BD38B505460C4641B1084602F00EFC54
:1059C000214602462846FFF78CFF01E0FFF761FF02
:1059D000284638BD10B500238AB0044603604360F2
:1059E0008360084601A900F0CAFA204601A9FFF722
:1059F000E0FF20460AB010BD70B5044685680E462B
:105A000009B9002070BD62B115442946FFF758FF5F
:105A10000028F6D02068A3683146184402F080FBC5
:105A2000A560012070BD0B469A680968FFF7E4BFC6
:105A300038B505460C46084641B102F0CFFB214679
:105A400002462846BDE83840FFF7D6BF38BD07B547
:105A500000238DF80410012201A98DF80530FFF70D
:105A6000CBFF03B05DF804FB13B50A2204460846D9
:105A700001A900F084FA01A802F0B0FB01A90246D6
:105A80002046FFF7B9FF02B010BD1FB504460A2239
:105A90000846694600F073FA684602F09FFB6946C3
:105AA00002462046FFF7A8FF04B010BD1FB504460C
:105AB0000A220846694600F08DFA684602F08EFB1D
:105AC000694602462046FFF797FF04B010BD0B461B
:105AD00010B509689A680446FFF78EFF10B9204692
