:020000040800F2
:1000000000500020993B0008513E0008553E000872
:10001000593E00085D3E0008613E0008B13E000800
:10002000B13E0008B13E0008B13E0008B13E0008F4
:10003000B13E0008B13E0008B13E00086142000830
:10004000B13E0008B13E0008B13E0008A93A0008E0
:10005000B13E0008B13E0008B13E0008B13E0008C4
:10006000B13E0008B13E0008B13E0008B13E0008B4
:10007000B13E0008B13E0008B13E0008B13E0008A4
:10008000B13E0008B13E0008093F0008B13E00083B
:10009000B13E0008B13E0008B13E0008B13E000884
:1000A00089440008AD440008D1440008094500080F
:1000B0005D450008CD4500083D460008B13E0008FA
:1000C000B13E0008B13E0008B13E0008B13E000854
:1000D000B13E0008A9470008FD4700085148000844
:1000E000B13E0008F13A0008B13E000810B5054CD9
:1000F000237833B9044B13B10448AFF300800123D4
:10010000237010BDB011002000000000F8DE0008D0
:1001100008B5064B1BB106480649AFF300800648F8
:10012000036813B1054B03B1984708BD00000000F8
:10013000F8DE0008B4110020B0110020000000001B
:10014000012902D11C30C0B27047062984BF01F1D9
:10015000FF31C9B211F0010F14BF1E201F207047DC
:10016000444B2DE9F047B1FBF3F603FB16113C239A
:10017000B1FBF3F203FB1212054602704FF461600B
:10018000B1FBF0F200FB1211B1FBF3F36B704FF413
:10019000FA63AA70B6B2EB80EC884FF4C873B4FB74
:1001A000F3F803FB18481FFA88F8B8F1000F16D0CF
:1001B0006423B4FBF3F203FB12439BB2002B53D036
:1001C00014F0030140F26D130CBF4FF4B7721A46DE
:1001D00096420EDB002908BF4FF4B77304E0B6F572
:1001E000B77F06DB4FF4B773F61A0134B6B2EC8072
:1001F000D2E700236B716423B4FBF3F703FB1747CB
:10020000BFB2B8F1000F06D03FB114F0030F14BF16
:100210000020012002E0012000E0384695F805901A
:10022000C0B24946FFF78CFF864209F1010A15D397
:10023000B8F1000F06D03FB114F0030F14BF002037
:10024000012002E0012000E03846C0B24946FFF735
:1002500077FF301A86B285F805A0D2E701362E71F5
:1002600085F805A0BDE8F087B6F5B67FC1DD40F2A0
:100270006D13B9E780510100F8B5427887783C23C7
:1002800003FB072702780579467903FB0727013D21
:10029000013EEDB2F6B2044605714671013E731C93
:1002A000E38834D04FF4C872B3FBF2F102FB113291
:1002B00092B262B16422B3FBF2F002FB103080B262
:1002C00030B113F0030F14BF0020012000E0012023
:1002D000C0B2F1B2FFF734FF284485B2DEE74FF435
:1002E000C872B3FBF2F102FB113292B2AAB16422DE
:1002F000B3FBF2F102FB113292B28AB113F0030F99
:1003000040F26D1208BF4FF4B7721544ADB2013B15
:100310009BB2B3F5FA6FE2D205E04FF4B772F4E79F
:1003200040F26D12F1E7024800FB0570F8BD00BF16
:100330008051010038B50B784A7803EB8303514CA8
:1003400003EB830302EB8303E3808B780D46637139
:10035000CB784D4823710B79A3704B7963708B79FF
:100360004A49237004F07BFCE1880A22464804F0E5
:1003700024FD4749444804F072FC61790A2242484E
:1003800004F03CFD4349404804F069FC21790A220D
:100390003D4804F033FD40493B4804F060FCA1783F
:1003A0000A22394804F02AFD3C49374804F057FC3A
:1003B00061780A22344804F021FD3949324804F0BA
:1003C0004EFC0A222178304804F018FD03F010FE9C
:1003D000642005F07BF82046FFF74EFF01463148C8
:1003E00003F0BBFA642005F071F803F007FE2D4816
:1003F00003F0B6FA01462046FFF7B2FEE188642317
:10040000B1FBF3F1C9B2284802F002F92870E28882
:100410004FF47A73B2FBF3F103FB11212248C9B206
:1004200002F0F6F8687061791F4802F0F1F8A870E0
:1004300021791D4802F0ECF8A178E8701A4802F022
:10044000E7F861782871184802F0E2F821786871BD
:10045000154802F0DDF80024A871295D10220A4831
:1004600004F0C3FC01340848104904F0F8FB072CE1
:10047000F3D1054804F002FCBDE8384002480C49BD
:1004800004F012BCCC11002028130020F8F0000862
:10049000FFF0000807F100080DF1000814F1000852
:1004A0001EF10008D51100200913002055F900089D
:1004B00028F100080148112103F046BAD5110020A7
:1004C000064B1A6801321A601A681D2A04D90022E4
:1004D0001A60034B01221A70704700BFD811002028
:1004E000DC11002010B5094C0949204604F015FB29
:1004F00020460121074A04F02FFB2046002104F08A
:1005000003FB2046BDE8104004F0E8BAC013002009
:1005100040420F00C104000810B5054C204604F00D
:10052000E5FA20460021BDE8104004F0EDBA00BF16
:10053000C013002010B58AB001A802F0D3F8464AD3
:1005400007A801A902F0E0F9444B07A8196802F0D6
:10055000BFF907A802F09CF8414A07A801A902F0D8
:10056000D3F907A83F4902F0CBF907A802F090F8A9
:100570003D4A07A801A902F0C7F907A83B4902F0C4
:10058000BFF907A802F084F8394A07A801A902F0C8
:10059000BBF907A8374902F0B3F907A802F078F8C9
:1005A000354A07A801A902F0AFF907A8022102F015
:1005B0008FF907A802F06CF8304A07A801A902F0E9
:1005C000A3F907A82E4902F09BF907A802F060F8EA
:1005D0002C4A07A801A902F097F92B4C07A82B4930
:1005E00002F08EF907A802F053F82046284904F0DB
:1005F00036FB07A801A902F08FF807A9204604F0EE
:1006000067FB07A802F044F801AA04A8214902F0F8
:1006100020F807A8204904F087FC04A907A804F0E3
:1006200054FD0146204604F035FB07A804F03AFCCF
:1006300004A907A804F0BBFC07A9184801F080FC36
:1006400007A804F02FFC04A804F02CFC01A802F079
:100650001FF80AB010BD00BF56F60008F4120020C3
:100660009FF10008F8110020D5F60008F8120020CC
:10067000A4F1000804120020A8F10008AEF100085F
:10068000B8120020B4F1000828130020DC1200206A
:10069000BAF100080C130020CDF10008E812002088
:1006A00030B58BB001A80D46144602F01BF82A4A5B
:1006B00007A801A902F028F907A8284902F020F9A3
:1006C00007A801F0E5FF264A07A801A902F01CF9D6
:1006D000294607A802F0FCF807A801F0D9FF214A33
:1006E00007A801A902F010F9214607A81E4C02F044
:1006F000EFF807A801F0CCFF20461C4904F0AFFA40
:1007000007A801A902F008F807A9204604F0E0FABA
:1007100007A801F0BDFF01AA04A8154901F099FF3F
:100720002046144904F09BFA04A9204604F0B2FACA
:1007300004A907A804F03BFC07A90F4801F000FC3E
:1007400007A804F0AFFB04A804F0ACFB01A801F07B
:100750009FFF0BB030BD00BF9FF10008F8110020D3
:10076000E9F10008EFF1000828130020F3F1000878
:100770000C130020CDF10008E812002030B54C48E1
:100780008DB03021102206F083FB0024494B13F872
:100790002450284604F06EFE08B9312205E02846B0
:1007A00004F068FE012802D13022414BE2540134AA
:1007B000022CEBD1684601F095FF3F4A09A8694633
:1007C00002F0A2F809A83D4902F09AF809A801F040
:1007D0005FFF06A83A4904F0A7FB06A909A804F0A0
:1007E000E6FB09A8354904F070FC0146354804F0E1
:1007F00051FA09A804F056FB06A804F053FB03A81D
:100800002B4904F091FB06A82F4904F08DFB06A9A3
:1008100009A804F0CCFB03A909A804F056FC014682
:10082000284804F037FA09A804F03CFB06A804F0B5
:1008300039FB264A09A8694602F066F803A909A807
:1008400002F05EF809A801F023FF21491D4804F0D9
:1008500006FA09A8694601F05FFF09A9194804F0E2
:1008600037FA09A801F014FF6A4606A8194901F0F1
:10087000F0FE1949134804F0F2F906A9114804F0F2
:1008800009FA06A909A804F092FB09A9134801F086
:1008900057FB09A804F006FB06A804F003FB03A815
:1008A00004F000FB684601F0F3FE0DB030BD00BF60
:1008B000E81100207CF200089FF10008F8110020E8
:1008C00007F20008281300200DF2000816F20008B5
:1008D000F3F100080C130020CDF10008E81200200D
:1008E00013B507220C466846002106F0D1FA2146CE
:1008F0000023487811F8022B3038303A02EB82029C
:1009000000EB42020DF803200133072BF1D103481D
:100910006946FFF70FFD02B010BD00BFD4110020E3
:10092000012A38B50C46154611D102290BD0FF29F2
:1009300004D0012920D1144800211AE000211248D6
:100940000A4601F021FE10482946002212E09AB919
:1009500002290CD0FF2905D001290DD111460A48E2
:10096000224607E011460848012201F00DFE064824
:1009700001210A4601F008FE21462A460348BDE847
:100980003840FFF78DBE00BF08130020DD110020A6
:1009900030B50D4687B000242B5D312B03D11A48AA
:1009A000E1B2002204E0302B05D11748E1B2012268
:1009B00001F0EAFD1FE01549154804F075F91549E5
:1009C000684604F0B1FA694603A804F0F0FA21463B
:1009D00003A804F0ADFB104904F084FB295D04F08A
:1009E00093FB01460A4804F055F903A804F05AFAAB
:1009F000684604F057FA0134022CCDD10748FFF7BE
:100A0000BDFE07B030BD00BF081300201EF2000875
:100A10002813002025F200082FF20008DD11002025
:100A200013B5026802AB03F8011D546A194601228E
:100A3000A04702B010BD07B503680DF107019B6A1E
:100A40000122984701280CBF9DF807004FF0FF30A6
:100A500003B05DF804FB4FF0FF30704708B5036941
:100A6000186803689B69984708BD036810B5DB6880
:100A70000446984708B9207F10BD012010BD08B575
:100A800003681B6B9847003018BF012008BD0000A9
:100A9000F0B585B00C460646194901A81746194D10
:100AA00004F042FA01A8102104F01AFA217901A8F1
:100AB00004F0D8FA294601A804F0B8FA617901A82F
:100AC00004F0D0FA294601A804F0B0FAA17901A8EF
:100AD00004F0C8FA294601A804F0A8FAE17901A8AF
:100AE00004F0C0FA336801991B6A3A4630469847C9
:100AF000044601A804F0D6F9204605B0F0BD00BFB9
:100B0000AEF20008B5F4000810B50446206803688A
:100B1000DB68984710B904F0D9FCF7E72068036850
:100B20001B6998472C28F1D1012010BD2DE9F04F09
:100B3000054687B08A46104640211E461446129F3D
:100B400004F0CEF98F4BD3F800B0002004F0BEFCC7
:100B500028680368DB689847002840F3E480286829
:100B600003681B699847011EF2DD2046C9B204F0F4
:100B70006CFA16B9109BA3B910E0314603A804F033
:100B8000D3F9204603A904F0F0FA814603A804F043
:100B900089F9B9F1000FEDD00120EFE0119B9BB96D
:100BA00010E0109903A804F0BFF9204603A904F04F
:100BB000DCFA814603A804F075F9B9F1000FEDD015
:100BC0000220DBE0A7B910E0119903A804F0ACF90A
:100BD000204603A904F0C9FA814603A804F062F98B
:100BE000B9F1000FEED00320C8E0139B0BBB10E05F
:100BF000394603A804F098F9204603A904F0B5FA91
:100C0000814603A804F04EF9B9F1000FEDD004209D
:100C1000B4E05D4903A804F087F9204603A904F075
:100C2000A4FA814603A804F03DF9B9F1000F11D1EF
:100C300039E0139903A804F077F9204603A904F0DA
:100C400094FA814603A804F02DF9B9F1000FE0D021
:100C5000052093E0684629682C2204F0FBF86846DA
:100C600004F0B7FB0128814615D129680A2203A8A0
:100C700004F0F0F803A804F0ACFB804603A804F0ED
:100C800011F92046414904F0A4F905EB88035B689B
:100C900083F81D9003E02046694604F0C2F96846D7
:100CA00004F000F954E73A4903A804F03DF920465E
:100CB00003A904F05AFA804603A804F0F3F8B8F147
:100CC000000F3FF445AF334903A804F02DF9A268A3
:100CD00003A9083A204604F084FA804608F1020885
:100CE00003A804F0DFF842462C21204604F06BFAFA
:100CF00042460346214603A804F096FA03A804F0EE
:100D000068FB804603A804F0CDF8B8F1000F3FF46B
:100D10001FAF05EB88035B68204683F81C901B49D6
:100D200004F057F914E7174B1B68CBEB030353454B
:100D3000FFF40BAF204604F022FBA368CBB12146A1
:100D4000684604F034F91449144803F088FF202160
:100D5000124803F07FFF694603A804F028F903A9AD
:100D60000E4803F097FF03A804F09CF8684604F0CF
:100D700099F82046054904F02CF90020C0B207B0CC
:100D8000BDE8F08F1014002099F20008AEF20008C0
:100D9000A6F20008ACF20008AFF200082813002009
:100DA000F0B589B01C4607460E4605A80B49154606
:100DB00004F0BAF800940E9C314601940F9C05AAE9
:100DC0000294109C2B4603943846FFF7AFFE04466E
:100DD00005A804F067F8204609B0F0BDAEF200089F
:100DE000F0B5044685B00E46006821491F461546F9
:100DF00003F035FF20681F4903F031FF0A2239460E
:100E0000206803F0F2FF20682C2103F023FF206804
:100E1000194903F024FF2068184903F020FF3146E8
:100E2000206803F01CFF2068154903F018FF0A2210
:100E30002946206803F0B8FF1249206803F00FFF2D
:100E4000206803689B699847002004F03FFB0E4B25
:100E5000204600930023019302930C490C4A0D4B4A
:100E6000FFF79EFF431E5842584105B0F0BD00BF3A
:100E7000BEF20008C1F20008CCF2000866F70008D4
:100E8000D1F20008ACF20008F0F20008F8240100EA
:100E9000D4F20008E1F2000870B5044600200E46C6
:100EA000154604F013FB0023C4F8A430C4F8A030A6
:100EB000206931462A46237DFFF792FF003018BF94
:100EC0000120207770BD7FB5089C0E460194099CD7
:100ED0001546009302944FF47A7132462B46FFF781
:100EE0005FFF04B070BD08B500210F2004F0D8FAF0
:100EF00040F2DC5004F0EAFABDE808400F2001217E
:100F000004F0CEBA70B504460D4600680C4916468A
:100F100003F0A5FE2946206803F0A1FE31460A220F
:100F2000206803F062FF2068064903F098FE2068FD
:100F300003689B699847BDE87040002004F0C6BA7A
:100F4000BEF20008ACF2000813B50446002004F01D
:100F5000BDFA2069227D0749FFF7D4FF00232377DC
:100F60000093019320690449044AFFF7ACFF02B0E3
:100F700010BD00BF02F3000884F200085DF900080C
:100F800010B504460948FFF770FD68B9E3785BB116
:100F9000E0700749074803F087FE0648064903F05A
:100FA00083FE0248FFF7D0FF10BD00BF10120020E3
:100FB000AEF20008281300200DF30008F0B50F462C
:100FC00087B00025044626493A46FFF79BFF009567
:100FD000019520462349244A2B46FFF774FF012838
:100FE0001AD12046FFF790FD2046FFF78DFD2168BE
:100FF0000A2203A803F02EFF03A804F0EAF906462C
:1010000003A803F04FFF0095019520461749164AA3
:101010002B46FFF758FFFEB904EB87033A462046FC
:1010200013495E68FFF76EFF124B002500931249CB
:10103000124A134B01952046FFF745FF2B46074602
:101040000095019520460949074AFFF73CFF7B1EA2
:101050005F425F4137772E46304607B0F0BD00BF94
:1010600098F300089BF200085DF9000884F200087C
:10107000A5F30008D3F30008B1F30008BEF300089D
:10108000C8F300087FB50546002405EB84035E68BD
:1010900046B1737F33B1002373772846E1B2FFF77F
:1010A0008DFFF0820134052CEFD128680368DB68DE
:1010B000984748B1002200920192029228460A21E4
:1010C0001346FFF76DFEF0E704B070BDD0F8802046
:1010D000D0F88430D01A48BF8030704738B5044605
:1010E000002004F0F3F9237F04F120058BB128469A
:1010F000FFF7ECFF68B90A4BA26919688A1AB2F5C2
:10110000FA7F03D91B6801226277A3612069FFF788
:10111000B9FF2846FFF7DAFFE38A184438BD00BF5D
:101120001014002038B504460D460068094903F044
:1011300096FD2946206803F092FD2068064903F0D9
:101140008EFD206803689B699847BDE83840002001
:1011500004F0BCB9BEF20008ACF200082DE9FF4172
:10116000134B05461F680E469846D8F800300024F9
:10117000DB1BB34217D228460E49FFF7D3FF00947A
:10118000019402942846C8210B4A0C4BFFF708FE35
:101190000446012C4FF0640002D104F097F902E0FC
:1011A00004F094F9E1E7204604B0BDE8F08100BF07
:1011B00010140020AEF2000884F200085DF9000867
:1011C0001F4B2DE9F3411F6805460E469846D8F897
:1011D0000030DB1BB3422CD2002428461949FFF70C
:1011E000A1FF0094019428461749184A2346FFF7A7
:1011F0006AFE012804D04FF47A7004F067F9E6E73C
:10120000134B14498DE81800134A144B2846FFF776
:101210005AFE009406460194284611490B4A23467B
:10122000FFF751FE012E06D003D3032E01D8022072
:1012300002E0002000E0304602B0BDE8F08100BFCF
:1012400010140020DEF30008E5F300085DF9000843
:1012500004F40008EEF30008F4F30008FCF30008BF
:1012600084F200087FB542F210710546FFF776FF61
:1012700058B3002428462149FFF754FF00940194F5
:101280000294284642F210711D4A1E4BFFF788FD5A
:1012900001281AD128461C49FFF744FF0094019405
:1012A0000294284642F21071154A164BFFF778FD5A
:1012B00001280AD140F6B83004F008F9284642F275
:1012C0001071FFF74BFF064608B9002612E02846CA
:1012D0000E49FFF727FF0094019428460849094A60
:1012E0002346FFF7F0FD0128EFD1284642F21071A6
:1012F000FFF766FF304604B070BD00BF11F4000870
:1013000084F200085DF9000819F4000823F40008CD
:10131000F7B5154F154E002405461549FFF702FF96
:10132000324623463946009401942846FFF7CBFD08
:1013300028461049FFF7F6FE324623463946009408
:1013400001942846FFF7BFFD28460B49FFF7EAFE48
:10135000009401942846394632462346FFF7B3FDF0
:10136000012003B0F0BD00BF84F200085DF9000861
:1013700029F4000834F4000844F400081FB54FF4C1
:10138000165104461B4803F081FB1B48FFF7ABFDD9
:1013900040F6B83004F09AF81849194803F08EFC6A
:1013A0001848FFF75FFF17481749FFF7BBFE0023F8
:1013B00000930193029313484FF47A71134A144B2C
:1013C000FFF7EEFC012803D00D48124903F06CFC36
:1013D0004FF4FA6004F07AF80A48FFF799FF4FF4E7
:1013E0007A7004F073F80023A37063702370E370C5
:1013F00004B010BD58130020E812002053F4000878
:1014000028130020C412002069F4000884F20008A8
:101410005DF9000874F4000870B5174986B000241F
:101420000546FFF77FFE0094019428461349144AAD
:101430002346FFF748FD01281BD12846FFF764FB30
:101440002846FFF761FB29682C2203A803F002FD60
:1014500003A803F0BEFF86B203A803F023FD0094A7
:10146000019428460749064A2346FFF72CFD3046DB
:1014700000E0204606B070BD83F4000888F4000840
:101480005DF9000884F2000808B50248FFF7C4FFC0
:1014900008BD00BFC412002070B5164986B00024F4
:1014A0000546FFF73FFE0094019428461249134A6F
:1014B0002346FFF708FD012818BF042017D128464E
:1014C000FFF722FB29680A2203A803F0C3FC03A844
:1014D00003F07FFF064603A803F0E4FC00940194A8
:1014E00028460749054A2346FFF7EDFCF0B206B04F
:1014F00070BD00BF90F4000897F400085DF9000883
:1015000084F200082DE9F0414478054674BB19497E
:10151000194803F0C9FB1848184903F0A5FB184BFC
:101520001F689846D8F800204EF65F23D21B9A42D7
:101530000BD81448FFF7B0FF00F0FB06012E0FD0C8
:101540004FF47A7003F0C2FFECE70F490A4803F04A
:10155000ABFB42F2107003F0B9FF00236B7005E0A3
:101560006E700548094903F09FFB34462046BDE8EC
:10157000F08100BFAEF2000828130020A0F400089C
:1015800010140020C4120020B7F40008D4F400089E
:101590001FB50A490446FFF7C5FD002300930193D8
:1015A000029320464EF66021054A064BFFF7F8FBF2
:1015B000431E5842584104B010BD00BF01F5000859
:1015C00084F200085DF9000830B5304985B0002488
:1015D0000546FFF7A7FD0094019428462C492D4AA3
:1015E0002346FFF770FC012801D001204BE028467C
:1015F0002949FFF797FD274A23462849009401947B
:101600002846FFF760FC28462549FFF78BFD00942C
:101610000194029428462349234A1E4BFFF7C0FB3E
:10162000012802D0214822492AE01C4A194B4FF4D4
:101630007A710094019402942846FFF7B1FB284682
:101640001C49FFF76FFD0094019428461A49114A7E
:101650002346FFF738FC012802D0144817490FE051
:1016600028461749FFF75EFD009401942846154966
:10167000084A2346FFF727FC0128B6D00B48124939
:1016800003F012FB204605B030BD00BF90F4000807
:1016900097F400085DF900080AF5000884F20008D4
:1016A00026F50008084C010031F500082813002039
:1016B0003BF500085BF5000868F5000879F50008BF
:1016C00092F500089FF50008B0F5000838B543789A
:1016D0000446ABB183789BB90A490B4803F0E4FA9E
:1016E0000A48FFF771FF054607482DB1084903F086
:1016F000DBFA0123A37038BD064903F0D5FAA570C3
:1017000038BD00BFAEF2000828130020C41200202C
:10171000D9F5000816F6000870B5144986B0002403
:101720000546FFF7FFFC0094019428461049114A32
:101730002346FFF7C8FB012818BF632014D129688E
:101740002C2203A803F086FB03A803F042FE064602
:1017500003A803F0A7FB0094019428460649054A14
:101760002346FFF7B0FB304606B070BD55F60008C3
:101770005AF600085DF9000884F20008F0B5C47854
:101780008BB00546002C40F03E81A049A04803F0F4
:101790008BFAA04904A803F0C7FB04A907A803F02B
:1017A00006FC9D4907A803F09DFC0146984803F0FC
:1017B00049FA07A803F076FB04A803F073FB9748E7
:1017C000954942F22832FFF767FBB0B99449904837
:1017D00003F06AFA42F2107003F078FE6B68EC7066
:1017E00001330A2B01D86B600DE16C606C702C70BA
:1017F0008C48FFF7CDFEAC7005E18B49844803F0BF
:1018000053FA884E0123EB7088496C60804803F0DE
:101810004BFA3046FFF780FF854F8649386004A8B1
:1018200003F082FB04A907A803F0C1FB396807A8ED
:1018300003F074FC0146764803F02CFA07A803F085
:1018400031FB04A803F02EFB30467B49FFF76AFC0E
:101850000094019430467949794A2346FFF733FBD7
:10186000012804D004A8694903F05EFB16E007A82C
:1018700031680A2203F0EEFA7249714A2346009455
:1018800001943046FFF71FFB07A803F078FD04A87A
:1018900007A903F0F8FA07A803F004FB04A96A48B3
:1018A00003F08FFB04A803F0FDFA684907A803F0D2
:1018B0003BFB654907A803F008FC5A4E0146544813
:1018C00003F0E8F907A803F0EDFA00243046604978
:1018D000FFF728FC0094019430465E49584A23469D
:1018E000FFF7F1FA012804D004A8484903F01CFBD3
:1018F00016E007A831680A2203F0ACFA5149504AB1
:101900002346009401943046FFF7DDFA07A803F060
:1019100036FD04A807A903F0B6FA07A803F0C2FA37
:1019200004A94D4803F04DFB04A803F0BBFA4B4952
:1019300007A803F0F9FA484907A803F0C6FB0146D7
:10194000334803F0A7F907A803F0ACFAAB78002BF3
:1019500044D0344E002430464149FFF7E3FB009465
:101960000194029430463F493F4A354BFFF718FA3D
:10197000012804D004A8254903F0D6FA16E007A8E8
:1019800031680A2203F066FA2E492D4A2346009454
:1019900001943046FFF797FA07A803F0F0FC04A87B
:1019A00007A903F070FA07A803F07CFA04A92F48EE
:1019B00003F007FB04A803F075FA2D4907A803F00C
:1019C000B3FA2A4907A803F080FB0146104803F048
:1019D00061F907A803F066FA0023AB7025490C48AB
:1019E00003F062F92448FEF7A5FD174803F0C7FC91
:1019F000194803F0C4FC1D4803F0C1FC04481F490A
:101A000003F052F9012420460BB0F0BDAEF20008FD
:101A10002813002062F6000889F200081012002046
:101A200078F60008C412002099F60008B9F60008FC
:101A3000F41200205DF60008CEF60008ACF20008B3
:101A40005DF9000884F20008F811002007F2000890
:101A5000D3F60008DAF60008F8120020E4F60008D1
:101A6000EDF60008084C0100F7F60008041200200B
:101A700000F7000809F70008DD11002011F7000841
:101A8000F8B504460D4600680E4916461F4603F099
:101A9000E6F82946206803F0E2F83146206803F0B2
:101AA000DEF83946206803F0D5F82068064903F0CF
:101AB000D6F8206803689B699847BDE8F840002085
:101AC00003F004BDBEF20008ACF200082DE9F043BB
:101AD00004468FB00025904689461F46FFF758FD03
:101AE00020469B49FFF71EFB9A499B4A2B460095CF
:101AF00001952046FFF7E7F9204698494A462223F8
:101B0000FFF7BEFF0095019520469249924A2B4669
:101B1000FFF7D9F9B8F1000F0DD0204690494246A1
:101B20002223FFF7ADFF00950195204689498A4A97
:101B30002B46FFF7C8F96FB120468A493A4622235F
:101B4000FFF79EFF00230093019320468149824ABC
:101B5000FFF7B9F9804E0025204683494A462223E3
:101B6000FFF78EFF32462B467A49009501952046B5
:101B7000FFF7A9F920467D49FFF7D4FA754A3346A5
:101B80004EF660210095019502952046FFF708F971
:101B900020467749FFF7C6FA6E4A334675490095E5
:101BA000019502952046FFF7FBF820467249FFF7A2
:101BB000B9FA009501950295204647F23051654AE1
:101BC0003346FFF7EDF8012801D00025BCE02046A0
:101BD0006A49FFF7A7FA00950195029520464EF64F
:101BE00060215C4A3346FFF7DBF80128EDD120463F
:101BF0006349FFF797FA009501952046554932460B
:101C00002B46FFF760F90128DFD120465D49FFF739
:101C100089FA0095019520464E4932462B46FFF73A
:101C200052F90128D1D120465749FFF77BFA009598
:101C300001952046474932462B46FFF744F90128D3
:101C4000C3D15249206803F00AF85149206803F0D3
:101C500006F84946206803F002F84E49206802F071
:101C6000FEFF4146206802F0FAFF4A49206802F070
:101C7000F6FF3946206802F0F2FF4749206802F07B
:101C8000EEFF4649206802F0EAFF206803689B697E
:101C90009847284603F01AFC0095019502952046C6
:101CA0004EF660212B4A3346FFF77AF801288CD193
:101CB00020463B49FFF736FA0095019502952046EC
:101CC0004EF66021234A3346FFF76AF801287FF475
:101CD0007CAF20463349FFF725FA334905A803F0C6
:101CE00023F90096019502950395204642F2107162
:101CF00005AA184BFEF71AFF012813D008A8274998
:101D000003F012F90BA8284903F00EF905A808A959
:101D10000BAA03F0AFFA0BA803F0C4F808A803F06D
:101D2000C1F80EE020462149FFF7FCF92B4600954B
:101D30000195204607493246FFF7C5F8431E5D422C
:101D40005D4105A803F0AEF828460FB0BDE8F0836A
:101D50000AF5000884F200085DF9000830F7000871
:101D600043F7000857F700086AF700087CF70008F7
:101D700087F70008084C010026F5000892F70008D4
:101D80009BF70008A5F70008B1F70008BEF20008AD
:101D9000BDF7000866F7000889FA0008ACF20008F1
:101DA000C5F70008CCF70008AEF20008D6F7000827
:101DB00038B50478054634BB43781BB3134914483F
:101DC00002F072FF1349124802F04EFF1249104808
:101DD00002F045FF11481049114A124BFFF776FEF9
:101DE00004460B4844B9104902F05EFF42F21070FD
:101DF00003F06CFB2C7006E00C4902F055FF012348
:101E00002B7000E00124204638BD00BFAEF2000870
:101E100028130020F3F7000865F90008C412002019
:101E200078F200085CF9000802F800081FF80008C2
:101E30002DE9F04104460E46006812491F469046BF
:101E4000069D02F00CFF3146206802F008FF414673
:101E50000A22206802F0C9FF3946206802F0FAFE23
:101E600029460A22206802F0D3FF2068064902F0C2
:101E7000F6FE206803689B699847BDE8F0410020A2
:101E800003F024BBBEF20008ACF20008F0B587B046
:101E90000025044600920F4616461C491A462C237C
:101EA000FFF7C6FF0095019520461949194A2B46B0
:101EB000FFF709F8012802D04FF0FF3422E0206834
:101EC0003946036832469B689847206803689B69D7
:101ED00098470095019520460F490E4A2B46FEF77C
:101EE000F2FF0128E8D12046FEF70EFE216803A884
:101EF0000A2202F0AFFF03A803F06BFA044603A81E
:101F000002F0D0FF204607B0F0BD00BF3FF8000848
:101F100014F600085DF9000849F8000870B5044699
:101F200000200E46154603F0D1FA2069FFF7AAF803
:101F3000206931462A46237DFFF7A8FF70BD0000C7
:101F400070B58D680E460135284604F0E5FB044661
:101F50000023304621462A4603F01DF921462A4631
:101F60000348FFF7DBFF204604F0DEFB012070BDD5
:101F7000101200202DE9F04186B0002504460091A2
:101F80002C232F491646FFF753FF00950195204655
:101F90002C492D4A2B46FEF796FF01284BD12046AF
:101FA000FEF7B2FD2046FEF7AFFD21682C2203A804
:101FB00002F050FF03A803F00CFA074603A802F052
:101FC00071FF04EB860603A821680A22D6F8048074
:101FD00002F040FF03A803F0FCF9A8F8160003A8DC
:101FE00002F060FFBD421ED020680368DB6898479E
:101FF00010B903F06BFAF7E7206803681B6998478C
:1020000073685FFA80FED3F8A010D3F8A4004A1CCE
:1020100002F07F02824204D0194481F820E0C3F824
:10202000A0200135DEE700230093019320460749F5
:10203000054AFEF748FF284606B0BDE8F08100BF1C
:1020400058F800089BF200085DF9000884F20008C7
:102050002DE9F74F044600208946019203F036FA35
:102060002069FFF70FF80025019B9D4245D2019B97
:1020700004F1200B5846C5EB0308FFF727F840454D
:1020800038BF8046B8F1000F24D04746CA465846AC
:10209000FFF71CF810B9C1444544E5E7D4F8A43073
:1020A000C3F18006B742B8BF3E468642A8BF064687
:1020B0000BEB030150463246009304F00DFE009BEB
:1020C000BF1B03EB060C0CF07F02C4F8A420B24443
:1020D000E1D0DCE72069FEF7D5FFE38A6BB1D4F8E5
:1020E000A420D4F8A0302069D11A0029D8BF8031AB
:1020F0000139227DFFF73EFFB6E7284603B0BDE871
:10210000F08F0000F7B500240094214622462346B4
:10211000284802F05FFD284B284A29481A604FF4EE
:102120007A728260274A284E284F0260012203619A
:102130009860274D4460C0F8A440C0F8A0400275E4
:10214000C4828461047744773146224C384602F0D9
:10215000EBFE3846204F2246294603F0B7FA3146B7
:10216000384602F0E1FE38461C4F2246294603F06D
:10217000ADFA314638461A4E02F0D6FE22462946BE
:10218000384603F0A3FA3046164902F0CDFE304639
:10219000154E2246294603F099FA3046134902F0BB
:1021A000C3FE30462946224603B0BDE8F04003F0A6
:1021B0008DBA00BFE0110020C41200205813002087
:1021C0001012002040F20008AEF20008F8110020C2
:1021D000A54E000808000020F8120020041200207C
:1021E000B812002065F80008DC1200206CF8000826
:1021F00030B505468BB00C4608465D4902F0A2FF9B
:10220000002840F0B380224601A85A4900F01AFA8B
:1022100007A8584901AA00F023FA07A8564902F076
:1022200091FF044607A802F03DFE14B153485449FB
:1022300097E0544907A802F077FE01AA04A84D4987
:1022400000F00EFA04A907A802F03FFF01464B4830
:1022500002F020FD04A802F025FE07A802F022FEED
:1022600001A8494900F088FA20B3AC6040494348CE
:1022700002F01AFD4549414802F0F1FC424A07A824
:1022800001A900F041FB07A93C4802F021FD07A885
:1022900000F0FEF901A93C4A07A800F035FB07A8A9
:1022A00000F031FA044607A800F0F2F93848214658
:1022B000FEF716FB01A8374900F05EFA18B301A833
:1022C000354900F059FA00284DD001A9314A07A834
:1022D00000F01AFB07A800F00DFA044607A800F06A
:1022E000D7F901A92C4A07A800F00EFB07A800F0B7
:1022F00001FA054607A800F0CBF9254821462A46F1
:10230000FEF70EFB2FE001A8244900F035FA08B3D0
:1023100023491A4802F0A3FC204A07A801A900F0AB
:10232000F3FA07A9154802F0D3FC07A800F0B0F9AA
:1023300001A91A4A07A800F0E7FA07A800F0E3F994
:10234000184C206007A800F0A3F911482168FEF797
:102350001FFB08E001A8144900F00EFA18B907485D
:10236000124902F0A1FC01A800F092F90BB030BDB7
:10237000AEF200080C13002073F8000828130020A8
:102380007DF80008B5F80008CEF80008D2F800087B
:10239000DE110020E9F10008EFF1000816F2000854
:1023A000E6F800080C000020FEF8000803F9000819
:1023B00030B5234B87B01C681D462248FEF755FBFD
:1023C00000283AD02B681B1BB3F5FA6F35D21D4895
:1023D000FEF784FE0028F0D00A226846194902F070
:1023E00039FD1949194802F05FFC1949174802F0F4
:1023F0005BFC03A8174902F097FD694603A802F0A9
:1024000064FE154902F06EFE0146104802F042FCDF
:1024100003A802F047FD0D4802F0BEFA694603A882
:1024200002F0C5FD03A90D48FFF7E2FE03A802F084
:1024300039FD684602F036FDBFE707B030BD00BF8A
:102440001014002010120020AEF200082813002003
:1024500030F9000857F90008ADF20008E812002032
:10246000204B30B51A68204C22F0E06242F0007236
:1024700087B01A60204600F073F820461B4C1C4DB4
:1024800000F0AEF84FF41651204602F0FFFA28464D
:10249000FEF774FFFEF726F8FEF73EF815492046D2
:1024A00002F002FC2846FEF7EFFF134D13492860A7
:1024B000684602F039FD694603A802F078FD2968F4
:1024C00003A802F035FE0E4902F00CFE014620463C
:1024D00002F0E0FB03A802F0E5FC684602F0E2FC33
:1024E00007B030BD0400014008130020281300206D
:1024F000E81200206BF900080413002073F90008AB
:1025000084F9000808B51148FEF7FCFF10B910481F
:10251000104905E00D48FFF74BFC28B90C480E495F
:10252000BDE8084002F0C0BB0848FFF7CFF80748F5
:10253000FFF724F910B906480849F1E70348FFF707
:1025400037FFBDE808400148FEF71ABDE812002039
:102550002813002087F90008A7F90008C7F9000828
:1025600008B50320002102F043FF0420002102F0FF
:102570003FFF0F20002102F03BFFBDE8084005208F
:10258000002102F035BF000010B5144611B1012939
:102590000AD013E00320114602F082FF0A480CB172
:1025A0000A490DE00A490BE00420114602F078FFC9
:1025B00005480CB1074903E0074901E00248074913
:1025C000BDE8104002F070BB28130020EBF90008B2
:1025D000F6F9000800FA00080BFA000815FA0008DE
:1025E00010B50A4C0520012102F05AFF20460021B7
:1025F0000122FFF7C9FF012120460A46FFF7C4FF69
:10260000BDE810400F20012102F04ABF081300204E
:102610000A22B1FBF2F302FB131202EB0310C0B269
:1026200070470000014B0360704700BF38FA000894
:1026300010B5034B0446036002F0D8FE204610BDDF
:1026400038FA000810B51146044600F0A5F82046F7
:1026500010BD10B51146044600F0ACF8204610BD80
:1026600010B51146044600F0C3F8204610BD000026
:102670000348044B0449054A036003F027B800BF30
:102680000C13002038FA0008252600080800002056
:1026900038B5064B04460360406820B1A56815B9FB
:1026A00000F0D6FD6560204638BD00BF48FA00083E
:1026B00010B50446FFF7ECFF204602F097FE2046D7
:1026C00010BD406838B50D4658B100F0D9FF04463A
:1026D0002146284602F0C3FA0546204601F0E0F8FC
:1026E000284638BD024A026000224260826070477C
:1026F00048FA000810B50446406801F0B4F808B183
:102700006368586910BD10B50446406801F0B2F81E
:1027100008B16368186910BDB0B5044600AF4868D9
:102720000D4601F0B5F820B9124B60602360A0603F
:102730001CE0686800F0A7FF83000A3323F007035A
:10274000ADEB030D6B6801469A68684600238B4227
:1027500005DA156A40F8235012680133F7E701F0F3
:1027600045F8044B606023600023A3602046BD460B
:10277000B0BD00BF48FA000838B5044640680D46B1
:1027800001F086F830B16068294600F084FF00301F
:1027900018BF012038BD000010B50446086800F0DD
:1027A0006BFF034B606023600023A360204610BDD5
:1027B00048FA000830B5496885B0044611B902F0FE
:1027C000B3FB11E0084600F05BFF0546294601A86F
:1027D00002F0AAFB284601F063F8204601A902F0A6
:1027E00052FB01A802F05EFB204605B030BD0000A0
:1027F00038B54D680446002D31D0284601F01FF849
:1028000000282CD1284601F021F810B120461749A4
:1028100027E0284601F021F810B12046144920E0B5
:10282000284601F020F810B12046124919E0284648
:1028300001F020F810B120460F4912E0284601F0BF
:1028400020F810B120460D490BE0284601F020F891
:1028500010B120460A4904E020460A4901E00A492D
:10286000204602F061FB204638BD00BF58FA000840
:1028700060FA000865FA00086CFA000873FA0008AC
:1028800079FA000880FA000873F8000838B545683E
:1028900004464160DDB18068A0B100F0F9FF30B1BD
:1028A000A068296A6268BDE8384001F027B8A068CE
:1028B00000F0E7FF58B1A06829466268BDE83840DB
:1028C00000F0ECBE2846BDE8384000F0C1BC38BD81
:1028D00010B50446084603F051F800F021FF014608
:1028E0002046BDE81040FFF7D1BF10B504460846AA
:1028F00000F04AFF01462046BDE81040FFF7C6BF82
:102900000968FFF7F2BF000070B5054648680C463D
:10291000164600F0BDFF28B900F05CFF01462046D6
:10292000FFF7B4FF6068314600F0B5FE18B9606883
:10293000314600F0E1FE6368024A68602A60AB60DD
:10294000284670BD48FA00080448054B0549036055
:10295000054A00234360836002F0B8BE10130020D4
:1029600048FA0008912600080800002010B500224F
:102970001346815CA1F13004092C01D8303B0AE0F8
:10298000A1F14104052C01D8373B04E0A1F1610419
:10299000052C0AD8573B032A0B4402F1010218BF49
:1029A0001B01042AE5D1184610BD002010BD2DE9F9
:1029B000F0470B688A688146551C9E189A5C8846C9
:1029C000222A1D4440F0CA804C682F460022F91A82
:1029D000A14280F0C3803978222909D05C2905D131
:1029E0000137F91AA14280F0B98001320137EEE7D0
:1029F000C2F10102B81BD8F8103010449847824643
:102A0000002800F0AB800446BD4280F08B802B781C
:102A10005C2B03D0237001350134F5E77A1B002AC3
:102A200040F390806B78662B19D00CD82F2B17D0E1
:102A300002D8222B14D085E05C2B11D0622B40F001
:102A4000818008230CE0722B0ED003D86E2B79D135
:102A50000A2305E0742B09D0752B09D072E00C23F2
:102A60002370013402235BE00D23F9E70923F7E724
:102A7000052A67DDA81CFFF779FFA0F55C43B3F5D5
:102A8000806F06465ED3A0F55843B3F5806F1CD225
:102A9000AB1DFB1A052B55DDAB795C2B52D1EB79C5
:102AA000752B4FD105F10800FFF760FFA0F55C43DF
:102AB000B3F5806F46D2C0F30900C6F3090640EAB9
:102AC000862606F580360C2306E07F284FF00603A5
:102AD0000BD9B0F5006F0BD3B6F5803F0BD3B6F52D
:102AE000881F2FD2F021042207E00021012204E0F8
:102AF000C021022201E0E0210322501EC0B240B1F9
:102B000006F03F0C6CF07F0C04F800C0B6090138E9
:102B1000F4E7012A14BF0E4306F07F062670144422
:102B20001D4471E7002323701023C9F80C30D8F836
:102B30000030C9F810A0FB1A0133C8F80830012092
:102B4000BDE8F087D8F8143050469847D8F80030E0
:102B5000ED1AC8F808500020BDE8F087002DF5D127
:102B6000F9E710B590B102687AB1416883688B4289
:102B700002D38B4206D010BDD45C202CF9D801338F
:102B80008360F3E7013B836010BD104610BD61B167
:102B900060B183680BB9816005E01A680AB1134619
:102BA000FBE719604B60012070470846704738B555
:102BB000044638B1006828B1A568284404F0FCFD3B
:102BC0002844A06038BD70B5044600283ED0006897
:102BD00000283DD0636813B1A2689A4237D2002919
:102BE00035DBA268561C0E449E4201D8104470BDCD
:102BF0002369002B2BD1B6F1804F06D3002EA8BF3E
:102C00006FF0004602DA184670BD7600236A23B1E1
:102C1000314698470546A0B904E0A3693046984775
:102C2000054630B92068E369984765602560284605
:102C300070BDA2682168013204F04EF8E369206893
:102C40009847A06884E86000284470BD70BD0020EB
:102C500070BD00002DE9F8430746084611B9002071
:102C6000BDE8F88317B13A4600250DE00321FFF7D0
:102C7000AAFF0028F3D0384904F040FD68E00D2B8E
:102C80000DD80C2B06D30135904612F8013B002BD2
:102C9000F5D10CE0A3F10801022904D8F3E7222BB7
:102CA000F1D05C2BEFD01F2B98BF0535ECE7C7EBBD
:102CB0000808A84408F10301FFF785FF064600282D
:102CC000CDD04FF02209013086F8009045B9464436
:102CD0003946424604F000F886F80190B57037E0B6
:102CE000044617F8013B7BB31F2B06D9222B04D0D7
:102CF0005C2B02D02370204624E05C23237017F85D
:102D0000012C601C0C2A12D007D8092A13D00A2AD9
:102D10000FD0082A12D162230EE0222A05D05C2AA5
:102D200003D00D2A0AD1722306E062700AE06623FE
:102D300002E06E2300E07423637003E0074904F0AF
:102D4000EFFA601D441CCCE7464422227270B37037
:102D50000120BDE8F88300BF88FA00088BFA00085C
:102D60002DE9F8430D4600284CD000293FD0846857
:102D70005AB9254B1E680EE0216A00293DD028462D
:102D800004F09EFB002838D02468002CF4D131E0F8
:102D9000206A18B92468002CFAD12BE085422CD087
:102DA00000216B5CF21892F801C0425C0CF0030C3D
:102DB000B7187F78BCF1010F07F003070CBF03F1D0
:102DC00020099946012F0CBF02F120089046C14509
:102DD00003D10131002BE4D10FE0BCF1010F08BF9A
:102DE0002033012F08BF20329342D3D105E008469B
:102DF000BDE8F8832046BDE8F883236A002B14BFA2
:102E000020460020BDE8F8830809002010B50346DD
:102E100028209847044618B10021282204F038F8E9
:102E2000204610BD2DE9F0410E468AB00546002827
:102E300000F08081002900F07D81047B082C39D0CE
:102E400007DC022C2BD0042C15D0012C40F0728111
:102E50001AE0202C00F08B8007DC102C40F06A81F7
:102E60000069FFF7F7FE044665E1402C00F0C380DF
:102E7000802C69D05EE108460521FFF7A4FE0028FA
:102E800000F05881A04912E008460621FFF79BFE9A
:102E9000002800F04F819D4904F030FC4BE10846CA
:102EA0000521FFF790FE002800F04481984904F0C6
:102EB00025FC3DE1D0E906450022002320462946B5
:102EC00002F0C2FD0022002303F026F803AF30B960
:102ED00038468D4904F012FC4FF004081FE08D497C
:102EE00022462B46384604F01BFA8B4980466A4638
:102EF000384604F03BFA012806D1DDE900012246FC
:102F00002B4603F009F830B93846844922462B464F
:102F100004F006FA8046B8F1190F00F20B81304632
:102F200008F10101FFF74FFE002800F003810023A4
:102F3000434503D0FA5CC2540133F9E70022C2547E
:102F4000B2681344B360F3E00069002800F0F28037
:102F500004F032FC441C21463046FFF734FE0028C2
:102F600000F0E8802969224603F0B6FEE0E08468BC
:102F700008460121FFF727FE002800F0DB805B23D5
:102F80000370B3680133B360F3680133F3603CB39B
:102F900020463146FFF746FF002800F0CB80304640
:102FA000FFF705FE2368CBB173693046002B0CBFD9
:102FB00001250225691CFFF706FE002800F0BA80F3
:102FC0002C23037073690BB9431C02E02022831C7D
:102FD000427000221A70B3681D44B5602468D6E7B9
:102FE00030460221FFF7EFFD002800F0A3805D23AB
:102FF0000370447099E04B698468002B0CBF012575
:1030000002250846691CFFF7DEFD002800F09280CB
:103010007B230370F3680133F36073690BB10A23F8
:103020004370B3681D44B5607369002C56D083B1FA
:103030003046F168FFF7C7FD00287BD00023F26817
:10304000934203D20922C2540133F8E7B3681A4409
:10305000B260206A3146FFF7FDFD00286AD0304695
:10306000FFF7A5FD73693046002B0CBF0125022533
:103070002946FFF7A8FD00285CD03A230370736946
:103080000BB109234370B36820461D44B560314637
:10309000FFF7C8FE00284DD03046FFF788FD756960
:1030A0002368003518BF0125002B18BF01353046B5
:1030B000691CFFF788FD00283CD0236813B12C233E
:1030C00003700130736913B10A23037001300023C8
:1030D0000370B36824681D44B560A5E713B1F168B7
:1030E000013100E002213046FFF76DFD10B3736936
:1030F000BBB10346F268191A013A914210D2092273
:1031000003F8012BF6E700BF60FA000891FA000807
:1031100097FA00089CFA0008A3FA0008A7FA00082A
:1031200018467D23037000234370F368013BF3606E
:10313000012400E0002420460AB0BDE8F08100BF71
:1031400070B5064668B104F037FB074B451C1B6899
:1031500028469847044628B131462A4603F0BCFD6C
:1031600000E070BD204670BD10000020F8B5144688
:103170000646F8B1F1B1EAB123B1D7680D4647F47C
:10318000007707E00846FFF7DBFF054690B1E768E8
:1031900027F40077E3689B0504D4206A10B1064B3E
:1031A0005B6898472562E76030462146BDE8F840F5
:1031B000FFF7EDBC0020F8BD10000020F0B5234C57
:1031C0008BB00D4624220021064601A803F060FEC4
:1031D00023684FF4807098474FF480720346069539
:1031E0000AAD01900292274694E8070005E907001E
:1031F00023B3304601A9FFF715FEF8B101A8FFF788
:10320000D6FCA568039925B101980131A847D0B92A
:1032100014E02368481C9847064678B1039A029B3D
:1032200001329A4228BF1A46019903F055FD039BCB
:10323000F554019863689847304604E0019808B156
:103240007B68984700200BB0F0BD00BF1000002045
:1032500070B50446E4B1E3682668DA0503D4A068D3
:1032600008B1FFF7F5FFE3680A4D13F4807F03D13F
:10327000206908B16B689847E3689B0503D4206A0E
:1032800008B16B68984720466B6898473446E1E779
:1032900070BD00BF100000202DE9F047074692B036
:1032A0000E46002900F06E810D68002D00F06C8143
:1032B0008C68D1F8048004F10409C1450AD82819A2
:1032C000A349042204F0A8FA20B90423FB60C6F83D
:1032D00008907DE004F1050AC2450AD828199D49E5
:1032E000052204F099FA20B90120F860C6F808A078
:1032F0004DE1C1450CD828199749042204F08CFAF5
:1033000030B902230120FB607861C6F808903EE1E5
:10331000444580F03B812B5D2919222B04D138468E
:103320003146FFF744FB32E12D2B03D0A3F13002ED
:10333000092A51D800220192C4EB0804A2420DF1DF
:10334000080813D08B5C392B07D8302B09D22D2BD2
:1033500007D02E2B05D02B2B02E0452B01D0652B5F
:1033600004D108F8023001323F2AE7D112AB1A44E7
:103370004FF0000A404601A902F840AC05F0E8FC15
:10338000DDF804900446C1450D4623D06EA3D3E971
:103390000023C7E9064502F0DDFD10B16FF00043E0
:1033A00008E02046294600226C4B02F0C9FD18B106
:1033B0004FF000437B6104E02046294602F0DEFD29
:1033C00078610823FB60B368C8EB09084344B36025
:1033D0000120DCE05046DAE05B2B50D1F368B3F516
:1033E0007A7F80F0D3800133F3602B5D5B2B40F05C
:1033F000CD800134B4603046FFF7B3FBB368726828
:1034000093425BD23268D25C5D2A2BD0013B4FF0F5
:103410000008B36044463069FFF7F8FC054648B33E
:1034200024B1C8F80000C0F8048000E00446B36886
:1034300030460133B360FFF794FB28463146FFF76F
:103440002BFFD0B13046FFF78CFBB3687268934214
:1034500013D23268D35C2C2B02D05D2B0DD102E04D
:10346000A846D8E70024F368013BF3602023FB6003
:10347000BC607FE0002C00F0898020467FE07B2B41
:1034800040F08480F368B3F57A7F7FD20133F36034
:103490002B5D7B2B7AD10134B4603046FFF761FBA2
:1034A000B3687268934209D23268D25C7D2A5AD0DE
:1034B000013B4FF00008B36045463AE0013BB36082
:1034C00064E0002D3CD0C8F80000C0F80480B36868
:1034D00030460133B360FFF744FB20463146FFF727
:1034E00066FA00284AD03046FFF73BFB2369726832
:1034F000236200232361B36893423FD23268D25CD7
:103500003A2A3BD10133B3603046FFF72AFB20460D
:103510003146FFF7C1FE002830D03046FFF721FBCF
:10352000B3687268934229D23268D35C2C2B17D1CE
:10353000A0463069FFF76AFC04460028C1D11CE0B0
:103540000546C4E7AFF300800000C0FFFFFFDF4186
:1035500060FA000891FA000897FA00080000E0C13C
:103560007D2B0BD100E00025F368013BF360402385
:10357000FB60BD60B368013329E73DB12846FFF722
:1035800067FE03E0084602E0284600E0002012B093
:10359000BDE8F087AFF300802DE9F04389B0044621
:1035A0000E46914601A800211C2203F071FC2F4B0E
:1035B00000271F605F609846002C53D0204601947E
:1035C00004F0FAF82A4B0130029093E8070008ABA8
:1035D00003E90700FFF71AFC0546002831D00198DF
:1035E00078B1039B53B9029B042B09D921490322CB
:1035F00004F012F920B90323039301E0384600E0F8
:1036000001A8FFF7AEFA01462846FFF745FEA8B12C
:10361000B9F1000F05D17EB1039B019A13443360C9
:103620000AE001A8FFF79DFA039B029A934205D294
:10363000019AD35C13B9EEE7284614E02846FFF759
:1036400007FE039B029A934203D30AB1531E00E084
:1036500013460EB1E2183260C8F80040C8F80430D2
:10366000002000E0204609B0BDE8F0831C130020D4
:1036700010000020B7FA000800210A46FFF78CBFAF
:103680000021FFF79BBD28B18368002013B10130F2
:103690001B68FBE770470122FFF762BB10B5E8B17A
:1036A000BAB1C1B18A4218D00B684C68136054603B
:1036B00003B15A60536803B11A6083688B424FF0BC
:1036C000000308BF82600B604B600846FFF7C0FD37
:1036D00003E0104610BD084610BD012010BD0000DB
:1036E00008B5044B1868FFF791FB08B10423C360C9
:1036F00008BD00BF1000002070B505460E46FFF75C
:10370000EFFF04463146284622460023FFF72EFDF0
:10371000054620461DB9FFF79BFD284670BD70BDCC
:10372000174B70B5044618680D46FFF76FFB064649
:10373000F0B10823C360C0E906450FA3D3E9002315
:103740002046294602F006FC10B16FF0004308E065
:103750002046294600220B4B02F0F2FB18B14FF035
:103760000043736104E02046294602F007FC7061C3
:10377000304670BDAFF300800000C0FFFFFFDF41A7
:10378000100000200000E0C138B50B4B054618685A
:10379000FFF73CFB044660B11023C3602846FFF7E7
:1037A000CFFC05462061204625B9FFF751FD28468C
:1037B00038BD38BD38BD00BF1000002008B5044B2F
:1037C0001868FFF723FB08B12023C36008BD00BFC2
:1037D0001000002008B5044B1868FFF717FB08B16C
:1037E0004023C36008BD00BF100000202DE9F8434E
:1037F000B1F10009804602DA0020BDE8F883002814
:10380000FAD0FFF7DBFF06460028F5D000273D463B
:103810004D4511D258F82500FFF7B6FF044618B9F8
:103820003046FFF715FDE7E70DB9B06001E03860FD
:10383000476001352746EBE73046BDE8F88320B105
:10384000007BD0F1010038BF0020704720B1C06874
:1038500010F0030018BF0120704718B1007B031F50
:1038600058425841704720B1007BB0F108035842DC
:103870005841704720B1007BB0F1100358425841C5
:10388000704720B1007BB0F1200358425841704787
:1038900020B1007BB0F1400358425841704700000E
:1038A00008B5024B5B68984708BD00BF10000020B8
:1038B000F8B506460D461F461446DAB1E1B1D368A5
:1038C0009B0503D4106A08B1FFF7EAFF2846FFF70B
:1038D00037FCE368206223F40073E36029463A462C
:1038E0003046FFF73DFA224601463046FFF7D6FE46
:1038F0000120F8BD1046F8BD0846F8BD0123FFF7CA
:10390000D7BF122938B50546144608460BD01329EF
:1039100010D0112916D100F071F80CB120460FE03B
:1039200047F6FF700CE000F069F8002CF6D149F67C
:103930003F4005E000F062F8002CEFD14FF2234049
:1039400000F010F9284638BD13B50022044601A83E
:10395000FFF7D7FF204602B010BD084600F0E8B8D8
:1039600000F0D4B8054B1B681B685B0103F184436E
:1039700094331A68002AFCD0704700BF1C00002056
:10398000054B1B681B685B0103F184438C331A6889
:10399000002AFCD0704700BF1C00002008B5FFF7CC
:1039A000E1FF054B00221B681B685B0103F18443A8
:1039B000C3F88C2008BD00BF1C00002008B5FFF72D
:1039C000D1FF054B01221B681B685B0103F1844397
:1039D000C3F8902008BD00BF1C00002008B5FFF709
:1039E000C1FF054B00221B681B685B0103F1844388
:1039F000C3F8902008BD00BF1C00002010B504468D
:103A000000F0E9FA00F0F4FA204A112C136A23F4CA
:103A10004073136213460BD005D8C4B1102C2AD1C1
:103A20000023136227E0122C11D0132C1AD022E0AD
:103A3000174A00211160012142F8081C154A12683A
:103A400012F0FF0FFAD01A6A42F4807212E0124AA2
:103A500001211160114A1268002AFBD01A6A42F44F
:103A6000007207E00E4A126812F0FF0FFAD01A6ACD
:103A700042F440721A620B4B01221A60FFF78EFF6C
:103A8000FFF77EFFBDE81040FFF76CBF001002405B
:103A900008044242040442428004424284044242F6
:103AA000440042423C044242F8B5104B1E6835685F
:103AB0002B686F681F4017F0010403D074680CB1C5
:103AC000A0470124BA0704D5B36813B1984744F05E
:103AD00002047B0704D5F36813B1984744F004044B
:103AE0006B6823EA04046C60F8BD00BF1C00002072
:103AF00008B5044B1B681B691BB19847024B012298
:103B00001A6008BD1C000020C482204208B5FFF7DF
:103B100045FFFFF735FFFFF725FF044B1B681B68C8
:103B20009869DB699BB243EA004008BD1C00002095
:103B300010B50446FFF732FFFFF722FFFFF712FF31
:103B4000FFF73CFF064B220C1B68A4B21B689A616E
:103B5000DC61FFF743FFBDE81040FFF703BF00BF84
:103B60001C00002010B50446FFF718FFFFF708FF00
:103B7000FFF7F8FEFFF722FF064B220C1B68A4B2EA
:103B80001B689A60DC60FFF729FFBDE81040FFF773
:103B9000E9BE00BF1C00002001498D4601490847CD
:103BA00000500020A93B000808B5124B124A1968C2
:103BB000914201D0002301E0104B07E01048D418D7
:103BC0008442F9D2C858D0500433F7E70D4A9342E3
:103BD00003D2002243F8042BF8E702F06BFD00202B
:103BE0000146024601F0FCFB074B0BB102F052FD0F
:103BF000FEE700BFB401010800000020B011002062
:103C0000B0110020181400209566000808B50D4B6F
:103C10001A680AB90C4A1A601B680C4AD21A824206
:103C200004DB09494242591A914206DA02F02CFD9E
:103C30000C2303604FF0FF3008BD024A18441060A7
:103C4000184608BD2413002018140020F84001284D
:103C5000FEE770470B4B10B5196809220A230A4882
:103C600000F0CAFE094B022219680948032300F03C
:103C7000C3FEBDE81040074B074819681A221B23F2
:103C800000F0BABE400100202813002044010020AB
:103C900040130020480100205813002010B50446AE
:103CA00000F07EF9034B20461978BDE8104000F083
:103CB00013B900BF38000020F8B50446056800F0CD
:103CC0000FFB22680023510101F184410B60802128
:103CD00029600121A9622B61EB606379696113B1ED
:103CE0008B4203D02BE04FF400436B644FF6FF731D
:103CF000D36200256E1CF7B22046394600F0FAFA6E
:103D0000D0B1236848F6FF7103F1340242F8251060
:103D100018336D1017F0010F53F8252014BF6FF002
:103D2000FF016FF47F4101EA020214BF68214FF4E2
:103D3000D0410A4343F82520042E3546DAD12168C4
:103D400001224B01490103F1844301F18441C3F88D
:103D500080220A60F8BD000038B5274B274C1A684E
:103D6000022042F010021A6000F04EF900250020F7
:103D700000F0E0F965602368182023F40023236035
:103D800000F0E5F9102000F0E2F900F043F8A5603A
:103D9000102000F0CFF9102000F0E7F90028FAD049
:103DA00000F039F8164800F0EDF9182000F0C2F9DB
:103DB000182000F0DAF90028FAD0022000F0AAF961
:103DC00000214FF0006000F087F90E4800F040FA43
:103DD00000F038F80C4B188800F0D0F80B4800F0D1
:103DE000D1F80B4800F068FA00F02EF800F02DF83A
:103DF000FFF72FFF38BD00BF002002400010024037
:103E00003C0000203F1901003A0000209D3C0008C2
:103E1000B93C0008704708B50020014600F0F0F9F1
:103E200001204FF4806100F0EBF90021022000F046
:103E3000E7F92D2000F0F4F9BDE808400320002147
:103E400000F0DEB900F0EAB8704700F027B90000D2
:103E5000012007E0022005E0032003E0042001E048
:103E60000520FFE70D4A0121116072B60C4A0021BE
:103E70001160074902B4084902B486B005498E466C
:103E8000704700BFAFF30080AFF30080AFF3008056
:103E900000000061F9FFFFFF1549000814ED00E084
:103EA00010E000E0AFF30080AFF30080AFF30080DC
:103EB000FEE710B50446007900F070F92079BDE8FE
:103EC000104000F083B903689A6822F4602242F43B
:103ED0008012114399607047002370B51A461C4642
:103EE000072B4FEA430503DCEE1801FA06F63443CC
:103EF0001D4401FA05F501330A2B42EA0502EFD110
:103F00000368DC601A6170BD38B5124D2A68136809
:103F10001C68A10706D5196821F002011960936891
:103F200003B19847620708D52B681A681B691168A6
:103F300021F00401116003B19847E30708D52B680D
:103F40001A68DB68116821F00101116003B198471C
:103F500038BD00BF68000020036801225B0103F147
:103F6000844303F58673191F1A6018680028FCD172
:103F700043F8042C0B68002BFCD170470146042049
:103F800000F03EB9044B10B504461868A047034B37
:103F90001868A04710BD00BF680000206400002022
:103FA00010B50446FFF785FF20464FF46021FFF768
:103FB0008AFF2368012103F1404308335A015B0162
:103FC00002F1844203F18443116520461960BDE883
:103FD0001040FFF7C1BF08B5142000F0DFF804203F
:103FE00000F0DCF8BDE80840042000F0EFB8000065
:103FF000014B01221A60704720000E42014B002243
:104000001A60704720000E42034B1A6822F0070224
:1040100010431860704700BF0020024008B50748F1
:1040200001F0C7FA064801F0C4FA064801F0C1FAE7
:10403000BDE80840044801F0BCBA00BF6C00002095
:10404000740000207C0000208400002070B501F086
:104050000704A4000F25A5400368C80853F8206092
:10406000092A26EA050514BF1646082606FA04F4AE
:10407000082A44EA050443F8204006D1012000FA4A
:1040800001F1DA6822EA010106E0092A05D10120DE
:1040900000FA01F1DA681143D96070BD08B5032058
:1040A00000F07CF8BDE80840032000F08FB8000065
:1040B00000284FEA011105DA064B00F00F00C9B2E3
:1040C0001954704700F16040C9B200F5614080F8B2
:1040D0000013704714ED00E021F0604138B521F085
:1040E0007F01084B0843986000241D4660B20F21F1
:1040F0000134FFF7DDFF2B2CF8D1F02385F82330B6
:1041000038BD00BF00ED00E0014B13F81000704710
:10411000F0FC0008064B5A6822F0030202435A6082
:1041200080005A6802F00C028242FAD1704700BF48
:1041300000100240030A0121C0B201FA00F003F1AD
:10414000804303F504331A68104318607047030A6C
:104150000121C0B201FA00F003F1804303F50433FA
:104160001A6822EA000018607047030A0222C0B2EF
:1041700002FA00F003F1804303F504331B68184092
:1041800070470000044B05C85968126821F4741187
:1041900002430A435A6070470010024010B50446BB
:1041A000FFF7B2FF074B53F82020074B03EB440403
:1041B000637803EBC2039B0003F1844301221A607E
:1041C00010BD00BF8C000020F0FC000810B50446B4
:1041D000FFF79AFF084B53F82020084B03EB4404E9
:1041E000637803EBC2039B0003F1844301221A604E
:1041F00000221A6010BD00BF98000020F0FC0008EB
:1042000010B5054B054C5A6854F8200022EA00020C
:104210001143596010BD00BF001002404CFD000862
:1042200010B50446FFF770FF074B53F82020074BEB
:1042300003EB4404637803EBC2039B0003F1844364
:1042400000221A6010BD00BFA0000020F0FC000892
:10425000024B072258601A60704700BF10E000E070
:1042600008B5044B1A6801321A60034B1B6803B18E
:10427000984708BD101400207013002011F0010FA2
:1042800070B542EA03030CBF0825002503FA05F5C3
:10429000006801F1FF3400F11800C4F3400450F845
:1042A000241014BF6FF0FF066FF47F46314029439E
:1042B00040F8241070BD000010B504460448A04723
:1042C0000448A0470448A0470448A04710BD00BFC9
:1042D000F40000201C010020AC000020D0000020D1
:1042E00010B504460079FFF759FF2079BDE810406A
:1042F000FFF76CBF03791E2B10D9212B0ED0202B7A
:104300000ED9222B01D0252B04D102298CBF0020ED
:10431000012070474B1E584258417047012070479A
:10432000002070478B1C40F823200368012203F112
:1043300040430C3301EBC3039B0003F184431A6039
:1043400042790379FAB9B3F11A025342534107296A
:1043500045D8DFE801F004090909090E0E13002B06
:104360000CBF2C23192331E0002B0CBF2E231B2361
:104370002CE0002B0CBF2D231A2327E0002B0CBFB1
:104380002B23182322E01B3B0C2B28D8DFE803F05B
:10439000071D090B0D0F2711131517191B001C23DF
:1043A00014E01E2312E0322310E036230EE0372300
:1043B0000CE018230AE0192308E01A2306E02B2357
:1043C00004E02C2302E02D2300E01D2359090122E3
:1043D00003F01F0302FA03F3014A42F82130704749
:1043E00000E100E00368002203F140430C3301EBDD
:1043F000C3039B0003F1844302311A6040F821207B
:10440000704738B543790446022B0D463BD0032A4A
:1044100039D8DFE802F002111F2DFFF7E3FF236810
:10442000013D03F140432033DB0003EB85039B0098
:1044300003F18443002225E00368002203F1404396
:104440000C3301EBC3039B0003F184431A60602229
:10445000082301E010220023FFF710FF2368013D2D
:1044600003F140432033DB0003EB85039B0006E0B0
:1044700003684FF2F1229A6103229A605B0103F113
:10448000844301221A6038BD10B5074B1C68E168EF
:1044900022690A40120606D55B6A23B19847236950
:1044A00023F08003236110BDF400002010B5074BFA
:1044B0001C68E16822690A40D20706D59B6823B1CF
:1044C0009847236923F00103236110BDF400002005
:1044D000F8B50C4F3D68EB682E691E4016F040049D
:1044E00003D03C6A0CB1A0474024B30604D5FB6955
:1044F00013B1984744F020042B6923EA04042C618B
:10450000F8BD00BFF4000020F8B5134F3E68F36813
:1045100035691D4015F0100403D0BC690CB1A047EB
:104520001024290704D57B6913B1984744F0080487
:104530006A0704D53B6913B1984744F00404AB07FC
:1045400004D5FB6813B1984744F00204336923EAA9
:1045500004043461F8BD00BFF4000020F8B51A4E21
:104560003768FB683D691D4015F0400403D0346A8C
:104570000CB1A0474024EB0604D5B36913B19847AA
:1045800044F01004280704D5736913B1984744F028
:104590000804690704D5336913B1984744F004044B
:1045A000AA0704D5F36813B1984744F00204EB0757
:1045B00004D5B36813B1984744F001043B6923EA7A
:1045C00004043C61F8BD00BF1C010020F8B51A4E80
:1045D0003768FB683D691D4015F0400403D0346A1C
:1045E0000CB1A0474024EB0604D5B36913B198473A
:1045F00044F01004280704D5736913B1984744F0B8
:104600000804690704D5336913B1984744F00404DA
:10461000AA0704D5F36813B1984744F00204EB07E6
:1046200004D5B36813B1984744F001043B6923EA09
:1046300004043C61F8BD00BFAC000020F8B51A4E80
:104640003768FB683D691D4015F0400403D0346AAB
:104650000CB1A0474024EB0604D5B36913B19847C9
:1046600044F01004280704D5736913B1984744F047
:104670000804690704D5336913B1984744F004046A
:10468000AA0704D5F36813B1984744F00204EB0776
:1046900004D5B36813B1984744F001043B6923EA99
:1046A00004043C61F8BD00BFD0000020818802688E
:1046B000034689B2505C99881A8989B292B29142B4
:1046C00017BF9A880022013292B2C0B29A80704716
:1046D000C28838B5838892B29BB201329A420446AE
:1046E0000D461AD0C288038992B29BB29A4202D177
:1046F00083889BB28BB14FF0FF30E288236892B27F
:104700009D54E288238992B29BB29A4217BFE388F4
:10471000002301339BB2E38038BD2046FFF7C6FF7C
:10472000EBE770B51E460546084611460422059C77
:10473000FFF78CFC9DF810100B223046FFF786FC2B
:104740002B6804F00F01DA6804F0300422F4F05210
:104750001204120C42EA4122DA601A6922F4405231
:104760001204120C42EA04241C6170BD38B50446E0
:10477000154611B900F096F8014619235943AD00CA
:104780006423B1FBF5F1B1FBF3F21201100903FB55
:10479000101109013231B1FBF3F303F00F0321686B
:1047A0001A4392B28A6038BD38B5114DEB6898064D
:1047B00007D52B68990604D569680E48C9B2FFF77A
:1047C00087FFEB680A4C1A0611D523681B060ED525
:1047D00009488288C38892B29BB29A4203D0FFF7FD
:1047E00065FF606038BDE36823F08003E36038BD97
:1047F00000380140801300207413002038B5114D9B
:10480000EB68980607D52B68990604D569680E48A9
:10481000C9B2FFF75DFFEB680A4C1A0611D5236891
:104820001B060ED509488288C38892B29BB29A4271
:1048300003D0FFF73BFF606038BDE36823F08003DF
:10484000E36038BD004400408C130020A413002016
:1048500038B5114DEB68980607D52B68990604D535
:1048600069680E48C9B2FFF733FFEB680A4C1A06B5
:1048700011D523681B060ED509488288C38892B2D9
:104880009BB29A4203D0FFF711FF606038BDE36826
:1048900023F08003E36038BD0048004098130020F7
:1048A000B013002008B590F89002FFF72DFC20B15E
:1048B0000128034818BF002008BD024808BD00BFFA
:1048C00000A24A040051250208B5114B01211C68C1
:1048D00003222046FFF7BAFB002301211A46934228
:1048E000206834BF02254FF40035B2F5007F056122
:1048F00003F1010303D0002A08BF012101E04FF0BA
:10490000FF31B3F5007F04BF52180023E7E700BF73
:10491000ECFC000808B5034B0BB1AFF3008062B6A6
:10492000FFF7D2FF0000000003695B68D9889A880E
:1049300089B292B2D8888A1A998880B289B288429C
:1049400003D2198989B201310A4492B282B199889D
:104950001A6889B2505C99881A8989B292B29142D8
:1049600017BF9A880022013292B2C0B29A80704773
:104970004FF0FF30704703695B689988DA8889B225
:1049800092B2914205D09A881B6892B2985CC0B2EC
:1049900070474FF0FF30704703699A689088D1885C
:1049A00080B289B28842F9D11A6813685B06FCD5D7
:1049B000704713B504698DF8071020460DF1070103
:1049C000012200F035FE0028F7D0012002B010BD12
:1049D00003695B68D8889A8880B292B2D988801AB5
:1049E0009A8889B292B2914203D21B899BB2013359
:1049F000184480B27047000030B5002545604FF480
:104A00007A758560024D016105600275437530BDA0
:104A100068FD000803692DE9F74FDB6804469942F9
:104A20000F4692462CD890F81480174D4FEA08187C
:104A300008EB050690F8159070684FEA091909EB24
:104A4000050B717B10B10022FFF7DBFC206900F041
:104A5000BBFD337B9BF80C2020698DE8080459F8D6
:104A6000051058F80530FFF75CFE206900213A4632
:104A7000FFF77CFE206903B0BDE8F04F00F0CEBD2B
:104A800003B0BDE8F08F00BFBCFA00080022FFF7BA
:104A9000C1BF0000044B02791B789A4202D1034B3C
:104AA0001B681860704700BFCC130020D013002093
:104AB000002310B50446036072B6054B1931197016
:104AC000044B18600448FFF7F7FB62B6204610BDA0
:104AD000CC130020D0130020954A00080368002260
:104AE0001B685B0103F184431A607047036801226D
:104AF0001B685B0103F184431A6070470368013946
:104B00001B6889B29962704703681B68DA6A92B2BF
:104B1000914228BF11465962704738B5054639B9E8
:104B2000036801221B689962DA62D86A80B238BDD4
:104B300048244C434FF6FF71B4FBF1F1013189B2C7
:104B400004EB5104B4FBF1F4FFF7D8FF2B68A4B2D7
:104B50001B682046DC6238BD0068C9B2FFF7E2BBC3
:104B600008B501210848FFF7A3FF02210748FFF716
:104B70009FFF03210648FFF79BFFBDE8084005485B
:104B80000421FFF795BF00BFBC130020C013002015
:104B9000C4130020C81300202DE9F041002407466B
:104BA0000E4625463B1919790A22304600F01DF9B8
:104BB0002E218046304600F04DF801344044032C4D
:104BC0000544EFD13046F9790A2200F00EF9284465
:104BD000BDE8F08130B58371034D9DF80C30056060
:104BE00001714271C37130BD90FD0008044B054A4C
:104BF0001A6000221A715A719A71DA71704700BFF7
:104C0000D413002090FD000870B505460E46002420
:104C1000315D29B12A682846126890470134F7E7C8
:104C2000204670BDF8B505460C4616468F18BC42A6
:104C300006D02B6828461B6814F8011B9847F6E736
:104C40003046F8BD10B502680B46946809689A684A
:104C5000A04710BD08B503681B68984708BD08B594
:104C600003685B68984708BDFFF7F9BF10B50A688D
:104C70000446126808462146904710BD38B50D21FC
:104C80000546FFF7E7FF0A2104462846FFF7E2FF43
:104C9000204438BD38B50446FFF7D4FF054620460A
:104CA000FFF7ECFF284438BD38B50446FFF7D7FFBF
:104CB00005462046FFF7E2FF284438BD38B50446D4
:104CC000FFF7CDFF05462046FFF7D8FF284438BD43
:104CD00038B50446FFF7CAFF05462046FFF7CEFF6A
:104CE000284438BD2DE9F04F14461D4691B054EAD2
:104CF000050381469DF868B004D13021FFF7AAFF73
:104D000001202EE04FF000085FFA8BF600272046C6
:104D1000294632463B4601F0A9F908F101080DF198
:104D2000000AC2440AF8012C204629463B46324676
:104D300001F09CF904460D4654EA0503E4D1002431
:104D400008F1FF381DF808104846092994BF303192
:104D50003731C9B2FFF77EFF0444B8F1000FEFD13D
:104D6000204611B0BDE8F08F2DE9F041069F0646C0
:104D700014461D462FB90368D1B21B689847BDE899
:104D8000F081002C75F1000305DA2D21FFF762FF99
:104D9000644265EB4505FFB20697304622462B4636
:104DA000BDE8F041FFF79EBF07B5CB1700920A465A
:104DB000FFF7DAFF03B05DF804FB38B50446FFF7F0
:104DC000F3FF05462046FFF759FF284438BD70B56C
:104DD000049921B90368D1B21B68984770BDC9B264
:104DE0000491BDE87040FFF77DBF07B50023009236
:104DF000CAB2FFF7ECFF03B05DF804FB38B5044618
:104E0000FFF7F3FF05462046FFF738FF284438BD7B
:104E100007B5002300920A46FFF7D9FF03B05DF8FB
:104E200004FB000038B50A4B04461A681D46C260F0
:104E30002268204613699847002807DAE2682B6841
:104E40009B1AA2689342F3D34FF0FF3038BD00BFE6
:104E50001014002070B50D4609490446164600F0AE
:104E600063F82846FFF7DEFF01460029204605DBF0
:104E7000B14203D0C9B200F0E8F8F2E770BD00BF5C
:104E8000AEF2000870470022026010B50C68426064
:104E900004604C68826044608C6884600A604A6088
:104EA0008A6010BD10B50446006801F03DFC204644
:104EB00010BD10B50446006808B101F035FC0023B0
:104EC0002360A360636010BD38B504460D460068DA
:104ED000013102F02BF810B184E82100012038BD27
:104EE000036810B5044613B143688B4207D22046CD
:104EF000FFF7EAFF20B1A3680BB922681370012005
:104F000010BD70B50E46114604461546FFF7E8FF82
:104F100018B92046FFF7CDFF04E0A56020683146B0
:104F200002F0ECFB204670BD38B500230446036058
:104F3000436083600D4639B1084602F03DFC2946C6
:104F400002462046FFF7DDFF204638BD38B505464E
:104F500000680C4678B1096859B10C4B4BB16A68CE
:104F6000A3689A4205D302F0C9FBA368AB60002393
:104F70000AE001F0D9FB23682B6063686B60A368CB
:104F8000AB60002323606360A36038BD854E0008DA
:104F9000884210B50B46044607D0096819B19A68D3
:104FA000FFF7AFFF01E0FFF784FF204610BD10B50B
:104FB00000230446036043608360FFF7E9FF204657
:104FC00010BD884210B5044601D0FFF7BFFF204650
:104FD00010BD38B505460C4641B1084602F0ECFB61
:104FE000214602462846FFF78CFF01E0FFF761FFEC
:104FF000284638BD70B5044685680E4609B90020BC
:1050000070BD62B115442946FFF76AFF0028F6D04B
:105010002068A3683146184402F070FBA5600120A7
:1050200070BD0B469A680968FFF7E4BF38B50546BE
:105030000C46084641B102F0BFFB21460246284615
:10504000BDE83840FFF7D6BF38BD07B500238DF85F
:105050000410012201A98DF80530FFF7CBFF03B042
:105060005DF804FB13B50A220446084601A900F0C6
:1050700073FA01A802F0A0FB01A902462046FFF73F
:10508000B9FF02B010BD1FB504460A2208466946A2
:1050900000F062FA684602F08FFB6946024620463D
:1050A000FFF7A8FF04B010BD1FB504460A2208464A
:1050B000694600F07CFA684602F07EFB69460246CB
:1050C0002046FFF797FF04B010BD0B4610B50968E6
:1050D0009A680446FFF78EFF10B92046FFF7E9FEF5
:1050E000204610BD38B504460D4641B1084602F0D1
:1050F00063FB294602462046FFF77CFF10B9204695
:10510000FFF7D7FE204638BD10B50446FFF79DFFD8
:1051100010B92046FFF7CDFE204610BD10B504465D
:10512000FFF7B1FF10B92046FFF7C3FE204610BDC0
:1051300010B50446FFF7B8FF10B92046FFF7B9FED7
:10514000204610BD826808B50B4612B919B9012076
:1051500008BD11B90368187802E0006802F0B0F9E0
:10516000D0F1010038BF002008BD08B582688B6807
:105170009A420CD3006868B1096851B1D31A184437
:1051800002F09EF9D0F1010038BF002008BD0020D8
:1051900008BD084608BD38B50C469AB191B1816882
:1051A0008B4202D30023237038BDC91A551E8D428D
:1051B00028BF0D4601682A461944204602F086FBA6
:1051C0000023635538BD836810B59A4206D204683F
:1051D000A01802F0FBF808B1001B10BD4FF0FF3023
:1051E00010BDF8B515468A680F46C2B18368B3B1E1
:1051F0009A4214D806689D4228BF03F1FF35304615
:105200004FF0FF34731998420CD8396802F0E4FC6F
:1052100040B1831BAB4298BF1C460130F2E74FF010
:10522000FF30F8BD2046F8BD9A422DE9F04107460F
:105230000D4614461E4601D93446164638460C49DA
:10524000FFF772FEAB689C420FD29E4228BF1E46FB
:105250002B68002213F806809A55296838462144A5
:10526000FFF7B7FE2B6803F806803846BDE8F081EB
:10527000AEF200082DE9F74FD0F808A004460F461B
:105280001646BAF1000F77D0D1F808B0BBF1000F85
:1052900072D093680568CBEB0308B8F1000F0DD10D
:1052A0002846396802F098FC0546002864D0316829
:1052B000B26801F011FDB3681D44F1E702DB0B6831
:1052C000D14622E0A9462846396802F085FC82468C
:1052D000A0B1C5EB0A0B294648465A46D94401F00D
:1052E000FBFC48463168B26801F0F6FCB368BD6863
:1052F0009944A36855444344A360E4E748462946DB
:1053000003B0BDE8F04F02F0F9B919462846019301
:1053100002F062FC019B18B100EB0B05C144F4E7FD
:10532000D14529D06368994504D920464946FFF7FD
:10533000CBFD08B3A268013A002A1DDB204639469E
:10534000FFF74FFF051E17DBBA682168A3682A44E0
:10535000114401EB08009A1A01F034FDA368226899
:1053600043440021A360D1542068B26828443168C6
:1053700001F0B2FC6A1EDFE703B0BDE8F08F2DE953
:10538000F0410668054616B3876807B3B046444641
:10539000207808F1010801F0B5F90028F7D1013FA4
:1053A0003744387801F0AEF948B901373A1BB442B6
:1053B000AA6008D93046214601F08EFC03E0A742DE
:1053C000F3D3013FEDE72A68AB680021D154BDE873
:1053D000F081006808B101F049B97047FEF7BCBC24
:1053E00008B5FDF73DF8FDF78DF8FCE701F09CB935
:1053F000222870B53BD8082939D8DFE801F0051A12
:10540000080B0E11081417000024032213E00024D7
:10541000042210E0002422460DE0002409220AE0C4
:105420000024082207E001240B2204E001240F22BB
:1054300001E0002407220E4B00011E18317B185892
:10544000FEF704FE706890B1717B24B10122BDE8C3
:105450007040FEF7D6BF0368013903F140432033A3
:10546000DB0003EB81039B0003F184431C6070BDF0
:10547000BCFA000822280ED8084B00011A18127B2B
:10548000012101FA02F21B581B689B681A420CBFEB
:105490000020012070470020704700BFBCFA0008C0
:1054A000222810D8084B00011A18127B1B58012023
:1054B00000FA02F2D1F1010138BF0021090102FA1C
:1054C00001F11B6819617047BCFA0008054B70B503
:1054D0001C6806461D4600F007F82B681B1BB342EC
:1054E000F9D370BD101400207047F0B58BB059B3DC
:1054F000931E222B2AD80A2A2AD1002828DA4042D1
:10550000012501AB1E4670B1B0FBF2F702FB170498
:10551000092C3846D8BF303403F10107C8BF5734CF
:105520001C703B46EFE7B342EED01DB12D204A1C64
:10553000087000E00A46B34204D913F8010D02F8DE
:10554000010BF8E700231370084603E0002001E098
:105550000025D6E70BB0F0BDFFF7C7BF70B58AB026
:1055600001B3931E222B1FD801AB1D4670B1B0FBB7
:10557000F2F602FB1604092C3046D8BF303403F192
:105580000106C8BF57341C703346EFE7AB42EED07C
:105590000A46AB4204D913F8010D02F8010BF8E7F3
:1055A00000231370084600E000200AB070BDFFF72A
:1055B000D5BF10B504460079FEF7F0FD2079BDE8AF
:1055C0001040FEF703BE0000436800227F2110B5A3
:1055D0009A80DA80198100F110011960836804460D
:1055E0009A80DA8040F2FF121A8100F190021A606C
:1055F00090F89002FEF7D2FD94F891325AB2002A48
:1056000008DB012103F01F0301FA03F302495211E1
:1056100041F8223010BD00BF00E100E00368DA6805
:1056200042F02C02DA60DA6842F40052DA60704725
:10563000F0B583680546046800209F88DE88BFB205
:10564000B6B2B74204D0E36823F08003E36027E0FA
:1056500026683606F7D59042F5D00E5C01306660BC
:10566000EBE7DF889E88BFB2B6B20137B74211F8C8
:1056700000C01DD0DF881E89BFB2B6B2B74213D0BA
:10568000DF881E68BFB206F807C0DF881E89BFB278
:10569000B6B2B74218D0DE880136B6B2DE8001302D
:1056A0009042AB68DDD303E09E88B6B2002EE7D10E
:1056B0009A88DB8892B29BB29A4200D1F0BDE3682F
:1056C00043F08003E360F0BD0026E7E703460846A9
:1056D000194600F0CFBF00BF81F0004102E000BFDB
:1056E00083F0004330B54FEA41044FEA430594EAA2
:1056F000050F08BF90EA020F1FBF54EA000C55EADD
:10570000020C7FEA645C7FEA655C00F0E2804FEAAD
:105710005454D4EB5555B8BF6D420CDD2C4480EA8F
:10572000020281EA030382EA000083EA010180EABF
:10573000020281EA0303362D88BF30BD11F0004F0D
:105740004FEA01314FF4801C4CEA113102D0404243
:1057500061EB410113F0004F4FEA03334CEA13337E
:1057600002D0524263EB430394EA050F00F0A78096
:10577000A4F10104D5F1200E0DDB02FA0EFC22FA91
:1057800005F2801841F1000103FA0EF2801843FA85
:1057900005F359410EE0A5F120050EF1200E012A76
:1057A00003FA0EFC28BF4CF0020C43FA05F3C018B4
:1057B00051EBE37101F0004507D54FF0000EDCF12D
:1057C000000C7EEB00006EEB0101B1F5801F1BD3D6
:1057D000B1F5001F0CD349085FEA30004FEA3C0CDA
:1057E00004F101044FEA445212F5800F80F09A80D0
:1057F000BCF1004F08BF5FEA500C50F1000041EBD4
:10580000045141EA050130BD5FEA4C0C404141EBD7
:10581000010111F4801FA4F10104E9D191F0000FFE
:1058200004BF01460020B1FA81F308BF2033A3F181
:105830000B03B3F120020CDA0C3208DD02F1140C78
:10584000C2F10C0201FA0CF021FA02F10CE002F1B3
:105850001402D8BFC2F1200C01FA02F120FA0CFCAC
:10586000DCBF41EA0C019040E41AA2BF01EB0451F5
:10587000294330BD6FEA04041F3C1CDA0C340EDCF3
:1058800004F11404C4F1200220FA04F001FA02F336
:1058900040EA030021FA04F345EA030130BDC4F1F4
:1058A0000C04C4F1200220FA02F001FA04F340EAE9
:1058B0000300294630BD21FA04F0294630BD94F09A
:1058C000000F83F4801306BF81F480110134013D81
:1058D0004EE77FEA645C18BF7FEA655C29D094EAF2
:1058E000050F08BF90EA020F05D054EA000C04BF70
:1058F0001946104630BD91EA030F1EBF002100205B
:1059000030BD5FEA545C05D14000494128BF41F0F9
:10591000004130BD14F580043CBF01F5801130BD5D
:1059200001F0004545F0FE4141F470014FF00000E8
:1059300030BD7FEA645C1ABF194610467FEA655C99
:105940001CBF0B46024650EA013406BF52EA03353B
:1059500091EA030F41F4002130BD00BF90F0000F29
:1059600004BF0021704730B54FF4806404F1320465
:105970004FF000054FF0000150E700BF90F0000F1E
:1059800004BF0021704730B54FF4806404F1320445
:1059900010F0004548BF40424FF000013EE700BF15
:1059A00042004FEAE2014FEA31014FEA02701FBFA5
:1059B00012F07F4393F07F4F81F06051704792F077
:1059C000000F14BF93F07F4F704730B54FF46074F1
:1059D00001F0004521F0004120E700BF50EA01023C
:1059E00008BF704730B54FF000050AE050EA0102E9
:1059F00008BF704730B511F0004502D5404261EB59
:105A000041014FF4806404F132045FEA915C3FF499
:105A1000DCAE4FF003025FEADC0C18BF03325FEA32
:105A2000DC0C18BF033202EBDC02C2F1200300FAE7
:105A300003FC20FA02F001FA03FE40EA0E0021FA0C
:105A400002F11444C1E600BF70B54FF0FF0C4CF4F6
:105A5000E06C1CEA11541DBF1CEA135594EA0C0FAC
:105A600095EA0C0F00F0DEF82C4481EA030621EAE7
:105A70004C5123EA4C5350EA013518BF52EA033522
:105A800041F4801143F4801338D0A0FB02CE4FF0D4
:105A90000005E1FB02E506F00042E0FB03E54FF004
:105AA0000006E1FB03569CF0000F18BF4EF0010EFC
:105AB000A4F1FF04B6F5007F64F5407404D25FEAF8
:105AC0004E0E6D4146EB060642EAC62141EA5551AB
:105AD0004FEAC52040EA5E504FEACE2EB4F1FD0CED
