:020000040800F2
:100000000050002051370008113A0008153A000846
:10001000193A00081D3A0008213A0008713A000810
:10002000713A0008713A0008713A0008713A000804
:10003000713A0008713A0008713A0008213E000840
:10004000713A0008713A0008713A000861360008F8
:10005000713A0008713A0008713A0008713A0008D4
:10006000713A0008713A0008713A0008713A0008C4
:10007000713A0008713A0008713A0008713A0008B4
:10008000713A0008713A0008C93A0008713A00084C
:10009000713A0008713A0008713A0008713A000894
:1000A000494000086D40000891400008C940000820
:1000B0001D4100088D410008FD410008713A00080B
:1000C000713A0008713A0008713A0008713A000864
:1000D000713A000869430008BD4300081144000854
:1000E000713A0008A9360008713A000810B5054CAD
:1000F000237833B9044B13B10448AFF300800123D4
:10010000237010BDA81100200000000078DA00085C
:1001100008B5064B1BB106480649AFF300800648F8
:10012000036813B1054B03B1984708BD00000000F8
:1001300078DA0008AC110020A811002000000000AF
:10014000012902D11C30C0B27047062984BF01F1D9
:10015000FF31C9B211F0010F14BF1E201F207047DC
:10016000444B2DE9F047B1FBF3F603FB16113C239A
:10017000B1FBF3F203FB1212054602704FF461600B
:10018000B1FBF0F200FB1211B1FBF3F36B704FF413
:10019000FA63AA70B6B2EB80EC884FF4C873B4FB74
:1001A000F3F803FB18481FFA88F8B8F1000F16D0CF
:1001B0006423B4FBF3F203FB12439BB2002B53D036
:1001C00014F0030140F26D130CBF4FF4B7721A46DE
:1001D00096420EDB002908BF4FF4B77304E0B6F572
:1001E000B77F06DB4FF4B773F61A0134B6B2EC8072
:1001F000D2E700236B716423B4FBF3F703FB1747CB
:10020000BFB2B8F1000F06D03FB114F0030F14BF16
:100210000020012002E0012000E0384695F805901A
:10022000C0B24946FFF78CFF864209F1010A15D397
:10023000B8F1000F06D03FB114F0030F14BF002037
:10024000012002E0012000E03846C0B24946FFF735
:1002500077FF301A86B285F805A0D2E701362E71F5
:1002600085F805A0BDE8F087B6F5B67FC1DD40F2A0
:100270006D13B9E780510100F8B5427887783C23C7
:1002800003FB072702780579467903FB0727013D21
:10029000013EEDB2F6B2044605714671013E731C93
:1002A000E38834D04FF4C872B3FBF2F102FB113291
:1002B00092B262B16422B3FBF2F002FB103080B262
:1002C00030B113F0030F14BF0020012000E0012023
:1002D000C0B2F1B2FFF734FF284485B2DEE74FF435
:1002E000C872B3FBF2F102FB113292B2AAB16422DE
:1002F000B3FBF2F102FB113292B28AB113F0030F99
:1003000040F26D1208BF4FF4B7721544ADB2013B15
:100310009BB2B3F5FA6FE2D205E04FF4B772F4E79F
:1003200040F26D12F1E7024800FB0570F8BD00BF16
:100330008051010038B50B784A7803EB8303514CA8
:1003400003EB830302EB8303E3808B780D46637139
:10035000CB784D4823710B79A3704B7963708B79FF
:100360004A49237004F05BFAE1880A22464804F007
:1003700004FB4749444804F052FA61790A22424892
:1003800004F01CFB4349404804F049FA21790A2251
:100390003D4804F013FB40493B4804F040FAA17883
:1003A0000A22394804F00AFB3C49374804F037FA7E
:1003B00061780A22344804F001FB3949324804F0DC
:1003C0002EFA0A222178304804F0F8FA03F0F0FB04
:1003D000642004F03BFE2046FFF74EFF0146314803
:1003E00003F097F8642004F031FE03F0E7FB2D489A
:1003F00003F092F801462046FFF7B2FEE18864233D
:10040000B1FBF3F1C9B2284801F0E4FE2870E2889C
:100410004FF47A73B2FBF3F103FB11212248C9B206
:1004200001F0D8FE687061791F4801F0D3FEA87012
:1004300021791D4801F0CEFEA178E8701A4801F03C
:10044000C9FE61782871184801F0C4FE21786871EE
:10045000154801F0BFFE0024A871295D10220A484A
:1004600004F0A3FA01340848104904F0D8F9072C25
:10047000F3D1054804F0E2F9BDE8384002480C49E0
:1004800004F0F2B9C41100202C13002070EC000815
:1004900077EC00087FEC000885EC00088CEC000885
:1004A00096EC0008CD1100200D130020ECF300089D
:1004B000A0EC00080148112103F022B8CD11002062
:1004C000064B1A6801321A601A681D2A04D90022E4
:1004D0001A60034B01221A70704700BFD011002030
:1004E000D411002010B5094C0949204604F0F5F854
:1004F00020460121074A04F00FF92046002104F0AC
:10050000E3F82046BDE8104004F0C8B8C41300204A
:1005100040420F00C104000810B5054C204604F00D
:10052000C5F820460021BDE8104004F0CDB800BF5A
:10053000C413002013B5026802AB03F8011D546A0E
:1005400019460122A04702B010BD07B503680DF19E
:1005500007019B6A0122984701280CBF9DF80700FC
:100560004FF0FF3003B05DF804FB4FF0FF307047F1
:1005700008B50369186803689B69984708BD036854
:1005800010B5DB680446984708B9207F10BD0120EC
:1005900010BD08B503681B6B9847003018BF0120D9
:1005A00008BD10B50446403004F05CFA04F1340094
:1005B00004F058FA04F1280004F054FA04F11C0085
:1005C00004F050FA04F1100004F04CFA204610BD7B
:1005D000F0B585B00C460646194901A81746194DD5
:1005E00004F082FA01A8102104F05AFA217901A836
:1005F00004F018FB294601A804F0F8FA617901A873
:1006000004F010FB294601A804F0F0FAA17901A832
:1006100004F008FB294601A804F0E8FAE17901A8F2
:1006200004F000FB336801991B6A3A46304698474C
:10063000044601A804F016FA204605B0F0BD00BF3C
:100640008BED000846EF000810B5044620680368EB
:10065000DB68984710B904F0F9FCF7E720680368F5
:100660001B6998472C28F1D1012010BD2DE9F04FCE
:10067000054687B08A46104640211E461446129F02
:1006800004F00EFA8F4BD3F800B0002004F0DEFC2B
:1006900028680368DB689847002840F3E4802868EE
:1006A00003681B699847011EF2DD2046C9B204F0B9
:1006B000ACFA16B9109BA3B910E0314603A804F0B8
:1006C00013FA204603A904F026FB814603A804F090
:1006D000C9F9B9F1000FEDD00120EFE0119B9BB9F2
:1006E00010E0109903A804F0FFF9204603A904F0D4
:1006F00012FB814603A804F0B5F9B9F1000FEDD063
:100700000220DBE0A7B910E0119903A804F0ECF98E
:10071000204603A904F0FFFA814603A804F0A2F9D9
:10072000B9F1000FEED00320C8E0139B0BBB10E023
:10073000394603A804F0D8F9204603A904F0EBFADF
:10074000814603A804F08EF9B9F1000FEDD0042022
:10075000B4E05D4903A804F0C7F9204603A904F0FA
:10076000DAFA814603A804F07DF9B9F1000F11D13E
:1007700039E0139903A804F0B7F9204603A904F05F
:10078000CAFA814603A804F06DF9B9F1000FE0D070
:10079000052093E0684629682C2204F03BF968465E
:1007A00004F0EDFB0128814615D129680A2203A82F
:1007B00004F030F903A804F0E2FB804603A804F03B
:1007C00051F92046414904F0E4F905EB88035B68E0
:1007D00083F81D9003E02046694604F002FA68465B
:1007E00004F040F954E73A4903A804F07DF92046A3
:1007F00003A904F090FA804603A804F033F9B8F195
:10080000000F3FF445AF334903A804F06DF9A26827
:1008100003A9083A204604F0BAFA804608F1020813
:1008200003A804F01FF942462C21204604F0A1FA47
:1008300042460346214603A804F0CCFA03A804F07C
:100840009EFB804603A804F00DF9B8F1000F3FF4B9
:100850001FAF05EB88035B68204683F81C901B499B
:1008600004F097F914E7174B1B68CBEB03035345D0
:10087000FFF40BAF204604F058FBA368CBB1214630
:10088000684604F074F91449144803F0C8FF2021A5
:10089000124803F0BFFF694603A804F068F903A9F2
:1008A0000E4803F0D7FF03A804F0DCF8684604F014
:1008B000D9F82046054904F06CF90020C0B207B011
:1008C000BDE8F08F1414002076ED00088BED0008D1
:1008D00083ED000889ED00088CED00082C13002042
:1008E000F0B589B01C4607460E4605A80B491546CB
:1008F00004F0FAF800940E9C314601940F9C05AA6E
:100900000294109C2B4603943846FFF7AFFE044632
:1009100005A804F0A7F8204609B0F0BD8BED00084B
:10092000F0B5044685B00E46006821491F461546BD
:1009300003F075FF20681F4903F071FF0A22394652
:10094000206804F032F820682C2103F063FF20684F
:10095000194903F064FF2068184903F060FF31462D
:10096000206803F05CFF2068154903F058FF0A2255
:100970002946206803F0F8FF1249206803F04FFF72
:10098000206803689B699847002004F05FFB0E4BCA
:10099000204600930023019302930C490C4A0D4B0F
:1009A000FFF79EFF431E5842584105B0F0BD00BFFF
:1009B0009BED00089EED0008A9ED000829F1000854
:1009C000AEED000889ED0008CDED0008F824010027
:1009D000B1ED0008BEED000870B5044600200E46DB
:1009E000154604F033FB0023C4F8A430C4F8A0304B
:1009F000206931462A46237DFFF792FF003018BF59
:100A00000120207770BD7FB5089C0E460194099C9B
:100A10001546009302944FF47A7132462B46FFF745
:100A20005FFF04B070BD08B500210F2004F0F8FA94
:100A300040F2DC5004F00AFBBDE808400F20012121
:100A400004F0EEBA70B504460D4600680C4916462F
:100A500003F0E5FE2946206803F0E1FE31460A2254
:100A6000206803F0A2FF2068064903F0D8FE206842
:100A700003689B699847BDE87040002004F0E6BA1F
:100A80009BED000889ED000813B50446002004F032
:100A9000DDFA2069227D0749FFF7D4FF0023237781
:100AA0000093019320690449044AFFF7ACFF02B0A8
:100AB00010BD00BFDFED000861ED00085CF4000828
:100AC00010B504460948FFF75AFD68B9E3785BB1F1
:100AD000E0700749074803F0C7FE0648064903F0DF
:100AE000C3FE0248FFF7D0FF10BD00BFE011002099
:100AF0008BED00082C130020EAED0008F0B50F463E
:100B000087B00025044626493A46FFF79BFF00952B
:100B1000019520462349244A2B46FFF774FF0128FC
:100B20001AD12046FFF790FD2046FFF78DFD216882
:100B30000A2203A803F06EFF03A804F020FA064679
:100B400003A803F08FFF0095019520461749164A28
:100B50002B46FFF758FFFEB904EB87033A462046C1
:100B600013495E68FFF76EFF124B00250093124990
:100B7000124A134B01952046FFF745FF2B460746C7
:100B80000095019520460949074AFFF73CFF7B1E67
:100B90005F425F4137772E46304607B0F0BD00BF59
:100BA00029EE000878ED00085CF4000861ED00080B
:100BB00036EE000864EE000842EE00084FEE000832
:100BC00059EE00087FB50546002405EB84035E68F6
:100BD00046B1737F33B1002373772846E1B2FFF744
:100BE0008DFFF0820134052CEFD128680368DB68A3
:100BF000984748B1002200920192029228460A21A9
:100C00001346FFF76DFEF0E704B070BDD0F880200A
:100C1000D0F88430D01A48BF8030704738B50446C9
:100C2000002004F013FA237F04F120058BB128463D
:100C3000FFF7ECFF68B90A4BA26919688A1AB2F586
:100C4000FA7F03D91B6801226277A3612069FFF74D
:100C5000B9FF2846FFF7DAFFE38A184438BD00BF22
:100C60001414002038B504460D460068094903F005
:100C7000D6FD2946206803F0D2FD2068064903F01E
:100C8000CEFD206803689B699847BDE83840002086
:100C900004F0DCB99BED000889ED00082DE9FF4167
:100CA000134B05461F680E469846D8F800300024BE
:100CB000DB1BB34217D228460E49FFF7D3FF00943F
:100CC000019402942846C8210B4A0C4BFFF708FEFA
:100CD0000446012C4FF0640002D104F0B7F902E0A1
:100CE00004F0B4F9E1E7204604B0BDE8F08100BFAC
:100CF000141400208BED000861ED00085CF400087E
:100D00001F4B2DE9F3411F6805460E469846D8F85B
:100D10000030DB1BB3422CD2002428461949FFF7D0
:100D2000A1FF0094019428461749184A2346FFF76B
:100D30006AFE012804D04FF47A7004F087F9E6E7E0
:100D4000134B14498DE81800134A144B2846FFF73B
:100D50005AFE009406460194284611490B4A234640
:100D6000FFF751FE012E06D003D3032E01D8022037
:100D700002E0002000E0304602B0BDE8F08100BF94
:100D8000141400206FEE000876EE00085CF40008F2
:100D900095EE00087FEE000885EE00088DEE000855
:100DA00061ED00087FB542F210710546FFF776FF4E
:100DB00058B3002428462149FFF754FF00940194BA
:100DC0000294284642F210711D4A1E4BFFF788FD1F
:100DD00001281AD128461C49FFF744FF00940194CA
:100DE0000294284642F21071154A164BFFF778FD1F
:100DF00001280AD140F6B83004F028F9284642F21A
:100E00001071FFF74BFF064608B9002612E028468E
:100E10000E49FFF727FF0094019428460849094A24
:100E20002346FFF7F0FD0128EFD1284642F210716A
:100E3000FFF766FF304604B070BD00BFA2EE0008A9
:100E400061ED00085CF40008AAEE0008B4EE0008AA
:100E5000F7B5154F154E002405461549FFF702FF5B
:100E6000324623463946009401942846FFF7CBFDCD
:100E700028461049FFF7F6FE3246234639460094CD
:100E800001942846FFF7BFFD28460B49FFF7EAFE0D
:100E9000009401942846394632462346FFF7B3FDB5
:100EA000012003B0F0BD00BF61ED00085CF4000854
:100EB000BAEE0008C5EE0008D5EE00081FB54FF4E5
:100EC000165104461B4803F0C1FB1B48FFF7ABFD5E
:100ED00040F6B83004F0BAF81849194803F0CEFCCF
:100EE0001848FFF75FFF17481749FFF7BBFE0023BD
:100EF00000930193029313484FF47A71134A144BF1
:100F0000FFF7EEFC012803D00D48124903F0ACFCBA
:100F10004FF4FA6004F09AF80A48FFF799FF4FF48B
:100F20007A7004F093F80023A37063702370E37069
:100F300004B010BD5C130020A0120020E4EE0008F5
:100F40002C13002088120020FAEE000861ED000842
:100F50005CF4000805EF000870B5174986B000245E
:100F60000546FFF77FFE0094019428461349144A72
:100F70002346FFF748FD01281BD12846FFF764FBF5
:100F80002846FFF761FB29682C2203A803F042FDE5
:100F900003A803F0F4FF86B203A803F063FD0094F6
:100FA000019428460749064A2346FFF72CFD3046A0
:100FB00000E0204606B070BD14EF000819EF0008ED
:100FC0005CF4000861ED000808B50248FFF7C4FFB3
:100FD00008BD00BF8812002070B5164986B00024F5
:100FE0000546FFF73FFE0094019428461249134A34
:100FF0002346FFF708FD012818BF042017D1284613
:10100000FFF722FB29680A2203A803F003FD03A8C7
:1010100003F0B5FF064603A803F024FD00940194F5
:1010200028460749054A2346FFF7EDFCF0B206B013
:1010300070BD00BF21EF000828EF00085CF4000835
:1010400061ED00082DE9F0414478054674BB19496B
:10105000194803F009FC1848184903F0E5FB184B40
:101060001F689846D8F800204EF65F23D21B9A429C
:101070000BD81448FFF7B0FF00F0FB06012E0FD08D
:101080004FF47A7003F0E2FFECE70F490A4803F0EF
:10109000EBFB42F2107003F0D9FF00236B7005E008
:1010A0006E700548094903F0DFFB34462046BDE871
:1010B000F08100BF8BED00082C13002031EF0008F9
:1010C000141400208812002048EF000865EF000883
:1010D0001FB50A490446FFF7C5FD0023009301939D
:1010E000029320464EF66021054A064BFFF7F8FBB7
:1010F000431E5842584104B010BD00BF92EF000893
:1011000061ED00085CF4000830B5304985B000247A
:101110000546FFF7A7FD0094019428462C492D4A67
:101120002346FFF770FC012801D001204BE0284640
:101130002949FFF797FD274A23462849009401943F
:101140002846FFF760FC28462549FFF78BFD0094F1
:101150000194029428462349234A1E4BFFF7C0FB03
:10116000012802D0214822492AE01C4A194B4FF499
:101170007A710094019402942846FFF7B1FB284647
:101180001C49FFF76FFD0094019428461A49114A43
:101190002346FFF738FC012802D0144817490FE016
:1011A00028461749FFF75EFD00940194284615492B
:1011B000084A2346FFF727FC0128B6D00B481249FE
:1011C00003F052FB204605B030BD00BF21EF000800
:1011D00028EF00085CF400089BEF000861ED0008B0
:1011E000B7EF0008084C0100C2EF00082C130020E4
:1011F000CCEF0008ECEF0008F9EF00080AF0000857
:1012000023F0000830F0000841F0000838B54378BA
:101210000446ABB183789BB90A490B4803F024FB21
:101220000A48FFF771FF054607482DB1084903F04A
:101230001BFB0123A37038BD064903F015FBA57005
:1012400038BD00BF8BED00082C1300208812002051
:101250006AF00008A7F0000870B5144986B00024B1
:101260000546FFF7FFFC0094019428461049114AF7
:101270002346FFF7C8FB012818BF632014D1296853
:101280002C2203A803F0C6FB03A803F078FE064651
:1012900003A803F0E7FB0094019428460649054A99
:1012A0002346FFF7B0FB304606B070BDE6F00008FD
:1012B000EBF000085CF4000861ED0008F8B50446A6
:1012C0000D4600680E4916461F4603F0A8FA294647
:1012D000206803F0A4FA3146206803F0A0FA3946EA
:1012E000206803F097FA2068064903F098FA20680E
:1012F00003689B699847BDE8F840002003F0A6BE4C
:101300009BED000889ED00082DE9F04304468FB0FD
:101310000025904689461F46FFF7DAFE20469B4986
:10132000FFF7A0FC9A499B4A2B4600950195204661
:10133000FFF769FB204698494A462223FFF7BEFF84
:101340000095019520469249924A2B46FFF75BFB98
:10135000B8F1000F0DD02046904942462223FFF7F6
:10136000ADFF00950195204689498A4A2B46FFF733
:101370004AFB6FB120468A493A462223FFF79EFF77
:1013800000230093019320468149824AFFF73BFBEB
:10139000804E0025204683494A462223FFF78EFFD0
:1013A00032462B467A49009501952046FFF72BFBE4
:1013B00020467D49FFF756FC754A33464EF66021BC
:1013C0000095019502952046FFF78AFA2046774955
:1013D000FFF748FC6E4A3346754900950195029522
:1013E0002046FFF77DFA20467249FFF73BFC009547
:1013F00001950295204647F23051654A3346FFF782
:101400006FFA012801D00025BCE020466A49FFF7A9
:1014100029FC00950195029520464EF660215C4A14
:101420003346FFF75DFA0128EDD120466349FFF707
:1014300019FC009501952046554932462B46FFF789
:10144000E2FA0128DFD120465D49FFF70BFC009549
:10145000019520464E4932462B46FFF7D4FA012823
:10146000D1D120465749FFF7FDFB00950195204655
:10147000474932462B46FFF7C6FA0128C3D15249E5
:10148000206803F0CCF95149206803F0C8F94946B7
:10149000206803F0C4F94E49206803F0C0F94146C2
:1014A000206803F0BCF94A49206803F0B8F93946CE
:1014B000206803F0B4F94749206803F0B0F94649C1
:1014C000206803F0ACF9206803689B6998472846B8
:1014D00003F0BCFD00950195029520464EF6602173
:1014E0002B4A3346FFF7FCF901288CD120463B49B3
:1014F000FFF7B8FB00950195029520464EF6602156
:10150000234A3346FFF7ECF901287FF47CAF2046ED
:101510003349FFF7A7FB334905A803F0E5FA009626
:10152000019502950395204642F2107105AA184BC9
:10153000FFF79CF8012813D008A8274903F0D4FA34
:101540000BA8284903F0D0FA05A808A90BAA03F0B4
:1015500067FC0BA803F086FA08A803F083FA0EE0F4
:1015600020462149FFF77EFB2B460095019520463A
:1015700007493246FFF747FA431E5D425D4105A821
:1015800003F070FA28460FB0BDE8F0839BEF000827
:1015900061ED00085CF40008F3F0000806F10008B3
:1015A0001AF100082DF100083FF100084AF1000887
:1015B000084C0100B7EF000855F100085EF1000883
:1015C00068F1000874F100089BED000880F1000844
:1015D00029F1000889F5000889ED000888F1000864
:1015E0008FF100088BED000899F1000838B50478F8
:1015F000054634BB43781BB31349144803F034F950
:101600001349124803F010F91249104803F007F982
:1016100011481049114A124BFFF776FE04460B4859
:1016200044B9104903F020F942F2107003F00EFDA6
:101630002C7006E00C4903F017F901232B7000E031
:101640000124204638BD00BF8BED00082C1300207C
:10165000B6F1000864F400088812002060ED00086C
:101660005BF40008C5F10008E2F100082DE9F04143
:1016700004460E46006812491F469046069D03F038
:10168000CEF83146206803F0CAF841460A222068A5
:1016900003F08BF93946206803F0BCF829460A228A
:1016A000206803F095F92068064903F0B8F820682F
:1016B00003689B699847BDE8F041002003F0C6BC71
:1016C0009BED000889ED0008F0B587B000250446C1
:1016D00000920F4616461C491A462C23FFF7C6FFF8
:1016E0000095019520461949194A2B46FFF78BF9B9
:1016F000012802D04FF0FF3422E020683946036809
:1017000032469B689847206803689B699847009514
:10171000019520460F490E4A2B46FFF774F9012820
:10172000E8D12046FEF790FF216803A80A2203F0C3
:1017300071F903A803F023FC044603A803F092F90F
:10174000204607B0F0BD00BF02F20008A5F0000877
:101750005CF400080CF2000870B5044600200E4648
:10176000154603F073FC2069FFF72CFA2069314617
:101770002A46237DFFF7A8FF70BD000070B58D6875
:101780000E460135284604F087FD04460023304606
:1017900021462A4603F0D5FA21462A460348FFF798
:1017A000DBFF204604F080FD012070BDE011002029
:1017B0002DE9F04186B00025044600912C232F49E5
:1017C0001646FFF753FF0095019520462C492D4AF8
:1017D0002B46FFF718F901284BD12046FEF734FFBE
:1017E0002046FEF731FF21682C2203A803F012F9EE
:1017F00003A803F0C4FB074603A803F033F904EB86
:10180000860603A821680A22D6F8048003F002F9AC
:1018100003A803F0B4FBA8F8160003A803F022F90C
:10182000BD421ED020680368DB68984710B903F0FA
:101830000DFCF7E7206803681B69984773685FFA37
:1018400080FED3F8A010D3F8A4004A1C02F07F0257
:10185000824204D0194481F820E0C3F8A020013569
:10186000DEE700230093019320460749054AFFF76E
:10187000CAF8284606B0BDE8F08100BF1BF2000898
:1018800078ED00085CF4000861ED00082DE9F74FE1
:10189000044600208946019203F0D8FB2069FFF737
:1018A00091F90025019B9D4245D2019B04F1200B3B
:1018B0005846C5EB0308FFF7A9F9404538BF8046F5
:1018C000B8F1000F24D04746CA465846FFF79EF9A4
:1018D00010B9C1444544E5E7D4F8A430C3F180060B
:1018E000B742B8BF3E468642A8BF06460BEB03018F
:1018F00050463246009304F0AFFF009BBF1B03EB42
:10190000060C0CF07F02C4F8A420B244E1D0DCE75E
:101910002069FFF757F9E38A6BB1D4F8A420D4F813
:10192000A0302069D11A0029D8BF80310139227D29
:10193000FFF73EFFB6E7284603B0BDE8F08F000092
:1019400073B500242A4D2B4E23462246214600948F
:10195000294802F01FFF314605F110002C706C7011
:10196000AC70EC706C60AC60EC6003F0BDF83146BC
:1019700005F11C0003F0B8F8314605F1280003F02A
:10198000B3F805F134001D4903F0AEF805F14C063B
:1019900005F140001A4903F0A7F82146304610220D
:1019A00005F036F8174A05F1600392E80300164A7D
:1019B00083E8030028461549EE6503F047FC144A06
:1019C000144B4FF47A711360134B996013495C60A8
:1019D00019600121C3F8A440C3F8A0401A61197529
:1019E000DC829C611C775C77936002B070BD00BFA5
:1019F000A01200208BED0008D811002028F200086A
:101A00002FF2000858ED000808000020A305000888
:101A1000881200205C130020E011002020ED000857
:101A20002DE9F043C5788FB00446002D40F0F981D0
:101A30007F49804802F018FF7F4908A803F054F856
:101A400008A90BA803F093F87C490BA803F02AF926
:101A50000146784802F0D6FE0BA803F003F808A868
:101A600003F000F87648754942F22832FEF7B4FFD9
:101A7000B0B974496F4802F0F7FE42F2107003F0FB
:101A8000E5FA6368E57001330A2B01D86360C8E1A9
:101A90006560657025706C48FFF71AFBA570C0E1A2
:101AA0006A49644802F0E0FE674E0123E37068492A
:101AB0006560604802F0D8FE3046FFF7CDFB65490F
:101AC000E06008A803F010F808A90BA803F04FF88D
:101AD000E1680BA803F0F8F80146564802F0BAFE98
:101AE0000BA802F0BFFF08A802F0BCFF30465A491D
:101AF000FFF7B8F80095019530465849584A2B46EB
:101B0000FEF781FF012804F1100804D008A8484915
:101B100002F0EAFF16E00BA831680A2202F07AFF11
:101B200050494F4A2B46009501953046FEF76BFF12
:101B30000BA803F0FAF908A80BA902F084FF0BA880
:101B400002F090FF08A9404603F01BF808A802F035
:101B500089FF45490BA802F0C7FF41460BA803F0D7
:101B600094F8394E0146334802F074FE0BA802F097
:101B700079FF002530463D49FFF774F8009501953F
:101B800030463B49364A2B46FEF73DFF012804F11B
:101B90001C0704D008A8264902F0A6FF16E00BA8EF
:101BA00031680A2202F036FF2E492D4A2B46009555
:101BB00001953046FEF727FF0BA803F0B6F908A8F9
:101BC0000BA902F040FF0BA802F04CFF08A9384611
:101BD00002F0D7FF08A802F045FF26490BA802F043
:101BE00083FF39460BA803F050F80146114802F074
:101BF00031FE0BA802F036FFA37804F12806002B73
:101C000070D0DFF84490002548461B49FFF72AF8BA
:101C100000950195029548461849194A104BFEF760
:101C20005FFE01282ED008A8014902F05DFF41E0C7
:101C30008BED00082C13002036F2000866ED00083A
:101C4000E01100204CF20008881200206DF200081C
:101C50008DF20008EEF00008A2F2000889ED0008FD
:101C60005CF4000861ED0008A7F20008ADF200087E
:101C7000B4F20008BEF20008C7F20008084C0100E8
:101C8000D1F200080BA8D9F800100A2202F0C2FE17
:101C90006649674A2B46009501954846FEF7B3FE14
:101CA0000BA803F042F908A80BA902F0CCFE0BA880
:101CB00002F0D8FE08A9304602F063FF08A802F03F
:101CC000D1FE5C490BA802F00FFF31460BA802F0D1
:101CD000DCFF0146584802F0BDFD0BA802F0C2FE31
:101CE0000023A3705549544802F0BEFD05A800F03A
:101CF000DBFA534A0BA805A900F0E0FBE1680BA84A
:101D000000F0C0FB0BA800F0A5FA4E4A0BA805A9ED
:101D100000F0D4FB41460BA800F0CCFB0BA800F070
:101D200099FA494A0BA805A900F0C8FB39460BA847
:101D300000F0C0FB0BA800F08DFA444A0BA805A9DF
:101D400000F0BCFB31460BA800F0B4FB0BA800F080
:101D500081FA3F4A0BA805A900F0B0FB02210BA8AD
:101D600000F090FB0BA800F075FA3A4A0BA805A901
:101D700000F0A4FB04F134010BA800F09BFB0BA8BE
:101D800000F068FA344A0BA805A900F097FB04F1AB
:101D900040010BA800F08EFB0BA800F05BFA2F4966
:101DA000254802F03CFD0BA805A900F08FFA0BA90D
:101DB000214802F06DFD0BA800F04CFA05AA08A816
:101DC000274900F028FA27490BA802F08DFE08A940
:101DD0000BA802F05AFF0146174802F03BFD0BA882
:101DE00002F040FE08A90BA802F0C1FE0BA9204694
:101DF000FFF7C4FC0BA802F035FE404603F095F84F
:101E0000384603F092F8304603F08FF816490A4836
:101E100002F02AFD08A802F025FE05A800F01AFA33
:101E2000012528460FB0BDE8F08300BF61ED000832
:101E30005CF40008DAF200082C130020E3F200083A
:101E4000E7F00008EBF20008AFF20008F0F200083B
:101E5000F4F20008FAF2000800F3000806F30008A4
:101E60001013002019F3000835F3000870B506467A
:101E70008AB00C4608463A4902F03AFF00286CD175
:101E8000224601A807AC374900F0BEF92046354983
:101E900001AA00F0C7F92046334902F029FF0546A0
:101EA000204602F0DFFD25B13049314802F0DCFC6C
:101EB00050E03049204602F017FE01AA04A8294943
:101EC00000F0B0F904A9204602F0DFFE01462848E0
:101ED00002F0C0FC04A802F0C5FD204602F0C2FDDD
:101EE00001A8254900F022FA002833D0B560234923
:101EF0001F4802F094FC204A204601A900F0DEFAB7
:101F000021461B4802F0C4FC204600F0A3F901A9B9
:101F1000194A204600F0D2FA204600F0CDF90646D4
:101F2000204600F097F920462946072204F070FD6C
:101F30003046427810F8023B303A303B03EB8303E3
:101F400002EB430363550135072DF2D10C482146BE
:101F5000FEF7F0F901A800F07DF90AB070BD00BFEE
:101F60008BED00081013002054F300085EF3000806
:101F70002C13002096F30008AFF30008B3F3000819
:101F8000CC11002030B5204B87B01C681D461F487F
:101F9000FEF7F5FA002834D02B681B1BB3F5FA6F57
:101FA0002FD21A48FEF73AFE0028F0D00A226846DF
:101FB000164902F02FFD1649164802F055FC164945
:101FC000144802F051FC03A8144902F08DFD694643
:101FD00003A802F05AFE01460E4802F03BFC03A89B
:101FE00002F040FD694603A802F0C1FD03A90C48B8
:101FF000FFF73CFF03A802F035FD684602F032FD12
:10200000C5E707B030BD00BF14140020E011002068
:102010008BED00082C130020C7F30008EEF3000836
:10202000A0120020204B30B51A68204C22F0E0624C
:1020300042F0007287B01A60204600F073F8204624
:102040001B4C1C4D00F0AEF84FF41651204602F028
:10205000FDFA2846FEF732FFFEF744FAFEF75CFA77
:102060001549204602F000FC2846FEF7ADFF134D4F
:1020700013492860684602F037FD694603A802F05C
:1020800076FD296803A802F029FE0E4902F00AFE37
:102090000146204602F0DEFB03A802F0E3FC68469E
:1020A00002F0E0FC07B030BD040001400C1300203A
:1020B0002C130020A01200206AF40008081300204E
:1020C00072F4000883F4000808B51148FEF7BAFF5F
:1020D00010B91048104905E00D48FFF787FA28B9F4
:1020E0000C480E49BDE8084002F0BEBB0848FFF7A7
:1020F0008DF80748FFF794FC10B906480849F1E746
:102100000348FFF73FFFBDE808400148FEF7D8BC91
:10211000A01200202C13002086F40008A6F400086A
:10212000C6F4000808B50320002102F037FF0420A0
:10213000002102F033FF0F20002102F02FFFBDE845
:1021400008400520002102F029BF000010B5144608
:1021500011B101290AD013E00320114602F060FFFB
:102160000A480CB10A490DE00A490BE00420114667
:1021700002F056FF05480CB1074903E0074901E0AA
:1021800002480749BDE8104002F06EBB2C13002046
:10219000EAF40008F5F40008FFF400080AF5000866
:1021A00014F5000810B50A4C0520012102F038FF93
:1021B000204600210122FFF7C9FF012120460A46DF
:1021C000FFF7C4FFBDE810400F20012102F028BF37
:1021D0000C1300200A22B1FBF2F302FB131202EBF4
:1021E0000310C0B270470000014B0360704700BF8E
:1021F00038F5000810B5034B0446036002F0CCFE2E
:10220000204610BD38F5000810B51146044600F010
:102210009DF8204610BD10B51146044600F0A4F804
:10222000204610BD10B51146044600F0BBF820460C
:1022300010BD00000348044B0449054A036003F045
:1022400005B800BF1013002038F50008E921000888
:102250000800002038B5064B04460360406820B1F2
:10226000A56815B900F0CEFD6560204638BD00BFF9
:1022700048F5000810B50446FFF7ECFF204602F0D1
:102280008BFE204610BD406838B50D4658B100F0B1
:10229000D3FF04462146284602F0C1FA05462046EF
:1022A00001F0DAF8284638BD024A02600022426096
:1022B0008260704748F5000810B50446406801F098
:1022C000B5F808B16368186910BD0000B0B50446E0
:1022D00000AF48680D4601F0B7F820B9124B6060B6
:1022E0002360A0601CE0686800F0A9FF83000A3347
:1022F00023F00703ADEB030D6B6801469A6868464F
:1023000000238B4205DA156A40F823501268013326
:10231000F7E701F047F8044B606023600023A360F7
:102320002046BD46B0BD00BF48F5000838B504469C
:1023300040680D4601F088F830B16068294600F029
:1023400086FF003018BF012038BD000010B50446DC
:10235000086800F06DFF034B606023600023A360FA
:10236000204610BD48F5000830B5496885B00446E0
:1023700011B902F0B9FB11E0084600F05DFF054617
:10238000294601A802F0B0FB284601F065F8204676
:1023900001A902F058FB01A802F064FB204605B039
:1023A00030BD000038B54D680446002D31D02846B8
:1023B00001F021F800282CD1284601F023F810B1B3
:1023C0002046174927E0284601F023F810B120469F
:1023D000144920E0284601F022F810B120461249A5
:1023E00019E0284601F022F810B120460F4912E00A
:1023F000284601F022F810B120460D490BE028468E
:1024000001F022F810B120460A4904E020460A49AA
:1024100001E00A49204602F067FB204638BD00BFB4
:1024200058F5000860F5000865F500086CF500082F
:1024300073F5000879F5000880F5000854F30008EA
:1024400038B5456804464160DDB18068A0B100F050
:10245000FBFF30B1A068296A6268BDE8384001F02E
:1024600029B8A06800F0E9FF58B1A0682946626861
:10247000BDE8384000F0EEBE2846BDE8384000F028
:10248000C1BC38BD10B50446084603F037F800F06B
:1024900023FF01462046BDE81040FFF7D1BF10B52D
:1024A0000446084600F04CFF01462046BDE81040B7
:1024B000FFF7C6BF0968FFF7F2BF000070B5054619
:1024C00048680C46164600F0BFFF28B900F05EFFD2
:1024D00001462046FFF7B4FF6068314600F0B7FEC2
:1024E00018B96068314600F0E3FE6368024A68602C
:1024F0002A60AB60284670BD48F500080448054BCB
:1025000005490360054A00234360836002F09EBED4
:102510001413002048F50008552200080800002088
:1025200010B500221346815CA1F13004092C01D8BA
:10253000303B0AE0A1F14104052C01D8373B04E00F
:10254000A1F16104052C0AD8573B032A0B4402F180
:10255000010218BF1B01042AE5D1184610BD002056
:1025600010BD2DE9F0470B688A688146551C9E18FE
:102570009A5C8846222A1D4440F0CA804C682F4647
:102580000022F91AA14280F0C3803978222909D0AB
:102590005C2905D10137F91AA14280F0B9800132D6
:1025A0000137EEE7C2F10102B81BD8F81030104431
:1025B00098478246002800F0AB800446BD4280F078
:1025C0008B802B785C2B03D0237001350134F5E729
:1025D0007A1B002A40F390806B78662B19D00CD8B8
:1025E0002F2B17D002D8222B14D085E05C2B11D0D2
:1025F000622B40F0818008230CE0722B0ED003D8B0
:102600006E2B79D10A2305E0742B09D0752B09D0E4
:1026100072E00C232370013402235BE00D23F9E701
:102620000923F7E7052A67DDA81CFFF779FFA0F566
:102630005C43B3F5806F06465ED3A0F55843B3F50F
:10264000806F1CD2AB1DFB1A052B55DDAB795C2BC3
:1026500052D1EB79752B4FD105F10800FFF760FFE0
:10266000A0F55C43B3F5806F46D2C0F30900C6F312
:10267000090640EA862606F580360C2306E07F2808
:102680004FF006030BD9B0F5006F0BD3B6F5803FC2
:102690000BD3B6F5881F2FD2F021042207E00021CA
:1026A000012204E0C021022201E0E0210322501EA9
:1026B000C0B240B106F03F0C6CF07F0C04F800C0D3
:1026C000B6090138F4E7012A14BF0E4306F07F066D
:1026D000267014441D4471E7002323701023C9F8A9
:1026E0000C30D8F80030C9F810A0FB1A0133C8F834
:1026F00008300120BDE8F087D8F8143050469847DC
:10270000D8F80030ED1AC8F808500020BDE8F0876E
:10271000002DF5D1F9E710B590B102687AB14168A2
:1027200083688B4202D38B4206D010BDD45C202C30
:10273000F9D801338360F3E7013B836010BD104695
:1027400010BD61B160B183680BB9816005E01A68A2
:102750000AB11346FBE719604B6001207047084639
:10276000704738B5044638B1006828B1A5682844D8
:1027700004F0E2FD2844A06038BD70B5044600288E
:102780003ED0006800283DD0636813B1A2689A4229
:1027900037D2002935DBA268561C0E449E4201D870
:1027A000104470BD2369002B2BD1B6F1804F06D3A6
:1027B000002EA8BF6FF0004602DA184670BD760002
:1027C000236A23B1314698470546A0B904E0A369BE
:1027D00030469847054630B92068E36998476560F8
:1027E0002560284670BDA2682168013204F034F8E3
:1027F000E36920689847A06884E86000284470BDB9
:1028000070BD002070BD00002DE9F8430746084662
:1028100011B90020BDE8F88317B13A4600250DE054
:102820000321FFF7AAFF0028F3D0384904F026FD62
:1028300068E00D2B0DD80C2B06D30135904612F80D
:10284000013B002BF5D10CE0A3F10801022904D8CB
:10285000F3E7222BF1D05C2BEFD01F2B98BF05356F
:10286000ECE7C7EB0808A84408F10301FFF785FF70
:1028700006460028CDD04FF02209013086F800909E
:1028800045B946443946424603F0E6FF86F80190D2
:10289000B57037E0044617F8013B7BB31F2B06D910
:1028A000222B04D05C2B02D02370204624E05C2332
:1028B000237017F8012C601C0C2A12D007D8092AA3
:1028C00013D00A2A0FD0082A12D162230EE0222A3E
:1028D00005D05C2A03D00D2A0AD1722306E062706B
:1028E0000AE0662302E06E2300E07423637003E0D5
:1028F000074904F0D5FA601D441CCCE74644222267
:102900007270B3700120BDE8F88300BF88F500083D
:102910008BF500082DE9F8430D4600284CD000291E
:102920003FD084685AB9254B1E680EE0216A002901
:102930003DD0284604F084FB002838D02468002CC1
:10294000F4D131E0206A18B92468002CFAD12BE0C8
:1029500085422CD000216B5CF21892F801C0425CD9
:102960000CF0030CB7187F78BCF1010F07F00307D8
:102970000CBF03F120099946012F0CBF02F120087A
:102980009046C14503D10131002BE4D10FE0BCF1E9
:10299000010F08BF2033012F08BF20329342D3D14B
:1029A00005E00846BDE8F8832046BDE8F883236AC1
:1029B000002B14BF20460020BDE8F8830409002046
:1029C00010B5034628209847044618B10021282254
:1029D00004F01EF8204610BD2DE9F0410E468AB0E5
:1029E0000546002800F08081002900F07D81047BED
:1029F000082C39D007DC022C2BD0042C15D0012C4C
:102A000040F072811AE0202C00F08B8007DC102C43
:102A100040F06A810069FFF7F7FE044665E1402C4B
:102A200000F0C380802C69D05EE108460521FFF7E5
:102A3000A4FE002800F05881A04912E008460621B3
:102A4000FFF79BFE002800F04F819D4904F016FC23
:102A50004BE108460521FFF790FE002800F0448175
:102A6000984904F00BFC3DE1D0E906450022002323
:102A70002046294602F0A8FD0022002303F00CF8AE
:102A800003AF30B938468D4904F0F8FB4FF0040825
:102A90001FE08D4922462B46384604F001FA8B4947
:102AA00080466A46384604F021FA012806D1DDE95D
:102AB000000122462B4602F0EFFF30B93846844928
:102AC00022462B4604F0ECF98046B8F1190F00F2CB
:102AD0000B81304608F10101FFF74FFE002800F09E
:102AE00003810023434503D0FA5CC2540133F9E764
:102AF0000022C254B2681344B360F3E000690028B6
:102B000000F0F28004F018FC441C21463046FFF728
:102B100034FE002800F0E8802969224603F09CFE7C
:102B2000E0E0846808460121FFF727FE002800F056
:102B3000DB805B230370B3680133B360F368013358
:102B4000F3603CB320463146FFF746FF002800F013
:102B5000CB803046FFF705FE2368CBB17369304662
:102B6000002B0CBF01250225691CFFF706FE00287B
:102B700000F0BA802C23037073690BB9431C02E088
:102B80002022831C427000221A70B3681D44B56075
:102B90002468D6E730460221FFF7EFFD002800F059
:102BA000A3805D230370447099E04B698468002B17
:102BB0000CBF012502250846691CFFF7DEFD002831
:102BC00000F092807B230370F3680133F360736934
:102BD0000BB10A234370B3681D44B5607369002CC0
:102BE00056D083B13046F168FFF7C7FD00287BD08F
:102BF0000023F268934203D20922C2540133F8E75A
:102C0000B3681A44B260206A3146FFF7FDFD002820
:102C10006AD03046FFF7A5FD73693046002B0CBF24
:102C2000012502252946FFF7A8FD00285CD03A239C
:102C3000037073690BB109234370B36820461D44C8
:102C4000B5603146FFF7C8FE00284DD03046FFF78B
:102C500088FD75692368003518BF0125002B18BF52
:102C600001353046691CFFF788FD00283CD02368F9
:102C700013B12C2303700130736913B10A2303705D
:102C8000013000230370B36824681D44B560A5E7D4
:102C900013B1F168013100E002213046FFF76DFD0C
:102CA00010B37369BBB10346F268191A013A914235
:102CB00010D2092203F8012BF6E700BF60F50008E7
:102CC00091F5000897F500089CF50008A3F50008A9
:102CD000A7F5000818467D23037000234370F368AE
:102CE000013BF360012400E0002420460AB0BDE867
:102CF000F08100BF70B5064668B104F01DFB074BBC
:102D0000451C1B6828469847044628B131462A4688
:102D100003F0A2FD00E070BD204670BD0C00002055
:102D2000F8B514460646F8B1F1B1EAB123B1D76857
:102D30000D4647F4007707E00846FFF7DBFF05463E
:102D400090B1E76827F40077E3689B0504D4206A14
:102D500010B1064B5B6898472562E7603046214614
:102D6000BDE8F840FFF7EDBC0020F8BD0C000020E6
:102D7000F0B5234C8BB00D4624220021064601A855
:102D800003F046FE23684FF4807098474FF480723A
:102D9000034606950AAD01900292274694E8070083
:102DA00005E9070023B3304601A9FFF715FEF8B186
:102DB00001A8FFF7D6FCA568039925B10198013158
:102DC000A847D0B914E02368481C9847064678B154
:102DD000039A029B01329A4228BF1A46019903F0D6
:102DE0003BFD039BF554019863689847304604E027
:102DF000019808B17B68984700200BB0F0BD00BF78
:102E00000C00002070B50446E4B1E3682668DA05DA
:102E100003D4A06808B1FFF7F5FFE3680A4D13F487
:102E2000807F03D1206908B16B689847E3689B05F0
:102E300003D4206A08B16B68984720466B689847AE
:102E40003446E1E770BD00BF0C0000200000000028
:102E50002DE9F047074692B00E46002900F06E813A
:102E60000D68002D00F06C818C68D1F8048004F1AD
:102E70000409C1450AD82819A349042204F08CFA90
:102E800020B90423FB60C6F808907DE004F1050A30
:102E9000C2450AD828199D49052204F07DFA20B9B7
:102EA0000120F860C6F808A04DE1C1450CD82819EA
:102EB0009749042204F070FA30B902230120FB6024
:102EC0007861C6F808903EE1444580F03B812B5D77
:102ED0002919222B04D138463146FFF742FB32E153
:102EE0002D2B03D0A3F13002092A51D800220192E0
:102EF000C4EB0804A2420DF1080813D08B5C392BF7
:102F000007D8302B09D22D2B07D02E2B05D02B2BF9
:102F100002E0452B01D0652B04D108F802300132C4
:102F20003F2AE7D112AB1A444FF0000A404601A9EC
:102F300002F840AC05F0CCFCDDF804900446C14535
:102F40000D4623D06EA3D3E90023C7E9064502F05E
:102F5000C1FD10B16FF0004308E020462946002271
:102F60006C4B02F0ADFD18B14FF000437B6104E003
:102F70002046294602F0C2FD78610823FB60B36851
:102F8000C8EB09084344B3600120DCE05046DAE0B6
:102F90005B2B50D1F368B3F57A7F80F0D380013397
:102FA000F3602B5D5B2B40F0CD800134B460304684
:102FB000FFF7B1FBB368726893425BD23268D25CB0
:102FC0005D2A2BD0013B4FF00008B36044463069C6
:102FD000FFF7F6FC054648B324B1C8F80000C0F876
:102FE000048000E00446B36830460133B360FFF765
:102FF00092FB28463146FFF72BFFD0B13046FFF752
:103000008AFBB3687268934213D23268D35C2C2B6C
:1030100002D05D2B0DD102E0A846D8E70024F3686A
:10302000013BF3602023FB60BC607FE0002C00F0DC
:10303000898020467FE07B2B40F08480F368B3F5E5
:103040007A7F7FD20133F3602B5D7B2B7AD1013401
:10305000B4603046FFF75FFBB3687268934209D2F1
:103060003268D25C7D2A5AD0013B4FF00008B36031
:1030700045463AE0013BB36064E0002D3CD0C8F81F
:103080000000C0F80480B36830460133B360FFF736
:1030900042FB20463146FFF764FA00284AD030460A
:1030A000FFF739FB23697268236200232361B36849
:1030B00093423FD23268D25C3A2A3BD10133B360AB
:1030C0003046FFF728FB20463146FFF7C1FE0028B7
:1030D00030D03046FFF71FFBB3687268934229D2A5
:1030E0003268D35C2C2B17D1A0463069FFF768FCFF
:1030F00004460028C1D11CE00546C4E7AFF30080B8
:103100000000C0FFFFFFDF4160F5000891F50008F7
:1031100097F500080000E0C17D2B0BD100E00025F1
:10312000F368013BF3604023FB60BD60B36801338B
:1031300029E73DB12846FFF765FE03E0084602E0B7
:10314000284600E0002012B0BDE8F087AFF3008011
:103150002DE9F04389B004460E46914601A80021AE
:103160001C2203F055FC2F4B00271F605F60984620
:10317000002C53D02046019404F0DEF82A4B013095
:10318000029093E8070008AB03E90700FFF718FC7B
:103190000546002831D0019878B1039B53B9029BB2
:1031A000042B09D92149032204F0F6F820B903239E
:1031B000039301E0384600E001A8FFF7ACFA0146AE
:1031C0002846FFF745FEA8B1B9F1000F05D17EB141
:1031D000039B019A134433600AE001A8FFF79BFAAE
:1031E000039B029A934205D2019AD35C13B9EEE78E
:1031F000284614E02846FFF705FE039B029A9342F7
:1032000003D30AB1531E00E013460EB1E218326038
:10321000C8F80040C8F80430002000E0204609B09B
:10322000BDE8F083201300200C000020B7F5000853
:1032300000210A46FFF78CBF0021FFF799BD28B196
:103240008368002013B101301B68FBE7704701223F
:10325000FFF760BB10B5E8B1BAB1C1B18A4218D06E
:103260000B684C681360546003B15A60536803B133
:103270001A6083688B424FF0000308BF82600B60C6
:103280004B600846FFF7BEFD03E0104610BD084640
:1032900010BD012010BD000008B5044B1868FFF7F1
:1032A0008FFB08B10423C36008BD00BF0C000020E1
:1032B00070B505460E46FFF7EFFF04463146284637
:1032C00022460023FFF72CFD054620461DB9FFF7D7
:1032D00099FD284670BD70BD174B70B5044618683F
:1032E0000D46FFF76DFB0646F0B10823C360C0E949
:1032F00006450FA3D3E900232046294602F0EAFB46
:1033000010B16FF0004308E02046294600220B4B25
:1033100002F0D6FB18B14FF00043736104E0204681
:10332000294602F0EBFB7061304670BDAFF30080C0
:103330000000C0FFFFFFDF410C0000200000E0C1E3
:1033400038B50B4B05461868FFF73AFB044660B1E9
:103350001023C3602846FFF7CDFC054620612046B8
:1033600025B9FFF74FFD284638BD38BD38BD00BF31
:103370000C00002008B5044B1868FFF721FB08B1CA
:103380002023C36008BD00BF0C00002008B5044B1B
:103390001868FFF715FB08B14023C36008BD00BFE4
:1033A0000C0000202DE9F843B1F10009804602DA53
:1033B0000020BDE8F8830028FAD0FFF7DBFF0646BF
:1033C0000028F5D000273D464D4511D258F825007C
:1033D000FFF7B6FF044618B93046FFF713FDE7E7DD
:1033E0000DB9B06001E03860476001352746EBE772
:1033F0003046BDE8F88320B1007BD0F1010038BF32
:103400000020704720B1C06810F0030018BF0120F1
:10341000704718B1007B031F58425841704720B1D4
:10342000007BB0F1080358425841704720B1007B3F
:10343000B0F1100358425841704720B1007BB0F101
:10344000200358425841704720B1007BB0F140033F
:10345000584258417047000008B5024B5B689847D6
:1034600008BD00BF0C000020F8B506460D461F46FB
:103470001446DAB1E1B1D3689B0503D4106A08B1F0
:10348000FFF7EAFF2846FFF735FCE368206223F4E4
:103490000073E36029463A463046FFF73BFA22467E
:1034A00001463046FFF7D6FE0120F8BD1046F8BDB4
:1034B0000846F8BD0123FFF7D7BF122938B50546E6
:1034C000144608460BD0132910D0112916D100F04C
:1034D00071F80CB120460FE047F6FF700CE000F0E9
:1034E00069F8002CF6D149F63F4005E000F062F89B
:1034F000002CEFD14FF2234000F010F9284638BDE0
:1035000013B50022044601A8FFF7D7FF204602B0FA
:1035100010BD084600F0E8B800F0D4B8054B1B68B1
:103520001B685B0103F1844394331A68002AFCD0C2
:10353000704700BF18000020054B1B681B685B012B
:1035400003F184438C331A68002AFCD0704700BF13
:103550001800002008B5FFF7E1FF054B00221B68AB
:103560001B685B0103F18443C3F88C2008BD00BFD6
:103570001800002008B5FFF7D1FF054B01221B689A
:103580001B685B0103F18443C3F8902008BD00BFB2
:103590001800002008B5FFF7C1FF054B00221B688B
:1035A0001B685B0103F18443C3F8902008BD00BF92
:1035B0001800002010B5044600F0EDFA00F0F8FA0B
:1035C000204A112C136A23F44073136213460BD064
:1035D00005D8C4B1102C2AD10023136227E0122C85
:1035E00011D0132C1AD022E0174A002111600121BA
:1035F00042F8081C154A126812F0FF0FFAD01A6A36
:1036000042F4807212E0124A01211160114A1268DC
:10361000002AFBD01A6A42F4007207E00E4A1268D0
:1036200012F0FF0FFAD01A6A42F440721A620B4B82
:1036300001221A60FFF78EFFFFF77EFFBDE8104002
:10364000FFF76CBF001002400804424204044242EB
:103650008004424284044242440042423C044242CA
:10366000F8B5104B1E6835682B686F681F4017F05F
:10367000010403D074680CB1A0470124BA0704D533
:10368000B36813B1984744F002047B0704D5F3688C
:1036900013B1984744F004046B6823EA04046C6097
:1036A000F8BD00BF1800002008B5044B1B681B695B
:1036B0001BB19847024B01221A6008BD1800002078
:1036C000C482204208B5FFF745FFFFF735FFFFF73B
:1036D00025FF044B1B681B689869DB699BB243EAB2
:1036E000004008BD1800002010B50446FFF732FF67
:1036F000FFF722FFFFF712FFFFF73CFF064B220CFC
:103700001B68A4B21B689A61DC61FFF743FFBDE848
:103710001040FFF703BF00BF1800002010B504469B
:10372000FFF718FFFFF708FFFFF7F8FEFFF722FF8C
:10373000064B220C1B68A4B21B689A60DC60FFF782
:1037400029FFBDE81040FFF7E9BE00BF18000020C8
:1037500001498D46014908470050002061370008A3
:1037600008B5124B124A1968914201D0002301E0BA
:10377000104B07E01048D4188442F9D2C858D050F2
:103780000433F7E70D4A934203D2002243F8042B97
:10379000F8E702F04FFD00200146024601F0F6FB7B
:1037A000074B0BB102F036FDFEE700BFB4FC00088A
:1037B00000000020A8110020A811002020140020E3
:1037C0001562000808B50D4B1A680AB90C4A1A6050
:1037D0001B680C4AD21A824204DB09494242591A38
:1037E000914206DA02F010FD0C2303604FF0FF3027
:1037F00008BD024A18441060184608BD281300206E
:1038000020140020703C0128FEE770470B4B10B5D8
:10381000196809220A230A4800F0CEFE094B022249
:1038200019680948032300F0C7FEBDE81040074BA4
:10383000074819681A221B2300F0BEBE3C01002075
:103840002C130020400100204413002044010020DC
:103850005C13002010B5044600F082F9034B2046AB
:103860001978BDE8104000F017B900BF34000020FF
:10387000F8B50446056800F013FB226800235101E7
:1038800001F184410B60802129600121A9622B6133
:10389000EB606379696113B18B4203D02BE04FF485
:1038A00000436B644FF6FF73D36200256E1CF7B2C2
:1038B0002046394600F0FEFAD0B1236848F6FF7181
:1038C00003F1340242F8251018336D1017F0010F80
:1038D00053F8252014BF6FF0FF016FF47F4101EA18
:1038E000020214BF68214FF4D0410A4343F8252057
:1038F000042E3546DAD1216801224B01490103F13A
:10390000844301F18441C3F880220A60F8BD0000BD
:1039100038B5274B274C1A68022042F010021A6073
:1039200000F052F90025002000F0E4F965602368FA
:10393000182023F40023236000F0E9F9102000F0A0
:10394000E6F900F043F8A560102000F0D3F910204C
:1039500000F0EBF90028FAD000F039F8164800F032
:10396000F1F9182000F0C6F9182000F0DEF900285F
:10397000FAD0022000F0AEF900214FF0006000F014
:103980008BF90E4800F044FA00F038F80C4B188818
:1039900000F0D4F80B4800F0D5F80B4800F06CFAB2
:1039A00000F02EF800F02DF8FFF72FFF38BD00BF14
:1039B0000020024000100240380000203F190100A2
:1039C000360000205538000871380008704708B5E7
:1039D0000020014600F0F4F901204FF4806100F06E
:1039E000EFF90021022000F0EBF92D2000F0F8F9AA
:1039F000BDE808400320002100F0E2B900F0EEB875
:103A0000704700F02BB9000000000000000000002B
:103A1000012007E0022005E0032003E0042001E08C
:103A20000520FFE70D4A0121116072B60C4A002102
:103A30001160074902B4084902B486B005498E46B0
:103A4000704700BFAFF30080AFF30080AFF300809A
:103A500000000061F9FFFFFFD544000814ED00E00D
:103A600010E000E0AFF30080AFF30080AFF3008020
:103A7000FEE710B50446007900F070F92079BDE842
:103A8000104000F083B903689A6822F4602242F47F
:103A90008012114399607047002370B51A461C4686
:103AA000072B4FEA430503DCEE1801FA06F6344310
:103AB0001D4401FA05F501330A2B42EA0502EFD154
:103AC0000368DC601A6170BD38B5124D2A6813684E
:103AD0001C68A10706D5196821F0020119609368D6
:103AE00003B19847620708D52B681A681B691168EB
:103AF00021F00401116003B19847E30708D52B6852
:103B00001A68DB68116821F00101116003B1984760
:103B100038BD00BF64000020036801225B0103F18F
:103B2000844303F58673191F1A6018680028FCD1B6
:103B300043F8042C0B68002BFCD17047014604208D
:103B400000F03EB9044B10B504461868A047034B7B
:103B50001868A04710BD00BF64000020600000206E
:103B600010B50446FFF785FF20464FF46021FFF7AC
:103B70008AFF2368012103F1404308335A015B01A6
:103B800002F1844203F18443116520461960BDE8C7
:103B90001040FFF7C1BF08B5142000F0DFF8042083
:103BA00000F0DCF8BDE80840042000F0EFB80000A9
:103BB000014B01221A60704720000E42014B002287
:103BC0001A60704720000E42034B1A6822F0070269
:103BD00010431860704700BF0020024008B5074836
:103BE00001F0A7FA064801F0A4FA064801F0A1FA8C
:103BF000BDE80840044801F09CBA00BF68000020FE
:103C000070000020780000208000002070B501F0D6
:103C10000704A4000F25A5400368C80853F82060D6
:103C2000092A26EA050514BF1646082606FA04F4F2
:103C3000082A44EA050443F8204006D1012000FA8E
:103C400001F1DA6822EA010106E0092A05D1012022
:103C500000FA01F1DA681143D96070BD08B503209C
:103C600000F07CF8BDE80840032000F08FB80000A9
:103C700000284FEA011105DA064B00F00F00C9B227
:103C80001954704700F16040C9B200F5614080F8F6
:103C90000013704714ED00E021F0604138B521F0C9
:103CA0007F01084B0843986000241D4660B20F2135
:103CB0000134FFF7DDFF2B2CF8D1F02385F82330FA
:103CC00038BD00BF00ED00E0014B13F81000704755
:103CD000F0F70008064B5A6822F0030202435A60CC
:103CE00080005A6802F00C028242FAD1704700BF8D
:103CF00000100240030A0121C0B201FA00F003F1F2
:103D0000804303F504331A68104318607047030AB0
:103D10000121C0B201FA00F003F1804303F504333E
:103D20001A6822EA000018607047030A0222C0B233
:103D300002FA00F003F1804303F504331B681840D6
:103D400070470000044B05C85968126821F47411CB
:103D500002430A435A6070470010024010B50446FF
:103D6000FFF7B2FF074B53F82020074B03EB440447
:103D7000637803EBC2039B0003F1844301221A60C2
:103D800010BD00BF88000020F0F7000810B5044601
:103D9000FFF79AFF084B53F82020084B03EB44042D
:103DA000637803EBC2039B0003F1844301221A6092
:103DB00000221A6010BD00BF94000020F0F7000838
:103DC00010B5054B054C5A6854F8200022EA000251
:103DD0001143596010BD00BF001002404CF80008AC
:103DE00010B50446FFF770FF074B53F82020074B30
:103DF00003EB4404637803EBC2039B0003F18443A9
:103E000000221A6010BD00BF9C000020F0F70008DF
:103E1000024B072258601A60704700BF10E000E0B4
:103E200008B5044B1A6801321A60034B1B6803B1D2
:103E3000984708BD141400207413002011F0010FDE
:103E400070B542EA03030CBF0825002503FA05F507
:103E5000006801F1FF3400F11800C4F3400450F889
:103E6000241014BF6FF0FF066FF47F4631402943E2
:103E700040F8241070BD000010B504460448A04767
:103E80000448A0470448A0470448A04710BD00BF0D
:103E9000F000002018010020A8000020CC00002025
:103EA00010B504460079FFF759FF2079BDE81040AE
:103EB000FFF76CBF03791E2B10D9212B0ED0202BBE
:103EC0000ED9222B01D0252B04D102298CBF002032
:103ED000012070474B1E58425841704701207047DF
:103EE000002070478B1C40F823200368012203F157
:103EF00040430C3301EBC3039B0003F184431A607E
:103F000042790379FAB9B3F11A02534253410729AE
:103F100045D8DFE801F004090909090E0E13002B4A
:103F20000CBF2C23192331E0002B0CBF2E231B23A5
:103F30002CE0002B0CBF2D231A2327E0002B0CBFF5
:103F40002B23182322E01B3B0C2B28D8DFE803F09F
:103F5000071D090B0D0F2711131517191B001C2323
:103F600014E01E2312E0322310E036230EE0372344
:103F70000CE018230AE0192308E01A2306E02B239B
:103F800004E02C2302E02D2300E01D235909012227
:103F900003F01F0302FA03F3014A42F8213070478D
:103FA00000E100E00368002203F140430C3301EB21
:103FB000C3039B0003F1844302311A6040F82120BF
:103FC000704738B543790446022B0D463BD0032A8F
:103FD00039D8DFE802F002111F2DFFF7E3FF236855
:103FE000013D03F140432033DB0003EB85039B00DD
:103FF00003F18443002225E00368002203F14043DB
:104000000C3301EBC3039B0003F184431A6060226D
:10401000082301E010220023FFF710FF2368013D71
:1040200003F140432033DB0003EB85039B0006E0F4
:1040300003684FF2F1229A6103229A605B0103F157
:10404000844301221A6038BD10B5074B1C68E16833
:1040500022690A40120606D55B6A23B19847236994
:1040600023F08003236110BDF000002010B5074B42
:104070001C68E16822690A40D20706D59B6823B113
:104080009847236923F00103236110BDF00000204D
:10409000F8B50C4F3D68EB682E691E4016F04004E1
:1040A00003D03C6A0CB1A0474024B30604D5FB6999
:1040B00013B1984744F020042B6923EA04042C61CF
:1040C000F8BD00BFF0000020F8B5134F3E68F3685C
:1040D00035691D4015F0100403D0BC690CB1A04730
:1040E0001024290704D57B6913B1984744F00804CC
:1040F0006A0704D53B6913B1984744F00404AB0741
:1041000004D5FB6813B1984744F00204336923EAED
:1041100004043461F8BD00BFF0000020F8B51A4E69
:104120003768FB683D691D4015F0400403D0346AD0
:104130000CB1A0474024EB0604D5B36913B19847EE
:1041400044F01004280704D5736913B1984744F06C
:104150000804690704D5336913B1984744F004048F
:10416000AA0704D5F36813B1984744F00204EB079B
:1041700004D5B36813B1984744F001043B6923EABE
:1041800004043C61F8BD00BF18010020F8B51A4EC8
:104190003768FB683D691D4015F0400403D0346A60
:1041A0000CB1A0474024EB0604D5B36913B198477E
:1041B00044F01004280704D5736913B1984744F0FC
:1041C0000804690704D5336913B1984744F004041F
:1041D000AA0704D5F36813B1984744F00204EB072B
:1041E00004D5B36813B1984744F001043B6923EA4E
:1041F00004043C61F8BD00BFA8000020F8B51A4EC9
:104200003768FB683D691D4015F0400403D0346AEF
:104210000CB1A0474024EB0604D5B36913B198470D
:1042200044F01004280704D5736913B1984744F08B
:104230000804690704D5336913B1984744F00404AE
:10424000AA0704D5F36813B1984744F00204EB07BA
:1042500004D5B36813B1984744F001043B6923EADD
:1042600004043C61F8BD00BFCC00002081880268D6
:10427000034689B2505C99881A8989B292B29142F8
:1042800017BF9A880022013292B2C0B29A8070475A
:10429000C28838B5838892B29BB201329A420446F2
:1042A0000D461AD0C288038992B29BB29A4202D1BB
:1042B00083889BB28BB14FF0FF30E288236892B2C3
:1042C0009D54E288238992B29BB29A4217BFE38839
:1042D000002301339BB2E38038BD2046FFF7C6FFC1
:1042E000EBE770B51E460546084611460422059CBC
:1042F000FFF78CFC9DF810100B223046FFF786FC70
:104300002B6804F00F01DA6804F0300422F4F05254
:104310001204120C42EA4122DA601A6922F4405275
:104320001204120C42EA04241C6170BD38B5044624
:10433000154611B900F096F8014619235943AD000E
:104340006423B1FBF5F1B1FBF3F21201100903FB99
:10435000101109013231B1FBF3F303F00F032168AF
:104360001A4392B28A6038BD38B5114DEB68980691
:1043700007D52B68990604D569680E48C9B2FFF7BE
:1043800087FFEB680A4C1A0611D523681B060ED569
:1043900009488288C38892B29BB29A4203D0FFF741
:1043A00065FF606038BDE36823F08003E36038BDDB
:1043B00000380140841300207813002038B5114DD7
:1043C000EB68980607D52B68990604D569680E48EE
:1043D000C9B2FFF75DFFEB680A4C1A0611D52368D6
:1043E0001B060ED509488288C38892B29BB29A42B6
:1043F00003D0FFF73BFF606038BDE36823F0800324
:10440000E36038BD0044004090130020A813002052
:1044100038B5114DEB68980607D52B68990604D579
:1044200069680E48C9B2FFF733FFEB680A4C1A06F9
:1044300011D523681B060ED509488288C38892B21D
:104440009BB29A4203D0FFF711FF606038BDE3686A
:1044500023F08003E36038BD004800409C13002037
:10446000B413002008B590F89002FFF72DFC20B19E
:104470000128034818BF002008BD024808BD00BF3E
:1044800000A24A040051250208B5114B01211C6805
:1044900003222046FFF7BAFB002301211A4693426C
:1044A000206834BF02254FF40035B2F5007F056166
:1044B00003F1010303D0002A08BF012101E04FF0FE
:1044C000FF31B3F5007F04BF52180023E7E700BFB8
:1044D000ECF7000808B5034B0BB1AFF3008062B6F0
:1044E000FFF7D2FF0000000003695B68D9889A8853
:1044F00089B292B2D8888A1A998880B289B28842E1
:1045000003D2198989B201310A4492B282B19988E1
:104510001A6889B2505C99881A8989B292B291421C
:1045200017BF9A880022013292B2C0B29A807047B7
:104530004FF0FF30704703695B689988DA8889B269
:1045400092B2914205D09A881B6892B2985CC0B230
:1045500070474FF0FF30704703699A689088D188A0
:1045600080B289B28842F9D11A6813685B06FCD51B
:10457000704713B504698DF8071020460DF1070147
:10458000012200F015FE0028F7D0012002B010BD76
:1045900003695B68D8889A8880B292B2D988801AF9
:1045A0009A8889B292B2914203D21B899BB201339D
:1045B000184480B27047000030B5002545604FF4C4
:1045C0007A758560024D016105600275437530BDE5
:1045D00068F8000803692DE9F74FDB680446994243
:1045E0000F4692462CD890F81480174D4FEA0818C1
:1045F00008EB050690F8159070684FEA091909EB69
:10460000050B717B10B10022FFF7DBFC206900F085
:104610009BFD337B9BF80C2020698DE8080459F83A
:10462000051058F80530FFF75CFE206900213A4676
:10463000FFF77CFE206903B0BDE8F04F00F0AEBD8F
:1046400003B0BDE8F08F00BFBCF500080022FFF703
:10465000C1BF0000044B02791B789A4202D1034B80
:104660001B681860704700BFD0130020D4130020CF
:10467000002310B50446036072B6054B193119705A
:10468000044B18600448FFF7F7FB62B6204610BDE4
:10469000D0130020D41300205546000803680022E0
:1046A0001B685B0103F184431A60704703680122B1
:1046B0001B685B0103F184431A607047036801398A
:1046C0001B6889B29962704703681B68DA6A92B204
:1046D000914228BF11465962704738B5054639B92D
:1046E000036801221B689962DA62D86A80B238BD19
:1046F00048244C434FF6FF71B4FBF1F1013189B20C
:1047000004EB5104B4FBF1F4FFF7D8FF2B68A4B21B
:104710001B682046DC6238BD0068C9B2FFF7E2BB07
:1047200008B501210848FFF7A3FF02210748FFF75A
:104730009FFF03210648FFF79BFFBDE8084005489F
:104740000421FFF795BF00BFC0130020C413002051
:10475000C8130020CC1300202DE9F04100240746A7
:104760000E4625463B1919790A22304600F01DF9FC
:104770002E218046304600F04DF801344044032C91
:104780000544EFD13046F9790A2200F00EF92844A9
:10479000BDE8F08130B58371034D9DF80C300560A4
:1047A00001714271C37130BD90F80008044B054A95
:1047B0001A6000221A715A719A71DA71704700BF3B
:1047C000D813002090F8000870B505460E46002466
:1047D000315D29B12A682846126890470134F7E70D
:1047E000204670BDF8B505460C4616468F18BC42EB
:1047F00006D02B6828461B6814F8011B9847F6E77B
:104800003046F8BD10B502680B46946809689A688E
:10481000A04710BD08B503681B68984708BD08B5D8
:1048200003685B68984708BDFFF7F9BF10B50A68D1
:104830000446126808462146904710BD38B50D2140
:104840000546FFF7E7FF0A2104462846FFF7E2FF87
:10485000204438BD38B50446FFF7D4FF054620464E
:10486000FFF7ECFF284438BD38B50446FFF7D7FF03
:1048700005462046FFF7E2FF284438BD38B5044618
:10488000FFF7CDFF05462046FFF7D8FF284438BD87
:1048900038B50446FFF7CAFF05462046FFF7CEFFAE
:1048A000284438BD2DE9F04F14461D4691B054EA16
:1048B000050381469DF868B004D13021FFF7AAFFB7
:1048C00001202EE04FF000085FFA8BF6002720460B
:1048D000294632463B4601F089F908F101080DF1FD
:1048E000000AC2440AF8012C204629463B463246BB
:1048F00001F07CF904460D4654EA0503E4D1002496
:1049000008F1FF381DF808104846092994BF3031D6
:104910003731C9B2FFF77EFF0444B8F1000FEFD181
:10492000204611B0BDE8F08F2DE9F041069F064604
:1049300014461D462FB90368D1B21B689847BDE8DD
:10494000F081002C75F1000305DA2D21FFF762FFDD
:10495000644265EB4505FFB20697304622462B467A
:10496000BDE8F041FFF79EBF07B5CB1700920A469E
:10497000FFF7DAFF03B05DF804FB38B50446FFF734
:10498000F3FF05462046FFF759FF284438BD70B5B0
:10499000049921B90368D1B21B68984770BDC9B2A8
:1049A0000491BDE87040FFF77DBF07B5002300927A
:1049B000CAB2FFF7ECFF03B05DF804FB38B504465C
:1049C000FFF7F3FF05462046FFF738FF284438BDC0
:1049D00007B5002300920A46FFF7D9FF03B05DF840
:1049E00004FB000038B50A4B04461A681D46C26035
:1049F0002268204613699847002807DAE2682B6886
:104A00009B1AA2689342F3D34FF0FF3038BD00BF2A
:104A10001414002070B50D4609490446164600F0EE
:104A200063F82846FFF7DEFF01460029204605DB34
:104A3000B14203D0C9B200F0E8F8F2E770BD00BFA0
:104A40008BED000870470022026010B50C684260D0
:104A500004604C68826044608C6884600A604A60CC
:104A60008A6010BD10B50446006801F01DFC2046A8
:104A700010BD10B50446006808B101F015FC002314
:104A80002360A360636010BD38B504460D4600681E
:104A9000013102F00BF810B184E82100012038BD8B
:104AA000036810B5044613B143688B4207D2204611
:104AB000FFF7EAFF20B1A3680BB922681370012049
:104AC00010BD70B50E46114604461546FFF7E8FFC7
:104AD00018B92046FFF7CDFF04E0A56020683146F5
:104AE00002F0CCFB204670BD38B5002304460360BD
:104AF000436083600D4639B1084602F01DFC29462B
:104B000002462046FFF7DDFF204638BD38B5054692
:104B100000680C4678B1096859B10C4B4BB16A6812
:104B2000A3689A4205D302F0A9FBA368AB600023F7
:104B30000AE001F0B9FB23682B6063686B60A3682F
:104B4000AB60002323606360A36038BD454A000862
:104B5000884210B50B46044607D0096819B19A6817
:104B6000FFF7AFFF01E0FFF784FF204610BD10B54F
:104B700000230446036043608360FFF7E9FF20469B
:104B800010BD884210B5044601D0FFF7BFFF204694
:104B900010BD38B505460C4641B1084602F0CCFBC5
:104BA000214602462846FFF78CFF01E0FFF761FF30
:104BB000284638BD70B5044685680E4609B9002000
:104BC00070BD62B115442946FFF76AFF0028F6D090
:104BD0002068A3683146184402F050FBA56001200C
:104BE00070BD0B469A680968FFF7E4BF38B5054603
:104BF0000C46084641B102F09FFB2146024628467A
:104C0000BDE83840FFF7D6BF38BD07B500238DF8A3
:104C10000410012201A98DF80530FFF7CBFF03B086
:104C20005DF804FB13B50A220446084601A900F00A
:104C300053FA01A802F080FB01A902462046FFF7C3
:104C4000B9FF02B010BD1FB504460A2208466946E6
:104C500000F042FA684602F06FFB694602462046C1
:104C6000FFF7A8FF04B010BD1FB504460A2208468E
:104C7000694600F05CFA684602F05EFB694602464F
:104C80002046FFF797FF04B010BD0B4610B509682A
:104C90009A680446FFF78EFF10B92046FFF7E9FE39
:104CA000204610BD38B504460D4641B1084602F015
:104CB00043FB294602462046FFF77CFF10B92046F9
:104CC000FFF7D7FE204638BD10B50446FFF7BBFFFF
:104CD00010B92046FFF7CDFE204610BD10B50446A2
:104CE000FFF7C2FF10B92046FFF7C3FE204610BDF4
:104CF000826808B50B4612B919B9012008BD11B96F
:104D00000368187802E0006802F09AF9D0F1010017
:104D100038BF002008BD08B582688B689A420CD362
:104D2000006868B1096851B1D31A184402F088F9D3
:104D3000D0F1010038BF002008BD002008BD0846A2
:104D400008BD38B50C469AB191B181688B4202D347
:104D50000023237038BDC91A551E8D4228BF0D4649
:104D600001682A461944204602F070FB002363556F
:104D700038BD836810B59A4206D20468A01802F0C4
:104D8000E5F808B1001B10BD4FF0FF3010BDF8B5BD
:104D900015468A680F46C2B18368B3B19A4214D8E7
:104DA00006689D4228BF03F1FF3530464FF0FF34BF
:104DB000731998420CD8396802F0CEFC40B1831BBD
:104DC000AB4298BF1C460130F2E74FF0FF30F8BD10
:104DD0002046F8BD9A422DE9F04107460D4614469B
:104DE0001E4601D93446164638460C49FFF77CFE6C
:104DF000AB689C420FD29E4228BF1E462B68002201
:104E000013F806809A55296838462144FFF7C1FEF9
:104E10002B6803F806803846BDE8F0818BED00086A
:104E20002DE9F74FD0F808A004460F461646BAF110
:104E3000000F77D0D1F808B0BBF1000F72D09368A3
:104E40000568CBEB0308B8F1000F0DD1284639688F
:104E500002F082FC0546002864D03168B26801F097
:104E6000FBFCB3681D44F1E702DB0B68D14622E08E
:104E7000A9462846396802F06FFC8246A0B1C5EB0E
:104E80000A0B294648465A46D94401F0E5FC4846F3
:104E90003168B26801F0E0FCB368BD689944A3686A
:104EA00055444344A360E4E74846294603B0BDE8BF
:104EB000F04F02F0E3B919462846019302F04CFC8A
:104EC000019B18B100EB0B05C144F4E7D14529D093
:104ED0006368994504D920464946FFF7D5FD08B3D4
:104EE000A268013A002A1DDB20463946FFF74FFF32
:104EF000051E17DBBA682168A3682A44114401EB38
:104F000008009A1A01F01EFDA3682268434400219C
:104F1000A360D1542068B2682844316801F09CFC39
:104F20006A1EDFE703B0BDE8F08F2DE9F0410668A7
:104F3000054616B3876807B3B0464446207808F1A3
:104F4000010801F09FF90028F7D1013F3744387874
:104F500001F098F948B901373A1BB442AA6008D960
:104F60003046214601F078FC03E0A742F3D3013F2D
:104F7000EDE72A68AB680021D154BDE8F0810068F4
:104F800008B101F033B97047FEF7C2BC08B5FDF7B0
:104F900049F8FDF799F8FCE701F086B9222870B5C9
:104FA0003BD8082939D8DFE801F0051A080B0E11A3
:104FB000081417000024032213E00024042210E048
:104FC000002422460DE0002409220AE000240822E1
:104FD00007E001240B2204E001240F2201E0002459
:104FE00007220E4B00011E18317B1858FEF70EFEEB
:104FF000706890B1717B24B10122BDE87040FEF76A
:10500000E0BF0368013903F140432033DB0003EBC9
:1050100081039B0003F184431C6070BDBCF5000854
:10502000222810D8084B00011A18127B1B580120A7
:1050300000FA02F2D1F1010138BF0021090102FAA0
:1050400001F11B6819617047BCF50008054B70B58C
:105050001C6806461D4600F007F82B681B1BB34270
:10506000F9D370BD141400207047F0B58BB059B35C
:10507000931E222B2AD80A2A2AD1002828DA404255
:10508000012501AB1E4670B1B0FBF2F702FB17041D
:10509000092C3846D8BF303403F10107C8BF573454
:1050A0001C703B46EFE7B342EED01DB12D204A1CE9
:1050B000087000E00A46B34204D913F8010D02F863
:1050C000010BF8E700231370084603E0002001E01D
:1050D0000025D6E70BB0F0BDFFF7C7BF70B58AB0AB
:1050E00001B3931E222B1FD801AB1D4670B1B0FB3C
:1050F000F2F602FB1604092C3046D8BF303403F117
:105100000106C8BF57341C703346EFE7AB42EED000
:105110000A46AB4204D913F8010D02F8010BF8E777
:1051200000231370084600E000200AB070BDFFF7AE
:10513000D5BF10B504460079FEF710FE2079BDE812
:105140001040FEF723BE0000436800227F2110B507
:105150009A80DA80198100F1100119608368044691
:105160009A80DA8040F2FF121A8100F190021A60F0
:1051700090F89002FEF7F2FD94F891325AB2002AAC
:1051800008DB012103F01F0301FA03F30249521166
:1051900041F8223010BD00BF00E100E00368DA688A
:1051A00042F02C02DA60DA6842F40052DA607047AA
:1051B000F0B583680546046800209F88DE88BFB28A
:1051C000B6B2B74204D0E36823F08003E36027E07F
:1051D00026683606F7D59042F5D00E5C0130666041
:1051E000EBE7DF889E88BFB2B6B20137B74211F84D
:1051F00000C01DD0DF881E89BFB2B6B2B74213D03F
:10520000DF881E68BFB206F807C0DF881E89BFB2FC
:10521000B6B2B74218D0DE880136B6B2DE800130B1
:105220009042AB68DDD303E09E88B6B2002EE7D192
:105230009A88DB8892B29BB29A4200D1F0BDE368B3
:1052400043F08003E360F0BD0026E7E7034608462D
:10525000194600F0CFBF00BF81F0004102E000BF5F
:1052600083F0004330B54FEA41044FEA430594EA26
:10527000050F08BF90EA020F1FBF54EA000C55EA61
:10528000020C7FEA645C7FEA655C00F0E2804FEA32
:105290005454D4EB5555B8BF6D420CDD2C4480EA14
:1052A000020281EA030382EA000083EA010180EA44
:1052B000020281EA0303362D88BF30BD11F0004F92
:1052C0004FEA01314FF4801C4CEA113102D04042C8
:1052D00061EB410113F0004F4FEA03334CEA133303
:1052E00002D0524263EB430394EA050F00F0A7801B
:1052F000A4F10104D5F1200E0DDB02FA0EFC22FA16
:1053000005F2801841F1000103FA0EF2801843FA09
:1053100005F359410EE0A5F120050EF1200E012AFA
:1053200003FA0EFC28BF4CF0020C43FA05F3C01838
:1053300051EBE37101F0004507D54FF0000EDCF1B1
:10534000000C7EEB00006EEB0101B1F5801F1BD35A
:10535000B1F5001F0CD349085FEA30004FEA3C0C5E
:1053600004F101044FEA445212F5800F80F09A8054
:10537000BCF1004F08BF5FEA500C50F1000041EB58
:10538000045141EA050130BD5FEA4C0C404141EB5C
:10539000010111F4801FA4F10104E9D191F0000F83
:1053A00004BF01460020B1FA81F308BF2033A3F106
:1053B0000B03B3F120020CDA0C3208DD02F1140CFD
:1053C000C2F10C0201FA0CF021FA02F10CE002F138
:1053D0001402D8BFC2F1200C01FA02F120FA0CFC31
:1053E000DCBF41EA0C019040E41AA2BF01EB04517A
:1053F000294330BD6FEA04041F3C1CDA0C340EDC78
:1054000004F11404C4F1200220FA04F001FA02F3BA
:1054100040EA030021FA04F345EA030130BDC4F178
:105420000C04C4F1200220FA02F001FA04F340EA6D
:105430000300294630BD21FA04F0294630BD94F01E
:10544000000F83F4801306BF81F480110134013D05
:105450004EE77FEA645C18BF7FEA655C29D094EA76
:10546000050F08BF90EA020F05D054EA000C04BFF4
:105470001946104630BD91EA030F1EBF00210020DF
:1054800030BD5FEA545C05D14000494128BF41F07E
:10549000004130BD14F580043CBF01F5801130BDE2
:1054A00001F0004545F0FE4141F470014FF000006D
:1054B00030BD7FEA645C1ABF194610467FEA655C1E
:1054C0001CBF0B46024650EA013406BF52EA0335C0
:1054D00091EA030F41F4002130BD00BF90F0000FAE
:1054E00004BF0021704730B54FF4806404F13204EA
:1054F0004FF000054FF0000150E700BF90F0000FA3
:1055000004BF0021704730B54FF4806404F13204C9
:1055100010F0004548BF40424FF000013EE700BF99
:1055200042004FEAE2014FEA31014FEA02701FBF29
:1055300012F07F4393F07F4F81F06051704792F0FB
:10554000000F14BF93F07F4F704730B54FF4607475
:1055500001F0004521F0004120E700BF50EA0102C0
:1055600008BF704730B54FF000050AE050EA01026D
:1055700008BF704730B511F0004502D5404261EBDD
:1055800041014FF4806404F132045FEA915C3FF41E
:10559000DCAE4FF003025FEADC0C18BF03325FEAB7
:1055A000DC0C18BF033202EBDC02C2F1200300FA6C
:1055B00003FC20FA02F001FA03FE40EA0E0021FA91
:1055C00002F11444C1E600BF70B54FF0FF0C4CF47B
:1055D000E06C1CEA11541DBF1CEA135594EA0C0F31
:1055E00095EA0C0F00F0DEF82C4481EA030621EA6C
:1055F0004C5123EA4C5350EA013518BF52EA0335A7
:1056000041F4801143F4801338D0A0FB02CE4FF058
:105610000005E1FB02E506F00042E0FB03E54FF088
:105620000006E1FB03569CF0000F18BF4EF0010E80
:10563000A4F1FF04B6F5007F64F5407404D25FEA7C
:105640004E0E6D4146EB060642EAC62141EA55512F
:105650004FEAC52040EA5E504FEACE2EB4F1FD0C71
:1056600088BFBCF5E06F1ED8BEF1004F08BF5FEAEF
:10567000500E50F1000041EB045170BD06F00046A1
:1056800046EA010140EA020081EA0301B4EB5C044E
:10569000C2BFD4EB0C0541EA045170BD41F4801146
:1056A0004FF0000E013C00F3AB8014F1360FDEBF6B
:1056B000002001F0004170BDC4F10004203C35DA47
:1056C0000C341BDC04F11404C4F1200500FA05F3CA
:1056D00020FA04F001FA05F240EA020001F000426B
:1056E00021F0004110EBD37021FA04F642EB0601E1
:1056F0005EEA430E08BF20EAD37070BDC4F10C040B
:10570000C4F1200500FA04F320FA05F001FA04F2CE
:1057100040EA020001F0004110EBD37041F10001BA
:105720005EEA430E08BF20EAD37070BDC4F12005C5
:1057300000FA05F24EEA020E20FA04F301FA05F22D
:1057400043EA020321FA04F001F0004121FA04F2D5
:1057500020EA020000EBD3705EEA430E08BF20EAA5
:10576000D37070BD94F0000F0FD101F000464000DF
:1057700041EB010111F4801F08BF013CF7D041EA61
:10578000060195F0000F18BF704703F00046520065
:1057900043EB030313F4801F08BF013DF7D043EA36
:1057A0000603704794EA0C0F0CEA135518BF95EAEC
:1057B0000C0F0CD050EA410618BF52EA4306D1D173
:1057C00081EA030101F000414FF0000070BD50EA92
:1057D000410606BF1046194652EA430619D094EA1C
:1057E0000C0F02D150EA013613D195EA0C0F05D106
:1057F00052EA03361CBF104619460AD181EA03015A
:1058000001F0004141F0FE4141F470014FF0000011
:1058100070BD41F0FE4141F4780170BD70B54FF0AC
:10582000FF0C4CF4E06C1CEA11541DBF1CEA13552C
:1058300094EA0C0F95EA0C0F00F0A7F8A4EB05040E
:1058400081EA030E52EA03354FEA013100F0888005
:105850004FEA03334FF0805545EA131343EA1263CE
:105860004FEA022245EA111545EA10654FEA002683
:105870000EF000419D4208BF964244F1FD0404F53C
:10588000407402D25B084FEA3202B61A65EB030598
:105890005B084FEA32024FF480104FF4002CB6EB55
:1058A000020E75EB030E22BFB61A754640EA0C00D5
:1058B0005B084FEA3202B6EB020E75EB030E22BF15
:1058C000B61A754640EA5C005B084FEA3202B6EB56
:1058D000020E75EB030E22BFB61A754640EA9C0015
:1058E0005B084FEA3202B6EB020E75EB030E22BFE5
:1058F000B61A754640EADC0055EA060E18D04FEAA3
:10590000051545EA16754FEA06164FEAC30343EA42
:1059100052734FEAC2025FEA1C1CC0D111F4801F0F
:105920000BD141EA00014FF000004FF0004CB6E708
:1059300011F4801F04BF01430020B4F1FD0C88BFA7
:10594000BCF5E06F3FF6AFAEB5EB030C04BFB6EBB2
:10595000020C5FEA500C50F1000041EB045170BDA5
:105960000EF0004E4EEA113114EB5C04C2BFD4EBD2
:105970000C0541EA045170BD41F480114FF0000E56
:10598000013C90E645EA060E8DE60CEA135594EAD2
:105990000C0F08BF95EA0C0F3FF43BAF94EA0C0FD5
:1059A0000AD150EA01347FF434AF95EA0C0F7FF44A
:1059B00025AF104619462CE795EA0C0F06D152EA9E
:1059C00003353FF4FDAE1046194622E750EA410682
:1059D00018BF52EA43067FF4C5AE50EA41047FF493
:1059E0000DAF52EA43057FF4EBAE12E74FF0FF3CF8
:1059F00006E000BF4FF0010C02E000BF4FF0010CC9
:105A00004DF804CD4FEA410C7FEA6C5C4FEA430C41
:105A100018BF7FEA6C5C1BD001B050EA410C0CBF90
:105A200052EA430C91EA030F02BF90EA020F0020F2
:105A3000704710F1000F91EA030F58BF994208BF59
:105A400090422CBFD8176FEAE37040F00100704716
:105A50004FEA410C7FEA6C5C02D150EA013C07D16D
:105A60004FEA430C7FEA6C5CD6D152EA033CD3D0B8
:105A70005DF8040B704700BF8446104662468C46B2
:105A80001946634600E000BF01B5FFF7B7FF0028E5
:105A900048BF10F1000F01BD4DF808EDFFF7F4FF0E
:105AA0000CBF012000205DF808FB00BF4DF808ED99
:105AB000FFF7EAFF34BF012000205DF808FB00BFBC
:105AC0004DF808EDFFF7E0FF94BF012000205DF8DE
:105AD00008FB00BF4DF808EDFFF7CEFF94BF012093
