:020000040800F2
:1000000000500020E9360008A1390008A539000891
:10001000A9390008AD390008B1390008013A0008D3
:10002000013A0008013A0008013A0008013A0008C4
:10003000013A0008013A0008013A0008A53D00080D
:10004000013A0008013A0008013A00085136000858
:10005000013A0008013A0008013A0008013A000894
:10006000013A0008013A0008013A0008013A000884
:10007000013A0008013A0008013A0008013A000874
:10008000013A0008013A0008593A0008013A00080C
:10009000013A0008013A0008013A0008013A000854
:1000A000CD3F0008F13F0008154000084D40000812
:1000B000A14000081141000881410008013A0008F0
:1000C000013A0008013A0008013A0008013A000824
:1000D000013A0008ED42000841430008954300083A
:1000E000013A000899360008013A000810B5054C9D
:1000F000237833B9044B13B10448AFF300800123D4
:10010000237010BDA81100200000000018DA0008BC
:1001100008B5064B1BB106480649AFF300800648F8
:10012000036813B1054B03B1984708BD00000000F8
:1001300018DA0008AC110020A8110020000000000F
:100140000148112103F0D8B9C4110020064B1A68E8
:1001500001321A601A681D2A04D900221A60034B62
:1001600001221A70704700BFC8110020CC11002076
:1001700010B5094C0949204604F071FA20460121C6
:10018000074A04F08BFA2046002104F05FFA20466B
:10019000BDE8104004F044BABC13002040420F00F8
:1001A0004D01000810B5054C204604F041FA2046E8
:1001B0000021BDE8104004F049BA00BFBC13002084
:1001C00013B5026802AB03F8011D546A19460122F7
:1001D000A04702B010BD07B503680DF107019B6A87
:1001E0000122984701280CBF9DF807004FF0FF300F
:1001F00003B05DF804FB4FF0FF30704708B50369AA
:10020000186803689B69984708BD036810B5DB68E8
:100210000446984708B9207F10BD012010BD08B5DD
:1002200003681B6B9847003018BF012008BD10B54C
:100230000446403004F0C4FB04F1340004F0C0FB79
:1002400004F1280004F0BCFB04F11C0004F0B8FB2E
:1002500004F1100004F0B4FB204610BDF0B585B0E9
:100260000C460646194901A81746194D04F0EAFB49
:1002700001A8102104F0C2FB217901A804F080FC40
:10028000294601A804F060FC617901A804F078FC1B
:10029000294601A804F058FCA17901A804F070FCDB
:1002A000294601A804F050FCE17901A804F068FC9B
:1002B000336801991B6A3A4630469847044601A8BC
:1002C00004F07EFB204605B0F0BD00BF83EC0008C3
:1002D0003EEE000810B5044620680368DB689847C6
:1002E00010B904F081FEF7E7206803681B6998479E
:1002F0002C28F1D1012010BD2DE9F04F054687B023
:100300008A46104640211E461446129F04F076FB92
:100310008F4BD3F800B0002004F066FE2868036815
:10032000DB689847002840F3E480286803681B696D
:100330009847011EF2DD2046C9B204F014FC16B93C
:10034000109BA3B910E0314603A804F07BFB2046C4
:1003500003A904F098FC814603A804F031FBB9F12D
:10036000000FEDD00120EFE0119B9BB910E0109938
:1003700003A804F067FB204603A904F084FC81462F
:1003800003A804F01DFBB9F1000FEDD00220DBE063
:10039000A7B910E0119903A804F054FB204603A963
:1003A00004F071FC814603A804F00AFBB9F1000FC8
:1003B000EED00320C8E0139B0BBB10E0394603A826
:1003C00004F040FB204603A904F05DFC814603A82D
:1003D00004F0F6FAB9F1000FEDD00420B4E05D4965
:1003E00003A804F02FFB204603A904F04CFC81462F
:1003F00003A804F0E5FAB9F1000F11D139E013991F
:1004000003A804F01FFB204603A904F03CFC81462E
:1004100003A804F0D5FAB9F1000FE0D0052093E06D
:10042000684629682C2204F0A3FA684604F05FFDB0
:100430000128814615D129680A2203A804F098FAF8
:1004400003A804F054FD804603A804F0B9FA20463E
:10045000414904F04CFB05EB88035B6883F81D9071
:1004600003E02046694604F06AFB684604F0A8FAF7
:1004700054E73A4903A804F0E5FA204603A904F03A
:1004800002FC804603A804F09BFAB8F1000F3FF489
:1004900045AF334903A804F0D5FAA26803A9083A86
:1004A000204604F02CFC804608F1020803A804F062
:1004B00087FA42462C21204604F013FC42460346AC
:1004C000214603A804F03EFC03A804F010FD80467A
:1004D00003A804F075FAB8F1000F3FF41FAF05EB65
:1004E00088035B68204683F81C901B4904F0FFFAE0
:1004F00014E7174B1B68CBEB03035345FFF40BAF1B
:10050000204604F0CAFCA368CBB12146684604F03B
:10051000DCFA1449144804F044F92021124804F08C
:100520003BF9694603A804F0D0FA03A90E4804F089
:1005300053F903A804F044FA684604F041FA20464F
:10054000054904F0D4FA0020C0B207B0BDE8F08F2E
:100550000C1400206EEC000883EC00087BEC000813
:1005600081EC000884EC000824130020F0B589B069
:100570001C4607460E4605A80B49154604F062FACC
:1005800000940E9C314601940F9C05AA0294109C85
:100590002B4603943846FFF7AFFE044605A804F047
:1005A0000FFA204609B0F0BD83EC0008F0B5044610
:1005B00085B00E46006821491F46154604F0F1F843
:1005C00020681F4904F0EDF80A223946206804F03B
:1005D000A4F920682C2104F0DFF82068194904F000
:1005E000E0F82068184904F0DCF83146206804F08F
:1005F000D8F82068154904F0D4F80A222946206862
:1006000004F074F91249206804F0CBF820680368FC
:100610009B699847002004F0E7FC0E4B20460093AE
:100620000023019302930C490C4A0D4BFFF79EFFE8
:10063000431E5842584105B0F0BD00BF93EC00087E
:1006400096EC0008A1EC000826F00008A6EC0008D3
:1006500081EC0008C5EC0008F8240100A9EC0008B2
:10066000B6EC000870B5044600200E46154604F0AE
:10067000BBFC0023C4F8A430C4F8A0302069314684
:100680002A46237DFFF792FF003018BF0120207714
:1006900070BD7FB5089C0E460194099C15460093D9
:1006A00002944FF47A7132462B46FFF75FFF04B095
:1006B00070BD08B500210F2004F080FC40F2DC5032
:1006C00004F092FCBDE808400F20012104F076BC44
:1006D00070B504460D4600680C49164604F061F8F2
:1006E0002946206804F05DF831460A22206804F0AB
:1006F00014F92068064904F054F8206803689B69DF
:100700009847BDE87040002004F06EBC93EC0008F0
:1007100081EC000813B50446002004F065FC206954
:10072000227D0749FFF7D4FF00232377009301932D
:1007300020690449044AFFF7ACFF02B010BD00BFB6
:10074000D7EC000859EC000895F3000810B50446F2
:100750000948FFF75AFD68B9E3785BB1E0700749D3
:10076000074804F043F80648064904F03FF80248F9
:10077000FFF7D0FF10BD00BFD811002083EC0008A8
:1007800024130020E2EC0008F0B50F4687B00025E6
:10079000044626493A46FFF79BFF009501952046FF
:1007A0002349244A2B46FFF774FF01281AD120461B
:1007B000FFF790FD2046FFF78DFD21680A2203A870
:1007C00004F0D6F803A804F092FB064603A804F050
:1007D000F7F80095019520461749164A2B46FFF772
:1007E00058FFFEB904EB87033A46204613495E687A
:1007F000FFF76EFF124B002500931249124A134B6C
:1008000001952046FFF745FF2B46074600950195C9
:1008100020460949074AFFF73CFF7B1E5F425F41C4
:1008200037772E46304607B0F0BD00BF21ED0008F7
:1008300070EC000895F3000859EC00082EED000854
:100840005CED00083AED000847ED000851ED0008A6
:100850007FB50546002405EB84035E6846B1737FCF
:1008600033B1002373772846E1B2FFF78DFFF082A2
:100870000134052CEFD128680368DB68984748B13C
:10088000002200920192029228460A211346FFF7A5
:100890006DFEF0E704B070BDD0F88020D0F8843051
:1008A000D01A48BF8030704738B50446002004F0A5
:1008B0009BFB237F04F120058BB12846FFF7ECFF5B
:1008C00068B90A4BA26919688A1AB2F5FA7F03D986
:1008D0001B6801226277A3612069FFF7B9FF2846F0
:1008E000FFF7DAFFE38A184438BD00BF0C1400207C
:1008F00038B504460D460068094903F052FF294601
:10090000206803F04EFF2068064903F04AFF206884
:1009100003689B699847BDE83840002004F064BB39
:1009200093EC000881EC00082DE9FF41134B0546CC
:100930001F680E469846D8F800300024DB1BB342EF
:1009400017D228460E49FFF7D3FF00940194029472
:100950002846C8210B4A0C4BFFF708FE0446012C21
:100960004FF0640002D104F03FFB02E004F03CFBD6
:10097000E1E7204604B0BDE8F08100BF0C14002080
:1009800083EC000859EC000895F300081F4B2DE993
:10099000F3411F6805460E469846D8F80030DB1B29
:1009A000B3422CD2002428461949FFF7A1FF009436
:1009B000019428461749184A2346FFF76AFE012882
:1009C00004D04FF47A7004F00FFBE6E7134B1449A0
:1009D0008DE81800134A144B2846FFF75AFE00947E
:1009E00006460194284611490B4A2346FFF751FE5B
:1009F000012E06D003D3032E01D8022002E00020EE
:100A000000E0304602B0BDE8F08100BF0C140020C9
:100A100067ED00086EED000895F300088DED000805
:100A200077ED00087DED000885ED000859EC000821
:100A30007FB542F210710546FFF776FF58B30024E8
:100A400028462149FFF754FF009401940294284658
:100A500042F210711D4A1E4BFFF788FD01281AD182
:100A600028461C49FFF744FF00940194029428464D
:100A700042F21071154A164BFFF778FD01280AD192
:100A800040F6B83004F0B0FA284642F21071FFF791
:100A90004BFF064608B9002612E028460E49FFF72C
:100AA00027FF0094019428460849094A2346FFF786
:100AB000F0FD0128EFD1284642F21071FFF766FFE2
:100AC000304604B070BD00BF9AED000859EC000834
:100AD00095F30008A2ED0008ACED0008F7B5154F3E
:100AE000154E002405461549FFF702FF32462346FE
:100AF0003946009401942846FFF7CBFD284610495B
:100B0000FFF7F6FE32462346394600940194284604
:100B1000FFF7BFFD28460B49FFF7EAFE009401945A
:100B20002846394632462346FFF7B3FD012003B07D
:100B3000F0BD00BF59EC000895F30008B2ED0008C5
:100B4000BDED0008CDED00081FB54FF41651044669
:100B50001B4803F03DFD1B48FFF7ABFD40F6B830E6
:100B600004F042FA1849194803F04AFE1848FFF702
:100B70005FFF17481749FFF7BBFE0023009301935F
:100B8000029313484FF47A71134A144BFFF7EEFCAB
:100B9000012803D00D48124903F028FE4FF4FA60F3
:100BA00004F022FA0A48FFF799FF4FF47A7004F034
:100BB0001BFA0023A37063702370E37004B010BDB0
:100BC0005413002098120020DCED000824130020AC
:100BD00080120020F2ED000859EC000895F300089F
:100BE000FDED000870B5174986B000240546FFF7F3
:100BF0007FFE0094019428461349144A2346FFF7C8
:100C000048FD01281BD12846FFF764FB2846FFF763
:100C100061FB29682C2203A803F0AAFE03A804F0B4
:100C200066F986B203A803F0CBFE0094019428462F
:100C30000749064A2346FFF72CFD304600E02046D0
:100C400006B070BD0CEE000811EE000895F3000828
:100C500059EC000808B50248FFF7C4FF08BD00BF03
:100C60008012002070B5164986B000240546FFF7B3
:100C70003FFE0094019428461249134A2346FFF789
:100C800008FD012818BF042017D12846FFF722FBD2
:100C900029680A2203A803F06BFE03A804F027F9D1
:100CA000064603A803F08CFE0094019428460749E9
:100CB000054A2346FFF7EDFCF0B206B070BD00BF59
:100CC00019EE000820EE000895F3000859EC000822
:100CD0002DE9F0414478054674BB1949194803F0E1
:100CE00085FD1848184903F061FD184B1F689846A8
:100CF000D8F800204EF65F23D21B9A420BD8144836
:100D0000FFF7B0FF00F0FB06012E0FD04FF47A7012
:100D100004F06AF9ECE70F490A4803F067FD42F274
:100D2000107004F061F900236B7005E06E700548E7
:100D3000094903F05BFD34462046BDE8F08100BF61
:100D400083EC00082413002029EE00080C14002076
:100D50008012002040EE00085DEE00081FB50A4931
:100D60000446FFF7C5FD002300930193029320463C
:100D70004EF66021054A064BFFF7F8FB431E58422A
:100D8000584104B010BD00BF8AEE000859EC0008BD
:100D900095F3000830B5304985B000240546FFF7CB
:100DA000A7FD0094019428462C492D4A2346FFF7BD
:100DB00070FC012801D001204BE028462949FFF7AB
:100DC00097FD274A23462849009401942846FFF7B7
:100DD00060FC28462549FFF78BFD0094019402949E
:100DE00028462349234A1E4BFFF7C0FB012802D0A7
:100DF000214822492AE01C4A194B4FF47A71009489
:100E0000019402942846FFF7B1FB28461C49FFF7DE
:100E10006FFD0094019428461A49114A2346FFF7B2
:100E200038FC012802D0144817490FE0284617491A
:100E3000FFF75EFD0094019428461549084A2346B1
:100E4000FFF727FC0128B6D00B48124903F0CEFC6F
:100E5000204605B030BD00BF19EE000820EE0008A6
:100E600095F3000893EE000859EC0008AFEE000877
:100E7000084C0100BAEE000824130020C4EE00085C
:100E8000E4EE0008F1EE000802EF00081BEF000896
:100E900028EF000839EF000838B543780446ABB1B5
:100EA00083789BB90A490B4803F0A0FC0A48FFF776
:100EB00071FF054607482DB1084903F097FC01234F
:100EC000A37038BD064903F091FCA57038BD00BF82
:100ED00083EC0008241300208012002062EF000839
:100EE0009FEF000870B5144986B000240546FFF74F
:100EF000FFFC0094019428461049114A2346FFF74D
:100F0000C8FB012818BF632014D129682C2203A82C
:100F100003F02EFD03A803F0EAFF064603A803F042
:100F20004FFD0094019428460649054A2346FFF7E1
:100F3000B0FB304606B070BDDEEF0008E3EF0008FE
:100F400095F3000859EC000870B5002486B00D46F2
:100F5000064608461549FFF7CBFC00940194284645
:100F60001349144A2346FFF794FB012804D0304666
:100F7000114903F067FD16E003A829680A2203F06F
:100F8000F7FC0E490B4A2346009401942846FFF7CC
:100F900080FB03A803F081FF304603A903F001FDA5
:100FA00003A803F00DFD304606B070BDEBEF00085E
:100FB00081EC000895F3000883EC000859EC000868
:100FC000F8B504460D4600680E4916461F4603F064
:100FD000E8FB2946206803F0E4FB3146206803F073
:100FE000E0FB3946206803F0D7FB2068064903F090
:100FF000D8FB206803689B699847BDE8F84000204B
:1010000003F0F2BF93EC000881EC00082DE9F043F7
:1010100004468FB00025904689461F46FFF79EFE86
:1010200020469B49FFF764FC9A499B4A2B46009552
:1010300001952046FFF72DFB204698494A4622237A
:10104000FFF7BEFF0095019520469249924A2B4634
:10105000FFF71FFBB8F1000F0DD020469049424624
:101060002223FFF7ADFF00950195204689498A4A62
:101070002B46FFF70EFB6FB120468A493A462223E2
:10108000FFF79EFF00230093019320468149824A87
:10109000FFF7FFFA804E0025204683494A46222367
:1010A000FFF78EFF32462B467A4900950195204680
:1010B000FFF7EFFA20467D49FFF71AFC754A3346E1
:1010C0004EF660210095019502952046FFF74EFAF5
:1010D00020467749FFF70CFC6E4A33467549009568
:1010E000019502952046FFF741FA20467249FFF725
:1010F000FFFB009501950295204647F23051654A65
:101100003346FFF733FA012801D00025BCE0204622
:101110006A49FFF7EDFB00950195029520464EF6D2
:1011200060215C4A3346FFF721FA0128EDD12046C1
:101130006349FFF7DDFB009501952046554932468E
:101140002B46FFF7A6FA0128DFD120465D49FFF7BD
:10115000CFFB0095019520464E4932462B46FFF7BE
:1011600098FA0128D1D120465749FFF7C1FB0095D5
:1011700001952046474932462B46FFF78AFA012857
:10118000C3D15249206803F00CFB5149206803F099
:1011900008FB4946206803F004FB4E49206803F031
:1011A00000FB4146206803F0FCFA4A49206803F03E
:1011B000F8FA3946206803F0F4FA4749206803F04A
:1011C000F0FA4649206803F0ECFA206803689B694E
:1011D0009847284603F008FF0095019502952046A0
:1011E0004EF660212B4A3346FFF7C0F901288CD117
:1011F00020463B49FFF77CFB009501950295204670
:101200004EF66021234A3346FFF7B0F901287FF4F8
:101210007CAF20463349FFF76BFB334905A803F049
:1012200011FC0096019502950395204642F210713B
:1012300005AA184BFFF760F8012813D008A8274922
:1012400003F000FC0BA8284903F0FCFB05A808A943
:101250000BAA03F09DFD0BA803F0B2FB08A803F056
:10126000AFFB0EE020462149FFF742FB2B460095DD
:101270000195204607493246FFF70BFA431E5D42AF
:101280005D4105A803F09CFB28460FB0BDE8F08344
:1012900093EE000859EC000895F30008F0EF000801
:1012A00003F0000817F000082AF000083CF00008DE
:1012B00047F00008084C0100AFEE000852F00008AB
:1012C0005BF0000865F0000871F0000893EC00087E
:1012D0007DF0000826F00008B9F4000881EC000851
:1012E00085F000088CF0000883EC000896F00008F8
:1012F00038B50478054634BB43781BB3134914480A
:1013000003F074FA1349124803F050FA12491048D6
:1013100003F047FA11481049114A124BFFF776FEC5
:1013200004460B4844B9104903F060FA42F21070C9
:1013300003F05AFE2C7006E00C4903F057FA012323
:101340002B7000E00124204638BD00BF83EC00086C
:1013500024130020B3F000089DF300088012002041
:1013600058EC000894F30008C2F00008DFF0000811
:101370002DE9F04104460E46006812491F4690468A
:10138000069D03F00EFA3146206803F00AFA414642
:101390000A22206803F0C1FA3946206803F0FCF9FC
:1013A00029460A22206803F0C1FA2068064903F0A2
:1013B000F8F9206803689B699847BDE8F041002070
:1013C00003F012BE93EC000881EC0008F0B587B082
:1013D0000025044600920F4616461C491A462C2347
:1013E000FFF7C6FF0095019520461949194A2B467B
:1013F000FFF74FF9012802D04FF0FF3422E02068B8
:101400003946036832469B689847206803689B69A1
:1014100098470095019520460F490E4A2B46FFF745
:1014200038F90128E8D12046FEF754FF216803A8C7
:101430000A2203F09DFA03A803F059FD044603A80D
:1014400003F0BEFA204607B0F0BD00BFFFF0000871
:101450009DEF000895F3000809F1000870B50446F7
:1014600000200E46154603F0BFFD2069FFF7F0F996
:10147000206931462A46237DFFF7A8FF70BD000092
:1014800070B58D680E460135284604F0D3FE04463B
:101490000023304621462A4603F00BFC21462A460B
:1014A0000348FFF7DBFF204604F0CCFE012070BDAF
:1014B000D81100202DE9F04186B0002504460091A6
:1014C0002C232F491646FFF753FF00950195204620
:1014D0002C492D4A2B46FFF7DCF801284BD120463A
:1014E000FEF7F8FE2046FEF7F5FE21682C2203A841
:1014F00003F03EFA03A803F0FAFC074603A803F042
:101500005FFA04EB860603A821680A22D6F8048055
:1015100003F02EFA03A803F0EAFCA8F8160003A8CB
:1015200003F04EFABD421ED020680368DB6898477E
:1015300010B903F059FDF7E7206803681B69984765
:1015400073685FFA80FED3F8A010D3F8A4004A1C99
:1015500002F07F02824204D0194481F820E0C3F8EF
:10156000A0200135DEE700230093019320460749C0
:10157000054AFFF78EF8284606B0BDE8F08100BFA7
:1015800018F1000870EC000895F3000859EC000809
:101590002DE9F74F044600208946019203F024FD0F
:1015A0002069FFF755F90025019B9D4245D2019B1B
:1015B00004F1200B5846C5EB0308FFF76DF94045D1
:1015C00038BF8046B8F1000F24D04746CA46584677
:1015D000FFF762F910B9C1444544E5E7D4F8A430F7
:1015E000C3F18006B742B8BF3E468642A8BF064652
:1015F0000BEB030150463246009305F0FBF8009BCD
:10160000BF1B03EB060C0CF07F02C4F8A420B2440D
:10161000E1D0DCE72069FFF71BF9E38A6BB1D4F86E
:10162000A420D4F8A0302069D11A0029D8BF803175
:101630000139227DFFF73EFFB6E7284603B0BDE83B
:10164000F08F000073B500242A4D2B4E234622460E
:1016500021460094294803F05FF8314605F1100057
:101660002C706C70AC70EC706C60AC60EC6003F073
:10167000E9F9314605F11C0003F0E4F9314605F1C2
:10168000280003F0DFF905F134001D4903F0DAF911
:1016900005F14C0605F140001A4903F0D3F9214643
:1016A0003046102205F082F9174A05F1600392E8EE
:1016B0000300164A83E8030028461549EE6503F047
:1016C00093FD144A144B4FF47A711360134B9960D5
:1016D00013495C6019600121C3F8A440C3F8A0401D
:1016E0001A611975DC829C611C775C77936002B08B
:1016F00070BD00BF9812002083EC0008D0110020BC
:1017000025F100082CF1000850EC0008080000202A
:101710002F0200088012002054130020D81100204E
:1017200018EC00082DE9F043C5788FB00446002D71
:1017300040F0CD816B496C4803F058F86B4908A81C
:1017400003F080F908A90BA803F0BFF968490BA8BA
:1017500003F056FA0146644803F016F80BA803F0AC
:101760002FF908A803F02CF96248614942F22832A7
:10177000FEF778FFB0B960495B4803F037F842F2F2
:10178000107003F031FC6368E57001330A2B01D857
:1017900063609CE16560657025705848FFF7DEFA6C
:1017A000A57094E15649504803F020F8534E0123A8
:1017B000E370544965604C4803F018F83046FFF771
:1017C00091FB5149E06008A803F03CF908A90BA877
:1017D00003F07BF9E1680BA803F02EFA01464248BA
:1017E00002F0FAFF0BA803F0EBF808A803F0E8F802
:1017F00004F110080BA83146FFF7A6FB0BA94046E1
:1018000003F06DF90BA803F0DBF840490BA803F0D7
:1018100019F941460BA803F0E6F90146324802F0F7
:10182000DBFF0BA803F0CCF830463949FFF760F82E
:101830000095019530463749374A2B46FEF729FF78
:10184000012804F11C0704D008A8264903F0FAF87F
:1018500016E00BA831680A2203F08AF82F492E4AB5
:101860002B46009501953046FEF713FF0BA803F0B9
:1018700014FB08A80BA903F094F80BA803F0A0F838
:1018800008A9384603F02BF908A803F099F8244971
:101890000BA803F0D7F839460BA803F0A4F90146CA
:1018A000114802F099FF0BA803F08AF8A37804F11D
:1018B0002806002B6CD0DFF84490002548461949D3
:1018C000FFF716F800950195029548461649174A04
:1018D000114BFEF74BFE01282AD008A8014903F05E
:1018E000B1F83DE083EC00082413002033F1000838
:1018F0005EEC0008D811002049F100088012002099
:101900006AF100088AF10008E6EF00089FF100087C
:10191000A5F10008ACF1000895F3000859EC0008A7
:10192000B6F10008BFF10008084C0100C9F1000839
:101930000BA8D9F800100A2203F01AF86649674A82
:101940002B46009501954846FEF7A3FE0BA803F031
:10195000A4FA08A80BA903F024F80BA803F030F8A8
:1019600008A9304603F0BBF808A803F029F85C4941
:101970000BA803F067F831460BA803F034F90146D1
:10198000584802F029FF0BA803F01AF80023A370AF
:101990005549544802F02AFF05A800F079FC534A43
:1019A0000BA805A900F086FDE1680BA800F066FD14
:1019B0000BA800F043FC4E4A0BA805A900F07AFDE5
:1019C00041460BA800F072FD0BA800F037FC494A15
:1019D0000BA805A900F06EFD39460BA800F066FDC6
:1019E0000BA800F02BFC444A0BA805A900F062FDEF
:1019F00031460BA800F05AFD0BA800F01FFC3F4A2F
:101A00000BA805A900F056FD02210BA800F036FD39
:101A10000BA800F013FC3A4A0BA805A900F04AFDF8
:101A200004F134010BA800F041FD0BA800F006FC06
:101A3000344A0BA805A900F03DFD04F140010BA8B4
:101A400000F034FD0BA800F0F9FB2F49254802F007
:101A5000A8FE0BA805A900F035FC0BA9214802F04F
:101A6000D9FE0BA800F0EAFB05AA08A8274900F058
:101A7000C6FB27490BA802F0E5FF08A90BA803F055
:101A8000B2F80146174802F0A7FE0BA802F098FF33
:101A900008A90BA803F019F80BA92046FFF7F0FCE2
:101AA0000BA802F08DFF404603F0F7F9384603F02B
:101AB000F4F9304603F0F1F916490A4802F096FEAF
:101AC00008A802F07DFF05A800F0B8FB0125284614
:101AD0000FB0BDE8F08300BF59EC000895F3000893
:101AE000D2F1000824130020DBF10008DFEF00082A
:101AF000E3F10008A7F10008E8F10008ECF10008A4
:101B0000F2F10008F8F10008FEF1000808130020C7
:101B100011F200082DF20008F0B5044691B00D4610
:101B200008465A4903F09CF8002840F015822A46DE
:101B300001A8574900F05CFB0DA8554901AA00F027
:101B400065FB0DA8534903F08BF805460DA802F07C
:101B500037FF25B15049514802F048FEF9E150499C
:101B60000DA802F06FFF01AA0AA8494900F04EFB38
:101B70000AA90DA803F037F80146484802F02CFEE8
:101B80000AA802F01DFF0DA802F01AFF01A845499E
:101B900000F0C8FB80B14449A560404802F001FE56
:101BA0000DA801A93F4A00F085FC3C480DA902F0B0
:101BB00031FE0DA800F042FB01A83C4900F0B2FB49
:101BC000002800F016813A49344802F0EAFD374A0D
:101BD0000DA801A900F06EFC0DA9304802F01AFE14
:101BE0000DA800F02BFB01A9304A0DA800F062FC03
:101BF0000DA800F05EFBE0650DA800F01FFB0025BE
:101C0000E36D5B5D312B03D12A48E9B2002204E089
:101C1000302B05D12748E9B2012200F095FA20E0E7
:101C200025491E4802F0E2FD24490AA802F00AFFF5
:101C30000AA90DA802F049FF29460DA803F006F8ED
:101C40001F4902F0DDFFE36D595D02F0EBFF014635
:101C5000124802F0C1FD0DA802F0B2FE0AA802F07F
:101C6000AFFE0135022DCBD104F14C0738463021AF
:101C7000102204F09BFE2646002596F8600003F033
:101C800087F9F8B96319312224E000BF83EC00081A
:101C9000081300204CF2000856F20008241300201C
:101CA0008EF20008A7F20008ACF20008C1F20008AA
:101CB000C9F2000804130020E1F20008E8F200086D
:101CC000F2F2000896F8600003F062F9012803D1EF
:101CD0006319302283F84C200135022D06F10406E9
:101CE000CBD104A800F0D4FA04F110050DA89B494B
:101CF000FFF72AF90DA9284602F0F1FE0DA802F01F
:101D00005FFE974A0DA804A900F0D4FB29460DA850
:101D100000F0CCFB0DA800F091FA92490AA802F05D
:101D200091FE0AA90DA802F0D0FE29460DA802F0E6
:101D30005AFF01468C4802F04FFD0DA802F040FE0C
:101D40000AA802F03DFE394607A802F07BFE87494B
:101D50000AA802F077FE0AA90DA802F0B6FE07A9AC
:101D60000DA802F040FF01467F4802F035FD0DA8A6
:101D700002F026FE0AA802F023FE7D4A0DA804A95F
:101D800000F098FB07A90DA800F090FB0DA800F04B
:101D900055FA7849744802F004FD0DA804A900F032
:101DA00091FA0DA9704802F035FD0DA800F046FA31
:101DB00004AA0AA8704900F022FA70496A4802F0A1
:101DC000F0FC0AA9684802F007FD0AA90DA802F074
:101DD0007CFE0DA92046FFF753FB0DA802F0F0FD95
:101DE0000AA802F0EDFD07A802F0EAFD04A800F041
:101DF00025FA01A8624900F095FA002800F0A980B0
:101E000001A95F4A0DA800F055FB0DA800F048FAA3
:101E100005460DA800F012FA01A85A4900F082FA0E
:101E2000002800F0968001A9564A0DA800F042FB58
:101E30000DA800F035FA06460DA800F0FFF9012EB6
:101E400011D1022D0BD0FF2D04D0012D20D14E48F1
:101E500000211AE000214C480A4600F075F94A4872
:101E60003146002212E09EB9022D0CD0FF2D05D084
:101E7000012D0DD1444831462A4607E042483146FB
:101E8000012200F061F9404801210A4600F05CF9A6
:101E900007A800F0FDF904F110070DA82F49FFF77E
:101EA00053F80DA9384602F01AFE0DA802F088FD7D
:101EB0002B4A0DA807A900F0FDFA39460DA800F03D
:101EC000F5FA0DA800F0BAF92D4A0DA807A900F0FF
:101ED000F1FA29460DA800F0D1FA0DA800F0AEF9EC
:101EE000284A0DA807A900F0E5FA31460DA800F030
:101EF000C5FA0DA800F0A2F91E491B4802F051FCDA
:101F00000DA807A900F0DEF90DA9174802F082FC20
:101F10000DA800F093F907AA0AA8174900F06FF975
:101F20001649114802F03DFC0AA90F4802F054FC82
:101F30000AA90DA802F0C9FD0DA92046FFF7A0FAD5
:101F40000DA802F03DFD0AA802F03AFD07A800F036
:101F500075F901A800F072F911B0F0BD80120020EF
:101F6000E3F100089FF1000824130020F5F20008B7
:101F7000C1F20008FEF200080813002011F2000868
:101F800012F3000818F300080413002030B5204BAA
:101F900087B01C681D461F48FEF737F9002834D06B
:101FA0002B681B1BB3F5FA6F2FD21A48FEF77CFC87
:101FB0000028F0D00A226846164902F0D9FC1649DA
:101FC000164802F013FC1649144802F00FFC03A84F
:101FD000144902F037FD694603A802F004FE0146E9
:101FE0000E4802F0F9FB03A802F0EAFC694603A8D8
:101FF00002F06BFD03A90C48FFF78EFD03A802F069
:10200000DFFC684602F0DCFCC5E707B030BD00BF6E
:102010000C140020D811002083EC000824130020A9
:102020001CF3000843F30008981200201E4B30B543
:102030001A681E4C22F0E06242F0007287B01A600B
:10204000204600F06DF82046194C1A4D00F0A8F813
:102050004FF41651204602F0BBFA2846FEF774FDF5
:10206000FEF786F8FEF79EF82846FEF7F3FD124DC0
:1020700012492860684602F0E5FC694603A802F0B0
:1020800024FD296803A802F0E1FD0D4902F0B8FD26
:102090000146204602F0A0FB03A802F091FC68462E
:1020A00002F08EFC07B030BD040001400413002094
:1020B000241300209812002000130020A3F300082E
:1020C000B4F3000808B51148FEF702FE10B9104835
:1020D000104905E00D48FFF70BF928B90C480E49E7
:1020E000BDE8084002F082BB0848FEF7D5FE07486D
:1020F000FFF718FB10B906480849F1E70348FFF756
:1021000045FFBDE808400148FEF720BB98120020BB
:1021100024130020B7F30008D7F30008F7F30008F2
:1021200008B50320002102F0F1FE0420002102F096
:10213000EDFE0F20002102F0E9FEBDE80840052079
:10214000002102F0E3BE000010B5144611B10129D0
:102150000AD013E00320114602F030FF0A480CB108
:102160000A490DE00A490BE00420114602F026FF5F
:1021700005480CB1074903E0074901E00248074957
:10218000BDE8104002F032BB241300201BF400080D
:1021900026F4000830F400083BF4000845F4000879
:1021A00010B50A4C0520012102F008FF204600214D
:1021B0000122FFF7C9FF012120460A46FFF7C4FFAD
:1021C000BDE810400F20012102F0F8BE04130020EA
:1021D000014B0360704700BF68F4000810B5034B63
:1021E0000446036002F090FE204610BD68F400082B
:1021F00010B51146044600F0A5F8204610BD10B5F4
:102200001146044600F0ACF8204610BD10B511464A
:10221000044600F0C3F8204610BD00000348044BFC
:102220000449054A036002F0DFBF00BF0813002025
:1022300068F40008D12100080800002038B5064BDA
:1022400004460360406820B1A56815B900F0D6FDCA
:102250006560204638BD00BF78F4000810B504461C
:10226000FFF7ECFF204602F04FFE204610BD40680D
:1022700038B50D4658B100F0DBFF0446214628462C
:1022800002F08FFA0546204601F0E2F8284638BDF4
:10229000024A0260002242608260704778F40008BF
:1022A00010B50446406801F0B6F808B16368586993
:1022B00010BD10B50446406801F0B4F808B1636879
:1022C000186910BDB0B5044600AF48680D4601F06E
:1022D000B7F820B9124B60602360A0601CE068680A
:1022E00000F0A9FF83000A3323F00703ADEB030DD1
:1022F0006B6801469A68684600238B4205DA156AC6
:1023000040F8235012680133F7E701F047F8044B17
:10231000606023600023A3602046BD46B0BD00BFBF
:1023200078F4000838B5044640680D4601F088F896
:1023300030B16068294600F086FF003018BF0120E8
:1023400038BD000010B50446086800F06DFF034B6F
:10235000606023600023A360204610BD78F400086D
:1023600030B5496885B0044611B902F06BFB11E045
:10237000084600F05DFF0546294601A802F062FB11
:10238000284601F065F8204601A902F00AFB01A8E1
:1023900002F016FB204605B030BD000038B54D6890
:1023A0000446002D31D0284601F021F800282CD118
:1023B000284601F023F810B12046174927E02846A7
:1023C00001F023F810B12046144920E0284601F01E
:1023D00022F810B12046124919E0284601F022F8EF
:1023E00010B120460F4912E0284601F022F810B142
:1023F00020460D490BE0284601F022F810B1204696
:102400000A4904E020460A4901E00A49204602F050
:1024100019FB204638BD00BF88F4000890F400087E
:1024200095F400089CF40008A3F40008A9F400083F
:10243000B0F400084CF2000838B545680446416025
:10244000DDB18068A0B100F0FBFF30B1A068296A5F
:102450006268BDE8384001F029B8A06800F0E9FFE3
:1024600058B1A06829466268BDE8384000F0EEBE69
:102470002846BDE8384000F0C1BC38BD10B5044660
:10248000084603F009F800F023FF01462046BDE8A6
:102490001040FFF7D1BF10B50446084600F04CFFCE
:1024A00001462046BDE81040FFF7C6BF0968FFF7A8
:1024B000F2BF000070B5054648680C46164600F0AD
:1024C000BFFF28B900F05EFF01462046FFF7B4FFCA
:1024D0006068314600F0B7FE18B96068314600F018
:1024E000E3FE6368024A68602A60AB60284670BDFC
:1024F00078F400080448054B05490360054A0023A9
:102500004360836002F070BE0C13002078F4000872
:102510003D2200080800002010B500221346815C0F
:10252000A1F13004092C01D8303B0AE0A1F14104AB
:10253000052C01D8373B04E0A1F16104052C0AD831
:10254000573B032A0B4402F1010218BF1B01042A66
:10255000E5D1184610BD002010BD2DE9F0470B68ED
:102560008A688146551C9E189A5C8846222A1D441A
:1025700040F0CA804C682F460022F91AA14280F030
:10258000C3803978222909D05C2905D10137F91A8D
:10259000A14280F0B98001320137EEE7C2F10102B9
:1025A000B81BD8F81030104498478246002800F035
:1025B000AB800446BD4280F08B802B785C2B03D02F
:1025C000237001350134F5E77A1B002A40F390802F
:1025D0006B78662B19D00CD82F2B17D002D8222B52
:1025E00014D085E05C2B11D0622B40F08180082351
:1025F0000CE0722B0ED003D86E2B79D10A2305E0A4
:10260000742B09D0752B09D072E00C232370013490
:1026100002235BE00D23F9E70923F7E7052A67DDCD
:10262000A81CFFF779FFA0F55C43B3F5806F064661
:102630005ED3A0F55843B3F5806F1CD2AB1DFB1AD7
:10264000052B55DDAB795C2B52D1EB79752B4FD136
:1026500005F10800FFF760FFA0F55C43B3F5806F5C
:1026600046D2C0F30900C6F3090640EA862606F5FD
:1026700080360C2306E07F284FF006030BD9B0F517
:10268000006F0BD3B6F5803F0BD3B6F5881F2FD262
:10269000F021042207E00021012204E0C0210222EF
:1026A00001E0E0210322501EC0B240B106F03F0C11
:1026B0006CF07F0C04F800C0B6090138F4E7012A79
:1026C00014BF0E4306F07F06267014441D4471E7C4
:1026D000002323701023C9F80C30D8F80030C9F853
:1026E00010A0FB1A0133C8F808300120BDE8F087BC
:1026F000D8F8143050469847D8F80030ED1AC8F88A
:1027000008500020BDE8F087002DF5D1F9E710B59D
:1027100090B102687AB1416883688B4202D38B42E0
:1027200006D010BDD45C202CF9D801338360F3E7C8
:10273000013B836010BD104610BD61B160B183687C
:102740000BB9816005E01A680AB11346FBE719600E
:102750004B60012070470846704738B5044638B1D1
:10276000006828B1A568284404F0B4FD2844A0609E
:1027700038BD70B5044600283ED0006800283DD022
:10278000636813B1A2689A4237D2002935DBA26888
:10279000561C0E449E4201D8104470BD2369002B84
:1027A0002BD1B6F1804F06D3002EA8BF6FF00046A4
:1027B00002DA184670BD7600236A23B13146984785
:1027C0000546A0B904E0A36930469847054630B9EC
:1027D0002068E369984765602560284670BDA26857
:1027E0002168013204F006F8E36920689847A06880
:1027F00084E86000284470BD70BD002070BD0000FA
:102800002DE9F8430746084611B90020BDE8F883D2
:1028100017B13A4600250DE00321FFF7AAFF002873
:10282000F3D0384904F0F8FC68E00D2B0DD80C2BE0
:1028300006D30135904612F8013B002BF5D10CE090
:10284000A3F10801022904D8F3E7222BF1D05C2B75
:10285000EFD01F2B98BF0535ECE7C7EB0808A8445D
:1028600008F10301FFF785FF06460028CDD04FF0A1
:102870002209013086F8009045B94644394642465F
:1028800003F0B8FF86F80190B57037E0044617F8FA
:10289000013B7BB31F2B06D9222B04D05C2B02D02B
:1028A0002370204624E05C23237017F8012C601C61
:1028B0000C2A12D007D8092A13D00A2A0FD0082AC6
:1028C00012D162230EE0222A05D05C2A03D00D2A01
:1028D0000AD1722306E062700AE0662302E06E23EA
:1028E00000E07423637003E0074904F0A7FA601D59
:1028F000441CCCE7464422227270B3700120BDE82C
:10290000F88300BFB8F40008BBF400082DE9F843D1
:102910000D4600284CD000293FD084685AB9254B79
:102920001E680EE0216A00293DD0284604F056FBBF
:10293000002838D02468002CF4D131E0206A18B97E
:102940002468002CFAD12BE085422CD000216B5C4E
:10295000F21892F801C0425C0CF0030CB7187F78B3
:10296000BCF1010F07F003070CBF03F120099946E2
:10297000012F0CBF02F120089046C14503D101315F
:10298000002BE4D10FE0BCF1010F08BF2033012F71
:1029900008BF20329342D3D105E00846BDE8F88352
:1029A0002046BDE8F883236A002B14BF2046002090
:1029B000BDE8F8830409002010B503462820984795
:1029C000044618B10021282203F0F0FF204610BD74
:1029D0002DE9F0410E468AB00546002800F08081BE
:1029E000002900F07D81047B082C39D007DC022C03
:1029F0002BD0042C15D0012C40F072811AE0202C31
:102A000000F08B8007DC102C40F06A810069FFF732
:102A1000F7FE044665E1402C00F0C380802C69D0AD
:102A20005EE108460521FFF7A4FE002800F058816A
:102A3000A04912E008460621FFF79BFE002800F09F
:102A40004F819D4904F0E8FB4BE108460521FFF763
:102A500090FE002800F04481984904F0DDFB3DE140
:102A6000D0E90645002200232046294602F07AFDDF
:102A70000022002302F0DEFF03AF30B938468D4953
:102A800004F0CAFB4FF004081FE08D4922462B4694
:102A9000384604F0D3F98B4980466A46384604F03C
:102AA000F3F9012806D1DDE9000122462B4602F0A8
:102AB000C1FF30B93846844922462B4604F0BEF99E
:102AC0008046B8F1190F00F20B81304608F1010180
:102AD000FFF74FFE002800F003810023434503D099
:102AE000FA5CC2540133F9E70022C254B2681344BD
:102AF000B360F3E00069002800F0F28004F0EAFB24
:102B0000441C21463046FFF734FE002800F0E880E0
:102B10002969224603F06EFEE0E084680846012140
:102B2000FFF727FE002800F0DB805B230370B3680B
:102B30000133B360F3680133F3603CB320463146A0
:102B4000FFF746FF002800F0CB803046FFF705FE78
:102B50002368CBB173693046002B0CBF01250225D9
:102B6000691CFFF706FE002800F0BA802C230370D2
:102B700073690BB9431C02E02022831C42700022BF
:102B80001A70B3681D44B5602468D6E73046022148
:102B9000FFF7EFFD002800F0A3805D230370447071
:102BA00099E04B698468002B0CBF0125022508467B
:102BB000691CFFF7DEFD002800F092807B23037084
:102BC000F3680133F36073690BB10A234370B36890
:102BD0001D44B5607369002C56D083B13046F1684E
:102BE000FFF7C7FD00287BD00023F268934203D291
:102BF0000922C2540133F8E7B3681A44B260206A6C
:102C00003146FFF7FDFD00286AD03046FFF7A5FDED
:102C100073693046002B0CBF012502252946FFF7BA
:102C2000A8FD00285CD03A23037073690BB1092317
:102C30004370B36820461D44B5603146FFF7C8FEB7
:102C400000284DD03046FFF788FD756923680035B0
:102C500018BF0125002B18BF01353046691CFFF74E
:102C600088FD00283CD0236813B12C230370013069
:102C7000736913B10A230370013000230370B36832
:102C800024681D44B560A5E713B1F168013100E087
:102C900002213046FFF76DFD10B37369BBB10346E7
:102CA000F268191A013A914210D2092203F8012B55
:102CB000F6E700BF90F40008C1F40008C7F400086C
:102CC000CCF40008D3F40008D7F4000818467D239C
:102CD000037000234370F368013BF360012400E0BC
:102CE000002420460AB0BDE8F08100BF70B506465A
:102CF00068B104F0EFFA074B451C1B68284698475B
:102D0000044628B131462A4603F074FD00E070BD48
:102D1000204670BD0C000020F8B514460646F8B1F8
:102D2000F1B1EAB123B1D7680D4647F4007707E067
:102D30000846FFF7DBFF054690B1E76827F4007708
:102D4000E3689B0504D4206A10B1064B5B68984782
:102D50002562E76030462146BDE8F840FFF7EDBC4C
:102D60000020F8BD0C000020F0B5234C8BB00D46C0
:102D700024220021064601A803F018FE23684FF420
:102D8000807098474FF48072034606950AAD019013
:102D90000292274694E8070005E9070023B330466E
:102DA00001A9FFF715FEF8B101A8FFF7D6FCA56849
:102DB000039925B101980131A847D0B914E02368DF
:102DC000481C9847064678B1039A029B01329A4202
:102DD00028BF1A46019903F00DFD039BF554019895
:102DE00063689847304604E0019808B17B689847CB
:102DF00000200BB0F0BD00BF0C00002070B50446F1
:102E0000E4B1E3682668DA0503D4A06808B1FFF7E7
:102E1000F5FFE3680A4D13F4807F03D1206908B100
:102E20006B689847E3689B0503D4206A08B16B6818
:102E3000984720466B6898473446E1E770BD00BF6D
:102E40000C000020000000002DE9F047074692B07A
:102E50000E46002900F06E810D68002D00F06C8197
:102E60008C68D1F8048004F10409C1450AD82819F6
:102E7000A349042204F05EFA20B90423FB60C6F8DB
:102E800008907DE004F1050AC2450AD828199D4939
:102E9000052204F04FFA20B90120F860C6F808A016
:102EA0004DE1C1450CD828199749042204F042FA93
:102EB00030B902230120FB607861C6F808903EE13A
:102EC000444580F03B812B5D2919222B04D13846E3
:102ED0003146FFF742FB32E12D2B03D0A3F1300244
:102EE000092A51D800220192C4EB0804A2420DF134
:102EF000080813D08B5C392B07D8302B09D22D2B27
:102F000007D02E2B05D02B2B02E0452B01D0652BB3
:102F100004D108F8023001323F2AE7D112AB1A443B
:102F20004FF0000A404601A902F840AC05F0A0FCB1
:102F3000DDF804900446C1450D4623D06EA3D3E9C5
:102F40000023C7E9064502F093FD10B16FF000437E
:102F500008E02046294600226C4B02F07FFD18B1A4
:102F60004FF000437B6104E02046294602F094FDC7
:102F700078610823FB60B368C8EB09084344B36079
:102F80000120DCE05046DAE05B2B50D1F368B3F56A
:102F90007A7F80F0D3800133F3602B5D5B2B40F0B0
:102FA000CD800134B4603046FFF7B1FBB36872687E
:102FB00093425BD23268D25C5D2A2BD0013B4FF04A
:102FC0000008B36044463069FFF7F6FC054648B395
:102FD00024B1C8F80000C0F8048000E00446B368DB
:102FE00030460133B360FFF792FB28463146FFF7C6
:102FF0002BFFD0B13046FFF78AFBB368726893426B
:1030000013D23268D35C2C2B02D05D2B0DD102E0A1
:10301000A846D8E70024F368013BF3602023FB6057
:10302000BC607FE0002C00F0898020467FE07B2B95
:1030300040F08480F368B3F57A7F7FD20133F36088
:103040002B5D7B2B7AD10134B4603046FFF75FFBF8
:10305000B3687268934209D23268D25C7D2A5AD032
:10306000013B4FF00008B36045463AE0013BB360D6
:1030700064E0002D3CD0C8F80000C0F80480B368BC
:1030800030460133B360FFF742FB20463146FFF77D
:1030900064FA00284AD03046FFF739FB236972688A
:1030A000236200232361B36893423FD23268D25C2B
:1030B0003A2A3BD10133B3603046FFF728FB204664
:1030C0003146FFF7C1FE002830D03046FFF71FFB26
:1030D000B3687268934229D23268D35C2C2B17D123
:1030E000A0463069FFF768FC04460028C1D11CE007
:1030F0000546C4E7AFF300800000C0FFFFFFDF41DB
:1031000090F40008C1F40008C7F400080000E0C112
:103110007D2B0BD100E00025F368013BF3604023D9
:10312000FB60BD60B368013329E73DB12846FFF776
:1031300065FE03E0084602E0284600E0002012B0E9
:10314000BDE8F087AFF300802DE9F04389B0044675
:103150000E46914601A800211C2203F027FC2F4BAC
:1031600000271F605F609846002C53D020460194D2
:1031700004F0B0F82A4B0130029093E8070008AB46
:1031800003E90700FFF718FC0546002831D0019835
:1031900078B1039B53B9029B042B09D9214903221F
:1031A00004F0C8F820B90323039301E0384600E097
:1031B00001A8FFF7ACFA01462846FFF745FEA8B183
:1031C000B9F1000F05D17EB1039B019A134433601E
:1031D0000AE001A8FFF79BFA039B029A934205D2EB
:1031E000019AD35C13B9EEE7284614E02846FFF7AE
:1031F00005FE039B029A934203D30AB1531E00E0DB
:1032000013460EB1E2183260C8F80040C8F8043026
:10321000002000E0204609B0BDE8F083181300202C
:103220000C000020E7F4000800210A46FFF78CBFDD
:103230000021FFF799BD28B18368002013B1013048
:103240001B68FBE770470122FFF760BB10B5E8B1D0
:10325000BAB1C1B18A4218D00B684C68136054608F
:1032600003B15A60536803B11A6083688B424FF010
:10327000000308BF82600B604B600846FFF7BEFD8D
:1032800003E0104610BD084610BD012010BD00002F
:1032900008B5044B1868FFF78FFB08B10423C3601F
:1032A00008BD00BF0C00002070B505460E46FFF7B4
:1032B000EFFF04463146284622460023FFF72CFD47
:1032C000054620461DB9FFF799FD284670BD70BD23
:1032D000174B70B5044618680D46FFF76DFB0646A0
:1032E000F0B10823C360C0E906450FA3D3E900236A
:1032F0002046294602F0BCFB10B16FF0004308E005
:103300002046294600220B4B02F0A8FB18B14FF0D3
:103310000043736104E02046294602F0BDFB706162
:10332000304670BDAFF300800000C0FFFFFFDF41FB
:103330000C0000200000E0C138B50B4B05461868B2
:10334000FFF73AFB044660B11023C3602846FFF73D
:10335000CDFC05462061204625B9FFF74FFD2846E4
:1033600038BD38BD38BD00BF0C00002008B5044B87
:103370001868FFF721FB08B12023C36008BD00BF18
:103380000C00002008B5044B1868FFF715FB08B1C6
:103390004023C36008BD00BF0C0000202DE9F843A6
:1033A000B1F10009804602DA0020BDE8F883002868
:1033B000FAD0FFF7DBFF06460028F5D000273D4690
:1033C0004D4511D258F82500FFF7B6FF044618B94D
:1033D0003046FFF713FDE7E70DB9B06001E0386054
:1033E000476001352746EBE73046BDE8F88320B15A
:1033F000007BD0F1010038BF0020704720B1C068C9
:1034000010F0030018BF0120704718B1007B031FA4
:1034100058425841704720B1007BB0F10803584230
:103420005841704720B1007BB0F110035842584119
:10343000704720B1007BB0F12003584258417047DB
:1034400020B1007BB0F14003584258417047000062
:1034500008B5024B5B68984708BD00BF0C00002010
:10346000F8B506460D461F461446DAB1E1B1D368F9
:103470009B0503D4106A08B1FFF7EAFF2846FFF75F
:1034800035FCE368206223F40073E36029463A4682
:103490003046FFF73BFA224601463046FFF7D6FE9C
:1034A0000120F8BD1046F8BD0846F8BD0123FFF71E
:1034B000D7BF122938B50546144608460BD0132944
:1034C00010D0112916D100F06DF80CB120460FE094
:1034D00047F6FF700CE000F065F8002CF6D149F6D5
:1034E0003F4005E000F05EF8002CEFD14FF22340A2
:1034F00000F0E0F8284638BD13B50022044601A8C4
:10350000FFF7D7FF204602B010BD0000054B1B6837
:103510001B685B0103F1844394331A68002AFCD0D2
:10352000704700BF18000020054B1B681B685B013B
:1035300003F184438C331A68002AFCD0704700BF23
:103540001800002008B5FFF7E1FF054B00221B68BB
:103550001B685B0103F18443C3F88C2008BD00BFE6
:103560001800002008B5FFF7D1FF054B01221B68AA
:103570001B685B0103F18443C3F8902008BD00BFC2
:103580001800002008B5FFF7C1FF054B00221B689B
:103590001B685B0103F18443C3F8902008BD00BFA2
:1035A0001800002010B5044600F0BDFA00F0C8FA7B
:1035B000204A112C136A23F44073136213460BD074
:1035C00005D8C4B1102C2AD10023136227E0122C95
:1035D00011D0132C1AD022E0174A002111600121CA
:1035E00042F8081C154A126812F0FF0FFAD01A6A46
:1035F00042F4807212E0124A01211160114A1268ED
:10360000002AFBD01A6A42F4007207E00E4A1268E0
:1036100012F0FF0FFAD01A6A42F440721A620B4B92
:1036200001221A60FFF78EFFFFF77EFFBDE8104012
:10363000FFF76CBF001002400804424204044242FB
:103640008004424284044242440042423C044242DA
:10365000F8B5104B1E6835682B686F681F4017F06F
:10366000010403D074680CB1A0470124BA0704D543
:10367000B36813B1984744F002047B0704D5F3689C
:1036800013B1984744F004046B6823EA04046C60A7
:10369000F8BD00BF1800002008B5044B1B681B696B
:1036A0001BB19847024B01221A6008BD1800002088
:1036B000C482204210B50446FFF744FFFFF734FFF1
:1036C000FFF724FFFFF74EFF064B220C1B68A4B246
:1036D0001B689A60DC60FFF755FFBDE81040FFF7FC
:1036E00015BF00BF1800002001498D460149084759
:1036F00000500020F936000808B5124B124A19682C
:10370000914201D0002301E0104B07E01048D4188B
:103710008442F9D2C858D0500433F7E70D4A934297
:1037200003D2002243F8042BF8E702F051FD0020F9
:103730000146024601F0E2FB074B0BB102F038FDF7
:10374000FEE700BFE4FB000800000020A8110020F5
:10375000A811002018140020B161000808B50D4B15
:103760001A680AB90C4A1A601B680C4AD21A8242BB
:1037700004DB09494242591A914206DA02F012FD6D
:103780000C2303604FF0FF3008BD024A184410605C
:10379000184608BD2013002018140020103C0128F2
:1037A000FEE770470B4B10B5196809220A230A4837
:1037B00000F0C4FE094B022219680948032300F0F7
:1037C000BDFEBDE81040074B074819681A221B23AD
:1037D00000F0B4BE3C010020241300204001002072
:1037E0003C130020440100205413002010B504466F
:1037F00000F07EF9034B20461978BDE8104000F038
:1038000013B900BF34000020F8B50446056800F085
:1038100009FB22680023510101F184410B608021E2
:1038200029600121A9622B61EB606379696113B1A1
:103830008B4203D02BE04FF400436B644FF6FF73D1
:10384000D36200256E1CF7B22046394600F0F4FA28
:10385000D0B1236848F6FF7103F1340242F8251015
:1038600018336D1017F0010F53F8252014BF6FF0B7
:10387000FF016FF47F4101EA020214BF68214FF497
:10388000D0410A4343F82520042E3546DAD1216879
:1038900001224B01490103F1844301F18441C3F842
:1038A00080220A60F8BD000038B5274B274C1A6803
:1038B000022042F010021A6000F048F900250020B2
:1038C00000F0DAF965602368182023F400232360F0
:1038D00000F0DFF9102000F0DCF900F043F8A560FB
:1038E000102000F0C9F9102000F0E1F90028FAD00A
:1038F00000F039F8164800F0E7F9182000F0BCF99C
:10390000182000F0D4F90028FAD0022000F0A4F921
:1039100000214FF0006000F081F90E4800F03AFA03
:1039200000F038F80C4B188800F0D0F80B4800F085
:10393000D1F80B4800F062FA00F02EF800F02DF8F4
:10394000FFF72FFF38BD00BF0020024000100240EB
:10395000380000203F19010036000020ED37000834
:1039600009380008704708B50020014600F0EAF960
:1039700001204FF4806100F0E5F90021022000F001
:10398000E1F92D2000F0EEF9BDE808400320002108
:1039900000F0D8B900F0E4B8704700F021B9000099
:1039A000012007E0022005E0032003E0042001E0FD
:1039B0000520FFE70D4A0121116072B60C4A002173
:1039C0001160074902B4084902B486B005498E4621
:1039D000704700BFAFF30080AFF30080AFF300800B
:1039E00000000061F9FFFFFF5944000814ED00E0FA
:1039F00010E000E0AFF30080AFF30080AFF3008091
:103A0000FEE710B50446007900F06AF92079BDE8B8
:103A1000104000F07DB903689A6822F4602242F4F5
:103A20008012114399607047002370B51A461C46F6
:103A3000072B4FEA430503DCEE1801FA06F6344380
:103A40001D4401FA05F501330A2B42EA0502EFD1C4
:103A50000368DC601A6170BD38B5124D2A681368BE
:103A60001C68A10706D5196821F002011960936846
:103A700003B19847620708D52B681A681B6911685B
:103A800021F00401116003B19847E30708D52B68C2
:103A90001A68DB68116821F00101116003B19847D1
:103AA00038BD00BF64000020036801225B0103F100
:103AB000844303F58673191F1A6018680028FCD127
:103AC00043F8042C0B68002BFCD1704701460420FE
:103AD00000F038B9044B10B504461868A047034BF2
:103AE0001868A04710BD00BF6400002060000020DF
:103AF00010B50446FFF785FF20464FF46021FFF71D
:103B00008AFF2368012103F1404308335A015B0116
:103B100002F1844203F18443116520461960BDE837
:103B20001040FFF7C1BF08B5142000F0D9F80420F9
:103B300000F0D6F8BDE80840042000F0E9B8000025
:103B4000014B01221A60704720000E42034B1A6895
:103B500022F0070210431860704700BF00200240A7
:103B600008B5074801F0B3FA064801F0B0FA064874
:103B700001F0ADFABDE80840044801F0A8BA00BF62
:103B800068000020700000207800002080000020E5
:103B900070B501F00704A4000F25A5400368C8080C
:103BA00053F82060092A26EA050514BF16460826A0
:103BB00006FA04F4082A44EA050443F8204006D132
:103BC000012000FA01F1DA6822EA010106E0092A7F
:103BD00005D1012000FA01F1DA681143D96070BD06
:103BE00008B5032000F07CF8BDE80840032000F091
:103BF0008FB8000000284FEA011105DA064B00F0EB
:103C00000F00C9B21954704700F16040C9B200F505
:103C1000614080F80013704714ED00E021F060412E
:103C200038B521F07F01084B0843986000241D46F9
:103C300060B20F210134FFF7DDFF2B2CF8D1F02308
:103C400085F8233038BD00BF00ED00E0014B13F8CC
:103C50001000704720F70008064B5A6822F0030254
:103C600002435A6080005A6802F00C028242FAD184
:103C7000704700BF00100240030A0121C0B201FAE0
:103C800000F003F1804303F504331A681043186011
:103C90007047030A0121C0B201FA00F003F180432A
:103CA00003F504331A6822EA000018607047030A1B
:103CB0000222C0B202FA00F003F1804303F504339C
:103CC0001B68184070470000044B05C8596812680B
:103CD00021F4741102430A435A60704700100240F5
:103CE00010B50446FFF7B2FF074B53F82020074BEF
:103CF00003EB4404637803EBC2039B0003F18443AA
:103D000001221A6010BD00BF8800002020F70008C3
:103D100010B50446FFF79AFF084B53F82020084BD4
:103D200003EB4404637803EBC2039B0003F1844379
:103D300001221A6000221A6010BD00BF940000200A
:103D400020F7000810B5054B054C5A6854F82000C0
:103D500022EA00021143596010BD00BF001002406A
:103D60007CF7000810B50446FFF770FF074B53F8C7
:103D70002020074B03EB4404637803EBC2039B0052
:103D800003F1844300221A6010BD00BF9C00002094
:103D900020F70008024B072258601A60704700BFE6
:103DA00010E000E008B5044B1A6801321A60034BBA
:103DB0001B6803B1984708BD0C1400206C13002049
:103DC00011F0010F70B542EA03030CBF082500256E
:103DD00003FA05F5006801F1FF3400F11800C4F39F
:103DE000400450F8241014BF6FF0FF066FF47F46B4
:103DF0003140294340F8241070BD000010B504463E
:103E00000448A0470448A0470448A0470448A047E6
:103E100010BD00BFF000002018010020A800002005
:103E2000CC00002010B504460079FFF759FF207937
:103E3000BDE81040FFF76CBF03791E2B10D9212B72
:103E40000ED0202B0ED9222B01D0252B04D10229F4
:103E50008CBF0020012070474B1E584258417047CC
:103E600001207047002070478B1C40F82320036816
:103E7000012203F140430C3301EBC3039B0003F128
:103E800084431A6042790379FAB9B3F11A025342B2
:103E90005341072945D8DFE801F004090909090E53
:103EA0000E13002B0CBF2C23192331E0002B0CBF69
:103EB0002E231B232CE0002B0CBF2D231A2327E0DD
:103EC000002B0CBF2B23182322E01B3B0C2B28D8E4
:103ED000DFE803F0071D090B0D0F27111315171944
:103EE0001B001C2314E01E2312E0322310E03623B3
:103EF0000EE037230CE018230AE0192308E01A2308
:103F000006E02B2304E02C2302E02D2300E01D23F8
:103F10005909012203F01F0302FA03F3014A42F890
:103F20002130704700E100E00368002203F14043C4
:103F30000C3301EBC3039B0003F1844302311A608D
:103F400040F82120704738B543790446022B0D46CE
:103F50003BD0032A39D8DFE802F002111F2DFFF70A
:103F6000E3FF2368013D03F140432033DB0003EB13
:103F700085039B0003F18443002225E003680022AF
:103F800003F140430C3301EBC3039B0003F1844373
:103F90001A606022082301E010220023FFF710FFBF
:103FA0002368013D03F140432033DB0003EB85032D
:103FB0009B0006E003684FF2F1229A6103229A60A7
:103FC0005B0103F1844301221A6038BD10B5074B31
:103FD0001C68E16822690A40120606D55B6A23B1B3
:103FE0009847236923F08003236110BDF00000206F
:103FF00010B5074B1C68E16822690A40D20706D554
:104000009B6823B19847236923F00103236110BD06
:10401000F0000020F8B50C4F3D68EB682E691E409B
:1040200016F0400403D03C6A0CB1A0474024B3060C
:1040300004D5FB6913B1984744F020042B6923EAA7
:1040400004042C61F8BD00BFF0000020F8B5134F48
:104050003E68F36835691D4015F0100403D0BC6953
:104060000CB1A0471024290704D57B6913B19847E8
:1040700044F008046A0704D53B6913B1984744F03B
:104080000404AB0704D5FB6813B1984744F002045D
:10409000336923EA04043461F8BD00BFF000002056
:1040A000F8B51A4E3768FB683D691D4015F04004AD
:1040B00003D0346A0CB1A0474024EB0604D5B369A1
:1040C00013B1984744F01004280704D5736913B15D
:1040D000984744F00804690704D5336913B1984739
:1040E00044F00404AA0704D5F36813B1984744F0D8
:1040F0000204EB0704D5B36813B1984744F00104F8
:104100003B6923EA04043C61F8BD00BF18010020AC
:10411000F8B51A4E3768FB683D691D4015F040043C
:1041200003D0346A0CB1A0474024EB0604D5B36930
:1041300013B1984744F01004280704D5736913B1EC
:10414000984744F00804690704D5336913B19847C8
:1041500044F00404AA0704D5F36813B1984744F067
:104160000204EB0704D5B36813B1984744F0010487
:104170003B6923EA04043C61F8BD00BFA8000020AD
:10418000F8B51A4E3768FB683D691D4015F04004CC
:1041900003D0346A0CB1A0474024EB0604D5B369C0
:1041A00013B1984744F01004280704D5736913B17C
:1041B000984744F00804690704D5336913B1984758
:1041C00044F00404AA0704D5F36813B1984744F0F7
:1041D0000204EB0704D5B36813B1984744F0010417
:1041E0003B6923EA04043C61F8BD00BFCC00002019
:1041F00081880268034689B2505C99881A8989B21D
:1042000092B2914217BF9A880022013292B2C0B294
:104210009A807047C28838B5838892B29BB20132C7
:104220009A4204460D461AD0C288038992B29BB2C4
:104230009A4202D183889BB28BB14FF0FF30E28863
:10424000236892B29D54E288238992B29BB29A422B
:1042500017BFE388002301339BB2E38038BD2046BB
:10426000FFF7C6FFEBE770B51E4605460846114648
:104270000422059CFFF78CFC9DF810100B223046A1
:10428000FFF786FC2B6804F00F01DA6804F03004B5
:1042900022F4F0521204120C42EA4122DA601A6946
:1042A00022F440521204120C42EA04241C6170BD34
:1042B00038B50446154611B900F096F801461923A1
:1042C0005943AD006423B1FBF5F1B1FBF3F21201E8
:1042D000100903FB101109013231B1FBF3F303F0B4
:1042E0000F0321681A4392B28A6038BD38B5114D68
:1042F000EB68980607D52B68990604D569680E48BF
:10430000C9B2FFF787FFEB680A4C1A0611D523687C
:104310001B060ED509488288C38892B29BB29A4286
:1043200003D0FFF765FF606038BDE36823F08003CA
:10433000E36038BD003801407C130020701300207A
:1043400038B5114DEB68980607D52B68990604D54A
:1043500069680E48C9B2FFF75DFFEB680A4C1A06A0
:1043600011D523681B060ED509488288C38892B2EE
:104370009BB29A4203D0FFF73BFF606038BDE36811
:1043800023F08003E36038BD004400408813002020
:10439000A013002038B5114DEB68980607D52B689F
:1043A000990604D569680E48C9B2FFF733FFEB6878
:1043B0000A4C1A0611D523681B060ED509488288B7
:1043C000C38892B29BB29A4203D0FFF711FF60609C
:1043D00038BDE36823F08003E36038BD0048004047
:1043E00094130020AC13002008B590F89002FFF75A
:1043F0002DFC20B10128034818BF002008BD024849
:1044000008BD00BF00A24A040051250208B5114BA7
:1044100001211C6803222046FFF7BAFB002301217B
:104420001A469342206834BF02254FF40035B2F596
:10443000007F056103F1010303D0002A08BF0121B9
:1044400001E04FF0FF31B3F5007F04BF52180023A5
:10445000E7E700BF1CF7000808B5034B0BB1AFF34B
:10446000008062B6FFF7D2FF0000000003695B68BE
:10447000D9889A8889B292B2D8888A1A998880B2E3
:1044800089B2884203D2198989B201310A4492B2B1
:1044900082B199881A6889B2505C99881A8989B260
:1044A00092B2914217BF9A880022013292B2C0B2F2
:1044B0009A8070474FF0FF30704703695B689988B6
:1044C000DA8889B292B2914205D09A881B6892B27A
:1044D000985CC0B270474FF0FF30704703699A682C
:1044E0009088D18880B289B28842F9D11A6813685D
:1044F0005B06FCD5704713B504698DF8071020469C
:104500000DF10701012200F021FE0028F7D0012063
:1045100002B010BD03695B68D8889A8880B292B2F5
:10452000D988801A9A8889B292B2914203D21B89A3
:104530009BB20133184480B27047000030B50025AB
:1045400045604FF47A758560024D01610560027522
:10455000437530BD98F7000803692DE9F74FDB6814
:10456000044699420F4692462CD890F81480174D75
:104570004FEA081808EB050690F8159070684FEAA6
:10458000091909EB050B717B10B10022FFF7DBFC69
:10459000206900F0A7FD337B9BF80C2020698DE893
:1045A000080459F8051058F80530FFF75CFE20693B
:1045B00000213A46FFF77CFE206903B0BDE8F04FCA
:1045C00000F0BABD03B0BDE8F08F00BFECF4000806
:1045D0000022FFF7C1BF0000044B02791B789A420A
:1045E00002D1034B1B681860704700BFC81300203E
:1045F000CC130020002310B50446036072B6054BAF
:1046000019311970044B18600448FFF7F7FB62B6C4
:10461000204610BDC8130020CC130020D945000847
:10462000036800221B685B0103F184431A60704732
:10463000036801221B685B0103F184431A60704721
:10464000036801391B6889B29962704703681B6867
:10465000DA6A92B2914228BF11465962704738B562
:10466000054639B9036801221B689962DA62D86A83
:1046700080B238BD48244C434FF6FF71B4FBF1F1D2
:10468000013189B204EB5104B4FBF1F4FFF7D8FF18
:104690002B68A4B21B682046DC6238BD0068C9B232
:1046A000FFF7E2BB08B501210848FFF7A3FF02218D
:1046B0000748FFF79FFF03210648FFF79BFFBDE870
:1046C000084005480421FFF795BF00BFB81300203C
:1046D000BC130020C0130020C41300202DE9F041BA
:1046E000002407460E4625463B1919790A22304612
:1046F00000F013F92E218046304600F04DF80134C9
:104700004044032C0544EFD13046F9790A2200F0E9
:1047100004F92844BDE8F08130B58371034D9DF85C
:104720000C30056001714271C37130BDC0F70008E3
:10473000044B054A1A6000221A715A719A71DA7193
:10474000704700BFD0130020C0F7000870B50546C1
:104750000E460024315D29B12A6828461268904728
:104760000134F7E7204670BDF8B505460C461646FD
:104770008F18BC4206D02B6828461B6814F8011B12
:104780009847F6E73046F8BD10B502680B469468C6
:1047900009689A68A04710BD08B503681B68984768
:1047A00008BD08B503685B68984708BDFFF7F9BF07
:1047B00010B50A680446126808462146904710BDA5
:1047C00038B50D210546FFF7E7FF0A2104462846C4
:1047D000FFF7E2FF204438BD38B50446FFF7D4FFA9
:1047E00005462046FFF7ECFF284438BD38B504469F
:1047F000FFF7D7FF05462046FFF7E2FF284438BD04
:1048000038B50446FFF7CDFF05462046FFF7D8FF31
:10481000284438BD38B50446FFF7CAFF0546204690
:10482000FFF7CEFF284438BD2DE9F04F14461D4652
:1048300091B054EA050381469DF868B004D1302157
:10484000FFF7AAFF01202EE04FF000085FFA8BF679
:1048500000272046294632463B4601F095F908F1EB
:1048600001080DF1000AC2440AF8012C204629462D
:104870003B46324601F088F904460D4654EA0503EA
:10488000E4D1002408F1FF381DF808104846092932
:1048900094BF30313731C9B2FFF77EFF0444B8F11D
:1048A000000FEFD1204611B0BDE8F08F2DE9F041A7
:1048B000069F064614461D462FB90368D1B21B68F1
:1048C0009847BDE8F081002C75F1000305DA2D2131
:1048D000FFF762FF644265EB4505FFB2069730467D
:1048E00022462B46BDE8F041FFF79EBF07B5CB1728
:1048F00000920A46FFF7DAFF03B05DF804FB70B5DB
:10490000049921B90368D1B21B68984770BDC9B238
:104910000491BDE87040FFF787BF07B50023009200
:10492000CAB2FFF7ECFF03B05DF804FB07B5002344
:1049300000920A46FFF7E3FF03B05DF804FB0000B6
:1049400038B50A4B04461A681D46C26022682046E4
:1049500013699847002807DAE2682B689B1AA26857
:104960009342F3D34FF0FF3038BD00BF0C1400204A
:1049700070B50D4609490446164600F063F828460E
:10498000FFF7DEFF01460029204605DBB14203D0D8
:10499000C9B200F0E8F8F2E770BD00BF83EC000890
:1049A00070470022026010B50C68426004604C68D9
:1049B000826044608C6884600A604A608A6010BDCE
:1049C00010B50446006801F03DFC204610BD10B54E
:1049D0000446006808B101F035FC00232360A360A1
:1049E000636010BD38B504460D460068013102F021
:1049F0002BF810B184E82100012038BD036810B500
:104A0000044613B143688B4207D22046FFF7EAFF02
:104A100020B1A3680BB922681370012010BD70B5D6
:104A20000E46114604461546FFF7E8FF18B9204622
:104A3000FFF7CDFF04E0A5602068314602F0ECFBF3
:104A4000204670BD38B50023044603604360836090
:104A50000D4639B1084602F03DFC29460246204683
:104A6000FFF7DDFF204638BD38B5054600680C4627
:104A700078B1096859B10C4B4BB16A68A3689A4286
:104A800005D302F0C9FBA368AB6000230AE001F084
:104A9000D9FB23682B6063686B60A368AB6000235D
:104AA00023606360A36038BDA1490008884210B547
:104AB0000B46044607D0096819B19A68FFF7AFFFA3
:104AC00001E0FFF784FF204610BD10B50023044627
:104AD000036043608360FFF7E9FF204610BD884212
:104AE00010B5044601D0FFF7BFFF204610BD38B512
:104AF00005460C4641B1084602F0ECFB2146024651
:104B00002846FFF78CFF01E0FFF761FF284638BD1C
:104B100070B5044685680E4609B9002070BD62B1C3
:104B200015442946FFF76AFF0028F6D02068A368DD
:104B30003146184402F070FBA560012070BD0B46A1
:104B40009A680968FFF7E4BF38B505460C46084681
:104B500041B102F0BFFB214602462846BDE838407D
:104B6000FFF7D6BF38BD07B500238DF8041001222A
:104B700001A98DF80530FFF7CBFF03B05DF804FB0A
:104B800013B50A220446084601A900F073FA01A8E9
:104B900002F0A0FB01A902462046FFF7B9FF02B0D0
:104BA00010BD1FB504460A220846694600F062FAA5
:104BB000684602F08FFB694602462046FFF7A8FFD1
:104BC00004B010BD1FB504460A220846694600F02D
:104BD0007CFA684602F07EFB694602462046FFF7F3
:104BE00097FF04B010BD0B4610B509689A680446DB
:104BF000FFF78EFF10B92046FFF7E9FE204610BDF3
:104C000038B504460D4641B1084602F063FB29461B
:104C100002462046FFF77CFF10B92046FFF7D7FE7B
:104C2000204638BD10B50446FFF79DFF10B9204659
:104C3000FFF7CDFE204610BD10B50446FFF7B1FFCB
:104C400010B92046FFF7C3FE204610BD10B504463C
:104C5000FFF7B8FF10B92046FFF7B9FE204610BD98
:104C6000826808B50B4612B919B9012008BD11B9FF
:104C70000368187802E0006802F0B0F9D0F1010092
:104C800038BF002008BD08B582688B689A420CD3F3
:104C9000006868B1096851B1D31A184402F09EF94E
:104CA000D0F1010038BF002008BD002008BD084633
:104CB00008BD38B50C469AB191B181688B4202D3D8
:104CC0000023237038BDC91A551E8D4228BF0D46DA
:104CD00001682A461944204602F086FB00236355EA
:104CE00038BD836810B59A4206D20468A01802F055
:104CF000FBF808B1001B10BD4FF0FF3010BDF8B538
:104D000015468A680F46C2B18368B3B19A4214D877
:104D100006689D4228BF03F1FF3530464FF0FF344F
:104D2000731998420CD8396802F0E4FC40B1831B37
:104D3000AB4298BF1C460130F2E74FF0FF30F8BDA0
:104D40002046F8BD9A422DE9F04107460D4614462B
:104D50001E4601D93446164638460C49FFF772FE06
:104D6000AB689C420FD29E4228BF1E462B68002291
:104D700013F806809A55296838462144FFF7B7FE94
:104D80002B6803F806803846BDE8F08183EC000804
:104D90002DE9F74FD0F808A004460F461646BAF1A1
:104DA000000F77D0D1F808B0BBF1000F72D0936834
:104DB0000568CBEB0308B8F1000F0DD12846396820
:104DC00002F098FC0546002864D03168B26801F012
:104DD00011FDB3681D44F1E702DB0B68D14622E008
:104DE000A9462846396802F085FC8246A0B1C5EB89
:104DF0000A0B294648465A46D94401F0FBFC48466E
:104E00003168B26801F0F6FCB368BD689944A368E4
:104E100055444344A360E4E74846294603B0BDE84F
:104E2000F04F02F0F9B919462846019302F062FCEE
:104E3000019B18B100EB0B05C144F4E7D14529D023
:104E40006368994504D920464946FFF7CBFD08B36E
:104E5000A268013A002A1DDB20463946FFF74FFFC2
:104E6000051E17DBBA682168A3682A44114401EBC8
:104E700008009A1A01F034FDA36822684344002117
:104E8000A360D1542068B2682844316801F0B2FCB4
:104E90006A1EDFE703B0BDE8F08F2DE9F041066838
:104EA000054616B3876807B3B0464446207808F134
:104EB000010801F0B5F90028F7D1013F37443878EF
:104EC00001F0AEF948B901373A1BB442AA6008D9DB
:104ED0003046214601F08EFC03E0A742F3D3013FA8
:104EE000EDE72A68AB680021D154BDE8F081006885
:104EF00008B101F049B97047FEF7D6BC08B5FDF717
:104F000095F8FDF7DFF8FCE701F09CB9222870B5B1
:104F10003BD8082939D8DFE801F0051A080B0E1133
:104F2000081417000024032213E00024042210E0D8
:104F3000002422460DE0002409220AE00024082271
:104F400007E001240B2204E001240F2201E00024E9
:104F500007220E4B00011E18317B1858FEF718FE71
:104F6000706890B1717B24B10122BDE87040FEF7FA
:104F7000EABF0368013903F140432033DB0003EB50
:104F800081039B0003F184431C6070BDECF40008B6
:104F900022280ED8084B00011A18127B012101FAB1
:104FA00002F21B581B689B681A420CBF00200120AC
:104FB00070470020704700BFECF40008222810D88A
:104FC000084B00011A18127B1B58012000FA02F24C
:104FD000D1F1010138BF0021090102FA01F11B687A
:104FE00019617047ECF40008054B70B51C68064663
:104FF0001D4600F007F82B681B1BB342F9D370BDA8
:105000000C1400207047F0B58BB059B3931E222BBF
:105010002AD80A2A2AD1002828DA4042012501ABE1
:105020001E4670B1B0FBF2F702FB1704092C38469C
:10503000D8BF303403F10107C8BF57341C703B465A
:10504000EFE7B342EED01DB12D204A1C087000E0FE
:105050000A46B34204D913F8010D02F8010BF8E730
:1050600000231370084603E0002001E00025D6E786
:105070000BB0F0BDFFF7C7BF70B58AB001B3931E88
:10508000222B1FD801AB1D4670B1B0FBF2F602FB1C
:105090001604092C3046D8BF303403F10106C8BFCE
:1050A00057341C703346EFE7AB42EED00A46AB42B2
:1050B00004D913F8010D02F8010BF8E7002313706F
:1050C000084600E000200AB070BDFFF7D5BF10B55C
:1050D00004460079FEF704FE2079BDE81040FEF793
:1050E00017BE0000436800227F2110B59A80DA8045
:1050F000198100F110011960836804469A80DA80F2
:1051000040F2FF121A8100F190021A6090F89002AA
:10511000FEF7E6FD94F891325AB2002A08DB01212D
:1051200003F01F0301FA03F30249521141F8223040
:1051300010BD00BF00E100E00368DA6842F02C0215
:10514000DA60DA6842F40052DA607047F0B58368DA
:105150000546046800209F88DE88BFB2B6B2B74219
:1051600004D0E36823F08003E36027E02668360676
:10517000F7D59042F5D00E5C01306660EBE7DF8832
:105180009E88BFB2B6B20137B74211F800C01DD039
:10519000DF881E89BFB2B6B2B74213D0DF881E685F
:1051A000BFB206F807C0DF881E89BFB2B6B2B742E9
:1051B00018D0DE880136B6B2DE8001309042AB688E
:1051C000DDD303E09E88B6B2002EE7D19A88DB8853
:1051D00092B29BB29A4200D1F0BDE36843F08003E3
:1051E000E360F0BD0026E7E703460846194600F0F5
:1051F000CFBF00BF81F0004102E000BF83F0004359
:1052000030B54FEA41044FEA430594EA050F08BF61
:1052100090EA020F1FBF54EA000C55EA020C7FEA25
:10522000645C7FEA655C00F0E2804FEA5454D4EBA2
:105230005555B8BF6D420CDD2C4480EA020281EA6C
:10524000030382EA000083EA010180EA020281EAA4
:105250000303362D88BF30BD11F0004F4FEA0131F6
:105260004FF4801C4CEA113102D0404261EB410105
:1052700013F0004F4FEA03334CEA133302D052428B
:1052800063EB430394EA050F00F0A780A4F1010447
:10529000D5F1200E0DDB02FA0EFC22FA05F2801881
:1052A00041F1000103FA0EF2801843FA05F3594167
:1052B0000EE0A5F120050EF1200E012A03FA0EFCE6
:1052C00028BF4CF0020C43FA05F3C01851EBE37110
:1052D00001F0004507D54FF0000EDCF1000C7EEB2D
:1052E00000006EEB0101B1F5801F1BD3B1F5001F6B
:1052F0000CD349085FEA30004FEA3C0C04F101048A
:105300004FEA445212F5800F80F09A80BCF1004FB2
:1053100008BF5FEA500C50F1000041EB045141EA34
:10532000050130BD5FEA4C0C404141EB010111F435
:10533000801FA4F10104E9D191F0000F04BF0146E0
:105340000020B1FA81F308BF2033A3F10B03B3F1BE
:1053500020020CDA0C3208DD02F1140CC2F10C024E
:1053600001FA0CF021FA02F10CE002F11402D8BFAC
:10537000C2F1200C01FA02F120FA0CFCDCBF41EA78
:105380000C019040E41AA2BF01EB0451294330BD47
:105390006FEA04041F3C1CDA0C340EDC04F1140424
:1053A000C4F1200220FA04F001FA02F340EA0300FB
:1053B00021FA04F345EA030130BDC4F10C04C4F141
:1053C000200220FA02F001FA04F340EA0300294621
:1053D00030BD21FA04F0294630BD94F0000F83F46B
:1053E000801306BF81F480110134013D4EE77FEA4E
:1053F000645C18BF7FEA655C29D094EA050F08BF9A
:1054000090EA020F05D054EA000C04BF194610467A
:1054100030BD91EA030F1EBF0021002030BD5FEABE
:10542000545C05D14000494128BF41F0004130BDE6
:1054300014F580043CBF01F5801130BD01F000453A
:1054400045F0FE4141F470014FF0000030BD7FEAAD
:10545000645C1ABF194610467FEA655C1CBF0B46A8
:10546000024650EA013406BF52EA033591EA030FBF
:1054700041F4002130BD00BF90F0000F04BF0021B7
:10548000704730B54FF4806404F132044FF00005EA
:105490004FF0000150E700BF90F0000F04BF002163
:1054A000704730B54FF4806404F1320410F00045C9
:1054B00048BF40424FF000013EE700BF42004FEAC4
:1054C000E2014FEA31014FEA02701FBF12F07F4341
:1054D00093F07F4F81F06051704792F0000F14BF3E
:1054E00093F07F4F704730B54FF4607401F0004582
:1054F00021F0004120E700BF50EA010208BF7047D9
:1055000030B54FF000050AE050EA010208BF7047CD
:1055100030B511F0004502D5404261EB41014FF436
:10552000806404F132045FEA915C3FF4DCAE4FF03A
:1055300003025FEADC0C18BF03325FEADC0C18BF21
:10554000033202EBDC02C2F1200300FA03FC20FA72
:1055500002F001FA03FE40EA0E0021FA02F11444BF
:10556000C1E600BF70B54FF0FF0C4CF4E06C1CEAD4
:1055700011541DBF1CEA135594EA0C0F95EA0C0F49
:1055800000F0DEF82C4481EA030621EA4C5123EABC
:105590004C5350EA013518BF52EA033541F48011EB
:1055A00043F4801338D0A0FB02CE4FF00005E1FB9E
:1055B00002E506F00042E0FB03E54FF00006E1FBE8
:1055C00003569CF0000F18BF4EF0010EA4F1FF042B
:1055D000B6F5007F64F5407404D25FEA4E0E6D416B
:1055E00046EB060642EAC62141EA55514FEAC5207C
:1055F00040EA5E504FEACE2EB4F1FD0C88BFBCF5F8
:10560000E06F1ED8BEF1004F08BF5FEA500E50F1A8
:10561000000041EB045170BD06F0004646EA01016E
:1056200040EA020081EA0301B4EB5C04C2BFD4EBA0
:105630000C0541EA045170BD41F480114FF0000E99
:10564000013C00F3AB8014F1360FDEBF002001F007
:10565000004170BDC4F10004203C35DA0C341BDC81
:1056600004F11404C4F1200500FA05F320FA04F053
:1056700001FA05F240EA020001F0004221F0004187
:1056800010EBD37021FA04F642EB06015EEA430EFA
:1056900008BF20EAD37070BDC4F10C04C4F120052A
:1056A00000FA04F320FA05F001FA04F240EA0200DD
:1056B00001F0004110EBD37041F100015EEA430EAE
:1056C00008BF20EAD37070BDC4F1200500FA05F2CE
:1056D0004EEA020E20FA04F301FA05F243EA02034D
:1056E00021FA04F001F0004121FA04F220EA02005C
:1056F00000EBD3705EEA430E08BF20EAD37070BDA2
:1057000094F0000F0FD101F00046400041EB010181
:1057100011F4801F08BF013CF7D041EA060195F063
:10572000000F18BF704703F00046520043EB03031D
:1057300013F4801F08BF013DF7D043EA060370470A
:1057400094EA0C0F0CEA135518BF95EA0C0F0CD015
:1057500050EA410618BF52EA4306D1D181EA03015B
:1057600001F000414FF0000070BD50EA410606BF55
:105770001046194652EA430619D094EA0C0F02D19A
:1057800050EA013613D195EA0C0F05D152EA0336DF
:105790001CBF104619460AD181EA030101F00041FD
:1057A00041F0FE4141F470014FF0000070BD41F046
:1057B000FE4141F4780170BD70B54FF0FF0C4CF420
:1057C000E06C1CEA11541DBF1CEA135594EA0C0F3F
:1057D00095EA0C0F00F0A7F8A4EB050481EA030E8C
:1057E00052EA03354FEA013100F088804FEA033373
:1057F0004FF0805545EA131343EA12634FEA022241
:1058000045EA111545EA10654FEA00260EF0004101
:105810009D4208BF964244F1FD0404F5407402D253
:105820005B084FEA3202B61A65EB03055B084FEAE4
:1058300032024FF480104FF4002CB6EB020E75EBE1
:10584000030E22BFB61A754640EA0C005B084FEA09
:105850003202B6EB020E75EB030E22BFB61A754686
:1058600040EA5C005B084FEA3202B6EB020E75EBD1
:10587000030E22BFB61A754640EA9C005B084FEA49
:105880003202B6EB020E75EB030E22BFB61A754656
:1058900040EADC0055EA060E18D04FEA051545EA45
:1058A00016754FEA06164FEAC30343EA52734FEAEE
:1058B000C2025FEA1C1CC0D111F4801F0BD141EA67
:1058C00000014FF000004FF0004CB6E711F4801FCC
:1058D00004BF01430020B4F1FD0C88BFBCF5E06FAC
:1058E0003FF6AFAEB5EB030C04BFB6EB020C5FEABC
:1058F000500C50F1000041EB045170BD0EF0004E11
:105900004EEA113114EB5C04C2BFD4EB0C0541EA42
:10591000045170BD41F480114FF0000E013C90E63F
:1059200045EA060E8DE60CEA135594EA0C0F08BF03
:1059300095EA0C0F3FF43BAF94EA0C0F0AD150EA02
:1059400001347FF434AF95EA0C0F7FF425AF104695
:1059500019462CE795EA0C0F06D152EA03353FF4BD
:10596000FDAE1046194622E750EA410618BF52EA3A
:1059700043067FF4C5AE50EA41047FF40DAF52EA0E
:1059800043057FF4EBAE12E74FF0FF3C06E000BFAB
:105990004FF0010C02E000BF4FF0010C4DF804CDB8
:1059A0004FEA410C7FEA6C5C4FEA430C18BF7FEA78
:1059B0006C5C1BD001B050EA410C0CBF52EA430CA6
:1059C00091EA030F02BF90EA020F0020704710F126
:1059D000000F91EA030F58BF994208BF90422CBFB5
:1059E000D8176FEAE37040F0010070474FEA410CAE
:1059F0007FEA6C5C02D150EA013C07D14FEA430CCC
:105A00007FEA6C5CD6D152EA033CD3D05DF8040B3C
:105A1000704700BF8446104662468C46194663466E
:105A200000E000BF01B5FFF7B7FF002848BF10F145
:105A3000000F01BD4DF808EDFFF7F4FF0CBF01208A
:105A400000205DF808FB00BF4DF808EDFFF7EAFF06
:105A500034BF012000205DF808FB00BF4DF808EDC1
:105A6000FFF7E0FF94BF012000205DF808FB00BFB6
:105A70004DF808EDFFF7CEFF94BF012000205DF840
:105A800008FB00BF4DF808EDFFF7C4FF34BF01204D
:105A900000205DF808FB00BF4FEA410212F500123A
:105AA00015D211D56FF47873B3EB625212D94FEA65
:105AB000C12343F0004343EA505311F0004F23FA4F
:105AC00002F018BF404270474FF00000704750EAA4
:105AD000013005D111F0004008BF6FF00040704761
