:020000040800F2
:1000000000500020A9450008614800086548000824
:10001000694800086D48000871480008C148000898
:10002000C1480008C1480008C1480008C14800088C
:10003000C1480008C1480008C1480008714C0008C8
:10004000C1480008C1480008C1480008B944000878
:10005000C1480008C1480008C1480008C14800085C
:10006000C1480008C1480008C1480008C14800084C
:10007000C1480008C1480008C1480008C14800083C
:10008000C1480008C148000819490008C1480008D3
:10009000C1480008C1480008C1480008C14800081C
:1000A000994E0008BD4E0008E14E0008194F0008A7
:1000B0006D4F0008DD4F00084D500008C148000892
:1000C000C1480008C1480008C1480008C1480008EC
:1000D000C1480008B95100080D52000861520008DB
:1000E000C148000801450008C148000810B5054C8A
:1000F000237833B9044B13B10448AFF300800123D4
:10010000237010BDA81100200000000050E9000875
:1001100008B5064B1BB106480649AFF300800648F8
:10012000036813B1054B03B1984708BD00000000F8
:1001300050E90008AC110020A811002000000000C8
:10014000012902D11C30C0B27047062984BF01F1D9
:10015000FF31C9B211F0010F14BF1E201F207047DC
:10016000444B2DE9F047B1FBF3F603FB16113C239A
:10017000B1FBF3F203FB1212054602704FF461600B
:10018000B1FBF0F200FB1211B1FBF3F36B704FF413
:10019000FA63AA70B6B2EB80EC884FF4C873B4FB74
:1001A000F3F803FB18481FFA88F8B8F1000F16D0CF
:1001B0006423B4FBF3F203FB12439BB2002B53D036
:1001C00014F0030140F26D130CBF4FF4B7721A46DE
:1001D00096420EDB002908BF4FF4B77304E0B6F572
:1001E000B77F06DB4FF4B773F61A0134B6B2EC8072
:1001F000D2E700236B716423B4FBF3F703FB1747CB
:10020000BFB2B8F1000F06D03FB114F0030F14BF16
:100210000020012002E0012000E0384695F805901A
:10022000C0B24946FFF78CFF864209F1010A15D397
:10023000B8F1000F06D03FB114F0030F14BF002037
:10024000012002E0012000E03846C0B24946FFF735
:1002500077FF301A86B285F805A0D2E701362E71F5
:1002600085F805A0BDE8F087B6F5B67FC1DD40F2A0
:100270006D13B9E780510100F8B5427887783C23C7
:1002800003FB072702780579467903FB0727013D21
:10029000013EEDB2F6B2044605714671013E731C93
:1002A000E38834D04FF4C872B3FBF2F102FB113291
:1002B00092B262B16422B3FBF2F002FB103080B262
:1002C00030B113F0030F14BF0020012000E0012023
:1002D000C0B2F1B2FFF734FF284485B2DEE74FF435
:1002E000C872B3FBF2F102FB113292B2AAB16422DE
:1002F000B3FBF2F102FB113292B28AB113F0030F99
:1003000040F26D1208BF4FF4B7721544ADB2013B15
:100310009BB2B3F5FA6FE2D205E04FF4B772F4E79F
:1003200040F26D12F1E7024800FB0570F8BD00BF16
:100330008051010002F026BD38B50D46044602F09A
:100340003CFD290A49006039204601F0FE0102F017
:10035000CBFD204602F0A1FDE9B2204602F0C4FD2B
:10036000204602F09AFD204602F027FD2046A121FA
:1003700002F0BAFD204602F090FD0021204602F076
:10038000DAFD0546204602F06BFD204602F030FD06
:10039000284638BD70B50D461646044602F00DFDE0
:1003A000290A49006039204601F0FE0102F09CFD57
:1003B000204602F072FDE9B2204602F095FD20468B
:1003C00002F06BFD3146204602F08EFD204602F021
:1003D00064FD204602F00CFDBDE870400A2005F0E7
:1003E00099BD1520012105F07FBD1520002105F0E4
:1003F0007BBD10B500210446152005F01DFD15201C
:10040000012105F071FD2046BDE81040FFF792BFC5
:1004100038B50C460546FFF7E8FF2846012122467D
:10042000FFF7B8FFFFF7DDFF28460121FFF784FF44
:10043000A042064804D1064905F03EF9012038BD26
:10044000044905F039F9002038BD00BFC813002069
:1004500048FB000872FB000838B50D460446FFF75C
:10046000C4FF042D16D8DFE805F003060C0F1200B8
:100470002046022101E0204603210122FFF78AFFE6
:100480000CE020460421F8E720460521F5E7204648
:100490000621F2E72348244905F00EF9FFF7A1FFF2
:1004A000042D39D8DFE805F0030D17212B00204675
:1004B0000221FFF741FF0128044631D119481B49A9
:1004C00026E020460321FFF737FF0128044627D105
:1004D000144817491CE020460421FFF72DFF01288E
:1004E00004461DD10F48134912E020460521FFF7AD
:1004F00023FF0128044613D10A480F4908E020468B
:100500000621FFF719FF0128044609D105480B49C8
:1005100005F0D2F8204638BD0248034905F0CCF872
:10052000002038BDC8130020ECFB000807FC0008C1
:1005300021FC00083BFC000855FC00086FFC00088B
:1005400038B50446FFF751FF00256B1E2046032BEC
:1005500003D8DFE803F00406080A022106E00321BD
:1005600004E0042102E0052100E00621002201351B
:10057000FFF710FF052DE8D1FFF733FF20460221DA
:10058000FFF7DAFEC8B920460321FFF7D5FEA0B970
:1005900020460421FFF7D0FE78B920462946FFF710
:1005A000CBFE50B920460621FFF7C6FE28B9064902
:1005B000064805F081F8012038BD0549034805F0DB
:1005C0007BF8002038BD00BF89FC0008C81300205C
:1005D000A2FC000838B50B784A7803EB83034A4C39
:1005E00003EB830302EB8303E3808B780D46637197
:1005F000CB78464823710B79A3704B7963708B7964
:100600004349237005F033F8E1880A223F4805F09A
:10061000DCF840493D4805F02AF861790A223B4858
:1006200005F0F4F83C49394805F021F821790A220F
:10063000364805F0EBF83949344805F018F8A17848
:100640000A22324805F0E2F83549304805F00FF843
:1006500061780A222D4805F0D9F832492B4805F077
:1006600006F80A222178294805F0D0F804F0C8F9E4
:10067000642005F04FFC2046FFF7FEFD01462A48A6
:1006800003F073FE642005F045FC04F0BFF9264832
:1006900003F06EFE01462046FFF762FDE288642308
:1006A000B2FBF3F32B70E2884FF47A73B2FBF3F1F1
:1006B00003FB11236B706379AB702379EB70A37824
:1006C0002B7163786B7123780024AB71295D0A224A
:1006D0000E4805F092F801340C48144904F0C7FFA5
:1006E000072CF3D11249094804F0C1FF074804F070
:1006F000CDFF1049054804F0DFFFBDE8384003484E
:100700000D4904F0D9BF00BF66120020C8130020B5
:10071000C4FC0008CBFC0008D3FC0008D9FC00088E
:10072000E0FC0008EAFC00086F1200203E06010809
:10073000F4FC0008FAFC00082EFF000838B51B483E
:100740000C4603F015FE1A4D01462846FFF708FD3A
:10075000EA886423B2FBF3F32370EA884FF47A73D8
:10076000B2FBF3F103FB112363706B79A3702B7958
:10077000E370AB7823716B7863712B780025A371DC
:10078000615D0A220B4805F038F8013509480A492D
:1007900004F06DFF072DF3D10648084904F067FF08
:1007A000BDE83840034804F071BF00BF6F1200205D
:1007B00066120020C81300203E060108F4FC000861
:1007C00070B586B0154668460A221E460C4605F0EE
:1007D00019F9694603A805F0F2F8214903A805F0C4
:1007E0009BF9294605F0B4F91D4905F095F9314604
:1007F00005F0AEF91B4905F08FF901461A4804F0DF
:1008000029FF03A805F056F8684605F053F864225E
:10081000B4FBF2F302FB1344DBB2E4B2132B84BF4C
:10082000A418E4B204EB94010722B1FBF2F3C3EB8A
:10083000C303CB1A0D49294411F8011C0E4433445B
:10084000A1079BB204D1022D9CBF03F1FF339BB2E1
:10085000B3FBF2F2C2EBC202981AC0B206B070BD8E
:100860003501010871FD0008C8130020B8FC00081C
:100870000148112103F070BD6F120020064B1A6869
:1008800001321A601A681D2A04D900221A60034B2B
:1008900001221A70704700BF7012002074120020ED
:1008A00010B5094C0949204604F03FFE20460121BD
:1008B000074A04F059FE2046002104F02DFE204690
:1008C000BDE8104004F012BE6014002040420F004A
:1008D0007D08000810B5054C204604F00FFE2046A8
:1008E0000021BDE8104004F017BE00BF60140020D6
:1008F00010B58AB001A802F0A9FB464A07A801A9D1
:1009000002F0CEFC444B07A8196802F0ADFC07A822
:1009100002F072FB414A07A801A902F0C1FC07A836
:100920003F4902F0B9FC07A802F066FB3D4A07A860
:1009300001A902F0B5FC07A83B4902F0ADFC07A8ED
:1009400002F05AFB394A07A801A902F0A9FC07A83E
:10095000374902F0A1FC07A802F04EFB354A07A870
:1009600001A902F09DFC07A8022102F07DFC07A866
:1009700002F042FB304A07A801A902F091FC07A847
:100980002E4902F089FC07A802F036FB2C4A07A882
:1009900001A902F085FC2B4C07A82B4902F07CFC36
:1009A00007A802F029FB2046284904F060FE07A8AA
:1009B00001A902F07DFB07A9204604F091FE07A8DB
:1009C00002F01AFB01AA04A8214902F0F6FA07A8CE
:1009D000204904F0B1FF04A907A805F090F80146EA
:1009E000204604F05FFE07A804F064FF04A907A8EE
:1009F00004F0E5FF07A9184801F0FEFD07A804F080
:100A000059FF04A804F056FF01A802F0F5FA0AB055
:100A100010BD00BFD602010890130020A2FD0008FF
:100A2000941200205503010898130020A7FD000828
:100A3000A0120020ABFD0008B1FD000854130020F7
:100A4000B7FD0008C813002078130020BDFD000882
:100A5000AC130020D0FD00088413002030B58BB00B
:100A600001A80D46144602F0F1FA2A4A07A801A986
:100A700002F016FC07A8284902F00EFC07A802F0B5
:100A8000BBFA264A07A801A902F00AFC294607A8D2
:100A900002F0EAFB07A802F0AFFA214A07A801A971
:100AA00002F0FEFB214607A81E4C02F0DDFB07A862
:100AB00002F0A2FA20461C4904F0D9FD07A801A9BA
:100AC00002F0F6FA07A9204604F00AFE07A802F091
:100AD00093FA01AA04A8154902F06FFA20461449B6
:100AE00004F0C5FD04A9204604F0DCFD04A907A814
:100AF00004F065FF07A90F4801F07EFD07A804F088
:100B0000D9FE04A804F0D6FE01A802F075FA0BB0D5
:100B100030BD00BFA2FD000894120020ECFD0008CB
:100B2000F2FD0008C8130020F6FD0008AC130020F9
:100B3000D0FD00088413002030B54C488DB0302122
:100B4000102206F0CFFE0024494B13F8245028460B
:100B500005F0B4F908B9312205E0284605F0AEF9F0
:100B6000012802D13022414BE2540134022CEBD156
:100B7000684602F06BFA3F4A09A8694602F090FB0A
:100B800009A83D4902F088FB09A802F035FA06A839
:100B90003A4904F0D1FE06A909A804F010FF09A8FB
:100BA000354904F0ACFF0146354804F07BFD09A847
:100BB00004F080FE06A804F07DFE03A82B4904F093
:100BC000BBFE06A82F4904F0B7FE06A909A804F049
:100BD000F6FE03A909A804F092FF0146284804F094
:100BE00061FD09A804F066FE06A804F063FE264A2B
:100BF00009A8694602F054FB03A909A802F04CFBBE
:100C000009A802F0F9F921491D4804F030FD09A8AE
:100C1000694602F04DFA09A9194804F061FD09A8D6
:100C200002F0EAF96A4606A8194902F0C6F919491C
:100C3000134804F01CFD06A9114804F033FD06A971
:100C400009A804F0BCFE09A9134801F0D5FC09A8C5
:100C500004F030FE06A804F02DFE03A804F02AFEDE
:100C6000684602F0C9F90DB030BD00BF8012002007
:100C7000FCFE0008A2FD0008941200200AFE0008F5
:100C8000C813002010FE000819FE0008F6FD000839
:100C9000AC130020D0FD00088413002000B5002311
:100CA00089B000930193487811F8022B3038303A1C
:100CB00002EB820200EB42020DF803200133072B06
:100CC000F1D169461A48FFF785FC69461848FFF7D5
:100CD00035FD9DF800309DF8012003EB830303EB05
:100CE000830302EB830189B29DF802209DF8033053
:100CF0000F48FFF765FD0F498DF8070002A804F0C3
:100D00001BFE02A905A804F05AFE9DF8071005A8CD
:100D100004F01EFF0146084804F0C4FC05A804F0D6
:100D2000C9FD02A804F0C6FD09B05DF804FB00BFD0
:100D30006E12002021FE0008C8130020012A38B5D9
:100D40000C46154611D102290BD0FF2904D00129E8
:100D500020D1144800211AE0002112480A4601F06F
:100D6000CDFF10482946002212E09AB902290CD082
:100D7000FF2905D001290DD111460A48224607E076
:100D800011460848012201F0B9FF064801210A4630
:100D900001F0B4FF21462A460348BDE83840FFF77A
:100DA0005DBE00BFA81300207512002030B50D46AF
:100DB00087B000242B5D312B03D11A48E1B2002209
:100DC00004E0302B05D11748E1B2012201F096FF73
:100DD0001FE01549154804F06FFC1549684604F0FA
:100DE000ABFD694603A804F0EAFD214603A804F020
:100DF000C3FE104904F090FE295D04F09FFE0146F9
:100E00000A4804F04FFC03A804F054FD684604F0BF
:100E100051FD0134022CCDD10748FFF78DFE07B0FC
:100E200030BD00BFA813002027FE0008C813002013
:100E30002EFE000838FE000875120020F0B5A1B0A3
:100E40000C4606A8954904F077FD944909A804F0DA
:100E500073FD92490CA804F06FFD0FA8904922463B
:100E600002F0A4F88F4A0FA912A802F019FA8E48CE
:100E700004F00CFC8D498C4804F0F9FB12A802F038
:100E8000FFF80A220146884804F09FFC864804F0D7
:100E9000FDFB12A802F0F4F8052805DD824884491C
:100EA00004F00AFC0026E6E08248FFF749FB06460C
:100EB000002800F0E080804D002412A802F0E0F845
:100EC000844280F0D880224615A812A902F008FAC0
:100ED0007A4A15A918A802F0E3F918A802F0C7F891
:100EE000014606A804F07DFD18A802F085F815A8B3
:100EF00002F082F8089A00230132A5F1080706A83B
:100F0000694604F06CFE3846694607F021F96C49E1
:100F100015A804F011FD15A918A804F050FD2146EC
:100F200018A804F029FE674904F0F6FD394604F0DC
:100F3000F3FD01465C4804F0B5FB18A804F0BAFCC8
:100F400015A804F0B7FC224615A812A902F0C8F9AA
:100F50005D4A15A918A802F0A3F918A802F087F8AD
:100F6000014609A804F03DFD18A802F045F815A8AF
:100F700002F042F80B9A0023013209A803A904F0F9
:100F80002EFE284603A907F0E3F84D4915A804F002
:100F9000D3FC15A918A804F012FD214618A804F0E6
:100FA000EBFD4A4904F0B8FD294604F0B5FD0146C1
:100FB0003D4804F077FB18A804F07CFC15A804F069
:100FC00079FC224615A812A902F08AF9404A15A90F
:100FD00018A802F065F918A802F049F801460CA813
:100FE00004F0FFFC18A802F007F815A802F004F8B6
:100FF0000E9A00230CA81BA9013204F0F0FD224632
:1010000015A812A902F06CF9314A15A918A802F026
:1010100047F918A802F02BF805F1080701463846F1
:1010200007F096F818A801F0E7FF15A801F0E4FF13
:10103000234915A804F080FC15A918A804F0BFFCEA
:10104000214618A804F098FD224904F065FD3946B0
:1010500004F062FD0146144804F024FB18A804F0D3
:1010600029FC15A804F026FCE1B21248FFF7F4F9B8
:101070000134203521E712A801F0BEFF0FA801F0CE
:10108000BBFF0CA804F016FC09A804F013FC06A88A
:1010900004F010FC304621B0F0BD00BF2EFF000868
:1010A000AC1300203BFE0008C813002040FE0008DF
:1010B00063FE0008C4110020CE11002076FE000857
:1010C0007CFE000889FE000894FE000898FE0008D7
:1010D000A1FE0008A8FE000813B5026802AB03F8E1
:1010E000011D546A19460122A04702B010BD07B580
:1010F00003680DF107019B6A0122984701280CBF84
:101100009DF807004FF0FF3003B05DF804FB4FF08F
:10111000FF30704708B50369186803689B699847F2
:1011200008BD036810B5DB680446984708B9207FFE
:1011300010BD012010BD08B503681B6B9847003037
:1011400018BF012008BD0000F0B585B00C4606466A
:10115000194901A81746194D04F0EEFB01A810210A
:1011600004F0C6FB217901A804F096FC294601A8E9
:1011700004F076FC617901A804F08EFC294601A8F0
:1011800004F06EFCA17901A804F086FC294601A8B0
:1011900004F066FCE17901A804F07EFC3368019953
:1011A0001B6A3A4630469847044601A804F082FB81
:1011B000204605B0F0BD00BF2EFF00083501010834
:1011C00010B5044620680368DB68984710B904F03E
:1011D000A1FEF7E7206803681B6998472C28F1D126
:1011E000012010BD2DE9F04F054687B08A46104614
:1011F00040211E461446129F04F07AFB8F4BD3F811
:1012000000B0002004F086FE28680368DB68984779
:10121000002840F3E480286803681B699847011E92
:10122000F2DD2046C9B204F02AFC16B9109BA3B91E
:1012300010E0314603A804F07FFB204603A904F028
:10124000B8FC814603A804F035FBB9F1000FEDD0DE
:101250000120EFE0119B9BB910E0109903A804F066
:101260006BFB204603A904F0A4FC814603A804F00C
:1012700021FBB9F1000FEDD00220DBE0A7B910E0AF
:10128000119903A804F058FB204603A904F091FC2F
:10129000814603A804F00EFBB9F1000FEED0032045
:1012A000C8E0139B0BBB10E0394603A804F044FBD5
:1012B000204603A904F07DFC814603A804F0FAFA55
:1012C000B9F1000FEDD00420B4E05D4903A804F0AB
:1012D00033FB204603A904F06CFC814603A804F00C
:1012E000E9FAB9F1000F11D139E0139903A804F01C
:1012F00023FB204603A904F05CFC814603A804F00C
:10130000D9FAB9F1000FE0D0052093E068462968CA
:101310002C2204F0A7FA684604F07FFD01288146DC
:1013200015D129680A2203A804F09CFA03A804F046
:1013300074FD804603A804F0BDFA2046414904F03C
:1013400050FB05EB88035B6883F81D9003E02046A3
:10135000694604F080FB684604F0ACFA54E73A4969
:1013600003A804F0E9FA204603A904F022FC804611
:1013700003A804F09FFAB8F1000F3FF445AF3349DA
:1013800003A804F0D9FAA26803A9083A204604F099
:101390004CFC804608F1020803A804F08BFA424690
:1013A0002C21204604F033FC42460346214603A884
:1013B00004F05EFC03A804F030FD804603A804F0AE
:1013C00079FAB8F1000F3FF41FAF05EB88035B68B3
:1013D000204683F81C901B4904F003FB14E7174BCD
:1013E0001B68CBEB03035345FFF40BAF204604F01F
:1013F000EAFCA368CBB12146684604F0E0FA144940
:10140000144804F034F92021124804F02BF96946FD
:1014100003A804F0D4FA03A90E4804F043F903A882
:1014200004F048FA684604F045FA2046054904F0FD
:10143000D8FA0020C0B207B0BDE8F08FB014002089
:1014400019FF00082EFF000826FF00082CFF0008E7
:101450002FFF0008C8130020F0B589B01C460746CE
:101460000E4605A80B49154604F066FA00940E9C3A
:10147000314601940F9C05AA0294109C2B460394BC
:101480003846FFF7AFFE044605A804F013FA2046DD
:1014900009B0F0BD2EFF0008F0B5044685B00E4639
:1014A000006821491F46154604F0E1F820681F49ED
:1014B00004F0DDF80A223946206804F09EF920681D
:1014C0002C2104F0CFF82068194904F0D0F82068E6
:1014D000184904F0CCF83146206804F0C8F82068B8
:1014E000154904F0C4F80A222946206804F064F97A
:1014F0001249206804F0BBF8206803689B6998478C
:10150000002004F007FD0E4B2046009300230193BA
:1015100002930C490C4A0D4BFFF79EFF431E5842A5
:10152000584105B0F0BD00BF3EFF000841FF000874
:101530004CFF0008E603010851FF00082CFF0008DB
:1015400070FF0008F824010054FF000861FF000844
:1015500070B5044600200E46154604F0DBFC00235F
:10156000C4F8A430C4F8A030206931462A46237D4F
:10157000FFF792FF003018BF0120207770BD7FB5C4
:10158000089C0E460194099C1546009302944FF462
:101590007A7132462B46FFF75FFF04B070BD08B585
:1015A00000210F2004F0A0FC40F2DC5004F0B2FC5B
:1015B000BDE808400F20012104F096BC70B5044638
:1015C0000D4600680C49164604F051F8294620687B
:1015D00004F04DF831460A22206804F00EF9206824
:1015E000064904F044F8206803689B699847BDE801
:1015F0007040002004F08EBC3EFF00082CFF000865
:1016000013B50446002004F085FC2069227D0749BB
:10161000FFF7D4FF00232377009301932069044947
:10162000044AFFF7ACFF02B010BD00BF82FF000804
:1016300004FF00084606010810B504460948FFF7F4
:1016400070FD68B9E3785BB1E0700749074804F0C2
:1016500033F80648064904F02FF80248FFF7D0FF98
:1016600010BD00BFAC1200202EFF0008C8130020E0
:101670008DFF0008F0B50F4687B0002504462649C7
:101680003A46FFF79BFF0095019520462349244ADF
:101690002B46FFF774FF01281AD12046FFF790FD73
:1016A0002046FFF78DFD21680A2203A804F0DAF82E
:1016B00003A804F0B2FB064603A804F0FBF800956B
:1016C000019520461749164A2B46FFF758FFFEB9E9
:1016D00004EB87033A46204613495E68FFF76EFF26
:1016E000124B002500931249124A134B01952046D4
:1016F000FFF745FF2B46074600950195204609490F
:10170000074AFFF73CFF7B1E5F425F4137772E465B
:10171000304607B0F0BD00BF180001081BFF0008ED
:101720004606010804FF00082500010853000108CF
:10173000310001083E000108480001087FB5054658
:10174000002405EB84035E6846B1737F33B1002348
:1017500073772846E1B2FFF78DFFF0820134052C44
:10176000EFD128680368DB68984748B100220092EF
:101770000192029228460A211346FFF76DFEF0E718
:1017800004B070BDD0F88020D0F88430D01A48BFA3
:101790008030704738B50446002004F0BBFB237F3F
:1017A00004F120058BB12846FFF7ECFF68B90A4B1E
:1017B000A26919688A1AB2F5FA7F03D91B68012257
:1017C0006277A3612069FFF7B9FF2846FFF7DAFFC8
:1017D000E38A184438BD00BFB014002038B5044671
:1017E0000D460068094903F042FF2946206803F0CE
:1017F0003EFF2068064903F03AFF206803689B69B2
:101800009847BDE83840002004F084BB3EFF000844
:101810002CFF00082DE9FF41134B05461F680E46BB
:101820009846D8F800300024DB1BB34217D2284674
:101830000E49FFF7D3FF0094019402942846C82173
:101840000B4A0C4BFFF708FE0446012C4FF06400D6
:1018500002D104F05FFB02E004F05CFBE1E720460C
:1018600004B0BDE8F08100BFB01400202EFF0008D6
:1018700004FF0008460601081F4B2DE9F3411F68CD
:1018800005460E469846D8F80030DB1BB3422CD2F2
:10189000002428461949FFF7A1FF00940194284627
:1018A0001749184A2346FFF76AFE012804D04FF46F
:1018B0007A7004F02FFBE6E7134B14498DE818000B
:1018C000134A144B2846FFF75AFE0094064601942B
:1018D000284611490B4A2346FFF751FE012E06D038
:1018E00003D3032E01D8022002E0002000E030469E
:1018F00002B0BDE8F08100BFB01400205E00010816
:101900006500010846060108840001086E00010810
:10191000740001087C00010804FF00087FB542F252
:1019200010710546FFF776FF58B300242846214979
:10193000FFF754FF009401940294284642F210717C
:101940001D4A1E4BFFF788FD01281AD128461C4965
:10195000FFF744FF009401940294284642F210716C
:10196000154A164BFFF778FD01280AD140F6B8302A
:1019700004F0D0FA284642F21071FFF74BFF0646FA
:1019800008B9002612E028460E49FFF727FF009409
:10199000019428460849094A2346FFF7F0FD01282B
:1019A000EFD1284642F21071FFF766FF304604B0CF
:1019B00070BD00BF9100010804FF00084606010841
:1019C00099000108A3000108F7B5154F154E002432
:1019D00005461549FFF702FF324623463946009473
:1019E00001942846FFF7CBFD28461049FFF7F6FE85
:1019F000324623463946009401942846FFF7BFFD3E
:101A000028460B49FFF7EAFE009401942846394620
:101A100032462346FFF7B3FD012003B0F0BD00BFFF
:101A200004FF000846060108A9000108B4000108E7
:101A3000C40001081FB54FF4165104461B4803F0BB
:101A40002DFD1B48FFF7ABFD40F6B83004F062FAFD
:101A50001849194803F03AFE1848FFF75FFF174886
:101A60001749FFF7BBFE002300930193029313482D
:101A70004FF47A71134A144BFFF7EEFC012803D0A0
:101A80000D48124903F018FE4FF4FA6004F042FAD0
:101A90000A48FFF799FF4FF47A7004F03BFA0023ED
:101AA000A37063702370E37004B010BDF8130020BE
:101AB00084130020D3000108C81300206013002005
:101AC000E900010804FF000846060108F4000108C7
:101AD00070B5174986B000240546FFF77FFE0094D5
:101AE000019428461349144A2346FFF748FD01286C
:101AF0001BD12846FFF764FB2846FFF761FB2968E6
:101B00002C2203A803F0AEFE03A804F086F986B2E7
:101B100003A803F0CFFE0094019428460749064A23
:101B20002346FFF72CFD304600E0204606B070BD8E
:101B300003010108080101084606010804FF000826
:101B400008B50248FFF7C4FF08BD00BF60130020BE
:101B500070B5164986B000240546FFF73FFE009495
:101B6000019428461249134A2346FFF708FD01282D
:101B700018BF042017D12846FFF722FB29680A2244
:101B800003A803F06FFE03A804F047F9064603A874
:101B900003F090FE0094019428460749054A234625
:101BA000FFF7EDFCF0B206B070BD00BF10010108F8
:101BB000170101084606010804FF00082DE9F0415D
:101BC0004478054674BB1949194803F075FD184857
:101BD000184903F051FD184B1F689846D8F80020AB
:101BE0004EF65F23D21B9A420BD81448FFF7B0FF82
:101BF00000F0FB06012E0FD04FF47A7004F08AF942
:101C0000ECE70F490A4803F057FD42F2107004F068
:101C100081F900236B7005E06E700548094903F0F7
:101C20004BFD34462046BDE8F08100BF2EFF000882
:101C3000C813002020010108B01400206013002008
:101C400037010108540101081FB50A490446FFF78E
:101C5000C5FD002300930193029320464EF66021B8
:101C6000054A064BFFF7F8FB431E5842584104B0A3
:101C700010BD00BF8101010804FF000846060108ED
:101C800030B5304985B000240546FFF7A7FD009424
:101C9000019428462C492D4A2346FFF770FC012861
:101CA00001D001204BE028462949FFF797FD274A3C
:101CB00023462849009401942846FFF760FC2846F3
:101CC0002549FFF78BFD009401940294284623498F
:101CD000234A1E4BFFF7C0FB012802D021482249AE
:101CE0002AE01C4A194B4FF47A7100940194029433
:101CF0002846FFF7B1FB28461C49FFF76FFD00940B
:101D0000019428461A49114A2346FFF738FC012856
:101D100002D0144817490FE028461749FFF75EFD27
:101D20000094019428461549084A2346FFF727FCEA
:101D30000128B6D00B48124903F0BEFC204605B07E
:101D400030BD00BF10010108170101084606010857
:101D50008A01010804FF0008A6010108084C0100DF
:101D6000B1010108C8130020BB010108DB01010813
:101D7000E8010108F9010108120201081F02010827
:101D80003002010838B543780446ABB183789BB97B
:101D90000A490B4803F090FC0A48FFF771FF05461B
:101DA00007482DB1084903F087FC0123A37038BD13
:101DB000064903F081FCA57038BD00BF2EFF000866
:101DC000C813002060130020590201089602010880
:101DD00070B5144986B000240546FFF7FFFC009457
:101DE000019428461049114A2346FFF7C8FB0128F1
:101DF00018BF632014D129682C2203A803F032FDF8
:101E000003A804F00AF8064603A803F053FD009463
:101E1000019428460649054A2346FFF7B0FB3046A1
:101E200006B070BDD5020108DA02010846060108B5
:101E300004FF0008F0B5C4788BB00546002C40F0D4
:101E40003E81A049A04803F037FCA04904A803F054
:101E500073FD04A907A803F0B2FD9D4907A803F08C
:101E60005BFE0146984803F0F5FB07A803F022FD4E
:101E700004A803F01FFD9748954942F22832FFF766
:101E800067FBB0B99449904803F016FC42F2107019
:101E900004F040F86B68EC7001330A2B01D86B60DA
:101EA0000DE16C606C702C708C48FFF7CDFEAC704F
:101EB00005E18B49844803F0FFFB884E0123EB705A
:101EC00088496C60804803F0F7FB3046FFF780FFDD
:101ED000854F8649386004A803F02EFD04A907A8A1
:101EE00003F06DFD396807A803F03CFE0146764813
:101EF00003F0D8FB07A803F0DDFC04A803F0DAFC2C
:101F000030467B49FFF76AFC0094019430467949DA
:101F1000794A2346FFF733FB012804D004A8694916
:101F200003F00AFD16E007A831680A2203F09AFCC4
:101F30007249714A2346009401943046FFF71FFB13
:101F400007A803F040FF04A807A903F0A4FC07A812
:101F500003F0B0FC04A96A4803F03BFD04A803F0B9
:101F6000A9FC684907A803F0E7FC654907A803F046
:101F7000C6FD5A4E0146544803F094FB07A803F0EF
:101F800099FC002430466049FFF728FC0094019436
:101F900030465E49584A2346FFF7F1FA012804D03B
:101FA00004A8484903F0C8FC16E007A831680A22D3
:101FB00003F058FC5149504A23460094019430469E
:101FC000FFF7DDFA07A803F0FEFE04A807A903F057
:101FD00062FC07A803F06EFC04A94D4803F0F9FC6D
:101FE00004A803F067FC4B4907A803F0A5FC484987
:101FF00007A803F084FD0146334803F053FB07A80C
:1020000003F058FCAB78002B44D0344E002430460B
:102010004149FFF7E3FB00940194029430463F49A5
:102020003F4A354BFFF718FA012804D004A8254988
:1020300003F082FC16E007A831680A2203F012FCC4
:102040002E492D4A2346009401943046FFF797FA13
:1020500007A803F0B8FE04A807A903F01CFC07A812
:1020600003F028FC04A92F4803F0B3FC04A803F0F4
:1020700021FC2D4907A803F05FFC2A4907A803F0BB
:102080003EFD0146104803F00DFB07A803F012FCCB
:102090000023AB7025490C4803F00EFB2448FEF7E3
:1020A00027FC174803F08FFE194803F08CFE1D48EB
:1020B00003F089FE04481F4903F0FEFA012420467C
:1020C0000BB0F0BD2EFF0008C8130020E20201088B
:1020D00009FF0008AC120020F8020108601300207C
:1020E000190301083903010890130020DD020108DB
:1020F0004E0301082CFF00084606010804FF0008F3
:10210000941200200AFE0008530301085A03010834
:1021100098130020640301086D030108084C0100B6
:1021200077030108A0120020800301088903010839
:102130007512002091030108F8B504460D460068A9
:102140000E4916461F4603F092FA2946206803F00E
:102150008EFA3146206803F08AFA3946206803F087
:1021600081FA2068064903F082FA206803689B69B7
:102170009847BDE8F840002003F0CCBE3EFF0008C1
:102180002CFF00082DE9F04304468FB0002590464F
:1021900089461F46FFF758FD20469B49FFF71EFB67
:1021A0009A499B4A2B46009501952046FFF7E7F98F
:1021B000204698494A462223FFF7BEFF0095019525
:1021C00020469249924A2B46FFF7D9F9B8F1000F01
:1021D0000DD02046904942462223FFF7ADFF0095DF
:1021E0000195204689498A4A2B46FFF7C8F96FB105
:1021F00020468A493A462223FFF79EFF0023009398
:10220000019320468149824AFFF7B9F9804E0025A3
:10221000204683494A462223FFF78EFF32462B464B
:102220007A49009501952046FFF7A9F920467D4996
:10223000FFF7D4FA754A33464EF6602100950195B2
:1022400002952046FFF708F920467749FFF7C6FABE
:102250006E4A334675490095019502952046FFF771
:10226000FBF820467249FFF7B9FA009501950295EF
:10227000204647F23051654A3346FFF7EDF8012812
:1022800001D00025BCE020466A49FFF7A7FA009577
:102290000195029520464EF660215C4A3346FFF7D1
:1022A000DBF80128EDD120466349FFF797FA009546
:1022B00001952046554932462B46FFF760F9012823
:1022C000DFD120465D49FFF789FA00950195204648
:1022D0004E4932462B46FFF752F90128D1D120460C
:1022E0005749FFF77BFA009501952046474932464A
:1022F0002B46FFF744F90128C3D15249206803F067
:10230000B6F95149206803F0B2F94946206803F054
:10231000AEF94E49206803F0AAF94146206803F05F
:10232000A6F94A49206803F0A2F93946206803F06B
:102330009EF94749206803F09AF94649206803F05E
:1023400096F9206803689B699847284603F0E2FDE8
:1023500000950195029520464EF660212B4A3346A2
:10236000FFF77AF801288CD120463B49FFF736FA6F
:1023700000950195029520464EF66021234A33468A
:10238000FFF76AF801287FF47CAF20463349FFF756
:1023900025FA334905A803F0CFFA00960195029576
:1023A0000395204642F2107105AA184BFEF71AFF5A
:1023B000012813D008A8274903F0BEFA0BA8284922
:1023C00003F0BAFA05A808A90BAA03F077FC0BA83A
:1023D00003F070FA08A803F06DFA0EE020462149D8
:1023E000FFF7FCF92B460095019520460749324638
:1023F000FFF7C5F8431E5D425D4105A803F05AFA98
:1024000028460FB0BDE8F0838A01010804FF0008E8
:1024100046060108B0030108C3030108D7030108F9
:10242000EA030108FC03010807040108084C010045
:10243000A6010108120401081B0401082504010873
:10244000310401083EFF00083D040108E6030108CD
:10245000710701082CFF0008450401084C0401081D
:102460002EFF00085604010838B50478054634BB31
:1024700043781BB31349144803F01EF9134912485B
:1024800003F0FAF81249104803F0F1F81148104926
:10249000114A124BFFF776FE04460B4844B9104927
:1024A00003F00AF942F2107003F034FD2C7006E0DC
:1024B0000C4903F001F901232B7000E001242046B0
:1024C00038BD00BF2EFF0008C813002073040108A8
:1024D0004E06010860130020F8FE000845060108BA
:1024E000820401089F0401082DE9F04104460E46CC
:1024F000006812491F469046069D03F0B8F8314621
:10250000206803F0B4F841460A22206803F075F908
:102510003946206803F0A6F829460A22206803F00D
:102520007FF92068064903F0A2F8206803689B69D8
:102530009847BDE8F041002003F0ECBC3EFF0008E6
:102540002CFF0008F0B587B00025044600920F4626
:1025500016461C491A462C23FFF7C6FF0095019525
:1025600020461949194A2B46FFF709F8012802D0DD
:102570004FF0FF3422E020683946036832469B68FA
:102580009847206803689B69984700950195204605
:102590000F490E4A2B46FEF7F2FF0128E8D12046EC
:1025A000FEF70EFE216803A80A2203F05BF903A8D8
:1025B00003F033FC044603A803F07CF9204607B07F
:1025C000F0BD00BFBF0401089402010846060108DF
:1025D000C904010870B5044600200E46154603F0F4
:1025E00099FC2069FFF7AAF8206931462A46237D25
:1025F000FFF7A8FF70BD000070B58D680E4601356D
:10260000284604F0B3FD04460023304621462A46FE
:1026100003F0E5FA21462A460348FFF7DBFF204690
:1026200004F0ACFD012070BDAC1200202DE9F0419A
:1026300086B00025044600912C232F491646FFF74B
:1026400053FF0095019520462C492D4A2B46FEF755
:1026500096FF01284BD12046FEF7B2FD2046FEF73B
:10266000AFFD21682C2203A803F0FCF803A803F0B7
:10267000D4FB074603A803F01DF904EB860603A864
:1026800021680A22D6F8048003F0ECF803A803F0CE
:10269000C4FBA8F8160003A803F00CF9BD421ED035
:1026A00020680368DB68984710B903F033FCF7E74C
:1026B000206803681B69984773685FFA80FED3F847
:1026C000A010D3F8A4004A1C02F07F02824204D07A
:1026D000194481F820E0C3F8A0200135DEE700238B
:1026E0000093019320460749054AFEF748FF284614
:1026F00006B0BDE8F08100BFD80401081BFF000848
:102700004606010804FF00082DE9F74F04460020A3
:102710008946019203F0FEFB2069FFF70FF80025C0
:10272000019B9D4245D2019B04F1200B5846C5EB0D
:102730000308FFF727F8404538BF8046B8F1000F7F
:1027400024D04746CA465846FFF71CF810B9C14482
:102750004544E5E7D4F8A430C3F18006B742B8BFDA
:102760003E468642A8BF06460BEB03015046324662
:10277000009304F0DBFF009BBF1B03EB060C0CF087
:102780007F02C4F8A420B244E1D0DCE72069FEF760
:10279000D5FFE38A6BB1D4F8A420D4F8A030206927
:1027A000D11A0029D8BF80310139227DFFF73EFFC1
:1027B000B6E7284603B0BDE8F08F0000F7B5002467
:1027C0000094214622462346284802F00BFF284B5E
:1027D000284A29481A604FF47A728260274A284EA4
:1027E000284F0260012203619860274D4460C0F8C1
:1027F000A440C0F8A0400275C48284610477447785
:102800003146224C384603F097F83846204F22468E
:10281000294603F085FC3146384603F08DF83846EA
:102820001C4F2246294603F07BFC314638461A4E9F
:1028300003F082F822462946384603F071FC304600
:10284000164903F079F83046154E2246294603F022
:1028500067FC3046134903F06FF83046294622469C
:1028600003B0BDE8F04003F05BBC00BF781200206D
:1028700060130020F8130020AC120020C0FE0008F6
:102880002EFF000894120020B55800080800002010
:1028900098130020A012002054130020E504010822
:1028A00078130020EC04010870B506468AB00D4686
:1028B0000846804903F06AF9002840F0F88001A832
:1028C0007D492A4600F072FB07A87B4901AA00F067
:1028D0007BFB07A8794903F059F9044607A802F0E1
:1028E000E9FF14B176487749DCE0774907A803F09F
:1028F00023F801AA04A8704900F066FB04A907A800
:1029000003F0FDF801466E4802F0CCFE04A802F088
:10291000D1FF07A802F0CEFF01A86C4900F0F8FB38
:1029200020B3B4606349664802F0C6FE6849644853
:1029300002F09DFE654A07A801A900F0B1FC07A9B5
:102940005F4802F0CDFE07A800F056FB01A95F4AE0
:1029500007A800F0A5FC07A800F089FB044607A81B
:1029600000F04AFB5B482146FEF798F901A85A4956
:1029700000F0CEFB20B301A8584900F0C9FB0028A5
:1029800000F0928001A9544A07A800F089FC07A82A
:1029900000F064FB044607A800F02EFB01A94F4A93
:1029A00007A800F07DFC07A800F058FB054607A823
:1029B00000F022FB474821462A46FEF7BFF973E0A4
:1029C00001A8474900F0A4FB08B346493C4802F07F
:1029D0004EFE434A07A801A900F062FC07A9384847
:1029E00002F07EFE07A800F007FB01A93C4A07A8F9
:1029F00000F056FC07A800F03AFB3B4C206007A80B
:102A000000F0FAFA33482168FEF7D0F94CE001A84B
:102A1000364900F07DFB002842D001A9334A07A8BF
:102A200000F03EFC07A800F019FB314C206007A81D
:102A300000F0E2FA2F482178FDF7EAFC23682048ED
:102A4000012B04D0022B0FD083B92B492AE02B494C
:102A500002F032FE294607A802F0B1FF1D4807A97F
:102A6000FEF7ECF907A818E025491BE0254902F01C
:102A700023FE254904A802F05FFF04A907A802F07D
:102A80009EFF216807A803F06DF801460C4802F08C
:102A900009FE07A802F00EFF04A802F00BFF03E0F6
:102AA00007481A4902F008FE01A800F0A5FA0AB08A
:102AB00070BD00BF2EFF0008AC130020F304010816
:102AC000C8130020FD040108350501084E05010862
:102AD0005205010876120020ECFD0008F2FD000806
:102AE00019FE00086605010890120020A4050108DF
:102AF00094130020C41100207E0501088E050108F2
:102B0000A9050108C3050108DD050108EC05010858
:102B100030B5234B87B01C681D462248FEF701FBE9
:102B200000283AD02B681B1BB3F5FA6F35D21D482D
:102B3000FEF730FE0028F0D00A226846194902F05C
:102B400091FE1949194802F0B7FD1949174802F0DA
:102B5000B3FD03A8174902F0EFFE694603A802F08F
:102B6000CEFF154902F0D8FF0146104802F09AFD49
:102B700003A802F09FFE0D4802F016FC694603A868
:102B800002F01DFF03A90D48FFF78EFE03A802F017
:102B900091FE684602F08EFEBFE707B030BD00BF71
:102BA000B0140020AC1200202EFF0008C813002033
:102BB00019060108400601082DFF000884130020B3
:102BC000234B30B51A68234C22F0E06242F00072C9
:102BD00087B01A60204600F07DF820461E4C00F0B9
:102BE000B9F81E4D4FF4E131204602F057FC1C4865
:102BF000FDF7FFFB01F0F7FE2846FEF71BFFFDF790
:102C00004FFEFDF767FE2846FEF79AFF154D164961
:102C10002860684602F090FE694603A802F0CFFEE5
:102C2000296803A802F0A8FF104902F075FF0146C9
:102C3000204602F037FD03A802F03CFE684602F091
:102C400039FE0B480B4907B0BDE8304005F080BAAB
:102C500004000140A8130020C813002084130020A2
:102C6000C5110020A41300205406010865060108C0
:102C7000E61100206806010808B51148FEF79EFF1E
:102C800010B91048104905E00D48FFF7EDFB28B9D1
:102C90000C480E49BDE8084002F00EBD0848FFF799
:102CA00071F80748FFF7C6F810B906480849F1E778
:102CB0000348FFF72DFFBDE808400148FEF7BCBC04
:102CC00084130020C8130020710601089106010832
:102CD000B106010808B50320002103F0ADF8042077
:102CE000002103F0A9F80F20002103F0A5F8BDE8AA
:102CF00008400520002103F09FB8000010B51446DD
:102D000011B101290AD013E00320114603F0ECF8B9
:102D10000A480CB10A490DE00A490BE004201146AB
:102D200003F0E2F805480CB1074903E0074901E068
:102D300002480749BDE8104002F0BEBCC81300209D
:102D4000D5060108E0060108EA060108F5060108B3
:102D5000FF06010810B50A4C0520012103F0C4F854
:102D6000204600210122FFF7C9FF012120460A4623
:102D7000FFF7C4FFBDE810400F20012103F0B4B8F5
:102D8000A813002008B51620002103F055F81720DD
:102D9000002103F051F81620012103F0A5F8BDE849
:102DA00008401720012103F09FB81720002103F0ED
:102DB00043B81720042103F03FB808B5FFF7F5FF2B
:102DC0001720012103F090F80121162003F08CF860
:102DD000052003F0ADF80021172003F085F8062048
:102DE00003F0A6F8BDE808401620002103F07CB8E7
:102DF00008B5FFF7DAFF1620002103F075F8172059
:102E0000002103F071F80121162003F06DF806206F
:102E100003F08EF81720012103F066F8BDE80840A2
:102E2000062003F085B810B500210446162003F0F3
:102E30005BF82046FFF7B9FF0021172003F054F894
:102E4000022003F075F80121162003F04DF805204B
:102E500003F06EF8BDE810401620002103F044B8DE
:102E600010B500210446162003F03EF82046FFF777
:102E70009CFF0121172003F037F8022003F058F8D7
:102E80000121162003F030F8052003F051F8BDE8C9
:102E900010401620002103F027B870B50646FFF752
:102EA00088FF0121172003F01FF8012003F040F8EC
:102EB0001620012103F018F8012003F039F8FB2552
:102EC000172002F0FBFF044640B1013D15F0FF055D
:102ED000F6D13046FFF78CFF012070BD1620214649
:102EE00003F002F8204670BD38B50C46FFF75DFFD1
:102EF0001620002102F0F8FF082524F07F0303F0DC
:102F0000FF01172003B1012102F0EEFF012116207D
:102F100002F0EAFF022003F00BF81620002102F075
:102F2000E3FF013D0220640003F002F815F0FF0505
:102F3000E4B2E2D138BDF8B505460F46FFF739FFD8
:102F4000082600240021162002F0CEFF022002F005
:102F5000EFFF1620012102F0C7FF64001720E4B242
:102F600002F0ACFF08B10134E4B20120013E02F0EE
:102F7000DFFF16F0FF06E5D1284617B9FFF770FF0F
:102F800001E0FFF750FF2046F8BD0000014B036051
:102F9000704700BF2007010810B5034B04460360CB
:102FA00002F048FF204610BD2007010810B5114669
:102FB000044600F0BDF8204610BD10B51146044689
:102FC00000F0C4F8204610BD10B51146044600F0CC
:102FD000DBF8204610BD00000348044B0449054AB5
:102FE000036003F09DB800BFAC1300202007010868
:102FF0008D2F00080800002038B5064B04460360FA
:10300000406820B1A56815B900F020FE6560204633
:1030100038BD00BF3007010810B50446FFF7ECFFCC
:10302000204602F007FF204610BD406838B50D4627
:1030300058B101F025F804462146284602F017FB56
:103040000546204601F034F9284638BD024A0260A0
:1030500000224260826070473007010810B50446C4
:10306000406801F008F908B16368586910BD10B5EF
:103070000446406801F006F908B16368186910BD9C
:1030800010B50446406801F0FDF828B16368BDE85A
:103090001040186A05F0BAB8606801F0FAF820B17B
:1030A0006068BDE8104000F0EEBF4FF0FF3010BD8B
:1030B000B0B5044600AF48680D4601F0F1F820B9FC
:1030C000124B60602360A0601CE0686800F0DBFFCA
:1030D00083000A3323F00703ADEB030D6B68014651
:1030E0009A68684600238B4205DA156A40F8235037
:1030F00012680133F7E701F081F8044B6060236048
:103100000023A3602046BD46B0BD00BF30070108C4
:1031100038B5044640680D4601F0C2F830B1606829
:10312000294600F0BEFF003018BF012038BD000066
:1031300010B50446086800F09FFF034B60602360F1
:103140000023A360204610BD3007010830B5496850
:1031500085B0044611B902F0EFFB11E0084600F01B
:103160008FFF0546294601A802F0E6FB284601F03C
:103170009FF8204601A902F08EFB01A802F09AFBFD
:10318000204605B030BD000038B54D680446002D1E
:1031900031D0284601F05BF800282CD1284601F0F8
:1031A0005DF810B12046174927E0284601F05DF888
:1031B00010B12046144920E0284601F05CF810B117
:1031C0002046124919E0284601F05CF810B120466B
:1031D0000F4912E0284601F05CF810B120460D4975
:1031E0000BE0284601F05CF810B120460A4904E0E3
:1031F00020460A4901E00A49204602F09DFB20468C
:1032000038BD00BF40070108480701084D07010805
:10321000540701085B0701086107010868070108F6
:10322000F304010838B5456804464160DDB18068A3
:10323000A0B101F035F830B1A068296A6268BDE834
:10324000384001F063B8A06801F023F858B1A068D5
:1032500029466268BDE8384000F028BF2846BDE82E
:10326000384000F0F3BC38BD10B50446084603F002
:10327000AFF800F05DFF01462046BDE81040FFF7C3
:10328000D1BF10B50446084600F086FF014620462F
:10329000BDE81040FFF7C6BF0968FFF7F2BF0000A6
:1032A00070B5054648680C46164600F0F9FF28B987
:1032B00000F098FF01462046FFF7B4FF60683146F2
:1032C00000F0EFFE18B96068314600F01DFF63683A
:1032D000024A68602A60AB60284670BD300701086A
:1032E000F8B5054648680C46174600F0D2FF28B9E5
:1032F00000F06CFF01462046FFF794FF60683946F6
:1033000000F0C9FE064660B9606800F0BCFE874266
:1033100007DB00F0EDFE06463146606800F0C4FEB3
:10332000F2E76368024AAB6085E844002846F8BDCE
:10333000300701080448054B05490360054A00238E
:103340004360836002F0ECBEB01300203007010838
:10335000F92F00080800002010B500221346815CF8
:10336000A1F13004092C01D8303B0AE0A1F141045D
:10337000052C01D8373B04E0A1F16104052C0AD8E3
:10338000573B032A0B4402F1010218BF1B01042A18
:10339000E5D1184610BD002010BD2DE9F0470B689F
:1033A0008A688146551C9E189A5C8846222A1D44CC
:1033B00040F0CA804C682F460022F91AA14280F0E2
:1033C000C3803978222909D05C2905D10137F91A3F
:1033D000A14280F0B98001320137EEE7C2F101026B
:1033E000B81BD8F81030104498478246002800F0E7
:1033F000AB800446BD4280F08B802B785C2B03D0E1
:10340000237001350134F5E77A1B002A40F39080E0
:103410006B78662B19D00CD82F2B17D002D8222B03
:1034200014D085E05C2B11D0622B40F08180082302
:103430000CE0722B0ED003D86E2B79D10A2305E055
:10344000742B09D0752B09D072E00C232370013442
:1034500002235BE00D23F9E70923F7E7052A67DD7F
:10346000A81CFFF779FFA0F55C43B3F5806F064613
:103470005ED3A0F55843B3F5806F1CD2AB1DFB1A89
:10348000052B55DDAB795C2B52D1EB79752B4FD1E8
:1034900005F10800FFF760FFA0F55C43B3F5806F0E
:1034A00046D2C0F30900C6F3090640EA862606F5AF
:1034B00080360C2306E07F284FF006030BD9B0F5C9
:1034C000006F0BD3B6F5803F0BD3B6F5881F2FD214
:1034D000F021042207E00021012204E0C0210222A1
:1034E00001E0E0210322501EC0B240B106F03F0CC3
:1034F0006CF07F0C04F800C0B6090138F4E7012A2B
:1035000014BF0E4306F07F06267014441D4471E775
:10351000002323701023C9F80C30D8F80030C9F804
:1035200010A0FB1A0133C8F808300120BDE8F0876D
:10353000D8F8143050469847D8F80030ED1AC8F83B
:1035400008500020BDE8F087002DF5D1F9E710B54F
:1035500090B102687AB1416883688B4202D38B4292
:1035600006D010BDD45C202CF9D801338360F3E77A
:10357000013B836010BD104610BD28B1806818B1B2
:1035800011B101390068FAE7704761B160B1836831
:103590000BB9816005E01A680AB11346FBE71960B0
:1035A0004B60012070470846704738B5044638B173
:1035B000006828B1A568284404F028FE2844A060CB
:1035C00038BD70B5044600283ED0006800283DD0C4
:1035D000636813B1A2689A4237D2002935DBA2682A
:1035E000561C0E449E4201D8104470BD2369002B26
:1035F0002BD1B6F1804F06D3002EA8BF6FF0004646
:1036000002DA184670BD7600236A23B13146984726
:103610000546A0B904E0A36930469847054630B98D
:103620002068E369984765602560284670BDA268F8
:103630002168013204F07AF8E36920689847A068AD
:1036400084E86000284470BD70BD002070BD00009B
:103650002DE9F8430746084611B90020BDE8F88374
:1036600017B13A4600250DE00321FFF7AAFF002815
:10367000F3D0384904F06CFD68E00D2B0DD80C2B0D
:1036800006D30135904612F8013B002BF5D10CE032
:10369000A3F10801022904D8F3E7222BF1D05C2B17
:1036A000EFD01F2B98BF0535ECE7C7EB0808A844FF
:1036B00008F10301FFF785FF06460028CDD04FF043
:1036C0002209013086F8009045B946443946424601
:1036D00004F02CF886F80190B57037E0044617F82E
:1036E000013B7BB31F2B06D9222B04D05C2B02D0CD
:1036F0002370204624E05C23237017F8012C601C03
:103700000C2A12D007D8092A13D00A2A0FD0082A67
:1037100012D162230EE0222A05D05C2A03D00D2AA2
:103720000AD1722306E062700AE0662302E06E238B
:1037300000E07423637003E0074904F01BFB601D85
:10374000441CCCE7464422227270B3700120BDE8CD
:10375000F88300BF70070108730701082DE9F843DB
:103760000D4600284CD000293FD084685AB9254B1B
:103770001E680EE0216A00293DD0284604F0CAFBED
:10378000002838D02468002CF4D131E0206A18B920
:103790002468002CFAD12BE085422CD000216B5CF0
:1037A000F21892F801C0425C0CF0030CB7187F7855
:1037B000BCF1010F07F003070CBF03F12009994684
:1037C000012F0CBF02F120089046C14503D1013101
:1037D000002BE4D10FE0BCF1010F08BF2033012F13
:1037E00008BF20329342D3D105E00846BDE8F883F4
:1037F0002046BDE8F883236A002B14BF2046002032
:10380000BDE8F8830409002010B503462820984736
:10381000044618B10021282204F064F8204610BDA7
:103820002DE9F0410E468AB00546002800F080815F
:10383000002900F07D81047B082C39D007DC022CA4
:103840002BD0042C15D0012C40F072811AE0202CD2
:1038500000F08B8007DC102C40F06A810069FFF7D4
:10386000F7FE044665E1402C00F0C380802C69D04F
:103870005EE108460521FFF7A4FE002800F058810C
:10388000A04912E008460621FFF79BFE002800F041
:103890004F819D4904F05CFC4BE108460521FFF790
:1038A00090FE002800F04481984904F051FC3DE16D
:1038B000D0E90645002200232046294602F0EEFD0D
:1038C0000022002303F052F803AF30B938468D4987
:1038D00004F03EFC4FF004081FE08D4922462B46C1
:1038E000384604F047FA8B4980466A46384604F069
:1038F00067FA012806D1DDE9000122462B4603F0D4
:1039000035F830B93846844922462B4604F032FA5D
:103910008046B8F1190F00F20B81304608F1010121
:10392000FFF74FFE002800F003810023434503D03A
:10393000FA5CC2540133F9E70022C254B26813445E
:10394000B360F3E00069002800F0F28004F05EFC50
:10395000441C21463046FFF734FE002800F0E88082
:103960002969224603F0E2FEE0E08468084601216E
:10397000FFF727FE002800F0DB805B230370B368AD
:103980000133B360F3680133F3603CB32046314642
:10399000FFF746FF002800F0CB803046FFF705FE1A
:1039A0002368CBB173693046002B0CBF012502257B
:1039B000691CFFF706FE002800F0BA802C23037074
:1039C00073690BB9431C02E02022831C4270002261
:1039D0001A70B3681D44B5602468D6E730460221EA
:1039E000FFF7EFFD002800F0A3805D230370447013
:1039F00099E04B698468002B0CBF0125022508461D
:103A0000691CFFF7DEFD002800F092807B23037025
:103A1000F3680133F36073690BB10A234370B36831
:103A20001D44B5607369002C56D083B13046F168EF
:103A3000FFF7C7FD00287BD00023F268934203D232
:103A40000922C2540133F8E7B3681A44B260206A0D
:103A50003146FFF7FDFD00286AD03046FFF7A5FD8F
:103A600073693046002B0CBF012502252946FFF75C
:103A7000A8FD00285CD03A23037073690BB10923B9
:103A80004370B36820461D44B5603146FFF7C8FE59
:103A900000284DD03046FFF788FD75692368003552
:103AA00018BF0125002B18BF01353046691CFFF7F0
:103AB00088FD00283CD0236813B12C23037001300B
:103AC000736913B10A230370013000230370B368D4
:103AD00024681D44B560A5E713B1F168013100E029
:103AE00002213046FFF76DFD10B37369BBB1034689
:103AF000F268191A013A914210D2092203F8012BF7
:103B0000F6E700BF48070108790701087F070108A9
:103B1000840701088B0701088F07010818467D23D9
:103B2000037000234370F368013BF360012400E05D
:103B3000002420460AB0BDE8F08100BF70B50646FB
:103B400068B104F063FB074B451C1B682846984787
:103B5000044628B131462A4603F0E8FD00E070BD76
:103B6000204670BD0C000020F8B514460646F8B19A
:103B7000F1B1EAB123B1D7680D4647F4007707E009
:103B80000846FFF7DBFF054690B1E76827F40077AA
:103B9000E3689B0504D4206A10B1064B5B68984724
:103BA0002562E76030462146BDE8F840FFF7EDBCEE
:103BB0000020F8BD0C000020F0B5234C8BB00D4662
:103BC00024220021064601A803F08CFE23684FF44E
:103BD000807098474FF48072034606950AAD0190B5
:103BE0000292274694E8070005E9070023B3304610
:103BF00001A9FFF715FEF8B101A8FFF7D6FCA568EB
:103C0000039925B101980131A847D0B914E0236880
:103C1000481C9847064678B1039A029B01329A42A3
:103C200028BF1A46019903F081FD039BF5540198C2
:103C300063689847304604E0019808B17B6898476C
:103C400000200BB0F0BD00BF0C00002070B5044692
:103C5000E4B1E3682668DA0503D4A06808B1FFF789
:103C6000F5FFE3680A4D13F4807F03D1206908B1A2
:103C70006B689847E3689B0503D4206A08B16B68BA
:103C8000984720466B6898473446E1E770BD00BF0F
:103C90000C000020000000002DE9F047074692B01C
:103CA0000E46002900F06E810D68002D00F06C8139
:103CB0008C68D1F8048004F10409C1450AD8281998
:103CC000A349042204F0D2FA20B90423FB60C6F809
:103CD00008907DE004F1050AC2450AD828199D49DB
:103CE000052204F0C3FA20B90120F860C6F808A044
:103CF0004DE1C1450CD828199749042204F0B6FAC1
:103D000030B902230120FB607861C6F808903EE1DB
:103D1000444580F03B812B5D2919222B04D1384684
:103D20003146FFF73AFB32E12D2B03D0A3F13002ED
:103D3000092A51D800220192C4EB0804A2420DF1D5
:103D4000080813D08B5C392B07D8302B09D22D2BC8
:103D500007D02E2B05D02B2B02E0452B01D0652B55
:103D600004D108F8023001323F2AE7D112AB1A44DD
:103D70004FF0000A404601A902F840AC05F014FDDE
:103D8000DDF804900446C1450D4623D06EA3D3E967
:103D90000023C7E9064502F007FE10B16FF00043AB
:103DA00008E02046294600226C4B02F0F3FD18B1D2
:103DB0004FF000437B6104E02046294602F008FEF4
:103DC00078610823FB60B368C8EB09084344B3601B
:103DD0000120DCE05046DAE05B2B50D1F368B3F50C
:103DE0007A7F80F0D3800133F3602B5D5B2B40F052
:103DF000CD800134B4603046FFF7A9FBB368726828
:103E000093425BD23268D25C5D2A2BD0013B4FF0EB
:103E10000008B36044463069FFF7F6FC054648B336
:103E200024B1C8F80000C0F8048000E00446B3687C
:103E300030460133B360FFF78AFB28463146FFF76F
:103E40002BFFD0B13046FFF782FBB3687268934214
:103E500013D23268D35C2C2B02D05D2B0DD102E043
:103E6000A846D8E70024F368013BF3602023FB60F9
:103E7000BC607FE0002C00F0898020467FE07B2B37
:103E800040F08480F368B3F57A7F7FD20133F3602A
:103E90002B5D7B2B7AD10134B4603046FFF757FBA2
:103EA000B3687268934209D23268D25C7D2A5AD0D4
:103EB000013B4FF00008B36045463AE0013BB36078
:103EC00064E0002D3CD0C8F80000C0F80480B3685E
:103ED00030460133B360FFF73AFB20463146FFF727
:103EE0005CFA00284AD03046FFF731FB236972683C
:103EF000236200232361B36893423FD23268D25CCD
:103F00003A2A3BD10133B3603046FFF720FB20460D
:103F10003146FFF7C1FE002830D03046FFF717FBCF
:103F2000B3687268934229D23268D35C2C2B17D1C4
:103F3000A0463069FFF768FC04460028C1D11CE0A8
:103F40000546C4E7AFF300800000C0FFFFFFDF417C
:103F500048070108790701087F0701080000E0C150
:103F60007D2B0BD100E00025F368013BF36040237B
:103F7000FB60BD60B368013329E73DB12846FFF718
:103F800065FE03E0084602E0284600E0002012B08B
:103F9000BDE8F087AFF300802DE9F04389B0044617
:103FA0000E46914601A800211C2203F09BFC2F4BDA
:103FB00000271F605F609846002C53D02046019474
:103FC00004F024F92A4B0130029093E8070008AB73
:103FD00003E90700FFF718FC0546002831D00198D7
:103FE00078B1039B53B9029B042B09D921490322C1
:103FF00004F03CF920B90323039301E0384600E0C4
:1040000001A8FFF7A4FA01462846FFF745FEA8B12C
:10401000B9F1000F05D17EB1039B019A13443360BF
:104020000AE001A8FFF793FA039B029A934205D294
:10403000019AD35C13B9EEE7284614E02846FFF74F
:1040400005FE039B029A934203D30AB1531E00E07C
:1040500013460EB1E2183260C8F80040C8F80430C8
:10406000002000E0204609B0BDE8F083BC1300202A
:104070000C0000209F07010800210A46FFF78CBFB3
:104080000021FFF799BD28B18368002013B10130EA
:104090001B68FBE77047002901DBFFF76EBA0020C1
:1040A00070470122FFF75ABBFFF76FBA10B5E8B1AE
:1040B000BAB1C1B18A4218D00B684C681360546021
:1040C00003B15A60536803B11A6083688B424FF0A2
:1040D000000308BF82600B604B600846FFF7B6FD27
:1040E00003E0104610BD084610BD012010BD0000C1
:1040F00008B5044B1868FFF787FB08B10423C360B9
:1041000008BD00BF0C00002070B505460E46FFF745
:10411000EFFF04463146284622460023FFF724FDE0
:10412000054620461DB9FFF791FD284670BD70BDBC
:10413000174B70B5044618680D46FFF765FB064639
:10414000F0B10823C360C0E906450FA3D3E90023FB
:104150002046294602F028FC10B16FF0004308E029
:104160002046294600220B4B02F014FC18B14FF0F8
:104170000043736104E02046294602F029FC706187
:10418000304670BDAFF300800000C0FFFFFFDF418D
:104190000C0000200000E0C138B50B4B0546186844
:1041A000FFF732FB044660B11023C3602846FFF7D7
:1041B000C5FC05462061204625B9FFF747FD284686
:1041C00038BD38BD38BD00BF0C00002008B5044B19
:1041D0001868FFF719FB08B12023C36008BD00BFB2
:1041E0000C00002008B5044B1868FFF70DFB08B160
:1041F0004023C36008BD00BF0C0000202DE9F84338
:10420000B1F10009804602DA0020BDE8F8830028F9
:10421000FAD0FFF7DBFF06460028F5D000273D4621
:104220004D4511D258F82500FFF7B6FF044618B9DE
:104230003046FFF70BFDE7E70DB9B06001E03860ED
:10424000476001352746EBE73046BDE8F88320B1EB
:10425000007BD0F1010038BF0020704720B1C0685A
:1042600010F0030018BF0120704718B1007B031F36
:1042700058425841704720B1007BB0F108035842C2
:104280005841704720B1007BB0F1100358425841AB
:10429000704720B1007BB0F120035842584170476D
:1042A00020B1007BB0F140035842584170470000F4
:1042B00008B5024B5B68984708BD00BF0C000020A2
:1042C000F8B506460D461F461446DAB1E1B1D3688B
:1042D0009B0503D4106A08B1FFF7EAFF2846FFF7F1
:1042E0002DFCE368206223F40073E36029463A461C
:1042F0003046FFF733FA224601463046FFF7D6FE36
:104300000120F8BD1046F8BD0846F8BD0123FFF7AF
:10431000D7BF122938B50546144608460BD01329D5
:1043200010D0112916D100F071F80CB120460FE021
:1043300047F6FF700CE000F069F8002CF6D149F662
:104340003F4005E000F062F8002CEFD14FF223402F
:1043500000F010F9284638BD13B50022044601A824
:10436000FFF7D7FF204602B010BD084600F0E8B8BE
:1043700000F0D4B8054B1B681B685B0103F1844354
:1043800094331A68002AFCD0704700BF1800002040
:10439000054B1B681B685B0103F184438C331A686F
:1043A000002AFCD0704700BF1800002008B5FFF7B6
:1043B000E1FF054B00221B681B685B0103F184438E
:1043C000C3F88C2008BD00BF1800002008B5FFF717
:1043D000D1FF054B01221B681B685B0103F184437D
:1043E000C3F8902008BD00BF1800002008B5FFF7F3
:1043F000C1FF054B00221B681B685B0103F184436E
:10440000C3F8902008BD00BF1800002010B5044676
:1044100000F0E9FA00F0F4FA204A112C136A23F4B0
:104420004073136213460BD005D8C4B1102C2AD1A7
:104430000023136227E0122C11D0132C1AD022E093
:10444000174A00211160012142F8081C154A126820
:1044500012F0FF0FFAD01A6A42F4807212E0124A88
:1044600001211160114A1268002AFBD01A6A42F435
:10447000007207E00E4A126812F0FF0FFAD01A6AB3
:1044800042F440721A620B4B01221A60FFF78EFF52
:10449000FFF77EFFBDE81040FFF76CBF0010024041
:1044A00008044242040442428004424284044242DC
:1044B000440042423C044242F8B5104B1E68356845
:1044C0002B686F681F4017F0010403D074680CB1AB
:1044D000A0470124BA0704D5B36813B1984744F044
:1044E00002047B0704D5F36813B1984744F0040431
:1044F0006B6823EA04046C60F8BD00BF180000205C
:1045000008B5044B1B681B691BB19847024B01227D
:104510001A6008BD18000020C482204208B5FFF7C9
:1045200045FFFFF735FFFFF725FF044B1B681B68AE
:104530009869DB699BB243EA004008BD180000207F
:1045400010B50446FFF732FFFFF722FFFFF712FF17
:10455000FFF73CFF064B220C1B68A4B21B689A6154
:10456000DC61FFF743FFBDE81040FFF703BF00BF6A
:104570001800002010B50446FFF718FFFFF708FFEA
:10458000FFF7F8FEFFF722FF064B220C1B68A4B2D0
:104590001B689A60DC60FFF729FFBDE81040FFF759
:1045A000E9BE00BF1800002001498D4601490847B7
:1045B00000500020B945000808B5124B124A19688E
:1045C000914201D0002301E0104B07E01048D418BD
:1045D0008442F9D2C858D0500433F7E70D4A9342C9
:1045E00003D2002243F8042BF8E702F08DFD0020EF
:1045F0000146024601F018FC074B0BB102F074FDB6
:10460000FEE700BF9C0E010800000020A81100205A
:10461000A8110020B8140020E970000808B50D4B5F
:104620001A680AB90C4A1A601B680C4AD21A8242EC
:1046300004DB09494242591A914206DA02F04EFD62
:104640000C2303604FF0FF3008BD024A184410608D
:10465000184608BDC4130020B8140020484B012898
:10466000FEE770470B4B10B5196809220A230A4868
:1046700000F0CAFE094B022219680948032300F022
:10468000C3FEBDE81040074B074819681A221B23D8
:1046900000F0BABE3C010020C813002040010020F9
:1046A000E013002044010020F813002010B5044658
:1046B00000F07EF9034B20461978BDE8104000F069
:1046C00013B900BF34000020F8B50446056800F0B7
:1046D0000FFB22680023510101F184410B6080210E
:1046E00029600121A9622B61EB606379696113B1D3
:1046F0008B4203D02BE04FF400436B644FF6FF7303
:10470000D36200256E1CF7B22046394600F0FAFA53
:10471000D0B1236848F6FF7103F1340242F8251046
:1047200018336D1017F0010F53F8252014BF6FF0E8
:10473000FF016FF47F4101EA020214BF68214FF4C8
:10474000D0410A4343F82520042E3546DAD12168AA
:1047500001224B01490103F1844301F18441C3F873
:1047600080220A60F8BD000038B5274B274C1A6834
:10477000022042F010021A6000F04EF900250020DD
:1047800000F0E0F965602368182023F4002323601B
:1047900000F0E5F9102000F0E2F900F043F8A56020
:1047A000102000F0CFF9102000F0E7F90028FAD02F
:1047B00000F039F8164800F0EDF9182000F0C2F9C1
:1047C000182000F0DAF90028FAD0022000F0AAF947
:1047D00000214FF0006000F087F90E4800F040FA29
:1047E00000F038F80C4B188800F0D0F80B4800F0B7
:1047F000D1F80B4800F068FA00F02EF800F02DF820
:10480000FFF72FFF38BD00BF00200240001002401C
:10481000380000203F19010036000020AD46000896
:10482000C9460008704708B50020014600F0F0F9BD
:1048300001204FF4806100F0EBF90021022000F02C
:10484000E7F92D2000F0F4F9BDE80840032000212D
:1048500000F0DEB900F0EAB8704700F027B90000B8
:10486000012007E0022005E0032003E0042001E02E
:104870000520FFE70D4A0121116072B60C4A0021A4
:104880001160074902B4084902B486B005498E4652
:10489000704700BFAFF30080AFF30080AFF300803C
:1048A00000000061F9FFFFFF2553000814ED00E050
:1048B00010E000E0AFF30080AFF30080AFF30080C2
:1048C000FEE710B50446007900F070F92079BDE8E4
:1048D000104000F083B903689A6822F4602242F421
:1048E0008012114399607047002370B51A461C4628
:1048F000072B4FEA430503DCEE1801FA06F63443B2
:104900001D4401FA05F501330A2B42EA0502EFD1F5
:104910000368DC601A6170BD38B5124D2A681368EF
:104920001C68A10706D5196821F002011960936877
:1049300003B19847620708D52B681A681B6911688C
:1049400021F00401116003B19847E30708D52B68F3
:104950001A68DB68116821F00101116003B1984702
:1049600038BD00BF64000020036801225B0103F131
:10497000844303F58673191F1A6018680028FCD158
:1049800043F8042C0B68002BFCD17047014604202F
:1049900000F03EB9044B10B504461868A047034B1D
:1049A0001868A04710BD00BF640000206000002010
:1049B00010B50446FFF785FF20464FF46021FFF74E
:1049C0008AFF2368012103F1404308335A015B0148
:1049D00002F1844203F18443116520461960BDE869
:1049E0001040FFF7C1BF08B5142000F0DFF8042025
:1049F00000F0DCF8BDE80840042000F0EFB800004B
:104A0000014B01221A60704720000E42014B002228
:104A10001A60704720000E42034B1A6822F007020A
:104A200010431860704700BF0020024008B50748D7
:104A300001F0EAFA064801F0E7FA064801F0E4FA64
:104A4000BDE80840044801F0DFBA00BF680000205C
:104A500070000020780000208000002070B501F078
:104A60000704A4000F25A5400368C80853F8206078
:104A7000092A26EA050514BF1646082606FA04F494
:104A8000082A44EA050443F8204006D1012000FA30
:104A900001F1DA6822EA010106E0092A05D10120C4
:104AA00000FA01F1DA681143D96070BD08B503203E
:104AB00000F07CF8BDE80840032000F08FB800004B
:104AC00000284FEA011105DA064B00F00F00C9B2C9
:104AD0001954704700F16040C9B200F5614080F898
:104AE0000013704714ED00E021F0604138B521F06B
:104AF0007F01084B0843986000241D4660B20F21D7
:104B00000134FFF7DDFF2B2CF8D1F02385F823309B
:104B100038BD00BF00ED00E0014B13F810007047F6
:104B2000D8090108064B5A6822F0030202435A6072
:104B300080005A6802F00C028242FAD1704700BF2E
:104B400000100240030A0121C0B201FA00F003F193
:104B5000804303F504331A68104318607047030A52
:104B60000121C0B201FA00F003F1804303F50433E0
:104B70001A6822EA000018607047030A0222C0B2D5
:104B800002FA00F003F1804303F504331B68184078
:104B900070470000044B05C85968126821F474116D
:104BA00002430A435A6070470010024010B50446A1
:104BB000FFF7B2FF074B53F82020074B03EB4404E9
:104BC000637803EBC2039B0003F1844301221A6064
:104BD00010BD00BF88000020D809010810B50446A8
:104BE000FFF79AFF084B53F82020084B03EB4404CF
:104BF000637803EBC2039B0003F1844301221A6034
:104C000000221A6010BD00BF94000020D8090108DE
:104C100010B5054B054C5A6854F8200022EA0002F2
:104C20001143596010BD00BF00100240340A010852
:104C300010B50446FFF770FF074B53F82020074BD1
:104C400003EB4404637803EBC2039B0003F184434A
:104C500000221A6010BD00BF9C000020D809010886
:104C6000024B072258601A60704700BF10E000E056
:104C700008B5044B1A6801321A60034B1B6803B174
:104C8000984708BDB01400201014002011F0010F47
:104C900070B542EA03030CBF0825002503FA05F5A9
:104CA000006801F1FF3400F11800C4F3400450F82B
:104CB000241014BF6FF0FF066FF47F463140294384
:104CC00040F8241070BD000010B504460448A04709
:104CD0000448A0470448A0470448A04710BD00BFAF
:104CE000F000002018010020A8000020CC000020C7
:104CF00010B504460079FFF759FF2079BDE8104050
:104D0000FFF76CBF03791E2B10D9212B0ED0202B5F
:104D10000ED9222B01D0252B04D102298CBF0020D3
:104D2000012070474B1E5842584170470120704780
:104D3000002070478B1C40F823200368012203F1F8
:104D400040430C3301EBC3039B0003F184431A601F
:104D500042790379FAB9B3F11A0253425341072950
:104D600045D8DFE801F004090909090E0E13002BEC
:104D70000CBF2C23192331E0002B0CBF2E231B2347
:104D80002CE0002B0CBF2D231A2327E0002B0CBF97
:104D90002B23182322E01B3B0C2B28D8DFE803F041
:104DA000071D090B0D0F2711131517191B001C23C5
:104DB00014E01E2312E0322310E036230EE03723E6
:104DC0000CE018230AE0192308E01A2306E02B233D
:104DD00004E02C2302E02D2300E01D2359090122C9
:104DE00003F01F0302FA03F3014A42F8213070472F
:104DF00000E100E00368002203F140430C3301EBC3
:104E0000C3039B0003F1844302311A6040F8212060
:104E1000704738B543790446022B0D463BD0032A30
:104E200039D8DFE802F002111F2DFFF7E3FF2368F6
:104E3000013D03F140432033DB0003EB85039B007E
:104E400003F18443002225E00368002203F140437C
:104E50000C3301EBC3039B0003F184431A6060220F
:104E6000082301E010220023FFF710FF2368013D13
:104E700003F140432033DB0003EB85039B0006E096
:104E800003684FF2F1229A6103229A605B0103F1F9
:104E9000844301221A6038BD10B5074B1C68E168D5
:104EA00022690A40120606D55B6A23B19847236936
:104EB00023F08003236110BDF000002010B5074BE4
:104EC0001C68E16822690A40D20706D59B6823B1B5
:104ED0009847236923F00103236110BDF0000020EF
:104EE000F8B50C4F3D68EB682E691E4016F0400483
:104EF00003D03C6A0CB1A0474024B30604D5FB693B
:104F000013B1984744F020042B6923EA04042C6170
:104F1000F8BD00BFF0000020F8B5134F3E68F368FD
:104F200035691D4015F0100403D0BC690CB1A047D1
:104F30001024290704D57B6913B1984744F008046D
:104F40006A0704D53B6913B1984744F00404AB07E2
:104F500004D5FB6813B1984744F00204336923EA8F
:104F600004043461F8BD00BFF0000020F8B51A4E0B
:104F70003768FB683D691D4015F0400403D0346A72
:104F80000CB1A0474024EB0604D5B36913B1984790
:104F900044F01004280704D5736913B1984744F00E
:104FA0000804690704D5336913B1984744F0040431
:104FB000AA0704D5F36813B1984744F00204EB073D
:104FC00004D5B36813B1984744F001043B6923EA60
:104FD00004043C61F8BD00BF18010020F8B51A4E6A
:104FE0003768FB683D691D4015F0400403D0346A02
:104FF0000CB1A0474024EB0604D5B36913B1984720
:1050000044F01004280704D5736913B1984744F09D
:105010000804690704D5336913B1984744F00404C0
:10502000AA0704D5F36813B1984744F00204EB07CC
:1050300004D5B36813B1984744F001043B6923EAEF
:1050400004043C61F8BD00BFA8000020F8B51A4E6A
:105050003768FB683D691D4015F0400403D0346A91
:105060000CB1A0474024EB0604D5B36913B19847AF
:1050700044F01004280704D5736913B1984744F02D
:105080000804690704D5336913B1984744F0040450
:10509000AA0704D5F36813B1984744F00204EB075C
:1050A00004D5B36813B1984744F001043B6923EA7F
:1050B00004043C61F8BD00BFCC0000208188026878
:1050C000034689B2505C99881A8989B292B291429A
:1050D00017BF9A880022013292B2C0B29A807047FC
:1050E000C28838B5838892B29BB201329A42044694
:1050F0000D461AD0C288038992B29BB29A4202D15D
:1051000083889BB28BB14FF0FF30E288236892B264
:105110009D54E288238992B29BB29A4217BFE388DA
:10512000002301339BB2E38038BD2046FFF7C6FF62
:10513000EBE770B51E460546084611460422059C5D
:10514000FFF78CFC9DF810100B223046FFF786FC11
:105150002B6804F00F01DA6804F0300422F4F052F6
:105160001204120C42EA4122DA601A6922F4405217
:105170001204120C42EA04241C6170BD38B50446C6
:10518000154611B900F096F8014619235943AD00B0
:105190006423B1FBF5F1B1FBF3F21201100903FB3B
:1051A000101109013231B1FBF3F303F00F03216851
:1051B0001A4392B28A6038BD38B5114DEB68980633
:1051C00007D52B68990604D569680E48C9B2FFF760
:1051D00087FFEB680A4C1A0611D523681B060ED50B
:1051E00009488288C38892B29BB29A4203D0FFF7E3
:1051F00065FF606038BDE36823F08003E36038BD7D
:1052000000380140201400201414002038B5114D3E
:10521000EB68980607D52B68990604D569680E488F
:10522000C9B2FFF75DFFEB680A4C1A0611D5236877
:105230001B060ED509488288C38892B29BB29A4257
:1052400003D0FFF73BFF606038BDE36823F08003C5
:10525000E36038BD004400402C14002044140020BA
:1052600038B5114DEB68980607D52B68990604D51B
:1052700069680E48C9B2FFF733FFEB680A4C1A069B
:1052800011D523681B060ED509488288C38892B2BF
:105290009BB29A4203D0FFF711FF606038BDE3680C
:1052A00023F08003E36038BD00480040381400203C
:1052B0005014002008B590F89002FFF72DFC20B1A3
:1052C0000128034818BF002008BD024808BD00BFE0
:1052D00000A24A040051250208B5114B01211C68A7
:1052E00003222046FFF7BAFB002301211A4693420E
:1052F000206834BF02254FF40035B2F5007F056108
:1053000003F1010303D0002A08BF012101E04FF09F
:10531000FF31B3F5007F04BF52180023E7E700BF59
:10532000D409010808B5034B0BB1AFF3008062B696
:10533000FFF7D2FF0000000003695B68D9889A88F4
:1053400089B292B2D8888A1A998880B289B2884282
:1053500003D2198989B201310A4492B282B1998883
:105360001A6889B2505C99881A8989B292B29142BE
:1053700017BF9A880022013292B2C0B29A80704759
:105380004FF0FF30704703695B689988DA8889B20B
:1053900092B2914205D09A881B6892B2985CC0B2D2
:1053A00070474FF0FF30704703699A689088D18842
:1053B00080B289B28842F9D11A6813685B06FCD5BD
:1053C000704713B504698DF8071020460DF10701E9
:1053D000012200F057FE0028F7D0012002B010BDD6
:1053E00003695B68D8889A8880B292B2D988801A9B
:1053F0009A8889B292B2914203D21B899BB201333F
:10540000184480B27047000030B5002545604FF465
:105410007A758560024D016105600275437530BD86
:10542000500A010803692DE9F74FDB6804469942E9
:105430000F4692462CD890F81480174D4FEA081862
:1054400008EB050690F8159070684FEA091909EB0A
:10545000050B717B10B10022FFF7DBFC206900F027
:10546000DDFD337B9BF80C2020698DE8080459F89A
:10547000051058F80530FFF75CFE206900213A4618
:10548000FFF77CFE206903B0BDE8F04F00F0F0BDEF
:1054900003B0BDE8F08F00BFA40701080022FFF7AA
:1054A000C1BF0000044B02791B789A4202D1034B22
:1054B0001B681860704700BF6C1400207014002037
:1054C000002310B50446036072B6054B19311970FC
:1054D000044B18600448FFF7F7FB62B6204610BD86
:1054E0006C14002070140020A554000803680022EA
:1054F0001B685B0103F184431A6070470368012253
:105500001B685B0103F184431A607047036801392B
:105510001B6889B29962704703681B68DA6A92B2A5
:10552000914228BF11465962704738B5054639B9CE
:10553000036801221B689962DA62D86A80B238BDBA
:1055400048244C434FF6FF71B4FBF1F1013189B2AD
:1055500004EB5104B4FBF1F4FFF7D8FF2B68A4B2BD
:105560001B682046DC6238BD0068C9B2FFF7E2BBA9
:1055700008B501210848FFF7A3FF02210748FFF7FC
:105580009FFF03210648FFF79BFFBDE80840054841
:105590000421FFF795BF00BF5C14002060140020B9
:1055A00064140020681400202DE9F041002407460F
:1055B0000E4625463B1919790A22304600F01DF99E
:1055C0002E218046304600F04DF801344044032C33
:1055D0000544EFD13046F9790A2200F00EF928444B
:1055E000BDE8F08130B58371034D9DF80C30056046
:1055F00001714271C37130BD780A0108044B054A3C
:105600001A6000221A715A719A71DA71704700BFDC
:1056100074140020780A010870B505460E4600246F
:10562000315D29B12A682846126890470134F7E7AE
:10563000204670BDF8B505460C4616468F18BC428C
:1056400006D02B6828461B6814F8011B9847F6E71C
:105650003046F8BD10B502680B46946809689A6830
:10566000A04710BD08B503681B68984708BD08B57A
:1056700003685B68984708BDFFF7F9BF10B50A6873
:105680000446126808462146904710BD38B50D21E2
:105690000546FFF7E7FF0A2104462846FFF7E2FF29
:1056A000204438BD38B50446FFF7D4FF05462046F0
:1056B000FFF7ECFF284438BD38B50446FFF7D7FFA5
:1056C00005462046FFF7E2FF284438BD38B50446BA
:1056D000FFF7CDFF05462046FFF7D8FF284438BD29
:1056E00038B50446FFF7CAFF05462046FFF7CEFF50
:1056F000284438BD2DE9F04F14461D4691B054EAB8
:10570000050381469DF868B004D13021FFF7AAFF58
:1057100001202EE04FF000085FFA8BF600272046AC
:10572000294632463B4601F0CBF908F101080DF15C
:10573000000AC2440AF8012C204629463B4632465C
:1057400001F0BEF904460D4654EA0503E4D10024F5
:1057500008F1FF381DF808104846092994BF303178
:105760003731C9B2FFF77EFF0444B8F1000FEFD123
:10577000204611B0BDE8F08F2DE9F041069F0646A6
:1057800014461D462FB90368D1B21B689847BDE87F
:10579000F081002C75F1000305DA2D21FFF762FF7F
:1057A000644265EB4505FFB20697304622462B461C
:1057B000BDE8F041FFF79EBF07B5CB1700920A4640
:1057C000FFF7DAFF03B05DF804FB38B50446FFF7D6
:1057D000F3FF05462046FFF759FF284438BD70B552
:1057E000049921B90368D1B21B68984770BDC9B24A
:1057F0000491BDE87040FFF77DBF07B5002300921C
:10580000CAB2FFF7ECFF03B05DF804FB38B50446FD
:10581000FFF7F3FF05462046FFF738FF284438BD61
:1058200007B5002300920A46FFF7D9FF03B05DF8E1
:1058300004FB000038B50A4B04461A681D46C260D6
:105840002268204613699847002807DAE2682B6827
:105850009B1AA2689342F3D34FF0FF3038BD00BFCC
:10586000B014002070B50D4609490446164600F0F4
:1058700063F82846FFF7DEFF01460029204605DBD6
:10588000B14203D0C9B200F0FAF8F2E770BD00BF30
:105890002EFF000870470022026010B50C684260BD
:1058A00004604C68826044608C6884600A604A606E
:1058B0008A6010BD10B50446006801F05FFC204608
:1058C00010BD10B50446006808B101F057FC002374
:1058D0002360A360636010BD38B504460D460068C0
:1058E000013102F04DF810B184E82100012038BDEB
:1058F000036810B5044613B143688B4207D22046B3
:10590000FFF7EAFF20B1A3680BB9226813700120EA
:1059100010BD70B50E46114604461546FFF7E8FF68
:1059200018B92046FFF7CDFF04E0A5602068314696
:1059300002F00EFC204670BD38B50023044603601B
:10594000436083600D4639B1084602F05FFC29468A
:1059500002462046FFF7DDFF204638BD38B5054634
:1059600000680C4678B1096859B10C4B4BB16A68B4
:10597000A3689A4205D302F0EBFBA368AB60002357
:105980000AE001F0FBFB23682B6063686B60A3688F
:10599000AB60002323606360A36038BD95580008A6
:1059A000884210B50B46044607D0096819B19A68B9
:1059B000FFF7AFFF01E0FFF784FF204610BD10B5F1
:1059C00000230446036043608360FFF7E9FF20463D
:1059D00010BD884210B5044601D0FFF7BFFF204636
:1059E00010BD38B505460C4641B1084602F00EFC24
:1059F000214602462846FFF78CFF01E0FFF761FFD2
:105A0000284638BD10B500238AB0044603604360C1
:105A10008360084601A900F0CAFA204601A9FFF7F1
:105A2000E0FF20460AB010BD70B5044685680E46FA
:105A300009B9002070BD62B115442946FFF758FF2F
:105A40000028F6D02068A3683146184402F080FB95
:105A5000A560012070BD0B469A680968FFF7E4BF96
:105A600038B505460C46084641B102F0CFFB214649
:105A700002462846BDE83840FFF7D6BF38BD07B517
:105A800000238DF80410012201A98DF80530FFF7DD
:105A9000CBFF03B05DF804FB13B50A2204460846A9
:105AA00001A900F084FA01A802F0B0FB01A90246A6
:105AB0002046FFF7B9FF02B010BD1FB504460A2209
:105AC0000846694600F073FA684602F09FFB694693
:105AD00002462046FFF7A8FF04B010BD1FB50446DC
