:020000040800F2
:100000000050002079480008314B0008354B0008AB
:10001000394B00083D4B0008414B0008914B00084C
:10002000914B0008914B0008914B0008914B000840
:10003000914B0008914B0008914B0008414F00087C
:10004000914B0008914B0008914B0008894700082C
:10005000914B0008914B0008914B0008914B000810
:10006000914B0008914B0008914B0008914B000800
:10007000914B0008914B0008914B0008914B0008F0
:10008000914B0008914B0008E94B0008914B000888
:10009000914B0008914B0008914B0008914B0008D0
:1000A000695100088D510008B1510008E95100085C
:1000B0003D520008AD5200081D530008914B000846
:1000C000914B0008914B0008914B0008914B0008A0
:1000D000914B000889540008DD5400083155000890
:1000E000914B0008D1470008914B000810B5054C12
:1000F000237833B9044B13B10448AFF300800123D4
:10010000237010BDA81100200000000020EC0008A2
:1001100008B5064B1BB106480649AFF300800648F8
:10012000036813B1054B03B1984708BD00000000F8
:1001300020EC0008AC110020A811002000000000F5
:10014000012902D11C30C0B27047062984BF01F1D9
:10015000FF31C9B211F0010F14BF1E201F207047DC
:10016000444B2DE9F047B1FBF3F603FB16113C239A
:10017000B1FBF3F203FB1212054602704FF461600B
:10018000B1FBF0F200FB1211B1FBF3F36B704FF413
:10019000FA63AA70B6B2EB80EC884FF4C873B4FB74
:1001A000F3F803FB18481FFA88F8B8F1000F16D0CF
:1001B0006423B4FBF3F203FB12439BB2002B53D036
:1001C00014F0030140F26D130CBF4FF4B7721A46DE
:1001D00096420EDB002908BF4FF4B77304E0B6F572
:1001E000B77F06DB4FF4B773F61A0134B6B2EC8072
:1001F000D2E700236B716423B4FBF3F703FB1747CB
:10020000BFB2B8F1000F06D03FB114F0030F14BF16
:100210000020012002E0012000E0384695F805901A
:10022000C0B24946FFF78CFF864209F1010A15D397
:10023000B8F1000F06D03FB114F0030F14BF002037
:10024000012002E0012000E03846C0B24946FFF735
:1002500077FF301A86B285F805A0D2E701362E71F5
:1002600085F805A0BDE8F087B6F5B67FC1DD40F2A0
:100270006D13B9E780510100F8B5427887783C23C7
:1002800003FB072702780579467903FB0727013D21
:10029000013EEDB2F6B2044605714671013E731C93
:1002A000E38834D04FF4C872B3FBF2F102FB113291
:1002B00092B262B16422B3FBF2F002FB103080B262
:1002C00030B113F0030F14BF0020012000E0012023
:1002D000C0B2F1B2FFF734FF284485B2DEE74FF435
:1002E000C872B3FBF2F102FB113292B2AAB16422DE
:1002F000B3FBF2F102FB113292B28AB113F0030F99
:1003000040F26D1208BF4FF4B7721544ADB2013B15
:100310009BB2B3F5FA6FE2D205E04FF4B772F4E79F
:1003200040F26D12F1E7024800FB0570F8BD00BF16
:100330008051010002F090BE38B50D46044602F02F
:10034000A6FE290A49006039204601F0FE0102F0AC
:1003500035FF204602F00BFFE9B2204602F02EFFE7
:10036000204602F004FF204602F091FE2046A12123
:1003700002F024FF204602F0FAFE0021204602F09F
:1003800044FF0546204602F0D5FE204602F09AFEC4
:10039000284638BD70B50D461646044602F077FE75
:1003A000290A49006039204601F0FE0102F006FFEB
:1003B000204602F0DCFEE9B2204602F0FFFE2046B5
:1003C00002F0D5FE3146204602F0F8FE204602F04B
:1003D000CEFE204602F076FEBDE870400A2005F011
:1003E00001BF1520012105F0E7BE1520002105F011
:1003F000E3BE10B500210446152005F085FE15204A
:10040000012105F0D9FE2046BDE81040FFF792BF5C
:1004100038B50C460546FFF7E8FF2846012122467D
:10042000FFF7B8FFFFF7DDFF28460121FFF784FF44
:10043000A042064804D1064905F0A6FA012038BDBD
:10044000044905F0A1FA002038BD00BFCC130020FC
:1004500018FE000842FE00080121FFF76DBF0000F2
:1004600038B50D460446FFF7C0FF042D16D8DFE867
:1004700005F003060C0F12002046022101E0204681
:1004800003210122FFF786FF0CE020460421F8E754
:1004900020460521F5E720460621F2E723482449B6
:1004A00005F072FAFFF79DFF042D39D8DFE805F05B
:1004B000030D17212B0020460221FFF73DFF0128E5
:1004C000044631D119481B4926E020460321FFF795
:1004D00033FF0128044627D1144817491CE0204661
:1004E0000421FFF729FF012804461DD10F481349B5
:1004F00012E020460521FFF71FFF0128044613D113
:100500000A480F4908E020460621FFF715FF012899
:10051000044609D105480B4905F036FA204638BD96
:100520000248034905F030FA002038BDCC13002002
:10053000BCFE0008D7FE0008F1FE00080BFF000813
:1005400025FF00083FFF000838B50446FFF74DFFC0
:1005500000256B1E2046032B03D8DFE803F00406BA
:10056000080A022106E0032104E0042102E005213B
:1005700000E0062100220135FFF70CFF052DE8D130
:10058000FFF72FFF20460221FFF7D6FEC8B920460D
:100590000321FFF7D1FEA0B920460421FFF7CCFECE
:1005A00078B920462946FFF7C7FE50B920460621F4
:1005B000FFF7C2FE28B90649064805F0E5F9012013
:1005C00038BD0549034805F0DFF9002038BD00BFFC
:1005D00059FF0008CC13002072FF000838B50C4604
:1005E0000546FFF702FF28462246A721FFF7D2FE65
:1005F000FFF7F7FE2846A721FFF79EFE031B584290
:10060000584138BD38B50C460546FFF7EEFE284682
:100610002246A821FFF7BEFEFFF7E3FE2846A821E9
:10062000FFF78AFE031B5842584138BD38B50B7896
:100630004A7803EB83034A4C03EB830302EB830307
:10064000E3808B780D466371CB78464823710B7934
:10065000A3704B7963708B794349237005F06FF970
:10066000E1880A223F4805F018FA40493D4805F064
:1006700066F961790A223B4805F030FA3C4939486D
:1006800005F05DF921790A22364805F027FA394943
:10069000344805F054F9A1780A22324805F01EFAD0
:1006A0003549304805F04BF961780A222D4805F0AC
:1006B00015FA32492B4805F042F90A2221782948D7
:1006C00005F00CFA04F004FB642005F08BFD2046D5
:1006D000FFF7D2FD01462A4803F0AFFF642005F082
:1006E00081FD04F0FBFA264803F0AAFF01462046EC
:1006F000FFF736FDE2886423B2FBF3F32B70E28848
:100700004FF47A73B2FBF3F103FB11236B7063793F
:10071000AB702379EB70A3782B7163786B712378BE
:100720000024AB71295D0A220E4805F0CEF9013490
:100730000C48144905F003F9072CF3D11249094874
:1007400005F0FDF8074805F009F91049054805F0DE
:100750001BF9BDE8384003480D4905F015B900BF45
:1007600068120020CC13002094FF00089BFF0008B3
:10077000A3FF0008A9FF0008B0FF0008BAFF0008A7
:1007800071120020A6090108C4FF0008CAFF000872
:100790009602010838B51B480C4603F051FF1A4D6C
:1007A00001462846FFF7DCFCEA886423B2FBF3F33A
:1007B0002370EA884FF47A73B2FBF3F103FB112341
:1007C00063706B79A3702B79E370AB7823716B78CE
:1007D00063712B780025A371615D0A220B4805F037
:1007E00074F9013509480A4905F0A9F8072DF3D134
:1007F0000648084905F0A3F8BDE83840034805F06D
:10080000ADB800BF7112002068120020CC13002088
:10081000A6090108C4FF000870B586B015466846F1
:100820000A221E460C4605F055FA694603A805F053
:100830002EFA214903A805F0D7FA294605F0F0FA67
:100840001D4905F0D1FA314605F0EAFA1B4905F0D9
:10085000CBFA01461A4805F065F803A805F092F9AD
:10086000684605F08FF96422B4FBF2F302FB1344EF
:10087000DBB2E4B2132B84BFA418E4B204EB9401FE
:100880000722B1FBF2F3C3EBC303CB1A0D49294492
:1008900011F8011C0E443344A1079BB204D1022D70
:1008A0009CBF03F1FF339BB2B3FBF2F2C2EBC20277
:1008B000981AC0B206B070BD9D040108410001083D
:1008C000CC13002088FF00080148112103F0ACBEC2
:1008D00071120020064B1A6801321A601A681D2A2C
:1008E00004D900221A60034B01221A70704700BF1E
:1008F000741200207812002010B5094C09492046D6
:1009000004F07BFF20460121074A04F095FF2046B2
:10091000002104F069FF2046BDE8104004F04EBFFE
:100920006414002040420F00D508000810B5054CA3
:10093000204604F04BFF20460021BDE8104004F0A3
:1009400053BF00BF6414002010B54C4C8AB04C4912
:10095000204605F019F801A802F0E2FC494A07A870
:1009600001A902F007FE484B07A8196802F0E6FD4E
:1009700007A802F0ABFC454A07A801A902F0FAFD5E
:1009800007A8434902F0F2FD07A802F09FFC414A84
:1009900007A801A902F0EEFD07A83F4902F0E6FD15
:1009A00007A802F093FC3D4A07A801A902F0E2FD66
:1009B00007A83B4902F0DAFD07A802F087FC394A94
:1009C00007A801A902F0D6FD07A8022102F0B6FD92
:1009D00007A802F07BFC344A07A801A902F0CAFD6F
:1009E00007A8324902F0C2FD07A802F06FFC304AA6
:1009F00007A801A902F0BEFD07A82E4902F0B6FD26
:100A000007A802F063FC20462B4904F098FF07A8D2
:100A100001A902F0B7FC07A9204604F0C9FF07A806
:100A200002F054FC01AA04A8244902F030FC07A8F3
:100A3000234905F0E9F804A907A805F0C8F901461B
:100A4000204604F097FF07A805F09CF804A907A822
:100A500005F01DF907A91B4801F00EFF07A805F0D6
:100A600091F81949204604F08FFF04A805F08AF890
:100A700001A802F02BFC0AB010BD00BFCC1300206F
:100A8000960201083E060108941300207200010836
:100A900098120020BD0601089C1300207700010871
:100AA000A41200207B0001088100010858130020D7
:100AB000870001087C1300208D000108B01300207E
:100AC000A000010888130020BC00010870B5314C5B
:100AD0008AB00E4620463049154604F055FF01A85D
:100AE00002F01EFC2D4A07A801A902F043FD07A849
:100AF0002B4902F03BFD07A802F0E8FB294A07A8B2
:100B000001A902F037FD314607A802F017FD07A83A
:100B100002F0DCFB244A07A801A902F02BFD2946BC
:100B200007A802F00BFD07A802F0D0FB20461F49E2
:100B300004F005FF07A801A902F024FC07A920463C
:100B400004F036FF07A802F0C1FB01AA04A8184967
:100B500002F09DFB2046174904F0F1FE04A920464F
:100B600004F008FF04A907A805F091F807A91248A6
:100B700001F082FE07A805F005F81049204604F0B0
:100B800003FF04A804F0FEFF01A802F09FFB0AB0D7
:100B900070BD00BFCC13002096020108720001084E
:100BA00098120020D0000108D6000108DA000108E0
:100BB000B0130020A000010888130020EE000108F7
:100BC00030B550498DB0504804F0DEFE4F4830211A
:100BD000102206F0EFFF00244D4B13F82450284656
:100BE00005F0D4FA08B9312205E0284605F0CEFA1E
:100BF000012802D13022454BE2540134022CEBD1C2
:100C0000684602F08DFB434A09A8694602F0B2FC2F
:100C100009A8414902F0AAFC09A802F057FB06A85E
:100C20003E4904F0F1FF06A909A805F030F809A82B
:100C3000394905F0CCF80146334804F09BFE09A879
:100C400004F0A0FF06A804F09DFF03A82F4904F0BC
:100C5000DBFF06A8324904F0D7FF06A909A805F072
:100C600016F803A909A805F0B2F80146264804F0D1
:100C700081FE09A804F086FF06A804F083FF294A34
:100C800009A8694602F076FC03A909A802F06EFCE7
:100C900009A802F01BFB24491B4804F050FE09A8D8
:100CA000694602F06FFB09A9174804F081FE09A804
:100CB00002F00CFB6A4606A81C4902F0E8FA1C493F
:100CC000114804F03CFE06A90F4804F053FE06A9A3
:100CD00009A804F0DCFF09A9164801F0CDFD09A818
:100CE00004F050FF1449084804F04EFE06A804F032
:100CF00049FF03A804F046FF684602F0E7FA0DB08A
:100D000030BD00BF96020108CC13002084120020E1
:100D10006402010872000108981200200E01010807
:100D2000140101081D010108DA000108B0130020B8
:100D3000A00001088813002025010108F0B55248E1
:100D40008DB00F465149164604F01EFE5048302122
:100D5000102206F02FFF00244E4B13F82450284693
:100D600005F014FA08B9312205E0284605F00EFA1C
:100D7000012802D13022464BE2540134022CEBD13F
:100D8000684602F0CDFA444A09A8694602F0F2FB2F
:100D900009A8424902F0EAFB09A802F097FA404A82
:100DA00009A8694602F0E6FB394609A802F0C6FB2D
:100DB00009A802F08BFA3B4A09A8694602F0DAFB5F
:100DC000314609A802F0BAFB09A802F07FFA03A88D
:100DD0002F4904F019FF06A8334904F015FF06A9AE
:100DE00009A804F054FF03A909A804F0F0FF014684
:100DF000254804F0BFFD09A804F0C4FE06A804F0CD
:100E0000C1FE2A4A09A8694602F0B4FB03A909A851
:100E100002F0ACFB09A802F059FA25491A4804F07F
:100E20008EFD09A8694602F0ADFA09A9164804F03A
:100E3000BFFD09A802F04AFA6A4606A81D4902F059
:100E400026FA1D49104804F07AFD06A90E4804F060
:100E500091FD06A909A804F01AFF09A9174801F095
:100E60000BFD09A804F08EFE1549074804F08CFD1F
:100E700006A804F087FE03A804F084FE684602F08A
:100E800025FA0DB0F0BD00BFCC130020960201087A
:100E900084120020640201087200010898120020E8
:100EA0000C09010840010108140101081D01010895
:100EB000DA000108B0130020A00001088813002008
:100EC0004701010800B5002389B0009301934878D9
:100ED00011F8022B3038303A02EB820200EB42026A
:100EE0000DF803200133072BF1D169461A48FFF7AB
:100EF0009DFB69461848FFF74DFC9DF800309DF8B2
:100F0000012003EB830303EB830302EB830189B22C
:100F10009DF802209DF803300F48FFF77DFC0F4934
:100F20008DF8070002A804F06FFE02A905A804F0DE
:100F3000AEFE9DF8071005A804F072FF01460848B0
:100F400004F018FD05A804F01DFE02A804F01AFE26
:100F500009B05DF804FB00BF7012002075010108A4
:100F6000CC130020012A38B50C46154611D10229B0
:100F70000BD0FF2904D0012920D1144800211AE008
:100F8000002112480A4602F023F8104829460022A0
:100F900012E09AB902290CD0FF2905D001290DD100
:100FA00011460A48224607E011460848012202F08D
:100FB0000FF8064801210A4602F00AF821462A469F
:100FC0000348BDE83840FFF781BD00BFAC130020E7
:100FD0007912002030B50D4687B000242B5D312BEF
:100FE00003D11A48E1B2002204E0302B05D11748A2
:100FF000E1B2012201F0ECFF1FE01549154804F0B1
:10100000C3FC1549684604F0FFFD694603A804F0D7
:101010003EFE214603A804F017FF104904F0E4FE49
:10102000295D04F0F3FE01460A4804F0A3FC03A87E
:1010300004F0A8FD684604F0A5FD0134022CCDD1D2
:101040000748FFF7BDFD07B030BD00BFAC1300205F
:101050007B010108CC130020820101088C010108EA
:101060007912002070B5A0B00C4606A8A74904F07C
:10107000CBFDA64909A804F0C7FDA4490CA804F0BB
:10108000C3FD0FA8A249224602F0FAF8A14A0FA90F
:1010900012A802F06FFAA04804F060FC9F499E4835
:1010A00004F04DFC12A802F055F90A2201469A48B4
:1010B00004F0F3FC984804F051FC12A802F04AF93D
:1010C000052804DD9649944804F05EFC06E0954846
:1010D000FFF73AFA10B1944D002401E0002403E137
:1010E00012A802F037F9844280F0D880224615A871
:1010F00012A902F05FFA8D4A15A918A802F03AFA6F
:1011000018A802F01EF9014606A804F0D2FD18A89E
:1011100002F0DCF815A802F0D9F8089A0023013291
:10112000A5F1080606A8694604F0C1FE30466946E6
:1011300007F076F97E4915A804F066FD15A918A8F0
:1011400004F0A5FD214618A804F07EFE794904F0BC
:101150004BFE314604F048FE01466F4804F00AFC9D
:1011600018A804F00FFD15A804F00CFD224615A8E0
:1011700012A902F01FFA704A15A918A802F0FAF98C
:1011800018A802F0DEF8014609A804F092FD18A89C
:1011900002F09CF815A802F099F80B9A002301328E
:1011A00009A803A904F083FE284603A907F038F92B
:1011B0005F4915A804F028FD15A918A804F067FDDB
:1011C000214618A804F040FE5C4904F00DFE2946B3
:1011D00004F00AFE0146504804F0CCFB18A804F0C5
:1011E000D1FC15A804F0CEFC224615A812A902F0E5
:1011F000E1F9534A15A918A802F0BCF918A802F0A1
:10120000A0F801460CA804F054FD18A802F05EF8FE
:1012100015A802F05BF80E9A00230CA81BA9013256
:1012200004F045FE224615A812A902F0C3F9444A6B
:1012300015A918A802F09EF918A802F082F805F185
:1012400008060146304607F0EBF818A802F03EF811
:1012500015A802F03BF8364915A804F0D5FC15A9ED
:1012600018A804F014FD214618A804F0EDFD354936
:1012700004F0BAFD314604F0B7FD0146264804F0FB
:1012800079FB18A804F07EFC15A804F07BFCE1B201
:101290002448FFF7E5F80134203521E70FA92A4A51
:1012A00018A802F067F918A802F042F8274C20703D
:1012B00018A802F00BF81B482178FFF78FF90028D7
:1012C0003FF40CAF0FA9224A18A802F053F918A84E
:1012D00002F02EF81F4C207018A801F0F7FF2178BB
:1012E0001048FFF78FF9044612A801F0EFFF0FA88E
:1012F00001F0ECFF0CA804F045FC09A804F042FC46
:1013000006A804F03FFC204620B070BD96020108FC
:10131000B01300208F010108CC13002094010108B4
:10132000B7010108C5110020CF110020CA01010832
:10133000D0010108DD010108E8010108EC01010804
:10134000F5010108FC01010808020108C411002090
:10135000110201086712002013B5026802AB03F8FE
:10136000011D546A19460122A04702B010BD07B5FD
:1013700003680DF107019B6A0122984701280CBF01
:101380009DF807004FF0FF3003B05DF804FB4FF00D
:10139000FF30704708B50369186803689B69984770
:1013A00008BD036810B5DB680446984708B9207F7C
:1013B00010BD012010BD08B503681B6B98470030B5
:1013C00018BF012008BD0000F0B585B00C460646E8
:1013D000194901A81746194D04F016FC01A810215F
:1013E00004F0EEFB217901A804F0BEFC294601A817
:1013F00004F09EFC617901A804F0B6FC294601A81E
:1014000004F096FCA17901A804F0AEFC294601A8DD
:1014100004F08EFCE17901A804F0A6FC3368019980
:101420001B6A3A4630469847044601A804F0AAFBD6
:10143000204605B0F0BD00BF960201089D040108DA
:1014400010B5044620680368DB68984710B904F0BB
:10145000C9FEF7E7206803681B6998472C28F1D17B
:10146000012010BD2DE9F04F054687B08A46104691
:1014700040211E461446129F04F0A2FB8F4BD3F866
:1014800000B0002004F0AEFE28680368DB689847CF
:10149000002840F3E480286803681B699847011E10
:1014A000F2DD2046C9B204F052FC16B9109BA3B974
:1014B00010E0314603A804F0A7FB204603A904F07E
:1014C000E0FC814603A804F05DFBB9F1000FEDD00C
:1014D0000120EFE0119B9BB910E0109903A804F0E4
:1014E00093FB204603A904F0CCFC814603A804F03A
:1014F00049FBB9F1000FEDD00220DBE0A7B910E005
:10150000119903A804F080FB204603A904F0B9FC5C
:10151000814603A804F036FBB9F1000FEED003209A
:10152000C8E0139B0BBB10E0394603A804F06CFB2A
:10153000204603A904F0A5FC814603A804F022FB81
:10154000B9F1000FEDD00420B4E05D4903A804F028
:101550005BFB204603A904F094FC814603A804F039
:1015600011FBB9F1000F11D139E0139903A804F070
:101570004BFB204603A904F084FC814603A804F039
:1015800001FBB9F1000FE0D0052093E0684629681F
:101590002C2204F0CFFA684604F0A7FD012881460A
:1015A00015D129680A2203A804F0C4FA03A804F09C
:1015B0009CFD804603A804F0E5FA2046414904F06A
:1015C00078FB05EB88035B6883F81D9003E02046F9
:1015D000694604F0A8FB684604F0D4FA54E73A4997
:1015E00003A804F011FB204603A904F04AFC80463E
:1015F00003A804F0C7FAB8F1000F3FF445AF334930
:1016000003A804F001FBA26803A9083A204604F0ED
:1016100074FC804608F1020803A804F0B3FA4246BD
:101620002C21204604F05BFC42460346214603A8D9
:1016300004F086FC03A804F058FD804603A804F0DB
:10164000A1FAB8F1000F3FF41FAF05EB88035B6808
:10165000204683F81C901B4904F02BFB14E7174B22
:101660001B68CBEB03035345FFF40BAF204604F09C
:1016700012FDA368CBB12146684604F008FB14496B
:10168000144804F05CF92021124804F053F969462B
:1016900003A804F0FCFA03A90E4804F06BF903A8B0
:1016A00004F070FA684604F06DFA2046054904F02B
:1016B00000FB0020C0B207B0BDE8F08FB4140020DA
:1016C00081020108960201088E02010894020108B5
:1016D00097020108CC130020F0B589B01C460746DC
:1016E0000E4605A80B49154604F08EFA00940E9C90
:1016F000314601940F9C05AA0294109C2B4603943A
:101700003846FFF7AFFE044605A804F03BFA204632
:1017100009B0F0BD96020108F0B5044685B00E464A
:10172000006821491F46154604F009F920681F4941
:1017300004F005F90A223946206804F0C6F9206849
:101740002C2104F0F7F82068194904F0F8F8206813
:10175000184904F0F4F83146206804F0F0F82068E5
:10176000154904F0ECF80A222946206804F08CF9A7
:101770001249206804F0E3F8206803689B699847E1
:10178000002004F02FFD0E4B204600930023019310
:1017900002930C490C4A0D4BFFF79EFF431E584223
:1017A000584105B0F0BD00BFA6020108A90201081A
:1017B000B40201084E070108B902010894020108A9
:1017C000D8020108F8240100BC020108C90201087E
:1017D00070B5044600200E46154604F003FD0023B4
:1017E000C4F8A430C4F8A030206931462A46237DCD
:1017F000FFF792FF003018BF0120207770BD7FB542
:10180000089C0E460194099C1546009302944FF4DF
:101810007A7132462B46FFF75FFF04B070BD08B502
:1018200000210F2004F0C8FC40F2DC5004F0DAFC88
:10183000BDE808400F20012104F0BEBC70B504468D
:101840000D4600680C49164604F079F829462068D0
:1018500004F075F831460A22206804F036F9206851
:10186000064904F06CF8206803689B699847BDE856
:101870007040002004F0B6BCA602010894020108E2
:1018800013B50446002004F0ADFC2069227D074911
:10189000FFF7D4FF002323770093019320690449C5
:1018A000044AFFF7ACFF02B010BD00BFEA02010816
:1018B0006C020108AE09010810B504460948FFF79B
:1018C00070FD68B9E3785BB1E0700749074804F040
:1018D0005BF80648064904F057F80248FFF7D0FFC6
:1018E00010BD00BFB012002096020108CC130020EA
:1018F000F5020108F0B50F4687B0002504462649D9
:101900003A46FFF79BFF0095019520462349244A5C
:101910002B46FFF774FF01281AD12046FFF790FDF0
:101920002046FFF78DFD21680A2203A804F002F982
:1019300003A804F0DAFB064603A804F023F9009597
:10194000019520461749164A2B46FFF758FFFEB966
:1019500004EB87033A46204613495E68FFF76EFFA3
:10196000124B002500931249124A134B0195204651
:10197000FFF745FF2B46074600950195204609498C
:10198000074AFFF73CFF7B1E5F425F4137772E46D9
:10199000304607B0F0BD00BF800301088302010894
:1019A000AE0901086C0201088D030108BB030108A0
:1019B00099030108A6030108B00301087FB5054695
:1019C000002405EB84035E6846B1737F33B10023C6
:1019D00073772846E1B2FFF78DFFF0820134052CC2
:1019E000EFD128680368DB68984748B1002200926D
:1019F0000192029228460A211346FFF76DFEF0E796
:101A000004B070BDD0F88020D0F88430D01A48BF20
:101A10008030704738B50446002004F0E3FB237F94
:101A200004F120058BB12846FFF7ECFF68B90A4B9B
:101A3000A26919688A1AB2F5FA7F03D91B680122D4
:101A40006277A3612069FFF7B9FF2846FFF7DAFF45
:101A5000E38A184438BD00BFB414002038B50446EA
:101A60000D460068094903F06AFF2946206803F023
:101A700066FF2068064903F062FF206803689B69DF
:101A80009847BDE83840002004F0ACBBA60201082E
:101A9000940201082DE9FF41134B05461F680E46CD
:101AA0009846D8F800300024DB1BB34217D22846F2
:101AB0000E49FFF7D3FF0094019402942846C821F1
:101AC0000B4A0C4BFFF708FE0446012C4FF0640054
:101AD00002D104F087FB02E004F084FBE1E720463A
:101AE00004B0BDE8F08100BFB414002096020108E4
:101AF0006C020108AE0901081F4B2DE9F3411F6874
:101B000005460E469846D8F80030DB1BB3422CD26F
:101B1000002428461949FFF7A1FF009401942846A4
:101B20001749184A2346FFF76AFE012804D04FF4EC
:101B30007A7004F057FBE6E7134B14498DE8180060
:101B4000134A144B2846FFF75AFE009406460194A8
:101B5000284611490B4A2346FFF751FE012E06D0B5
:101B600003D3032E01D8022002E0002000E030461B
:101B700002B0BDE8F08100BFB4140020C603010824
:101B8000CD030108AE090108EC030108D6030108E2
:101B9000DC030108E40301086C0201087FB542F28E
:101BA00010710546FFF776FF58B3002428462149F7
:101BB000FFF754FF009401940294284642F21071FA
:101BC0001D4A1E4BFFF788FD01281AD128461C49E3
:101BD000FFF744FF009401940294284642F21071EA
:101BE000154A164BFFF778FD01280AD140F6B830A8
:101BF00004F0F8FA284642F21071FFF74BFF064650
:101C000008B9002612E028460E49FFF727FF009486
:101C1000019428460849094A2346FFF7F0FD0128A8
:101C2000EFD1284642F21071FFF766FF304604B04C
:101C300070BD00BFF90301086C020108AE0901087C
:101C4000010401080B040108F7B5154F154E0024D7
:101C500005461549FFF702FF3246234639460094F0
:101C600001942846FFF7CBFD28461049FFF7F6FE02
:101C7000324623463946009401942846FFF7BFFDBB
:101C800028460B49FFF7EAFE00940194284639469E
:101C900032462346FFF7B3FD012003B0F0BD00BF7D
:101CA0006C020108AE090108110401081C040108B6
:101CB0002C0401081FB54FF4165104461B4803F0CD
:101CC00055FD1B48FFF7ABFD40F6B83004F08AFA2B
:101CD0001849194803F062FE1848FFF75FFF1748DC
:101CE0001749FFF7BBFE00230093019302931348AB
:101CF0004FF47A71134A144BFFF7EEFC012803D01E
:101D00000D48124903F040FE4FF4FA6004F06AFAFD
:101D10000A48FFF799FF4FF47A7004F063FA002342
:101D2000A37063702370E37004B010BDFC13002037
:101D3000881300203B040108CC130020641300200A
:101D4000510401086C020108AE0901085C04010895
:101D500070B5174986B000240546FFF77FFE009452
:101D6000019428461349144A2346FFF748FD0128E9
:101D70001BD12846FFF764FB2846FFF761FB296863
:101D80002C2203A803F0D6FE03A804F0AEF986B215
:101D900003A803F0F7FE0094019428460749064A79
:101DA0002346FFF72CFD304600E0204606B070BD0C
:101DB0006B04010870040108AE0901086C020108F7
:101DC00008B50248FFF7C4FF08BD00BF6413002038
:101DD00070B5164986B000240546FFF73FFE009413
:101DE000019428461249134A2346FFF708FD0128AB
:101DF00018BF042017D12846FFF722FB29680A22C2
:101E000003A803F097FE03A804F06FF9064603A8A1
:101E100003F0B8FE0094019428460749054A23467A
:101E2000FFF7EDFCF0B206B070BD00BF780401080A
:101E30007F040108AE0901086C0201082DE9F04198
:101E40004478054674BB1949194803F09DFD1848AC
:101E5000184903F079FD184B1F689846D8F8002000
:101E60004EF65F23D21B9A420BD81448FFF7B0FFFF
:101E700000F0FB06012E0FD04FF47A7004F0B2F997
:101E8000ECE70F490A4803F07FFD42F2107004F0BE
:101E9000A9F900236B7005E06E700548094903F04D
:101EA00073FD34462046BDE8F08100BF960201086C
:101EB000CC13002088040108B4140020641300200F
:101EC0009F040108BC0401081FB50A490446FFF736
:101ED000C5FD002300930193029320464EF6602136
:101EE000054A064BFFF7F8FB431E5842584104B021
:101EF00010BD00BFE90401086C020108AE09010829
:101F000030B5304985B000240546FFF7A7FD0094A1
:101F1000019428462C492D4A2346FFF770FC0128DE
:101F200001D001204BE028462949FFF797FD274AB9
:101F300023462849009401942846FFF760FC284670
:101F40002549FFF78BFD009401940294284623490C
:101F5000234A1E4BFFF7C0FB012802D0214822492B
:101F60002AE01C4A194B4FF47A71009401940294B0
:101F70002846FFF7B1FB28461C49FFF76FFD009488
:101F8000019428461A49114A2346FFF738FC0128D4
:101F900002D0144817490FE028461749FFF75EFDA5
:101FA0000094019428461549084A2346FFF727FC68
:101FB0000128B6D00B48124903F0E6FC204605B0D4
:101FC00030BD00BF780401087F040108AE09010894
:101FD000F20401086C0201080E050108084C01001A
:101FE00019050108CC130020230501084305010849
:101FF00050050108610501087A05010887050108F7
:102000009805010838B543780446ABB183789BB98D
:102010000A490B4803F0B8FC0A48FFF771FF054670
:1020200007482DB1084903F0AFFC0123A37038BD68
:10203000064903F0A9FCA57038BD00BF960201084F
:10204000CC13002064130020C1050108FE0501081F
:1020500070B5144986B000240546FFF7FFFC0094D4
:10206000019428461049114A2346FFF7C8FB01286E
:1020700018BF632014D129682C2203A803F05AFD4D
:1020800003A804F032F8064603A803F07BFD009491
:10209000019428460649054A2346FFF7B0FB30461F
:1020A00006B070BD3D06010842060108AE090108F0
:1020B0006C020108F0B5C4788BB00546002C40F0E6
:1020C0003E81A049A04803F05FFCA04904A803F0AA
:1020D0009BFD04A907A803F0DAFD9D4907A803F0BA
:1020E00083FE0146984803F01DFC07A803F04AFD53
:1020F00004A803F047FD9748954942F22832FFF7BC
:1021000067FBB0B99449904803F03EFC42F210706E
:1021100004F068F86B68EC7001330A2B01D86B602F
:102120000DE16C606C702C708C48FFF7CDFEAC70CC
:1021300005E18B49844803F027FC884E0123EB70AE
:1021400088496C60804803F01FFC3046FFF780FF31
:10215000854F8649386004A803F056FD04A907A8F6
:1021600003F095FD396807A803F064FE0146764840
:1021700003F000FC07A803F005FD04A803F002FD2E
:1021800030467B49FFF76AFC009401943046794958
:10219000794A2346FFF733FB012804D004A8694994
:1021A00003F032FD16E007A831680A2203F0C2FCF2
:1021B0007249714A2346009401943046FFF71FFB91
:1021C00007A803F068FF04A807A903F0CCFC07A840
:1021D00003F0D8FC04A96A4803F063FD04A803F0E7
:1021E000D1FC684907A803F00FFD654907A803F073
:1021F000EEFD5A4E0146544803F0BCFB07A803F01D
:10220000C1FC002430466049FFF728FC009401948B
:1022100030465E49584A2346FFF7F1FA012804D0B8
:1022200004A8484903F0F0FC16E007A831680A2228
:1022300003F080FC5149504A2346009401943046F3
:10224000FFF7DDFA07A803F026FF04A807A903F0AB
:102250008AFC07A803F096FC04A94D4803F021FD71
:1022600004A803F08FFC4B4907A803F0CDFC4849B4
:1022700007A803F0ACFD0146334803F07BFB07A839
:1022800003F080FCAB78002B44D0344E0024304661
:102290004149FFF7E3FB00940194029430463F4923
:1022A0003F4A354BFFF718FA012804D004A8254906
:1022B00003F0AAFC16E007A831680A2203F03AFCF2
:1022C0002E492D4A2346009401943046FFF797FA91
:1022D00007A803F0E0FE04A807A903F044FC07A840
:1022E00003F050FC04A92F4803F0DBFC04A803F022
:1022F00049FC2D4907A803F087FC2A4907A803F0E9
:1023000066FD0146104803F035FB07A803F03AFCD0
:102310000023AB7025490C4803F036FB2448FEF738
:1023200013FB174803F0B7FE194803F0B4FE1D482D
:1023300003F0B1FE04481F4903F026FB01242046A8
:102340000BB0F0BD96020108CC1300204A0601082C
:1023500071020108B0120020600601086413002019
:1023600081060108A1060108941300204506010812
:10237000B606010894020108AE0901086C020108C2
:10238000981200200E010108BB060108C2060108D0
:102390009C130020CC060108D5060108084C01005A
:1023A000DF060108A4120020E8060108F106010872
:1023B00079120020F9060108F8B504460D460068B8
:1023C0000E4916461F4603F0BAFA2946206803F064
:1023D000B6FA3146206803F0B2FA3946206803F0B5
:1023E000A9FA2068064903F0AAFA206803689B69E5
:1023F0009847BDE8F840002003F0F4BEA6020108AB
:10240000940201082DE9F04304468FB00025904660
:1024100089461F46FFF758FD20469B49FFF71EFBE4
:102420009A499B4A2B46009501952046FFF7E7F90C
:10243000204698494A462223FFF7BEFF00950195A2
:1024400020469249924A2B46FFF7D9F9B8F1000F7E
:102450000DD02046904942462223FFF7ADFF00955C
:102460000195204689498A4A2B46FFF7C8F96FB182
:1024700020468A493A462223FFF79EFF0023009315
:10248000019320468149824AFFF7B9F9804E002521
:10249000204683494A462223FFF78EFF32462B46C9
:1024A0007A49009501952046FFF7A9F920467D4914
:1024B000FFF7D4FA754A33464EF660210095019530
:1024C00002952046FFF708F920467749FFF7C6FA3C
:1024D0006E4A334675490095019502952046FFF7EF
:1024E000FBF820467249FFF7B9FA0095019502956D
:1024F000204647F23051654A3346FFF7EDF8012890
:1025000001D00025BCE020466A49FFF7A7FA0095F4
:102510000195029520464EF660215C4A3346FFF74E
:10252000DBF80128EDD120466349FFF797FA0095C3
:1025300001952046554932462B46FFF760F90128A0
:10254000DFD120465D49FFF789FA009501952046C5
:102550004E4932462B46FFF752F90128D1D1204689
:102560005749FFF77BFA00950195204647493246C7
:102570002B46FFF744F90128C3D15249206803F0E4
:10258000DEF95149206803F0DAF94946206803F082
:10259000D6F94E49206803F0D2F94146206803F08D
:1025A000CEF94A49206803F0CAF93946206803F099
:1025B000C6F94749206803F0C2F94649206803F08C
:1025C000BEF9206803689B699847284603F00AFE15
:1025D00000950195029520464EF660212B4A334620
:1025E000FFF77AF801288CD120463B49FFF736FAED
:1025F00000950195029520464EF66021234A334608
:10260000FFF76AF801287FF47CAF20463349FFF7D3
:1026100025FA334905A803F0F7FA009601950295CB
:102620000395204642F2107105AA184BFEF71AFFD7
:10263000012813D008A8274903F0E6FA0BA8284977
:1026400003F0E2FA05A808A90BAA03F09FFC0BA867
:1026500003F098FA08A803F095FA0EE02046214905
:10266000FFF7FCF92B4600950195204607493246B5
:10267000FFF7C5F8431E5D425D4105A803F082FAED
:1026800028460FB0BDE8F083F20401086C0201088F
:10269000AE090108180701082B0701083F070108C8
:1026A00052070108640701086F070108084C010080
:1026B0000E0501087A070108830701088D07010844
:1026C00099070108A6020108A50701084E0701089D
:1026D000F10A010894020108AD070108B4070108D6
:1026E00096020108BE07010838B50478054634BBD8
:1026F00043781BB31349144803F046F913491248B1
:1027000003F022F91249104803F019F91148104951
:10271000114A124BFFF776FE04460B4844B91049A4
:1027200003F032F942F2107003F05CFD2C7006E009
:102730000C4903F029F901232B7000E00124204605
:1027400038BD00BF96020108CC130020DB0701084A
:10275000B60901086413002060020108AD090108F0
:10276000EA070108070801082DE9F04104460E4672
:10277000006812491F469046069D03F0E0F8314676
:10278000206803F0DCF841460A22206803F09DF936
:102790003946206803F0CEF829460A22206803F063
:1027A000A7F92068064903F0CAF8206803689B6906
:1027B0009847BDE8F041002003F014BDA6020108CF
:1027C00094020108F0B587B00025044600920F4638
:1027D00016461C491A462C23FFF7C6FF00950195A3
:1027E00020461949194A2B46FFF709F8012802D05B
:1027F0004FF0FF3422E020683946036832469B6878
:102800009847206803689B69984700950195204682
:102810000F490E4A2B46FEF7F2FF0128E8D1204669
:10282000FEF70EFE216803A80A2203F083F903A82D
:1028300003F05BFC044603A803F0A4F9204607B0AC
:10284000F0BD00BF27080108FC050108AE0901081A
:102850003108010870B5044600200E46154603F005
:10286000C1FC2069FFF7AAF8206931462A46237D7A
:10287000FFF7A8FF70BD000070B58D680E460135EA
:10288000284604F0DBFD04460023304621462A4654
:1028900003F00DFB21462A460348FFF7DBFF2046E5
:1028A00004F0D4FD012070BDB01200202DE9F041EC
:1028B00086B00025044600912C232F491646FFF7C9
:1028C00053FF0095019520462C492D4A2B46FEF7D3
:1028D00096FF01284BD12046FEF7B2FD2046FEF7B9
:1028E000AFFD21682C2203A803F024F903A803F00C
:1028F000FCFB074603A803F045F904EB860603A892
:1029000021680A22D6F8048003F014F903A803F022
:10291000ECFBA8F8160003A803F034F9BD421ED062
:1029200020680368DB68984710B903F05BFCF7E7A1
:10293000206803681B69984773685FFA80FED3F8C4
:10294000A010D3F8A4004A1C02F07F02824204D0F7
:10295000194481F820E0C3F8A0200135DEE7002308
:102960000093019320460749054AFEF748FF284691
:1029700006B0BDE8F08100BF4008010883020108ED
:10298000AE0901086C0201082DE9F74F044600204A
:102990008946019203F026FC2069FFF70FF8002515
:1029A000019B9D4245D2019B04F1200B5846C5EB8B
:1029B0000308FFF727F8404538BF8046B8F1000FFD
:1029C00024D04746CA465846FFF71CF810B9C14400
:1029D0004544E5E7D4F8A430C3F18006B742B8BF58
:1029E0003E468642A8BF06460BEB030150463246E0
:1029F000009305F003F8009BBF1B03EB060C0CF0E3
:102A00007F02C4F8A420B244E1D0DCE72069FEF7DD
:102A1000D5FFE38A6BB1D4F8A420D4F8A0302069A4
:102A2000D11A0029D8BF80310139227DFFF73EFF3E
:102A3000B6E7284603B0BDE8F08F0000F7B50024E4
:102A40000094214622462346284802F033FF284BB3
:102A5000284A29481A604FF47A728260274A284E21
:102A6000284F0260012203619860274D4460C0F83E
:102A7000A440C0F8A0400275C48284610477447702
:102A80003146224C384603F0BFF83846204F2246E4
:102A9000294603F0ADFC3146384603F0B5F8384618
:102AA0001C4F2246294603F0A3FC314638461A4EF5
:102AB00003F0AAF822462946384603F099FC30462E
:102AC000164903F0A1F83046154E2246294603F078
:102AD0008FFC3046134903F097F8304629462246CA
:102AE00003B0BDE8F04003F083BC00BF7C120020BF
:102AF00064130020FC130020B012002028020108FB
:102B00009602010898120020855B0008080000204A
:102B10009C130020A4120020581300204D08010827
:102B20007C1300205408010870B505468AB00E4693
:102B30000846874903F092F9002840F0078101A870
:102B40008449324600F09CFB07A8824901AA00F0A4
:102B5000A5FB07A8804903F081F9044607A803F004
:102B600011F814B17D487E49EBE07E4907A803F0D7
:102B70004BF801AA04A8774900F090FB04A907A824
:102B800003F025F90146754802F0F4FE04A802F0AE
:102B9000F9FF07A802F0F6FF01A8734900F022FC34
:102BA00020B3AC606A496D4802F0EEFE6F496B4895
:102BB00002F0C5FE6C4A07A801A900F0DBFC07A9DA
:102BC000664802F0F5FE07A800F080FB01A9664AFE
:102BD00007A800F0CFFC07A800F0B3FB044607A845
:102BE00000F074FB62482146FEF76CF901A86149C8
:102BF00000F0F8FB20B301A85F4900F0F3FB0028C8
:102C000000F0A18001A95B4A07A800F0B3FC07A867
:102C100000F08EFB044607A800F058FB01A9564AB5
:102C200007A800F0A7FC07A800F082FB054607A84C
:102C300000F04CFB4E4821462A46FEF793F982E00D
:102C400001A84E4900F0CEFB08B34D49434802F0BD
:102C500076FE4A4A07A801A900F08CFC07A93F4864
:102C600002F0A6FE07A800F031FB01A9434A07A81D
:102C700000F080FC07A800F064FB424C206007A82D
:102C800000F024FB3A482168FEF7A4F95BE001A8B4
:102C90003D4900F0A7FB002851D02D492F4802F0F4
:102CA00073FE01A9384A07A800F064FC07A800F0E9
:102CB0003FFB364C206007A800F008FB3448217821
:102CC000FDF7A6FB25682548012D04D0022D1AD05A
:102CD000DDB9304935E0304902F056FE314607A8EB
:102CE00002F0D5FF07A92248FEF7BCF9064607A85F
:102CF00002F048FF294821680EB9032200E02A4665
:102D0000FEF71CF81FE026491BE0264902F03CFEB6
:102D100004A8254902F078FF04A907A802F0B7FF2C
:102D2000216807A803F086F801460C4802F022FE4D
:102D300007A802F027FF04A802F024FF03E00748D9
:102D40001A4902F021FE01A800F0C0FA0AB070BDD5
:102D500096020108B01300205B080108CC13002084
:102D6000650801089D080108B6080108BA080108AD
:102D70007A120020D0000108D60001081D010108C8
:102D8000CE080108941200200C09010898130020B5
:102D9000C5110020E6080108F60801087912002094
:102DA000110901082B090108450901085409010806
:102DB00030B5234B87B01C681D462248FEF7F1FA58
:102DC00000283AD02B681B1BB3F5FA6F35D21D488B
:102DD000FEF720FE0028F0D00A226846194902F0CA
:102DE000A9FE1949194802F0CFFD1949174802F008
:102DF000CBFD03A8174902F007FF694603A802F0BC
:102E0000E6FF154902F0F0FF0146104802F0B2FD5E
:102E100003A802F0B7FE0D4802F02EFC694603A895
:102E200002F035FF03A90D48FFF77EFE03A802F06C
:102E3000A9FE684602F0A6FEBFE707B030BD00BF9E
:102E4000B4140020B012002096020108CC13002018
:102E500081090108A80901089502010888130020CA
:102E6000234B30B51A68234C22F0E06242F0007226
:102E700087B01A60204600F097F820461E4C00F0FC
:102E8000D3F81E4D4FF4E131204602F06FFC1C4890
:102E9000FDF7AFFA01F00FFF2846FEF70BFFFDF735
:102EA0002BFDFDF743FD2846FEF78AFF154D164919
:102EB0002860684602F0A8FE694603A802F0E7FE13
:102EC000296803A802F0C0FF104902F08DFF0146F7
:102ED000204602F04FFD03A802F054FE684602F0BF
:102EE00051FE0B480B4907B0BDE8304005F098BAD9
:102EF00004000140AC130020CC13002088130020F4
:102F0000C6110020A8130020BC090108CD09010842
:102F1000E7110020D009010808B50748FDF79CFA21
:102F2000064B0228186005D9BDE808400448054949
:102F300002F02ABD08BD00BFC51100209813002073
:102F4000CC130020D909010808B51248FEF776FF16
:102F500010B91148114905E00E48FFF7C5FB28B923
:102F60000D480F49BDE8084002F00EBD0948FFF7C3
:102F700049F80848FFF79EF810B907480949F1E7F2
:102F80000448FFF715FF0348FEF796FCBDE808402C
:102F9000FFF7C2BF88130020CC130020F5090108F9
:102FA000150A0108350A010808B50320002103F0BD
:102FB000ABF80420002103F0A7F80F20002103F054
:102FC000A3F8BDE808400520002103F09DB80000EB
:102FD00010B5144611B101290AD013E0032011469F
:102FE00003F0EAF80A480CB10A490DE00A490BE07F
:102FF0000420114603F0E0F805480CB1074903E04E
:10300000074901E002480749BDE8104002F0BCBC96
:10301000CC130020590A0108640A01086E0A01084D
:10302000790A0108830A010810B50A4C052001211C
:1030300003F0C2F8204600210122FFF7C9FF012159
:1030400020460A46FFF7C4FFBDE810400F200121CB
:1030500003F0B2B8AC13002008B51620002103F02D
:1030600053F81720002103F04FF81620012103F038
:10307000A3F8BDE808401720012103F09DB81720F0
:10308000002103F041B81720042103F03DB808B532
:10309000FFF7F5FF1720012103F08EF8012116201C
:1030A00003F08AF8052003F0ABF80021172003F0A5
:1030B00083F8062003F0A4F8BDE80840162000219C
:1030C00003F07AB808B5FFF7DAFF1620002103F005
:1030D00073F81720002103F06FF80121162003F088
:1030E0006BF8062003F08CF81720012103F064F838
:1030F000BDE80840062003F083B810B5002104465F
:10310000162003F059F82046FFF7B9FF00211720D9
:1031100003F052F8022003F073F80121162003F0A7
:103120004BF8052003F06CF8BDE810401620002194
:1031300003F042B810B500210446162003F03CF815
:103140002046FFF79CFF0121172003F035F80220ED
:1031500003F056F80121162003F02EF8052003F0A5
:103160004FF8BDE810401620002103F025B870B5D7
:103170000646FFF788FF0121172003F01DF8012004
:1031800003F03EF81620012103F016F8012003F0A9
:1031900037F8FB25172002F0F9FF044640B1013D46
:1031A00015F0FF05F6D13046FFF78CFF012070BD0A
:1031B0001620214603F000F8204670BD38B50C46B5
:1031C000FFF75DFF1620002102F0F6FF082524F02E
:1031D0007F0303F0FF01172003B1012102F0ECFF90
:1031E0000121162002F0E8FF022003F009F8162062
:1031F000002102F0E1FF013D0220640003F000F82D
:1032000015F0FF05E4B2E2D138BDF8B505460F462A
:10321000FFF739FF082600240021162002F0CCFF1A
:10322000022002F0EDFF1620012102F0C5FF64002C
:103230001720E4B202F0AAFF08B10134E4B2012081
:10324000013E02F0DDFF16F0FF06E5D1284617B972
:10325000FFF770FF01E0FFF750FF2046F8BD0000C8
:10326000014B0360704700BFA00A010810B5034B73
:103270000446036002F046FF204610BDA00A010884
:1032800010B51146044600F0BDF8204610BD10B53B
:103290001146044600F0C4F8204610BD10B5114692
:1032A000044600F0DBF8204610BD00000348044B44
:1032B0000449054A036003F09BB800BFB013002027
:1032C000A00A0108613200080800002038B5064B4A
:1032D00004460360406820B1A56815B900F020FEDF
:1032E0006560204638BD00BFB00A010810B504462D
:1032F000FFF7ECFF204602F005FF204610BD4068B6
:1033000038B50D4658B101F023F804462146284649
:1033100002F015FB0546204601F032F9284638BD7B
:10332000024A02600022426082607047B00A0108CF
:1033300010B50446406801F006F908B163685869A1
:1033400010BD10B50446406801F004F908B1636887
:10335000186910BD10B50446406801F0FBF828B1AB
:103360006368BDE81040186A05F0B8B8606801F0FD
:10337000F8F820B16068BDE8104000F0ECBF4FF0F5
:10338000FF3010BDB0B5044600AF48680D4601F0EF
:10339000EFF820B9124B60602360A0601CE0686801
:1033A00000F0D9FF83000A3323F00703ADEB030DD0
:1033B0006B6801469A68684600238B4205DA156AF5
:1033C00040F8235012680133F7E701F07FF8044B0F
:1033D000606023600023A3602046BD46B0BD00BFEF
:1033E000B00A010838B5044640680D4601F0C0F83F
:1033F00030B16068294600F0BCFF003018BF0120E2
:1034000038BD000010B50446086800F09DFF034B6E
:10341000606023600023A360204610BDB00A01084D
:1034200030B5496885B0044611B902F0EDFB11E0F2
:10343000084600F08DFF0546294601A802F0E4FB8E
:10344000284601F09DF8204601A902F08CFB01A856
:1034500002F098FB204605B030BD000038B54D683D
:103460000446002D31D0284601F059F800282CD10F
:10347000284601F05BF810B12046174927E028469E
:1034800001F05BF810B12046144920E0284601F015
:103490005AF810B12046124919E0284601F05AF8AE
:1034A00010B120460F4912E0284601F05AF810B139
:1034B00020460D490BE0284601F05AF810B120468D
:1034C0000A4904E020460A4901E00A49204602F080
:1034D0009BFB204638BD00BFC00A0108C80A01088E
:1034E000CD0A0108D40A0108DB0A0108E10A010833
:1034F000E80A01085B08010838B5456804464160E0
:10350000DDB18068A0B101F033F830B1A068296A5C
:103510006268BDE8384001F061B8A06801F021F8A8
:1035200058B1A06829466268BDE8384000F026BF5F
:103530002846BDE8384000F0F3BC38BD10B504465D
:10354000084603F0ADF800F05BFF01462046BDE8F9
:103550001040FFF7D1BF10B50446084600F084FFC5
:1035600001462046BDE81040FFF7C6BF0968FFF7D7
:10357000F2BF000070B5054648680C46164600F0DC
:10358000F7FF28B900F096FF01462046FFF7B4FF89
:103590006068314600F0EDFE18B96068314600F011
:1035A0001BFF6368024A68602A60AB60284670BDF2
:1035B000B00A0108F8B5054648680C46174600F001
:1035C000D0FF28B900F06AFF01462046FFF794FFBC
:1035D0006068394600F0C7FE064660B9606800F0D2
:1035E000BAFE874207DB00F0EBFE06463146606814
:1035F00000F0C2FEF2E76368024AAB6085E844006F
:103600002846F8BDB00A01080448054B0549036087
:10361000054A00234360836002F0EABEB413002031
:10362000B00A0108CD3200080800002010B50022C1
:103630001346815CA1F13004092C01D8303B0AE02B
:10364000A1F14104052C01D8373B04E0A1F161044C
:10365000052C0AD8573B032A0B4402F1010218BF7C
:103660001B01042AE5D1184610BD002010BD2DE92C
:10367000F0470B688A688146551C9E189A5C8846FC
:10368000222A1D4440F0CA804C682F460022F91AB5
:10369000A14280F0C3803978222909D05C2905D164
:1036A0000137F91AA14280F0B98001320137EEE703
:1036B000C2F10102B81BD8F8103010449847824676
:1036C000002800F0AB800446BD4280F08B802B7850
:1036D0005C2B03D0237001350134F5E77A1B002AF7
:1036E00040F390806B78662B19D00CD82F2B17D015
:1036F00002D8222B14D085E05C2B11D0622B40F035
:10370000818008230CE0722B0ED003D86E2B79D168
:103710000A2305E0742B09D0752B09D072E00C2325
:103720002370013402235BE00D23F9E70923F7E757
:10373000052A67DDA81CFFF779FFA0F55C43B3F508
:10374000806F06465ED3A0F55843B3F5806F1CD258
:10375000AB1DFB1A052B55DDAB795C2B52D1EB79F8
:10376000752B4FD105F10800FFF760FFA0F55C4312
:10377000B3F5806F46D2C0F30900C6F3090640EAEC
:10378000862606F580360C2306E07F284FF00603D8
:103790000BD9B0F5006F0BD3B6F5803F0BD3B6F560
:1037A000881F2FD2F021042207E00021012204E02B
:1037B000C021022201E0E0210322501EC0B240B12C
:1037C00006F03F0C6CF07F0C04F800C0B60901381D
:1037D000F4E7012A14BF0E4306F07F062670144456
:1037E0001D4471E7002323701023C9F80C30D8F86A
:1037F0000030C9F810A0FB1A0133C8F808300120C6
:10380000BDE8F087D8F8143050469847D8F8003013
:10381000ED1AC8F808500020BDE8F087002DF5D15A
:10382000F9E710B590B102687AB1416883688B42BC
:1038300002D38B4206D010BDD45C202CF9D80133C2
:103840008360F3E7013B836010BD104610BD28B1D3
:10385000806818B111B101390068FAE7704761B1A9
:1038600060B183680BB9816005E01A680AB113463C
:10387000FBE719604B60012070470846704738B578
:10388000044638B1006828B1A568284404F026FE33
:103890002844A06038BD70B5044600283ED00068BA
:1038A00000283DD0636813B1A2689A4237D200293C
:1038B00035DBA268561C0E449E4201D8104470BDF0
:1038C0002369002B2BD1B6F1804F06D3002EA8BF61
:1038D0006FF0004602DA184670BD7600236A23B105
:1038E000314698470546A0B904E0A3693046984799
:1038F000054630B92068E369984765602560284629
:1039000070BDA2682168013204F078F8E36920688C
:103910009847A06884E86000284470BD70BD00200E
:1039200070BD00002DE9F8430746084611B9002094
:10393000BDE8F88317B13A4600250DE00321FFF7F3
:10394000AAFF0028F3D0384904F06AFD68E00D2B87
:103950000DD80C2B06D30135904612F8013B002BF5
:10396000F5D10CE0A3F10801022904D8F3E7222BDA
:10397000F1D05C2BEFD01F2B98BF0535ECE7C7EBE0
:103980000808A84408F10301FFF785FF0646002850
:10399000CDD04FF02209013086F8009045B9464459
:1039A0003946424604F02AF886F80190B57037E0AF
:1039B000044617F8013B7BB31F2B06D9222B04D0FA
:1039C0005C2B02D02370204624E05C23237017F880
:1039D000012C601C0C2A12D007D8092A13D00A2AFD
:1039E0000FD0082A12D162230EE0222A05D05C2AC9
:1039F00003D00D2A0AD1722306E062700AE0662322
:103A000002E06E2300E07423637003E0074904F0D2
:103A100019FB601D441CCCE7464422227270B3702F
:103A20000120BDE8F88300BFF00A0108F30A01088D
:103A30002DE9F8430D4600284CD000293FD084687A
:103A40005AB9254B1E680EE0216A00293DD0284650
:103A500004F0C8FB002838D02468002CF4D131E0F1
:103A6000206A18B92468002CFAD12BE085422CD0AA
:103A700000216B5CF21892F801C0425C0CF0030C60
:103A8000B7187F78BCF1010F07F003070CBF03F1F3
:103A900020099946012F0CBF02F120089046C1452C
:103AA00003D10131002BE4D10FE0BCF1010F08BFBD
:103AB0002033012F08BF20329342D3D105E00846BE
:103AC000BDE8F8832046BDE8F883236A002B14BFC5
:103AD00020460020BDE8F8830409002010B5034605
:103AE00028209847044618B10021282204F062F8E3
:103AF000204610BD2DE9F0410E468AB0054600284B
:103B000000F08081002900F07D81047B082C39D0F1
:103B100007DC022C2BD0042C15D0012C40F0728134
:103B20001AE0202C00F08B8007DC102C40F06A811A
:103B30000069FFF7F7FE044665E1402C00F0C38002
:103B4000802C69D05EE108460521FFF7A4FE00281D
:103B500000F05881A04912E008460621FFF79BFEBD
:103B6000002800F04F819D4904F05AFC4BE10846C3
:103B70000521FFF790FE002800F04481984904F0E9
:103B80004FFC3DE1D0E906450022002320462946AE
:103B900002F0ECFD0022002303F050F803AF30B92F
:103BA00038468D4904F03CFC4FF004081FE08D4975
:103BB00022462B46384604F045FA8B4980466A4631
:103BC000384604F065FA012806D1DDE900012246F5
:103BD0002B4603F033F830B93846844922462B4649
:103BE00004F030FA8046B8F1190F00F20B8130462C
:103BF00008F10101FFF74FFE002800F003810023C8
:103C0000434503D0FA5CC2540133F9E70022C254A1
:103C1000B2681344B360F3E00069002800F0F2805A
:103C200004F05CFC441C21463046FFF734FE0028BB
:103C300000F0E8802969224603F0E0FEE0E08468B5
:103C400008460121FFF727FE002800F0DB805B23F8
:103C50000370B3680133B360F3680133F3603CB3BE
:103C600020463146FFF746FF002800F0CB80304663
:103C7000FFF705FE2368CBB173693046002B0CBFFC
:103C800001250225691CFFF706FE002800F0BA8016
:103C90002C23037073690BB9431C02E02022831CA0
:103CA000427000221A70B3681D44B5602468D6E7DC
:103CB00030460221FFF7EFFD002800F0A3805D23CE
:103CC0000370447099E04B698468002B0CBF012598
:103CD00002250846691CFFF7DEFD002800F09280EF
:103CE0007B230370F3680133F36073690BB10A231C
:103CF0004370B3681D44B5607369002C56D083B11E
:103D00003046F168FFF7C7FD00287BD00023F2683A
:103D1000934203D20922C2540133F8E7B3681A442C
:103D2000B260206A3146FFF7FDFD00286AD03046B8
:103D3000FFF7A5FD73693046002B0CBF0125022556
:103D40002946FFF7A8FD00285CD03A230370736969
:103D50000BB109234370B36820461D44B56031465A
:103D6000FFF7C8FE00284DD03046FFF788FD756983
:103D70002368003518BF0125002B18BF01353046D8
:103D8000691CFFF788FD00283CD0236813B12C2361
:103D900003700130736913B10A23037001300023EB
:103DA0000370B36824681D44B560A5E713B1F168DA
:103DB000013100E002213046FFF76DFD10B3736959
:103DC000BBB10346F268191A013A914210D2092296
:103DD00003F8012BF6E700BFC80A0108F90A010839
:103DE000FF0A0108040B01080B0B01080F0B010867
:103DF00018467D23037000234370F368013BF36092
:103E0000012400E0002420460AB0BDE8F08100BF94
:103E100070B5064668B104F061FB074B451C1B6892
:103E200028469847044628B131462A4603F0E6FD65
:103E300000E070BD204670BD0C000020F8B51446AF
:103E40000646F8B1F1B1EAB123B1D7680D4647F49F
:103E5000007707E00846FFF7DBFF054690B1E7680B
:103E600027F40077E3689B0504D4206A10B1064B61
:103E70005B6898472562E76030462146BDE8F84018
:103E8000FFF7EDBC0020F8BD0C000020F0B5234C7E
:103E90008BB00D4624220021064601A803F08AFEBD
:103EA00023684FF4807098474FF48072034606955C
:103EB0000AAD01900292274694E8070005E9070041
:103EC00023B3304601A9FFF715FEF8B101A8FFF7AB
:103ED000D6FCA568039925B101980131A847D0B94E
:103EE00014E02368481C9847064678B1039A029B61
:103EF00001329A4228BF1A46019903F07FFD039BC5
:103F0000F554019863689847304604E0019808B179
:103F10007B68984700200BB0F0BD00BF0C0000206C
:103F200070B50446E4B1E3682668DA0503D4A068F6
:103F300008B1FFF7F5FFE3680A4D13F4807F03D162
:103F4000206908B16B689847E3689B0503D4206A31
:103F500008B16B68984720466B6898473446E1E79C
:103F600070BD00BF0C0000202DE9F047074692B05D
:103F70000E46002900F06E810D68002D00F06C8166
:103F80008C68D1F8048004F10409C1450AD82819C5
:103F9000A349042204F0D2FA20B90423FB60C6F836
:103FA00008907DE004F1050AC2450AD828199D4908
:103FB000052204F0C3FA20B90120F860C6F808A071
:103FC0004DE1C1450CD828199749042204F0B6FAEE
:103FD00030B902230120FB607861C6F808903EE109
:103FE000444580F03B812B5D2919222B04D13846B2
:103FF0003146FFF73CFB32E12D2B03D0A3F1300219
:10400000092A51D800220192C4EB0804A2420DF102
:10401000080813D08B5C392B07D8302B09D22D2BF5
:1040200007D02E2B05D02B2B02E0452B01D0652B82
:1040300004D108F8023001323F2AE7D112AB1A440A
:104040004FF0000A404601A902F840AC05F014FD0B
:10405000DDF804900446C1450D4623D06EA3D3E994
:104060000023C7E9064502F007FE10B16FF00043D8
:1040700008E02046294600226C4B02F0F3FD18B1FF
:104080004FF000437B6104E02046294602F008FE21
:1040900078610823FB60B368C8EB09084344B36048
:1040A0000120DCE05046DAE05B2B50D1F368B3F539
:1040B0007A7F80F0D3800133F3602B5D5B2B40F07F
:1040C000CD800134B4603046FFF7ABFBB368726853
:1040D00093425BD23268D25C5D2A2BD0013B4FF019
:1040E0000008B36044463069FFF7F8FC054648B362
:1040F00024B1C8F80000C0F8048000E00446B368AA
:1041000030460133B360FFF78CFB28463146FFF79A
:104110002BFFD0B13046FFF784FBB368726893423F
:1041200013D23268D35C2C2B02D05D2B0DD102E070
:10413000A846D8E70024F368013BF3602023FB6026
:10414000BC607FE0002C00F0898020467FE07B2B64
:1041500040F08480F368B3F57A7F7FD20133F36057
:104160002B5D7B2B7AD10134B4603046FFF759FBCD
:10417000B3687268934209D23268D25C7D2A5AD001
:10418000013B4FF00008B36045463AE0013BB360A5
:1041900064E0002D3CD0C8F80000C0F80480B3688B
:1041A00030460133B360FFF73CFB20463146FFF752
:1041B0005EFA00284AD03046FFF733FB2369726865
:1041C000236200232361B36893423FD23268D25CFA
:1041D0003A2A3BD10133B3603046FFF722FB204639
:1041E0003146FFF7C1FE002830D03046FFF719FBFB
:1041F000B3687268934229D23268D35C2C2B17D1F2
:10420000A0463069FFF76AFC04460028C1D11CE0D3
:104210000546C4E7AFF300800000C0FFFFFFDF41A9
:10422000C80A0108F90A0108FF0A01080000E0C1F4
:104230007D2B0BD100E00025F368013BF3604023A8
:10424000FB60BD60B368013329E73DB12846FFF745
:1042500067FE03E0084602E0284600E0002012B0B6
:10426000BDE8F087AFF300802DE9F04389B0044644
:104270000E46914601A800211C2203F09BFC2F4B07
:1042800000271F605F609846002C53D020460194A1
:1042900004F024F92A4B0130029093E8070008ABA0
:1042A00003E90700FFF71AFC0546002831D0019802
:1042B00078B1039B53B9029B042B09D921490322EE
:1042C00004F03CF920B90323039301E0384600E0F1
:1042D00001A8FFF7A6FA01462846FFF745FEA8B158
:1042E000B9F1000F05D17EB1039B019A13443360ED
:1042F0000AE001A8FFF795FA039B029A934205D2C0
:10430000019AD35C13B9EEE7284614E02846FFF77C
:1043100007FE039B029A934203D30AB1531E00E0A7
:1043200013460EB1E2183260C8F80040C8F80430F5
:10433000002000E0204609B0BDE8F083C013002053
:104340000C0000201F0B010800210A46FFF78CBF5C
:104350000021FFF79BBD28B18368002013B1013015
:104360001B68FBE77047002901DBFFF770BA0020EC
:1043700070470122FFF75CBBFFF771BA10B5E8B1D7
:10438000BAB1C1B18A4218D00B684C68136054604E
:1043900003B15A60536803B11A6083688B424FF0CF
:1043A000000308BF82600B604B600846FFF7B8FD52
:1043B00003E0104610BD084610BD012010BD0000EE
:1043C00008B5044B1868FFF789FB08B10423C360E4
:1043D00008BD00BF0C00002070B505460E46FFF773
:1043E000EFFF04463146284622460023FFF726FD0C
:1043F000054620461DB9FFF793FD284670BD70BDE8
:10440000174B70B5044618680D46FFF767FB064664
:10441000F0B10823C360C0E906450FA3D3E9002328
:104420002046294602F028FC10B16FF0004308E056
:104430002046294600220B4B02F014FC18B14FF025
:104440000043736104E02046294602F029FC7061B4
:10445000304670BDAFF300800000C0FFFFFFDF41BA
:104460000C0000200000E0C138B50B4B0546186871
:10447000FFF734FB044660B11023C3602846FFF702
:10448000C7FC05462061204625B9FFF749FD2846AF
:1044900038BD38BD38BD00BF0C00002008B5044B46
:1044A0001868FFF71BFB08B12023C36008BD00BFDD
:1044B0000C00002008B5044B1868FFF70FFB08B18B
:1044C0004023C36008BD00BF0C0000202DE9F84365
:1044D000B1F10009804602DA0020BDE8F883002827
:1044E000FAD0FFF7DBFF06460028F5D000273D464F
:1044F0004D4511D258F82500FFF7B6FF044618B90C
:104500003046FFF70DFDE7E70DB9B06001E0386018
:10451000476001352746EBE73046BDE8F88320B118
:10452000007BD0F1010038BF0020704720B1C06887
:1045300010F0030018BF0120704718B1007B031F63
:1045400058425841704720B1007BB0F108035842EF
:104550005841704720B1007BB0F1100358425841D8
:10456000704720B1007BB0F120035842584170479A
:1045700020B1007BB0F14003584258417047000021
:1045800008B5024B5B68984708BD00BF0C000020CF
:10459000F8B506460D461F461446DAB1E1B1D368B8
:1045A0009B0503D4106A08B1FFF7EAFF2846FFF71E
:1045B0002FFCE368206223F40073E36029463A4647
:1045C0003046FFF735FA224601463046FFF7D6FE61
:1045D0000120F8BD1046F8BD0846F8BD0123FFF7DD
:1045E000D7BF122938B50546144608460BD0132903
:1045F00010D0112916D100F071F80CB120460FE04F
:1046000047F6FF700CE000F069F8002CF6D149F68F
:104610003F4005E000F062F8002CEFD14FF223405C
:1046200000F010F9284638BD13B50022044601A851
:10463000FFF7D7FF204602B010BD084600F0E8B8EB
:1046400000F0D4B8054B1B681B685B0103F1844381
:1046500094331A68002AFCD0704700BF180000206D
:10466000054B1B681B685B0103F184438C331A689C
:10467000002AFCD0704700BF1800002008B5FFF7E3
:10468000E1FF054B00221B681B685B0103F18443BB
:10469000C3F88C2008BD00BF1800002008B5FFF744
:1046A000D1FF054B01221B681B685B0103F18443AA
:1046B000C3F8902008BD00BF1800002008B5FFF720
:1046C000C1FF054B00221B681B685B0103F184439B
:1046D000C3F8902008BD00BF1800002010B50446A4
:1046E00000F0E9FA00F0F4FA204A112C136A23F4DE
:1046F0004073136213460BD005D8C4B1102C2AD1D5
:104700000023136227E0122C11D0132C1AD022E0C0
:10471000174A00211160012142F8081C154A12684D
:1047200012F0FF0FFAD01A6A42F4807212E0124AB5
:1047300001211160114A1268002AFBD01A6A42F462
:10474000007207E00E4A126812F0FF0FFAD01A6AE0
:1047500042F440721A620B4B01221A60FFF78EFF7F
:10476000FFF77EFFBDE81040FFF76CBF001002406E
:104770000804424204044242800442428404424209
:10478000440042423C044242F8B5104B1E68356872
:104790002B686F681F4017F0010403D074680CB1D8
:1047A000A0470124BA0704D5B36813B1984744F071
:1047B00002047B0704D5F36813B1984744F004045E
:1047C0006B6823EA04046C60F8BD00BF1800002089
:1047D00008B5044B1B681B691BB19847024B0122AB
:1047E0001A6008BD18000020C482204208B5FFF7F7
:1047F00045FFFFF735FFFFF725FF044B1B681B68DC
:104800009869DB699BB243EA004008BD18000020AC
:1048100010B50446FFF732FFFFF722FFFFF712FF44
:10482000FFF73CFF064B220C1B68A4B21B689A6181
:10483000DC61FFF743FFBDE81040FFF703BF00BF97
:104840001800002010B50446FFF718FFFFF708FF17
:10485000FFF7F8FEFFF722FF064B220C1B68A4B2FD
:104860001B689A60DC60FFF729FFBDE81040FFF786
:10487000E9BE00BF1800002001498D4601490847E4
:10488000005000208948000808B5124B124A1968E8
:10489000914201D0002301E0104B07E01048D418EA
:1048A0008442F9D2C858D0500433F7E70D4A9342F6
:1048B00003D2002243F8042BF8E702F08DFD00201C
:1048C0000146024601F018FC074B0BB102F074FDE3
:1048D000FEE700BF1C12010800000020A811002004
:1048E000A8110020C0140020B973000808B50D4BB2
:1048F0001A680AB90C4A1A601B680C4AD21A82421A
:1049000004DB09494242591A914206DA02F04EFD8F
:104910000C2303604FF0FF3008BD024A18441060BA
:10492000184608BDC8130020C0140020184E0128E6
:10493000FEE770470B4B10B5196809220A230A4895
:1049400000F0CAFE094B022219680948032300F04F
:10495000C3FEBDE81040074B074819681A221B2305
:1049600000F0BABE3C010020CC1300204001002022
:10497000E413002044010020FC13002010B504467D
:1049800000F07EF9034B20461978BDE8104000F096
:1049900013B900BF34000020F8B50446056800F0E4
:1049A0000FFB22680023510101F184410B6080213B
:1049B00029600121A9622B61EB606379696113B100
:1049C0008B4203D02BE04FF400436B644FF6FF7330
:1049D000D36200256E1CF7B22046394600F0FAFA81
:1049E000D0B1236848F6FF7103F1340242F8251074
:1049F00018336D1017F0010F53F8252014BF6FF016
:104A0000FF016FF47F4101EA020214BF68214FF4F5
:104A1000D0410A4343F82520042E3546DAD12168D7
:104A200001224B01490103F1844301F18441C3F8A0
:104A300080220A60F8BD000038B5274B274C1A6861
:104A4000022042F010021A6000F04EF9002500200A
:104A500000F0E0F965602368182023F40023236048
:104A600000F0E5F9102000F0E2F900F043F8A5604D
:104A7000102000F0CFF9102000F0E7F90028FAD05C
:104A800000F039F8164800F0EDF9182000F0C2F9EE
:104A9000182000F0DAF90028FAD0022000F0AAF974
:104AA00000214FF0006000F087F90E4800F040FA56
:104AB00000F038F80C4B188800F0D0F80B4800F0E4
:104AC000D1F80B4800F068FA00F02EF800F02DF84D
:104AD000FFF72FFF38BD00BF00200240001002404A
:104AE000380000203F190100360000207D490008F1
:104AF00099490008704708B50020014600F0F0F918
:104B000001204FF4806100F0EBF90021022000F059
:104B1000E7F92D2000F0F4F9BDE80840032000215A
:104B200000F0DEB900F0EAB8704700F027B90000E5
:104B3000012007E0022005E0032003E0042001E05B
:104B40000520FFE70D4A0121116072B60C4A0021D1
:104B50001160074902B4084902B486B005498E467F
:104B6000704700BFAFF30080AFF30080AFF3008069
:104B700000000061F9FFFFFFF555000814ED00E0AB
:104B800010E000E0AFF30080AFF30080AFF30080EF
:104B9000FEE710B50446007900F070F92079BDE811
:104BA000104000F083B903689A6822F4602242F44E
:104BB0008012114399607047002370B51A461C4655
:104BC000072B4FEA430503DCEE1801FA06F63443DF
:104BD0001D4401FA05F501330A2B42EA0502EFD123
:104BE0000368DC601A6170BD38B5124D2A6813681D
:104BF0001C68A10706D5196821F0020119609368A5
:104C000003B19847620708D52B681A681B691168B9
:104C100021F00401116003B19847E30708D52B6820
:104C20001A68DB68116821F00101116003B198472F
:104C300038BD00BF64000020036801225B0103F15E
:104C4000844303F58673191F1A6018680028FCD185
:104C500043F8042C0B68002BFCD17047014604205C
:104C600000F03EB9044B10B504461868A047034B4A
:104C70001868A04710BD00BF64000020600000203D
:104C800010B50446FFF785FF20464FF46021FFF77B
:104C90008AFF2368012103F1404308335A015B0175
:104CA00002F1844203F18443116520461960BDE896
:104CB0001040FFF7C1BF08B5142000F0DFF8042052
:104CC00000F0DCF8BDE80840042000F0EFB8000078
:104CD000014B01221A60704720000E42014B002256
:104CE0001A60704720000E42034B1A6822F0070238
:104CF00010431860704700BF0020024008B5074805
:104D000001F0EAFA064801F0E7FA064801F0E4FA91
:104D1000BDE80840044801F0DFBA00BF6800002089
:104D200070000020780000208000002070B501F0A5
:104D30000704A4000F25A5400368C80853F82060A5
:104D4000092A26EA050514BF1646082606FA04F4C1
:104D5000082A44EA050443F8204006D1012000FA5D
:104D600001F1DA6822EA010106E0092A05D10120F1
:104D700000FA01F1DA681143D96070BD08B503206B
:104D800000F07CF8BDE80840032000F08FB8000078
:104D900000284FEA011105DA064B00F00F00C9B2F6
:104DA0001954704700F16040C9B200F5614080F8C5
:104DB0000013704714ED00E021F0604138B521F098
:104DC0007F01084B0843986000241D4660B20F2104
:104DD0000134FFF7DDFF2B2CF8D1F02385F82330C9
:104DE00038BD00BF00ED00E0014B13F81000704724
:104DF000580D0108064B5A6822F0030202435A601C
:104E000080005A6802F00C028242FAD1704700BF5B
:104E100000100240030A0121C0B201FA00F003F1C0
:104E2000804303F504331A68104318607047030A7F
:104E30000121C0B201FA00F003F1804303F504330D
:104E40001A6822EA000018607047030A0222C0B202
:104E500002FA00F003F1804303F504331B681840A5
:104E600070470000044B05C85968126821F474119A
:104E700002430A435A6070470010024010B50446CE
:104E8000FFF7B2FF074B53F82020074B03EB440416
:104E9000637803EBC2039B0003F1844301221A6091
:104EA00010BD00BF88000020580D010810B5044651
:104EB000FFF79AFF084B53F82020084B03EB4404FC
:104EC000637803EBC2039B0003F1844301221A6061
:104ED00000221A6010BD00BF94000020580D010888
:104EE00010B5054B054C5A6854F8200022EA000220
:104EF0001143596010BD00BF00100240B40D0108FD
:104F000010B50446FFF770FF074B53F82020074BFE
:104F100003EB4404637803EBC2039B0003F1844377
:104F200000221A6010BD00BF9C000020580D01082F
:104F3000024B072258601A60704700BF10E000E083
:104F400008B5044B1A6801321A60034B1B6803B1A1
:104F5000984708BDB41400201414002011F0010F6C
:104F600070B542EA03030CBF0825002503FA05F5D6
:104F7000006801F1FF3400F11800C4F3400450F858
:104F8000241014BF6FF0FF066FF47F4631402943B1
:104F900040F8241070BD000010B504460448A04736
:104FA0000448A0470448A0470448A04710BD00BFDC
:104FB000F000002018010020A8000020CC000020F4
:104FC00010B504460079FFF759FF2079BDE810407D
:104FD000FFF76CBF03791E2B10D9212B0ED0202B8D
:104FE0000ED9222B01D0252B04D102298CBF002001
:104FF000012070474B1E58425841704701207047AE
:10500000002070478B1C40F823200368012203F125
:1050100040430C3301EBC3039B0003F184431A604C
:1050200042790379FAB9B3F11A025342534107297D
:1050300045D8DFE801F004090909090E0E13002B19
:105040000CBF2C23192331E0002B0CBF2E231B2374
:105050002CE0002B0CBF2D231A2327E0002B0CBFC4
:105060002B23182322E01B3B0C2B28D8DFE803F06E
:10507000071D090B0D0F2711131517191B001C23F2
:1050800014E01E2312E0322310E036230EE0372313
:105090000CE018230AE0192308E01A2306E02B236A
:1050A00004E02C2302E02D2300E01D2359090122F6
:1050B00003F01F0302FA03F3014A42F8213070475C
:1050C00000E100E00368002203F140430C3301EBF0
:1050D000C3039B0003F1844302311A6040F821208E
:1050E000704738B543790446022B0D463BD0032A5E
:1050F00039D8DFE802F002111F2DFFF7E3FF236824
:10510000013D03F140432033DB0003EB85039B00AB
:1051100003F18443002225E00368002203F14043A9
:105120000C3301EBC3039B0003F184431A6060223C
:10513000082301E010220023FFF710FF2368013D40
:1051400003F140432033DB0003EB85039B0006E0C3
:1051500003684FF2F1229A6103229A605B0103F126
:10516000844301221A6038BD10B5074B1C68E16802
:1051700022690A40120606D55B6A23B19847236963
:1051800023F08003236110BDF000002010B5074B11
:105190001C68E16822690A40D20706D59B6823B1E2
:1051A0009847236923F00103236110BDF00000201C
:1051B000F8B50C4F3D68EB682E691E4016F04004B0
:1051C00003D03C6A0CB1A0474024B30604D5FB6968
:1051D00013B1984744F020042B6923EA04042C619E
:1051E000F8BD00BFF0000020F8B5134F3E68F3682B
:1051F00035691D4015F0100403D0BC690CB1A047FF
:105200001024290704D57B6913B1984744F008049A
:105210006A0704D53B6913B1984744F00404AB070F
:1052200004D5FB6813B1984744F00204336923EABC
:1052300004043461F8BD00BFF0000020F8B51A4E38
:105240003768FB683D691D4015F0400403D0346A9F
:105250000CB1A0474024EB0604D5B36913B19847BD
:1052600044F01004280704D5736913B1984744F03B
:105270000804690704D5336913B1984744F004045E
:10528000AA0704D5F36813B1984744F00204EB076A
:1052900004D5B36813B1984744F001043B6923EA8D
:1052A00004043C61F8BD00BF18010020F8B51A4E97
:1052B0003768FB683D691D4015F0400403D0346A2F
:1052C0000CB1A0474024EB0604D5B36913B198474D
:1052D00044F01004280704D5736913B1984744F0CB
:1052E0000804690704D5336913B1984744F00404EE
:1052F000AA0704D5F36813B1984744F00204EB07FA
:1053000004D5B36813B1984744F001043B6923EA1C
:1053100004043C61F8BD00BFA8000020F8B51A4E97
:105320003768FB683D691D4015F0400403D0346ABE
:105330000CB1A0474024EB0604D5B36913B19847DC
:1053400044F01004280704D5736913B1984744F05A
:105350000804690704D5336913B1984744F004047D
:10536000AA0704D5F36813B1984744F00204EB0789
:1053700004D5B36813B1984744F001043B6923EAAC
:1053800004043C61F8BD00BFCC00002081880268A5
:10539000034689B2505C99881A8989B292B29142C7
:1053A00017BF9A880022013292B2C0B29A80704729
:1053B000C28838B5838892B29BB201329A420446C1
:1053C0000D461AD0C288038992B29BB29A4202D18A
:1053D00083889BB28BB14FF0FF30E288236892B292
:1053E0009D54E288238992B29BB29A4217BFE38808
:1053F000002301339BB2E38038BD2046FFF7C6FF90
:10540000EBE770B51E460546084611460422059C8A
:10541000FFF78CFC9DF810100B223046FFF786FC3E
:105420002B6804F00F01DA6804F0300422F4F05223
:105430001204120C42EA4122DA601A6922F4405244
:105440001204120C42EA04241C6170BD38B50446F3
:10545000154611B900F096F8014619235943AD00DD
:105460006423B1FBF5F1B1FBF3F21201100903FB68
:10547000101109013231B1FBF3F303F00F0321687E
:105480001A4392B28A6038BD38B5114DEB68980660
:1054900007D52B68990604D569680E48C9B2FFF78D
:1054A00087FFEB680A4C1A0611D523681B060ED538
:1054B00009488288C38892B29BB29A4203D0FFF710
:1054C00065FF606038BDE36823F08003E36038BDAA
:1054D00000380140241400201814002038B5114D64
:1054E000EB68980607D52B68990604D569680E48BD
:1054F000C9B2FFF75DFFEB680A4C1A0611D52368A5
:105500001B060ED509488288C38892B29BB29A4284
:1055100003D0FFF73BFF606038BDE36823F08003F2
:10552000E36038BD004400403014002048140020DF
:1055300038B5114DEB68980607D52B68990604D548
:1055400069680E48C9B2FFF733FFEB680A4C1A06C8
:1055500011D523681B060ED509488288C38892B2EC
:105560009BB29A4203D0FFF711FF606038BDE36839
:1055700023F08003E36038BD004800403C14002065
:105580005414002008B590F89002FFF72DFC20B1CC
:105590000128034818BF002008BD024808BD00BF0D
:1055A00000A24A040051250208B5114B01211C68D4
:1055B00003222046FFF7BAFB002301211A4693423B
:1055C000206834BF02254FF40035B2F5007F056135
:1055D00003F1010303D0002A08BF012101E04FF0CD
:1055E000FF31B3F5007F04BF52180023E7E700BF87
:1055F000540D010808B5034B0BB1AFF3008062B640
:10560000FFF7D2FF0000000003695B68D9889A8821
:1056100089B292B2D8888A1A998880B289B28842AF
:1056200003D2198989B201310A4492B282B19988B0
:105630001A6889B2505C99881A8989B292B29142EB
:1056400017BF9A880022013292B2C0B29A80704786
:105650004FF0FF30704703695B689988DA8889B238
:1056600092B2914205D09A881B6892B2985CC0B2FF
:1056700070474FF0FF30704703699A689088D1886F
:1056800080B289B28842F9D11A6813685B06FCD5EA
:10569000704713B504698DF8071020460DF1070116
:1056A000012200F057FE0028F7D0012002B010BD03
:1056B00003695B68D8889A8880B292B2D988801AC8
:1056C0009A8889B292B2914203D21B899BB201336C
:1056D000184480B27047000030B5002545604FF493
:1056E0007A758560024D016105600275437530BDB4
:1056F000D00D010803692DE9F74FDB680446994294
:105700000F4692462CD890F81480174D4FEA08188F
:1057100008EB050690F8159070684FEA091909EB37
:10572000050B717B10B10022FFF7DBFC206900F054
:10573000DDFD337B9BF80C2020698DE8080459F8C7
:10574000051058F80530FFF75CFE206900213A4645
:10575000FFF77CFE206903B0BDE8F04F00F0F0BD1C
:1057600003B0BDE8F08F00BF240B01080022FFF753
:10577000C1BF0000044B02791B789A4202D1034B4F
:105780001B681860704700BF70140020741400205C
:10579000002310B50446036072B6054B1931197029
:1057A000044B18600448FFF7F7FB62B6204610BDB3
:1057B000701400207414002075570008036800223C
:1057C0001B685B0103F184431A6070470368012280
:1057D0001B685B0103F184431A6070470368013959
:1057E0001B6889B29962704703681B68DA6A92B2D3
:1057F000914228BF11465962704738B5054639B9FC
:10580000036801221B689962DA62D86A80B238BDE7
:1058100048244C434FF6FF71B4FBF1F1013189B2DA
:1058200004EB5104B4FBF1F4FFF7D8FF2B68A4B2EA
:105830001B682046DC6238BD0068C9B2FFF7E2BBD6
:1058400008B501210848FFF7A3FF02210748FFF729
:105850009FFF03210648FFF79BFFBDE8084005486E
:105860000421FFF795BF00BF6014002064140020DE
:10587000681400206C1400202DE9F0410024074634
:105880000E4625463B1919790A22304600F01DF9CB
:105890002E218046304600F04DF801344044032C60
:1058A0000544EFD13046F9790A2200F00EF9284478
:1058B000BDE8F08130B58371034D9DF80C30056073
:1058C00001714271C37130BDF80D0108044B054AE6
:1058D0001A6000221A715A719A71DA71704700BF0A
:1058E00078140020F80D010870B505460E46002416
:1058F000315D29B12A682846126890470134F7E7DC
:10590000204670BDF8B505460C4616468F18BC42B9
:1059100006D02B6828461B6814F8011B9847F6E749
:105920003046F8BD10B502680B46946809689A685D
:10593000A04710BD08B503681B68984708BD08B5A7
:1059400003685B68984708BDFFF7F9BF10B50A68A0
:105950000446126808462146904710BD38B50D210F
:105960000546FFF7E7FF0A2104462846FFF7E2FF56
:10597000204438BD38B50446FFF7D4FF054620461D
:10598000FFF7ECFF284438BD38B50446FFF7D7FFD2
:1059900005462046FFF7E2FF284438BD38B50446E7
:1059A000FFF7CDFF05462046FFF7D8FF284438BD56
:1059B00038B50446FFF7CAFF05462046FFF7CEFF7D
:1059C000284438BD2DE9F04F14461D4691B054EAE5
:1059D000050381469DF868B004D13021FFF7AAFF86
:1059E00001202EE04FF000085FFA8BF600272046DA
:1059F000294632463B4601F0CBF908F101080DF18A
:105A0000000AC2440AF8012C204629463B46324689
:105A100001F0BEF904460D4654EA0503E4D1002422
:105A200008F1FF381DF808104846092994BF3031A5
:105A30003731C9B2FFF77EFF0444B8F1000FEFD150
:105A4000204611B0BDE8F08F2DE9F041069F0646D3
:105A500014461D462FB90368D1B21B689847BDE8AC
:105A6000F081002C75F1000305DA2D21FFF762FFAC
:105A7000644265EB4505FFB20697304622462B4649
:105A8000BDE8F041FFF79EBF07B5CB1700920A466D
:105A9000FFF7DAFF03B05DF804FB38B50446FFF703
:105AA000F3FF05462046FFF759FF284438BD70B57F
:105AB000049921B90368D1B21B68984770BDC9B277
:105AC0000491BDE87040FFF77DBF07B50023009249
:105AD000CAB2FFF7ECFF03B05DF804FB38B504462B
